{
	"DataTradingTest/purchase.sol": {
		"purchase": {
			"abi": [
				{
					"inputs": [
						{
							"internalType": "address",
							"name": "_storageContractAddress",
							"type": "address"
						}
					],
					"stateMutability": "nonpayable",
					"type": "constructor"
				},
				{
					"anonymous": false,
					"inputs": [
						{
							"indexed": true,
							"internalType": "address",
							"name": "_from",
							"type": "address"
						},
						{
							"indexed": false,
							"internalType": "uint256",
							"name": "_value",
							"type": "uint256"
						}
					],
					"name": "DepositReceived",
					"type": "event"
				},
				{
					"anonymous": false,
					"inputs": [
						{
							"indexed": true,
							"internalType": "address",
							"name": "_from",
							"type": "address"
						},
						{
							"indexed": false,
							"internalType": "uint256",
							"name": "_value",
							"type": "uint256"
						}
					],
					"name": "ItemPurchased",
					"type": "event"
				},
				{
					"inputs": [
						{
							"internalType": "uint256",
							"name": "",
							"type": "uint256"
						}
					],
					"name": "EncryptedInfo",
					"outputs": [
						{
							"internalType": "bytes32",
							"name": "",
							"type": "bytes32"
						}
					],
					"stateMutability": "view",
					"type": "function"
				},
				{
					"inputs": [],
					"name": "Person",
					"outputs": [
						{
							"internalType": "address payable",
							"name": "",
							"type": "address"
						}
					],
					"stateMutability": "view",
					"type": "function"
				},
				{
					"inputs": [],
					"name": "deposit",
					"outputs": [
						{
							"internalType": "uint256",
							"name": "",
							"type": "uint256"
						}
					],
					"stateMutability": "view",
					"type": "function"
				},
				{
					"inputs": [
						{
							"internalType": "address",
							"name": "",
							"type": "address"
						}
					],
					"name": "depositPaid",
					"outputs": [
						{
							"internalType": "bool",
							"name": "",
							"type": "bool"
						}
					],
					"stateMutability": "view",
					"type": "function"
				},
				{
					"inputs": [
						{
							"internalType": "address",
							"name": "",
							"type": "address"
						}
					],
					"name": "deposits",
					"outputs": [
						{
							"internalType": "uint256",
							"name": "",
							"type": "uint256"
						}
					],
					"stateMutability": "view",
					"type": "function"
				},
				{
					"inputs": [],
					"name": "isItemSold",
					"outputs": [
						{
							"internalType": "bool",
							"name": "",
							"type": "bool"
						}
					],
					"stateMutability": "view",
					"type": "function"
				},
				{
					"inputs": [],
					"name": "itemPrice",
					"outputs": [
						{
							"internalType": "uint256",
							"name": "",
							"type": "uint256"
						}
					],
					"stateMutability": "view",
					"type": "function"
				},
				{
					"inputs": [
						{
							"internalType": "uint256",
							"name": "_fixedItemPrice",
							"type": "uint256"
						}
					],
					"name": "payDeposit",
					"outputs": [
						{
							"internalType": "bool",
							"name": "",
							"type": "bool"
						}
					],
					"stateMutability": "payable",
					"type": "function"
				},
				{
					"inputs": [],
					"name": "refundDeposit",
					"outputs": [],
					"stateMutability": "nonpayable",
					"type": "function"
				}
			],
			"devdoc": {
				"kind": "dev",
				"methods": {},
				"version": 1
			},
			"evm": {
				"assembly": "    /* \"DataTradingTest/purchase.sol\":153:2166  contract purchase {... */\n  mstore(0x40, 0x80)\n    /* \"DataTradingTest/purchase.sol\":866:1015  constructor(address _storageContractAddress) {... */\n  callvalue\n  dup1\n  iszero\n  tag_1\n  jumpi\n  0x00\n  dup1\n  revert\ntag_1:\n  pop\n  mload(0x40)\n  sub(codesize, bytecodeSize)\n  dup1\n  bytecodeSize\n  dup4\n  codecopy\n  dup2\n  dup2\n  add\n  0x40\n  mstore\n  dup2\n  add\n  swap1\n  tag_2\n  swap2\n  swap1\n  tag_3\n  jump\t// in\ntag_2:\n    /* \"DataTradingTest/purchase.sol\":957:980  _storageContractAddress */\n  dup1\n    /* \"DataTradingTest/purchase.sol\":922:941  storageDataContract */\n  0x02\n  0x00\n    /* \"DataTradingTest/purchase.sol\":922:981  storageDataContract =  StorageData(_storageContractAddress) */\n  0x0100\n  exp\n  dup2\n  sload\n  dup2\n  0xffffffffffffffffffffffffffffffffffffffff\n  mul\n  not\n  and\n  swap1\n  dup4\n  0xffffffffffffffffffffffffffffffffffffffff\n  and\n  mul\n  or\n  swap1\n  sstore\n  pop\n    /* \"DataTradingTest/purchase.sol\":866:1015  constructor(address _storageContractAddress) {... */\n  pop\n    /* \"DataTradingTest/purchase.sol\":153:2166  contract purchase {... */\n  jump(tag_6)\n    /* \"#utility.yul\":88:205   */\ntag_8:\n    /* \"#utility.yul\":197:198   */\n  0x00\n    /* \"#utility.yul\":194:195   */\n  dup1\n    /* \"#utility.yul\":187:199   */\n  revert\n    /* \"#utility.yul\":334:460   */\ntag_10:\n    /* \"#utility.yul\":371:378   */\n  0x00\n    /* \"#utility.yul\":411:453   */\n  0xffffffffffffffffffffffffffffffffffffffff\n    /* \"#utility.yul\":404:409   */\n  dup3\n    /* \"#utility.yul\":400:454   */\n  and\n    /* \"#utility.yul\":389:454   */\n  swap1\n  pop\n    /* \"#utility.yul\":334:460   */\n  swap2\n  swap1\n  pop\n  jump\t// out\n    /* \"#utility.yul\":466:562   */\ntag_11:\n    /* \"#utility.yul\":503:510   */\n  0x00\n    /* \"#utility.yul\":532:556   */\n  tag_20\n    /* \"#utility.yul\":550:555   */\n  dup3\n    /* \"#utility.yul\":532:556   */\n  tag_10\n  jump\t// in\ntag_20:\n    /* \"#utility.yul\":521:556   */\n  swap1\n  pop\n    /* \"#utility.yul\":466:562   */\n  swap2\n  swap1\n  pop\n  jump\t// out\n    /* \"#utility.yul\":568:690   */\ntag_12:\n    /* \"#utility.yul\":641:665   */\n  tag_22\n    /* \"#utility.yul\":659:664   */\n  dup2\n    /* \"#utility.yul\":641:665   */\n  tag_11\n  jump\t// in\ntag_22:\n    /* \"#utility.yul\":634:639   */\n  dup2\n    /* \"#utility.yul\":631:666   */\n  eq\n    /* \"#utility.yul\":621:684   */\n  tag_23\n  jumpi\n    /* \"#utility.yul\":680:681   */\n  0x00\n    /* \"#utility.yul\":677:678   */\n  dup1\n    /* \"#utility.yul\":670:682   */\n  revert\n    /* \"#utility.yul\":621:684   */\ntag_23:\n    /* \"#utility.yul\":568:690   */\n  pop\n  jump\t// out\n    /* \"#utility.yul\":696:839   */\ntag_13:\n    /* \"#utility.yul\":753:758   */\n  0x00\n    /* \"#utility.yul\":784:790   */\n  dup2\n    /* \"#utility.yul\":778:791   */\n  mload\n    /* \"#utility.yul\":769:791   */\n  swap1\n  pop\n    /* \"#utility.yul\":800:833   */\n  tag_25\n    /* \"#utility.yul\":827:832   */\n  dup2\n    /* \"#utility.yul\":800:833   */\n  tag_12\n  jump\t// in\ntag_25:\n    /* \"#utility.yul\":696:839   */\n  swap3\n  swap2\n  pop\n  pop\n  jump\t// out\n    /* \"#utility.yul\":845:1196   */\ntag_3:\n    /* \"#utility.yul\":915:921   */\n  0x00\n    /* \"#utility.yul\":964:966   */\n  0x20\n    /* \"#utility.yul\":952:961   */\n  dup3\n    /* \"#utility.yul\":943:950   */\n  dup5\n    /* \"#utility.yul\":939:962   */\n  sub\n    /* \"#utility.yul\":935:967   */\n  slt\n    /* \"#utility.yul\":932:1051   */\n  iszero\n  tag_27\n  jumpi\n    /* \"#utility.yul\":970:1049   */\n  tag_28\n  tag_8\n  jump\t// in\ntag_28:\n    /* \"#utility.yul\":932:1051   */\ntag_27:\n    /* \"#utility.yul\":1090:1091   */\n  0x00\n    /* \"#utility.yul\":1115:1179   */\n  tag_29\n    /* \"#utility.yul\":1171:1178   */\n  dup5\n    /* \"#utility.yul\":1162:1168   */\n  dup3\n    /* \"#utility.yul\":1151:1160   */\n  dup6\n    /* \"#utility.yul\":1147:1169   */\n  add\n    /* \"#utility.yul\":1115:1179   */\n  tag_13\n  jump\t// in\ntag_29:\n    /* \"#utility.yul\":1105:1179   */\n  swap2\n  pop\n    /* \"#utility.yul\":1061:1189   */\n  pop\n    /* \"#utility.yul\":845:1196   */\n  swap3\n  swap2\n  pop\n  pop\n  jump\t// out\n    /* \"DataTradingTest/purchase.sol\":153:2166  contract purchase {... */\ntag_6:\n  dataSize(sub_0)\n  dup1\n  dataOffset(sub_0)\n  0x00\n  codecopy\n  0x00\n  return\nstop\n\nsub_0: assembly {\n        /* \"DataTradingTest/purchase.sol\":153:2166  contract purchase {... */\n      mstore(0x40, 0x80)\n      jumpi(tag_1, lt(calldatasize, 0x04))\n      shr(0xe0, calldataload(0x00))\n      dup1\n      0xd7bd6e96\n      gt\n      tag_11\n      jumpi\n      dup1\n      0xd7bd6e96\n      eq\n      tag_6\n      jumpi\n      dup1\n      0xdac6db1c\n      eq\n      tag_7\n      jumpi\n      dup1\n      0xefbedf38\n      eq\n      tag_8\n      jumpi\n      dup1\n      0xefc5eb8f\n      eq\n      tag_9\n      jumpi\n      dup1\n      0xfc7e286d\n      eq\n      tag_10\n      jumpi\n      jump(tag_1)\n    tag_11:\n      dup1\n      0x0ee28e37\n      eq\n      tag_2\n      jumpi\n      dup1\n      0x28cd3f18\n      eq\n      tag_3\n      jumpi\n      dup1\n      0x5ec8e417\n      eq\n      tag_4\n      jumpi\n      dup1\n      0xd0e30db0\n      eq\n      tag_5\n      jumpi\n    tag_1:\n      0x00\n      dup1\n      revert\n        /* \"DataTradingTest/purchase.sol\":379:408  address payable public Person */\n    tag_2:\n      callvalue\n      dup1\n      iszero\n      tag_12\n      jumpi\n      0x00\n      dup1\n      revert\n    tag_12:\n      pop\n      tag_13\n      tag_14\n      jump\t// in\n    tag_13:\n      mload(0x40)\n      tag_15\n      swap2\n      swap1\n      tag_16\n      jump\t// in\n    tag_15:\n      mload(0x40)\n      dup1\n      swap2\n      sub\n      swap1\n      return\n        /* \"DataTradingTest/purchase.sol\":1050:1633  function payDeposit(uint256 _fixedItemPrice) external payable returns (bool){... */\n    tag_3:\n      tag_17\n      0x04\n      dup1\n      calldatasize\n      sub\n      dup2\n      add\n      swap1\n      tag_18\n      swap2\n      swap1\n      tag_19\n      jump\t// in\n    tag_18:\n      tag_20\n      jump\t// in\n    tag_17:\n      mload(0x40)\n      tag_21\n      swap2\n      swap1\n      tag_22\n      jump\t// in\n    tag_21:\n      mload(0x40)\n      dup1\n      swap2\n      sub\n      swap1\n      return\n        /* \"DataTradingTest/purchase.sol\":528:558  bytes32[] public EncryptedInfo */\n    tag_4:\n      callvalue\n      dup1\n      iszero\n      tag_23\n      jumpi\n      0x00\n      dup1\n      revert\n    tag_23:\n      pop\n      tag_24\n      0x04\n      dup1\n      calldatasize\n      sub\n      dup2\n      add\n      swap1\n      tag_25\n      swap2\n      swap1\n      tag_19\n      jump\t// in\n    tag_25:\n      tag_26\n      jump\t// in\n    tag_24:\n      mload(0x40)\n      tag_27\n      swap2\n      swap1\n      tag_28\n      jump\t// in\n    tag_27:\n      mload(0x40)\n      dup1\n      swap2\n      sub\n      swap1\n      return\n        /* \"DataTradingTest/purchase.sol\":417:439  uint256 public deposit */\n    tag_5:\n      callvalue\n      dup1\n      iszero\n      tag_29\n      jumpi\n      0x00\n      dup1\n      revert\n    tag_29:\n      pop\n      tag_30\n      tag_31\n      jump\t// in\n    tag_30:\n      mload(0x40)\n      tag_32\n      swap2\n      swap1\n      tag_33\n      jump\t// in\n    tag_32:\n      mload(0x40)\n      dup1\n      swap2\n      sub\n      swap1\n      return\n        /* \"DataTradingTest/purchase.sol\":477:499  bool public isItemSold */\n    tag_6:\n      callvalue\n      dup1\n      iszero\n      tag_34\n      jumpi\n      0x00\n      dup1\n      revert\n    tag_34:\n      pop\n      tag_35\n      tag_36\n      jump\t// in\n    tag_35:\n      mload(0x40)\n      tag_37\n      swap2\n      swap1\n      tag_22\n      jump\t// in\n    tag_37:\n      mload(0x40)\n      dup1\n      swap2\n      sub\n      swap1\n      return\n        /* \"DataTradingTest/purchase.sol\":446:470  uint256 public itemPrice */\n    tag_7:\n      callvalue\n      dup1\n      iszero\n      tag_38\n      jumpi\n      0x00\n      dup1\n      revert\n    tag_38:\n      pop\n      tag_39\n      tag_40\n      jump\t// in\n    tag_39:\n      mload(0x40)\n      tag_41\n      swap2\n      swap1\n      tag_33\n      jump\t// in\n    tag_41:\n      mload(0x40)\n      dup1\n      swap2\n      sub\n      swap1\n      return\n        /* \"DataTradingTest/purchase.sol\":647:690  mapping(address => bool) public depositPaid */\n    tag_8:\n      callvalue\n      dup1\n      iszero\n      tag_42\n      jumpi\n      0x00\n      dup1\n      revert\n    tag_42:\n      pop\n      tag_43\n      0x04\n      dup1\n      calldatasize\n      sub\n      dup2\n      add\n      swap1\n      tag_44\n      swap2\n      swap1\n      tag_45\n      jump\t// in\n    tag_44:\n      tag_46\n      jump\t// in\n    tag_43:\n      mload(0x40)\n      tag_47\n      swap2\n      swap1\n      tag_22\n      jump\t// in\n    tag_47:\n      mload(0x40)\n      dup1\n      swap2\n      sub\n      swap1\n      return\n        /* \"DataTradingTest/purchase.sol\":1674:2149  function refundDeposit() external {... */\n    tag_9:\n      callvalue\n      dup1\n      iszero\n      tag_48\n      jumpi\n      0x00\n      dup1\n      revert\n    tag_48:\n      pop\n      tag_49\n      tag_50\n      jump\t// in\n    tag_49:\n      stop\n        /* \"DataTradingTest/purchase.sol\":597:640  mapping(address => uint256) public deposits */\n    tag_10:\n      callvalue\n      dup1\n      iszero\n      tag_51\n      jumpi\n      0x00\n      dup1\n      revert\n    tag_51:\n      pop\n      tag_52\n      0x04\n      dup1\n      calldatasize\n      sub\n      dup2\n      add\n      swap1\n      tag_53\n      swap2\n      swap1\n      tag_45\n      jump\t// in\n    tag_53:\n      tag_54\n      jump\t// in\n    tag_52:\n      mload(0x40)\n      tag_55\n      swap2\n      swap1\n      tag_33\n      jump\t// in\n    tag_55:\n      mload(0x40)\n      dup1\n      swap2\n      sub\n      swap1\n      return\n        /* \"DataTradingTest/purchase.sol\":379:408  address payable public Person */\n    tag_14:\n      0x03\n      0x00\n      swap1\n      sload\n      swap1\n      0x0100\n      exp\n      swap1\n      div\n      0xffffffffffffffffffffffffffffffffffffffff\n      and\n      dup2\n      jump\t// out\n        /* \"DataTradingTest/purchase.sol\":1050:1633  function payDeposit(uint256 _fixedItemPrice) external payable returns (bool){... */\n    tag_20:\n        /* \"DataTradingTest/purchase.sol\":1121:1125  bool */\n      0x00\n        /* \"DataTradingTest/purchase.sol\":1146:1157  depositPaid */\n      0x09\n        /* \"DataTradingTest/purchase.sol\":1146:1169  depositPaid[msg.sender] */\n      0x00\n        /* \"DataTradingTest/purchase.sol\":1158:1168  msg.sender */\n      caller\n        /* \"DataTradingTest/purchase.sol\":1146:1169  depositPaid[msg.sender] */\n      0xffffffffffffffffffffffffffffffffffffffff\n      and\n      0xffffffffffffffffffffffffffffffffffffffff\n      and\n      dup2\n      mstore\n      0x20\n      add\n      swap1\n      dup2\n      mstore\n      0x20\n      add\n      0x00\n      keccak256\n      0x00\n      swap1\n      sload\n      swap1\n      0x0100\n      exp\n      swap1\n      div\n      0xff\n      and\n        /* \"DataTradingTest/purchase.sol\":1145:1169  !depositPaid[msg.sender] */\n      iszero\n        /* \"DataTradingTest/purchase.sol\":1137:1194  require(!depositPaid[msg.sender], \"Deposit already paid\") */\n      tag_57\n      jumpi\n      mload(0x40)\n      0x08c379a000000000000000000000000000000000000000000000000000000000\n      dup2\n      mstore\n      0x04\n      add\n      tag_58\n      swap1\n      tag_59\n      jump\t// in\n    tag_58:\n      mload(0x40)\n      dup1\n      swap2\n      sub\n      swap1\n      revert\n    tag_57:\n        /* \"DataTradingTest/purchase.sol\":1226:1241  _fixedItemPrice */\n      dup2\n        /* \"DataTradingTest/purchase.sol\":1213:1222  msg.value */\n      callvalue\n        /* \"DataTradingTest/purchase.sol\":1213:1241  msg.value >= _fixedItemPrice */\n      lt\n      iszero\n        /* \"DataTradingTest/purchase.sol\":1205:1273  require(msg.value >= _fixedItemPrice, \"Deposit amount insufficient\") */\n      tag_60\n      jumpi\n      mload(0x40)\n      0x08c379a000000000000000000000000000000000000000000000000000000000\n      dup2\n      mstore\n      0x04\n      add\n      tag_61\n      swap1\n      tag_62\n      jump\t// in\n    tag_61:\n      mload(0x40)\n      dup1\n      swap2\n      sub\n      swap1\n      revert\n    tag_60:\n        /* \"DataTradingTest/purchase.sol\":1309:1318  msg.value */\n      callvalue\n        /* \"DataTradingTest/purchase.sol\":1286:1294  deposits */\n      0x08\n        /* \"DataTradingTest/purchase.sol\":1286:1306  deposits[msg.sender] */\n      0x00\n        /* \"DataTradingTest/purchase.sol\":1295:1305  msg.sender */\n      caller\n        /* \"DataTradingTest/purchase.sol\":1286:1306  deposits[msg.sender] */\n      0xffffffffffffffffffffffffffffffffffffffff\n      and\n      0xffffffffffffffffffffffffffffffffffffffff\n      and\n      dup2\n      mstore\n      0x20\n      add\n      swap1\n      dup2\n      mstore\n      0x20\n      add\n      0x00\n      keccak256\n        /* \"DataTradingTest/purchase.sol\":1286:1318  deposits[msg.sender] = msg.value */\n      dup2\n      swap1\n      sstore\n      pop\n        /* \"DataTradingTest/purchase.sol\":1355:1359  true */\n      0x01\n        /* \"DataTradingTest/purchase.sol\":1329:1340  depositPaid */\n      0x09\n        /* \"DataTradingTest/purchase.sol\":1329:1352  depositPaid[msg.sender] */\n      0x00\n        /* \"DataTradingTest/purchase.sol\":1341:1351  msg.sender */\n      caller\n        /* \"DataTradingTest/purchase.sol\":1329:1352  depositPaid[msg.sender] */\n      0xffffffffffffffffffffffffffffffffffffffff\n      and\n      0xffffffffffffffffffffffffffffffffffffffff\n      and\n      dup2\n      mstore\n      0x20\n      add\n      swap1\n      dup2\n      mstore\n      0x20\n      add\n      0x00\n      keccak256\n      0x00\n        /* \"DataTradingTest/purchase.sol\":1329:1359  depositPaid[msg.sender] = true */\n      0x0100\n      exp\n      dup2\n      sload\n      dup2\n      0xff\n      mul\n      not\n      and\n      swap1\n      dup4\n      iszero\n      iszero\n      mul\n      or\n      swap1\n      sstore\n      pop\n        /* \"DataTradingTest/purchase.sol\":1441:1456  _fixedItemPrice */\n      dup2\n        /* \"DataTradingTest/purchase.sol\":1429:1438  itemPrice */\n      0x05\n        /* \"DataTradingTest/purchase.sol\":1429:1456  itemPrice = _fixedItemPrice */\n      dup2\n      swap1\n      sstore\n      pop\n        /* \"DataTradingTest/purchase.sol\":1536:1546  msg.sender */\n      caller\n        /* \"DataTradingTest/purchase.sol\":1519:1525  Person */\n      0x03\n      0x00\n        /* \"DataTradingTest/purchase.sol\":1519:1547  Person = payable(msg.sender) */\n      0x0100\n      exp\n      dup2\n      sload\n      dup2\n      0xffffffffffffffffffffffffffffffffffffffff\n      mul\n      not\n      and\n      swap1\n      dup4\n      0xffffffffffffffffffffffffffffffffffffffff\n      and\n      mul\n      or\n      swap1\n      sstore\n      pop\n        /* \"DataTradingTest/purchase.sol\":1581:1591  msg.sender */\n      caller\n        /* \"DataTradingTest/purchase.sol\":1565:1603  DepositReceived(msg.sender, msg.value) */\n      0xffffffffffffffffffffffffffffffffffffffff\n      and\n      0x9936746a4565f9766fa768f88f56a7487c78780ac179562773d1c75c5269537e\n        /* \"DataTradingTest/purchase.sol\":1593:1602  msg.value */\n      callvalue\n        /* \"DataTradingTest/purchase.sol\":1565:1603  DepositReceived(msg.sender, msg.value) */\n      mload(0x40)\n      tag_63\n      swap2\n      swap1\n      tag_33\n      jump\t// in\n    tag_63:\n      mload(0x40)\n      dup1\n      swap2\n      sub\n      swap1\n      log2\n        /* \"DataTradingTest/purchase.sol\":1621:1625  true */\n      0x01\n        /* \"DataTradingTest/purchase.sol\":1614:1625  return true */\n      swap1\n      pop\n        /* \"DataTradingTest/purchase.sol\":1050:1633  function payDeposit(uint256 _fixedItemPrice) external payable returns (bool){... */\n      swap2\n      swap1\n      pop\n      jump\t// out\n        /* \"DataTradingTest/purchase.sol\":528:558  bytes32[] public EncryptedInfo */\n    tag_26:\n      0x07\n      dup2\n      dup2\n      sload\n      dup2\n      lt\n      tag_64\n      jumpi\n      0x00\n      dup1\n      revert\n    tag_64:\n      swap1\n      0x00\n      mstore\n      keccak256(0x00, 0x20)\n      add\n      0x00\n      swap2\n      pop\n      swap1\n      pop\n      sload\n      dup2\n      jump\t// out\n        /* \"DataTradingTest/purchase.sol\":417:439  uint256 public deposit */\n    tag_31:\n      sload(0x04)\n      dup2\n      jump\t// out\n        /* \"DataTradingTest/purchase.sol\":477:499  bool public isItemSold */\n    tag_36:\n      0x06\n      0x00\n      swap1\n      sload\n      swap1\n      0x0100\n      exp\n      swap1\n      div\n      0xff\n      and\n      dup2\n      jump\t// out\n        /* \"DataTradingTest/purchase.sol\":446:470  uint256 public itemPrice */\n    tag_40:\n      sload(0x05)\n      dup2\n      jump\t// out\n        /* \"DataTradingTest/purchase.sol\":647:690  mapping(address => bool) public depositPaid */\n    tag_46:\n      mstore(0x20, 0x09)\n      dup1\n      0x00\n      mstore\n      keccak256(0x00, 0x40)\n      0x00\n      swap2\n      pop\n      sload\n      swap1\n      0x0100\n      exp\n      swap1\n      div\n      0xff\n      and\n      dup2\n      jump\t// out\n        /* \"DataTradingTest/purchase.sol\":1674:2149  function refundDeposit() external {... */\n    tag_50:\n        /* \"DataTradingTest/purchase.sol\":1763:1774  depositPaid */\n      0x09\n        /* \"DataTradingTest/purchase.sol\":1763:1786  depositPaid[msg.sender] */\n      0x00\n        /* \"DataTradingTest/purchase.sol\":1775:1785  msg.sender */\n      caller\n        /* \"DataTradingTest/purchase.sol\":1763:1786  depositPaid[msg.sender] */\n      0xffffffffffffffffffffffffffffffffffffffff\n      and\n      0xffffffffffffffffffffffffffffffffffffffff\n      and\n      dup2\n      mstore\n      0x20\n      add\n      swap1\n      dup2\n      mstore\n      0x20\n      add\n      0x00\n      keccak256\n      0x00\n      swap1\n      sload\n      swap1\n      0x0100\n      exp\n      swap1\n      div\n      0xff\n      and\n        /* \"DataTradingTest/purchase.sol\":1755:1811  require(depositPaid[msg.sender], \"Deposit not paid yet\") */\n      tag_67\n      jumpi\n      mload(0x40)\n      0x08c379a000000000000000000000000000000000000000000000000000000000\n      dup2\n      mstore\n      0x04\n      add\n      tag_68\n      swap1\n      tag_69\n      jump\t// in\n    tag_68:\n      mload(0x40)\n      dup1\n      swap2\n      sub\n      swap1\n      revert\n    tag_67:\n        /* \"DataTradingTest/purchase.sol\":1897:1905  deposits */\n      0x08\n        /* \"DataTradingTest/purchase.sol\":1897:1917  deposits[msg.sender] */\n      0x00\n        /* \"DataTradingTest/purchase.sol\":1906:1916  msg.sender */\n      caller\n        /* \"DataTradingTest/purchase.sol\":1897:1917  deposits[msg.sender] */\n      0xffffffffffffffffffffffffffffffffffffffff\n      and\n      0xffffffffffffffffffffffffffffffffffffffff\n      and\n      dup2\n      mstore\n      0x20\n      add\n      swap1\n      dup2\n      mstore\n      0x20\n      add\n      0x00\n      keccak256\n      sload\n        /* \"DataTradingTest/purchase.sol\":1872:1893  address(this).balance */\n      selfbalance\n        /* \"DataTradingTest/purchase.sol\":1872:1917  address(this).balance >= deposits[msg.sender] */\n      lt\n      iszero\n        /* \"DataTradingTest/purchase.sol\":1864:1951  require(address(this).balance >= deposits[msg.sender], \"Contract balance insufficient\") */\n      tag_70\n      jumpi\n      mload(0x40)\n      0x08c379a000000000000000000000000000000000000000000000000000000000\n      dup2\n      mstore\n      0x04\n      add\n      tag_71\n      swap1\n      tag_72\n      jump\t// in\n    tag_71:\n      mload(0x40)\n      dup1\n      swap2\n      sub\n      swap1\n      revert\n    tag_70:\n        /* \"DataTradingTest/purchase.sol\":1964:1985  uint256 depositAmount */\n      0x00\n        /* \"DataTradingTest/purchase.sol\":1988:1996  deposits */\n      0x08\n        /* \"DataTradingTest/purchase.sol\":1988:2008  deposits[msg.sender] */\n      0x00\n        /* \"DataTradingTest/purchase.sol\":1997:2007  msg.sender */\n      caller\n        /* \"DataTradingTest/purchase.sol\":1988:2008  deposits[msg.sender] */\n      0xffffffffffffffffffffffffffffffffffffffff\n      and\n      0xffffffffffffffffffffffffffffffffffffffff\n      and\n      dup2\n      mstore\n      0x20\n      add\n      swap1\n      dup2\n      mstore\n      0x20\n      add\n      0x00\n      keccak256\n      sload\n        /* \"DataTradingTest/purchase.sol\":1964:2008  uint256 depositAmount = deposits[msg.sender] */\n      swap1\n      pop\n        /* \"DataTradingTest/purchase.sol\":2042:2043  0 */\n      0x00\n        /* \"DataTradingTest/purchase.sol\":2019:2027  deposits */\n      0x08\n        /* \"DataTradingTest/purchase.sol\":2019:2039  deposits[msg.sender] */\n      0x00\n        /* \"DataTradingTest/purchase.sol\":2028:2038  msg.sender */\n      caller\n        /* \"DataTradingTest/purchase.sol\":2019:2039  deposits[msg.sender] */\n      0xffffffffffffffffffffffffffffffffffffffff\n      and\n      0xffffffffffffffffffffffffffffffffffffffff\n      and\n      dup2\n      mstore\n      0x20\n      add\n      swap1\n      dup2\n      mstore\n      0x20\n      add\n      0x00\n      keccak256\n        /* \"DataTradingTest/purchase.sol\":2019:2043  deposits[msg.sender] = 0 */\n      dup2\n      swap1\n      sstore\n      pop\n        /* \"DataTradingTest/purchase.sol\":2080:2085  false */\n      0x00\n        /* \"DataTradingTest/purchase.sol\":2054:2065  depositPaid */\n      0x09\n        /* \"DataTradingTest/purchase.sol\":2054:2077  depositPaid[msg.sender] */\n      0x00\n        /* \"DataTradingTest/purchase.sol\":2066:2076  msg.sender */\n      caller\n        /* \"DataTradingTest/purchase.sol\":2054:2077  depositPaid[msg.sender] */\n      0xffffffffffffffffffffffffffffffffffffffff\n      and\n      0xffffffffffffffffffffffffffffffffffffffff\n      and\n      dup2\n      mstore\n      0x20\n      add\n      swap1\n      dup2\n      mstore\n      0x20\n      add\n      0x00\n      keccak256\n      0x00\n        /* \"DataTradingTest/purchase.sol\":2054:2085  depositPaid[msg.sender] = false */\n      0x0100\n      exp\n      dup2\n      sload\n      dup2\n      0xff\n      mul\n      not\n      and\n      swap1\n      dup4\n      iszero\n      iszero\n      mul\n      or\n      swap1\n      sstore\n      pop\n        /* \"DataTradingTest/purchase.sol\":2106:2116  msg.sender */\n      caller\n        /* \"DataTradingTest/purchase.sol\":2098:2126  payable(msg.sender).transfer */\n      0xffffffffffffffffffffffffffffffffffffffff\n      and\n        /* \"DataTradingTest/purchase.sol\":2098:2141  payable(msg.sender).transfer(depositAmount) */\n      0x08fc\n        /* \"DataTradingTest/purchase.sol\":2127:2140  depositAmount */\n      dup3\n        /* \"DataTradingTest/purchase.sol\":2098:2141  payable(msg.sender).transfer(depositAmount) */\n      swap1\n      dup2\n      iszero\n      mul\n      swap1\n      mload(0x40)\n      0x00\n      mload(0x40)\n      dup1\n      dup4\n      sub\n      dup2\n      dup6\n      dup9\n      dup9\n      call\n      swap4\n      pop\n      pop\n      pop\n      pop\n      iszero\n      dup1\n      iszero\n      tag_74\n      jumpi\n      returndatasize\n      0x00\n      dup1\n      returndatacopy\n      revert(0x00, returndatasize)\n    tag_74:\n      pop\n        /* \"DataTradingTest/purchase.sol\":1708:2149  {... */\n      pop\n        /* \"DataTradingTest/purchase.sol\":1674:2149  function refundDeposit() external {... */\n      jump\t// out\n        /* \"DataTradingTest/purchase.sol\":597:640  mapping(address => uint256) public deposits */\n    tag_54:\n      mstore(0x20, 0x08)\n      dup1\n      0x00\n      mstore\n      keccak256(0x00, 0x40)\n      0x00\n      swap2\n      pop\n      swap1\n      pop\n      sload\n      dup2\n      jump\t// out\n        /* \"#utility.yul\":7:133   */\n    tag_75:\n        /* \"#utility.yul\":44:51   */\n      0x00\n        /* \"#utility.yul\":84:126   */\n      0xffffffffffffffffffffffffffffffffffffffff\n        /* \"#utility.yul\":77:82   */\n      dup3\n        /* \"#utility.yul\":73:127   */\n      and\n        /* \"#utility.yul\":62:127   */\n      swap1\n      pop\n        /* \"#utility.yul\":7:133   */\n      swap2\n      swap1\n      pop\n      jump\t// out\n        /* \"#utility.yul\":139:243   */\n    tag_76:\n        /* \"#utility.yul\":184:191   */\n      0x00\n        /* \"#utility.yul\":213:237   */\n      tag_104\n        /* \"#utility.yul\":231:236   */\n      dup3\n        /* \"#utility.yul\":213:237   */\n      tag_75\n      jump\t// in\n    tag_104:\n        /* \"#utility.yul\":202:237   */\n      swap1\n      pop\n        /* \"#utility.yul\":139:243   */\n      swap2\n      swap1\n      pop\n      jump\t// out\n        /* \"#utility.yul\":249:391   */\n    tag_77:\n        /* \"#utility.yul\":352:384   */\n      tag_106\n        /* \"#utility.yul\":378:383   */\n      dup2\n        /* \"#utility.yul\":352:384   */\n      tag_76\n      jump\t// in\n    tag_106:\n        /* \"#utility.yul\":347:350   */\n      dup3\n        /* \"#utility.yul\":340:385   */\n      mstore\n        /* \"#utility.yul\":249:391   */\n      pop\n      pop\n      jump\t// out\n        /* \"#utility.yul\":397:651   */\n    tag_16:\n        /* \"#utility.yul\":506:510   */\n      0x00\n        /* \"#utility.yul\":544:546   */\n      0x20\n        /* \"#utility.yul\":533:542   */\n      dup3\n        /* \"#utility.yul\":529:547   */\n      add\n        /* \"#utility.yul\":521:547   */\n      swap1\n      pop\n        /* \"#utility.yul\":557:644   */\n      tag_108\n        /* \"#utility.yul\":641:642   */\n      0x00\n        /* \"#utility.yul\":630:639   */\n      dup4\n        /* \"#utility.yul\":626:643   */\n      add\n        /* \"#utility.yul\":617:623   */\n      dup5\n        /* \"#utility.yul\":557:644   */\n      tag_77\n      jump\t// in\n    tag_108:\n        /* \"#utility.yul\":397:651   */\n      swap3\n      swap2\n      pop\n      pop\n      jump\t// out\n        /* \"#utility.yul\":738:855   */\n    tag_79:\n        /* \"#utility.yul\":847:848   */\n      0x00\n        /* \"#utility.yul\":844:845   */\n      dup1\n        /* \"#utility.yul\":837:849   */\n      revert\n        /* \"#utility.yul\":984:1061   */\n    tag_81:\n        /* \"#utility.yul\":1021:1028   */\n      0x00\n        /* \"#utility.yul\":1050:1055   */\n      dup2\n        /* \"#utility.yul\":1039:1055   */\n      swap1\n      pop\n        /* \"#utility.yul\":984:1061   */\n      swap2\n      swap1\n      pop\n      jump\t// out\n        /* \"#utility.yul\":1067:1189   */\n    tag_82:\n        /* \"#utility.yul\":1140:1164   */\n      tag_114\n        /* \"#utility.yul\":1158:1163   */\n      dup2\n        /* \"#utility.yul\":1140:1164   */\n      tag_81\n      jump\t// in\n    tag_114:\n        /* \"#utility.yul\":1133:1138   */\n      dup2\n        /* \"#utility.yul\":1130:1165   */\n      eq\n        /* \"#utility.yul\":1120:1183   */\n      tag_115\n      jumpi\n        /* \"#utility.yul\":1179:1180   */\n      0x00\n        /* \"#utility.yul\":1176:1177   */\n      dup1\n        /* \"#utility.yul\":1169:1181   */\n      revert\n        /* \"#utility.yul\":1120:1183   */\n    tag_115:\n        /* \"#utility.yul\":1067:1189   */\n      pop\n      jump\t// out\n        /* \"#utility.yul\":1195:1334   */\n    tag_83:\n        /* \"#utility.yul\":1241:1246   */\n      0x00\n        /* \"#utility.yul\":1279:1285   */\n      dup2\n        /* \"#utility.yul\":1266:1286   */\n      calldataload\n        /* \"#utility.yul\":1257:1286   */\n      swap1\n      pop\n        /* \"#utility.yul\":1295:1328   */\n      tag_117\n        /* \"#utility.yul\":1322:1327   */\n      dup2\n        /* \"#utility.yul\":1295:1328   */\n      tag_82\n      jump\t// in\n    tag_117:\n        /* \"#utility.yul\":1195:1334   */\n      swap3\n      swap2\n      pop\n      pop\n      jump\t// out\n        /* \"#utility.yul\":1340:1669   */\n    tag_19:\n        /* \"#utility.yul\":1399:1405   */\n      0x00\n        /* \"#utility.yul\":1448:1450   */\n      0x20\n        /* \"#utility.yul\":1436:1445   */\n      dup3\n        /* \"#utility.yul\":1427:1434   */\n      dup5\n        /* \"#utility.yul\":1423:1446   */\n      sub\n        /* \"#utility.yul\":1419:1451   */\n      slt\n        /* \"#utility.yul\":1416:1535   */\n      iszero\n      tag_119\n      jumpi\n        /* \"#utility.yul\":1454:1533   */\n      tag_120\n      tag_79\n      jump\t// in\n    tag_120:\n        /* \"#utility.yul\":1416:1535   */\n    tag_119:\n        /* \"#utility.yul\":1574:1575   */\n      0x00\n        /* \"#utility.yul\":1599:1652   */\n      tag_121\n        /* \"#utility.yul\":1644:1651   */\n      dup5\n        /* \"#utility.yul\":1635:1641   */\n      dup3\n        /* \"#utility.yul\":1624:1633   */\n      dup6\n        /* \"#utility.yul\":1620:1642   */\n      add\n        /* \"#utility.yul\":1599:1652   */\n      tag_83\n      jump\t// in\n    tag_121:\n        /* \"#utility.yul\":1589:1652   */\n      swap2\n      pop\n        /* \"#utility.yul\":1545:1662   */\n      pop\n        /* \"#utility.yul\":1340:1669   */\n      swap3\n      swap2\n      pop\n      pop\n      jump\t// out\n        /* \"#utility.yul\":1675:1765   */\n    tag_84:\n        /* \"#utility.yul\":1709:1716   */\n      0x00\n        /* \"#utility.yul\":1752:1757   */\n      dup2\n        /* \"#utility.yul\":1745:1758   */\n      iszero\n        /* \"#utility.yul\":1738:1759   */\n      iszero\n        /* \"#utility.yul\":1727:1759   */\n      swap1\n      pop\n        /* \"#utility.yul\":1675:1765   */\n      swap2\n      swap1\n      pop\n      jump\t// out\n        /* \"#utility.yul\":1771:1880   */\n    tag_85:\n        /* \"#utility.yul\":1852:1873   */\n      tag_124\n        /* \"#utility.yul\":1867:1872   */\n      dup2\n        /* \"#utility.yul\":1852:1873   */\n      tag_84\n      jump\t// in\n    tag_124:\n        /* \"#utility.yul\":1847:1850   */\n      dup3\n        /* \"#utility.yul\":1840:1874   */\n      mstore\n        /* \"#utility.yul\":1771:1880   */\n      pop\n      pop\n      jump\t// out\n        /* \"#utility.yul\":1886:2096   */\n    tag_22:\n        /* \"#utility.yul\":1973:1977   */\n      0x00\n        /* \"#utility.yul\":2011:2013   */\n      0x20\n        /* \"#utility.yul\":2000:2009   */\n      dup3\n        /* \"#utility.yul\":1996:2014   */\n      add\n        /* \"#utility.yul\":1988:2014   */\n      swap1\n      pop\n        /* \"#utility.yul\":2024:2089   */\n      tag_126\n        /* \"#utility.yul\":2086:2087   */\n      0x00\n        /* \"#utility.yul\":2075:2084   */\n      dup4\n        /* \"#utility.yul\":2071:2088   */\n      add\n        /* \"#utility.yul\":2062:2068   */\n      dup5\n        /* \"#utility.yul\":2024:2089   */\n      tag_85\n      jump\t// in\n    tag_126:\n        /* \"#utility.yul\":1886:2096   */\n      swap3\n      swap2\n      pop\n      pop\n      jump\t// out\n        /* \"#utility.yul\":2102:2179   */\n    tag_86:\n        /* \"#utility.yul\":2139:2146   */\n      0x00\n        /* \"#utility.yul\":2168:2173   */\n      dup2\n        /* \"#utility.yul\":2157:2173   */\n      swap1\n      pop\n        /* \"#utility.yul\":2102:2179   */\n      swap2\n      swap1\n      pop\n      jump\t// out\n        /* \"#utility.yul\":2185:2303   */\n    tag_87:\n        /* \"#utility.yul\":2272:2296   */\n      tag_129\n        /* \"#utility.yul\":2290:2295   */\n      dup2\n        /* \"#utility.yul\":2272:2296   */\n      tag_86\n      jump\t// in\n    tag_129:\n        /* \"#utility.yul\":2267:2270   */\n      dup3\n        /* \"#utility.yul\":2260:2297   */\n      mstore\n        /* \"#utility.yul\":2185:2303   */\n      pop\n      pop\n      jump\t// out\n        /* \"#utility.yul\":2309:2531   */\n    tag_28:\n        /* \"#utility.yul\":2402:2406   */\n      0x00\n        /* \"#utility.yul\":2440:2442   */\n      0x20\n        /* \"#utility.yul\":2429:2438   */\n      dup3\n        /* \"#utility.yul\":2425:2443   */\n      add\n        /* \"#utility.yul\":2417:2443   */\n      swap1\n      pop\n        /* \"#utility.yul\":2453:2524   */\n      tag_131\n        /* \"#utility.yul\":2521:2522   */\n      0x00\n        /* \"#utility.yul\":2510:2519   */\n      dup4\n        /* \"#utility.yul\":2506:2523   */\n      add\n        /* \"#utility.yul\":2497:2503   */\n      dup5\n        /* \"#utility.yul\":2453:2524   */\n      tag_87\n      jump\t// in\n    tag_131:\n        /* \"#utility.yul\":2309:2531   */\n      swap3\n      swap2\n      pop\n      pop\n      jump\t// out\n        /* \"#utility.yul\":2537:2655   */\n    tag_88:\n        /* \"#utility.yul\":2624:2648   */\n      tag_133\n        /* \"#utility.yul\":2642:2647   */\n      dup2\n        /* \"#utility.yul\":2624:2648   */\n      tag_81\n      jump\t// in\n    tag_133:\n        /* \"#utility.yul\":2619:2622   */\n      dup3\n        /* \"#utility.yul\":2612:2649   */\n      mstore\n        /* \"#utility.yul\":2537:2655   */\n      pop\n      pop\n      jump\t// out\n        /* \"#utility.yul\":2661:2883   */\n    tag_33:\n        /* \"#utility.yul\":2754:2758   */\n      0x00\n        /* \"#utility.yul\":2792:2794   */\n      0x20\n        /* \"#utility.yul\":2781:2790   */\n      dup3\n        /* \"#utility.yul\":2777:2795   */\n      add\n        /* \"#utility.yul\":2769:2795   */\n      swap1\n      pop\n        /* \"#utility.yul\":2805:2876   */\n      tag_135\n        /* \"#utility.yul\":2873:2874   */\n      0x00\n        /* \"#utility.yul\":2862:2871   */\n      dup4\n        /* \"#utility.yul\":2858:2875   */\n      add\n        /* \"#utility.yul\":2849:2855   */\n      dup5\n        /* \"#utility.yul\":2805:2876   */\n      tag_88\n      jump\t// in\n    tag_135:\n        /* \"#utility.yul\":2661:2883   */\n      swap3\n      swap2\n      pop\n      pop\n      jump\t// out\n        /* \"#utility.yul\":2889:2985   */\n    tag_89:\n        /* \"#utility.yul\":2926:2933   */\n      0x00\n        /* \"#utility.yul\":2955:2979   */\n      tag_137\n        /* \"#utility.yul\":2973:2978   */\n      dup3\n        /* \"#utility.yul\":2955:2979   */\n      tag_75\n      jump\t// in\n    tag_137:\n        /* \"#utility.yul\":2944:2979   */\n      swap1\n      pop\n        /* \"#utility.yul\":2889:2985   */\n      swap2\n      swap1\n      pop\n      jump\t// out\n        /* \"#utility.yul\":2991:3113   */\n    tag_90:\n        /* \"#utility.yul\":3064:3088   */\n      tag_139\n        /* \"#utility.yul\":3082:3087   */\n      dup2\n        /* \"#utility.yul\":3064:3088   */\n      tag_89\n      jump\t// in\n    tag_139:\n        /* \"#utility.yul\":3057:3062   */\n      dup2\n        /* \"#utility.yul\":3054:3089   */\n      eq\n        /* \"#utility.yul\":3044:3107   */\n      tag_140\n      jumpi\n        /* \"#utility.yul\":3103:3104   */\n      0x00\n        /* \"#utility.yul\":3100:3101   */\n      dup1\n        /* \"#utility.yul\":3093:3105   */\n      revert\n        /* \"#utility.yul\":3044:3107   */\n    tag_140:\n        /* \"#utility.yul\":2991:3113   */\n      pop\n      jump\t// out\n        /* \"#utility.yul\":3119:3258   */\n    tag_91:\n        /* \"#utility.yul\":3165:3170   */\n      0x00\n        /* \"#utility.yul\":3203:3209   */\n      dup2\n        /* \"#utility.yul\":3190:3210   */\n      calldataload\n        /* \"#utility.yul\":3181:3210   */\n      swap1\n      pop\n        /* \"#utility.yul\":3219:3252   */\n      tag_142\n        /* \"#utility.yul\":3246:3251   */\n      dup2\n        /* \"#utility.yul\":3219:3252   */\n      tag_90\n      jump\t// in\n    tag_142:\n        /* \"#utility.yul\":3119:3258   */\n      swap3\n      swap2\n      pop\n      pop\n      jump\t// out\n        /* \"#utility.yul\":3264:3593   */\n    tag_45:\n        /* \"#utility.yul\":3323:3329   */\n      0x00\n        /* \"#utility.yul\":3372:3374   */\n      0x20\n        /* \"#utility.yul\":3360:3369   */\n      dup3\n        /* \"#utility.yul\":3351:3358   */\n      dup5\n        /* \"#utility.yul\":3347:3370   */\n      sub\n        /* \"#utility.yul\":3343:3375   */\n      slt\n        /* \"#utility.yul\":3340:3459   */\n      iszero\n      tag_144\n      jumpi\n        /* \"#utility.yul\":3378:3457   */\n      tag_145\n      tag_79\n      jump\t// in\n    tag_145:\n        /* \"#utility.yul\":3340:3459   */\n    tag_144:\n        /* \"#utility.yul\":3498:3499   */\n      0x00\n        /* \"#utility.yul\":3523:3576   */\n      tag_146\n        /* \"#utility.yul\":3568:3575   */\n      dup5\n        /* \"#utility.yul\":3559:3565   */\n      dup3\n        /* \"#utility.yul\":3548:3557   */\n      dup6\n        /* \"#utility.yul\":3544:3566   */\n      add\n        /* \"#utility.yul\":3523:3576   */\n      tag_91\n      jump\t// in\n    tag_146:\n        /* \"#utility.yul\":3513:3576   */\n      swap2\n      pop\n        /* \"#utility.yul\":3469:3586   */\n      pop\n        /* \"#utility.yul\":3264:3593   */\n      swap3\n      swap2\n      pop\n      pop\n      jump\t// out\n        /* \"#utility.yul\":3599:3768   */\n    tag_92:\n        /* \"#utility.yul\":3683:3694   */\n      0x00\n        /* \"#utility.yul\":3717:3723   */\n      dup3\n        /* \"#utility.yul\":3712:3715   */\n      dup3\n        /* \"#utility.yul\":3705:3724   */\n      mstore\n        /* \"#utility.yul\":3757:3761   */\n      0x20\n        /* \"#utility.yul\":3752:3755   */\n      dup3\n        /* \"#utility.yul\":3748:3762   */\n      add\n        /* \"#utility.yul\":3733:3762   */\n      swap1\n      pop\n        /* \"#utility.yul\":3599:3768   */\n      swap3\n      swap2\n      pop\n      pop\n      jump\t// out\n        /* \"#utility.yul\":3774:3944   */\n    tag_93:\n        /* \"#utility.yul\":3914:3936   */\n      0x4465706f73697420616c72656164792070616964000000000000000000000000\n        /* \"#utility.yul\":3910:3911   */\n      0x00\n        /* \"#utility.yul\":3902:3908   */\n      dup3\n        /* \"#utility.yul\":3898:3912   */\n      add\n        /* \"#utility.yul\":3891:3937   */\n      mstore\n        /* \"#utility.yul\":3774:3944   */\n      pop\n      jump\t// out\n        /* \"#utility.yul\":3950:4316   */\n    tag_94:\n        /* \"#utility.yul\":4092:4095   */\n      0x00\n        /* \"#utility.yul\":4113:4180   */\n      tag_150\n        /* \"#utility.yul\":4177:4179   */\n      0x14\n        /* \"#utility.yul\":4172:4175   */\n      dup4\n        /* \"#utility.yul\":4113:4180   */\n      tag_92\n      jump\t// in\n    tag_150:\n        /* \"#utility.yul\":4106:4180   */\n      swap2\n      pop\n        /* \"#utility.yul\":4189:4282   */\n      tag_151\n        /* \"#utility.yul\":4278:4281   */\n      dup3\n        /* \"#utility.yul\":4189:4282   */\n      tag_93\n      jump\t// in\n    tag_151:\n        /* \"#utility.yul\":4307:4309   */\n      0x20\n        /* \"#utility.yul\":4302:4305   */\n      dup3\n        /* \"#utility.yul\":4298:4310   */\n      add\n        /* \"#utility.yul\":4291:4310   */\n      swap1\n      pop\n        /* \"#utility.yul\":3950:4316   */\n      swap2\n      swap1\n      pop\n      jump\t// out\n        /* \"#utility.yul\":4322:4741   */\n    tag_59:\n        /* \"#utility.yul\":4488:4492   */\n      0x00\n        /* \"#utility.yul\":4526:4528   */\n      0x20\n        /* \"#utility.yul\":4515:4524   */\n      dup3\n        /* \"#utility.yul\":4511:4529   */\n      add\n        /* \"#utility.yul\":4503:4529   */\n      swap1\n      pop\n        /* \"#utility.yul\":4575:4584   */\n      dup2\n        /* \"#utility.yul\":4569:4573   */\n      dup2\n        /* \"#utility.yul\":4565:4585   */\n      sub\n        /* \"#utility.yul\":4561:4562   */\n      0x00\n        /* \"#utility.yul\":4550:4559   */\n      dup4\n        /* \"#utility.yul\":4546:4563   */\n      add\n        /* \"#utility.yul\":4539:4586   */\n      mstore\n        /* \"#utility.yul\":4603:4734   */\n      tag_153\n        /* \"#utility.yul\":4729:4733   */\n      dup2\n        /* \"#utility.yul\":4603:4734   */\n      tag_94\n      jump\t// in\n    tag_153:\n        /* \"#utility.yul\":4595:4734   */\n      swap1\n      pop\n        /* \"#utility.yul\":4322:4741   */\n      swap2\n      swap1\n      pop\n      jump\t// out\n        /* \"#utility.yul\":4747:4924   */\n    tag_95:\n        /* \"#utility.yul\":4887:4916   */\n      0x4465706f73697420616d6f756e7420696e73756666696369656e740000000000\n        /* \"#utility.yul\":4883:4884   */\n      0x00\n        /* \"#utility.yul\":4875:4881   */\n      dup3\n        /* \"#utility.yul\":4871:4885   */\n      add\n        /* \"#utility.yul\":4864:4917   */\n      mstore\n        /* \"#utility.yul\":4747:4924   */\n      pop\n      jump\t// out\n        /* \"#utility.yul\":4930:5296   */\n    tag_96:\n        /* \"#utility.yul\":5072:5075   */\n      0x00\n        /* \"#utility.yul\":5093:5160   */\n      tag_156\n        /* \"#utility.yul\":5157:5159   */\n      0x1b\n        /* \"#utility.yul\":5152:5155   */\n      dup4\n        /* \"#utility.yul\":5093:5160   */\n      tag_92\n      jump\t// in\n    tag_156:\n        /* \"#utility.yul\":5086:5160   */\n      swap2\n      pop\n        /* \"#utility.yul\":5169:5262   */\n      tag_157\n        /* \"#utility.yul\":5258:5261   */\n      dup3\n        /* \"#utility.yul\":5169:5262   */\n      tag_95\n      jump\t// in\n    tag_157:\n        /* \"#utility.yul\":5287:5289   */\n      0x20\n        /* \"#utility.yul\":5282:5285   */\n      dup3\n        /* \"#utility.yul\":5278:5290   */\n      add\n        /* \"#utility.yul\":5271:5290   */\n      swap1\n      pop\n        /* \"#utility.yul\":4930:5296   */\n      swap2\n      swap1\n      pop\n      jump\t// out\n        /* \"#utility.yul\":5302:5721   */\n    tag_62:\n        /* \"#utility.yul\":5468:5472   */\n      0x00\n        /* \"#utility.yul\":5506:5508   */\n      0x20\n        /* \"#utility.yul\":5495:5504   */\n      dup3\n        /* \"#utility.yul\":5491:5509   */\n      add\n        /* \"#utility.yul\":5483:5509   */\n      swap1\n      pop\n        /* \"#utility.yul\":5555:5564   */\n      dup2\n        /* \"#utility.yul\":5549:5553   */\n      dup2\n        /* \"#utility.yul\":5545:5565   */\n      sub\n        /* \"#utility.yul\":5541:5542   */\n      0x00\n        /* \"#utility.yul\":5530:5539   */\n      dup4\n        /* \"#utility.yul\":5526:5543   */\n      add\n        /* \"#utility.yul\":5519:5566   */\n      mstore\n        /* \"#utility.yul\":5583:5714   */\n      tag_159\n        /* \"#utility.yul\":5709:5713   */\n      dup2\n        /* \"#utility.yul\":5583:5714   */\n      tag_96\n      jump\t// in\n    tag_159:\n        /* \"#utility.yul\":5575:5714   */\n      swap1\n      pop\n        /* \"#utility.yul\":5302:5721   */\n      swap2\n      swap1\n      pop\n      jump\t// out\n        /* \"#utility.yul\":5727:5897   */\n    tag_97:\n        /* \"#utility.yul\":5867:5889   */\n      0x4465706f736974206e6f74207061696420796574000000000000000000000000\n        /* \"#utility.yul\":5863:5864   */\n      0x00\n        /* \"#utility.yul\":5855:5861   */\n      dup3\n        /* \"#utility.yul\":5851:5865   */\n      add\n        /* \"#utility.yul\":5844:5890   */\n      mstore\n        /* \"#utility.yul\":5727:5897   */\n      pop\n      jump\t// out\n        /* \"#utility.yul\":5903:6269   */\n    tag_98:\n        /* \"#utility.yul\":6045:6048   */\n      0x00\n        /* \"#utility.yul\":6066:6133   */\n      tag_162\n        /* \"#utility.yul\":6130:6132   */\n      0x14\n        /* \"#utility.yul\":6125:6128   */\n      dup4\n        /* \"#utility.yul\":6066:6133   */\n      tag_92\n      jump\t// in\n    tag_162:\n        /* \"#utility.yul\":6059:6133   */\n      swap2\n      pop\n        /* \"#utility.yul\":6142:6235   */\n      tag_163\n        /* \"#utility.yul\":6231:6234   */\n      dup3\n        /* \"#utility.yul\":6142:6235   */\n      tag_97\n      jump\t// in\n    tag_163:\n        /* \"#utility.yul\":6260:6262   */\n      0x20\n        /* \"#utility.yul\":6255:6258   */\n      dup3\n        /* \"#utility.yul\":6251:6263   */\n      add\n        /* \"#utility.yul\":6244:6263   */\n      swap1\n      pop\n        /* \"#utility.yul\":5903:6269   */\n      swap2\n      swap1\n      pop\n      jump\t// out\n        /* \"#utility.yul\":6275:6694   */\n    tag_69:\n        /* \"#utility.yul\":6441:6445   */\n      0x00\n        /* \"#utility.yul\":6479:6481   */\n      0x20\n        /* \"#utility.yul\":6468:6477   */\n      dup3\n        /* \"#utility.yul\":6464:6482   */\n      add\n        /* \"#utility.yul\":6456:6482   */\n      swap1\n      pop\n        /* \"#utility.yul\":6528:6537   */\n      dup2\n        /* \"#utility.yul\":6522:6526   */\n      dup2\n        /* \"#utility.yul\":6518:6538   */\n      sub\n        /* \"#utility.yul\":6514:6515   */\n      0x00\n        /* \"#utility.yul\":6503:6512   */\n      dup4\n        /* \"#utility.yul\":6499:6516   */\n      add\n        /* \"#utility.yul\":6492:6539   */\n      mstore\n        /* \"#utility.yul\":6556:6687   */\n      tag_165\n        /* \"#utility.yul\":6682:6686   */\n      dup2\n        /* \"#utility.yul\":6556:6687   */\n      tag_98\n      jump\t// in\n    tag_165:\n        /* \"#utility.yul\":6548:6687   */\n      swap1\n      pop\n        /* \"#utility.yul\":6275:6694   */\n      swap2\n      swap1\n      pop\n      jump\t// out\n        /* \"#utility.yul\":6700:6879   */\n    tag_99:\n        /* \"#utility.yul\":6840:6871   */\n      0x436f6e74726163742062616c616e636520696e73756666696369656e74000000\n        /* \"#utility.yul\":6836:6837   */\n      0x00\n        /* \"#utility.yul\":6828:6834   */\n      dup3\n        /* \"#utility.yul\":6824:6838   */\n      add\n        /* \"#utility.yul\":6817:6872   */\n      mstore\n        /* \"#utility.yul\":6700:6879   */\n      pop\n      jump\t// out\n        /* \"#utility.yul\":6885:7251   */\n    tag_100:\n        /* \"#utility.yul\":7027:7030   */\n      0x00\n        /* \"#utility.yul\":7048:7115   */\n      tag_168\n        /* \"#utility.yul\":7112:7114   */\n      0x1d\n        /* \"#utility.yul\":7107:7110   */\n      dup4\n        /* \"#utility.yul\":7048:7115   */\n      tag_92\n      jump\t// in\n    tag_168:\n        /* \"#utility.yul\":7041:7115   */\n      swap2\n      pop\n        /* \"#utility.yul\":7124:7217   */\n      tag_169\n        /* \"#utility.yul\":7213:7216   */\n      dup3\n        /* \"#utility.yul\":7124:7217   */\n      tag_99\n      jump\t// in\n    tag_169:\n        /* \"#utility.yul\":7242:7244   */\n      0x20\n        /* \"#utility.yul\":7237:7240   */\n      dup3\n        /* \"#utility.yul\":7233:7245   */\n      add\n        /* \"#utility.yul\":7226:7245   */\n      swap1\n      pop\n        /* \"#utility.yul\":6885:7251   */\n      swap2\n      swap1\n      pop\n      jump\t// out\n        /* \"#utility.yul\":7257:7676   */\n    tag_72:\n        /* \"#utility.yul\":7423:7427   */\n      0x00\n        /* \"#utility.yul\":7461:7463   */\n      0x20\n        /* \"#utility.yul\":7450:7459   */\n      dup3\n        /* \"#utility.yul\":7446:7464   */\n      add\n        /* \"#utility.yul\":7438:7464   */\n      swap1\n      pop\n        /* \"#utility.yul\":7510:7519   */\n      dup2\n        /* \"#utility.yul\":7504:7508   */\n      dup2\n        /* \"#utility.yul\":7500:7520   */\n      sub\n        /* \"#utility.yul\":7496:7497   */\n      0x00\n        /* \"#utility.yul\":7485:7494   */\n      dup4\n        /* \"#utility.yul\":7481:7498   */\n      add\n        /* \"#utility.yul\":7474:7521   */\n      mstore\n        /* \"#utility.yul\":7538:7669   */\n      tag_171\n        /* \"#utility.yul\":7664:7668   */\n      dup2\n        /* \"#utility.yul\":7538:7669   */\n      tag_100\n      jump\t// in\n    tag_171:\n        /* \"#utility.yul\":7530:7669   */\n      swap1\n      pop\n        /* \"#utility.yul\":7257:7676   */\n      swap2\n      swap1\n      pop\n      jump\t// out\n\n    auxdata: 0xa2646970667358221220b32f87d4aee660854f5234afd2ddc705764d87627815debf0d3d3367990f215164736f6c63430008160033\n}\n",
				"bytecode": {
					"linkReferences": {},
					"object": "608060405234801561000f575f80fd5b50604051610b89380380610b89833981810160405281019061003191906100d5565b8060025f6101000a81548173ffffffffffffffffffffffffffffffffffffffff021916908373ffffffffffffffffffffffffffffffffffffffff16021790555050610100565b5f80fd5b5f73ffffffffffffffffffffffffffffffffffffffff82169050919050565b5f6100a48261007b565b9050919050565b6100b48161009a565b81146100be575f80fd5b50565b5f815190506100cf816100ab565b92915050565b5f602082840312156100ea576100e9610077565b5b5f6100f7848285016100c1565b91505092915050565b610a7c8061010d5f395ff3fe608060405260043610610085575f3560e01c8063d7bd6e9611610058578063d7bd6e9614610149578063dac6db1c14610173578063efbedf381461019d578063efc5eb8f146101d9578063fc7e286d146101ef57610085565b80630ee28e371461008957806328cd3f18146100b35780635ec8e417146100e3578063d0e30db01461011f575b5f80fd5b348015610094575f80fd5b5061009d61022b565b6040516100aa9190610729565b60405180910390f35b6100cd60048036038101906100c89190610779565b610250565b6040516100da91906107be565b60405180910390f35b3480156100ee575f80fd5b5061010960048036038101906101049190610779565b610453565b60405161011691906107ef565b60405180910390f35b34801561012a575f80fd5b50610133610473565b6040516101409190610817565b60405180910390f35b348015610154575f80fd5b5061015d610479565b60405161016a91906107be565b60405180910390f35b34801561017e575f80fd5b5061018761048b565b6040516101949190610817565b60405180910390f35b3480156101a8575f80fd5b506101c360048036038101906101be919061086b565b610491565b6040516101d091906107be565b60405180910390f35b3480156101e4575f80fd5b506101ed6104ae565b005b3480156101fa575f80fd5b506102156004803603810190610210919061086b565b6106d5565b6040516102229190610817565b60405180910390f35b60035f9054906101000a900473ffffffffffffffffffffffffffffffffffffffff1681565b5f60095f3373ffffffffffffffffffffffffffffffffffffffff1673ffffffffffffffffffffffffffffffffffffffff1681526020019081526020015f205f9054906101000a900460ff16156102db576040517f08c379a00000000000000000000000000000000000000000000000000000000081526004016102d2906108f0565b60405180910390fd5b8134101561031e576040517f08c379a000000000000000000000000000000000000000000000000000000000815260040161031590610958565b60405180910390fd5b3460085f3373ffffffffffffffffffffffffffffffffffffffff1673ffffffffffffffffffffffffffffffffffffffff1681526020019081526020015f2081905550600160095f3373ffffffffffffffffffffffffffffffffffffffff1673ffffffffffffffffffffffffffffffffffffffff1681526020019081526020015f205f6101000a81548160ff021916908315150217905550816005819055503360035f6101000a81548173ffffffffffffffffffffffffffffffffffffffff021916908373ffffffffffffffffffffffffffffffffffffffff1602179055503373ffffffffffffffffffffffffffffffffffffffff167f9936746a4565f9766fa768f88f56a7487c78780ac179562773d1c75c5269537e346040516104429190610817565b60405180910390a260019050919050565b60078181548110610462575f80fd5b905f5260205f20015f915090505481565b60045481565b60065f9054906101000a900460ff1681565b60055481565b6009602052805f5260405f205f915054906101000a900460ff1681565b60095f3373ffffffffffffffffffffffffffffffffffffffff1673ffffffffffffffffffffffffffffffffffffffff1681526020019081526020015f205f9054906101000a900460ff16610537576040517f08c379a000000000000000000000000000000000000000000000000000000000815260040161052e906109c0565b60405180910390fd5b60085f3373ffffffffffffffffffffffffffffffffffffffff1673ffffffffffffffffffffffffffffffffffffffff1681526020019081526020015f20544710156105b7576040517f08c379a00000000000000000000000000000000000000000000000000000000081526004016105ae90610a28565b60405180910390fd5b5f60085f3373ffffffffffffffffffffffffffffffffffffffff1673ffffffffffffffffffffffffffffffffffffffff1681526020019081526020015f205490505f60085f3373ffffffffffffffffffffffffffffffffffffffff1673ffffffffffffffffffffffffffffffffffffffff1681526020019081526020015f20819055505f60095f3373ffffffffffffffffffffffffffffffffffffffff1673ffffffffffffffffffffffffffffffffffffffff1681526020019081526020015f205f6101000a81548160ff0219169083151502179055503373ffffffffffffffffffffffffffffffffffffffff166108fc8290811502906040515f60405180830381858888f193505050501580156106d1573d5f803e3d5ffd5b5050565b6008602052805f5260405f205f915090505481565b5f73ffffffffffffffffffffffffffffffffffffffff82169050919050565b5f610713826106ea565b9050919050565b61072381610709565b82525050565b5f60208201905061073c5f83018461071a565b92915050565b5f80fd5b5f819050919050565b61075881610746565b8114610762575f80fd5b50565b5f813590506107738161074f565b92915050565b5f6020828403121561078e5761078d610742565b5b5f61079b84828501610765565b91505092915050565b5f8115159050919050565b6107b8816107a4565b82525050565b5f6020820190506107d15f8301846107af565b92915050565b5f819050919050565b6107e9816107d7565b82525050565b5f6020820190506108025f8301846107e0565b92915050565b61081181610746565b82525050565b5f60208201905061082a5f830184610808565b92915050565b5f61083a826106ea565b9050919050565b61084a81610830565b8114610854575f80fd5b50565b5f8135905061086581610841565b92915050565b5f602082840312156108805761087f610742565b5b5f61088d84828501610857565b91505092915050565b5f82825260208201905092915050565b7f4465706f73697420616c726561647920706169640000000000000000000000005f82015250565b5f6108da601483610896565b91506108e5826108a6565b602082019050919050565b5f6020820190508181035f830152610907816108ce565b9050919050565b7f4465706f73697420616d6f756e7420696e73756666696369656e7400000000005f82015250565b5f610942601b83610896565b915061094d8261090e565b602082019050919050565b5f6020820190508181035f83015261096f81610936565b9050919050565b7f4465706f736974206e6f742070616964207965740000000000000000000000005f82015250565b5f6109aa601483610896565b91506109b582610976565b602082019050919050565b5f6020820190508181035f8301526109d78161099e565b9050919050565b7f436f6e74726163742062616c616e636520696e73756666696369656e740000005f82015250565b5f610a12601d83610896565b9150610a1d826109de565b602082019050919050565b5f6020820190508181035f830152610a3f81610a06565b905091905056fea2646970667358221220b32f87d4aee660854f5234afd2ddc705764d87627815debf0d3d3367990f215164736f6c63430008160033",
					"opcodes": "PUSH1 0x80 PUSH1 0x40 MSTORE CALLVALUE DUP1 ISZERO PUSH2 0xF JUMPI PUSH0 DUP1 REVERT JUMPDEST POP PUSH1 0x40 MLOAD PUSH2 0xB89 CODESIZE SUB DUP1 PUSH2 0xB89 DUP4 CODECOPY DUP2 DUP2 ADD PUSH1 0x40 MSTORE DUP2 ADD SWAP1 PUSH2 0x31 SWAP2 SWAP1 PUSH2 0xD5 JUMP JUMPDEST DUP1 PUSH1 0x2 PUSH0 PUSH2 0x100 EXP DUP2 SLOAD DUP2 PUSH20 0xFFFFFFFFFFFFFFFFFFFFFFFFFFFFFFFFFFFFFFFF MUL NOT AND SWAP1 DUP4 PUSH20 0xFFFFFFFFFFFFFFFFFFFFFFFFFFFFFFFFFFFFFFFF AND MUL OR SWAP1 SSTORE POP POP PUSH2 0x100 JUMP JUMPDEST PUSH0 DUP1 REVERT JUMPDEST PUSH0 PUSH20 0xFFFFFFFFFFFFFFFFFFFFFFFFFFFFFFFFFFFFFFFF DUP3 AND SWAP1 POP SWAP2 SWAP1 POP JUMP JUMPDEST PUSH0 PUSH2 0xA4 DUP3 PUSH2 0x7B JUMP JUMPDEST SWAP1 POP SWAP2 SWAP1 POP JUMP JUMPDEST PUSH2 0xB4 DUP2 PUSH2 0x9A JUMP JUMPDEST DUP2 EQ PUSH2 0xBE JUMPI PUSH0 DUP1 REVERT JUMPDEST POP JUMP JUMPDEST PUSH0 DUP2 MLOAD SWAP1 POP PUSH2 0xCF DUP2 PUSH2 0xAB JUMP JUMPDEST SWAP3 SWAP2 POP POP JUMP JUMPDEST PUSH0 PUSH1 0x20 DUP3 DUP5 SUB SLT ISZERO PUSH2 0xEA JUMPI PUSH2 0xE9 PUSH2 0x77 JUMP JUMPDEST JUMPDEST PUSH0 PUSH2 0xF7 DUP5 DUP3 DUP6 ADD PUSH2 0xC1 JUMP JUMPDEST SWAP2 POP POP SWAP3 SWAP2 POP POP JUMP JUMPDEST PUSH2 0xA7C DUP1 PUSH2 0x10D PUSH0 CODECOPY PUSH0 RETURN INVALID PUSH1 0x80 PUSH1 0x40 MSTORE PUSH1 0x4 CALLDATASIZE LT PUSH2 0x85 JUMPI PUSH0 CALLDATALOAD PUSH1 0xE0 SHR DUP1 PUSH4 0xD7BD6E96 GT PUSH2 0x58 JUMPI DUP1 PUSH4 0xD7BD6E96 EQ PUSH2 0x149 JUMPI DUP1 PUSH4 0xDAC6DB1C EQ PUSH2 0x173 JUMPI DUP1 PUSH4 0xEFBEDF38 EQ PUSH2 0x19D JUMPI DUP1 PUSH4 0xEFC5EB8F EQ PUSH2 0x1D9 JUMPI DUP1 PUSH4 0xFC7E286D EQ PUSH2 0x1EF JUMPI PUSH2 0x85 JUMP JUMPDEST DUP1 PUSH4 0xEE28E37 EQ PUSH2 0x89 JUMPI DUP1 PUSH4 0x28CD3F18 EQ PUSH2 0xB3 JUMPI DUP1 PUSH4 0x5EC8E417 EQ PUSH2 0xE3 JUMPI DUP1 PUSH4 0xD0E30DB0 EQ PUSH2 0x11F JUMPI JUMPDEST PUSH0 DUP1 REVERT JUMPDEST CALLVALUE DUP1 ISZERO PUSH2 0x94 JUMPI PUSH0 DUP1 REVERT JUMPDEST POP PUSH2 0x9D PUSH2 0x22B JUMP JUMPDEST PUSH1 0x40 MLOAD PUSH2 0xAA SWAP2 SWAP1 PUSH2 0x729 JUMP JUMPDEST PUSH1 0x40 MLOAD DUP1 SWAP2 SUB SWAP1 RETURN JUMPDEST PUSH2 0xCD PUSH1 0x4 DUP1 CALLDATASIZE SUB DUP2 ADD SWAP1 PUSH2 0xC8 SWAP2 SWAP1 PUSH2 0x779 JUMP JUMPDEST PUSH2 0x250 JUMP JUMPDEST PUSH1 0x40 MLOAD PUSH2 0xDA SWAP2 SWAP1 PUSH2 0x7BE JUMP JUMPDEST PUSH1 0x40 MLOAD DUP1 SWAP2 SUB SWAP1 RETURN JUMPDEST CALLVALUE DUP1 ISZERO PUSH2 0xEE JUMPI PUSH0 DUP1 REVERT JUMPDEST POP PUSH2 0x109 PUSH1 0x4 DUP1 CALLDATASIZE SUB DUP2 ADD SWAP1 PUSH2 0x104 SWAP2 SWAP1 PUSH2 0x779 JUMP JUMPDEST PUSH2 0x453 JUMP JUMPDEST PUSH1 0x40 MLOAD PUSH2 0x116 SWAP2 SWAP1 PUSH2 0x7EF JUMP JUMPDEST PUSH1 0x40 MLOAD DUP1 SWAP2 SUB SWAP1 RETURN JUMPDEST CALLVALUE DUP1 ISZERO PUSH2 0x12A JUMPI PUSH0 DUP1 REVERT JUMPDEST POP PUSH2 0x133 PUSH2 0x473 JUMP JUMPDEST PUSH1 0x40 MLOAD PUSH2 0x140 SWAP2 SWAP1 PUSH2 0x817 JUMP JUMPDEST PUSH1 0x40 MLOAD DUP1 SWAP2 SUB SWAP1 RETURN JUMPDEST CALLVALUE DUP1 ISZERO PUSH2 0x154 JUMPI PUSH0 DUP1 REVERT JUMPDEST POP PUSH2 0x15D PUSH2 0x479 JUMP JUMPDEST PUSH1 0x40 MLOAD PUSH2 0x16A SWAP2 SWAP1 PUSH2 0x7BE JUMP JUMPDEST PUSH1 0x40 MLOAD DUP1 SWAP2 SUB SWAP1 RETURN JUMPDEST CALLVALUE DUP1 ISZERO PUSH2 0x17E JUMPI PUSH0 DUP1 REVERT JUMPDEST POP PUSH2 0x187 PUSH2 0x48B JUMP JUMPDEST PUSH1 0x40 MLOAD PUSH2 0x194 SWAP2 SWAP1 PUSH2 0x817 JUMP JUMPDEST PUSH1 0x40 MLOAD DUP1 SWAP2 SUB SWAP1 RETURN JUMPDEST CALLVALUE DUP1 ISZERO PUSH2 0x1A8 JUMPI PUSH0 DUP1 REVERT JUMPDEST POP PUSH2 0x1C3 PUSH1 0x4 DUP1 CALLDATASIZE SUB DUP2 ADD SWAP1 PUSH2 0x1BE SWAP2 SWAP1 PUSH2 0x86B JUMP JUMPDEST PUSH2 0x491 JUMP JUMPDEST PUSH1 0x40 MLOAD PUSH2 0x1D0 SWAP2 SWAP1 PUSH2 0x7BE JUMP JUMPDEST PUSH1 0x40 MLOAD DUP1 SWAP2 SUB SWAP1 RETURN JUMPDEST CALLVALUE DUP1 ISZERO PUSH2 0x1E4 JUMPI PUSH0 DUP1 REVERT JUMPDEST POP PUSH2 0x1ED PUSH2 0x4AE JUMP JUMPDEST STOP JUMPDEST CALLVALUE DUP1 ISZERO PUSH2 0x1FA JUMPI PUSH0 DUP1 REVERT JUMPDEST POP PUSH2 0x215 PUSH1 0x4 DUP1 CALLDATASIZE SUB DUP2 ADD SWAP1 PUSH2 0x210 SWAP2 SWAP1 PUSH2 0x86B JUMP JUMPDEST PUSH2 0x6D5 JUMP JUMPDEST PUSH1 0x40 MLOAD PUSH2 0x222 SWAP2 SWAP1 PUSH2 0x817 JUMP JUMPDEST PUSH1 0x40 MLOAD DUP1 SWAP2 SUB SWAP1 RETURN JUMPDEST PUSH1 0x3 PUSH0 SWAP1 SLOAD SWAP1 PUSH2 0x100 EXP SWAP1 DIV PUSH20 0xFFFFFFFFFFFFFFFFFFFFFFFFFFFFFFFFFFFFFFFF AND DUP2 JUMP JUMPDEST PUSH0 PUSH1 0x9 PUSH0 CALLER PUSH20 0xFFFFFFFFFFFFFFFFFFFFFFFFFFFFFFFFFFFFFFFF AND PUSH20 0xFFFFFFFFFFFFFFFFFFFFFFFFFFFFFFFFFFFFFFFF AND DUP2 MSTORE PUSH1 0x20 ADD SWAP1 DUP2 MSTORE PUSH1 0x20 ADD PUSH0 KECCAK256 PUSH0 SWAP1 SLOAD SWAP1 PUSH2 0x100 EXP SWAP1 DIV PUSH1 0xFF AND ISZERO PUSH2 0x2DB JUMPI PUSH1 0x40 MLOAD PUSH32 0x8C379A000000000000000000000000000000000000000000000000000000000 DUP2 MSTORE PUSH1 0x4 ADD PUSH2 0x2D2 SWAP1 PUSH2 0x8F0 JUMP JUMPDEST PUSH1 0x40 MLOAD DUP1 SWAP2 SUB SWAP1 REVERT JUMPDEST DUP2 CALLVALUE LT ISZERO PUSH2 0x31E JUMPI PUSH1 0x40 MLOAD PUSH32 0x8C379A000000000000000000000000000000000000000000000000000000000 DUP2 MSTORE PUSH1 0x4 ADD PUSH2 0x315 SWAP1 PUSH2 0x958 JUMP JUMPDEST PUSH1 0x40 MLOAD DUP1 SWAP2 SUB SWAP1 REVERT JUMPDEST CALLVALUE PUSH1 0x8 PUSH0 CALLER PUSH20 0xFFFFFFFFFFFFFFFFFFFFFFFFFFFFFFFFFFFFFFFF AND PUSH20 0xFFFFFFFFFFFFFFFFFFFFFFFFFFFFFFFFFFFFFFFF AND DUP2 MSTORE PUSH1 0x20 ADD SWAP1 DUP2 MSTORE PUSH1 0x20 ADD PUSH0 KECCAK256 DUP2 SWAP1 SSTORE POP PUSH1 0x1 PUSH1 0x9 PUSH0 CALLER PUSH20 0xFFFFFFFFFFFFFFFFFFFFFFFFFFFFFFFFFFFFFFFF AND PUSH20 0xFFFFFFFFFFFFFFFFFFFFFFFFFFFFFFFFFFFFFFFF AND DUP2 MSTORE PUSH1 0x20 ADD SWAP1 DUP2 MSTORE PUSH1 0x20 ADD PUSH0 KECCAK256 PUSH0 PUSH2 0x100 EXP DUP2 SLOAD DUP2 PUSH1 0xFF MUL NOT AND SWAP1 DUP4 ISZERO ISZERO MUL OR SWAP1 SSTORE POP DUP2 PUSH1 0x5 DUP2 SWAP1 SSTORE POP CALLER PUSH1 0x3 PUSH0 PUSH2 0x100 EXP DUP2 SLOAD DUP2 PUSH20 0xFFFFFFFFFFFFFFFFFFFFFFFFFFFFFFFFFFFFFFFF MUL NOT AND SWAP1 DUP4 PUSH20 0xFFFFFFFFFFFFFFFFFFFFFFFFFFFFFFFFFFFFFFFF AND MUL OR SWAP1 SSTORE POP CALLER PUSH20 0xFFFFFFFFFFFFFFFFFFFFFFFFFFFFFFFFFFFFFFFF AND PUSH32 0x9936746A4565F9766FA768F88F56A7487C78780AC179562773D1C75C5269537E CALLVALUE PUSH1 0x40 MLOAD PUSH2 0x442 SWAP2 SWAP1 PUSH2 0x817 JUMP JUMPDEST PUSH1 0x40 MLOAD DUP1 SWAP2 SUB SWAP1 LOG2 PUSH1 0x1 SWAP1 POP SWAP2 SWAP1 POP JUMP JUMPDEST PUSH1 0x7 DUP2 DUP2 SLOAD DUP2 LT PUSH2 0x462 JUMPI PUSH0 DUP1 REVERT JUMPDEST SWAP1 PUSH0 MSTORE PUSH1 0x20 PUSH0 KECCAK256 ADD PUSH0 SWAP2 POP SWAP1 POP SLOAD DUP2 JUMP JUMPDEST PUSH1 0x4 SLOAD DUP2 JUMP JUMPDEST PUSH1 0x6 PUSH0 SWAP1 SLOAD SWAP1 PUSH2 0x100 EXP SWAP1 DIV PUSH1 0xFF AND DUP2 JUMP JUMPDEST PUSH1 0x5 SLOAD DUP2 JUMP JUMPDEST PUSH1 0x9 PUSH1 0x20 MSTORE DUP1 PUSH0 MSTORE PUSH1 0x40 PUSH0 KECCAK256 PUSH0 SWAP2 POP SLOAD SWAP1 PUSH2 0x100 EXP SWAP1 DIV PUSH1 0xFF AND DUP2 JUMP JUMPDEST PUSH1 0x9 PUSH0 CALLER PUSH20 0xFFFFFFFFFFFFFFFFFFFFFFFFFFFFFFFFFFFFFFFF AND PUSH20 0xFFFFFFFFFFFFFFFFFFFFFFFFFFFFFFFFFFFFFFFF AND DUP2 MSTORE PUSH1 0x20 ADD SWAP1 DUP2 MSTORE PUSH1 0x20 ADD PUSH0 KECCAK256 PUSH0 SWAP1 SLOAD SWAP1 PUSH2 0x100 EXP SWAP1 DIV PUSH1 0xFF AND PUSH2 0x537 JUMPI PUSH1 0x40 MLOAD PUSH32 0x8C379A000000000000000000000000000000000000000000000000000000000 DUP2 MSTORE PUSH1 0x4 ADD PUSH2 0x52E SWAP1 PUSH2 0x9C0 JUMP JUMPDEST PUSH1 0x40 MLOAD DUP1 SWAP2 SUB SWAP1 REVERT JUMPDEST PUSH1 0x8 PUSH0 CALLER PUSH20 0xFFFFFFFFFFFFFFFFFFFFFFFFFFFFFFFFFFFFFFFF AND PUSH20 0xFFFFFFFFFFFFFFFFFFFFFFFFFFFFFFFFFFFFFFFF AND DUP2 MSTORE PUSH1 0x20 ADD SWAP1 DUP2 MSTORE PUSH1 0x20 ADD PUSH0 KECCAK256 SLOAD SELFBALANCE LT ISZERO PUSH2 0x5B7 JUMPI PUSH1 0x40 MLOAD PUSH32 0x8C379A000000000000000000000000000000000000000000000000000000000 DUP2 MSTORE PUSH1 0x4 ADD PUSH2 0x5AE SWAP1 PUSH2 0xA28 JUMP JUMPDEST PUSH1 0x40 MLOAD DUP1 SWAP2 SUB SWAP1 REVERT JUMPDEST PUSH0 PUSH1 0x8 PUSH0 CALLER PUSH20 0xFFFFFFFFFFFFFFFFFFFFFFFFFFFFFFFFFFFFFFFF AND PUSH20 0xFFFFFFFFFFFFFFFFFFFFFFFFFFFFFFFFFFFFFFFF AND DUP2 MSTORE PUSH1 0x20 ADD SWAP1 DUP2 MSTORE PUSH1 0x20 ADD PUSH0 KECCAK256 SLOAD SWAP1 POP PUSH0 PUSH1 0x8 PUSH0 CALLER PUSH20 0xFFFFFFFFFFFFFFFFFFFFFFFFFFFFFFFFFFFFFFFF AND PUSH20 0xFFFFFFFFFFFFFFFFFFFFFFFFFFFFFFFFFFFFFFFF AND DUP2 MSTORE PUSH1 0x20 ADD SWAP1 DUP2 MSTORE PUSH1 0x20 ADD PUSH0 KECCAK256 DUP2 SWAP1 SSTORE POP PUSH0 PUSH1 0x9 PUSH0 CALLER PUSH20 0xFFFFFFFFFFFFFFFFFFFFFFFFFFFFFFFFFFFFFFFF AND PUSH20 0xFFFFFFFFFFFFFFFFFFFFFFFFFFFFFFFFFFFFFFFF AND DUP2 MSTORE PUSH1 0x20 ADD SWAP1 DUP2 MSTORE PUSH1 0x20 ADD PUSH0 KECCAK256 PUSH0 PUSH2 0x100 EXP DUP2 SLOAD DUP2 PUSH1 0xFF MUL NOT AND SWAP1 DUP4 ISZERO ISZERO MUL OR SWAP1 SSTORE POP CALLER PUSH20 0xFFFFFFFFFFFFFFFFFFFFFFFFFFFFFFFFFFFFFFFF AND PUSH2 0x8FC DUP3 SWAP1 DUP2 ISZERO MUL SWAP1 PUSH1 0x40 MLOAD PUSH0 PUSH1 0x40 MLOAD DUP1 DUP4 SUB DUP2 DUP6 DUP9 DUP9 CALL SWAP4 POP POP POP POP ISZERO DUP1 ISZERO PUSH2 0x6D1 JUMPI RETURNDATASIZE PUSH0 DUP1 RETURNDATACOPY RETURNDATASIZE PUSH0 REVERT JUMPDEST POP POP JUMP JUMPDEST PUSH1 0x8 PUSH1 0x20 MSTORE DUP1 PUSH0 MSTORE PUSH1 0x40 PUSH0 KECCAK256 PUSH0 SWAP2 POP SWAP1 POP SLOAD DUP2 JUMP JUMPDEST PUSH0 PUSH20 0xFFFFFFFFFFFFFFFFFFFFFFFFFFFFFFFFFFFFFFFF DUP3 AND SWAP1 POP SWAP2 SWAP1 POP JUMP JUMPDEST PUSH0 PUSH2 0x713 DUP3 PUSH2 0x6EA JUMP JUMPDEST SWAP1 POP SWAP2 SWAP1 POP JUMP JUMPDEST PUSH2 0x723 DUP2 PUSH2 0x709 JUMP JUMPDEST DUP3 MSTORE POP POP JUMP JUMPDEST PUSH0 PUSH1 0x20 DUP3 ADD SWAP1 POP PUSH2 0x73C PUSH0 DUP4 ADD DUP5 PUSH2 0x71A JUMP JUMPDEST SWAP3 SWAP2 POP POP JUMP JUMPDEST PUSH0 DUP1 REVERT JUMPDEST PUSH0 DUP2 SWAP1 POP SWAP2 SWAP1 POP JUMP JUMPDEST PUSH2 0x758 DUP2 PUSH2 0x746 JUMP JUMPDEST DUP2 EQ PUSH2 0x762 JUMPI PUSH0 DUP1 REVERT JUMPDEST POP JUMP JUMPDEST PUSH0 DUP2 CALLDATALOAD SWAP1 POP PUSH2 0x773 DUP2 PUSH2 0x74F JUMP JUMPDEST SWAP3 SWAP2 POP POP JUMP JUMPDEST PUSH0 PUSH1 0x20 DUP3 DUP5 SUB SLT ISZERO PUSH2 0x78E JUMPI PUSH2 0x78D PUSH2 0x742 JUMP JUMPDEST JUMPDEST PUSH0 PUSH2 0x79B DUP5 DUP3 DUP6 ADD PUSH2 0x765 JUMP JUMPDEST SWAP2 POP POP SWAP3 SWAP2 POP POP JUMP JUMPDEST PUSH0 DUP2 ISZERO ISZERO SWAP1 POP SWAP2 SWAP1 POP JUMP JUMPDEST PUSH2 0x7B8 DUP2 PUSH2 0x7A4 JUMP JUMPDEST DUP3 MSTORE POP POP JUMP JUMPDEST PUSH0 PUSH1 0x20 DUP3 ADD SWAP1 POP PUSH2 0x7D1 PUSH0 DUP4 ADD DUP5 PUSH2 0x7AF JUMP JUMPDEST SWAP3 SWAP2 POP POP JUMP JUMPDEST PUSH0 DUP2 SWAP1 POP SWAP2 SWAP1 POP JUMP JUMPDEST PUSH2 0x7E9 DUP2 PUSH2 0x7D7 JUMP JUMPDEST DUP3 MSTORE POP POP JUMP JUMPDEST PUSH0 PUSH1 0x20 DUP3 ADD SWAP1 POP PUSH2 0x802 PUSH0 DUP4 ADD DUP5 PUSH2 0x7E0 JUMP JUMPDEST SWAP3 SWAP2 POP POP JUMP JUMPDEST PUSH2 0x811 DUP2 PUSH2 0x746 JUMP JUMPDEST DUP3 MSTORE POP POP JUMP JUMPDEST PUSH0 PUSH1 0x20 DUP3 ADD SWAP1 POP PUSH2 0x82A PUSH0 DUP4 ADD DUP5 PUSH2 0x808 JUMP JUMPDEST SWAP3 SWAP2 POP POP JUMP JUMPDEST PUSH0 PUSH2 0x83A DUP3 PUSH2 0x6EA JUMP JUMPDEST SWAP1 POP SWAP2 SWAP1 POP JUMP JUMPDEST PUSH2 0x84A DUP2 PUSH2 0x830 JUMP JUMPDEST DUP2 EQ PUSH2 0x854 JUMPI PUSH0 DUP1 REVERT JUMPDEST POP JUMP JUMPDEST PUSH0 DUP2 CALLDATALOAD SWAP1 POP PUSH2 0x865 DUP2 PUSH2 0x841 JUMP JUMPDEST SWAP3 SWAP2 POP POP JUMP JUMPDEST PUSH0 PUSH1 0x20 DUP3 DUP5 SUB SLT ISZERO PUSH2 0x880 JUMPI PUSH2 0x87F PUSH2 0x742 JUMP JUMPDEST JUMPDEST PUSH0 PUSH2 0x88D DUP5 DUP3 DUP6 ADD PUSH2 0x857 JUMP JUMPDEST SWAP2 POP POP SWAP3 SWAP2 POP POP JUMP JUMPDEST PUSH0 DUP3 DUP3 MSTORE PUSH1 0x20 DUP3 ADD SWAP1 POP SWAP3 SWAP2 POP POP JUMP JUMPDEST PUSH32 0x4465706F73697420616C72656164792070616964000000000000000000000000 PUSH0 DUP3 ADD MSTORE POP JUMP JUMPDEST PUSH0 PUSH2 0x8DA PUSH1 0x14 DUP4 PUSH2 0x896 JUMP JUMPDEST SWAP2 POP PUSH2 0x8E5 DUP3 PUSH2 0x8A6 JUMP JUMPDEST PUSH1 0x20 DUP3 ADD SWAP1 POP SWAP2 SWAP1 POP JUMP JUMPDEST PUSH0 PUSH1 0x20 DUP3 ADD SWAP1 POP DUP2 DUP2 SUB PUSH0 DUP4 ADD MSTORE PUSH2 0x907 DUP2 PUSH2 0x8CE JUMP JUMPDEST SWAP1 POP SWAP2 SWAP1 POP JUMP JUMPDEST PUSH32 0x4465706F73697420616D6F756E7420696E73756666696369656E740000000000 PUSH0 DUP3 ADD MSTORE POP JUMP JUMPDEST PUSH0 PUSH2 0x942 PUSH1 0x1B DUP4 PUSH2 0x896 JUMP JUMPDEST SWAP2 POP PUSH2 0x94D DUP3 PUSH2 0x90E JUMP JUMPDEST PUSH1 0x20 DUP3 ADD SWAP1 POP SWAP2 SWAP1 POP JUMP JUMPDEST PUSH0 PUSH1 0x20 DUP3 ADD SWAP1 POP DUP2 DUP2 SUB PUSH0 DUP4 ADD MSTORE PUSH2 0x96F DUP2 PUSH2 0x936 JUMP JUMPDEST SWAP1 POP SWAP2 SWAP1 POP JUMP JUMPDEST PUSH32 0x4465706F736974206E6F74207061696420796574000000000000000000000000 PUSH0 DUP3 ADD MSTORE POP JUMP JUMPDEST PUSH0 PUSH2 0x9AA PUSH1 0x14 DUP4 PUSH2 0x896 JUMP JUMPDEST SWAP2 POP PUSH2 0x9B5 DUP3 PUSH2 0x976 JUMP JUMPDEST PUSH1 0x20 DUP3 ADD SWAP1 POP SWAP2 SWAP1 POP JUMP JUMPDEST PUSH0 PUSH1 0x20 DUP3 ADD SWAP1 POP DUP2 DUP2 SUB PUSH0 DUP4 ADD MSTORE PUSH2 0x9D7 DUP2 PUSH2 0x99E JUMP JUMPDEST SWAP1 POP SWAP2 SWAP1 POP JUMP JUMPDEST PUSH32 0x436F6E74726163742062616C616E636520696E73756666696369656E74000000 PUSH0 DUP3 ADD MSTORE POP JUMP JUMPDEST PUSH0 PUSH2 0xA12 PUSH1 0x1D DUP4 PUSH2 0x896 JUMP JUMPDEST SWAP2 POP PUSH2 0xA1D DUP3 PUSH2 0x9DE JUMP JUMPDEST PUSH1 0x20 DUP3 ADD SWAP1 POP SWAP2 SWAP1 POP JUMP JUMPDEST PUSH0 PUSH1 0x20 DUP3 ADD SWAP1 POP DUP2 DUP2 SUB PUSH0 DUP4 ADD MSTORE PUSH2 0xA3F DUP2 PUSH2 0xA06 JUMP JUMPDEST SWAP1 POP SWAP2 SWAP1 POP JUMP INVALID LOG2 PUSH5 0x6970667358 0x22 SLT KECCAK256 0xB3 0x2F DUP8 0xD4 0xAE 0xE6 PUSH1 0x85 0x4F MSTORE CALLVALUE 0xAF 0xD2 0xDD 0xC7 SDIV PUSH23 0x4D87627815DEBF0D3D3367990F215164736F6C63430008 AND STOP CALLER "
				},
				"gasEstimates": {
					"creation": {
						"codeDepositCost": "536800",
						"executionCost": "infinite",
						"totalCost": "infinite"
					},
					"external": {
						"EncryptedInfo(uint256)": "4916",
						"Person()": "2509",
						"deposit()": "2492",
						"depositPaid(address)": "2877",
						"deposits(address)": "2890",
						"isItemSold()": "2466",
						"itemPrice()": "2447",
						"payDeposit(uint256)": "infinite",
						"refundDeposit()": "infinite"
					}
				},
				"methodIdentifiers": {
					"EncryptedInfo(uint256)": "5ec8e417",
					"Person()": "0ee28e37",
					"deposit()": "d0e30db0",
					"depositPaid(address)": "efbedf38",
					"deposits(address)": "fc7e286d",
					"isItemSold()": "d7bd6e96",
					"itemPrice()": "dac6db1c",
					"payDeposit(uint256)": "28cd3f18",
					"refundDeposit()": "efc5eb8f"
				}
			},
			"storageLayout": {
				"storage": [
					{
						"astId": 414,
						"contract": "DataTradingTest/purchase.sol:purchase",
						"label": "sellerContract",
						"offset": 0,
						"slot": "0",
						"type": "t_contract(Seller)143"
					},
					{
						"astId": 417,
						"contract": "DataTradingTest/purchase.sol:purchase",
						"label": "buyerContract",
						"offset": 0,
						"slot": "1",
						"type": "t_contract(Buyer)71"
					},
					{
						"astId": 420,
						"contract": "DataTradingTest/purchase.sol:purchase",
						"label": "storageDataContract",
						"offset": 0,
						"slot": "2",
						"type": "t_contract(StorageData)406"
					},
					{
						"astId": 422,
						"contract": "DataTradingTest/purchase.sol:purchase",
						"label": "Person",
						"offset": 0,
						"slot": "3",
						"type": "t_address_payable"
					},
					{
						"astId": 424,
						"contract": "DataTradingTest/purchase.sol:purchase",
						"label": "deposit",
						"offset": 0,
						"slot": "4",
						"type": "t_uint256"
					},
					{
						"astId": 426,
						"contract": "DataTradingTest/purchase.sol:purchase",
						"label": "itemPrice",
						"offset": 0,
						"slot": "5",
						"type": "t_uint256"
					},
					{
						"astId": 428,
						"contract": "DataTradingTest/purchase.sol:purchase",
						"label": "isItemSold",
						"offset": 0,
						"slot": "6",
						"type": "t_bool"
					},
					{
						"astId": 431,
						"contract": "DataTradingTest/purchase.sol:purchase",
						"label": "EncryptedInfo",
						"offset": 0,
						"slot": "7",
						"type": "t_array(t_bytes32)dyn_storage"
					},
					{
						"astId": 435,
						"contract": "DataTradingTest/purchase.sol:purchase",
						"label": "deposits",
						"offset": 0,
						"slot": "8",
						"type": "t_mapping(t_address,t_uint256)"
					},
					{
						"astId": 439,
						"contract": "DataTradingTest/purchase.sol:purchase",
						"label": "depositPaid",
						"offset": 0,
						"slot": "9",
						"type": "t_mapping(t_address,t_bool)"
					}
				],
				"types": {
					"t_address": {
						"encoding": "inplace",
						"label": "address",
						"numberOfBytes": "20"
					},
					"t_address_payable": {
						"encoding": "inplace",
						"label": "address payable",
						"numberOfBytes": "20"
					},
					"t_array(t_bytes32)dyn_storage": {
						"base": "t_bytes32",
						"encoding": "dynamic_array",
						"label": "bytes32[]",
						"numberOfBytes": "32"
					},
					"t_bool": {
						"encoding": "inplace",
						"label": "bool",
						"numberOfBytes": "1"
					},
					"t_bytes32": {
						"encoding": "inplace",
						"label": "bytes32",
						"numberOfBytes": "32"
					},
					"t_contract(Buyer)71": {
						"encoding": "inplace",
						"label": "contract Buyer",
						"numberOfBytes": "20"
					},
					"t_contract(Seller)143": {
						"encoding": "inplace",
						"label": "contract Seller",
						"numberOfBytes": "20"
					},
					"t_contract(StorageData)406": {
						"encoding": "inplace",
						"label": "contract StorageData",
						"numberOfBytes": "20"
					},
					"t_mapping(t_address,t_bool)": {
						"encoding": "mapping",
						"key": "t_address",
						"label": "mapping(address => bool)",
						"numberOfBytes": "32",
						"value": "t_bool"
					},
					"t_mapping(t_address,t_uint256)": {
						"encoding": "mapping",
						"key": "t_address",
						"label": "mapping(address => uint256)",
						"numberOfBytes": "32",
						"value": "t_uint256"
					},
					"t_uint256": {
						"encoding": "inplace",
						"label": "uint256",
						"numberOfBytes": "32"
					}
				}
			},
			"userdoc": {
				"kind": "user",
				"methods": {},
				"version": 1
			}
		}
	}
}