{
	"DataTradingTest/StorageData.sol": {
		"StorageData": {
			"abi": [
				{
					"inputs": [
						{
							"internalType": "address",
							"name": "_sellerContractAddress",
							"type": "address"
						},
						{
							"internalType": "address",
							"name": "_buyerContractAddress",
							"type": "address"
						}
					],
					"stateMutability": "nonpayable",
					"type": "constructor"
				},
				{
					"inputs": [
						{
							"internalType": "string[]",
							"name": "infoList",
							"type": "string[]"
						}
					],
					"name": "addInformationList",
					"outputs": [],
					"stateMutability": "nonpayable",
					"type": "function"
				},
				{
					"inputs": [],
					"name": "buyerContract",
					"outputs": [
						{
							"internalType": "contract Buyer",
							"name": "",
							"type": "address"
						}
					],
					"stateMutability": "view",
					"type": "function"
				},
				{
					"inputs": [
						{
							"internalType": "uint256",
							"name": "",
							"type": "uint256"
						}
					],
					"name": "buyers",
					"outputs": [
						{
							"internalType": "address",
							"name": "",
							"type": "address"
						}
					],
					"stateMutability": "view",
					"type": "function"
				},
				{
					"inputs": [
						{
							"internalType": "uint256",
							"name": "listIndex",
							"type": "uint256"
						}
					],
					"name": "deleteInformationList",
					"outputs": [],
					"stateMutability": "nonpayable",
					"type": "function"
				},
				{
					"inputs": [],
					"name": "getListCount",
					"outputs": [
						{
							"internalType": "uint256",
							"name": "",
							"type": "uint256"
						}
					],
					"stateMutability": "view",
					"type": "function"
				},
				{
					"inputs": [
						{
							"internalType": "address",
							"name": "user",
							"type": "address"
						}
					],
					"name": "getUserInformation",
					"outputs": [
						{
							"internalType": "string[][]",
							"name": "",
							"type": "string[][]"
						}
					],
					"stateMutability": "view",
					"type": "function"
				},
				{
					"inputs": [
						{
							"internalType": "uint256",
							"name": "",
							"type": "uint256"
						},
						{
							"internalType": "uint256",
							"name": "",
							"type": "uint256"
						}
					],
					"name": "informationList",
					"outputs": [
						{
							"internalType": "string",
							"name": "",
							"type": "string"
						}
					],
					"stateMutability": "view",
					"type": "function"
				},
				{
					"inputs": [],
					"name": "sellerContract",
					"outputs": [
						{
							"internalType": "contract Seller",
							"name": "",
							"type": "address"
						}
					],
					"stateMutability": "view",
					"type": "function"
				},
				{
					"inputs": [
						{
							"internalType": "uint256",
							"name": "",
							"type": "uint256"
						}
					],
					"name": "sellers",
					"outputs": [
						{
							"internalType": "address",
							"name": "",
							"type": "address"
						}
					],
					"stateMutability": "view",
					"type": "function"
				},
				{
					"inputs": [
						{
							"internalType": "uint256",
							"name": "listIndex",
							"type": "uint256"
						},
						{
							"internalType": "uint256",
							"name": "infoIndex",
							"type": "uint256"
						},
						{
							"internalType": "string",
							"name": "newInfo",
							"type": "string"
						}
					],
					"name": "updateInformation",
					"outputs": [
						{
							"internalType": "uint256",
							"name": "",
							"type": "uint256"
						}
					],
					"stateMutability": "nonpayable",
					"type": "function"
				}
			],
			"devdoc": {
				"kind": "dev",
				"methods": {},
				"version": 1
			},
			"evm": {
				"assembly": "    /* \"DataTradingTest/StorageData.sol\":108:3212  contract StorageData{... */\n  mstore(0x40, 0x80)\n    /* \"DataTradingTest/StorageData.sol\":515:763  constructor(address _sellerContractAddress,address _buyerContractAddress) {... */\n  callvalue\n  dup1\n  iszero\n  tag_1\n  jumpi\n  0x00\n  dup1\n  revert\ntag_1:\n  pop\n  mload(0x40)\n  sub(codesize, bytecodeSize)\n  dup1\n  bytecodeSize\n  dup4\n  codecopy\n  dup2\n  dup2\n  add\n  0x40\n  mstore\n  dup2\n  add\n  swap1\n  tag_2\n  swap2\n  swap1\n  tag_3\n  jump\t// in\ntag_2:\n    /* \"DataTradingTest/StorageData.sol\":624:646  _sellerContractAddress */\n  dup2\n    /* \"DataTradingTest/StorageData.sol\":600:614  sellerContract */\n  0x00\n  dup1\n    /* \"DataTradingTest/StorageData.sol\":600:647  sellerContract = Seller(_sellerContractAddress) */\n  0x0100\n  exp\n  dup2\n  sload\n  dup2\n  0xffffffffffffffffffffffffffffffffffffffff\n  mul\n  not\n  and\n  swap1\n  dup4\n  0xffffffffffffffffffffffffffffffffffffffff\n  and\n  mul\n  or\n  swap1\n  sstore\n  pop\n    /* \"DataTradingTest/StorageData.sol\":707:728  _buyerContractAddress */\n  dup1\n    /* \"DataTradingTest/StorageData.sol\":685:698  buyerContract */\n  0x01\n  0x00\n    /* \"DataTradingTest/StorageData.sol\":685:729  buyerContract = Buyer(_buyerContractAddress) */\n  0x0100\n  exp\n  dup2\n  sload\n  dup2\n  0xffffffffffffffffffffffffffffffffffffffff\n  mul\n  not\n  and\n  swap1\n  dup4\n  0xffffffffffffffffffffffffffffffffffffffff\n  and\n  mul\n  or\n  swap1\n  sstore\n  pop\n    /* \"DataTradingTest/StorageData.sol\":515:763  constructor(address _sellerContractAddress,address _buyerContractAddress) {... */\n  pop\n  pop\n    /* \"DataTradingTest/StorageData.sol\":108:3212  contract StorageData{... */\n  jump(tag_6)\n    /* \"#utility.yul\":88:205   */\ntag_8:\n    /* \"#utility.yul\":197:198   */\n  0x00\n    /* \"#utility.yul\":194:195   */\n  dup1\n    /* \"#utility.yul\":187:199   */\n  revert\n    /* \"#utility.yul\":334:460   */\ntag_10:\n    /* \"#utility.yul\":371:378   */\n  0x00\n    /* \"#utility.yul\":411:453   */\n  0xffffffffffffffffffffffffffffffffffffffff\n    /* \"#utility.yul\":404:409   */\n  dup3\n    /* \"#utility.yul\":400:454   */\n  and\n    /* \"#utility.yul\":389:454   */\n  swap1\n  pop\n    /* \"#utility.yul\":334:460   */\n  swap2\n  swap1\n  pop\n  jump\t// out\n    /* \"#utility.yul\":466:562   */\ntag_11:\n    /* \"#utility.yul\":503:510   */\n  0x00\n    /* \"#utility.yul\":532:556   */\n  tag_20\n    /* \"#utility.yul\":550:555   */\n  dup3\n    /* \"#utility.yul\":532:556   */\n  tag_10\n  jump\t// in\ntag_20:\n    /* \"#utility.yul\":521:556   */\n  swap1\n  pop\n    /* \"#utility.yul\":466:562   */\n  swap2\n  swap1\n  pop\n  jump\t// out\n    /* \"#utility.yul\":568:690   */\ntag_12:\n    /* \"#utility.yul\":641:665   */\n  tag_22\n    /* \"#utility.yul\":659:664   */\n  dup2\n    /* \"#utility.yul\":641:665   */\n  tag_11\n  jump\t// in\ntag_22:\n    /* \"#utility.yul\":634:639   */\n  dup2\n    /* \"#utility.yul\":631:666   */\n  eq\n    /* \"#utility.yul\":621:684   */\n  tag_23\n  jumpi\n    /* \"#utility.yul\":680:681   */\n  0x00\n    /* \"#utility.yul\":677:678   */\n  dup1\n    /* \"#utility.yul\":670:682   */\n  revert\n    /* \"#utility.yul\":621:684   */\ntag_23:\n    /* \"#utility.yul\":568:690   */\n  pop\n  jump\t// out\n    /* \"#utility.yul\":696:839   */\ntag_13:\n    /* \"#utility.yul\":753:758   */\n  0x00\n    /* \"#utility.yul\":784:790   */\n  dup2\n    /* \"#utility.yul\":778:791   */\n  mload\n    /* \"#utility.yul\":769:791   */\n  swap1\n  pop\n    /* \"#utility.yul\":800:833   */\n  tag_25\n    /* \"#utility.yul\":827:832   */\n  dup2\n    /* \"#utility.yul\":800:833   */\n  tag_12\n  jump\t// in\ntag_25:\n    /* \"#utility.yul\":696:839   */\n  swap3\n  swap2\n  pop\n  pop\n  jump\t// out\n    /* \"#utility.yul\":845:1352   */\ntag_3:\n    /* \"#utility.yul\":924:930   */\n  0x00\n    /* \"#utility.yul\":932:938   */\n  dup1\n    /* \"#utility.yul\":981:983   */\n  0x40\n    /* \"#utility.yul\":969:978   */\n  dup4\n    /* \"#utility.yul\":960:967   */\n  dup6\n    /* \"#utility.yul\":956:979   */\n  sub\n    /* \"#utility.yul\":952:984   */\n  slt\n    /* \"#utility.yul\":949:1068   */\n  iszero\n  tag_27\n  jumpi\n    /* \"#utility.yul\":987:1066   */\n  tag_28\n  tag_8\n  jump\t// in\ntag_28:\n    /* \"#utility.yul\":949:1068   */\ntag_27:\n    /* \"#utility.yul\":1107:1108   */\n  0x00\n    /* \"#utility.yul\":1132:1196   */\n  tag_29\n    /* \"#utility.yul\":1188:1195   */\n  dup6\n    /* \"#utility.yul\":1179:1185   */\n  dup3\n    /* \"#utility.yul\":1168:1177   */\n  dup7\n    /* \"#utility.yul\":1164:1186   */\n  add\n    /* \"#utility.yul\":1132:1196   */\n  tag_13\n  jump\t// in\ntag_29:\n    /* \"#utility.yul\":1122:1196   */\n  swap3\n  pop\n    /* \"#utility.yul\":1078:1206   */\n  pop\n    /* \"#utility.yul\":1245:1247   */\n  0x20\n    /* \"#utility.yul\":1271:1335   */\n  tag_30\n    /* \"#utility.yul\":1327:1334   */\n  dup6\n    /* \"#utility.yul\":1318:1324   */\n  dup3\n    /* \"#utility.yul\":1307:1316   */\n  dup7\n    /* \"#utility.yul\":1303:1325   */\n  add\n    /* \"#utility.yul\":1271:1335   */\n  tag_13\n  jump\t// in\ntag_30:\n    /* \"#utility.yul\":1261:1335   */\n  swap2\n  pop\n    /* \"#utility.yul\":1216:1345   */\n  pop\n    /* \"#utility.yul\":845:1352   */\n  swap3\n  pop\n  swap3\n  swap1\n  pop\n  jump\t// out\n    /* \"DataTradingTest/StorageData.sol\":108:3212  contract StorageData{... */\ntag_6:\n  dataSize(sub_0)\n  dup1\n  dataOffset(sub_0)\n  0x00\n  codecopy\n  0x00\n  return\nstop\n\nsub_0: assembly {\n        /* \"DataTradingTest/StorageData.sol\":108:3212  contract StorageData{... */\n      mstore(0x40, 0x80)\n      callvalue\n      dup1\n      iszero\n      tag_1\n      jumpi\n      0x00\n      dup1\n      revert\n    tag_1:\n      pop\n      jumpi(tag_2, lt(calldatasize, 0x04))\n      shr(0xe0, calldataload(0x00))\n      dup1\n      0xccbf4611\n      gt\n      tag_13\n      jumpi\n      dup1\n      0xccbf4611\n      eq\n      tag_8\n      jumpi\n      dup1\n      0xcee26ed5\n      eq\n      tag_9\n      jumpi\n      dup1\n      0xdb3fb9d8\n      eq\n      tag_10\n      jumpi\n      dup1\n      0xdedfb104\n      eq\n      tag_11\n      jumpi\n      dup1\n      0xf2aa8218\n      eq\n      tag_12\n      jumpi\n      jump(tag_2)\n    tag_13:\n      dup1\n      0x2ab23fc9\n      eq\n      tag_3\n      jumpi\n      dup1\n      0x2ce37b10\n      eq\n      tag_4\n      jumpi\n      dup1\n      0x42b6d145\n      eq\n      tag_5\n      jumpi\n      dup1\n      0x8c7c2399\n      eq\n      tag_6\n      jumpi\n      dup1\n      0x9862d5f0\n      eq\n      tag_7\n      jumpi\n    tag_2:\n      0x00\n      dup1\n      revert\n        /* \"DataTradingTest/StorageData.sol\":2440:2884  function updateInformation(uint listIndex, uint infoIndex, string memory newInfo) public  returns (uint){... */\n    tag_3:\n      tag_14\n      0x04\n      dup1\n      calldatasize\n      sub\n      dup2\n      add\n      swap1\n      tag_15\n      swap2\n      swap1\n      tag_16\n      jump\t// in\n    tag_15:\n      tag_17\n      jump\t// in\n    tag_14:\n      mload(0x40)\n      tag_18\n      swap2\n      swap1\n      tag_19\n      jump\t// in\n    tag_18:\n      mload(0x40)\n      dup1\n      swap2\n      sub\n      swap1\n      return\n        /* \"DataTradingTest/StorageData.sol\":2101:2200  function getListCount() public view returns (uint) {... */\n    tag_4:\n      tag_20\n      tag_21\n      jump\t// in\n    tag_20:\n      mload(0x40)\n      tag_22\n      swap2\n      swap1\n      tag_19\n      jump\t// in\n    tag_22:\n      mload(0x40)\n      dup1\n      swap2\n      sub\n      swap1\n      return\n        /* \"DataTradingTest/StorageData.sol\":1888:2066  function addInformationList(string[] memory infoList) external SellerAddress{... */\n    tag_5:\n      tag_23\n      0x04\n      dup1\n      calldatasize\n      sub\n      dup2\n      add\n      swap1\n      tag_24\n      swap2\n      swap1\n      tag_25\n      jump\t// in\n    tag_24:\n      tag_26\n      jump\t// in\n    tag_23:\n      stop\n        /* \"DataTradingTest/StorageData.sol\":286:319  string[][] public informationList */\n    tag_6:\n      tag_27\n      0x04\n      dup1\n      calldatasize\n      sub\n      dup2\n      add\n      swap1\n      tag_28\n      swap2\n      swap1\n      tag_29\n      jump\t// in\n    tag_28:\n      tag_30\n      jump\t// in\n    tag_27:\n      mload(0x40)\n      tag_31\n      swap2\n      swap1\n      tag_32\n      jump\t// in\n    tag_31:\n      mload(0x40)\n      dup1\n      swap2\n      sub\n      swap1\n      return\n        /* \"DataTradingTest/StorageData.sol\":2252:2381  function getUserInformation(address user) public view returns (string[][] memory) {... */\n    tag_7:\n      tag_33\n      0x04\n      dup1\n      calldatasize\n      sub\n      dup2\n      add\n      swap1\n      tag_34\n      swap2\n      swap1\n      tag_35\n      jump\t// in\n    tag_34:\n      tag_36\n      jump\t// in\n    tag_33:\n      mload(0x40)\n      tag_37\n      swap2\n      swap1\n      tag_38\n      jump\t// in\n    tag_37:\n      mload(0x40)\n      dup1\n      swap2\n      sub\n      swap1\n      return\n        /* \"DataTradingTest/StorageData.sol\":135:163  Seller public sellerContract */\n    tag_8:\n      tag_39\n      tag_40\n      jump\t// in\n    tag_39:\n      mload(0x40)\n      tag_41\n      swap2\n      swap1\n      tag_42\n      jump\t// in\n    tag_41:\n      mload(0x40)\n      dup1\n      swap2\n      sub\n      swap1\n      return\n        /* \"DataTradingTest/StorageData.sol\":416:440  address[] public sellers */\n    tag_9:\n      tag_43\n      0x04\n      dup1\n      calldatasize\n      sub\n      dup2\n      add\n      swap1\n      tag_44\n      swap2\n      swap1\n      tag_45\n      jump\t// in\n    tag_44:\n      tag_46\n      jump\t// in\n    tag_43:\n      mload(0x40)\n      tag_47\n      swap2\n      swap1\n      tag_48\n      jump\t// in\n    tag_47:\n      mload(0x40)\n      dup1\n      swap2\n      sub\n      swap1\n      return\n        /* \"DataTradingTest/StorageData.sol\":2947:3207  function deleteInformationList(uint listIndex) public {... */\n    tag_10:\n      tag_49\n      0x04\n      dup1\n      calldatasize\n      sub\n      dup2\n      add\n      swap1\n      tag_50\n      swap2\n      swap1\n      tag_45\n      jump\t// in\n    tag_50:\n      tag_51\n      jump\t// in\n    tag_49:\n      stop\n        /* \"DataTradingTest/StorageData.sol\":197:223  Buyer public buyerContract */\n    tag_11:\n      tag_52\n      tag_53\n      jump\t// in\n    tag_52:\n      mload(0x40)\n      tag_54\n      swap2\n      swap1\n      tag_55\n      jump\t// in\n    tag_54:\n      mload(0x40)\n      dup1\n      swap2\n      sub\n      swap1\n      return\n        /* \"DataTradingTest/StorageData.sol\":465:488  address[] public buyers */\n    tag_12:\n      tag_56\n      0x04\n      dup1\n      calldatasize\n      sub\n      dup2\n      add\n      swap1\n      tag_57\n      swap2\n      swap1\n      tag_45\n      jump\t// in\n    tag_57:\n      tag_58\n      jump\t// in\n    tag_56:\n      mload(0x40)\n      tag_59\n      swap2\n      swap1\n      tag_48\n      jump\t// in\n    tag_59:\n      mload(0x40)\n      dup1\n      swap2\n      sub\n      swap1\n      return\n        /* \"DataTradingTest/StorageData.sol\":2440:2884  function updateInformation(uint listIndex, uint infoIndex, string memory newInfo) public  returns (uint){... */\n    tag_17:\n        /* \"DataTradingTest/StorageData.sol\":2539:2543  uint */\n      0x00\n        /* \"DataTradingTest/StorageData.sol\":2575:2590  userInformation */\n      0x03\n        /* \"DataTradingTest/StorageData.sol\":2575:2602  userInformation[msg.sender] */\n      0x00\n        /* \"DataTradingTest/StorageData.sol\":2591:2601  msg.sender */\n      caller\n        /* \"DataTradingTest/StorageData.sol\":2575:2602  userInformation[msg.sender] */\n      0xffffffffffffffffffffffffffffffffffffffff\n      and\n      0xffffffffffffffffffffffffffffffffffffffff\n      and\n      dup2\n      mstore\n      0x20\n      add\n      swap1\n      dup2\n      mstore\n      0x20\n      add\n      0x00\n      keccak256\n        /* \"DataTradingTest/StorageData.sol\":2575:2609  userInformation[msg.sender].length */\n      dup1\n      sload\n      swap1\n      pop\n        /* \"DataTradingTest/StorageData.sol\":2563:2572  listIndex */\n      dup5\n        /* \"DataTradingTest/StorageData.sol\":2563:2609  listIndex < userInformation[msg.sender].length */\n      lt\n        /* \"DataTradingTest/StorageData.sol\":2555:2638  require(listIndex < userInformation[msg.sender].length, \"List index out of bounds\") */\n      tag_61\n      jumpi\n      mload(0x40)\n      0x08c379a000000000000000000000000000000000000000000000000000000000\n      dup2\n      mstore\n      0x04\n      add\n      tag_62\n      swap1\n      tag_63\n      jump\t// in\n    tag_62:\n      mload(0x40)\n      dup1\n      swap2\n      sub\n      swap1\n      revert\n    tag_61:\n        /* \"DataTradingTest/StorageData.sol\":2669:2684  userInformation */\n      0x03\n        /* \"DataTradingTest/StorageData.sol\":2669:2696  userInformation[msg.sender] */\n      0x00\n        /* \"DataTradingTest/StorageData.sol\":2685:2695  msg.sender */\n      caller\n        /* \"DataTradingTest/StorageData.sol\":2669:2696  userInformation[msg.sender] */\n      0xffffffffffffffffffffffffffffffffffffffff\n      and\n      0xffffffffffffffffffffffffffffffffffffffff\n      and\n      dup2\n      mstore\n      0x20\n      add\n      swap1\n      dup2\n      mstore\n      0x20\n      add\n      0x00\n      keccak256\n        /* \"DataTradingTest/StorageData.sol\":2697:2706  listIndex */\n      dup5\n        /* \"DataTradingTest/StorageData.sol\":2669:2707  userInformation[msg.sender][listIndex] */\n      dup2\n      sload\n      dup2\n      lt\n      tag_64\n      jumpi\n      tag_65\n      tag_66\n      jump\t// in\n    tag_65:\n    tag_64:\n      swap1\n      0x00\n      mstore\n      keccak256(0x00, 0x20)\n      add\n        /* \"DataTradingTest/StorageData.sol\":2669:2714  userInformation[msg.sender][listIndex].length */\n      dup1\n      sload\n      swap1\n      pop\n        /* \"DataTradingTest/StorageData.sol\":2657:2666  infoIndex */\n      dup4\n        /* \"DataTradingTest/StorageData.sol\":2657:2714  infoIndex < userInformation[msg.sender][listIndex].length */\n      lt\n        /* \"DataTradingTest/StorageData.sol\":2649:2743  require(infoIndex < userInformation[msg.sender][listIndex].length, \"Info index out of bounds\") */\n      tag_68\n      jumpi\n      mload(0x40)\n      0x08c379a000000000000000000000000000000000000000000000000000000000\n      dup2\n      mstore\n      0x04\n      add\n      tag_69\n      swap1\n      tag_70\n      jump\t// in\n    tag_69:\n      mload(0x40)\n      dup1\n      swap2\n      sub\n      swap1\n      revert\n    tag_68:\n        /* \"DataTradingTest/StorageData.sol\":2806:2813  newInfo */\n      dup2\n        /* \"DataTradingTest/StorageData.sol\":2754:2769  userInformation */\n      0x03\n        /* \"DataTradingTest/StorageData.sol\":2754:2781  userInformation[msg.sender] */\n      0x00\n        /* \"DataTradingTest/StorageData.sol\":2770:2780  msg.sender */\n      caller\n        /* \"DataTradingTest/StorageData.sol\":2754:2781  userInformation[msg.sender] */\n      0xffffffffffffffffffffffffffffffffffffffff\n      and\n      0xffffffffffffffffffffffffffffffffffffffff\n      and\n      dup2\n      mstore\n      0x20\n      add\n      swap1\n      dup2\n      mstore\n      0x20\n      add\n      0x00\n      keccak256\n        /* \"DataTradingTest/StorageData.sol\":2782:2791  listIndex */\n      dup6\n        /* \"DataTradingTest/StorageData.sol\":2754:2792  userInformation[msg.sender][listIndex] */\n      dup2\n      sload\n      dup2\n      lt\n      tag_71\n      jumpi\n      tag_72\n      tag_66\n      jump\t// in\n    tag_72:\n    tag_71:\n      swap1\n      0x00\n      mstore\n      keccak256(0x00, 0x20)\n      add\n        /* \"DataTradingTest/StorageData.sol\":2793:2802  infoIndex */\n      dup5\n        /* \"DataTradingTest/StorageData.sol\":2754:2803  userInformation[msg.sender][listIndex][infoIndex] */\n      dup2\n      sload\n      dup2\n      lt\n      tag_74\n      jumpi\n      tag_75\n      tag_66\n      jump\t// in\n    tag_75:\n    tag_74:\n      swap1\n      0x00\n      mstore\n      keccak256(0x00, 0x20)\n      add\n        /* \"DataTradingTest/StorageData.sol\":2754:2813  userInformation[msg.sender][listIndex][infoIndex] = newInfo */\n      swap1\n      dup2\n      tag_77\n      swap2\n      swap1\n      tag_78\n      jump\t// in\n    tag_77:\n      pop\n        /* \"DataTradingTest/StorageData.sol\":2831:2846  userInformation */\n      0x03\n        /* \"DataTradingTest/StorageData.sol\":2831:2858  userInformation[msg.sender] */\n      0x00\n        /* \"DataTradingTest/StorageData.sol\":2847:2857  msg.sender */\n      caller\n        /* \"DataTradingTest/StorageData.sol\":2831:2858  userInformation[msg.sender] */\n      0xffffffffffffffffffffffffffffffffffffffff\n      and\n      0xffffffffffffffffffffffffffffffffffffffff\n      and\n      dup2\n      mstore\n      0x20\n      add\n      swap1\n      dup2\n      mstore\n      0x20\n      add\n      0x00\n      keccak256\n        /* \"DataTradingTest/StorageData.sol\":2859:2868  listIndex */\n      dup5\n        /* \"DataTradingTest/StorageData.sol\":2831:2869  userInformation[msg.sender][listIndex] */\n      dup2\n      sload\n      dup2\n      lt\n      tag_79\n      jumpi\n      tag_80\n      tag_66\n      jump\t// in\n    tag_80:\n    tag_79:\n      swap1\n      0x00\n      mstore\n      keccak256(0x00, 0x20)\n      add\n        /* \"DataTradingTest/StorageData.sol\":2831:2876  userInformation[msg.sender][listIndex].length */\n      dup1\n      sload\n      swap1\n      pop\n        /* \"DataTradingTest/StorageData.sol\":2824:2876  return userInformation[msg.sender][listIndex].length */\n      swap1\n      pop\n        /* \"DataTradingTest/StorageData.sol\":2440:2884  function updateInformation(uint listIndex, uint infoIndex, string memory newInfo) public  returns (uint){... */\n      swap4\n      swap3\n      pop\n      pop\n      pop\n      jump\t// out\n        /* \"DataTradingTest/StorageData.sol\":2101:2200  function getListCount() public view returns (uint) {... */\n    tag_21:\n        /* \"DataTradingTest/StorageData.sol\":2146:2150  uint */\n      0x00\n        /* \"DataTradingTest/StorageData.sol\":2170:2185  informationList */\n      0x02\n        /* \"DataTradingTest/StorageData.sol\":2170:2192  informationList.length */\n      dup1\n      sload\n      swap1\n      pop\n        /* \"DataTradingTest/StorageData.sol\":2163:2192  return informationList.length */\n      swap1\n      pop\n        /* \"DataTradingTest/StorageData.sol\":2101:2200  function getListCount() public view returns (uint) {... */\n      swap1\n      jump\t// out\n        /* \"DataTradingTest/StorageData.sol\":1888:2066  function addInformationList(string[] memory infoList) external SellerAddress{... */\n    tag_26:\n        /* \"DataTradingTest/StorageData.sol\":838:851  bool isSeller */\n      0x00\n        /* \"DataTradingTest/StorageData.sol\":869:885  uint SellerCount */\n      dup1\n        /* \"DataTradingTest/StorageData.sol\":888:902  sellerContract */\n      dup1\n      0x00\n      swap1\n      sload\n      swap1\n      0x0100\n      exp\n      swap1\n      div\n      0xffffffffffffffffffffffffffffffffffffffff\n      and\n        /* \"DataTradingTest/StorageData.sol\":888:917  sellerContract.getSellerCount */\n      0xffffffffffffffffffffffffffffffffffffffff\n      and\n      0x7cac07af\n        /* \"DataTradingTest/StorageData.sol\":888:919  sellerContract.getSellerCount() */\n      mload(0x40)\n      dup2\n      0xffffffff\n      and\n      0xe0\n      shl\n      dup2\n      mstore\n      0x04\n      add\n      0x20\n      mload(0x40)\n      dup1\n      dup4\n      sub\n      dup2\n      dup7\n      gas\n      staticcall\n      iszero\n      dup1\n      iszero\n      tag_85\n      jumpi\n      returndatasize\n      0x00\n      dup1\n      returndatacopy\n      revert(0x00, returndatasize)\n    tag_85:\n      pop\n      pop\n      pop\n      pop\n      mload(0x40)\n      returndatasize\n      not(0x1f)\n      0x1f\n      dup3\n      add\n      and\n      dup3\n      add\n      dup1\n      0x40\n      mstore\n      pop\n      dup2\n      add\n      swap1\n      tag_86\n      swap2\n      swap1\n      tag_87\n      jump\t// in\n    tag_86:\n        /* \"DataTradingTest/StorageData.sol\":869:919  uint SellerCount = sellerContract.getSellerCount() */\n      swap1\n      pop\n        /* \"DataTradingTest/StorageData.sol\":935:941  uint i */\n      0x00\n        /* \"DataTradingTest/StorageData.sol\":930:1120  for (uint i = 0; i < SellerCount; i++) {... */\n    tag_88:\n        /* \"DataTradingTest/StorageData.sol\":951:962  SellerCount */\n      dup2\n        /* \"DataTradingTest/StorageData.sol\":947:948  i */\n      dup2\n        /* \"DataTradingTest/StorageData.sol\":947:962  i < SellerCount */\n      lt\n        /* \"DataTradingTest/StorageData.sol\":930:1120  for (uint i = 0; i < SellerCount; i++) {... */\n      iszero\n      tag_89\n      jumpi\n        /* \"DataTradingTest/StorageData.sol\":1002:1016  sellerContract */\n      0x00\n      dup1\n      sload\n      swap1\n      0x0100\n      exp\n      swap1\n      div\n      0xffffffffffffffffffffffffffffffffffffffff\n      and\n        /* \"DataTradingTest/StorageData.sol\":1002:1030  sellerContract.getSellerById */\n      0xffffffffffffffffffffffffffffffffffffffff\n      and\n      0x9d0ec380\n        /* \"DataTradingTest/StorageData.sol\":1031:1032  i */\n      dup3\n        /* \"DataTradingTest/StorageData.sol\":1002:1033  sellerContract.getSellerById(i) */\n      mload(0x40)\n      dup3\n      0xffffffff\n      and\n      0xe0\n      shl\n      dup2\n      mstore\n      0x04\n      add\n      tag_91\n      swap2\n      swap1\n      tag_19\n      jump\t// in\n    tag_91:\n      0x20\n      mload(0x40)\n      dup1\n      dup4\n      sub\n      dup2\n      dup7\n      gas\n      staticcall\n      iszero\n      dup1\n      iszero\n      tag_93\n      jumpi\n      returndatasize\n      0x00\n      dup1\n      returndatacopy\n      revert(0x00, returndatasize)\n    tag_93:\n      pop\n      pop\n      pop\n      pop\n      mload(0x40)\n      returndatasize\n      not(0x1f)\n      0x1f\n      dup3\n      add\n      and\n      dup3\n      add\n      dup1\n      0x40\n      mstore\n      pop\n      dup2\n      add\n      swap1\n      tag_94\n      swap2\n      swap1\n      tag_95\n      jump\t// in\n    tag_94:\n        /* \"DataTradingTest/StorageData.sol\":988:1033  msg.sender == sellerContract.getSellerById(i) */\n      0xffffffffffffffffffffffffffffffffffffffff\n      and\n        /* \"DataTradingTest/StorageData.sol\":988:998  msg.sender */\n      caller\n        /* \"DataTradingTest/StorageData.sol\":988:1033  msg.sender == sellerContract.getSellerById(i) */\n      0xffffffffffffffffffffffffffffffffffffffff\n      and\n      sub\n        /* \"DataTradingTest/StorageData.sol\":984:1109  if (msg.sender == sellerContract.getSellerById(i)) {... */\n      tag_96\n      jumpi\n        /* \"DataTradingTest/StorageData.sol\":1065:1069  true */\n      0x01\n        /* \"DataTradingTest/StorageData.sol\":1054:1069  isSeller = true */\n      swap3\n      pop\n        /* \"DataTradingTest/StorageData.sol\":1088:1093  break */\n      jump(tag_89)\n        /* \"DataTradingTest/StorageData.sol\":984:1109  if (msg.sender == sellerContract.getSellerById(i)) {... */\n    tag_96:\n        /* \"DataTradingTest/StorageData.sol\":964:967  i++ */\n      dup1\n      dup1\n      0x01\n      add\n      swap2\n      pop\n      pop\n        /* \"DataTradingTest/StorageData.sol\":930:1120  for (uint i = 0; i < SellerCount; i++) {... */\n      jump(tag_88)\n    tag_89:\n      pop\n        /* \"DataTradingTest/StorageData.sol\":1138:1146  isSeller */\n      dup2\n        /* \"DataTradingTest/StorageData.sol\":1130:1185  require(isSeller, \"Only seller can call this function\") */\n      tag_97\n      jumpi\n      mload(0x40)\n      0x08c379a000000000000000000000000000000000000000000000000000000000\n      dup2\n      mstore\n      0x04\n      add\n      tag_98\n      swap1\n      tag_99\n      jump\t// in\n    tag_98:\n      mload(0x40)\n      dup1\n      swap2\n      sub\n      swap1\n      revert\n    tag_97:\n        /* \"DataTradingTest/StorageData.sol\":1975:1990  informationList */\n      0x02\n        /* \"DataTradingTest/StorageData.sol\":1996:2004  infoList */\n      dup4\n        /* \"DataTradingTest/StorageData.sol\":1975:2005  informationList.push(infoList) */\n      swap1\n      dup1\n      0x01\n      dup2\n      sload\n      add\n      dup1\n      dup3\n      sstore\n      dup1\n      swap2\n      pop\n      pop\n      0x01\n      swap1\n      sub\n      swap1\n      0x00\n      mstore\n      keccak256(0x00, 0x20)\n      add\n      0x00\n      swap1\n      swap2\n      swap1\n      swap2\n      swap1\n      swap2\n      pop\n      swap1\n      dup1\n      mload\n      swap1\n      0x20\n      add\n      swap1\n      tag_102\n      swap3\n      swap2\n      swap1\n      tag_103\n      jump\t// in\n    tag_102:\n      pop\n        /* \"DataTradingTest/StorageData.sol\":2016:2031  userInformation */\n      0x03\n        /* \"DataTradingTest/StorageData.sol\":2016:2043  userInformation[msg.sender] */\n      0x00\n        /* \"DataTradingTest/StorageData.sol\":2032:2042  msg.sender */\n      caller\n        /* \"DataTradingTest/StorageData.sol\":2016:2043  userInformation[msg.sender] */\n      0xffffffffffffffffffffffffffffffffffffffff\n      and\n      0xffffffffffffffffffffffffffffffffffffffff\n      and\n      dup2\n      mstore\n      0x20\n      add\n      swap1\n      dup2\n      mstore\n      0x20\n      add\n      0x00\n      keccak256\n        /* \"DataTradingTest/StorageData.sol\":2049:2057  infoList */\n      dup4\n        /* \"DataTradingTest/StorageData.sol\":2016:2058  userInformation[msg.sender].push(infoList) */\n      swap1\n      dup1\n      0x01\n      dup2\n      sload\n      add\n      dup1\n      dup3\n      sstore\n      dup1\n      swap2\n      pop\n      pop\n      0x01\n      swap1\n      sub\n      swap1\n      0x00\n      mstore\n      keccak256(0x00, 0x20)\n      add\n      0x00\n      swap1\n      swap2\n      swap1\n      swap2\n      swap1\n      swap2\n      pop\n      swap1\n      dup1\n      mload\n      swap1\n      0x20\n      add\n      swap1\n      tag_105\n      swap3\n      swap2\n      swap1\n      tag_103\n      jump\t// in\n    tag_105:\n      pop\n        /* \"DataTradingTest/StorageData.sol\":828:1204  {... */\n      pop\n      pop\n        /* \"DataTradingTest/StorageData.sol\":1888:2066  function addInformationList(string[] memory infoList) external SellerAddress{... */\n      pop\n      jump\t// out\n        /* \"DataTradingTest/StorageData.sol\":286:319  string[][] public informationList */\n    tag_30:\n      0x02\n      dup3\n      dup2\n      sload\n      dup2\n      lt\n      tag_106\n      jumpi\n      0x00\n      dup1\n      revert\n    tag_106:\n      swap1\n      0x00\n      mstore\n      keccak256(0x00, 0x20)\n      add\n      dup2\n      dup2\n      sload\n      dup2\n      lt\n      tag_108\n      jumpi\n      0x00\n      dup1\n      revert\n    tag_108:\n      swap1\n      0x00\n      mstore\n      keccak256(0x00, 0x20)\n      add\n      0x00\n      swap2\n      pop\n      swap2\n      pop\n      pop\n      dup1\n      sload\n      tag_110\n      swap1\n      tag_111\n      jump\t// in\n    tag_110:\n      dup1\n      0x1f\n      add\n      0x20\n      dup1\n      swap2\n      div\n      mul\n      0x20\n      add\n      mload(0x40)\n      swap1\n      dup2\n      add\n      0x40\n      mstore\n      dup1\n      swap3\n      swap2\n      swap1\n      dup2\n      dup2\n      mstore\n      0x20\n      add\n      dup3\n      dup1\n      sload\n      tag_112\n      swap1\n      tag_111\n      jump\t// in\n    tag_112:\n      dup1\n      iszero\n      tag_113\n      jumpi\n      dup1\n      0x1f\n      lt\n      tag_114\n      jumpi\n      0x0100\n      dup1\n      dup4\n      sload\n      div\n      mul\n      dup4\n      mstore\n      swap2\n      0x20\n      add\n      swap2\n      jump(tag_113)\n    tag_114:\n      dup3\n      add\n      swap2\n      swap1\n      0x00\n      mstore\n      keccak256(0x00, 0x20)\n      swap1\n    tag_115:\n      dup2\n      sload\n      dup2\n      mstore\n      swap1\n      0x01\n      add\n      swap1\n      0x20\n      add\n      dup1\n      dup4\n      gt\n      tag_115\n      jumpi\n      dup3\n      swap1\n      sub\n      0x1f\n      and\n      dup3\n      add\n      swap2\n    tag_113:\n      pop\n      pop\n      pop\n      pop\n      pop\n      dup2\n      jump\t// out\n        /* \"DataTradingTest/StorageData.sol\":2252:2381  function getUserInformation(address user) public view returns (string[][] memory) {... */\n    tag_36:\n        /* \"DataTradingTest/StorageData.sol\":2315:2332  string[][] memory */\n      0x60\n        /* \"DataTradingTest/StorageData.sol\":2352:2367  userInformation */\n      0x03\n        /* \"DataTradingTest/StorageData.sol\":2352:2373  userInformation[user] */\n      0x00\n        /* \"DataTradingTest/StorageData.sol\":2368:2372  user */\n      dup4\n        /* \"DataTradingTest/StorageData.sol\":2352:2373  userInformation[user] */\n      0xffffffffffffffffffffffffffffffffffffffff\n      and\n      0xffffffffffffffffffffffffffffffffffffffff\n      and\n      dup2\n      mstore\n      0x20\n      add\n      swap1\n      dup2\n      mstore\n      0x20\n      add\n      0x00\n      keccak256\n        /* \"DataTradingTest/StorageData.sol\":2345:2373  return userInformation[user] */\n      dup1\n      sload\n      dup1\n      0x20\n      mul\n      0x20\n      add\n      mload(0x40)\n      swap1\n      dup2\n      add\n      0x40\n      mstore\n      dup1\n      swap3\n      swap2\n      swap1\n      dup2\n      dup2\n      mstore\n      0x20\n      add\n      0x00\n      swap1\n    tag_117:\n      dup3\n      dup3\n      lt\n      iszero\n      tag_118\n      jumpi\n      dup4\n      dup3\n      swap1\n      0x00\n      mstore\n      keccak256(0x00, 0x20)\n      add\n      dup1\n      sload\n      dup1\n      0x20\n      mul\n      0x20\n      add\n      mload(0x40)\n      swap1\n      dup2\n      add\n      0x40\n      mstore\n      dup1\n      swap3\n      swap2\n      swap1\n      dup2\n      dup2\n      mstore\n      0x20\n      add\n      0x00\n      swap1\n    tag_120:\n      dup3\n      dup3\n      lt\n      iszero\n      tag_121\n      jumpi\n      dup4\n      dup3\n      swap1\n      0x00\n      mstore\n      keccak256(0x00, 0x20)\n      add\n      dup1\n      sload\n      tag_123\n      swap1\n      tag_111\n      jump\t// in\n    tag_123:\n      dup1\n      0x1f\n      add\n      0x20\n      dup1\n      swap2\n      div\n      mul\n      0x20\n      add\n      mload(0x40)\n      swap1\n      dup2\n      add\n      0x40\n      mstore\n      dup1\n      swap3\n      swap2\n      swap1\n      dup2\n      dup2\n      mstore\n      0x20\n      add\n      dup3\n      dup1\n      sload\n      tag_124\n      swap1\n      tag_111\n      jump\t// in\n    tag_124:\n      dup1\n      iszero\n      tag_125\n      jumpi\n      dup1\n      0x1f\n      lt\n      tag_126\n      jumpi\n      0x0100\n      dup1\n      dup4\n      sload\n      div\n      mul\n      dup4\n      mstore\n      swap2\n      0x20\n      add\n      swap2\n      jump(tag_125)\n    tag_126:\n      dup3\n      add\n      swap2\n      swap1\n      0x00\n      mstore\n      keccak256(0x00, 0x20)\n      swap1\n    tag_127:\n      dup2\n      sload\n      dup2\n      mstore\n      swap1\n      0x01\n      add\n      swap1\n      0x20\n      add\n      dup1\n      dup4\n      gt\n      tag_127\n      jumpi\n      dup3\n      swap1\n      sub\n      0x1f\n      and\n      dup3\n      add\n      swap2\n    tag_125:\n      pop\n      pop\n      pop\n      pop\n      pop\n      dup2\n      mstore\n      0x20\n      add\n      swap1\n      0x01\n      add\n      swap1\n      jump(tag_120)\n    tag_121:\n      pop\n      pop\n      pop\n      pop\n      dup2\n      mstore\n      0x20\n      add\n      swap1\n      0x01\n      add\n      swap1\n      jump(tag_117)\n    tag_118:\n      pop\n      pop\n      pop\n      pop\n      swap1\n      pop\n        /* \"DataTradingTest/StorageData.sol\":2252:2381  function getUserInformation(address user) public view returns (string[][] memory) {... */\n      swap2\n      swap1\n      pop\n      jump\t// out\n        /* \"DataTradingTest/StorageData.sol\":135:163  Seller public sellerContract */\n    tag_40:\n      0x00\n      dup1\n      sload\n      swap1\n      0x0100\n      exp\n      swap1\n      div\n      0xffffffffffffffffffffffffffffffffffffffff\n      and\n      dup2\n      jump\t// out\n        /* \"DataTradingTest/StorageData.sol\":416:440  address[] public sellers */\n    tag_46:\n      0x04\n      dup2\n      dup2\n      sload\n      dup2\n      lt\n      tag_128\n      jumpi\n      0x00\n      dup1\n      revert\n    tag_128:\n      swap1\n      0x00\n      mstore\n      keccak256(0x00, 0x20)\n      add\n      0x00\n      swap2\n      pop\n      sload\n      swap1\n      0x0100\n      exp\n      swap1\n      div\n      0xffffffffffffffffffffffffffffffffffffffff\n      and\n      dup2\n      jump\t// out\n        /* \"DataTradingTest/StorageData.sol\":2947:3207  function deleteInformationList(uint listIndex) public {... */\n    tag_51:\n        /* \"DataTradingTest/StorageData.sol\":3032:3047  userInformation */\n      0x03\n        /* \"DataTradingTest/StorageData.sol\":3032:3059  userInformation[msg.sender] */\n      0x00\n        /* \"DataTradingTest/StorageData.sol\":3048:3058  msg.sender */\n      caller\n        /* \"DataTradingTest/StorageData.sol\":3032:3059  userInformation[msg.sender] */\n      0xffffffffffffffffffffffffffffffffffffffff\n      and\n      0xffffffffffffffffffffffffffffffffffffffff\n      and\n      dup2\n      mstore\n      0x20\n      add\n      swap1\n      dup2\n      mstore\n      0x20\n      add\n      0x00\n      keccak256\n        /* \"DataTradingTest/StorageData.sol\":3032:3066  userInformation[msg.sender].length */\n      dup1\n      sload\n      swap1\n      pop\n        /* \"DataTradingTest/StorageData.sol\":3020:3029  listIndex */\n      dup2\n        /* \"DataTradingTest/StorageData.sol\":3020:3066  listIndex < userInformation[msg.sender].length */\n      lt\n        /* \"DataTradingTest/StorageData.sol\":3012:3095  require(listIndex < userInformation[msg.sender].length, \"List index out of bounds\") */\n      tag_131\n      jumpi\n      mload(0x40)\n      0x08c379a000000000000000000000000000000000000000000000000000000000\n      dup2\n      mstore\n      0x04\n      add\n      tag_132\n      swap1\n      tag_63\n      jump\t// in\n    tag_132:\n      mload(0x40)\n      dup1\n      swap2\n      sub\n      swap1\n      revert\n    tag_131:\n        /* \"DataTradingTest/StorageData.sol\":3165:3180  userInformation */\n      0x03\n        /* \"DataTradingTest/StorageData.sol\":3165:3192  userInformation[msg.sender] */\n      0x00\n        /* \"DataTradingTest/StorageData.sol\":3181:3191  msg.sender */\n      caller\n        /* \"DataTradingTest/StorageData.sol\":3165:3192  userInformation[msg.sender] */\n      0xffffffffffffffffffffffffffffffffffffffff\n      and\n      0xffffffffffffffffffffffffffffffffffffffff\n      and\n      dup2\n      mstore\n      0x20\n      add\n      swap1\n      dup2\n      mstore\n      0x20\n      add\n      0x00\n      keccak256\n        /* \"DataTradingTest/StorageData.sol\":3193:3202  listIndex */\n      dup2\n        /* \"DataTradingTest/StorageData.sol\":3165:3203  userInformation[msg.sender][listIndex] */\n      dup2\n      sload\n      dup2\n      lt\n      tag_133\n      jumpi\n      tag_134\n      tag_66\n      jump\t// in\n    tag_134:\n    tag_133:\n      swap1\n      0x00\n      mstore\n      keccak256(0x00, 0x20)\n      add\n      0x00\n        /* \"DataTradingTest/StorageData.sol\":3158:3203  delete userInformation[msg.sender][listIndex] */\n      tag_136\n      swap2\n      swap1\n      tag_137\n      jump\t// in\n    tag_136:\n        /* \"DataTradingTest/StorageData.sol\":2947:3207  function deleteInformationList(uint listIndex) public {... */\n      pop\n      jump\t// out\n        /* \"DataTradingTest/StorageData.sol\":197:223  Buyer public buyerContract */\n    tag_53:\n      0x01\n      0x00\n      swap1\n      sload\n      swap1\n      0x0100\n      exp\n      swap1\n      div\n      0xffffffffffffffffffffffffffffffffffffffff\n      and\n      dup2\n      jump\t// out\n        /* \"DataTradingTest/StorageData.sol\":465:488  address[] public buyers */\n    tag_58:\n      0x05\n      dup2\n      dup2\n      sload\n      dup2\n      lt\n      tag_138\n      jumpi\n      0x00\n      dup1\n      revert\n    tag_138:\n      swap1\n      0x00\n      mstore\n      keccak256(0x00, 0x20)\n      add\n      0x00\n      swap2\n      pop\n      sload\n      swap1\n      0x0100\n      exp\n      swap1\n      div\n      0xffffffffffffffffffffffffffffffffffffffff\n      and\n      dup2\n      jump\t// out\n    tag_103:\n      dup3\n      dup1\n      sload\n      dup3\n      dup3\n      sstore\n      swap1\n      0x00\n      mstore\n      keccak256(0x00, 0x20)\n      swap1\n      dup2\n      add\n      swap3\n      dup3\n      iszero\n      tag_140\n      jumpi\n      swap2\n      0x20\n      mul\n      dup3\n      add\n    tag_141:\n      dup3\n      dup2\n      gt\n      iszero\n      tag_142\n      jumpi\n      dup3\n      mload\n      dup3\n      swap1\n      dup2\n      tag_143\n      swap2\n      swap1\n      tag_78\n      jump\t// in\n    tag_143:\n      pop\n      swap2\n      0x20\n      add\n      swap2\n      swap1\n      0x01\n      add\n      swap1\n      jump(tag_141)\n    tag_142:\n    tag_140:\n      pop\n      swap1\n      pop\n      tag_144\n      swap2\n      swap1\n      tag_145\n      jump\t// in\n    tag_144:\n      pop\n      swap1\n      jump\t// out\n    tag_137:\n      pop\n      dup1\n      sload\n      0x00\n      dup3\n      sstore\n      swap1\n      0x00\n      mstore\n      keccak256(0x00, 0x20)\n      swap1\n      dup2\n      add\n      swap1\n      tag_147\n      swap2\n      swap1\n      tag_145\n      jump\t// in\n    tag_147:\n      pop\n      jump\t// out\n    tag_145:\n    tag_148:\n      dup1\n      dup3\n      gt\n      iszero\n      tag_149\n      jumpi\n      0x00\n      dup2\n      dup2\n      tag_150\n      swap2\n      swap1\n      tag_151\n      jump\t// in\n    tag_150:\n      pop\n      0x01\n      add\n      jump(tag_148)\n    tag_149:\n      pop\n      swap1\n      jump\t// out\n    tag_151:\n      pop\n      dup1\n      sload\n      tag_152\n      swap1\n      tag_111\n      jump\t// in\n    tag_152:\n      0x00\n      dup3\n      sstore\n      dup1\n      0x1f\n      lt\n      tag_154\n      jumpi\n      pop\n      jump(tag_153)\n    tag_154:\n      0x1f\n      add\n      0x20\n      swap1\n      div\n      swap1\n      0x00\n      mstore\n      keccak256(0x00, 0x20)\n      swap1\n      dup2\n      add\n      swap1\n      tag_155\n      swap2\n      swap1\n      tag_156\n      jump\t// in\n    tag_155:\n    tag_153:\n      pop\n      jump\t// out\n    tag_156:\n    tag_157:\n      dup1\n      dup3\n      gt\n      iszero\n      tag_158\n      jumpi\n      0x00\n      dup2\n      0x00\n      swap1\n      sstore\n      pop\n      0x01\n      add\n      jump(tag_157)\n    tag_158:\n      pop\n      swap1\n      jump\t// out\n        /* \"#utility.yul\":7:82   */\n    tag_159:\n        /* \"#utility.yul\":40:46   */\n      0x00\n        /* \"#utility.yul\":73:75   */\n      0x40\n        /* \"#utility.yul\":67:76   */\n      mload\n        /* \"#utility.yul\":57:76   */\n      swap1\n      pop\n        /* \"#utility.yul\":7:82   */\n      swap1\n      jump\t// out\n        /* \"#utility.yul\":88:205   */\n    tag_160:\n        /* \"#utility.yul\":197:198   */\n      0x00\n        /* \"#utility.yul\":194:195   */\n      dup1\n        /* \"#utility.yul\":187:199   */\n      revert\n        /* \"#utility.yul\":211:328   */\n    tag_161:\n        /* \"#utility.yul\":320:321   */\n      0x00\n        /* \"#utility.yul\":317:318   */\n      dup1\n        /* \"#utility.yul\":310:322   */\n      revert\n        /* \"#utility.yul\":334:411   */\n    tag_162:\n        /* \"#utility.yul\":371:378   */\n      0x00\n        /* \"#utility.yul\":400:405   */\n      dup2\n        /* \"#utility.yul\":389:405   */\n      swap1\n      pop\n        /* \"#utility.yul\":334:411   */\n      swap2\n      swap1\n      pop\n      jump\t// out\n        /* \"#utility.yul\":417:539   */\n    tag_163:\n        /* \"#utility.yul\":490:514   */\n      tag_239\n        /* \"#utility.yul\":508:513   */\n      dup2\n        /* \"#utility.yul\":490:514   */\n      tag_162\n      jump\t// in\n    tag_239:\n        /* \"#utility.yul\":483:488   */\n      dup2\n        /* \"#utility.yul\":480:515   */\n      eq\n        /* \"#utility.yul\":470:533   */\n      tag_240\n      jumpi\n        /* \"#utility.yul\":529:530   */\n      0x00\n        /* \"#utility.yul\":526:527   */\n      dup1\n        /* \"#utility.yul\":519:531   */\n      revert\n        /* \"#utility.yul\":470:533   */\n    tag_240:\n        /* \"#utility.yul\":417:539   */\n      pop\n      jump\t// out\n        /* \"#utility.yul\":545:684   */\n    tag_164:\n        /* \"#utility.yul\":591:596   */\n      0x00\n        /* \"#utility.yul\":629:635   */\n      dup2\n        /* \"#utility.yul\":616:636   */\n      calldataload\n        /* \"#utility.yul\":607:636   */\n      swap1\n      pop\n        /* \"#utility.yul\":645:678   */\n      tag_242\n        /* \"#utility.yul\":672:677   */\n      dup2\n        /* \"#utility.yul\":645:678   */\n      tag_163\n      jump\t// in\n    tag_242:\n        /* \"#utility.yul\":545:684   */\n      swap3\n      swap2\n      pop\n      pop\n      jump\t// out\n        /* \"#utility.yul\":690:807   */\n    tag_165:\n        /* \"#utility.yul\":799:800   */\n      0x00\n        /* \"#utility.yul\":796:797   */\n      dup1\n        /* \"#utility.yul\":789:801   */\n      revert\n        /* \"#utility.yul\":813:930   */\n    tag_166:\n        /* \"#utility.yul\":922:923   */\n      0x00\n        /* \"#utility.yul\":919:920   */\n      dup1\n        /* \"#utility.yul\":912:924   */\n      revert\n        /* \"#utility.yul\":936:1038   */\n    tag_167:\n        /* \"#utility.yul\":977:983   */\n      0x00\n        /* \"#utility.yul\":1028:1030   */\n      0x1f\n        /* \"#utility.yul\":1024:1031   */\n      not\n        /* \"#utility.yul\":1019:1021   */\n      0x1f\n        /* \"#utility.yul\":1012:1017   */\n      dup4\n        /* \"#utility.yul\":1008:1022   */\n      add\n        /* \"#utility.yul\":1004:1032   */\n      and\n        /* \"#utility.yul\":994:1032   */\n      swap1\n      pop\n        /* \"#utility.yul\":936:1038   */\n      swap2\n      swap1\n      pop\n      jump\t// out\n        /* \"#utility.yul\":1044:1224   */\n    tag_168:\n        /* \"#utility.yul\":1092:1169   */\n      0x4e487b7100000000000000000000000000000000000000000000000000000000\n        /* \"#utility.yul\":1089:1090   */\n      0x00\n        /* \"#utility.yul\":1082:1170   */\n      mstore\n        /* \"#utility.yul\":1189:1193   */\n      0x41\n        /* \"#utility.yul\":1186:1187   */\n      0x04\n        /* \"#utility.yul\":1179:1194   */\n      mstore\n        /* \"#utility.yul\":1213:1217   */\n      0x24\n        /* \"#utility.yul\":1210:1211   */\n      0x00\n        /* \"#utility.yul\":1203:1218   */\n      revert\n        /* \"#utility.yul\":1230:1511   */\n    tag_169:\n        /* \"#utility.yul\":1313:1340   */\n      tag_248\n        /* \"#utility.yul\":1335:1339   */\n      dup3\n        /* \"#utility.yul\":1313:1340   */\n      tag_167\n      jump\t// in\n    tag_248:\n        /* \"#utility.yul\":1305:1311   */\n      dup2\n        /* \"#utility.yul\":1301:1341   */\n      add\n        /* \"#utility.yul\":1443:1449   */\n      dup2\n        /* \"#utility.yul\":1431:1441   */\n      dup2\n        /* \"#utility.yul\":1428:1450   */\n      lt\n        /* \"#utility.yul\":1407:1425   */\n      0xffffffffffffffff\n        /* \"#utility.yul\":1395:1405   */\n      dup3\n        /* \"#utility.yul\":1392:1426   */\n      gt\n        /* \"#utility.yul\":1389:1451   */\n      or\n        /* \"#utility.yul\":1386:1474   */\n      iszero\n      tag_249\n      jumpi\n        /* \"#utility.yul\":1454:1472   */\n      tag_250\n      tag_168\n      jump\t// in\n    tag_250:\n        /* \"#utility.yul\":1386:1474   */\n    tag_249:\n        /* \"#utility.yul\":1494:1504   */\n      dup1\n        /* \"#utility.yul\":1490:1492   */\n      0x40\n        /* \"#utility.yul\":1483:1505   */\n      mstore\n        /* \"#utility.yul\":1273:1511   */\n      pop\n        /* \"#utility.yul\":1230:1511   */\n      pop\n      pop\n      jump\t// out\n        /* \"#utility.yul\":1517:1646   */\n    tag_170:\n        /* \"#utility.yul\":1551:1557   */\n      0x00\n        /* \"#utility.yul\":1578:1598   */\n      tag_252\n      tag_159\n      jump\t// in\n    tag_252:\n        /* \"#utility.yul\":1568:1598   */\n      swap1\n      pop\n        /* \"#utility.yul\":1607:1640   */\n      tag_253\n        /* \"#utility.yul\":1635:1639   */\n      dup3\n        /* \"#utility.yul\":1627:1633   */\n      dup3\n        /* \"#utility.yul\":1607:1640   */\n      tag_169\n      jump\t// in\n    tag_253:\n        /* \"#utility.yul\":1517:1646   */\n      swap2\n      swap1\n      pop\n      jump\t// out\n        /* \"#utility.yul\":1652:1960   */\n    tag_171:\n        /* \"#utility.yul\":1714:1718   */\n      0x00\n        /* \"#utility.yul\":1804:1822   */\n      0xffffffffffffffff\n        /* \"#utility.yul\":1796:1802   */\n      dup3\n        /* \"#utility.yul\":1793:1823   */\n      gt\n        /* \"#utility.yul\":1790:1846   */\n      iszero\n      tag_255\n      jumpi\n        /* \"#utility.yul\":1826:1844   */\n      tag_256\n      tag_168\n      jump\t// in\n    tag_256:\n        /* \"#utility.yul\":1790:1846   */\n    tag_255:\n        /* \"#utility.yul\":1864:1893   */\n      tag_257\n        /* \"#utility.yul\":1886:1892   */\n      dup3\n        /* \"#utility.yul\":1864:1893   */\n      tag_167\n      jump\t// in\n    tag_257:\n        /* \"#utility.yul\":1856:1893   */\n      swap1\n      pop\n        /* \"#utility.yul\":1948:1952   */\n      0x20\n        /* \"#utility.yul\":1942:1946   */\n      dup2\n        /* \"#utility.yul\":1938:1953   */\n      add\n        /* \"#utility.yul\":1930:1953   */\n      swap1\n      pop\n        /* \"#utility.yul\":1652:1960   */\n      swap2\n      swap1\n      pop\n      jump\t// out\n        /* \"#utility.yul\":1966:2112   */\n    tag_172:\n        /* \"#utility.yul\":2063:2069   */\n      dup3\n        /* \"#utility.yul\":2058:2061   */\n      dup2\n        /* \"#utility.yul\":2053:2056   */\n      dup4\n        /* \"#utility.yul\":2040:2070   */\n      calldatacopy\n        /* \"#utility.yul\":2104:2105   */\n      0x00\n        /* \"#utility.yul\":2095:2101   */\n      dup4\n        /* \"#utility.yul\":2090:2093   */\n      dup4\n        /* \"#utility.yul\":2086:2102   */\n      add\n        /* \"#utility.yul\":2079:2106   */\n      mstore\n        /* \"#utility.yul\":1966:2112   */\n      pop\n      pop\n      pop\n      jump\t// out\n        /* \"#utility.yul\":2118:2543   */\n    tag_173:\n        /* \"#utility.yul\":2196:2201   */\n      0x00\n        /* \"#utility.yul\":2221:2287   */\n      tag_260\n        /* \"#utility.yul\":2237:2286   */\n      tag_261\n        /* \"#utility.yul\":2279:2285   */\n      dup5\n        /* \"#utility.yul\":2237:2286   */\n      tag_171\n      jump\t// in\n    tag_261:\n        /* \"#utility.yul\":2221:2287   */\n      tag_170\n      jump\t// in\n    tag_260:\n        /* \"#utility.yul\":2212:2287   */\n      swap1\n      pop\n        /* \"#utility.yul\":2310:2316   */\n      dup3\n        /* \"#utility.yul\":2303:2308   */\n      dup2\n        /* \"#utility.yul\":2296:2317   */\n      mstore\n        /* \"#utility.yul\":2348:2352   */\n      0x20\n        /* \"#utility.yul\":2341:2346   */\n      dup2\n        /* \"#utility.yul\":2337:2353   */\n      add\n        /* \"#utility.yul\":2386:2389   */\n      dup5\n        /* \"#utility.yul\":2377:2383   */\n      dup5\n        /* \"#utility.yul\":2372:2375   */\n      dup5\n        /* \"#utility.yul\":2368:2384   */\n      add\n        /* \"#utility.yul\":2365:2390   */\n      gt\n        /* \"#utility.yul\":2362:2474   */\n      iszero\n      tag_262\n      jumpi\n        /* \"#utility.yul\":2393:2472   */\n      tag_263\n      tag_166\n      jump\t// in\n    tag_263:\n        /* \"#utility.yul\":2362:2474   */\n    tag_262:\n        /* \"#utility.yul\":2483:2537   */\n      tag_264\n        /* \"#utility.yul\":2530:2536   */\n      dup5\n        /* \"#utility.yul\":2525:2528   */\n      dup3\n        /* \"#utility.yul\":2520:2523   */\n      dup6\n        /* \"#utility.yul\":2483:2537   */\n      tag_172\n      jump\t// in\n    tag_264:\n        /* \"#utility.yul\":2202:2543   */\n      pop\n        /* \"#utility.yul\":2118:2543   */\n      swap4\n      swap3\n      pop\n      pop\n      pop\n      jump\t// out\n        /* \"#utility.yul\":2563:2903   */\n    tag_174:\n        /* \"#utility.yul\":2619:2624   */\n      0x00\n        /* \"#utility.yul\":2668:2671   */\n      dup3\n        /* \"#utility.yul\":2661:2665   */\n      0x1f\n        /* \"#utility.yul\":2653:2659   */\n      dup4\n        /* \"#utility.yul\":2649:2666   */\n      add\n        /* \"#utility.yul\":2645:2672   */\n      slt\n        /* \"#utility.yul\":2635:2757   */\n      tag_266\n      jumpi\n        /* \"#utility.yul\":2676:2755   */\n      tag_267\n      tag_165\n      jump\t// in\n    tag_267:\n        /* \"#utility.yul\":2635:2757   */\n    tag_266:\n        /* \"#utility.yul\":2793:2799   */\n      dup2\n        /* \"#utility.yul\":2780:2800   */\n      calldataload\n        /* \"#utility.yul\":2818:2897   */\n      tag_268\n        /* \"#utility.yul\":2893:2896   */\n      dup5\n        /* \"#utility.yul\":2885:2891   */\n      dup3\n        /* \"#utility.yul\":2878:2882   */\n      0x20\n        /* \"#utility.yul\":2870:2876   */\n      dup7\n        /* \"#utility.yul\":2866:2883   */\n      add\n        /* \"#utility.yul\":2818:2897   */\n      tag_173\n      jump\t// in\n    tag_268:\n        /* \"#utility.yul\":2809:2897   */\n      swap2\n      pop\n        /* \"#utility.yul\":2625:2903   */\n      pop\n        /* \"#utility.yul\":2563:2903   */\n      swap3\n      swap2\n      pop\n      pop\n      jump\t// out\n        /* \"#utility.yul\":2909:3708   */\n    tag_16:\n        /* \"#utility.yul\":2996:3002   */\n      0x00\n        /* \"#utility.yul\":3004:3010   */\n      dup1\n        /* \"#utility.yul\":3012:3018   */\n      0x00\n        /* \"#utility.yul\":3061:3063   */\n      0x60\n        /* \"#utility.yul\":3049:3058   */\n      dup5\n        /* \"#utility.yul\":3040:3047   */\n      dup7\n        /* \"#utility.yul\":3036:3059   */\n      sub\n        /* \"#utility.yul\":3032:3064   */\n      slt\n        /* \"#utility.yul\":3029:3148   */\n      iszero\n      tag_270\n      jumpi\n        /* \"#utility.yul\":3067:3146   */\n      tag_271\n      tag_160\n      jump\t// in\n    tag_271:\n        /* \"#utility.yul\":3029:3148   */\n    tag_270:\n        /* \"#utility.yul\":3187:3188   */\n      0x00\n        /* \"#utility.yul\":3212:3265   */\n      tag_272\n        /* \"#utility.yul\":3257:3264   */\n      dup7\n        /* \"#utility.yul\":3248:3254   */\n      dup3\n        /* \"#utility.yul\":3237:3246   */\n      dup8\n        /* \"#utility.yul\":3233:3255   */\n      add\n        /* \"#utility.yul\":3212:3265   */\n      tag_164\n      jump\t// in\n    tag_272:\n        /* \"#utility.yul\":3202:3265   */\n      swap4\n      pop\n        /* \"#utility.yul\":3158:3275   */\n      pop\n        /* \"#utility.yul\":3314:3316   */\n      0x20\n        /* \"#utility.yul\":3340:3393   */\n      tag_273\n        /* \"#utility.yul\":3385:3392   */\n      dup7\n        /* \"#utility.yul\":3376:3382   */\n      dup3\n        /* \"#utility.yul\":3365:3374   */\n      dup8\n        /* \"#utility.yul\":3361:3383   */\n      add\n        /* \"#utility.yul\":3340:3393   */\n      tag_164\n      jump\t// in\n    tag_273:\n        /* \"#utility.yul\":3330:3393   */\n      swap3\n      pop\n        /* \"#utility.yul\":3285:3403   */\n      pop\n        /* \"#utility.yul\":3470:3472   */\n      0x40\n        /* \"#utility.yul\":3459:3468   */\n      dup5\n        /* \"#utility.yul\":3455:3473   */\n      add\n        /* \"#utility.yul\":3442:3474   */\n      calldataload\n        /* \"#utility.yul\":3501:3519   */\n      0xffffffffffffffff\n        /* \"#utility.yul\":3493:3499   */\n      dup2\n        /* \"#utility.yul\":3490:3520   */\n      gt\n        /* \"#utility.yul\":3487:3604   */\n      iszero\n      tag_274\n      jumpi\n        /* \"#utility.yul\":3523:3602   */\n      tag_275\n      tag_161\n      jump\t// in\n    tag_275:\n        /* \"#utility.yul\":3487:3604   */\n    tag_274:\n        /* \"#utility.yul\":3628:3691   */\n      tag_276\n        /* \"#utility.yul\":3683:3690   */\n      dup7\n        /* \"#utility.yul\":3674:3680   */\n      dup3\n        /* \"#utility.yul\":3663:3672   */\n      dup8\n        /* \"#utility.yul\":3659:3681   */\n      add\n        /* \"#utility.yul\":3628:3691   */\n      tag_174\n      jump\t// in\n    tag_276:\n        /* \"#utility.yul\":3618:3691   */\n      swap2\n      pop\n        /* \"#utility.yul\":3413:3701   */\n      pop\n        /* \"#utility.yul\":2909:3708   */\n      swap3\n      pop\n      swap3\n      pop\n      swap3\n      jump\t// out\n        /* \"#utility.yul\":3714:3832   */\n    tag_175:\n        /* \"#utility.yul\":3801:3825   */\n      tag_278\n        /* \"#utility.yul\":3819:3824   */\n      dup2\n        /* \"#utility.yul\":3801:3825   */\n      tag_162\n      jump\t// in\n    tag_278:\n        /* \"#utility.yul\":3796:3799   */\n      dup3\n        /* \"#utility.yul\":3789:3826   */\n      mstore\n        /* \"#utility.yul\":3714:3832   */\n      pop\n      pop\n      jump\t// out\n        /* \"#utility.yul\":3838:4060   */\n    tag_19:\n        /* \"#utility.yul\":3931:3935   */\n      0x00\n        /* \"#utility.yul\":3969:3971   */\n      0x20\n        /* \"#utility.yul\":3958:3967   */\n      dup3\n        /* \"#utility.yul\":3954:3972   */\n      add\n        /* \"#utility.yul\":3946:3972   */\n      swap1\n      pop\n        /* \"#utility.yul\":3982:4053   */\n      tag_280\n        /* \"#utility.yul\":4050:4051   */\n      0x00\n        /* \"#utility.yul\":4039:4048   */\n      dup4\n        /* \"#utility.yul\":4035:4052   */\n      add\n        /* \"#utility.yul\":4026:4032   */\n      dup5\n        /* \"#utility.yul\":3982:4053   */\n      tag_175\n      jump\t// in\n    tag_280:\n        /* \"#utility.yul\":3838:4060   */\n      swap3\n      swap2\n      pop\n      pop\n      jump\t// out\n        /* \"#utility.yul\":4066:4387   */\n    tag_176:\n        /* \"#utility.yul\":4153:4157   */\n      0x00\n        /* \"#utility.yul\":4243:4261   */\n      0xffffffffffffffff\n        /* \"#utility.yul\":4235:4241   */\n      dup3\n        /* \"#utility.yul\":4232:4262   */\n      gt\n        /* \"#utility.yul\":4229:4285   */\n      iszero\n      tag_282\n      jumpi\n        /* \"#utility.yul\":4265:4283   */\n      tag_283\n      tag_168\n      jump\t// in\n    tag_283:\n        /* \"#utility.yul\":4229:4285   */\n    tag_282:\n        /* \"#utility.yul\":4315:4319   */\n      0x20\n        /* \"#utility.yul\":4307:4313   */\n      dup3\n        /* \"#utility.yul\":4303:4320   */\n      mul\n        /* \"#utility.yul\":4295:4320   */\n      swap1\n      pop\n        /* \"#utility.yul\":4375:4379   */\n      0x20\n        /* \"#utility.yul\":4369:4373   */\n      dup2\n        /* \"#utility.yul\":4365:4380   */\n      add\n        /* \"#utility.yul\":4357:4380   */\n      swap1\n      pop\n        /* \"#utility.yul\":4066:4387   */\n      swap2\n      swap1\n      pop\n      jump\t// out\n        /* \"#utility.yul\":4393:4510   */\n    tag_177:\n        /* \"#utility.yul\":4502:4503   */\n      0x00\n        /* \"#utility.yul\":4499:4500   */\n      dup1\n        /* \"#utility.yul\":4492:4504   */\n      revert\n        /* \"#utility.yul\":4532:5477   */\n    tag_178:\n        /* \"#utility.yul\":4638:4643   */\n      0x00\n        /* \"#utility.yul\":4663:4754   */\n      tag_286\n        /* \"#utility.yul\":4679:4753   */\n      tag_287\n        /* \"#utility.yul\":4746:4752   */\n      dup5\n        /* \"#utility.yul\":4679:4753   */\n      tag_176\n      jump\t// in\n    tag_287:\n        /* \"#utility.yul\":4663:4754   */\n      tag_170\n      jump\t// in\n    tag_286:\n        /* \"#utility.yul\":4654:4754   */\n      swap1\n      pop\n        /* \"#utility.yul\":4774:4779   */\n      dup1\n        /* \"#utility.yul\":4803:4809   */\n      dup4\n        /* \"#utility.yul\":4796:4801   */\n      dup3\n        /* \"#utility.yul\":4789:4810   */\n      mstore\n        /* \"#utility.yul\":4837:4841   */\n      0x20\n        /* \"#utility.yul\":4830:4835   */\n      dup3\n        /* \"#utility.yul\":4826:4842   */\n      add\n        /* \"#utility.yul\":4819:4842   */\n      swap1\n      pop\n        /* \"#utility.yul\":4890:4894   */\n      0x20\n        /* \"#utility.yul\":4882:4888   */\n      dup5\n        /* \"#utility.yul\":4878:4895   */\n      mul\n        /* \"#utility.yul\":4870:4876   */\n      dup4\n        /* \"#utility.yul\":4866:4896   */\n      add\n        /* \"#utility.yul\":4919:4922   */\n      dup6\n        /* \"#utility.yul\":4911:4917   */\n      dup2\n        /* \"#utility.yul\":4908:4923   */\n      gt\n        /* \"#utility.yul\":4905:5027   */\n      iszero\n      tag_288\n      jumpi\n        /* \"#utility.yul\":4938:5017   */\n      tag_289\n      tag_177\n      jump\t// in\n    tag_289:\n        /* \"#utility.yul\":4905:5027   */\n    tag_288:\n        /* \"#utility.yul\":5053:5059   */\n      dup4\n        /* \"#utility.yul\":5036:5471   */\n    tag_290:\n        /* \"#utility.yul\":5070:5076   */\n      dup2\n        /* \"#utility.yul\":5065:5068   */\n      dup2\n        /* \"#utility.yul\":5062:5077   */\n      lt\n        /* \"#utility.yul\":5036:5471   */\n      iszero\n      tag_292\n      jumpi\n        /* \"#utility.yul\":5159:5162   */\n      dup1\n        /* \"#utility.yul\":5146:5163   */\n      calldataload\n        /* \"#utility.yul\":5195:5213   */\n      0xffffffffffffffff\n        /* \"#utility.yul\":5182:5193   */\n      dup2\n        /* \"#utility.yul\":5179:5214   */\n      gt\n        /* \"#utility.yul\":5176:5298   */\n      iszero\n      tag_293\n      jumpi\n        /* \"#utility.yul\":5217:5296   */\n      tag_294\n      tag_165\n      jump\t// in\n    tag_294:\n        /* \"#utility.yul\":5176:5298   */\n    tag_293:\n        /* \"#utility.yul\":5341:5352   */\n      dup1\n        /* \"#utility.yul\":5333:5339   */\n      dup7\n        /* \"#utility.yul\":5329:5353   */\n      add\n        /* \"#utility.yul\":5379:5426   */\n      tag_295\n        /* \"#utility.yul\":5422:5425   */\n      dup10\n        /* \"#utility.yul\":5410:5420   */\n      dup3\n        /* \"#utility.yul\":5379:5426   */\n      tag_174\n      jump\t// in\n    tag_295:\n        /* \"#utility.yul\":5374:5377   */\n      dup6\n        /* \"#utility.yul\":5367:5427   */\n      mstore\n        /* \"#utility.yul\":5456:5460   */\n      0x20\n        /* \"#utility.yul\":5451:5454   */\n      dup6\n        /* \"#utility.yul\":5447:5461   */\n      add\n        /* \"#utility.yul\":5440:5461   */\n      swap5\n      pop\n        /* \"#utility.yul\":5112:5471   */\n      pop\n      pop\n        /* \"#utility.yul\":5096:5100   */\n      0x20\n        /* \"#utility.yul\":5091:5094   */\n      dup2\n        /* \"#utility.yul\":5087:5101   */\n      add\n        /* \"#utility.yul\":5080:5101   */\n      swap1\n      pop\n        /* \"#utility.yul\":5036:5471   */\n      jump(tag_290)\n    tag_292:\n        /* \"#utility.yul\":5040:5061   */\n      pop\n        /* \"#utility.yul\":4644:5477   */\n      pop\n      pop\n        /* \"#utility.yul\":4532:5477   */\n      swap4\n      swap3\n      pop\n      pop\n      pop\n      jump\t// out\n        /* \"#utility.yul\":5499:5889   */\n    tag_179:\n        /* \"#utility.yul\":5580:5585   */\n      0x00\n        /* \"#utility.yul\":5629:5632   */\n      dup3\n        /* \"#utility.yul\":5622:5626   */\n      0x1f\n        /* \"#utility.yul\":5614:5620   */\n      dup4\n        /* \"#utility.yul\":5610:5627   */\n      add\n        /* \"#utility.yul\":5606:5633   */\n      slt\n        /* \"#utility.yul\":5596:5718   */\n      tag_297\n      jumpi\n        /* \"#utility.yul\":5637:5716   */\n      tag_298\n      tag_165\n      jump\t// in\n    tag_298:\n        /* \"#utility.yul\":5596:5718   */\n    tag_297:\n        /* \"#utility.yul\":5754:5760   */\n      dup2\n        /* \"#utility.yul\":5741:5761   */\n      calldataload\n        /* \"#utility.yul\":5779:5883   */\n      tag_299\n        /* \"#utility.yul\":5879:5882   */\n      dup5\n        /* \"#utility.yul\":5871:5877   */\n      dup3\n        /* \"#utility.yul\":5864:5868   */\n      0x20\n        /* \"#utility.yul\":5856:5862   */\n      dup7\n        /* \"#utility.yul\":5852:5869   */\n      add\n        /* \"#utility.yul\":5779:5883   */\n      tag_178\n      jump\t// in\n    tag_299:\n        /* \"#utility.yul\":5770:5883   */\n      swap2\n      pop\n        /* \"#utility.yul\":5586:5889   */\n      pop\n        /* \"#utility.yul\":5499:5889   */\n      swap3\n      swap2\n      pop\n      pop\n      jump\t// out\n        /* \"#utility.yul\":5895:6454   */\n    tag_25:\n        /* \"#utility.yul\":5989:5995   */\n      0x00\n        /* \"#utility.yul\":6038:6040   */\n      0x20\n        /* \"#utility.yul\":6026:6035   */\n      dup3\n        /* \"#utility.yul\":6017:6024   */\n      dup5\n        /* \"#utility.yul\":6013:6036   */\n      sub\n        /* \"#utility.yul\":6009:6041   */\n      slt\n        /* \"#utility.yul\":6006:6125   */\n      iszero\n      tag_301\n      jumpi\n        /* \"#utility.yul\":6044:6123   */\n      tag_302\n      tag_160\n      jump\t// in\n    tag_302:\n        /* \"#utility.yul\":6006:6125   */\n    tag_301:\n        /* \"#utility.yul\":6192:6193   */\n      0x00\n        /* \"#utility.yul\":6181:6190   */\n      dup3\n        /* \"#utility.yul\":6177:6194   */\n      add\n        /* \"#utility.yul\":6164:6195   */\n      calldataload\n        /* \"#utility.yul\":6222:6240   */\n      0xffffffffffffffff\n        /* \"#utility.yul\":6214:6220   */\n      dup2\n        /* \"#utility.yul\":6211:6241   */\n      gt\n        /* \"#utility.yul\":6208:6325   */\n      iszero\n      tag_303\n      jumpi\n        /* \"#utility.yul\":6244:6323   */\n      tag_304\n      tag_161\n      jump\t// in\n    tag_304:\n        /* \"#utility.yul\":6208:6325   */\n    tag_303:\n        /* \"#utility.yul\":6349:6437   */\n      tag_305\n        /* \"#utility.yul\":6429:6436   */\n      dup5\n        /* \"#utility.yul\":6420:6426   */\n      dup3\n        /* \"#utility.yul\":6409:6418   */\n      dup6\n        /* \"#utility.yul\":6405:6427   */\n      add\n        /* \"#utility.yul\":6349:6437   */\n      tag_179\n      jump\t// in\n    tag_305:\n        /* \"#utility.yul\":6339:6437   */\n      swap2\n      pop\n        /* \"#utility.yul\":6135:6447   */\n      pop\n        /* \"#utility.yul\":5895:6454   */\n      swap3\n      swap2\n      pop\n      pop\n      jump\t// out\n        /* \"#utility.yul\":6460:6934   */\n    tag_29:\n        /* \"#utility.yul\":6528:6534   */\n      0x00\n        /* \"#utility.yul\":6536:6542   */\n      dup1\n        /* \"#utility.yul\":6585:6587   */\n      0x40\n        /* \"#utility.yul\":6573:6582   */\n      dup4\n        /* \"#utility.yul\":6564:6571   */\n      dup6\n        /* \"#utility.yul\":6560:6583   */\n      sub\n        /* \"#utility.yul\":6556:6588   */\n      slt\n        /* \"#utility.yul\":6553:6672   */\n      iszero\n      tag_307\n      jumpi\n        /* \"#utility.yul\":6591:6670   */\n      tag_308\n      tag_160\n      jump\t// in\n    tag_308:\n        /* \"#utility.yul\":6553:6672   */\n    tag_307:\n        /* \"#utility.yul\":6711:6712   */\n      0x00\n        /* \"#utility.yul\":6736:6789   */\n      tag_309\n        /* \"#utility.yul\":6781:6788   */\n      dup6\n        /* \"#utility.yul\":6772:6778   */\n      dup3\n        /* \"#utility.yul\":6761:6770   */\n      dup7\n        /* \"#utility.yul\":6757:6779   */\n      add\n        /* \"#utility.yul\":6736:6789   */\n      tag_164\n      jump\t// in\n    tag_309:\n        /* \"#utility.yul\":6726:6789   */\n      swap3\n      pop\n        /* \"#utility.yul\":6682:6799   */\n      pop\n        /* \"#utility.yul\":6838:6840   */\n      0x20\n        /* \"#utility.yul\":6864:6917   */\n      tag_310\n        /* \"#utility.yul\":6909:6916   */\n      dup6\n        /* \"#utility.yul\":6900:6906   */\n      dup3\n        /* \"#utility.yul\":6889:6898   */\n      dup7\n        /* \"#utility.yul\":6885:6907   */\n      add\n        /* \"#utility.yul\":6864:6917   */\n      tag_164\n      jump\t// in\n    tag_310:\n        /* \"#utility.yul\":6854:6917   */\n      swap2\n      pop\n        /* \"#utility.yul\":6809:6927   */\n      pop\n        /* \"#utility.yul\":6460:6934   */\n      swap3\n      pop\n      swap3\n      swap1\n      pop\n      jump\t// out\n        /* \"#utility.yul\":6940:7039   */\n    tag_180:\n        /* \"#utility.yul\":6992:6998   */\n      0x00\n        /* \"#utility.yul\":7026:7031   */\n      dup2\n        /* \"#utility.yul\":7020:7032   */\n      mload\n        /* \"#utility.yul\":7010:7032   */\n      swap1\n      pop\n        /* \"#utility.yul\":6940:7039   */\n      swap2\n      swap1\n      pop\n      jump\t// out\n        /* \"#utility.yul\":7045:7214   */\n    tag_181:\n        /* \"#utility.yul\":7129:7140   */\n      0x00\n        /* \"#utility.yul\":7163:7169   */\n      dup3\n        /* \"#utility.yul\":7158:7161   */\n      dup3\n        /* \"#utility.yul\":7151:7170   */\n      mstore\n        /* \"#utility.yul\":7203:7207   */\n      0x20\n        /* \"#utility.yul\":7198:7201   */\n      dup3\n        /* \"#utility.yul\":7194:7208   */\n      add\n        /* \"#utility.yul\":7179:7208   */\n      swap1\n      pop\n        /* \"#utility.yul\":7045:7214   */\n      swap3\n      swap2\n      pop\n      pop\n      jump\t// out\n        /* \"#utility.yul\":7220:7466   */\n    tag_182:\n        /* \"#utility.yul\":7301:7302   */\n      0x00\n        /* \"#utility.yul\":7311:7424   */\n    tag_314:\n        /* \"#utility.yul\":7325:7331   */\n      dup4\n        /* \"#utility.yul\":7322:7323   */\n      dup2\n        /* \"#utility.yul\":7319:7332   */\n      lt\n        /* \"#utility.yul\":7311:7424   */\n      iszero\n      tag_316\n      jumpi\n        /* \"#utility.yul\":7410:7411   */\n      dup1\n        /* \"#utility.yul\":7405:7408   */\n      dup3\n        /* \"#utility.yul\":7401:7412   */\n      add\n        /* \"#utility.yul\":7395:7413   */\n      mload\n        /* \"#utility.yul\":7391:7392   */\n      dup2\n        /* \"#utility.yul\":7386:7389   */\n      dup5\n        /* \"#utility.yul\":7382:7393   */\n      add\n        /* \"#utility.yul\":7375:7414   */\n      mstore\n        /* \"#utility.yul\":7347:7349   */\n      0x20\n        /* \"#utility.yul\":7344:7345   */\n      dup2\n        /* \"#utility.yul\":7340:7350   */\n      add\n        /* \"#utility.yul\":7335:7350   */\n      swap1\n      pop\n        /* \"#utility.yul\":7311:7424   */\n      jump(tag_314)\n    tag_316:\n        /* \"#utility.yul\":7458:7459   */\n      0x00\n        /* \"#utility.yul\":7449:7455   */\n      dup5\n        /* \"#utility.yul\":7444:7447   */\n      dup5\n        /* \"#utility.yul\":7440:7456   */\n      add\n        /* \"#utility.yul\":7433:7460   */\n      mstore\n        /* \"#utility.yul\":7282:7466   */\n      pop\n        /* \"#utility.yul\":7220:7466   */\n      pop\n      pop\n      pop\n      jump\t// out\n        /* \"#utility.yul\":7472:7849   */\n    tag_183:\n        /* \"#utility.yul\":7560:7563   */\n      0x00\n        /* \"#utility.yul\":7588:7627   */\n      tag_318\n        /* \"#utility.yul\":7621:7626   */\n      dup3\n        /* \"#utility.yul\":7588:7627   */\n      tag_180\n      jump\t// in\n    tag_318:\n        /* \"#utility.yul\":7643:7714   */\n      tag_319\n        /* \"#utility.yul\":7707:7713   */\n      dup2\n        /* \"#utility.yul\":7702:7705   */\n      dup6\n        /* \"#utility.yul\":7643:7714   */\n      tag_181\n      jump\t// in\n    tag_319:\n        /* \"#utility.yul\":7636:7714   */\n      swap4\n      pop\n        /* \"#utility.yul\":7723:7788   */\n      tag_320\n        /* \"#utility.yul\":7781:7787   */\n      dup2\n        /* \"#utility.yul\":7776:7779   */\n      dup6\n        /* \"#utility.yul\":7769:7773   */\n      0x20\n        /* \"#utility.yul\":7762:7767   */\n      dup7\n        /* \"#utility.yul\":7758:7774   */\n      add\n        /* \"#utility.yul\":7723:7788   */\n      tag_182\n      jump\t// in\n    tag_320:\n        /* \"#utility.yul\":7813:7842   */\n      tag_321\n        /* \"#utility.yul\":7835:7841   */\n      dup2\n        /* \"#utility.yul\":7813:7842   */\n      tag_167\n      jump\t// in\n    tag_321:\n        /* \"#utility.yul\":7808:7811   */\n      dup5\n        /* \"#utility.yul\":7804:7843   */\n      add\n        /* \"#utility.yul\":7797:7843   */\n      swap2\n      pop\n        /* \"#utility.yul\":7564:7849   */\n      pop\n        /* \"#utility.yul\":7472:7849   */\n      swap3\n      swap2\n      pop\n      pop\n      jump\t// out\n        /* \"#utility.yul\":7855:8168   */\n    tag_32:\n        /* \"#utility.yul\":7968:7972   */\n      0x00\n        /* \"#utility.yul\":8006:8008   */\n      0x20\n        /* \"#utility.yul\":7995:8004   */\n      dup3\n        /* \"#utility.yul\":7991:8009   */\n      add\n        /* \"#utility.yul\":7983:8009   */\n      swap1\n      pop\n        /* \"#utility.yul\":8055:8064   */\n      dup2\n        /* \"#utility.yul\":8049:8053   */\n      dup2\n        /* \"#utility.yul\":8045:8065   */\n      sub\n        /* \"#utility.yul\":8041:8042   */\n      0x00\n        /* \"#utility.yul\":8030:8039   */\n      dup4\n        /* \"#utility.yul\":8026:8043   */\n      add\n        /* \"#utility.yul\":8019:8066   */\n      mstore\n        /* \"#utility.yul\":8083:8161   */\n      tag_323\n        /* \"#utility.yul\":8156:8160   */\n      dup2\n        /* \"#utility.yul\":8147:8153   */\n      dup5\n        /* \"#utility.yul\":8083:8161   */\n      tag_183\n      jump\t// in\n    tag_323:\n        /* \"#utility.yul\":8075:8161   */\n      swap1\n      pop\n        /* \"#utility.yul\":7855:8168   */\n      swap3\n      swap2\n      pop\n      pop\n      jump\t// out\n        /* \"#utility.yul\":8174:8300   */\n    tag_184:\n        /* \"#utility.yul\":8211:8218   */\n      0x00\n        /* \"#utility.yul\":8251:8293   */\n      0xffffffffffffffffffffffffffffffffffffffff\n        /* \"#utility.yul\":8244:8249   */\n      dup3\n        /* \"#utility.yul\":8240:8294   */\n      and\n        /* \"#utility.yul\":8229:8294   */\n      swap1\n      pop\n        /* \"#utility.yul\":8174:8300   */\n      swap2\n      swap1\n      pop\n      jump\t// out\n        /* \"#utility.yul\":8306:8402   */\n    tag_185:\n        /* \"#utility.yul\":8343:8350   */\n      0x00\n        /* \"#utility.yul\":8372:8396   */\n      tag_326\n        /* \"#utility.yul\":8390:8395   */\n      dup3\n        /* \"#utility.yul\":8372:8396   */\n      tag_184\n      jump\t// in\n    tag_326:\n        /* \"#utility.yul\":8361:8396   */\n      swap1\n      pop\n        /* \"#utility.yul\":8306:8402   */\n      swap2\n      swap1\n      pop\n      jump\t// out\n        /* \"#utility.yul\":8408:8530   */\n    tag_186:\n        /* \"#utility.yul\":8481:8505   */\n      tag_328\n        /* \"#utility.yul\":8499:8504   */\n      dup2\n        /* \"#utility.yul\":8481:8505   */\n      tag_185\n      jump\t// in\n    tag_328:\n        /* \"#utility.yul\":8474:8479   */\n      dup2\n        /* \"#utility.yul\":8471:8506   */\n      eq\n        /* \"#utility.yul\":8461:8524   */\n      tag_329\n      jumpi\n        /* \"#utility.yul\":8520:8521   */\n      0x00\n        /* \"#utility.yul\":8517:8518   */\n      dup1\n        /* \"#utility.yul\":8510:8522   */\n      revert\n        /* \"#utility.yul\":8461:8524   */\n    tag_329:\n        /* \"#utility.yul\":8408:8530   */\n      pop\n      jump\t// out\n        /* \"#utility.yul\":8536:8675   */\n    tag_187:\n        /* \"#utility.yul\":8582:8587   */\n      0x00\n        /* \"#utility.yul\":8620:8626   */\n      dup2\n        /* \"#utility.yul\":8607:8627   */\n      calldataload\n        /* \"#utility.yul\":8598:8627   */\n      swap1\n      pop\n        /* \"#utility.yul\":8636:8669   */\n      tag_331\n        /* \"#utility.yul\":8663:8668   */\n      dup2\n        /* \"#utility.yul\":8636:8669   */\n      tag_186\n      jump\t// in\n    tag_331:\n        /* \"#utility.yul\":8536:8675   */\n      swap3\n      swap2\n      pop\n      pop\n      jump\t// out\n        /* \"#utility.yul\":8681:9010   */\n    tag_35:\n        /* \"#utility.yul\":8740:8746   */\n      0x00\n        /* \"#utility.yul\":8789:8791   */\n      0x20\n        /* \"#utility.yul\":8777:8786   */\n      dup3\n        /* \"#utility.yul\":8768:8775   */\n      dup5\n        /* \"#utility.yul\":8764:8787   */\n      sub\n        /* \"#utility.yul\":8760:8792   */\n      slt\n        /* \"#utility.yul\":8757:8876   */\n      iszero\n      tag_333\n      jumpi\n        /* \"#utility.yul\":8795:8874   */\n      tag_334\n      tag_160\n      jump\t// in\n    tag_334:\n        /* \"#utility.yul\":8757:8876   */\n    tag_333:\n        /* \"#utility.yul\":8915:8916   */\n      0x00\n        /* \"#utility.yul\":8940:8993   */\n      tag_335\n        /* \"#utility.yul\":8985:8992   */\n      dup5\n        /* \"#utility.yul\":8976:8982   */\n      dup3\n        /* \"#utility.yul\":8965:8974   */\n      dup6\n        /* \"#utility.yul\":8961:8983   */\n      add\n        /* \"#utility.yul\":8940:8993   */\n      tag_187\n      jump\t// in\n    tag_335:\n        /* \"#utility.yul\":8930:8993   */\n      swap2\n      pop\n        /* \"#utility.yul\":8886:9003   */\n      pop\n        /* \"#utility.yul\":8681:9010   */\n      swap3\n      swap2\n      pop\n      pop\n      jump\t// out\n        /* \"#utility.yul\":9016:9165   */\n    tag_188:\n        /* \"#utility.yul\":9118:9124   */\n      0x00\n        /* \"#utility.yul\":9152:9157   */\n      dup2\n        /* \"#utility.yul\":9146:9158   */\n      mload\n        /* \"#utility.yul\":9136:9158   */\n      swap1\n      pop\n        /* \"#utility.yul\":9016:9165   */\n      swap2\n      swap1\n      pop\n      jump\t// out\n        /* \"#utility.yul\":9171:9390   */\n    tag_189:\n        /* \"#utility.yul\":9305:9316   */\n      0x00\n        /* \"#utility.yul\":9339:9345   */\n      dup3\n        /* \"#utility.yul\":9334:9337   */\n      dup3\n        /* \"#utility.yul\":9327:9346   */\n      mstore\n        /* \"#utility.yul\":9379:9383   */\n      0x20\n        /* \"#utility.yul\":9374:9377   */\n      dup3\n        /* \"#utility.yul\":9370:9384   */\n      add\n        /* \"#utility.yul\":9355:9384   */\n      swap1\n      pop\n        /* \"#utility.yul\":9171:9390   */\n      swap3\n      swap2\n      pop\n      pop\n      jump\t// out\n        /* \"#utility.yul\":9396:9563   */\n    tag_190:\n        /* \"#utility.yul\":9498:9502   */\n      0x00\n        /* \"#utility.yul\":9521:9524   */\n      dup2\n        /* \"#utility.yul\":9513:9524   */\n      swap1\n      pop\n        /* \"#utility.yul\":9551:9555   */\n      0x20\n        /* \"#utility.yul\":9546:9549   */\n      dup3\n        /* \"#utility.yul\":9542:9556   */\n      add\n        /* \"#utility.yul\":9534:9556   */\n      swap1\n      pop\n        /* \"#utility.yul\":9396:9563   */\n      swap2\n      swap1\n      pop\n      jump\t// out\n        /* \"#utility.yul\":9569:9693   */\n    tag_191:\n        /* \"#utility.yul\":9646:9652   */\n      0x00\n        /* \"#utility.yul\":9680:9685   */\n      dup2\n        /* \"#utility.yul\":9674:9686   */\n      mload\n        /* \"#utility.yul\":9664:9686   */\n      swap1\n      pop\n        /* \"#utility.yul\":9569:9693   */\n      swap2\n      swap1\n      pop\n      jump\t// out\n        /* \"#utility.yul\":9699:9883   */\n    tag_192:\n        /* \"#utility.yul\":9798:9809   */\n      0x00\n        /* \"#utility.yul\":9832:9838   */\n      dup3\n        /* \"#utility.yul\":9827:9830   */\n      dup3\n        /* \"#utility.yul\":9820:9839   */\n      mstore\n        /* \"#utility.yul\":9872:9876   */\n      0x20\n        /* \"#utility.yul\":9867:9870   */\n      dup3\n        /* \"#utility.yul\":9863:9877   */\n      add\n        /* \"#utility.yul\":9848:9877   */\n      swap1\n      pop\n        /* \"#utility.yul\":9699:9883   */\n      swap3\n      swap2\n      pop\n      pop\n      jump\t// out\n        /* \"#utility.yul\":9889:10031   */\n    tag_193:\n        /* \"#utility.yul\":9966:9970   */\n      0x00\n        /* \"#utility.yul\":9989:9992   */\n      dup2\n        /* \"#utility.yul\":9981:9992   */\n      swap1\n      pop\n        /* \"#utility.yul\":10019:10023   */\n      0x20\n        /* \"#utility.yul\":10014:10017   */\n      dup3\n        /* \"#utility.yul\":10010:10024   */\n      add\n        /* \"#utility.yul\":10002:10024   */\n      swap1\n      pop\n        /* \"#utility.yul\":9889:10031   */\n      swap2\n      swap1\n      pop\n      jump\t// out\n        /* \"#utility.yul\":10037:10196   */\n    tag_194:\n        /* \"#utility.yul\":10111:10122   */\n      0x00\n        /* \"#utility.yul\":10145:10151   */\n      dup3\n        /* \"#utility.yul\":10140:10143   */\n      dup3\n        /* \"#utility.yul\":10133:10152   */\n      mstore\n        /* \"#utility.yul\":10185:10189   */\n      0x20\n        /* \"#utility.yul\":10180:10183   */\n      dup3\n        /* \"#utility.yul\":10176:10190   */\n      add\n        /* \"#utility.yul\":10161:10190   */\n      swap1\n      pop\n        /* \"#utility.yul\":10037:10196   */\n      swap3\n      swap2\n      pop\n      pop\n      jump\t// out\n        /* \"#utility.yul\":10202:10559   */\n    tag_195:\n        /* \"#utility.yul\":10280:10283   */\n      0x00\n        /* \"#utility.yul\":10308:10347   */\n      tag_344\n        /* \"#utility.yul\":10341:10346   */\n      dup3\n        /* \"#utility.yul\":10308:10347   */\n      tag_180\n      jump\t// in\n    tag_344:\n        /* \"#utility.yul\":10363:10424   */\n      tag_345\n        /* \"#utility.yul\":10417:10423   */\n      dup2\n        /* \"#utility.yul\":10412:10415   */\n      dup6\n        /* \"#utility.yul\":10363:10424   */\n      tag_194\n      jump\t// in\n    tag_345:\n        /* \"#utility.yul\":10356:10424   */\n      swap4\n      pop\n        /* \"#utility.yul\":10433:10498   */\n      tag_346\n        /* \"#utility.yul\":10491:10497   */\n      dup2\n        /* \"#utility.yul\":10486:10489   */\n      dup6\n        /* \"#utility.yul\":10479:10483   */\n      0x20\n        /* \"#utility.yul\":10472:10477   */\n      dup7\n        /* \"#utility.yul\":10468:10484   */\n      add\n        /* \"#utility.yul\":10433:10498   */\n      tag_182\n      jump\t// in\n    tag_346:\n        /* \"#utility.yul\":10523:10552   */\n      tag_347\n        /* \"#utility.yul\":10545:10551   */\n      dup2\n        /* \"#utility.yul\":10523:10552   */\n      tag_167\n      jump\t// in\n    tag_347:\n        /* \"#utility.yul\":10518:10521   */\n      dup5\n        /* \"#utility.yul\":10514:10553   */\n      add\n        /* \"#utility.yul\":10507:10553   */\n      swap2\n      pop\n        /* \"#utility.yul\":10284:10559   */\n      pop\n        /* \"#utility.yul\":10202:10559   */\n      swap3\n      swap2\n      pop\n      pop\n      jump\t// out\n        /* \"#utility.yul\":10565:10761   */\n    tag_196:\n        /* \"#utility.yul\":10654:10664   */\n      0x00\n        /* \"#utility.yul\":10689:10755   */\n      tag_349\n        /* \"#utility.yul\":10751:10754   */\n      dup4\n        /* \"#utility.yul\":10743:10749   */\n      dup4\n        /* \"#utility.yul\":10689:10755   */\n      tag_195\n      jump\t// in\n    tag_349:\n        /* \"#utility.yul\":10675:10755   */\n      swap1\n      pop\n        /* \"#utility.yul\":10565:10761   */\n      swap3\n      swap2\n      pop\n      pop\n      jump\t// out\n        /* \"#utility.yul\":10767:10890   */\n    tag_197:\n        /* \"#utility.yul\":10847:10851   */\n      0x00\n        /* \"#utility.yul\":10879:10883   */\n      0x20\n        /* \"#utility.yul\":10874:10877   */\n      dup3\n        /* \"#utility.yul\":10870:10884   */\n      add\n        /* \"#utility.yul\":10862:10884   */\n      swap1\n      pop\n        /* \"#utility.yul\":10767:10890   */\n      swap2\n      swap1\n      pop\n      jump\t// out\n        /* \"#utility.yul\":10924:11895   */\n    tag_198:\n        /* \"#utility.yul\":11053:11056   */\n      0x00\n        /* \"#utility.yul\":11082:11146   */\n      tag_352\n        /* \"#utility.yul\":11140:11145   */\n      dup3\n        /* \"#utility.yul\":11082:11146   */\n      tag_191\n      jump\t// in\n    tag_352:\n        /* \"#utility.yul\":11162:11248   */\n      tag_353\n        /* \"#utility.yul\":11241:11247   */\n      dup2\n        /* \"#utility.yul\":11236:11239   */\n      dup6\n        /* \"#utility.yul\":11162:11248   */\n      tag_192\n      jump\t// in\n    tag_353:\n        /* \"#utility.yul\":11155:11248   */\n      swap4\n      pop\n        /* \"#utility.yul\":11274:11277   */\n      dup4\n        /* \"#utility.yul\":11319:11323   */\n      0x20\n        /* \"#utility.yul\":11311:11317   */\n      dup3\n        /* \"#utility.yul\":11307:11324   */\n      mul\n        /* \"#utility.yul\":11302:11305   */\n      dup6\n        /* \"#utility.yul\":11298:11325   */\n      add\n        /* \"#utility.yul\":11349:11415   */\n      tag_354\n        /* \"#utility.yul\":11409:11414   */\n      dup6\n        /* \"#utility.yul\":11349:11415   */\n      tag_193\n      jump\t// in\n    tag_354:\n        /* \"#utility.yul\":11438:11445   */\n      dup1\n        /* \"#utility.yul\":11469:11470   */\n      0x00\n        /* \"#utility.yul\":11454:11850   */\n    tag_355:\n        /* \"#utility.yul\":11479:11485   */\n      dup6\n        /* \"#utility.yul\":11476:11477   */\n      dup2\n        /* \"#utility.yul\":11473:11486   */\n      lt\n        /* \"#utility.yul\":11454:11850   */\n      iszero\n      tag_357\n      jumpi\n        /* \"#utility.yul\":11550:11559   */\n      dup5\n        /* \"#utility.yul\":11544:11548   */\n      dup5\n        /* \"#utility.yul\":11540:11560   */\n      sub\n        /* \"#utility.yul\":11535:11538   */\n      dup10\n        /* \"#utility.yul\":11528:11561   */\n      mstore\n        /* \"#utility.yul\":11601:11607   */\n      dup2\n        /* \"#utility.yul\":11595:11608   */\n      mload\n        /* \"#utility.yul\":11629:11713   */\n      tag_358\n        /* \"#utility.yul\":11708:11712   */\n      dup6\n        /* \"#utility.yul\":11693:11706   */\n      dup3\n        /* \"#utility.yul\":11629:11713   */\n      tag_196\n      jump\t// in\n    tag_358:\n        /* \"#utility.yul\":11621:11713   */\n      swap5\n      pop\n        /* \"#utility.yul\":11736:11806   */\n      tag_359\n        /* \"#utility.yul\":11799:11805   */\n      dup4\n        /* \"#utility.yul\":11736:11806   */\n      tag_197\n      jump\t// in\n    tag_359:\n        /* \"#utility.yul\":11726:11806   */\n      swap3\n      pop\n        /* \"#utility.yul\":11835:11839   */\n      0x20\n        /* \"#utility.yul\":11830:11833   */\n      dup11\n        /* \"#utility.yul\":11826:11840   */\n      add\n        /* \"#utility.yul\":11819:11840   */\n      swap10\n      pop\n        /* \"#utility.yul\":11514:11850   */\n      pop\n        /* \"#utility.yul\":11501:11502   */\n      0x01\n        /* \"#utility.yul\":11498:11499   */\n      dup2\n        /* \"#utility.yul\":11494:11503   */\n      add\n        /* \"#utility.yul\":11489:11503   */\n      swap1\n      pop\n        /* \"#utility.yul\":11454:11850   */\n      jump(tag_355)\n    tag_357:\n        /* \"#utility.yul\":11458:11472   */\n      pop\n        /* \"#utility.yul\":11866:11870   */\n      dup3\n        /* \"#utility.yul\":11859:11870   */\n      swap8\n      pop\n        /* \"#utility.yul\":11886:11889   */\n      dup8\n        /* \"#utility.yul\":11879:11889   */\n      swap6\n      pop\n        /* \"#utility.yul\":11058:11895   */\n      pop\n      pop\n      pop\n      pop\n      pop\n        /* \"#utility.yul\":10924:11895   */\n      swap3\n      swap2\n      pop\n      pop\n      jump\t// out\n        /* \"#utility.yul\":11901:12197   */\n    tag_199:\n        /* \"#utility.yul\":12040:12050   */\n      0x00\n        /* \"#utility.yul\":12075:12191   */\n      tag_361\n        /* \"#utility.yul\":12187:12190   */\n      dup4\n        /* \"#utility.yul\":12179:12185   */\n      dup4\n        /* \"#utility.yul\":12075:12191   */\n      tag_198\n      jump\t// in\n    tag_361:\n        /* \"#utility.yul\":12061:12191   */\n      swap1\n      pop\n        /* \"#utility.yul\":11901:12197   */\n      swap3\n      swap2\n      pop\n      pop\n      jump\t// out\n        /* \"#utility.yul\":12203:12351   */\n    tag_200:\n        /* \"#utility.yul\":12308:12312   */\n      0x00\n        /* \"#utility.yul\":12340:12344   */\n      0x20\n        /* \"#utility.yul\":12335:12338   */\n      dup3\n        /* \"#utility.yul\":12331:12345   */\n      add\n        /* \"#utility.yul\":12323:12345   */\n      swap1\n      pop\n        /* \"#utility.yul\":12203:12351   */\n      swap2\n      swap1\n      pop\n      jump\t// out\n        /* \"#utility.yul\":12389:13580   */\n    tag_201:\n        /* \"#utility.yul\":12578:12581   */\n      0x00\n        /* \"#utility.yul\":12607:12696   */\n      tag_364\n        /* \"#utility.yul\":12690:12695   */\n      dup3\n        /* \"#utility.yul\":12607:12696   */\n      tag_188\n      jump\t// in\n    tag_364:\n        /* \"#utility.yul\":12712:12833   */\n      tag_365\n        /* \"#utility.yul\":12826:12832   */\n      dup2\n        /* \"#utility.yul\":12821:12824   */\n      dup6\n        /* \"#utility.yul\":12712:12833   */\n      tag_189\n      jump\t// in\n    tag_365:\n        /* \"#utility.yul\":12705:12833   */\n      swap4\n      pop\n        /* \"#utility.yul\":12859:12862   */\n      dup4\n        /* \"#utility.yul\":12904:12908   */\n      0x20\n        /* \"#utility.yul\":12896:12902   */\n      dup3\n        /* \"#utility.yul\":12892:12909   */\n      mul\n        /* \"#utility.yul\":12887:12890   */\n      dup6\n        /* \"#utility.yul\":12883:12910   */\n      add\n        /* \"#utility.yul\":12934:13025   */\n      tag_366\n        /* \"#utility.yul\":13019:13024   */\n      dup6\n        /* \"#utility.yul\":12934:13025   */\n      tag_190\n      jump\t// in\n    tag_366:\n        /* \"#utility.yul\":13048:13055   */\n      dup1\n        /* \"#utility.yul\":13079:13080   */\n      0x00\n        /* \"#utility.yul\":13064:13535   */\n    tag_367:\n        /* \"#utility.yul\":13089:13095   */\n      dup6\n        /* \"#utility.yul\":13086:13087   */\n      dup2\n        /* \"#utility.yul\":13083:13096   */\n      lt\n        /* \"#utility.yul\":13064:13535   */\n      iszero\n      tag_369\n      jumpi\n        /* \"#utility.yul\":13160:13169   */\n      dup5\n        /* \"#utility.yul\":13154:13158   */\n      dup5\n        /* \"#utility.yul\":13150:13170   */\n      sub\n        /* \"#utility.yul\":13145:13148   */\n      dup10\n        /* \"#utility.yul\":13138:13171   */\n      mstore\n        /* \"#utility.yul\":13211:13217   */\n      dup2\n        /* \"#utility.yul\":13205:13218   */\n      mload\n        /* \"#utility.yul\":13239:13373   */\n      tag_370\n        /* \"#utility.yul\":13368:13372   */\n      dup6\n        /* \"#utility.yul\":13353:13366   */\n      dup3\n        /* \"#utility.yul\":13239:13373   */\n      tag_199\n      jump\t// in\n    tag_370:\n        /* \"#utility.yul\":13231:13373   */\n      swap5\n      pop\n        /* \"#utility.yul\":13396:13491   */\n      tag_371\n        /* \"#utility.yul\":13484:13490   */\n      dup4\n        /* \"#utility.yul\":13396:13491   */\n      tag_200\n      jump\t// in\n    tag_371:\n        /* \"#utility.yul\":13386:13491   */\n      swap3\n      pop\n        /* \"#utility.yul\":13520:13524   */\n      0x20\n        /* \"#utility.yul\":13515:13518   */\n      dup11\n        /* \"#utility.yul\":13511:13525   */\n      add\n        /* \"#utility.yul\":13504:13525   */\n      swap10\n      pop\n        /* \"#utility.yul\":13124:13535   */\n      pop\n        /* \"#utility.yul\":13111:13112   */\n      0x01\n        /* \"#utility.yul\":13108:13109   */\n      dup2\n        /* \"#utility.yul\":13104:13113   */\n      add\n        /* \"#utility.yul\":13099:13113   */\n      swap1\n      pop\n        /* \"#utility.yul\":13064:13535   */\n      jump(tag_367)\n    tag_369:\n        /* \"#utility.yul\":13068:13082   */\n      pop\n        /* \"#utility.yul\":13551:13555   */\n      dup3\n        /* \"#utility.yul\":13544:13555   */\n      swap8\n      pop\n        /* \"#utility.yul\":13571:13574   */\n      dup8\n        /* \"#utility.yul\":13564:13574   */\n      swap6\n      pop\n        /* \"#utility.yul\":12583:13580   */\n      pop\n      pop\n      pop\n      pop\n      pop\n        /* \"#utility.yul\":12389:13580   */\n      swap3\n      swap2\n      pop\n      pop\n      jump\t// out\n        /* \"#utility.yul\":13586:14099   */\n    tag_38:\n        /* \"#utility.yul\":13799:13803   */\n      0x00\n        /* \"#utility.yul\":13837:13839   */\n      0x20\n        /* \"#utility.yul\":13826:13835   */\n      dup3\n        /* \"#utility.yul\":13822:13840   */\n      add\n        /* \"#utility.yul\":13814:13840   */\n      swap1\n      pop\n        /* \"#utility.yul\":13886:13895   */\n      dup2\n        /* \"#utility.yul\":13880:13884   */\n      dup2\n        /* \"#utility.yul\":13876:13896   */\n      sub\n        /* \"#utility.yul\":13872:13873   */\n      0x00\n        /* \"#utility.yul\":13861:13870   */\n      dup4\n        /* \"#utility.yul\":13857:13874   */\n      add\n        /* \"#utility.yul\":13850:13897   */\n      mstore\n        /* \"#utility.yul\":13914:14092   */\n      tag_373\n        /* \"#utility.yul\":14087:14091   */\n      dup2\n        /* \"#utility.yul\":14078:14084   */\n      dup5\n        /* \"#utility.yul\":13914:14092   */\n      tag_201\n      jump\t// in\n    tag_373:\n        /* \"#utility.yul\":13906:14092   */\n      swap1\n      pop\n        /* \"#utility.yul\":13586:14099   */\n      swap3\n      swap2\n      pop\n      pop\n      jump\t// out\n        /* \"#utility.yul\":14105:14165   */\n    tag_202:\n        /* \"#utility.yul\":14133:14136   */\n      0x00\n        /* \"#utility.yul\":14154:14159   */\n      dup2\n        /* \"#utility.yul\":14147:14159   */\n      swap1\n      pop\n        /* \"#utility.yul\":14105:14165   */\n      swap2\n      swap1\n      pop\n      jump\t// out\n        /* \"#utility.yul\":14171:14313   */\n    tag_203:\n        /* \"#utility.yul\":14221:14230   */\n      0x00\n        /* \"#utility.yul\":14254:14307   */\n      tag_376\n        /* \"#utility.yul\":14272:14306   */\n      tag_377\n        /* \"#utility.yul\":14281:14305   */\n      tag_378\n        /* \"#utility.yul\":14299:14304   */\n      dup5\n        /* \"#utility.yul\":14281:14305   */\n      tag_184\n      jump\t// in\n    tag_378:\n        /* \"#utility.yul\":14272:14306   */\n      tag_202\n      jump\t// in\n    tag_377:\n        /* \"#utility.yul\":14254:14307   */\n      tag_184\n      jump\t// in\n    tag_376:\n        /* \"#utility.yul\":14241:14307   */\n      swap1\n      pop\n        /* \"#utility.yul\":14171:14313   */\n      swap2\n      swap1\n      pop\n      jump\t// out\n        /* \"#utility.yul\":14319:14445   */\n    tag_204:\n        /* \"#utility.yul\":14369:14378   */\n      0x00\n        /* \"#utility.yul\":14402:14439   */\n      tag_380\n        /* \"#utility.yul\":14433:14438   */\n      dup3\n        /* \"#utility.yul\":14402:14439   */\n      tag_203\n      jump\t// in\n    tag_380:\n        /* \"#utility.yul\":14389:14439   */\n      swap1\n      pop\n        /* \"#utility.yul\":14319:14445   */\n      swap2\n      swap1\n      pop\n      jump\t// out\n        /* \"#utility.yul\":14451:14591   */\n    tag_205:\n        /* \"#utility.yul\":14515:14524   */\n      0x00\n        /* \"#utility.yul\":14548:14585   */\n      tag_382\n        /* \"#utility.yul\":14579:14584   */\n      dup3\n        /* \"#utility.yul\":14548:14585   */\n      tag_204\n      jump\t// in\n    tag_382:\n        /* \"#utility.yul\":14535:14585   */\n      swap1\n      pop\n        /* \"#utility.yul\":14451:14591   */\n      swap2\n      swap1\n      pop\n      jump\t// out\n        /* \"#utility.yul\":14597:14756   */\n    tag_206:\n        /* \"#utility.yul\":14698:14749   */\n      tag_384\n        /* \"#utility.yul\":14743:14748   */\n      dup2\n        /* \"#utility.yul\":14698:14749   */\n      tag_205\n      jump\t// in\n    tag_384:\n        /* \"#utility.yul\":14693:14696   */\n      dup3\n        /* \"#utility.yul\":14686:14750   */\n      mstore\n        /* \"#utility.yul\":14597:14756   */\n      pop\n      pop\n      jump\t// out\n        /* \"#utility.yul\":14762:15012   */\n    tag_42:\n        /* \"#utility.yul\":14869:14873   */\n      0x00\n        /* \"#utility.yul\":14907:14909   */\n      0x20\n        /* \"#utility.yul\":14896:14905   */\n      dup3\n        /* \"#utility.yul\":14892:14910   */\n      add\n        /* \"#utility.yul\":14884:14910   */\n      swap1\n      pop\n        /* \"#utility.yul\":14920:15005   */\n      tag_386\n        /* \"#utility.yul\":15002:15003   */\n      0x00\n        /* \"#utility.yul\":14991:15000   */\n      dup4\n        /* \"#utility.yul\":14987:15004   */\n      add\n        /* \"#utility.yul\":14978:14984   */\n      dup5\n        /* \"#utility.yul\":14920:15005   */\n      tag_206\n      jump\t// in\n    tag_386:\n        /* \"#utility.yul\":14762:15012   */\n      swap3\n      swap2\n      pop\n      pop\n      jump\t// out\n        /* \"#utility.yul\":15018:15347   */\n    tag_45:\n        /* \"#utility.yul\":15077:15083   */\n      0x00\n        /* \"#utility.yul\":15126:15128   */\n      0x20\n        /* \"#utility.yul\":15114:15123   */\n      dup3\n        /* \"#utility.yul\":15105:15112   */\n      dup5\n        /* \"#utility.yul\":15101:15124   */\n      sub\n        /* \"#utility.yul\":15097:15129   */\n      slt\n        /* \"#utility.yul\":15094:15213   */\n      iszero\n      tag_388\n      jumpi\n        /* \"#utility.yul\":15132:15211   */\n      tag_389\n      tag_160\n      jump\t// in\n    tag_389:\n        /* \"#utility.yul\":15094:15213   */\n    tag_388:\n        /* \"#utility.yul\":15252:15253   */\n      0x00\n        /* \"#utility.yul\":15277:15330   */\n      tag_390\n        /* \"#utility.yul\":15322:15329   */\n      dup5\n        /* \"#utility.yul\":15313:15319   */\n      dup3\n        /* \"#utility.yul\":15302:15311   */\n      dup6\n        /* \"#utility.yul\":15298:15320   */\n      add\n        /* \"#utility.yul\":15277:15330   */\n      tag_164\n      jump\t// in\n    tag_390:\n        /* \"#utility.yul\":15267:15330   */\n      swap2\n      pop\n        /* \"#utility.yul\":15223:15340   */\n      pop\n        /* \"#utility.yul\":15018:15347   */\n      swap3\n      swap2\n      pop\n      pop\n      jump\t// out\n        /* \"#utility.yul\":15353:15471   */\n    tag_207:\n        /* \"#utility.yul\":15440:15464   */\n      tag_392\n        /* \"#utility.yul\":15458:15463   */\n      dup2\n        /* \"#utility.yul\":15440:15464   */\n      tag_185\n      jump\t// in\n    tag_392:\n        /* \"#utility.yul\":15435:15438   */\n      dup3\n        /* \"#utility.yul\":15428:15465   */\n      mstore\n        /* \"#utility.yul\":15353:15471   */\n      pop\n      pop\n      jump\t// out\n        /* \"#utility.yul\":15477:15699   */\n    tag_48:\n        /* \"#utility.yul\":15570:15574   */\n      0x00\n        /* \"#utility.yul\":15608:15610   */\n      0x20\n        /* \"#utility.yul\":15597:15606   */\n      dup3\n        /* \"#utility.yul\":15593:15611   */\n      add\n        /* \"#utility.yul\":15585:15611   */\n      swap1\n      pop\n        /* \"#utility.yul\":15621:15692   */\n      tag_394\n        /* \"#utility.yul\":15689:15690   */\n      0x00\n        /* \"#utility.yul\":15678:15687   */\n      dup4\n        /* \"#utility.yul\":15674:15691   */\n      add\n        /* \"#utility.yul\":15665:15671   */\n      dup5\n        /* \"#utility.yul\":15621:15692   */\n      tag_207\n      jump\t// in\n    tag_394:\n        /* \"#utility.yul\":15477:15699   */\n      swap3\n      swap2\n      pop\n      pop\n      jump\t// out\n        /* \"#utility.yul\":15705:15843   */\n    tag_208:\n        /* \"#utility.yul\":15767:15776   */\n      0x00\n        /* \"#utility.yul\":15800:15837   */\n      tag_396\n        /* \"#utility.yul\":15831:15836   */\n      dup3\n        /* \"#utility.yul\":15800:15837   */\n      tag_204\n      jump\t// in\n    tag_396:\n        /* \"#utility.yul\":15787:15837   */\n      swap1\n      pop\n        /* \"#utility.yul\":15705:15843   */\n      swap2\n      swap1\n      pop\n      jump\t// out\n        /* \"#utility.yul\":15849:16004   */\n    tag_209:\n        /* \"#utility.yul\":15948:15997   */\n      tag_398\n        /* \"#utility.yul\":15991:15996   */\n      dup2\n        /* \"#utility.yul\":15948:15997   */\n      tag_208\n      jump\t// in\n    tag_398:\n        /* \"#utility.yul\":15943:15946   */\n      dup3\n        /* \"#utility.yul\":15936:15998   */\n      mstore\n        /* \"#utility.yul\":15849:16004   */\n      pop\n      pop\n      jump\t// out\n        /* \"#utility.yul\":16010:16256   */\n    tag_55:\n        /* \"#utility.yul\":16115:16119   */\n      0x00\n        /* \"#utility.yul\":16153:16155   */\n      0x20\n        /* \"#utility.yul\":16142:16151   */\n      dup3\n        /* \"#utility.yul\":16138:16156   */\n      add\n        /* \"#utility.yul\":16130:16156   */\n      swap1\n      pop\n        /* \"#utility.yul\":16166:16249   */\n      tag_400\n        /* \"#utility.yul\":16246:16247   */\n      0x00\n        /* \"#utility.yul\":16235:16244   */\n      dup4\n        /* \"#utility.yul\":16231:16248   */\n      add\n        /* \"#utility.yul\":16222:16228   */\n      dup5\n        /* \"#utility.yul\":16166:16249   */\n      tag_209\n      jump\t// in\n    tag_400:\n        /* \"#utility.yul\":16010:16256   */\n      swap3\n      swap2\n      pop\n      pop\n      jump\t// out\n        /* \"#utility.yul\":16262:16436   */\n    tag_210:\n        /* \"#utility.yul\":16402:16428   */\n      0x4c69737420696e646578206f7574206f6620626f756e64730000000000000000\n        /* \"#utility.yul\":16398:16399   */\n      0x00\n        /* \"#utility.yul\":16390:16396   */\n      dup3\n        /* \"#utility.yul\":16386:16400   */\n      add\n        /* \"#utility.yul\":16379:16429   */\n      mstore\n        /* \"#utility.yul\":16262:16436   */\n      pop\n      jump\t// out\n        /* \"#utility.yul\":16442:16808   */\n    tag_211:\n        /* \"#utility.yul\":16584:16587   */\n      0x00\n        /* \"#utility.yul\":16605:16672   */\n      tag_403\n        /* \"#utility.yul\":16669:16671   */\n      0x18\n        /* \"#utility.yul\":16664:16667   */\n      dup4\n        /* \"#utility.yul\":16605:16672   */\n      tag_181\n      jump\t// in\n    tag_403:\n        /* \"#utility.yul\":16598:16672   */\n      swap2\n      pop\n        /* \"#utility.yul\":16681:16774   */\n      tag_404\n        /* \"#utility.yul\":16770:16773   */\n      dup3\n        /* \"#utility.yul\":16681:16774   */\n      tag_210\n      jump\t// in\n    tag_404:\n        /* \"#utility.yul\":16799:16801   */\n      0x20\n        /* \"#utility.yul\":16794:16797   */\n      dup3\n        /* \"#utility.yul\":16790:16802   */\n      add\n        /* \"#utility.yul\":16783:16802   */\n      swap1\n      pop\n        /* \"#utility.yul\":16442:16808   */\n      swap2\n      swap1\n      pop\n      jump\t// out\n        /* \"#utility.yul\":16814:17233   */\n    tag_63:\n        /* \"#utility.yul\":16980:16984   */\n      0x00\n        /* \"#utility.yul\":17018:17020   */\n      0x20\n        /* \"#utility.yul\":17007:17016   */\n      dup3\n        /* \"#utility.yul\":17003:17021   */\n      add\n        /* \"#utility.yul\":16995:17021   */\n      swap1\n      pop\n        /* \"#utility.yul\":17067:17076   */\n      dup2\n        /* \"#utility.yul\":17061:17065   */\n      dup2\n        /* \"#utility.yul\":17057:17077   */\n      sub\n        /* \"#utility.yul\":17053:17054   */\n      0x00\n        /* \"#utility.yul\":17042:17051   */\n      dup4\n        /* \"#utility.yul\":17038:17055   */\n      add\n        /* \"#utility.yul\":17031:17078   */\n      mstore\n        /* \"#utility.yul\":17095:17226   */\n      tag_406\n        /* \"#utility.yul\":17221:17225   */\n      dup2\n        /* \"#utility.yul\":17095:17226   */\n      tag_211\n      jump\t// in\n    tag_406:\n        /* \"#utility.yul\":17087:17226   */\n      swap1\n      pop\n        /* \"#utility.yul\":16814:17233   */\n      swap2\n      swap1\n      pop\n      jump\t// out\n        /* \"#utility.yul\":17239:17419   */\n    tag_66:\n        /* \"#utility.yul\":17287:17364   */\n      0x4e487b7100000000000000000000000000000000000000000000000000000000\n        /* \"#utility.yul\":17284:17285   */\n      0x00\n        /* \"#utility.yul\":17277:17365   */\n      mstore\n        /* \"#utility.yul\":17384:17388   */\n      0x32\n        /* \"#utility.yul\":17381:17382   */\n      0x04\n        /* \"#utility.yul\":17374:17389   */\n      mstore\n        /* \"#utility.yul\":17408:17412   */\n      0x24\n        /* \"#utility.yul\":17405:17406   */\n      0x00\n        /* \"#utility.yul\":17398:17413   */\n      revert\n        /* \"#utility.yul\":17425:17599   */\n    tag_212:\n        /* \"#utility.yul\":17565:17591   */\n      0x496e666f20696e646578206f7574206f6620626f756e64730000000000000000\n        /* \"#utility.yul\":17561:17562   */\n      0x00\n        /* \"#utility.yul\":17553:17559   */\n      dup3\n        /* \"#utility.yul\":17549:17563   */\n      add\n        /* \"#utility.yul\":17542:17592   */\n      mstore\n        /* \"#utility.yul\":17425:17599   */\n      pop\n      jump\t// out\n        /* \"#utility.yul\":17605:17971   */\n    tag_213:\n        /* \"#utility.yul\":17747:17750   */\n      0x00\n        /* \"#utility.yul\":17768:17835   */\n      tag_410\n        /* \"#utility.yul\":17832:17834   */\n      0x18\n        /* \"#utility.yul\":17827:17830   */\n      dup4\n        /* \"#utility.yul\":17768:17835   */\n      tag_181\n      jump\t// in\n    tag_410:\n        /* \"#utility.yul\":17761:17835   */\n      swap2\n      pop\n        /* \"#utility.yul\":17844:17937   */\n      tag_411\n        /* \"#utility.yul\":17933:17936   */\n      dup3\n        /* \"#utility.yul\":17844:17937   */\n      tag_212\n      jump\t// in\n    tag_411:\n        /* \"#utility.yul\":17962:17964   */\n      0x20\n        /* \"#utility.yul\":17957:17960   */\n      dup3\n        /* \"#utility.yul\":17953:17965   */\n      add\n        /* \"#utility.yul\":17946:17965   */\n      swap1\n      pop\n        /* \"#utility.yul\":17605:17971   */\n      swap2\n      swap1\n      pop\n      jump\t// out\n        /* \"#utility.yul\":17977:18396   */\n    tag_70:\n        /* \"#utility.yul\":18143:18147   */\n      0x00\n        /* \"#utility.yul\":18181:18183   */\n      0x20\n        /* \"#utility.yul\":18170:18179   */\n      dup3\n        /* \"#utility.yul\":18166:18184   */\n      add\n        /* \"#utility.yul\":18158:18184   */\n      swap1\n      pop\n        /* \"#utility.yul\":18230:18239   */\n      dup2\n        /* \"#utility.yul\":18224:18228   */\n      dup2\n        /* \"#utility.yul\":18220:18240   */\n      sub\n        /* \"#utility.yul\":18216:18217   */\n      0x00\n        /* \"#utility.yul\":18205:18214   */\n      dup4\n        /* \"#utility.yul\":18201:18218   */\n      add\n        /* \"#utility.yul\":18194:18241   */\n      mstore\n        /* \"#utility.yul\":18258:18389   */\n      tag_413\n        /* \"#utility.yul\":18384:18388   */\n      dup2\n        /* \"#utility.yul\":18258:18389   */\n      tag_213\n      jump\t// in\n    tag_413:\n        /* \"#utility.yul\":18250:18389   */\n      swap1\n      pop\n        /* \"#utility.yul\":17977:18396   */\n      swap2\n      swap1\n      pop\n      jump\t// out\n        /* \"#utility.yul\":18402:18582   */\n    tag_214:\n        /* \"#utility.yul\":18450:18527   */\n      0x4e487b7100000000000000000000000000000000000000000000000000000000\n        /* \"#utility.yul\":18447:18448   */\n      0x00\n        /* \"#utility.yul\":18440:18528   */\n      mstore\n        /* \"#utility.yul\":18547:18551   */\n      0x22\n        /* \"#utility.yul\":18544:18545   */\n      0x04\n        /* \"#utility.yul\":18537:18552   */\n      mstore\n        /* \"#utility.yul\":18571:18575   */\n      0x24\n        /* \"#utility.yul\":18568:18569   */\n      0x00\n        /* \"#utility.yul\":18561:18576   */\n      revert\n        /* \"#utility.yul\":18588:18908   */\n    tag_111:\n        /* \"#utility.yul\":18632:18638   */\n      0x00\n        /* \"#utility.yul\":18669:18670   */\n      0x02\n        /* \"#utility.yul\":18663:18667   */\n      dup3\n        /* \"#utility.yul\":18659:18671   */\n      div\n        /* \"#utility.yul\":18649:18671   */\n      swap1\n      pop\n        /* \"#utility.yul\":18716:18717   */\n      0x01\n        /* \"#utility.yul\":18710:18714   */\n      dup3\n        /* \"#utility.yul\":18706:18718   */\n      and\n        /* \"#utility.yul\":18737:18755   */\n      dup1\n        /* \"#utility.yul\":18727:18808   */\n      tag_416\n      jumpi\n        /* \"#utility.yul\":18793:18797   */\n      0x7f\n        /* \"#utility.yul\":18785:18791   */\n      dup3\n        /* \"#utility.yul\":18781:18798   */\n      and\n        /* \"#utility.yul\":18771:18798   */\n      swap2\n      pop\n        /* \"#utility.yul\":18727:18808   */\n    tag_416:\n        /* \"#utility.yul\":18855:18857   */\n      0x20\n        /* \"#utility.yul\":18847:18853   */\n      dup3\n        /* \"#utility.yul\":18844:18858   */\n      lt\n        /* \"#utility.yul\":18824:18842   */\n      dup2\n        /* \"#utility.yul\":18821:18859   */\n      sub\n        /* \"#utility.yul\":18818:18902   */\n      tag_417\n      jumpi\n        /* \"#utility.yul\":18874:18892   */\n      tag_418\n      tag_214\n      jump\t// in\n    tag_418:\n        /* \"#utility.yul\":18818:18902   */\n    tag_417:\n        /* \"#utility.yul\":18639:18908   */\n      pop\n        /* \"#utility.yul\":18588:18908   */\n      swap2\n      swap1\n      pop\n      jump\t// out\n        /* \"#utility.yul\":18914:19055   */\n    tag_215:\n        /* \"#utility.yul\":18963:18967   */\n      0x00\n        /* \"#utility.yul\":18986:18989   */\n      dup2\n        /* \"#utility.yul\":18978:18989   */\n      swap1\n      pop\n        /* \"#utility.yul\":19009:19012   */\n      dup2\n        /* \"#utility.yul\":19006:19007   */\n      0x00\n        /* \"#utility.yul\":18999:19013   */\n      mstore\n        /* \"#utility.yul\":19043:19047   */\n      0x20\n        /* \"#utility.yul\":19040:19041   */\n      0x00\n        /* \"#utility.yul\":19030:19048   */\n      keccak256\n        /* \"#utility.yul\":19022:19048   */\n      swap1\n      pop\n        /* \"#utility.yul\":18914:19055   */\n      swap2\n      swap1\n      pop\n      jump\t// out\n        /* \"#utility.yul\":19061:19154   */\n    tag_216:\n        /* \"#utility.yul\":19098:19104   */\n      0x00\n        /* \"#utility.yul\":19145:19147   */\n      0x20\n        /* \"#utility.yul\":19140:19142   */\n      0x1f\n        /* \"#utility.yul\":19133:19138   */\n      dup4\n        /* \"#utility.yul\":19129:19143   */\n      add\n        /* \"#utility.yul\":19125:19148   */\n      div\n        /* \"#utility.yul\":19115:19148   */\n      swap1\n      pop\n        /* \"#utility.yul\":19061:19154   */\n      swap2\n      swap1\n      pop\n      jump\t// out\n        /* \"#utility.yul\":19160:19267   */\n    tag_217:\n        /* \"#utility.yul\":19204:19212   */\n      0x00\n        /* \"#utility.yul\":19254:19259   */\n      dup3\n        /* \"#utility.yul\":19248:19252   */\n      dup3\n        /* \"#utility.yul\":19244:19260   */\n      shl\n        /* \"#utility.yul\":19223:19260   */\n      swap1\n      pop\n        /* \"#utility.yul\":19160:19267   */\n      swap3\n      swap2\n      pop\n      pop\n      jump\t// out\n        /* \"#utility.yul\":19273:19666   */\n    tag_218:\n        /* \"#utility.yul\":19342:19348   */\n      0x00\n        /* \"#utility.yul\":19392:19393   */\n      0x08\n        /* \"#utility.yul\":19380:19390   */\n      dup4\n        /* \"#utility.yul\":19376:19394   */\n      mul\n        /* \"#utility.yul\":19415:19512   */\n      tag_423\n        /* \"#utility.yul\":19445:19511   */\n      0xffffffffffffffffffffffffffffffffffffffffffffffffffffffffffffffff\n        /* \"#utility.yul\":19434:19443   */\n      dup3\n        /* \"#utility.yul\":19415:19512   */\n      tag_217\n      jump\t// in\n    tag_423:\n        /* \"#utility.yul\":19533:19572   */\n      tag_424\n        /* \"#utility.yul\":19563:19571   */\n      dup7\n        /* \"#utility.yul\":19552:19561   */\n      dup4\n        /* \"#utility.yul\":19533:19572   */\n      tag_217\n      jump\t// in\n    tag_424:\n        /* \"#utility.yul\":19521:19572   */\n      swap6\n      pop\n        /* \"#utility.yul\":19605:19609   */\n      dup1\n        /* \"#utility.yul\":19601:19610   */\n      not\n        /* \"#utility.yul\":19594:19599   */\n      dup5\n        /* \"#utility.yul\":19590:19611   */\n      and\n        /* \"#utility.yul\":19581:19611   */\n      swap4\n      pop\n        /* \"#utility.yul\":19654:19658   */\n      dup1\n        /* \"#utility.yul\":19644:19652   */\n      dup7\n        /* \"#utility.yul\":19640:19659   */\n      and\n        /* \"#utility.yul\":19633:19638   */\n      dup5\n        /* \"#utility.yul\":19630:19660   */\n      or\n        /* \"#utility.yul\":19620:19660   */\n      swap3\n      pop\n        /* \"#utility.yul\":19349:19666   */\n      pop\n      pop\n        /* \"#utility.yul\":19273:19666   */\n      swap4\n      swap3\n      pop\n      pop\n      pop\n      jump\t// out\n        /* \"#utility.yul\":19672:19814   */\n    tag_219:\n        /* \"#utility.yul\":19722:19731   */\n      0x00\n        /* \"#utility.yul\":19755:19808   */\n      tag_426\n        /* \"#utility.yul\":19773:19807   */\n      tag_427\n        /* \"#utility.yul\":19782:19806   */\n      tag_428\n        /* \"#utility.yul\":19800:19805   */\n      dup5\n        /* \"#utility.yul\":19782:19806   */\n      tag_162\n      jump\t// in\n    tag_428:\n        /* \"#utility.yul\":19773:19807   */\n      tag_202\n      jump\t// in\n    tag_427:\n        /* \"#utility.yul\":19755:19808   */\n      tag_162\n      jump\t// in\n    tag_426:\n        /* \"#utility.yul\":19742:19808   */\n      swap1\n      pop\n        /* \"#utility.yul\":19672:19814   */\n      swap2\n      swap1\n      pop\n      jump\t// out\n        /* \"#utility.yul\":19820:19895   */\n    tag_220:\n        /* \"#utility.yul\":19863:19866   */\n      0x00\n        /* \"#utility.yul\":19884:19889   */\n      dup2\n        /* \"#utility.yul\":19877:19889   */\n      swap1\n      pop\n        /* \"#utility.yul\":19820:19895   */\n      swap2\n      swap1\n      pop\n      jump\t// out\n        /* \"#utility.yul\":19901:20170   */\n    tag_221:\n        /* \"#utility.yul\":20011:20050   */\n      tag_431\n        /* \"#utility.yul\":20042:20049   */\n      dup4\n        /* \"#utility.yul\":20011:20050   */\n      tag_219\n      jump\t// in\n    tag_431:\n        /* \"#utility.yul\":20072:20163   */\n      tag_432\n        /* \"#utility.yul\":20121:20162   */\n      tag_433\n        /* \"#utility.yul\":20145:20161   */\n      dup3\n        /* \"#utility.yul\":20121:20162   */\n      tag_220\n      jump\t// in\n    tag_433:\n        /* \"#utility.yul\":20113:20119   */\n      dup5\n        /* \"#utility.yul\":20106:20110   */\n      dup5\n        /* \"#utility.yul\":20100:20111   */\n      sload\n        /* \"#utility.yul\":20072:20163   */\n      tag_218\n      jump\t// in\n    tag_432:\n        /* \"#utility.yul\":20066:20070   */\n      dup3\n        /* \"#utility.yul\":20059:20164   */\n      sstore\n        /* \"#utility.yul\":19977:20170   */\n      pop\n        /* \"#utility.yul\":19901:20170   */\n      pop\n      pop\n      pop\n      jump\t// out\n        /* \"#utility.yul\":20176:20249   */\n    tag_222:\n        /* \"#utility.yul\":20221:20224   */\n      0x00\n        /* \"#utility.yul\":20176:20249   */\n      swap1\n      jump\t// out\n        /* \"#utility.yul\":20255:20444   */\n    tag_223:\n        /* \"#utility.yul\":20332:20364   */\n      tag_436\n      tag_222\n      jump\t// in\n    tag_436:\n        /* \"#utility.yul\":20373:20438   */\n      tag_437\n        /* \"#utility.yul\":20431:20437   */\n      dup2\n        /* \"#utility.yul\":20423:20429   */\n      dup5\n        /* \"#utility.yul\":20417:20421   */\n      dup5\n        /* \"#utility.yul\":20373:20438   */\n      tag_221\n      jump\t// in\n    tag_437:\n        /* \"#utility.yul\":20308:20444   */\n      pop\n        /* \"#utility.yul\":20255:20444   */\n      pop\n      pop\n      jump\t// out\n        /* \"#utility.yul\":20450:20636   */\n    tag_224:\n        /* \"#utility.yul\":20510:20630   */\n    tag_439:\n        /* \"#utility.yul\":20527:20530   */\n      dup2\n        /* \"#utility.yul\":20520:20525   */\n      dup2\n        /* \"#utility.yul\":20517:20531   */\n      lt\n        /* \"#utility.yul\":20510:20630   */\n      iszero\n      tag_441\n      jumpi\n        /* \"#utility.yul\":20581:20620   */\n      tag_442\n        /* \"#utility.yul\":20618:20619   */\n      0x00\n        /* \"#utility.yul\":20611:20616   */\n      dup3\n        /* \"#utility.yul\":20581:20620   */\n      tag_223\n      jump\t// in\n    tag_442:\n        /* \"#utility.yul\":20554:20555   */\n      0x01\n        /* \"#utility.yul\":20547:20552   */\n      dup2\n        /* \"#utility.yul\":20543:20556   */\n      add\n        /* \"#utility.yul\":20534:20556   */\n      swap1\n      pop\n        /* \"#utility.yul\":20510:20630   */\n      jump(tag_439)\n    tag_441:\n        /* \"#utility.yul\":20450:20636   */\n      pop\n      pop\n      jump\t// out\n        /* \"#utility.yul\":20642:21185   */\n    tag_225:\n        /* \"#utility.yul\":20743:20745   */\n      0x1f\n        /* \"#utility.yul\":20738:20741   */\n      dup3\n        /* \"#utility.yul\":20735:20746   */\n      gt\n        /* \"#utility.yul\":20732:21178   */\n      iszero\n      tag_444\n      jumpi\n        /* \"#utility.yul\":20777:20815   */\n      tag_445\n        /* \"#utility.yul\":20809:20814   */\n      dup2\n        /* \"#utility.yul\":20777:20815   */\n      tag_215\n      jump\t// in\n    tag_445:\n        /* \"#utility.yul\":20861:20890   */\n      tag_446\n        /* \"#utility.yul\":20879:20889   */\n      dup5\n        /* \"#utility.yul\":20861:20890   */\n      tag_216\n      jump\t// in\n    tag_446:\n        /* \"#utility.yul\":20851:20859   */\n      dup2\n        /* \"#utility.yul\":20847:20891   */\n      add\n        /* \"#utility.yul\":21044:21046   */\n      0x20\n        /* \"#utility.yul\":21032:21042   */\n      dup6\n        /* \"#utility.yul\":21029:21047   */\n      lt\n        /* \"#utility.yul\":21026:21075   */\n      iszero\n      tag_447\n      jumpi\n        /* \"#utility.yul\":21065:21073   */\n      dup2\n        /* \"#utility.yul\":21050:21073   */\n      swap1\n      pop\n        /* \"#utility.yul\":21026:21075   */\n    tag_447:\n        /* \"#utility.yul\":21088:21168   */\n      tag_448\n        /* \"#utility.yul\":21144:21166   */\n      tag_449\n        /* \"#utility.yul\":21162:21165   */\n      dup6\n        /* \"#utility.yul\":21144:21166   */\n      tag_216\n      jump\t// in\n    tag_449:\n        /* \"#utility.yul\":21134:21142   */\n      dup4\n        /* \"#utility.yul\":21130:21167   */\n      add\n        /* \"#utility.yul\":21117:21128   */\n      dup3\n        /* \"#utility.yul\":21088:21168   */\n      tag_224\n      jump\t// in\n    tag_448:\n        /* \"#utility.yul\":20747:21178   */\n      pop\n      pop\n        /* \"#utility.yul\":20732:21178   */\n    tag_444:\n        /* \"#utility.yul\":20642:21185   */\n      pop\n      pop\n      pop\n      jump\t// out\n        /* \"#utility.yul\":21191:21308   */\n    tag_226:\n        /* \"#utility.yul\":21245:21253   */\n      0x00\n        /* \"#utility.yul\":21295:21300   */\n      dup3\n        /* \"#utility.yul\":21289:21293   */\n      dup3\n        /* \"#utility.yul\":21285:21301   */\n      shr\n        /* \"#utility.yul\":21264:21301   */\n      swap1\n      pop\n        /* \"#utility.yul\":21191:21308   */\n      swap3\n      swap2\n      pop\n      pop\n      jump\t// out\n        /* \"#utility.yul\":21314:21483   */\n    tag_227:\n        /* \"#utility.yul\":21358:21364   */\n      0x00\n        /* \"#utility.yul\":21391:21442   */\n      tag_452\n        /* \"#utility.yul\":21439:21440   */\n      0x00\n        /* \"#utility.yul\":21435:21441   */\n      not\n        /* \"#utility.yul\":21427:21432   */\n      dup5\n        /* \"#utility.yul\":21424:21425   */\n      0x08\n        /* \"#utility.yul\":21420:21433   */\n      mul\n        /* \"#utility.yul\":21391:21442   */\n      tag_226\n      jump\t// in\n    tag_452:\n        /* \"#utility.yul\":21387:21443   */\n      not\n        /* \"#utility.yul\":21472:21476   */\n      dup1\n        /* \"#utility.yul\":21466:21470   */\n      dup4\n        /* \"#utility.yul\":21462:21477   */\n      and\n        /* \"#utility.yul\":21452:21477   */\n      swap2\n      pop\n        /* \"#utility.yul\":21365:21483   */\n      pop\n        /* \"#utility.yul\":21314:21483   */\n      swap3\n      swap2\n      pop\n      pop\n      jump\t// out\n        /* \"#utility.yul\":21488:21783   */\n    tag_228:\n        /* \"#utility.yul\":21564:21568   */\n      0x00\n        /* \"#utility.yul\":21710:21739   */\n      tag_454\n        /* \"#utility.yul\":21735:21738   */\n      dup4\n        /* \"#utility.yul\":21729:21733   */\n      dup4\n        /* \"#utility.yul\":21710:21739   */\n      tag_227\n      jump\t// in\n    tag_454:\n        /* \"#utility.yul\":21702:21739   */\n      swap2\n      pop\n        /* \"#utility.yul\":21772:21775   */\n      dup3\n        /* \"#utility.yul\":21769:21770   */\n      0x02\n        /* \"#utility.yul\":21765:21776   */\n      mul\n        /* \"#utility.yul\":21759:21763   */\n      dup3\n        /* \"#utility.yul\":21756:21777   */\n      or\n        /* \"#utility.yul\":21748:21777   */\n      swap1\n      pop\n        /* \"#utility.yul\":21488:21783   */\n      swap3\n      swap2\n      pop\n      pop\n      jump\t// out\n        /* \"#utility.yul\":21788:23183   */\n    tag_78:\n        /* \"#utility.yul\":21905:21942   */\n      tag_456\n        /* \"#utility.yul\":21938:21941   */\n      dup3\n        /* \"#utility.yul\":21905:21942   */\n      tag_180\n      jump\t// in\n    tag_456:\n        /* \"#utility.yul\":22007:22025   */\n      0xffffffffffffffff\n        /* \"#utility.yul\":21999:22005   */\n      dup2\n        /* \"#utility.yul\":21996:22026   */\n      gt\n        /* \"#utility.yul\":21993:22049   */\n      iszero\n      tag_457\n      jumpi\n        /* \"#utility.yul\":22029:22047   */\n      tag_458\n      tag_168\n      jump\t// in\n    tag_458:\n        /* \"#utility.yul\":21993:22049   */\n    tag_457:\n        /* \"#utility.yul\":22073:22111   */\n      tag_459\n        /* \"#utility.yul\":22105:22109   */\n      dup3\n        /* \"#utility.yul\":22099:22110   */\n      sload\n        /* \"#utility.yul\":22073:22111   */\n      tag_111\n      jump\t// in\n    tag_459:\n        /* \"#utility.yul\":22158:22225   */\n      tag_460\n        /* \"#utility.yul\":22218:22224   */\n      dup3\n        /* \"#utility.yul\":22210:22216   */\n      dup3\n        /* \"#utility.yul\":22204:22208   */\n      dup6\n        /* \"#utility.yul\":22158:22225   */\n      tag_225\n      jump\t// in\n    tag_460:\n        /* \"#utility.yul\":22252:22253   */\n      0x00\n        /* \"#utility.yul\":22276:22280   */\n      0x20\n        /* \"#utility.yul\":22263:22280   */\n      swap1\n      pop\n        /* \"#utility.yul\":22308:22310   */\n      0x1f\n        /* \"#utility.yul\":22300:22306   */\n      dup4\n        /* \"#utility.yul\":22297:22311   */\n      gt\n        /* \"#utility.yul\":22325:22326   */\n      0x01\n        /* \"#utility.yul\":22320:22938   */\n      dup2\n      eq\n      tag_462\n      jumpi\n        /* \"#utility.yul\":22982:22983   */\n      0x00\n        /* \"#utility.yul\":22999:23005   */\n      dup5\n        /* \"#utility.yul\":22996:23073   */\n      iszero\n      tag_463\n      jumpi\n        /* \"#utility.yul\":23048:23057   */\n      dup3\n        /* \"#utility.yul\":23043:23046   */\n      dup8\n        /* \"#utility.yul\":23039:23058   */\n      add\n        /* \"#utility.yul\":23033:23059   */\n      mload\n        /* \"#utility.yul\":23024:23059   */\n      swap1\n      pop\n        /* \"#utility.yul\":22996:23073   */\n    tag_463:\n        /* \"#utility.yul\":23099:23166   */\n      tag_464\n        /* \"#utility.yul\":23159:23165   */\n      dup6\n        /* \"#utility.yul\":23152:23157   */\n      dup3\n        /* \"#utility.yul\":23099:23166   */\n      tag_228\n      jump\t// in\n    tag_464:\n        /* \"#utility.yul\":23093:23097   */\n      dup7\n        /* \"#utility.yul\":23086:23167   */\n      sstore\n        /* \"#utility.yul\":22955:23177   */\n      pop\n        /* \"#utility.yul\":22290:23177   */\n      jump(tag_461)\n        /* \"#utility.yul\":22320:22938   */\n    tag_462:\n        /* \"#utility.yul\":22372:22376   */\n      0x1f\n        /* \"#utility.yul\":22368:22377   */\n      not\n        /* \"#utility.yul\":22360:22366   */\n      dup5\n        /* \"#utility.yul\":22356:22378   */\n      and\n        /* \"#utility.yul\":22406:22443   */\n      tag_465\n        /* \"#utility.yul\":22438:22442   */\n      dup7\n        /* \"#utility.yul\":22406:22443   */\n      tag_215\n      jump\t// in\n    tag_465:\n        /* \"#utility.yul\":22465:22466   */\n      0x00\n        /* \"#utility.yul\":22479:22687   */\n    tag_466:\n        /* \"#utility.yul\":22493:22500   */\n      dup3\n        /* \"#utility.yul\":22490:22491   */\n      dup2\n        /* \"#utility.yul\":22487:22501   */\n      lt\n        /* \"#utility.yul\":22479:22687   */\n      iszero\n      tag_468\n      jumpi\n        /* \"#utility.yul\":22572:22581   */\n      dup5\n        /* \"#utility.yul\":22567:22570   */\n      dup10\n        /* \"#utility.yul\":22563:22582   */\n      add\n        /* \"#utility.yul\":22557:22583   */\n      mload\n        /* \"#utility.yul\":22549:22555   */\n      dup3\n        /* \"#utility.yul\":22542:22584   */\n      sstore\n        /* \"#utility.yul\":22623:22624   */\n      0x01\n        /* \"#utility.yul\":22615:22621   */\n      dup3\n        /* \"#utility.yul\":22611:22625   */\n      add\n        /* \"#utility.yul\":22601:22625   */\n      swap2\n      pop\n        /* \"#utility.yul\":22670:22672   */\n      0x20\n        /* \"#utility.yul\":22659:22668   */\n      dup6\n        /* \"#utility.yul\":22655:22673   */\n      add\n        /* \"#utility.yul\":22642:22673   */\n      swap5\n      pop\n        /* \"#utility.yul\":22516:22520   */\n      0x20\n        /* \"#utility.yul\":22513:22514   */\n      dup2\n        /* \"#utility.yul\":22509:22521   */\n      add\n        /* \"#utility.yul\":22504:22521   */\n      swap1\n      pop\n        /* \"#utility.yul\":22479:22687   */\n      jump(tag_466)\n    tag_468:\n        /* \"#utility.yul\":22715:22721   */\n      dup7\n        /* \"#utility.yul\":22706:22713   */\n      dup4\n        /* \"#utility.yul\":22703:22722   */\n      lt\n        /* \"#utility.yul\":22700:22879   */\n      iszero\n      tag_469\n      jumpi\n        /* \"#utility.yul\":22773:22782   */\n      dup5\n        /* \"#utility.yul\":22768:22771   */\n      dup10\n        /* \"#utility.yul\":22764:22783   */\n      add\n        /* \"#utility.yul\":22758:22784   */\n      mload\n        /* \"#utility.yul\":22816:22864   */\n      tag_470\n        /* \"#utility.yul\":22858:22862   */\n      0x1f\n        /* \"#utility.yul\":22850:22856   */\n      dup10\n        /* \"#utility.yul\":22846:22863   */\n      and\n        /* \"#utility.yul\":22835:22844   */\n      dup3\n        /* \"#utility.yul\":22816:22864   */\n      tag_227\n      jump\t// in\n    tag_470:\n        /* \"#utility.yul\":22808:22814   */\n      dup4\n        /* \"#utility.yul\":22801:22865   */\n      sstore\n        /* \"#utility.yul\":22723:22879   */\n      pop\n        /* \"#utility.yul\":22700:22879   */\n    tag_469:\n        /* \"#utility.yul\":22925:22926   */\n      0x01\n        /* \"#utility.yul\":22921:22922   */\n      0x02\n        /* \"#utility.yul\":22913:22919   */\n      dup9\n        /* \"#utility.yul\":22909:22923   */\n      mul\n        /* \"#utility.yul\":22905:22927   */\n      add\n        /* \"#utility.yul\":22899:22903   */\n      dup9\n        /* \"#utility.yul\":22892:22928   */\n      sstore\n        /* \"#utility.yul\":22327:22938   */\n      pop\n      pop\n      pop\n        /* \"#utility.yul\":22290:23177   */\n    tag_461:\n      pop\n        /* \"#utility.yul\":21880:23183   */\n      pop\n      pop\n      pop\n        /* \"#utility.yul\":21788:23183   */\n      pop\n      pop\n      jump\t// out\n        /* \"#utility.yul\":23189:23332   */\n    tag_229:\n        /* \"#utility.yul\":23246:23251   */\n      0x00\n        /* \"#utility.yul\":23277:23283   */\n      dup2\n        /* \"#utility.yul\":23271:23284   */\n      mload\n        /* \"#utility.yul\":23262:23284   */\n      swap1\n      pop\n        /* \"#utility.yul\":23293:23326   */\n      tag_472\n        /* \"#utility.yul\":23320:23325   */\n      dup2\n        /* \"#utility.yul\":23293:23326   */\n      tag_163\n      jump\t// in\n    tag_472:\n        /* \"#utility.yul\":23189:23332   */\n      swap3\n      swap2\n      pop\n      pop\n      jump\t// out\n        /* \"#utility.yul\":23338:23689   */\n    tag_87:\n        /* \"#utility.yul\":23408:23414   */\n      0x00\n        /* \"#utility.yul\":23457:23459   */\n      0x20\n        /* \"#utility.yul\":23445:23454   */\n      dup3\n        /* \"#utility.yul\":23436:23443   */\n      dup5\n        /* \"#utility.yul\":23432:23455   */\n      sub\n        /* \"#utility.yul\":23428:23460   */\n      slt\n        /* \"#utility.yul\":23425:23544   */\n      iszero\n      tag_474\n      jumpi\n        /* \"#utility.yul\":23463:23542   */\n      tag_475\n      tag_160\n      jump\t// in\n    tag_475:\n        /* \"#utility.yul\":23425:23544   */\n    tag_474:\n        /* \"#utility.yul\":23583:23584   */\n      0x00\n        /* \"#utility.yul\":23608:23672   */\n      tag_476\n        /* \"#utility.yul\":23664:23671   */\n      dup5\n        /* \"#utility.yul\":23655:23661   */\n      dup3\n        /* \"#utility.yul\":23644:23653   */\n      dup6\n        /* \"#utility.yul\":23640:23662   */\n      add\n        /* \"#utility.yul\":23608:23672   */\n      tag_229\n      jump\t// in\n    tag_476:\n        /* \"#utility.yul\":23598:23672   */\n      swap2\n      pop\n        /* \"#utility.yul\":23554:23682   */\n      pop\n        /* \"#utility.yul\":23338:23689   */\n      swap3\n      swap2\n      pop\n      pop\n      jump\t// out\n        /* \"#utility.yul\":23695:23838   */\n    tag_230:\n        /* \"#utility.yul\":23752:23757   */\n      0x00\n        /* \"#utility.yul\":23783:23789   */\n      dup2\n        /* \"#utility.yul\":23777:23790   */\n      mload\n        /* \"#utility.yul\":23768:23790   */\n      swap1\n      pop\n        /* \"#utility.yul\":23799:23832   */\n      tag_478\n        /* \"#utility.yul\":23826:23831   */\n      dup2\n        /* \"#utility.yul\":23799:23832   */\n      tag_186\n      jump\t// in\n    tag_478:\n        /* \"#utility.yul\":23695:23838   */\n      swap3\n      swap2\n      pop\n      pop\n      jump\t// out\n        /* \"#utility.yul\":23844:24195   */\n    tag_95:\n        /* \"#utility.yul\":23914:23920   */\n      0x00\n        /* \"#utility.yul\":23963:23965   */\n      0x20\n        /* \"#utility.yul\":23951:23960   */\n      dup3\n        /* \"#utility.yul\":23942:23949   */\n      dup5\n        /* \"#utility.yul\":23938:23961   */\n      sub\n        /* \"#utility.yul\":23934:23966   */\n      slt\n        /* \"#utility.yul\":23931:24050   */\n      iszero\n      tag_480\n      jumpi\n        /* \"#utility.yul\":23969:24048   */\n      tag_481\n      tag_160\n      jump\t// in\n    tag_481:\n        /* \"#utility.yul\":23931:24050   */\n    tag_480:\n        /* \"#utility.yul\":24089:24090   */\n      0x00\n        /* \"#utility.yul\":24114:24178   */\n      tag_482\n        /* \"#utility.yul\":24170:24177   */\n      dup5\n        /* \"#utility.yul\":24161:24167   */\n      dup3\n        /* \"#utility.yul\":24150:24159   */\n      dup6\n        /* \"#utility.yul\":24146:24168   */\n      add\n        /* \"#utility.yul\":24114:24178   */\n      tag_230\n      jump\t// in\n    tag_482:\n        /* \"#utility.yul\":24104:24178   */\n      swap2\n      pop\n        /* \"#utility.yul\":24060:24188   */\n      pop\n        /* \"#utility.yul\":23844:24195   */\n      swap3\n      swap2\n      pop\n      pop\n      jump\t// out\n        /* \"#utility.yul\":24201:24422   */\n    tag_231:\n        /* \"#utility.yul\":24341:24375   */\n      0x4f6e6c792073656c6c65722063616e2063616c6c20746869732066756e637469\n        /* \"#utility.yul\":24337:24338   */\n      0x00\n        /* \"#utility.yul\":24329:24335   */\n      dup3\n        /* \"#utility.yul\":24325:24339   */\n      add\n        /* \"#utility.yul\":24318:24376   */\n      mstore\n        /* \"#utility.yul\":24410:24414   */\n      0x6f6e000000000000000000000000000000000000000000000000000000000000\n        /* \"#utility.yul\":24405:24407   */\n      0x20\n        /* \"#utility.yul\":24397:24403   */\n      dup3\n        /* \"#utility.yul\":24393:24408   */\n      add\n        /* \"#utility.yul\":24386:24415   */\n      mstore\n        /* \"#utility.yul\":24201:24422   */\n      pop\n      jump\t// out\n        /* \"#utility.yul\":24428:24794   */\n    tag_232:\n        /* \"#utility.yul\":24570:24573   */\n      0x00\n        /* \"#utility.yul\":24591:24658   */\n      tag_485\n        /* \"#utility.yul\":24655:24657   */\n      0x22\n        /* \"#utility.yul\":24650:24653   */\n      dup4\n        /* \"#utility.yul\":24591:24658   */\n      tag_181\n      jump\t// in\n    tag_485:\n        /* \"#utility.yul\":24584:24658   */\n      swap2\n      pop\n        /* \"#utility.yul\":24667:24760   */\n      tag_486\n        /* \"#utility.yul\":24756:24759   */\n      dup3\n        /* \"#utility.yul\":24667:24760   */\n      tag_231\n      jump\t// in\n    tag_486:\n        /* \"#utility.yul\":24785:24787   */\n      0x40\n        /* \"#utility.yul\":24780:24783   */\n      dup3\n        /* \"#utility.yul\":24776:24788   */\n      add\n        /* \"#utility.yul\":24769:24788   */\n      swap1\n      pop\n        /* \"#utility.yul\":24428:24794   */\n      swap2\n      swap1\n      pop\n      jump\t// out\n        /* \"#utility.yul\":24800:25219   */\n    tag_99:\n        /* \"#utility.yul\":24966:24970   */\n      0x00\n        /* \"#utility.yul\":25004:25006   */\n      0x20\n        /* \"#utility.yul\":24993:25002   */\n      dup3\n        /* \"#utility.yul\":24989:25007   */\n      add\n        /* \"#utility.yul\":24981:25007   */\n      swap1\n      pop\n        /* \"#utility.yul\":25053:25062   */\n      dup2\n        /* \"#utility.yul\":25047:25051   */\n      dup2\n        /* \"#utility.yul\":25043:25063   */\n      sub\n        /* \"#utility.yul\":25039:25040   */\n      0x00\n        /* \"#utility.yul\":25028:25037   */\n      dup4\n        /* \"#utility.yul\":25024:25041   */\n      add\n        /* \"#utility.yul\":25017:25064   */\n      mstore\n        /* \"#utility.yul\":25081:25212   */\n      tag_488\n        /* \"#utility.yul\":25207:25211   */\n      dup2\n        /* \"#utility.yul\":25081:25212   */\n      tag_232\n      jump\t// in\n    tag_488:\n        /* \"#utility.yul\":25073:25212   */\n      swap1\n      pop\n        /* \"#utility.yul\":24800:25219   */\n      swap2\n      swap1\n      pop\n      jump\t// out\n\n    auxdata: 0xa26469706673582212200d268dfa2c4c94dd57618375a49910486b1be067c2bfd1da361ea98a6d338dd164736f6c63430008160033\n}\n",
				"bytecode": {
					"linkReferences": {},
					"object": "608060405234801562000010575f80fd5b506040516200192f3803806200192f833981810160405281019062000036919062000122565b815f806101000a81548173ffffffffffffffffffffffffffffffffffffffff021916908373ffffffffffffffffffffffffffffffffffffffff1602179055508060015f6101000a81548173ffffffffffffffffffffffffffffffffffffffff021916908373ffffffffffffffffffffffffffffffffffffffff160217905550505062000167565b5f80fd5b5f73ffffffffffffffffffffffffffffffffffffffff82169050919050565b5f620000ec82620000c1565b9050919050565b620000fe81620000e0565b811462000109575f80fd5b50565b5f815190506200011c81620000f3565b92915050565b5f80604083850312156200013b576200013a620000bd565b5b5f6200014a858286016200010c565b92505060206200015d858286016200010c565b9150509250929050565b6117ba80620001755f395ff3fe608060405234801561000f575f80fd5b506004361061009c575f3560e01c8063ccbf461111610064578063ccbf46111461016a578063cee26ed514610188578063db3fb9d8146101b8578063dedfb104146101d4578063f2aa8218146101f25761009c565b80632ab23fc9146100a05780632ce37b10146100d057806342b6d145146100ee5780638c7c23991461010a5780639862d5f01461013a575b5f80fd5b6100ba60048036038101906100b59190610cc3565b610222565b6040516100c79190610d3e565b60405180910390f35b6100d8610424565b6040516100e59190610d3e565b60405180910390f35b61010860048036038101906101039190610e39565b610430565b005b610124600480360381019061011f9190610e80565b61069d565b6040516101319190610f38565b60405180910390f35b610154600480360381019061014f9190610fb2565b610759565b604051610161919061119b565b60405180910390f35b6101726108ae565b60405161017f9190611216565b60405180910390f35b6101a2600480360381019061019d919061122f565b6108d1565b6040516101af9190611269565b60405180910390f35b6101d260048036038101906101cd919061122f565b61090c565b005b6101dc6109f3565b6040516101e991906112a2565b60405180910390f35b61020c6004803603810190610207919061122f565b610a18565b6040516102199190611269565b60405180910390f35b5f60035f3373ffffffffffffffffffffffffffffffffffffffff1673ffffffffffffffffffffffffffffffffffffffff1681526020019081526020015f208054905084106102a5576040517f08c379a000000000000000000000000000000000000000000000000000000000815260040161029c90611305565b60405180910390fd5b60035f3373ffffffffffffffffffffffffffffffffffffffff1673ffffffffffffffffffffffffffffffffffffffff1681526020019081526020015f2084815481106102f4576102f3611323565b5b905f5260205f2001805490508310610341576040517f08c379a00000000000000000000000000000000000000000000000000000000081526004016103389061139a565b60405180910390fd5b8160035f3373ffffffffffffffffffffffffffffffffffffffff1673ffffffffffffffffffffffffffffffffffffffff1681526020019081526020015f20858154811061039157610390611323565b5b905f5260205f200184815481106103ab576103aa611323565b5b905f5260205f200190816103bf91906115a9565b5060035f3373ffffffffffffffffffffffffffffffffffffffff1673ffffffffffffffffffffffffffffffffffffffff1681526020019081526020015f20848154811061040f5761040e611323565b5b905f5260205f20018054905090509392505050565b5f600280549050905090565b5f80805f9054906101000a900473ffffffffffffffffffffffffffffffffffffffff1673ffffffffffffffffffffffffffffffffffffffff16637cac07af6040518163ffffffff1660e01b8152600401602060405180830381865afa15801561049b573d5f803e3d5ffd5b505050506040513d601f19601f820116820180604052508101906104bf919061168c565b90505f5b818110156105aa575f8054906101000a900473ffffffffffffffffffffffffffffffffffffffff1673ffffffffffffffffffffffffffffffffffffffff16639d0ec380826040518263ffffffff1660e01b81526004016105239190610d3e565b602060405180830381865afa15801561053e573d5f803e3d5ffd5b505050506040513d601f19601f8201168201806040525081019061056291906116cb565b73ffffffffffffffffffffffffffffffffffffffff163373ffffffffffffffffffffffffffffffffffffffff160361059d57600192506105aa565b80806001019150506104c3565b50816105eb576040517f08c379a00000000000000000000000000000000000000000000000000000000081526004016105e290611766565b60405180910390fd5b600283908060018154018082558091505060019003905f5260205f20015f909190919091509080519060200190610623929190610a53565b5060035f3373ffffffffffffffffffffffffffffffffffffffff1673ffffffffffffffffffffffffffffffffffffffff1681526020019081526020015f2083908060018154018082558091505060019003905f5260205f20015f909190919091509080519060200190610697929190610a53565b50505050565b600282815481106106ac575f80fd5b905f5260205f200181815481106106c1575f80fd5b905f5260205f20015f915091505080546106da906113e5565b80601f0160208091040260200160405190810160405280929190818152602001828054610706906113e5565b80156107515780601f1061072857610100808354040283529160200191610751565b820191905f5260205f20905b81548152906001019060200180831161073457829003601f168201915b505050505081565b606060035f8373ffffffffffffffffffffffffffffffffffffffff1673ffffffffffffffffffffffffffffffffffffffff1681526020019081526020015f20805480602002602001604051908101604052809291908181526020015f905b828210156108a3578382905f5260205f2001805480602002602001604051908101604052809291908181526020015f905b82821015610890578382905f5260205f20018054610805906113e5565b80601f0160208091040260200160405190810160405280929190818152602001828054610831906113e5565b801561087c5780601f106108535761010080835404028352916020019161087c565b820191905f5260205f20905b81548152906001019060200180831161085f57829003601f168201915b5050505050815260200190600101906107e8565b50505050815260200190600101906107b7565b505050509050919050565b5f8054906101000a900473ffffffffffffffffffffffffffffffffffffffff1681565b600481815481106108e0575f80fd5b905f5260205f20015f915054906101000a900473ffffffffffffffffffffffffffffffffffffffff1681565b60035f3373ffffffffffffffffffffffffffffffffffffffff1673ffffffffffffffffffffffffffffffffffffffff1681526020019081526020015f2080549050811061098e576040517f08c379a000000000000000000000000000000000000000000000000000000000815260040161098590611305565b60405180910390fd5b60035f3373ffffffffffffffffffffffffffffffffffffffff1673ffffffffffffffffffffffffffffffffffffffff1681526020019081526020015f2081815481106109dd576109dc611323565b5b905f5260205f20015f6109f09190610aaa565b50565b60015f9054906101000a900473ffffffffffffffffffffffffffffffffffffffff1681565b60058181548110610a27575f80fd5b905f5260205f20015f915054906101000a900473ffffffffffffffffffffffffffffffffffffffff1681565b828054828255905f5260205f20908101928215610a99579160200282015b82811115610a98578251829081610a8891906115a9565b5091602001919060010190610a71565b5b509050610aa69190610ac8565b5090565b5080545f8255905f5260205f2090810190610ac59190610ac8565b50565b5b80821115610ae7575f8181610ade9190610aeb565b50600101610ac9565b5090565b508054610af7906113e5565b5f825580601f10610b085750610b25565b601f0160209004905f5260205f2090810190610b249190610b28565b5b50565b5b80821115610b3f575f815f905550600101610b29565b5090565b5f604051905090565b5f80fd5b5f80fd5b5f819050919050565b610b6681610b54565b8114610b70575f80fd5b50565b5f81359050610b8181610b5d565b92915050565b5f80fd5b5f80fd5b5f601f19601f8301169050919050565b7f4e487b71000000000000000000000000000000000000000000000000000000005f52604160045260245ffd5b610bd582610b8f565b810181811067ffffffffffffffff82111715610bf457610bf3610b9f565b5b80604052505050565b5f610c06610b43565b9050610c128282610bcc565b919050565b5f67ffffffffffffffff821115610c3157610c30610b9f565b5b610c3a82610b8f565b9050602081019050919050565b828183375f83830152505050565b5f610c67610c6284610c17565b610bfd565b905082815260208101848484011115610c8357610c82610b8b565b5b610c8e848285610c47565b509392505050565b5f82601f830112610caa57610ca9610b87565b5b8135610cba848260208601610c55565b91505092915050565b5f805f60608486031215610cda57610cd9610b4c565b5b5f610ce786828701610b73565b9350506020610cf886828701610b73565b925050604084013567ffffffffffffffff811115610d1957610d18610b50565b5b610d2586828701610c96565b9150509250925092565b610d3881610b54565b82525050565b5f602082019050610d515f830184610d2f565b92915050565b5f67ffffffffffffffff821115610d7157610d70610b9f565b5b602082029050602081019050919050565b5f80fd5b5f610d98610d9384610d57565b610bfd565b90508083825260208201905060208402830185811115610dbb57610dba610d82565b5b835b81811015610e0257803567ffffffffffffffff811115610de057610ddf610b87565b5b808601610ded8982610c96565b85526020850194505050602081019050610dbd565b5050509392505050565b5f82601f830112610e2057610e1f610b87565b5b8135610e30848260208601610d86565b91505092915050565b5f60208284031215610e4e57610e4d610b4c565b5b5f82013567ffffffffffffffff811115610e6b57610e6a610b50565b5b610e7784828501610e0c565b91505092915050565b5f8060408385031215610e9657610e95610b4c565b5b5f610ea385828601610b73565b9250506020610eb485828601610b73565b9150509250929050565b5f81519050919050565b5f82825260208201905092915050565b5f5b83811015610ef5578082015181840152602081019050610eda565b5f8484015250505050565b5f610f0a82610ebe565b610f148185610ec8565b9350610f24818560208601610ed8565b610f2d81610b8f565b840191505092915050565b5f6020820190508181035f830152610f508184610f00565b905092915050565b5f73ffffffffffffffffffffffffffffffffffffffff82169050919050565b5f610f8182610f58565b9050919050565b610f9181610f77565b8114610f9b575f80fd5b50565b5f81359050610fac81610f88565b92915050565b5f60208284031215610fc757610fc6610b4c565b5b5f610fd484828501610f9e565b91505092915050565b5f81519050919050565b5f82825260208201905092915050565b5f819050602082019050919050565b5f81519050919050565b5f82825260208201905092915050565b5f819050602082019050919050565b5f82825260208201905092915050565b5f61104982610ebe565b611053818561102f565b9350611063818560208601610ed8565b61106c81610b8f565b840191505092915050565b5f611082838361103f565b905092915050565b5f602082019050919050565b5f6110a082611006565b6110aa8185611010565b9350836020820285016110bc85611020565b805f5b858110156110f757848403895281516110d88582611077565b94506110e38361108a565b925060208a019950506001810190506110bf565b50829750879550505050505092915050565b5f6111148383611096565b905092915050565b5f602082019050919050565b5f61113282610fdd565b61113c8185610fe7565b93508360208202850161114e85610ff7565b805f5b85811015611189578484038952815161116a8582611109565b94506111758361111c565b925060208a01995050600181019050611151565b50829750879550505050505092915050565b5f6020820190508181035f8301526111b38184611128565b905092915050565b5f819050919050565b5f6111de6111d96111d484610f58565b6111bb565b610f58565b9050919050565b5f6111ef826111c4565b9050919050565b5f611200826111e5565b9050919050565b611210816111f6565b82525050565b5f6020820190506112295f830184611207565b92915050565b5f6020828403121561124457611243610b4c565b5b5f61125184828501610b73565b91505092915050565b61126381610f77565b82525050565b5f60208201905061127c5f83018461125a565b92915050565b5f61128c826111e5565b9050919050565b61129c81611282565b82525050565b5f6020820190506112b55f830184611293565b92915050565b7f4c69737420696e646578206f7574206f6620626f756e647300000000000000005f82015250565b5f6112ef601883610ec8565b91506112fa826112bb565b602082019050919050565b5f6020820190508181035f83015261131c816112e3565b9050919050565b7f4e487b71000000000000000000000000000000000000000000000000000000005f52603260045260245ffd5b7f496e666f20696e646578206f7574206f6620626f756e647300000000000000005f82015250565b5f611384601883610ec8565b915061138f82611350565b602082019050919050565b5f6020820190508181035f8301526113b181611378565b9050919050565b7f4e487b71000000000000000000000000000000000000000000000000000000005f52602260045260245ffd5b5f60028204905060018216806113fc57607f821691505b60208210810361140f5761140e6113b8565b5b50919050565b5f819050815f5260205f209050919050565b5f6020601f8301049050919050565b5f82821b905092915050565b5f600883026114717fffffffffffffffffffffffffffffffffffffffffffffffffffffffffffffffff82611436565b61147b8683611436565b95508019841693508086168417925050509392505050565b5f6114ad6114a86114a384610b54565b6111bb565b610b54565b9050919050565b5f819050919050565b6114c683611493565b6114da6114d2826114b4565b848454611442565b825550505050565b5f90565b6114ee6114e2565b6114f98184846114bd565b505050565b5b8181101561151c576115115f826114e6565b6001810190506114ff565b5050565b601f8211156115615761153281611415565b61153b84611427565b8101602085101561154a578190505b61155e61155685611427565b8301826114fe565b50505b505050565b5f82821c905092915050565b5f6115815f1984600802611566565b1980831691505092915050565b5f6115998383611572565b9150826002028217905092915050565b6115b282610ebe565b67ffffffffffffffff8111156115cb576115ca610b9f565b5b6115d582546113e5565b6115e0828285611520565b5f60209050601f831160018114611611575f84156115ff578287015190505b611609858261158e565b865550611670565b601f19841661161f86611415565b5f5b8281101561164657848901518255600182019150602085019450602081019050611621565b86831015611663578489015161165f601f891682611572565b8355505b6001600288020188555050505b505050505050565b5f8151905061168681610b5d565b92915050565b5f602082840312156116a1576116a0610b4c565b5b5f6116ae84828501611678565b91505092915050565b5f815190506116c581610f88565b92915050565b5f602082840312156116e0576116df610b4c565b5b5f6116ed848285016116b7565b91505092915050565b7f4f6e6c792073656c6c65722063616e2063616c6c20746869732066756e6374695f8201527f6f6e000000000000000000000000000000000000000000000000000000000000602082015250565b5f611750602283610ec8565b915061175b826116f6565b604082019050919050565b5f6020820190508181035f83015261177d81611744565b905091905056fea26469706673582212200d268dfa2c4c94dd57618375a49910486b1be067c2bfd1da361ea98a6d338dd164736f6c63430008160033",
					"opcodes": "PUSH1 0x80 PUSH1 0x40 MSTORE CALLVALUE DUP1 ISZERO PUSH3 0x10 JUMPI PUSH0 DUP1 REVERT JUMPDEST POP PUSH1 0x40 MLOAD PUSH3 0x192F CODESIZE SUB DUP1 PUSH3 0x192F DUP4 CODECOPY DUP2 DUP2 ADD PUSH1 0x40 MSTORE DUP2 ADD SWAP1 PUSH3 0x36 SWAP2 SWAP1 PUSH3 0x122 JUMP JUMPDEST DUP2 PUSH0 DUP1 PUSH2 0x100 EXP DUP2 SLOAD DUP2 PUSH20 0xFFFFFFFFFFFFFFFFFFFFFFFFFFFFFFFFFFFFFFFF MUL NOT AND SWAP1 DUP4 PUSH20 0xFFFFFFFFFFFFFFFFFFFFFFFFFFFFFFFFFFFFFFFF AND MUL OR SWAP1 SSTORE POP DUP1 PUSH1 0x1 PUSH0 PUSH2 0x100 EXP DUP2 SLOAD DUP2 PUSH20 0xFFFFFFFFFFFFFFFFFFFFFFFFFFFFFFFFFFFFFFFF MUL NOT AND SWAP1 DUP4 PUSH20 0xFFFFFFFFFFFFFFFFFFFFFFFFFFFFFFFFFFFFFFFF AND MUL OR SWAP1 SSTORE POP POP POP PUSH3 0x167 JUMP JUMPDEST PUSH0 DUP1 REVERT JUMPDEST PUSH0 PUSH20 0xFFFFFFFFFFFFFFFFFFFFFFFFFFFFFFFFFFFFFFFF DUP3 AND SWAP1 POP SWAP2 SWAP1 POP JUMP JUMPDEST PUSH0 PUSH3 0xEC DUP3 PUSH3 0xC1 JUMP JUMPDEST SWAP1 POP SWAP2 SWAP1 POP JUMP JUMPDEST PUSH3 0xFE DUP2 PUSH3 0xE0 JUMP JUMPDEST DUP2 EQ PUSH3 0x109 JUMPI PUSH0 DUP1 REVERT JUMPDEST POP JUMP JUMPDEST PUSH0 DUP2 MLOAD SWAP1 POP PUSH3 0x11C DUP2 PUSH3 0xF3 JUMP JUMPDEST SWAP3 SWAP2 POP POP JUMP JUMPDEST PUSH0 DUP1 PUSH1 0x40 DUP4 DUP6 SUB SLT ISZERO PUSH3 0x13B JUMPI PUSH3 0x13A PUSH3 0xBD JUMP JUMPDEST JUMPDEST PUSH0 PUSH3 0x14A DUP6 DUP3 DUP7 ADD PUSH3 0x10C JUMP JUMPDEST SWAP3 POP POP PUSH1 0x20 PUSH3 0x15D DUP6 DUP3 DUP7 ADD PUSH3 0x10C JUMP JUMPDEST SWAP2 POP POP SWAP3 POP SWAP3 SWAP1 POP JUMP JUMPDEST PUSH2 0x17BA DUP1 PUSH3 0x175 PUSH0 CODECOPY PUSH0 RETURN INVALID PUSH1 0x80 PUSH1 0x40 MSTORE CALLVALUE DUP1 ISZERO PUSH2 0xF JUMPI PUSH0 DUP1 REVERT JUMPDEST POP PUSH1 0x4 CALLDATASIZE LT PUSH2 0x9C JUMPI PUSH0 CALLDATALOAD PUSH1 0xE0 SHR DUP1 PUSH4 0xCCBF4611 GT PUSH2 0x64 JUMPI DUP1 PUSH4 0xCCBF4611 EQ PUSH2 0x16A JUMPI DUP1 PUSH4 0xCEE26ED5 EQ PUSH2 0x188 JUMPI DUP1 PUSH4 0xDB3FB9D8 EQ PUSH2 0x1B8 JUMPI DUP1 PUSH4 0xDEDFB104 EQ PUSH2 0x1D4 JUMPI DUP1 PUSH4 0xF2AA8218 EQ PUSH2 0x1F2 JUMPI PUSH2 0x9C JUMP JUMPDEST DUP1 PUSH4 0x2AB23FC9 EQ PUSH2 0xA0 JUMPI DUP1 PUSH4 0x2CE37B10 EQ PUSH2 0xD0 JUMPI DUP1 PUSH4 0x42B6D145 EQ PUSH2 0xEE JUMPI DUP1 PUSH4 0x8C7C2399 EQ PUSH2 0x10A JUMPI DUP1 PUSH4 0x9862D5F0 EQ PUSH2 0x13A JUMPI JUMPDEST PUSH0 DUP1 REVERT JUMPDEST PUSH2 0xBA PUSH1 0x4 DUP1 CALLDATASIZE SUB DUP2 ADD SWAP1 PUSH2 0xB5 SWAP2 SWAP1 PUSH2 0xCC3 JUMP JUMPDEST PUSH2 0x222 JUMP JUMPDEST PUSH1 0x40 MLOAD PUSH2 0xC7 SWAP2 SWAP1 PUSH2 0xD3E JUMP JUMPDEST PUSH1 0x40 MLOAD DUP1 SWAP2 SUB SWAP1 RETURN JUMPDEST PUSH2 0xD8 PUSH2 0x424 JUMP JUMPDEST PUSH1 0x40 MLOAD PUSH2 0xE5 SWAP2 SWAP1 PUSH2 0xD3E JUMP JUMPDEST PUSH1 0x40 MLOAD DUP1 SWAP2 SUB SWAP1 RETURN JUMPDEST PUSH2 0x108 PUSH1 0x4 DUP1 CALLDATASIZE SUB DUP2 ADD SWAP1 PUSH2 0x103 SWAP2 SWAP1 PUSH2 0xE39 JUMP JUMPDEST PUSH2 0x430 JUMP JUMPDEST STOP JUMPDEST PUSH2 0x124 PUSH1 0x4 DUP1 CALLDATASIZE SUB DUP2 ADD SWAP1 PUSH2 0x11F SWAP2 SWAP1 PUSH2 0xE80 JUMP JUMPDEST PUSH2 0x69D JUMP JUMPDEST PUSH1 0x40 MLOAD PUSH2 0x131 SWAP2 SWAP1 PUSH2 0xF38 JUMP JUMPDEST PUSH1 0x40 MLOAD DUP1 SWAP2 SUB SWAP1 RETURN JUMPDEST PUSH2 0x154 PUSH1 0x4 DUP1 CALLDATASIZE SUB DUP2 ADD SWAP1 PUSH2 0x14F SWAP2 SWAP1 PUSH2 0xFB2 JUMP JUMPDEST PUSH2 0x759 JUMP JUMPDEST PUSH1 0x40 MLOAD PUSH2 0x161 SWAP2 SWAP1 PUSH2 0x119B JUMP JUMPDEST PUSH1 0x40 MLOAD DUP1 SWAP2 SUB SWAP1 RETURN JUMPDEST PUSH2 0x172 PUSH2 0x8AE JUMP JUMPDEST PUSH1 0x40 MLOAD PUSH2 0x17F SWAP2 SWAP1 PUSH2 0x1216 JUMP JUMPDEST PUSH1 0x40 MLOAD DUP1 SWAP2 SUB SWAP1 RETURN JUMPDEST PUSH2 0x1A2 PUSH1 0x4 DUP1 CALLDATASIZE SUB DUP2 ADD SWAP1 PUSH2 0x19D SWAP2 SWAP1 PUSH2 0x122F JUMP JUMPDEST PUSH2 0x8D1 JUMP JUMPDEST PUSH1 0x40 MLOAD PUSH2 0x1AF SWAP2 SWAP1 PUSH2 0x1269 JUMP JUMPDEST PUSH1 0x40 MLOAD DUP1 SWAP2 SUB SWAP1 RETURN JUMPDEST PUSH2 0x1D2 PUSH1 0x4 DUP1 CALLDATASIZE SUB DUP2 ADD SWAP1 PUSH2 0x1CD SWAP2 SWAP1 PUSH2 0x122F JUMP JUMPDEST PUSH2 0x90C JUMP JUMPDEST STOP JUMPDEST PUSH2 0x1DC PUSH2 0x9F3 JUMP JUMPDEST PUSH1 0x40 MLOAD PUSH2 0x1E9 SWAP2 SWAP1 PUSH2 0x12A2 JUMP JUMPDEST PUSH1 0x40 MLOAD DUP1 SWAP2 SUB SWAP1 RETURN JUMPDEST PUSH2 0x20C PUSH1 0x4 DUP1 CALLDATASIZE SUB DUP2 ADD SWAP1 PUSH2 0x207 SWAP2 SWAP1 PUSH2 0x122F JUMP JUMPDEST PUSH2 0xA18 JUMP JUMPDEST PUSH1 0x40 MLOAD PUSH2 0x219 SWAP2 SWAP1 PUSH2 0x1269 JUMP JUMPDEST PUSH1 0x40 MLOAD DUP1 SWAP2 SUB SWAP1 RETURN JUMPDEST PUSH0 PUSH1 0x3 PUSH0 CALLER PUSH20 0xFFFFFFFFFFFFFFFFFFFFFFFFFFFFFFFFFFFFFFFF AND PUSH20 0xFFFFFFFFFFFFFFFFFFFFFFFFFFFFFFFFFFFFFFFF AND DUP2 MSTORE PUSH1 0x20 ADD SWAP1 DUP2 MSTORE PUSH1 0x20 ADD PUSH0 KECCAK256 DUP1 SLOAD SWAP1 POP DUP5 LT PUSH2 0x2A5 JUMPI PUSH1 0x40 MLOAD PUSH32 0x8C379A000000000000000000000000000000000000000000000000000000000 DUP2 MSTORE PUSH1 0x4 ADD PUSH2 0x29C SWAP1 PUSH2 0x1305 JUMP JUMPDEST PUSH1 0x40 MLOAD DUP1 SWAP2 SUB SWAP1 REVERT JUMPDEST PUSH1 0x3 PUSH0 CALLER PUSH20 0xFFFFFFFFFFFFFFFFFFFFFFFFFFFFFFFFFFFFFFFF AND PUSH20 0xFFFFFFFFFFFFFFFFFFFFFFFFFFFFFFFFFFFFFFFF AND DUP2 MSTORE PUSH1 0x20 ADD SWAP1 DUP2 MSTORE PUSH1 0x20 ADD PUSH0 KECCAK256 DUP5 DUP2 SLOAD DUP2 LT PUSH2 0x2F4 JUMPI PUSH2 0x2F3 PUSH2 0x1323 JUMP JUMPDEST JUMPDEST SWAP1 PUSH0 MSTORE PUSH1 0x20 PUSH0 KECCAK256 ADD DUP1 SLOAD SWAP1 POP DUP4 LT PUSH2 0x341 JUMPI PUSH1 0x40 MLOAD PUSH32 0x8C379A000000000000000000000000000000000000000000000000000000000 DUP2 MSTORE PUSH1 0x4 ADD PUSH2 0x338 SWAP1 PUSH2 0x139A JUMP JUMPDEST PUSH1 0x40 MLOAD DUP1 SWAP2 SUB SWAP1 REVERT JUMPDEST DUP2 PUSH1 0x3 PUSH0 CALLER PUSH20 0xFFFFFFFFFFFFFFFFFFFFFFFFFFFFFFFFFFFFFFFF AND PUSH20 0xFFFFFFFFFFFFFFFFFFFFFFFFFFFFFFFFFFFFFFFF AND DUP2 MSTORE PUSH1 0x20 ADD SWAP1 DUP2 MSTORE PUSH1 0x20 ADD PUSH0 KECCAK256 DUP6 DUP2 SLOAD DUP2 LT PUSH2 0x391 JUMPI PUSH2 0x390 PUSH2 0x1323 JUMP JUMPDEST JUMPDEST SWAP1 PUSH0 MSTORE PUSH1 0x20 PUSH0 KECCAK256 ADD DUP5 DUP2 SLOAD DUP2 LT PUSH2 0x3AB JUMPI PUSH2 0x3AA PUSH2 0x1323 JUMP JUMPDEST JUMPDEST SWAP1 PUSH0 MSTORE PUSH1 0x20 PUSH0 KECCAK256 ADD SWAP1 DUP2 PUSH2 0x3BF SWAP2 SWAP1 PUSH2 0x15A9 JUMP JUMPDEST POP PUSH1 0x3 PUSH0 CALLER PUSH20 0xFFFFFFFFFFFFFFFFFFFFFFFFFFFFFFFFFFFFFFFF AND PUSH20 0xFFFFFFFFFFFFFFFFFFFFFFFFFFFFFFFFFFFFFFFF AND DUP2 MSTORE PUSH1 0x20 ADD SWAP1 DUP2 MSTORE PUSH1 0x20 ADD PUSH0 KECCAK256 DUP5 DUP2 SLOAD DUP2 LT PUSH2 0x40F JUMPI PUSH2 0x40E PUSH2 0x1323 JUMP JUMPDEST JUMPDEST SWAP1 PUSH0 MSTORE PUSH1 0x20 PUSH0 KECCAK256 ADD DUP1 SLOAD SWAP1 POP SWAP1 POP SWAP4 SWAP3 POP POP POP JUMP JUMPDEST PUSH0 PUSH1 0x2 DUP1 SLOAD SWAP1 POP SWAP1 POP SWAP1 JUMP JUMPDEST PUSH0 DUP1 DUP1 PUSH0 SWAP1 SLOAD SWAP1 PUSH2 0x100 EXP SWAP1 DIV PUSH20 0xFFFFFFFFFFFFFFFFFFFFFFFFFFFFFFFFFFFFFFFF AND PUSH20 0xFFFFFFFFFFFFFFFFFFFFFFFFFFFFFFFFFFFFFFFF AND PUSH4 0x7CAC07AF PUSH1 0x40 MLOAD DUP2 PUSH4 0xFFFFFFFF AND PUSH1 0xE0 SHL DUP2 MSTORE PUSH1 0x4 ADD PUSH1 0x20 PUSH1 0x40 MLOAD DUP1 DUP4 SUB DUP2 DUP7 GAS STATICCALL ISZERO DUP1 ISZERO PUSH2 0x49B JUMPI RETURNDATASIZE PUSH0 DUP1 RETURNDATACOPY RETURNDATASIZE PUSH0 REVERT JUMPDEST POP POP POP POP PUSH1 0x40 MLOAD RETURNDATASIZE PUSH1 0x1F NOT PUSH1 0x1F DUP3 ADD AND DUP3 ADD DUP1 PUSH1 0x40 MSTORE POP DUP2 ADD SWAP1 PUSH2 0x4BF SWAP2 SWAP1 PUSH2 0x168C JUMP JUMPDEST SWAP1 POP PUSH0 JUMPDEST DUP2 DUP2 LT ISZERO PUSH2 0x5AA JUMPI PUSH0 DUP1 SLOAD SWAP1 PUSH2 0x100 EXP SWAP1 DIV PUSH20 0xFFFFFFFFFFFFFFFFFFFFFFFFFFFFFFFFFFFFFFFF AND PUSH20 0xFFFFFFFFFFFFFFFFFFFFFFFFFFFFFFFFFFFFFFFF AND PUSH4 0x9D0EC380 DUP3 PUSH1 0x40 MLOAD DUP3 PUSH4 0xFFFFFFFF AND PUSH1 0xE0 SHL DUP2 MSTORE PUSH1 0x4 ADD PUSH2 0x523 SWAP2 SWAP1 PUSH2 0xD3E JUMP JUMPDEST PUSH1 0x20 PUSH1 0x40 MLOAD DUP1 DUP4 SUB DUP2 DUP7 GAS STATICCALL ISZERO DUP1 ISZERO PUSH2 0x53E JUMPI RETURNDATASIZE PUSH0 DUP1 RETURNDATACOPY RETURNDATASIZE PUSH0 REVERT JUMPDEST POP POP POP POP PUSH1 0x40 MLOAD RETURNDATASIZE PUSH1 0x1F NOT PUSH1 0x1F DUP3 ADD AND DUP3 ADD DUP1 PUSH1 0x40 MSTORE POP DUP2 ADD SWAP1 PUSH2 0x562 SWAP2 SWAP1 PUSH2 0x16CB JUMP JUMPDEST PUSH20 0xFFFFFFFFFFFFFFFFFFFFFFFFFFFFFFFFFFFFFFFF AND CALLER PUSH20 0xFFFFFFFFFFFFFFFFFFFFFFFFFFFFFFFFFFFFFFFF AND SUB PUSH2 0x59D JUMPI PUSH1 0x1 SWAP3 POP PUSH2 0x5AA JUMP JUMPDEST DUP1 DUP1 PUSH1 0x1 ADD SWAP2 POP POP PUSH2 0x4C3 JUMP JUMPDEST POP DUP2 PUSH2 0x5EB JUMPI PUSH1 0x40 MLOAD PUSH32 0x8C379A000000000000000000000000000000000000000000000000000000000 DUP2 MSTORE PUSH1 0x4 ADD PUSH2 0x5E2 SWAP1 PUSH2 0x1766 JUMP JUMPDEST PUSH1 0x40 MLOAD DUP1 SWAP2 SUB SWAP1 REVERT JUMPDEST PUSH1 0x2 DUP4 SWAP1 DUP1 PUSH1 0x1 DUP2 SLOAD ADD DUP1 DUP3 SSTORE DUP1 SWAP2 POP POP PUSH1 0x1 SWAP1 SUB SWAP1 PUSH0 MSTORE PUSH1 0x20 PUSH0 KECCAK256 ADD PUSH0 SWAP1 SWAP2 SWAP1 SWAP2 SWAP1 SWAP2 POP SWAP1 DUP1 MLOAD SWAP1 PUSH1 0x20 ADD SWAP1 PUSH2 0x623 SWAP3 SWAP2 SWAP1 PUSH2 0xA53 JUMP JUMPDEST POP PUSH1 0x3 PUSH0 CALLER PUSH20 0xFFFFFFFFFFFFFFFFFFFFFFFFFFFFFFFFFFFFFFFF AND PUSH20 0xFFFFFFFFFFFFFFFFFFFFFFFFFFFFFFFFFFFFFFFF AND DUP2 MSTORE PUSH1 0x20 ADD SWAP1 DUP2 MSTORE PUSH1 0x20 ADD PUSH0 KECCAK256 DUP4 SWAP1 DUP1 PUSH1 0x1 DUP2 SLOAD ADD DUP1 DUP3 SSTORE DUP1 SWAP2 POP POP PUSH1 0x1 SWAP1 SUB SWAP1 PUSH0 MSTORE PUSH1 0x20 PUSH0 KECCAK256 ADD PUSH0 SWAP1 SWAP2 SWAP1 SWAP2 SWAP1 SWAP2 POP SWAP1 DUP1 MLOAD SWAP1 PUSH1 0x20 ADD SWAP1 PUSH2 0x697 SWAP3 SWAP2 SWAP1 PUSH2 0xA53 JUMP JUMPDEST POP POP POP POP JUMP JUMPDEST PUSH1 0x2 DUP3 DUP2 SLOAD DUP2 LT PUSH2 0x6AC JUMPI PUSH0 DUP1 REVERT JUMPDEST SWAP1 PUSH0 MSTORE PUSH1 0x20 PUSH0 KECCAK256 ADD DUP2 DUP2 SLOAD DUP2 LT PUSH2 0x6C1 JUMPI PUSH0 DUP1 REVERT JUMPDEST SWAP1 PUSH0 MSTORE PUSH1 0x20 PUSH0 KECCAK256 ADD PUSH0 SWAP2 POP SWAP2 POP POP DUP1 SLOAD PUSH2 0x6DA SWAP1 PUSH2 0x13E5 JUMP JUMPDEST DUP1 PUSH1 0x1F ADD PUSH1 0x20 DUP1 SWAP2 DIV MUL PUSH1 0x20 ADD PUSH1 0x40 MLOAD SWAP1 DUP2 ADD PUSH1 0x40 MSTORE DUP1 SWAP3 SWAP2 SWAP1 DUP2 DUP2 MSTORE PUSH1 0x20 ADD DUP3 DUP1 SLOAD PUSH2 0x706 SWAP1 PUSH2 0x13E5 JUMP JUMPDEST DUP1 ISZERO PUSH2 0x751 JUMPI DUP1 PUSH1 0x1F LT PUSH2 0x728 JUMPI PUSH2 0x100 DUP1 DUP4 SLOAD DIV MUL DUP4 MSTORE SWAP2 PUSH1 0x20 ADD SWAP2 PUSH2 0x751 JUMP JUMPDEST DUP3 ADD SWAP2 SWAP1 PUSH0 MSTORE PUSH1 0x20 PUSH0 KECCAK256 SWAP1 JUMPDEST DUP2 SLOAD DUP2 MSTORE SWAP1 PUSH1 0x1 ADD SWAP1 PUSH1 0x20 ADD DUP1 DUP4 GT PUSH2 0x734 JUMPI DUP3 SWAP1 SUB PUSH1 0x1F AND DUP3 ADD SWAP2 JUMPDEST POP POP POP POP POP DUP2 JUMP JUMPDEST PUSH1 0x60 PUSH1 0x3 PUSH0 DUP4 PUSH20 0xFFFFFFFFFFFFFFFFFFFFFFFFFFFFFFFFFFFFFFFF AND PUSH20 0xFFFFFFFFFFFFFFFFFFFFFFFFFFFFFFFFFFFFFFFF AND DUP2 MSTORE PUSH1 0x20 ADD SWAP1 DUP2 MSTORE PUSH1 0x20 ADD PUSH0 KECCAK256 DUP1 SLOAD DUP1 PUSH1 0x20 MUL PUSH1 0x20 ADD PUSH1 0x40 MLOAD SWAP1 DUP2 ADD PUSH1 0x40 MSTORE DUP1 SWAP3 SWAP2 SWAP1 DUP2 DUP2 MSTORE PUSH1 0x20 ADD PUSH0 SWAP1 JUMPDEST DUP3 DUP3 LT ISZERO PUSH2 0x8A3 JUMPI DUP4 DUP3 SWAP1 PUSH0 MSTORE PUSH1 0x20 PUSH0 KECCAK256 ADD DUP1 SLOAD DUP1 PUSH1 0x20 MUL PUSH1 0x20 ADD PUSH1 0x40 MLOAD SWAP1 DUP2 ADD PUSH1 0x40 MSTORE DUP1 SWAP3 SWAP2 SWAP1 DUP2 DUP2 MSTORE PUSH1 0x20 ADD PUSH0 SWAP1 JUMPDEST DUP3 DUP3 LT ISZERO PUSH2 0x890 JUMPI DUP4 DUP3 SWAP1 PUSH0 MSTORE PUSH1 0x20 PUSH0 KECCAK256 ADD DUP1 SLOAD PUSH2 0x805 SWAP1 PUSH2 0x13E5 JUMP JUMPDEST DUP1 PUSH1 0x1F ADD PUSH1 0x20 DUP1 SWAP2 DIV MUL PUSH1 0x20 ADD PUSH1 0x40 MLOAD SWAP1 DUP2 ADD PUSH1 0x40 MSTORE DUP1 SWAP3 SWAP2 SWAP1 DUP2 DUP2 MSTORE PUSH1 0x20 ADD DUP3 DUP1 SLOAD PUSH2 0x831 SWAP1 PUSH2 0x13E5 JUMP JUMPDEST DUP1 ISZERO PUSH2 0x87C JUMPI DUP1 PUSH1 0x1F LT PUSH2 0x853 JUMPI PUSH2 0x100 DUP1 DUP4 SLOAD DIV MUL DUP4 MSTORE SWAP2 PUSH1 0x20 ADD SWAP2 PUSH2 0x87C JUMP JUMPDEST DUP3 ADD SWAP2 SWAP1 PUSH0 MSTORE PUSH1 0x20 PUSH0 KECCAK256 SWAP1 JUMPDEST DUP2 SLOAD DUP2 MSTORE SWAP1 PUSH1 0x1 ADD SWAP1 PUSH1 0x20 ADD DUP1 DUP4 GT PUSH2 0x85F JUMPI DUP3 SWAP1 SUB PUSH1 0x1F AND DUP3 ADD SWAP2 JUMPDEST POP POP POP POP POP DUP2 MSTORE PUSH1 0x20 ADD SWAP1 PUSH1 0x1 ADD SWAP1 PUSH2 0x7E8 JUMP JUMPDEST POP POP POP POP DUP2 MSTORE PUSH1 0x20 ADD SWAP1 PUSH1 0x1 ADD SWAP1 PUSH2 0x7B7 JUMP JUMPDEST POP POP POP POP SWAP1 POP SWAP2 SWAP1 POP JUMP JUMPDEST PUSH0 DUP1 SLOAD SWAP1 PUSH2 0x100 EXP SWAP1 DIV PUSH20 0xFFFFFFFFFFFFFFFFFFFFFFFFFFFFFFFFFFFFFFFF AND DUP2 JUMP JUMPDEST PUSH1 0x4 DUP2 DUP2 SLOAD DUP2 LT PUSH2 0x8E0 JUMPI PUSH0 DUP1 REVERT JUMPDEST SWAP1 PUSH0 MSTORE PUSH1 0x20 PUSH0 KECCAK256 ADD PUSH0 SWAP2 POP SLOAD SWAP1 PUSH2 0x100 EXP SWAP1 DIV PUSH20 0xFFFFFFFFFFFFFFFFFFFFFFFFFFFFFFFFFFFFFFFF AND DUP2 JUMP JUMPDEST PUSH1 0x3 PUSH0 CALLER PUSH20 0xFFFFFFFFFFFFFFFFFFFFFFFFFFFFFFFFFFFFFFFF AND PUSH20 0xFFFFFFFFFFFFFFFFFFFFFFFFFFFFFFFFFFFFFFFF AND DUP2 MSTORE PUSH1 0x20 ADD SWAP1 DUP2 MSTORE PUSH1 0x20 ADD PUSH0 KECCAK256 DUP1 SLOAD SWAP1 POP DUP2 LT PUSH2 0x98E JUMPI PUSH1 0x40 MLOAD PUSH32 0x8C379A000000000000000000000000000000000000000000000000000000000 DUP2 MSTORE PUSH1 0x4 ADD PUSH2 0x985 SWAP1 PUSH2 0x1305 JUMP JUMPDEST PUSH1 0x40 MLOAD DUP1 SWAP2 SUB SWAP1 REVERT JUMPDEST PUSH1 0x3 PUSH0 CALLER PUSH20 0xFFFFFFFFFFFFFFFFFFFFFFFFFFFFFFFFFFFFFFFF AND PUSH20 0xFFFFFFFFFFFFFFFFFFFFFFFFFFFFFFFFFFFFFFFF AND DUP2 MSTORE PUSH1 0x20 ADD SWAP1 DUP2 MSTORE PUSH1 0x20 ADD PUSH0 KECCAK256 DUP2 DUP2 SLOAD DUP2 LT PUSH2 0x9DD JUMPI PUSH2 0x9DC PUSH2 0x1323 JUMP JUMPDEST JUMPDEST SWAP1 PUSH0 MSTORE PUSH1 0x20 PUSH0 KECCAK256 ADD PUSH0 PUSH2 0x9F0 SWAP2 SWAP1 PUSH2 0xAAA JUMP JUMPDEST POP JUMP JUMPDEST PUSH1 0x1 PUSH0 SWAP1 SLOAD SWAP1 PUSH2 0x100 EXP SWAP1 DIV PUSH20 0xFFFFFFFFFFFFFFFFFFFFFFFFFFFFFFFFFFFFFFFF AND DUP2 JUMP JUMPDEST PUSH1 0x5 DUP2 DUP2 SLOAD DUP2 LT PUSH2 0xA27 JUMPI PUSH0 DUP1 REVERT JUMPDEST SWAP1 PUSH0 MSTORE PUSH1 0x20 PUSH0 KECCAK256 ADD PUSH0 SWAP2 POP SLOAD SWAP1 PUSH2 0x100 EXP SWAP1 DIV PUSH20 0xFFFFFFFFFFFFFFFFFFFFFFFFFFFFFFFFFFFFFFFF AND DUP2 JUMP JUMPDEST DUP3 DUP1 SLOAD DUP3 DUP3 SSTORE SWAP1 PUSH0 MSTORE PUSH1 0x20 PUSH0 KECCAK256 SWAP1 DUP2 ADD SWAP3 DUP3 ISZERO PUSH2 0xA99 JUMPI SWAP2 PUSH1 0x20 MUL DUP3 ADD JUMPDEST DUP3 DUP2 GT ISZERO PUSH2 0xA98 JUMPI DUP3 MLOAD DUP3 SWAP1 DUP2 PUSH2 0xA88 SWAP2 SWAP1 PUSH2 0x15A9 JUMP JUMPDEST POP SWAP2 PUSH1 0x20 ADD SWAP2 SWAP1 PUSH1 0x1 ADD SWAP1 PUSH2 0xA71 JUMP JUMPDEST JUMPDEST POP SWAP1 POP PUSH2 0xAA6 SWAP2 SWAP1 PUSH2 0xAC8 JUMP JUMPDEST POP SWAP1 JUMP JUMPDEST POP DUP1 SLOAD PUSH0 DUP3 SSTORE SWAP1 PUSH0 MSTORE PUSH1 0x20 PUSH0 KECCAK256 SWAP1 DUP2 ADD SWAP1 PUSH2 0xAC5 SWAP2 SWAP1 PUSH2 0xAC8 JUMP JUMPDEST POP JUMP JUMPDEST JUMPDEST DUP1 DUP3 GT ISZERO PUSH2 0xAE7 JUMPI PUSH0 DUP2 DUP2 PUSH2 0xADE SWAP2 SWAP1 PUSH2 0xAEB JUMP JUMPDEST POP PUSH1 0x1 ADD PUSH2 0xAC9 JUMP JUMPDEST POP SWAP1 JUMP JUMPDEST POP DUP1 SLOAD PUSH2 0xAF7 SWAP1 PUSH2 0x13E5 JUMP JUMPDEST PUSH0 DUP3 SSTORE DUP1 PUSH1 0x1F LT PUSH2 0xB08 JUMPI POP PUSH2 0xB25 JUMP JUMPDEST PUSH1 0x1F ADD PUSH1 0x20 SWAP1 DIV SWAP1 PUSH0 MSTORE PUSH1 0x20 PUSH0 KECCAK256 SWAP1 DUP2 ADD SWAP1 PUSH2 0xB24 SWAP2 SWAP1 PUSH2 0xB28 JUMP JUMPDEST JUMPDEST POP JUMP JUMPDEST JUMPDEST DUP1 DUP3 GT ISZERO PUSH2 0xB3F JUMPI PUSH0 DUP2 PUSH0 SWAP1 SSTORE POP PUSH1 0x1 ADD PUSH2 0xB29 JUMP JUMPDEST POP SWAP1 JUMP JUMPDEST PUSH0 PUSH1 0x40 MLOAD SWAP1 POP SWAP1 JUMP JUMPDEST PUSH0 DUP1 REVERT JUMPDEST PUSH0 DUP1 REVERT JUMPDEST PUSH0 DUP2 SWAP1 POP SWAP2 SWAP1 POP JUMP JUMPDEST PUSH2 0xB66 DUP2 PUSH2 0xB54 JUMP JUMPDEST DUP2 EQ PUSH2 0xB70 JUMPI PUSH0 DUP1 REVERT JUMPDEST POP JUMP JUMPDEST PUSH0 DUP2 CALLDATALOAD SWAP1 POP PUSH2 0xB81 DUP2 PUSH2 0xB5D JUMP JUMPDEST SWAP3 SWAP2 POP POP JUMP JUMPDEST PUSH0 DUP1 REVERT JUMPDEST PUSH0 DUP1 REVERT JUMPDEST PUSH0 PUSH1 0x1F NOT PUSH1 0x1F DUP4 ADD AND SWAP1 POP SWAP2 SWAP1 POP JUMP JUMPDEST PUSH32 0x4E487B7100000000000000000000000000000000000000000000000000000000 PUSH0 MSTORE PUSH1 0x41 PUSH1 0x4 MSTORE PUSH1 0x24 PUSH0 REVERT JUMPDEST PUSH2 0xBD5 DUP3 PUSH2 0xB8F JUMP JUMPDEST DUP2 ADD DUP2 DUP2 LT PUSH8 0xFFFFFFFFFFFFFFFF DUP3 GT OR ISZERO PUSH2 0xBF4 JUMPI PUSH2 0xBF3 PUSH2 0xB9F JUMP JUMPDEST JUMPDEST DUP1 PUSH1 0x40 MSTORE POP POP POP JUMP JUMPDEST PUSH0 PUSH2 0xC06 PUSH2 0xB43 JUMP JUMPDEST SWAP1 POP PUSH2 0xC12 DUP3 DUP3 PUSH2 0xBCC JUMP JUMPDEST SWAP2 SWAP1 POP JUMP JUMPDEST PUSH0 PUSH8 0xFFFFFFFFFFFFFFFF DUP3 GT ISZERO PUSH2 0xC31 JUMPI PUSH2 0xC30 PUSH2 0xB9F JUMP JUMPDEST JUMPDEST PUSH2 0xC3A DUP3 PUSH2 0xB8F JUMP JUMPDEST SWAP1 POP PUSH1 0x20 DUP2 ADD SWAP1 POP SWAP2 SWAP1 POP JUMP JUMPDEST DUP3 DUP2 DUP4 CALLDATACOPY PUSH0 DUP4 DUP4 ADD MSTORE POP POP POP JUMP JUMPDEST PUSH0 PUSH2 0xC67 PUSH2 0xC62 DUP5 PUSH2 0xC17 JUMP JUMPDEST PUSH2 0xBFD JUMP JUMPDEST SWAP1 POP DUP3 DUP2 MSTORE PUSH1 0x20 DUP2 ADD DUP5 DUP5 DUP5 ADD GT ISZERO PUSH2 0xC83 JUMPI PUSH2 0xC82 PUSH2 0xB8B JUMP JUMPDEST JUMPDEST PUSH2 0xC8E DUP5 DUP3 DUP6 PUSH2 0xC47 JUMP JUMPDEST POP SWAP4 SWAP3 POP POP POP JUMP JUMPDEST PUSH0 DUP3 PUSH1 0x1F DUP4 ADD SLT PUSH2 0xCAA JUMPI PUSH2 0xCA9 PUSH2 0xB87 JUMP JUMPDEST JUMPDEST DUP2 CALLDATALOAD PUSH2 0xCBA DUP5 DUP3 PUSH1 0x20 DUP7 ADD PUSH2 0xC55 JUMP JUMPDEST SWAP2 POP POP SWAP3 SWAP2 POP POP JUMP JUMPDEST PUSH0 DUP1 PUSH0 PUSH1 0x60 DUP5 DUP7 SUB SLT ISZERO PUSH2 0xCDA JUMPI PUSH2 0xCD9 PUSH2 0xB4C JUMP JUMPDEST JUMPDEST PUSH0 PUSH2 0xCE7 DUP7 DUP3 DUP8 ADD PUSH2 0xB73 JUMP JUMPDEST SWAP4 POP POP PUSH1 0x20 PUSH2 0xCF8 DUP7 DUP3 DUP8 ADD PUSH2 0xB73 JUMP JUMPDEST SWAP3 POP POP PUSH1 0x40 DUP5 ADD CALLDATALOAD PUSH8 0xFFFFFFFFFFFFFFFF DUP2 GT ISZERO PUSH2 0xD19 JUMPI PUSH2 0xD18 PUSH2 0xB50 JUMP JUMPDEST JUMPDEST PUSH2 0xD25 DUP7 DUP3 DUP8 ADD PUSH2 0xC96 JUMP JUMPDEST SWAP2 POP POP SWAP3 POP SWAP3 POP SWAP3 JUMP JUMPDEST PUSH2 0xD38 DUP2 PUSH2 0xB54 JUMP JUMPDEST DUP3 MSTORE POP POP JUMP JUMPDEST PUSH0 PUSH1 0x20 DUP3 ADD SWAP1 POP PUSH2 0xD51 PUSH0 DUP4 ADD DUP5 PUSH2 0xD2F JUMP JUMPDEST SWAP3 SWAP2 POP POP JUMP JUMPDEST PUSH0 PUSH8 0xFFFFFFFFFFFFFFFF DUP3 GT ISZERO PUSH2 0xD71 JUMPI PUSH2 0xD70 PUSH2 0xB9F JUMP JUMPDEST JUMPDEST PUSH1 0x20 DUP3 MUL SWAP1 POP PUSH1 0x20 DUP2 ADD SWAP1 POP SWAP2 SWAP1 POP JUMP JUMPDEST PUSH0 DUP1 REVERT JUMPDEST PUSH0 PUSH2 0xD98 PUSH2 0xD93 DUP5 PUSH2 0xD57 JUMP JUMPDEST PUSH2 0xBFD JUMP JUMPDEST SWAP1 POP DUP1 DUP4 DUP3 MSTORE PUSH1 0x20 DUP3 ADD SWAP1 POP PUSH1 0x20 DUP5 MUL DUP4 ADD DUP6 DUP2 GT ISZERO PUSH2 0xDBB JUMPI PUSH2 0xDBA PUSH2 0xD82 JUMP JUMPDEST JUMPDEST DUP4 JUMPDEST DUP2 DUP2 LT ISZERO PUSH2 0xE02 JUMPI DUP1 CALLDATALOAD PUSH8 0xFFFFFFFFFFFFFFFF DUP2 GT ISZERO PUSH2 0xDE0 JUMPI PUSH2 0xDDF PUSH2 0xB87 JUMP JUMPDEST JUMPDEST DUP1 DUP7 ADD PUSH2 0xDED DUP10 DUP3 PUSH2 0xC96 JUMP JUMPDEST DUP6 MSTORE PUSH1 0x20 DUP6 ADD SWAP5 POP POP POP PUSH1 0x20 DUP2 ADD SWAP1 POP PUSH2 0xDBD JUMP JUMPDEST POP POP POP SWAP4 SWAP3 POP POP POP JUMP JUMPDEST PUSH0 DUP3 PUSH1 0x1F DUP4 ADD SLT PUSH2 0xE20 JUMPI PUSH2 0xE1F PUSH2 0xB87 JUMP JUMPDEST JUMPDEST DUP2 CALLDATALOAD PUSH2 0xE30 DUP5 DUP3 PUSH1 0x20 DUP7 ADD PUSH2 0xD86 JUMP JUMPDEST SWAP2 POP POP SWAP3 SWAP2 POP POP JUMP JUMPDEST PUSH0 PUSH1 0x20 DUP3 DUP5 SUB SLT ISZERO PUSH2 0xE4E JUMPI PUSH2 0xE4D PUSH2 0xB4C JUMP JUMPDEST JUMPDEST PUSH0 DUP3 ADD CALLDATALOAD PUSH8 0xFFFFFFFFFFFFFFFF DUP2 GT ISZERO PUSH2 0xE6B JUMPI PUSH2 0xE6A PUSH2 0xB50 JUMP JUMPDEST JUMPDEST PUSH2 0xE77 DUP5 DUP3 DUP6 ADD PUSH2 0xE0C JUMP JUMPDEST SWAP2 POP POP SWAP3 SWAP2 POP POP JUMP JUMPDEST PUSH0 DUP1 PUSH1 0x40 DUP4 DUP6 SUB SLT ISZERO PUSH2 0xE96 JUMPI PUSH2 0xE95 PUSH2 0xB4C JUMP JUMPDEST JUMPDEST PUSH0 PUSH2 0xEA3 DUP6 DUP3 DUP7 ADD PUSH2 0xB73 JUMP JUMPDEST SWAP3 POP POP PUSH1 0x20 PUSH2 0xEB4 DUP6 DUP3 DUP7 ADD PUSH2 0xB73 JUMP JUMPDEST SWAP2 POP POP SWAP3 POP SWAP3 SWAP1 POP JUMP JUMPDEST PUSH0 DUP2 MLOAD SWAP1 POP SWAP2 SWAP1 POP JUMP JUMPDEST PUSH0 DUP3 DUP3 MSTORE PUSH1 0x20 DUP3 ADD SWAP1 POP SWAP3 SWAP2 POP POP JUMP JUMPDEST PUSH0 JUMPDEST DUP4 DUP2 LT ISZERO PUSH2 0xEF5 JUMPI DUP1 DUP3 ADD MLOAD DUP2 DUP5 ADD MSTORE PUSH1 0x20 DUP2 ADD SWAP1 POP PUSH2 0xEDA JUMP JUMPDEST PUSH0 DUP5 DUP5 ADD MSTORE POP POP POP POP JUMP JUMPDEST PUSH0 PUSH2 0xF0A DUP3 PUSH2 0xEBE JUMP JUMPDEST PUSH2 0xF14 DUP2 DUP6 PUSH2 0xEC8 JUMP JUMPDEST SWAP4 POP PUSH2 0xF24 DUP2 DUP6 PUSH1 0x20 DUP7 ADD PUSH2 0xED8 JUMP JUMPDEST PUSH2 0xF2D DUP2 PUSH2 0xB8F JUMP JUMPDEST DUP5 ADD SWAP2 POP POP SWAP3 SWAP2 POP POP JUMP JUMPDEST PUSH0 PUSH1 0x20 DUP3 ADD SWAP1 POP DUP2 DUP2 SUB PUSH0 DUP4 ADD MSTORE PUSH2 0xF50 DUP2 DUP5 PUSH2 0xF00 JUMP JUMPDEST SWAP1 POP SWAP3 SWAP2 POP POP JUMP JUMPDEST PUSH0 PUSH20 0xFFFFFFFFFFFFFFFFFFFFFFFFFFFFFFFFFFFFFFFF DUP3 AND SWAP1 POP SWAP2 SWAP1 POP JUMP JUMPDEST PUSH0 PUSH2 0xF81 DUP3 PUSH2 0xF58 JUMP JUMPDEST SWAP1 POP SWAP2 SWAP1 POP JUMP JUMPDEST PUSH2 0xF91 DUP2 PUSH2 0xF77 JUMP JUMPDEST DUP2 EQ PUSH2 0xF9B JUMPI PUSH0 DUP1 REVERT JUMPDEST POP JUMP JUMPDEST PUSH0 DUP2 CALLDATALOAD SWAP1 POP PUSH2 0xFAC DUP2 PUSH2 0xF88 JUMP JUMPDEST SWAP3 SWAP2 POP POP JUMP JUMPDEST PUSH0 PUSH1 0x20 DUP3 DUP5 SUB SLT ISZERO PUSH2 0xFC7 JUMPI PUSH2 0xFC6 PUSH2 0xB4C JUMP JUMPDEST JUMPDEST PUSH0 PUSH2 0xFD4 DUP5 DUP3 DUP6 ADD PUSH2 0xF9E JUMP JUMPDEST SWAP2 POP POP SWAP3 SWAP2 POP POP JUMP JUMPDEST PUSH0 DUP2 MLOAD SWAP1 POP SWAP2 SWAP1 POP JUMP JUMPDEST PUSH0 DUP3 DUP3 MSTORE PUSH1 0x20 DUP3 ADD SWAP1 POP SWAP3 SWAP2 POP POP JUMP JUMPDEST PUSH0 DUP2 SWAP1 POP PUSH1 0x20 DUP3 ADD SWAP1 POP SWAP2 SWAP1 POP JUMP JUMPDEST PUSH0 DUP2 MLOAD SWAP1 POP SWAP2 SWAP1 POP JUMP JUMPDEST PUSH0 DUP3 DUP3 MSTORE PUSH1 0x20 DUP3 ADD SWAP1 POP SWAP3 SWAP2 POP POP JUMP JUMPDEST PUSH0 DUP2 SWAP1 POP PUSH1 0x20 DUP3 ADD SWAP1 POP SWAP2 SWAP1 POP JUMP JUMPDEST PUSH0 DUP3 DUP3 MSTORE PUSH1 0x20 DUP3 ADD SWAP1 POP SWAP3 SWAP2 POP POP JUMP JUMPDEST PUSH0 PUSH2 0x1049 DUP3 PUSH2 0xEBE JUMP JUMPDEST PUSH2 0x1053 DUP2 DUP6 PUSH2 0x102F JUMP JUMPDEST SWAP4 POP PUSH2 0x1063 DUP2 DUP6 PUSH1 0x20 DUP7 ADD PUSH2 0xED8 JUMP JUMPDEST PUSH2 0x106C DUP2 PUSH2 0xB8F JUMP JUMPDEST DUP5 ADD SWAP2 POP POP SWAP3 SWAP2 POP POP JUMP JUMPDEST PUSH0 PUSH2 0x1082 DUP4 DUP4 PUSH2 0x103F JUMP JUMPDEST SWAP1 POP SWAP3 SWAP2 POP POP JUMP JUMPDEST PUSH0 PUSH1 0x20 DUP3 ADD SWAP1 POP SWAP2 SWAP1 POP JUMP JUMPDEST PUSH0 PUSH2 0x10A0 DUP3 PUSH2 0x1006 JUMP JUMPDEST PUSH2 0x10AA DUP2 DUP6 PUSH2 0x1010 JUMP JUMPDEST SWAP4 POP DUP4 PUSH1 0x20 DUP3 MUL DUP6 ADD PUSH2 0x10BC DUP6 PUSH2 0x1020 JUMP JUMPDEST DUP1 PUSH0 JUMPDEST DUP6 DUP2 LT ISZERO PUSH2 0x10F7 JUMPI DUP5 DUP5 SUB DUP10 MSTORE DUP2 MLOAD PUSH2 0x10D8 DUP6 DUP3 PUSH2 0x1077 JUMP JUMPDEST SWAP5 POP PUSH2 0x10E3 DUP4 PUSH2 0x108A JUMP JUMPDEST SWAP3 POP PUSH1 0x20 DUP11 ADD SWAP10 POP POP PUSH1 0x1 DUP2 ADD SWAP1 POP PUSH2 0x10BF JUMP JUMPDEST POP DUP3 SWAP8 POP DUP8 SWAP6 POP POP POP POP POP POP SWAP3 SWAP2 POP POP JUMP JUMPDEST PUSH0 PUSH2 0x1114 DUP4 DUP4 PUSH2 0x1096 JUMP JUMPDEST SWAP1 POP SWAP3 SWAP2 POP POP JUMP JUMPDEST PUSH0 PUSH1 0x20 DUP3 ADD SWAP1 POP SWAP2 SWAP1 POP JUMP JUMPDEST PUSH0 PUSH2 0x1132 DUP3 PUSH2 0xFDD JUMP JUMPDEST PUSH2 0x113C DUP2 DUP6 PUSH2 0xFE7 JUMP JUMPDEST SWAP4 POP DUP4 PUSH1 0x20 DUP3 MUL DUP6 ADD PUSH2 0x114E DUP6 PUSH2 0xFF7 JUMP JUMPDEST DUP1 PUSH0 JUMPDEST DUP6 DUP2 LT ISZERO PUSH2 0x1189 JUMPI DUP5 DUP5 SUB DUP10 MSTORE DUP2 MLOAD PUSH2 0x116A DUP6 DUP3 PUSH2 0x1109 JUMP JUMPDEST SWAP5 POP PUSH2 0x1175 DUP4 PUSH2 0x111C JUMP JUMPDEST SWAP3 POP PUSH1 0x20 DUP11 ADD SWAP10 POP POP PUSH1 0x1 DUP2 ADD SWAP1 POP PUSH2 0x1151 JUMP JUMPDEST POP DUP3 SWAP8 POP DUP8 SWAP6 POP POP POP POP POP POP SWAP3 SWAP2 POP POP JUMP JUMPDEST PUSH0 PUSH1 0x20 DUP3 ADD SWAP1 POP DUP2 DUP2 SUB PUSH0 DUP4 ADD MSTORE PUSH2 0x11B3 DUP2 DUP5 PUSH2 0x1128 JUMP JUMPDEST SWAP1 POP SWAP3 SWAP2 POP POP JUMP JUMPDEST PUSH0 DUP2 SWAP1 POP SWAP2 SWAP1 POP JUMP JUMPDEST PUSH0 PUSH2 0x11DE PUSH2 0x11D9 PUSH2 0x11D4 DUP5 PUSH2 0xF58 JUMP JUMPDEST PUSH2 0x11BB JUMP JUMPDEST PUSH2 0xF58 JUMP JUMPDEST SWAP1 POP SWAP2 SWAP1 POP JUMP JUMPDEST PUSH0 PUSH2 0x11EF DUP3 PUSH2 0x11C4 JUMP JUMPDEST SWAP1 POP SWAP2 SWAP1 POP JUMP JUMPDEST PUSH0 PUSH2 0x1200 DUP3 PUSH2 0x11E5 JUMP JUMPDEST SWAP1 POP SWAP2 SWAP1 POP JUMP JUMPDEST PUSH2 0x1210 DUP2 PUSH2 0x11F6 JUMP JUMPDEST DUP3 MSTORE POP POP JUMP JUMPDEST PUSH0 PUSH1 0x20 DUP3 ADD SWAP1 POP PUSH2 0x1229 PUSH0 DUP4 ADD DUP5 PUSH2 0x1207 JUMP JUMPDEST SWAP3 SWAP2 POP POP JUMP JUMPDEST PUSH0 PUSH1 0x20 DUP3 DUP5 SUB SLT ISZERO PUSH2 0x1244 JUMPI PUSH2 0x1243 PUSH2 0xB4C JUMP JUMPDEST JUMPDEST PUSH0 PUSH2 0x1251 DUP5 DUP3 DUP6 ADD PUSH2 0xB73 JUMP JUMPDEST SWAP2 POP POP SWAP3 SWAP2 POP POP JUMP JUMPDEST PUSH2 0x1263 DUP2 PUSH2 0xF77 JUMP JUMPDEST DUP3 MSTORE POP POP JUMP JUMPDEST PUSH0 PUSH1 0x20 DUP3 ADD SWAP1 POP PUSH2 0x127C PUSH0 DUP4 ADD DUP5 PUSH2 0x125A JUMP JUMPDEST SWAP3 SWAP2 POP POP JUMP JUMPDEST PUSH0 PUSH2 0x128C DUP3 PUSH2 0x11E5 JUMP JUMPDEST SWAP1 POP SWAP2 SWAP1 POP JUMP JUMPDEST PUSH2 0x129C DUP2 PUSH2 0x1282 JUMP JUMPDEST DUP3 MSTORE POP POP JUMP JUMPDEST PUSH0 PUSH1 0x20 DUP3 ADD SWAP1 POP PUSH2 0x12B5 PUSH0 DUP4 ADD DUP5 PUSH2 0x1293 JUMP JUMPDEST SWAP3 SWAP2 POP POP JUMP JUMPDEST PUSH32 0x4C69737420696E646578206F7574206F6620626F756E64730000000000000000 PUSH0 DUP3 ADD MSTORE POP JUMP JUMPDEST PUSH0 PUSH2 0x12EF PUSH1 0x18 DUP4 PUSH2 0xEC8 JUMP JUMPDEST SWAP2 POP PUSH2 0x12FA DUP3 PUSH2 0x12BB JUMP JUMPDEST PUSH1 0x20 DUP3 ADD SWAP1 POP SWAP2 SWAP1 POP JUMP JUMPDEST PUSH0 PUSH1 0x20 DUP3 ADD SWAP1 POP DUP2 DUP2 SUB PUSH0 DUP4 ADD MSTORE PUSH2 0x131C DUP2 PUSH2 0x12E3 JUMP JUMPDEST SWAP1 POP SWAP2 SWAP1 POP JUMP JUMPDEST PUSH32 0x4E487B7100000000000000000000000000000000000000000000000000000000 PUSH0 MSTORE PUSH1 0x32 PUSH1 0x4 MSTORE PUSH1 0x24 PUSH0 REVERT JUMPDEST PUSH32 0x496E666F20696E646578206F7574206F6620626F756E64730000000000000000 PUSH0 DUP3 ADD MSTORE POP JUMP JUMPDEST PUSH0 PUSH2 0x1384 PUSH1 0x18 DUP4 PUSH2 0xEC8 JUMP JUMPDEST SWAP2 POP PUSH2 0x138F DUP3 PUSH2 0x1350 JUMP JUMPDEST PUSH1 0x20 DUP3 ADD SWAP1 POP SWAP2 SWAP1 POP JUMP JUMPDEST PUSH0 PUSH1 0x20 DUP3 ADD SWAP1 POP DUP2 DUP2 SUB PUSH0 DUP4 ADD MSTORE PUSH2 0x13B1 DUP2 PUSH2 0x1378 JUMP JUMPDEST SWAP1 POP SWAP2 SWAP1 POP JUMP JUMPDEST PUSH32 0x4E487B7100000000000000000000000000000000000000000000000000000000 PUSH0 MSTORE PUSH1 0x22 PUSH1 0x4 MSTORE PUSH1 0x24 PUSH0 REVERT JUMPDEST PUSH0 PUSH1 0x2 DUP3 DIV SWAP1 POP PUSH1 0x1 DUP3 AND DUP1 PUSH2 0x13FC JUMPI PUSH1 0x7F DUP3 AND SWAP2 POP JUMPDEST PUSH1 0x20 DUP3 LT DUP2 SUB PUSH2 0x140F JUMPI PUSH2 0x140E PUSH2 0x13B8 JUMP JUMPDEST JUMPDEST POP SWAP2 SWAP1 POP JUMP JUMPDEST PUSH0 DUP2 SWAP1 POP DUP2 PUSH0 MSTORE PUSH1 0x20 PUSH0 KECCAK256 SWAP1 POP SWAP2 SWAP1 POP JUMP JUMPDEST PUSH0 PUSH1 0x20 PUSH1 0x1F DUP4 ADD DIV SWAP1 POP SWAP2 SWAP1 POP JUMP JUMPDEST PUSH0 DUP3 DUP3 SHL SWAP1 POP SWAP3 SWAP2 POP POP JUMP JUMPDEST PUSH0 PUSH1 0x8 DUP4 MUL PUSH2 0x1471 PUSH32 0xFFFFFFFFFFFFFFFFFFFFFFFFFFFFFFFFFFFFFFFFFFFFFFFFFFFFFFFFFFFFFFFF DUP3 PUSH2 0x1436 JUMP JUMPDEST PUSH2 0x147B DUP7 DUP4 PUSH2 0x1436 JUMP JUMPDEST SWAP6 POP DUP1 NOT DUP5 AND SWAP4 POP DUP1 DUP7 AND DUP5 OR SWAP3 POP POP POP SWAP4 SWAP3 POP POP POP JUMP JUMPDEST PUSH0 PUSH2 0x14AD PUSH2 0x14A8 PUSH2 0x14A3 DUP5 PUSH2 0xB54 JUMP JUMPDEST PUSH2 0x11BB JUMP JUMPDEST PUSH2 0xB54 JUMP JUMPDEST SWAP1 POP SWAP2 SWAP1 POP JUMP JUMPDEST PUSH0 DUP2 SWAP1 POP SWAP2 SWAP1 POP JUMP JUMPDEST PUSH2 0x14C6 DUP4 PUSH2 0x1493 JUMP JUMPDEST PUSH2 0x14DA PUSH2 0x14D2 DUP3 PUSH2 0x14B4 JUMP JUMPDEST DUP5 DUP5 SLOAD PUSH2 0x1442 JUMP JUMPDEST DUP3 SSTORE POP POP POP POP JUMP JUMPDEST PUSH0 SWAP1 JUMP JUMPDEST PUSH2 0x14EE PUSH2 0x14E2 JUMP JUMPDEST PUSH2 0x14F9 DUP2 DUP5 DUP5 PUSH2 0x14BD JUMP JUMPDEST POP POP POP JUMP JUMPDEST JUMPDEST DUP2 DUP2 LT ISZERO PUSH2 0x151C JUMPI PUSH2 0x1511 PUSH0 DUP3 PUSH2 0x14E6 JUMP JUMPDEST PUSH1 0x1 DUP2 ADD SWAP1 POP PUSH2 0x14FF JUMP JUMPDEST POP POP JUMP JUMPDEST PUSH1 0x1F DUP3 GT ISZERO PUSH2 0x1561 JUMPI PUSH2 0x1532 DUP2 PUSH2 0x1415 JUMP JUMPDEST PUSH2 0x153B DUP5 PUSH2 0x1427 JUMP JUMPDEST DUP2 ADD PUSH1 0x20 DUP6 LT ISZERO PUSH2 0x154A JUMPI DUP2 SWAP1 POP JUMPDEST PUSH2 0x155E PUSH2 0x1556 DUP6 PUSH2 0x1427 JUMP JUMPDEST DUP4 ADD DUP3 PUSH2 0x14FE JUMP JUMPDEST POP POP JUMPDEST POP POP POP JUMP JUMPDEST PUSH0 DUP3 DUP3 SHR SWAP1 POP SWAP3 SWAP2 POP POP JUMP JUMPDEST PUSH0 PUSH2 0x1581 PUSH0 NOT DUP5 PUSH1 0x8 MUL PUSH2 0x1566 JUMP JUMPDEST NOT DUP1 DUP4 AND SWAP2 POP POP SWAP3 SWAP2 POP POP JUMP JUMPDEST PUSH0 PUSH2 0x1599 DUP4 DUP4 PUSH2 0x1572 JUMP JUMPDEST SWAP2 POP DUP3 PUSH1 0x2 MUL DUP3 OR SWAP1 POP SWAP3 SWAP2 POP POP JUMP JUMPDEST PUSH2 0x15B2 DUP3 PUSH2 0xEBE JUMP JUMPDEST PUSH8 0xFFFFFFFFFFFFFFFF DUP2 GT ISZERO PUSH2 0x15CB JUMPI PUSH2 0x15CA PUSH2 0xB9F JUMP JUMPDEST JUMPDEST PUSH2 0x15D5 DUP3 SLOAD PUSH2 0x13E5 JUMP JUMPDEST PUSH2 0x15E0 DUP3 DUP3 DUP6 PUSH2 0x1520 JUMP JUMPDEST PUSH0 PUSH1 0x20 SWAP1 POP PUSH1 0x1F DUP4 GT PUSH1 0x1 DUP2 EQ PUSH2 0x1611 JUMPI PUSH0 DUP5 ISZERO PUSH2 0x15FF JUMPI DUP3 DUP8 ADD MLOAD SWAP1 POP JUMPDEST PUSH2 0x1609 DUP6 DUP3 PUSH2 0x158E JUMP JUMPDEST DUP7 SSTORE POP PUSH2 0x1670 JUMP JUMPDEST PUSH1 0x1F NOT DUP5 AND PUSH2 0x161F DUP7 PUSH2 0x1415 JUMP JUMPDEST PUSH0 JUMPDEST DUP3 DUP2 LT ISZERO PUSH2 0x1646 JUMPI DUP5 DUP10 ADD MLOAD DUP3 SSTORE PUSH1 0x1 DUP3 ADD SWAP2 POP PUSH1 0x20 DUP6 ADD SWAP5 POP PUSH1 0x20 DUP2 ADD SWAP1 POP PUSH2 0x1621 JUMP JUMPDEST DUP7 DUP4 LT ISZERO PUSH2 0x1663 JUMPI DUP5 DUP10 ADD MLOAD PUSH2 0x165F PUSH1 0x1F DUP10 AND DUP3 PUSH2 0x1572 JUMP JUMPDEST DUP4 SSTORE POP JUMPDEST PUSH1 0x1 PUSH1 0x2 DUP9 MUL ADD DUP9 SSTORE POP POP POP JUMPDEST POP POP POP POP POP POP JUMP JUMPDEST PUSH0 DUP2 MLOAD SWAP1 POP PUSH2 0x1686 DUP2 PUSH2 0xB5D JUMP JUMPDEST SWAP3 SWAP2 POP POP JUMP JUMPDEST PUSH0 PUSH1 0x20 DUP3 DUP5 SUB SLT ISZERO PUSH2 0x16A1 JUMPI PUSH2 0x16A0 PUSH2 0xB4C JUMP JUMPDEST JUMPDEST PUSH0 PUSH2 0x16AE DUP5 DUP3 DUP6 ADD PUSH2 0x1678 JUMP JUMPDEST SWAP2 POP POP SWAP3 SWAP2 POP POP JUMP JUMPDEST PUSH0 DUP2 MLOAD SWAP1 POP PUSH2 0x16C5 DUP2 PUSH2 0xF88 JUMP JUMPDEST SWAP3 SWAP2 POP POP JUMP JUMPDEST PUSH0 PUSH1 0x20 DUP3 DUP5 SUB SLT ISZERO PUSH2 0x16E0 JUMPI PUSH2 0x16DF PUSH2 0xB4C JUMP JUMPDEST JUMPDEST PUSH0 PUSH2 0x16ED DUP5 DUP3 DUP6 ADD PUSH2 0x16B7 JUMP JUMPDEST SWAP2 POP POP SWAP3 SWAP2 POP POP JUMP JUMPDEST PUSH32 0x4F6E6C792073656C6C65722063616E2063616C6C20746869732066756E637469 PUSH0 DUP3 ADD MSTORE PUSH32 0x6F6E000000000000000000000000000000000000000000000000000000000000 PUSH1 0x20 DUP3 ADD MSTORE POP JUMP JUMPDEST PUSH0 PUSH2 0x1750 PUSH1 0x22 DUP4 PUSH2 0xEC8 JUMP JUMPDEST SWAP2 POP PUSH2 0x175B DUP3 PUSH2 0x16F6 JUMP JUMPDEST PUSH1 0x40 DUP3 ADD SWAP1 POP SWAP2 SWAP1 POP JUMP JUMPDEST PUSH0 PUSH1 0x20 DUP3 ADD SWAP1 POP DUP2 DUP2 SUB PUSH0 DUP4 ADD MSTORE PUSH2 0x177D DUP2 PUSH2 0x1744 JUMP JUMPDEST SWAP1 POP SWAP2 SWAP1 POP JUMP INVALID LOG2 PUSH5 0x6970667358 0x22 SLT KECCAK256 0xD 0x26 DUP14 STATICCALL 0x2C 0x4C SWAP5 0xDD JUMPI PUSH2 0x8375 LOG4 SWAP10 LT BASEFEE PUSH12 0x1BE067C2BFD1DA361EA98A6D CALLER DUP14 0xD1 PUSH5 0x736F6C6343 STOP ADDMOD AND STOP CALLER "
				},
				"gasEstimates": {
					"creation": {
						"codeDepositCost": "1214800",
						"executionCost": "infinite",
						"totalCost": "infinite"
					},
					"external": {
						"addInformationList(string[])": "infinite",
						"buyerContract()": "infinite",
						"buyers(uint256)": "5032",
						"deleteInformationList(uint256)": "infinite",
						"getListCount()": "2463",
						"getUserInformation(address)": "infinite",
						"informationList(uint256,uint256)": "infinite",
						"sellerContract()": "infinite",
						"sellers(uint256)": "4966",
						"updateInformation(uint256,uint256,string)": "infinite"
					}
				},
				"methodIdentifiers": {
					"addInformationList(string[])": "42b6d145",
					"buyerContract()": "dedfb104",
					"buyers(uint256)": "f2aa8218",
					"deleteInformationList(uint256)": "db3fb9d8",
					"getListCount()": "2ce37b10",
					"getUserInformation(address)": "9862d5f0",
					"informationList(uint256,uint256)": "8c7c2399",
					"sellerContract()": "ccbf4611",
					"sellers(uint256)": "cee26ed5",
					"updateInformation(uint256,uint256,string)": "2ab23fc9"
				}
			},
			"storageLayout": {
				"storage": [
					{
						"astId": 150,
						"contract": "DataTradingTest/StorageData.sol:StorageData",
						"label": "sellerContract",
						"offset": 0,
						"slot": "0",
						"type": "t_contract(Seller)143"
					},
					{
						"astId": 153,
						"contract": "DataTradingTest/StorageData.sol:StorageData",
						"label": "buyerContract",
						"offset": 0,
						"slot": "1",
						"type": "t_contract(Buyer)71"
					},
					{
						"astId": 157,
						"contract": "DataTradingTest/StorageData.sol:StorageData",
						"label": "informationList",
						"offset": 0,
						"slot": "2",
						"type": "t_array(t_array(t_string_storage)dyn_storage)dyn_storage"
					},
					{
						"astId": 163,
						"contract": "DataTradingTest/StorageData.sol:StorageData",
						"label": "userInformation",
						"offset": 0,
						"slot": "3",
						"type": "t_mapping(t_address,t_array(t_array(t_string_storage)dyn_storage)dyn_storage)"
					},
					{
						"astId": 166,
						"contract": "DataTradingTest/StorageData.sol:StorageData",
						"label": "sellers",
						"offset": 0,
						"slot": "4",
						"type": "t_array(t_address)dyn_storage"
					},
					{
						"astId": 169,
						"contract": "DataTradingTest/StorageData.sol:StorageData",
						"label": "buyers",
						"offset": 0,
						"slot": "5",
						"type": "t_array(t_address)dyn_storage"
					}
				],
				"types": {
					"t_address": {
						"encoding": "inplace",
						"label": "address",
						"numberOfBytes": "20"
					},
					"t_array(t_address)dyn_storage": {
						"base": "t_address",
						"encoding": "dynamic_array",
						"label": "address[]",
						"numberOfBytes": "32"
					},
					"t_array(t_array(t_string_storage)dyn_storage)dyn_storage": {
						"base": "t_array(t_string_storage)dyn_storage",
						"encoding": "dynamic_array",
						"label": "string[][]",
						"numberOfBytes": "32"
					},
					"t_array(t_string_storage)dyn_storage": {
						"base": "t_string_storage",
						"encoding": "dynamic_array",
						"label": "string[]",
						"numberOfBytes": "32"
					},
					"t_contract(Buyer)71": {
						"encoding": "inplace",
						"label": "contract Buyer",
						"numberOfBytes": "20"
					},
					"t_contract(Seller)143": {
						"encoding": "inplace",
						"label": "contract Seller",
						"numberOfBytes": "20"
					},
					"t_mapping(t_address,t_array(t_array(t_string_storage)dyn_storage)dyn_storage)": {
						"encoding": "mapping",
						"key": "t_address",
						"label": "mapping(address => string[][])",
						"numberOfBytes": "32",
						"value": "t_array(t_array(t_string_storage)dyn_storage)dyn_storage"
					},
					"t_string_storage": {
						"encoding": "bytes",
						"label": "string",
						"numberOfBytes": "32"
					}
				}
			},
			"userdoc": {
				"kind": "user",
				"methods": {},
				"version": 1
			}
		}
	}
}