{
	"DataTradingTest/UntraceableVoting.sol": {
		"UntraceableVoting": {
			"abi": [
				{
					"inputs": [
						{
							"internalType": "address",
							"name": "curveDest",
							"type": "address"
						}
					],
					"stateMutability": "nonpayable",
					"type": "constructor"
				},
				{
					"inputs": [
						{
							"internalType": "uint64",
							"name": "id",
							"type": "uint64"
						}
					],
					"name": "CompleteVote",
					"outputs": [],
					"stateMutability": "nonpayable",
					"type": "function"
				},
				{
					"inputs": [
						{
							"internalType": "uint64",
							"name": "id",
							"type": "uint64"
						},
						{
							"internalType": "address",
							"name": "candidateId",
							"type": "address"
						},
						{
							"internalType": "uint256",
							"name": "Ix",
							"type": "uint256"
						},
						{
							"internalType": "uint256",
							"name": "Iy",
							"type": "uint256"
						},
						{
							"internalType": "uint256",
							"name": "c",
							"type": "uint256"
						},
						{
							"internalType": "uint256[]",
							"name": "s",
							"type": "uint256[]"
						}
					],
					"name": "VoteAnnonymous",
					"outputs": [],
					"stateMutability": "payable",
					"type": "function"
				},
				{
					"inputs": [
						{
							"internalType": "uint64",
							"name": "id",
							"type": "uint64"
						}
					],
					"name": "VoteLeaders",
					"outputs": [
						{
							"internalType": "address[15]",
							"name": "",
							"type": "address[15]"
						},
						{
							"internalType": "uint8",
							"name": "",
							"type": "uint8"
						}
					],
					"stateMutability": "view",
					"type": "function"
				},
				{
					"inputs": [
						{
							"internalType": "uint64",
							"name": "id",
							"type": "uint64"
						},
						{
							"internalType": "address",
							"name": "candidate",
							"type": "address"
						}
					],
					"name": "VoteState",
					"outputs": [
						{
							"internalType": "bool",
							"name": "",
							"type": "bool"
						},
						{
							"internalType": "uint256",
							"name": "",
							"type": "uint256"
						}
					],
					"stateMutability": "view",
					"type": "function"
				},
				{
					"inputs": [
						{
							"internalType": "uint64",
							"name": "id",
							"type": "uint64"
						},
						{
							"internalType": "uint256[]",
							"name": "allowedVotersX",
							"type": "uint256[]"
						},
						{
							"internalType": "uint256[]",
							"name": "allowedVotersY",
							"type": "uint256[]"
						},
						{
							"internalType": "uint256",
							"name": "threashold",
							"type": "uint256"
						},
						{
							"internalType": "bool",
							"name": "ready",
							"type": "bool"
						}
					],
					"name": "addVotersToVote",
					"outputs": [],
					"stateMutability": "nonpayable",
					"type": "function"
				},
				{
					"inputs": [
						{
							"internalType": "uint64",
							"name": "id",
							"type": "uint64"
						},
						{
							"internalType": "address[]",
							"name": "candidatesIDs",
							"type": "address[]"
						}
					],
					"name": "createVote",
					"outputs": [],
					"stateMutability": "payable",
					"type": "function"
				},
				{
					"inputs": [],
					"name": "oops",
					"outputs": [],
					"stateMutability": "nonpayable",
					"type": "function"
				},
				{
					"inputs": [
						{
							"internalType": "address",
							"name": "curveDest",
							"type": "address"
						}
					],
					"name": "updateCurve",
					"outputs": [],
					"stateMutability": "nonpayable",
					"type": "function"
				},
				{
					"inputs": [
						{
							"internalType": "uint256",
							"name": "",
							"type": "uint256"
						}
					],
					"name": "votings",
					"outputs": [
						{
							"internalType": "address",
							"name": "creator",
							"type": "address"
						},
						{
							"internalType": "uint64",
							"name": "id",
							"type": "uint64"
						},
						{
							"internalType": "uint256",
							"name": "val",
							"type": "uint256"
						},
						{
							"internalType": "uint256",
							"name": "threashold",
							"type": "uint256"
						},
						{
							"internalType": "uint256",
							"name": "votecounter",
							"type": "uint256"
						},
						{
							"internalType": "bool",
							"name": "done",
							"type": "bool"
						},
						{
							"internalType": "bool",
							"name": "ready",
							"type": "bool"
						}
					],
					"stateMutability": "view",
					"type": "function"
				}
			],
			"devdoc": {
				"kind": "dev",
				"methods": {},
				"version": 1
			},
			"evm": {
				"assembly": "    /* \"DataTradingTest/UntraceableVoting.sol\":1048:11708  contract UntraceableVoting {... */\n  mstore(0x40, 0x80)\n    /* \"DataTradingTest/UntraceableVoting.sol\":1168:1420  constructor(address curveDest) {... */\n  callvalue\n  dup1\n  iszero\n  tag_1\n  jumpi\n  0x00\n  dup1\n  revert\ntag_1:\n  pop\n  mload(0x40)\n  sub(codesize, bytecodeSize)\n  dup1\n  bytecodeSize\n  dup4\n  codecopy\n  dup2\n  dup2\n  add\n  0x40\n  mstore\n  dup2\n  add\n  swap1\n  tag_2\n  swap2\n  swap1\n  tag_3\n  jump\t// in\ntag_2:\n    /* \"DataTradingTest/UntraceableVoting.sol\":1238:1239  0 */\n  0x00\n    /* \"DataTradingTest/UntraceableVoting.sol\":1217:1240  curveDest != address(0) */\n  0xffffffffffffffffffffffffffffffffffffffff\n  and\n    /* \"DataTradingTest/UntraceableVoting.sol\":1217:1226  curveDest */\n  dup2\n    /* \"DataTradingTest/UntraceableVoting.sol\":1217:1240  curveDest != address(0) */\n  0xffffffffffffffffffffffffffffffffffffffff\n  and\n  sub\n    /* \"DataTradingTest/UntraceableVoting.sol\":1209:1270  require(curveDest != address(0), \"Invalid curve destination\") */\n  tag_6\n  jumpi\n  mload(0x40)\n  0x08c379a000000000000000000000000000000000000000000000000000000000\n  dup2\n  mstore\n  0x04\n  add\n  tag_7\n  swap1\n  tag_8\n  jump\t// in\ntag_7:\n  mload(0x40)\n  dup1\n  swap2\n  sub\n  swap1\n  revert\ntag_6:\n    /* \"DataTradingTest/UntraceableVoting.sol\":1334:1343  curveDest */\n  dup1\n    /* \"DataTradingTest/UntraceableVoting.sol\":1317:1322  Curve */\n  0x00\n  dup1\n    /* \"DataTradingTest/UntraceableVoting.sol\":1317:1344  Curve = secp256k(curveDest) */\n  0x0100\n  exp\n  dup2\n  sload\n  dup2\n  0xffffffffffffffffffffffffffffffffffffffff\n  mul\n  not\n  and\n  swap1\n  dup4\n  0xffffffffffffffffffffffffffffffffffffffff\n  and\n  mul\n  or\n  swap1\n  sstore\n  pop\n    /* \"DataTradingTest/UntraceableVoting.sol\":1378:1388  msg.sender */\n  caller\n    /* \"DataTradingTest/UntraceableVoting.sol\":1370:1375  owner */\n  0x01\n  0x00\n    /* \"DataTradingTest/UntraceableVoting.sol\":1370:1388  owner = msg.sender */\n  0x0100\n  exp\n  dup2\n  sload\n  dup2\n  0xffffffffffffffffffffffffffffffffffffffff\n  mul\n  not\n  and\n  swap1\n  dup4\n  0xffffffffffffffffffffffffffffffffffffffff\n  and\n  mul\n  or\n  swap1\n  sstore\n  pop\n    /* \"DataTradingTest/UntraceableVoting.sol\":1168:1420  constructor(address curveDest) {... */\n  pop\n    /* \"DataTradingTest/UntraceableVoting.sol\":1048:11708  contract UntraceableVoting {... */\n  jump(tag_9)\n    /* \"#utility.yul\":88:205   */\ntag_11:\n    /* \"#utility.yul\":197:198   */\n  0x00\n    /* \"#utility.yul\":194:195   */\n  dup1\n    /* \"#utility.yul\":187:199   */\n  revert\n    /* \"#utility.yul\":334:460   */\ntag_13:\n    /* \"#utility.yul\":371:378   */\n  0x00\n    /* \"#utility.yul\":411:453   */\n  0xffffffffffffffffffffffffffffffffffffffff\n    /* \"#utility.yul\":404:409   */\n  dup3\n    /* \"#utility.yul\":400:454   */\n  and\n    /* \"#utility.yul\":389:454   */\n  swap1\n  pop\n    /* \"#utility.yul\":334:460   */\n  swap2\n  swap1\n  pop\n  jump\t// out\n    /* \"#utility.yul\":466:562   */\ntag_14:\n    /* \"#utility.yul\":503:510   */\n  0x00\n    /* \"#utility.yul\":532:556   */\n  tag_26\n    /* \"#utility.yul\":550:555   */\n  dup3\n    /* \"#utility.yul\":532:556   */\n  tag_13\n  jump\t// in\ntag_26:\n    /* \"#utility.yul\":521:556   */\n  swap1\n  pop\n    /* \"#utility.yul\":466:562   */\n  swap2\n  swap1\n  pop\n  jump\t// out\n    /* \"#utility.yul\":568:690   */\ntag_15:\n    /* \"#utility.yul\":641:665   */\n  tag_28\n    /* \"#utility.yul\":659:664   */\n  dup2\n    /* \"#utility.yul\":641:665   */\n  tag_14\n  jump\t// in\ntag_28:\n    /* \"#utility.yul\":634:639   */\n  dup2\n    /* \"#utility.yul\":631:666   */\n  eq\n    /* \"#utility.yul\":621:684   */\n  tag_29\n  jumpi\n    /* \"#utility.yul\":680:681   */\n  0x00\n    /* \"#utility.yul\":677:678   */\n  dup1\n    /* \"#utility.yul\":670:682   */\n  revert\n    /* \"#utility.yul\":621:684   */\ntag_29:\n    /* \"#utility.yul\":568:690   */\n  pop\n  jump\t// out\n    /* \"#utility.yul\":696:839   */\ntag_16:\n    /* \"#utility.yul\":753:758   */\n  0x00\n    /* \"#utility.yul\":784:790   */\n  dup2\n    /* \"#utility.yul\":778:791   */\n  mload\n    /* \"#utility.yul\":769:791   */\n  swap1\n  pop\n    /* \"#utility.yul\":800:833   */\n  tag_31\n    /* \"#utility.yul\":827:832   */\n  dup2\n    /* \"#utility.yul\":800:833   */\n  tag_15\n  jump\t// in\ntag_31:\n    /* \"#utility.yul\":696:839   */\n  swap3\n  swap2\n  pop\n  pop\n  jump\t// out\n    /* \"#utility.yul\":845:1196   */\ntag_3:\n    /* \"#utility.yul\":915:921   */\n  0x00\n    /* \"#utility.yul\":964:966   */\n  0x20\n    /* \"#utility.yul\":952:961   */\n  dup3\n    /* \"#utility.yul\":943:950   */\n  dup5\n    /* \"#utility.yul\":939:962   */\n  sub\n    /* \"#utility.yul\":935:967   */\n  slt\n    /* \"#utility.yul\":932:1051   */\n  iszero\n  tag_33\n  jumpi\n    /* \"#utility.yul\":970:1049   */\n  tag_34\n  tag_11\n  jump\t// in\ntag_34:\n    /* \"#utility.yul\":932:1051   */\ntag_33:\n    /* \"#utility.yul\":1090:1091   */\n  0x00\n    /* \"#utility.yul\":1115:1179   */\n  tag_35\n    /* \"#utility.yul\":1171:1178   */\n  dup5\n    /* \"#utility.yul\":1162:1168   */\n  dup3\n    /* \"#utility.yul\":1151:1160   */\n  dup6\n    /* \"#utility.yul\":1147:1169   */\n  add\n    /* \"#utility.yul\":1115:1179   */\n  tag_16\n  jump\t// in\ntag_35:\n    /* \"#utility.yul\":1105:1179   */\n  swap2\n  pop\n    /* \"#utility.yul\":1061:1189   */\n  pop\n    /* \"#utility.yul\":845:1196   */\n  swap3\n  swap2\n  pop\n  pop\n  jump\t// out\n    /* \"#utility.yul\":1202:1371   */\ntag_17:\n    /* \"#utility.yul\":1286:1297   */\n  0x00\n    /* \"#utility.yul\":1320:1326   */\n  dup3\n    /* \"#utility.yul\":1315:1318   */\n  dup3\n    /* \"#utility.yul\":1308:1327   */\n  mstore\n    /* \"#utility.yul\":1360:1364   */\n  0x20\n    /* \"#utility.yul\":1355:1358   */\n  dup3\n    /* \"#utility.yul\":1351:1365   */\n  add\n    /* \"#utility.yul\":1336:1365   */\n  swap1\n  pop\n    /* \"#utility.yul\":1202:1371   */\n  swap3\n  swap2\n  pop\n  pop\n  jump\t// out\n    /* \"#utility.yul\":1377:1552   */\ntag_18:\n    /* \"#utility.yul\":1517:1544   */\n  0x496e76616c69642063757276652064657374696e6174696f6e00000000000000\n    /* \"#utility.yul\":1513:1514   */\n  0x00\n    /* \"#utility.yul\":1505:1511   */\n  dup3\n    /* \"#utility.yul\":1501:1515   */\n  add\n    /* \"#utility.yul\":1494:1545   */\n  mstore\n    /* \"#utility.yul\":1377:1552   */\n  pop\n  jump\t// out\n    /* \"#utility.yul\":1558:1924   */\ntag_19:\n    /* \"#utility.yul\":1700:1703   */\n  0x00\n    /* \"#utility.yul\":1721:1788   */\n  tag_39\n    /* \"#utility.yul\":1785:1787   */\n  0x19\n    /* \"#utility.yul\":1780:1783   */\n  dup4\n    /* \"#utility.yul\":1721:1788   */\n  tag_17\n  jump\t// in\ntag_39:\n    /* \"#utility.yul\":1714:1788   */\n  swap2\n  pop\n    /* \"#utility.yul\":1797:1890   */\n  tag_40\n    /* \"#utility.yul\":1886:1889   */\n  dup3\n    /* \"#utility.yul\":1797:1890   */\n  tag_18\n  jump\t// in\ntag_40:\n    /* \"#utility.yul\":1915:1917   */\n  0x20\n    /* \"#utility.yul\":1910:1913   */\n  dup3\n    /* \"#utility.yul\":1906:1918   */\n  add\n    /* \"#utility.yul\":1899:1918   */\n  swap1\n  pop\n    /* \"#utility.yul\":1558:1924   */\n  swap2\n  swap1\n  pop\n  jump\t// out\n    /* \"#utility.yul\":1930:2349   */\ntag_8:\n    /* \"#utility.yul\":2096:2100   */\n  0x00\n    /* \"#utility.yul\":2134:2136   */\n  0x20\n    /* \"#utility.yul\":2123:2132   */\n  dup3\n    /* \"#utility.yul\":2119:2137   */\n  add\n    /* \"#utility.yul\":2111:2137   */\n  swap1\n  pop\n    /* \"#utility.yul\":2183:2192   */\n  dup2\n    /* \"#utility.yul\":2177:2181   */\n  dup2\n    /* \"#utility.yul\":2173:2193   */\n  sub\n    /* \"#utility.yul\":2169:2170   */\n  0x00\n    /* \"#utility.yul\":2158:2167   */\n  dup4\n    /* \"#utility.yul\":2154:2171   */\n  add\n    /* \"#utility.yul\":2147:2194   */\n  mstore\n    /* \"#utility.yul\":2211:2342   */\n  tag_42\n    /* \"#utility.yul\":2337:2341   */\n  dup2\n    /* \"#utility.yul\":2211:2342   */\n  tag_19\n  jump\t// in\ntag_42:\n    /* \"#utility.yul\":2203:2342   */\n  swap1\n  pop\n    /* \"#utility.yul\":1930:2349   */\n  swap2\n  swap1\n  pop\n  jump\t// out\n    /* \"DataTradingTest/UntraceableVoting.sol\":1048:11708  contract UntraceableVoting {... */\ntag_9:\n  dataSize(sub_0)\n  dup1\n  dataOffset(sub_0)\n  0x00\n  codecopy\n  0x00\n  return\nstop\n\nsub_0: assembly {\n        /* \"DataTradingTest/UntraceableVoting.sol\":1048:11708  contract UntraceableVoting {... */\n      mstore(0x40, 0x80)\n      jumpi(tag_1, lt(calldatasize, 0x04))\n      shr(0xe0, calldataload(0x00))\n      dup1\n      0x9e5515a8\n      gt\n      tag_11\n      jumpi\n      dup1\n      0x9e5515a8\n      eq\n      tag_6\n      jumpi\n      dup1\n      0x9f7aa8f4\n      eq\n      tag_7\n      jumpi\n      dup1\n      0xa598d03c\n      eq\n      tag_8\n      jumpi\n      dup1\n      0xc4f788e9\n      eq\n      tag_9\n      jumpi\n      dup1\n      0xe5db95e3\n      eq\n      tag_10\n      jumpi\n      jump(tag_1)\n    tag_11:\n      dup1\n      0x24b4cdc7\n      eq\n      tag_2\n      jumpi\n      dup1\n      0x3b2a537c\n      eq\n      tag_3\n      jumpi\n      dup1\n      0x61450b52\n      eq\n      tag_4\n      jumpi\n      dup1\n      0x8bcd8056\n      eq\n      tag_5\n      jumpi\n    tag_1:\n      0x00\n      dup1\n      revert\n        /* \"DataTradingTest/UntraceableVoting.sol\":1446:2477  function createVote(uint64 id, address[] calldata candidatesIDs)... */\n    tag_2:\n      tag_12\n      0x04\n      dup1\n      calldatasize\n      sub\n      dup2\n      add\n      swap1\n      tag_13\n      swap2\n      swap1\n      tag_14\n      jump\t// in\n    tag_13:\n      tag_15\n      jump\t// in\n    tag_12:\n      stop\n        /* \"DataTradingTest/UntraceableVoting.sol\":4818:4937  function updateCurve(address curveDest) external onlyOwner {... */\n    tag_3:\n      callvalue\n      dup1\n      iszero\n      tag_16\n      jumpi\n      0x00\n      dup1\n      revert\n    tag_16:\n      pop\n      tag_17\n      0x04\n      dup1\n      calldatasize\n      sub\n      dup2\n      add\n      swap1\n      tag_18\n      swap2\n      swap1\n      tag_19\n      jump\t// in\n    tag_18:\n      tag_20\n      jump\t// in\n    tag_17:\n      stop\n        /* \"DataTradingTest/UntraceableVoting.sol\":6332:7851  function VoteLeaders(uint64 id)... */\n    tag_4:\n      callvalue\n      dup1\n      iszero\n      tag_21\n      jumpi\n      0x00\n      dup1\n      revert\n    tag_21:\n      pop\n      tag_22\n      0x04\n      dup1\n      calldatasize\n      sub\n      dup2\n      add\n      swap1\n      tag_23\n      swap2\n      swap1\n      tag_24\n      jump\t// in\n    tag_23:\n      tag_25\n      jump\t// in\n    tag_22:\n      mload(0x40)\n      tag_26\n      swap3\n      swap2\n      swap1\n      tag_27\n      jump\t// in\n    tag_26:\n      mload(0x40)\n      dup1\n      swap2\n      sub\n      swap1\n      return\n        /* \"DataTradingTest/UntraceableVoting.sol\":4654:4786  function oops() external onlyOwner {... */\n    tag_5:\n      callvalue\n      dup1\n      iszero\n      tag_28\n      jumpi\n      0x00\n      dup1\n      revert\n    tag_28:\n      pop\n      tag_29\n      tag_30\n      jump\t// in\n    tag_29:\n      stop\n        /* \"DataTradingTest/UntraceableVoting.sol\":7877:9126  function VoteAnnonymous(... */\n    tag_6:\n      tag_31\n      0x04\n      dup1\n      calldatasize\n      sub\n      dup2\n      add\n      swap1\n      tag_32\n      swap2\n      swap1\n      tag_33\n      jump\t// in\n    tag_32:\n      tag_34\n      jump\t// in\n    tag_31:\n      stop\n        /* \"DataTradingTest/UntraceableVoting.sol\":4969:5450  function VoteState(uint64 id, address candidate)... */\n    tag_7:\n      callvalue\n      dup1\n      iszero\n      tag_35\n      jumpi\n      0x00\n      dup1\n      revert\n    tag_35:\n      pop\n      tag_36\n      0x04\n      dup1\n      calldatasize\n      sub\n      dup2\n      add\n      swap1\n      tag_37\n      swap2\n      swap1\n      tag_38\n      jump\t// in\n    tag_37:\n      tag_39\n      jump\t// in\n    tag_36:\n      mload(0x40)\n      tag_40\n      swap3\n      swap2\n      swap1\n      tag_41\n      jump\t// in\n    tag_40:\n      mload(0x40)\n      dup1\n      swap2\n      sub\n      swap1\n      return\n        /* \"DataTradingTest/UntraceableVoting.sol\":1120:1161  mapping(uint256 => voting) public votings */\n    tag_8:\n      callvalue\n      dup1\n      iszero\n      tag_42\n      jumpi\n      0x00\n      dup1\n      revert\n    tag_42:\n      pop\n      tag_43\n      0x04\n      dup1\n      calldatasize\n      sub\n      dup2\n      add\n      swap1\n      tag_44\n      swap2\n      swap1\n      tag_45\n      jump\t// in\n    tag_44:\n      tag_46\n      jump\t// in\n    tag_43:\n      mload(0x40)\n      tag_47\n      swap8\n      swap7\n      swap6\n      swap5\n      swap4\n      swap3\n      swap2\n      swap1\n      tag_48\n      jump\t// in\n    tag_47:\n      mload(0x40)\n      dup1\n      swap2\n      sub\n      swap1\n      return\n        /* \"DataTradingTest/UntraceableVoting.sol\":2512:3951  function addVotersToVote(... */\n    tag_9:\n      callvalue\n      dup1\n      iszero\n      tag_49\n      jumpi\n      0x00\n      dup1\n      revert\n    tag_49:\n      pop\n      tag_50\n      0x04\n      dup1\n      calldatasize\n      sub\n      dup2\n      add\n      swap1\n      tag_51\n      swap2\n      swap1\n      tag_52\n      jump\t// in\n    tag_51:\n      tag_53\n      jump\t// in\n    tag_50:\n      stop\n        /* \"DataTradingTest/UntraceableVoting.sol\":5476:6303  function CompleteVote(uint64 id) external {... */\n    tag_10:\n      callvalue\n      dup1\n      iszero\n      tag_54\n      jumpi\n      0x00\n      dup1\n      revert\n    tag_54:\n      pop\n      tag_55\n      0x04\n      dup1\n      calldatasize\n      sub\n      dup2\n      add\n      swap1\n      tag_56\n      swap2\n      swap1\n      tag_24\n      jump\t// in\n    tag_56:\n      tag_57\n      jump\t// in\n    tag_55:\n      stop\n        /* \"DataTradingTest/UntraceableVoting.sol\":1446:2477  function createVote(uint64 id, address[] calldata candidatesIDs)... */\n    tag_15:\n        /* \"DataTradingTest/UntraceableVoting.sol\":1584:1585  0 */\n      0x00\n        /* \"DataTradingTest/UntraceableVoting.sol\":1566:1573  votings */\n      0x02\n        /* \"DataTradingTest/UntraceableVoting.sol\":1566:1577  votings[id] */\n      0x00\n        /* \"DataTradingTest/UntraceableVoting.sol\":1574:1576  id */\n      dup6\n        /* \"DataTradingTest/UntraceableVoting.sol\":1566:1577  votings[id] */\n      0xffffffffffffffff\n      and\n      dup2\n      mstore\n      0x20\n      add\n      swap1\n      dup2\n      mstore\n      0x20\n      add\n      0x00\n      keccak256\n        /* \"DataTradingTest/UntraceableVoting.sol\":1566:1580  votings[id].id */\n      0x02\n      add\n      0x00\n      swap1\n      sload\n      swap1\n      0x0100\n      exp\n      swap1\n      div\n      0xffffffffffffffff\n      and\n        /* \"DataTradingTest/UntraceableVoting.sol\":1566:1585  votings[id].id == 0 */\n      0xffffffffffffffff\n      and\n      eq\n        /* \"DataTradingTest/UntraceableVoting.sol\":1558:1622  require(votings[id].id == 0, \"Vote with this ID already exists\") */\n      tag_59\n      jumpi\n      mload(0x40)\n      0x08c379a000000000000000000000000000000000000000000000000000000000\n      dup2\n      mstore\n      0x04\n      add\n      tag_60\n      swap1\n      tag_61\n      jump\t// in\n    tag_60:\n      mload(0x40)\n      dup1\n      swap2\n      sub\n      swap1\n      revert\n    tag_59:\n        /* \"DataTradingTest/UntraceableVoting.sol\":1680:1681  0 */\n      0x00\n        /* \"DataTradingTest/UntraceableVoting.sol\":1674:1676  id */\n      dup4\n        /* \"DataTradingTest/UntraceableVoting.sol\":1674:1681  id != 0 */\n      0xffffffffffffffff\n      and\n      sub\n        /* \"DataTradingTest/UntraceableVoting.sol\":1666:1696  require(id != 0, \"Invalid ID\") */\n      tag_62\n      jumpi\n      mload(0x40)\n      0x08c379a000000000000000000000000000000000000000000000000000000000\n      dup2\n      mstore\n      0x04\n      add\n      tag_63\n      swap1\n      tag_64\n      jump\t// in\n    tag_63:\n      mload(0x40)\n      dup1\n      swap2\n      sub\n      swap1\n      revert\n    tag_62:\n        /* \"DataTradingTest/UntraceableVoting.sol\":1752:1762  msg.sender */\n      caller\n        /* \"DataTradingTest/UntraceableVoting.sol\":1730:1737  votings */\n      0x02\n        /* \"DataTradingTest/UntraceableVoting.sol\":1730:1741  votings[id] */\n      0x00\n        /* \"DataTradingTest/UntraceableVoting.sol\":1738:1740  id */\n      dup6\n        /* \"DataTradingTest/UntraceableVoting.sol\":1730:1741  votings[id] */\n      0xffffffffffffffff\n      and\n      dup2\n      mstore\n      0x20\n      add\n      swap1\n      dup2\n      mstore\n      0x20\n      add\n      0x00\n      keccak256\n        /* \"DataTradingTest/UntraceableVoting.sol\":1730:1749  votings[id].creator */\n      0x00\n      add\n      0x00\n        /* \"DataTradingTest/UntraceableVoting.sol\":1730:1762  votings[id].creator = msg.sender */\n      0x0100\n      exp\n      dup2\n      sload\n      dup2\n      0xffffffffffffffffffffffffffffffffffffffff\n      mul\n      not\n      and\n      swap1\n      dup4\n      0xffffffffffffffffffffffffffffffffffffffff\n      and\n      mul\n      or\n      swap1\n      sstore\n      pop\n        /* \"DataTradingTest/UntraceableVoting.sol\":1800:1813  candidatesIDs */\n      dup2\n      dup2\n        /* \"DataTradingTest/UntraceableVoting.sol\":1772:1779  votings */\n      0x02\n        /* \"DataTradingTest/UntraceableVoting.sol\":1772:1783  votings[id] */\n      0x00\n        /* \"DataTradingTest/UntraceableVoting.sol\":1780:1782  id */\n      dup7\n        /* \"DataTradingTest/UntraceableVoting.sol\":1772:1783  votings[id] */\n      0xffffffffffffffff\n      and\n      dup2\n      mstore\n      0x20\n      add\n      swap1\n      dup2\n      mstore\n      0x20\n      add\n      0x00\n      keccak256\n        /* \"DataTradingTest/UntraceableVoting.sol\":1772:1797  votings[id].candidatesIDs */\n      0x01\n      add\n        /* \"DataTradingTest/UntraceableVoting.sol\":1772:1813  votings[id].candidatesIDs = candidatesIDs */\n      swap2\n      swap1\n      tag_65\n      swap3\n      swap2\n      swap1\n      tag_66\n      jump\t// in\n    tag_65:\n      pop\n        /* \"DataTradingTest/UntraceableVoting.sol\":1840:1842  id */\n      dup3\n        /* \"DataTradingTest/UntraceableVoting.sol\":1823:1830  votings */\n      0x02\n        /* \"DataTradingTest/UntraceableVoting.sol\":1823:1834  votings[id] */\n      0x00\n        /* \"DataTradingTest/UntraceableVoting.sol\":1831:1833  id */\n      dup6\n        /* \"DataTradingTest/UntraceableVoting.sol\":1823:1834  votings[id] */\n      0xffffffffffffffff\n      and\n      dup2\n      mstore\n      0x20\n      add\n      swap1\n      dup2\n      mstore\n      0x20\n      add\n      0x00\n      keccak256\n        /* \"DataTradingTest/UntraceableVoting.sol\":1823:1837  votings[id].id */\n      0x02\n      add\n      0x00\n        /* \"DataTradingTest/UntraceableVoting.sol\":1823:1842  votings[id].id = id */\n      0x0100\n      exp\n      dup2\n      sload\n      dup2\n      0xffffffffffffffff\n      mul\n      not\n      and\n      swap1\n      dup4\n      0xffffffffffffffff\n      and\n      mul\n      or\n      swap1\n      sstore\n      pop\n        /* \"DataTradingTest/UntraceableVoting.sol\":1870:1879  msg.value */\n      callvalue\n        /* \"DataTradingTest/UntraceableVoting.sol\":1852:1859  votings */\n      0x02\n        /* \"DataTradingTest/UntraceableVoting.sol\":1852:1863  votings[id] */\n      0x00\n        /* \"DataTradingTest/UntraceableVoting.sol\":1860:1862  id */\n      dup6\n        /* \"DataTradingTest/UntraceableVoting.sol\":1852:1863  votings[id] */\n      0xffffffffffffffff\n      and\n      dup2\n      mstore\n      0x20\n      add\n      swap1\n      dup2\n      mstore\n      0x20\n      add\n      0x00\n      keccak256\n        /* \"DataTradingTest/UntraceableVoting.sol\":1852:1867  votings[id].val */\n      0x03\n      add\n        /* \"DataTradingTest/UntraceableVoting.sol\":1852:1879  votings[id].val = msg.value */\n      dup2\n      swap1\n      sstore\n      pop\n        /* \"DataTradingTest/UntraceableVoting.sol\":1914:1915  1 */\n      0x01\n        /* \"DataTradingTest/UntraceableVoting.sol\":1889:1896  votings */\n      0x02\n        /* \"DataTradingTest/UntraceableVoting.sol\":1889:1900  votings[id] */\n      0x00\n        /* \"DataTradingTest/UntraceableVoting.sol\":1897:1899  id */\n      dup6\n        /* \"DataTradingTest/UntraceableVoting.sol\":1889:1900  votings[id] */\n      0xffffffffffffffff\n      and\n      dup2\n      mstore\n      0x20\n      add\n      swap1\n      dup2\n      mstore\n      0x20\n      add\n      0x00\n      keccak256\n        /* \"DataTradingTest/UntraceableVoting.sol\":1889:1911  votings[id].threashold */\n      0x04\n      add\n        /* \"DataTradingTest/UntraceableVoting.sol\":1889:1915  votings[id].threashold = 1 */\n      dup2\n      swap1\n      sstore\n      pop\n        /* \"DataTradingTest/UntraceableVoting.sol\":2000:2001  0 */\n      0x00\n        /* \"DataTradingTest/UntraceableVoting.sol\":1986:2002  new uint256[](0) */\n      0xffffffffffffffff\n      dup2\n      gt\n      iszero\n      tag_67\n      jumpi\n      tag_68\n      tag_69\n      jump\t// in\n    tag_68:\n    tag_67:\n      mload(0x40)\n      swap1\n      dup1\n      dup3\n      mstore\n      dup1\n      0x20\n      mul\n      0x20\n      add\n      dup3\n      add\n      0x40\n      mstore\n      dup1\n      iszero\n      tag_70\n      jumpi\n      dup2\n      0x20\n      add\n      0x20\n      dup3\n      mul\n      dup1\n      calldatasize\n      dup4\n      calldatacopy\n      dup1\n      dup3\n      add\n      swap2\n      pop\n      pop\n      swap1\n      pop\n    tag_70:\n      pop\n        /* \"DataTradingTest/UntraceableVoting.sol\":1964:1971  votings */\n      0x02\n        /* \"DataTradingTest/UntraceableVoting.sol\":1964:1975  votings[id] */\n      0x00\n        /* \"DataTradingTest/UntraceableVoting.sol\":1972:1974  id */\n      dup6\n        /* \"DataTradingTest/UntraceableVoting.sol\":1964:1975  votings[id] */\n      0xffffffffffffffff\n      and\n      dup2\n      mstore\n      0x20\n      add\n      swap1\n      dup2\n      mstore\n      0x20\n      add\n      0x00\n      keccak256\n        /* \"DataTradingTest/UntraceableVoting.sol\":1964:1983  votings[id].votersX */\n      0x06\n      add\n        /* \"DataTradingTest/UntraceableVoting.sol\":1964:2002  votings[id].votersX = new uint256[](0) */\n      swap1\n      dup1\n      mload\n      swap1\n      0x20\n      add\n      swap1\n      tag_71\n      swap3\n      swap2\n      swap1\n      tag_72\n      jump\t// in\n    tag_71:\n      pop\n        /* \"DataTradingTest/UntraceableVoting.sol\":2048:2049  0 */\n      0x00\n        /* \"DataTradingTest/UntraceableVoting.sol\":2034:2050  new uint256[](0) */\n      0xffffffffffffffff\n      dup2\n      gt\n      iszero\n      tag_73\n      jumpi\n      tag_74\n      tag_69\n      jump\t// in\n    tag_74:\n    tag_73:\n      mload(0x40)\n      swap1\n      dup1\n      dup3\n      mstore\n      dup1\n      0x20\n      mul\n      0x20\n      add\n      dup3\n      add\n      0x40\n      mstore\n      dup1\n      iszero\n      tag_75\n      jumpi\n      dup2\n      0x20\n      add\n      0x20\n      dup3\n      mul\n      dup1\n      calldatasize\n      dup4\n      calldatacopy\n      dup1\n      dup3\n      add\n      swap2\n      pop\n      pop\n      swap1\n      pop\n    tag_75:\n      pop\n        /* \"DataTradingTest/UntraceableVoting.sol\":2012:2019  votings */\n      0x02\n        /* \"DataTradingTest/UntraceableVoting.sol\":2012:2023  votings[id] */\n      0x00\n        /* \"DataTradingTest/UntraceableVoting.sol\":2020:2022  id */\n      dup6\n        /* \"DataTradingTest/UntraceableVoting.sol\":2012:2023  votings[id] */\n      0xffffffffffffffff\n      and\n      dup2\n      mstore\n      0x20\n      add\n      swap1\n      dup2\n      mstore\n      0x20\n      add\n      0x00\n      keccak256\n        /* \"DataTradingTest/UntraceableVoting.sol\":2012:2031  votings[id].votersY */\n      0x07\n      add\n        /* \"DataTradingTest/UntraceableVoting.sol\":2012:2050  votings[id].votersY = new uint256[](0) */\n      swap1\n      dup1\n      mload\n      swap1\n      0x20\n      add\n      swap1\n      tag_76\n      swap3\n      swap2\n      swap1\n      tag_72\n      jump\t// in\n    tag_76:\n      pop\n        /* \"DataTradingTest/UntraceableVoting.sol\":2079:2084  false */\n      0x00\n        /* \"DataTradingTest/UntraceableVoting.sol\":2060:2067  votings */\n      0x02\n        /* \"DataTradingTest/UntraceableVoting.sol\":2060:2071  votings[id] */\n      0x00\n        /* \"DataTradingTest/UntraceableVoting.sol\":2068:2070  id */\n      dup6\n        /* \"DataTradingTest/UntraceableVoting.sol\":2060:2071  votings[id] */\n      0xffffffffffffffff\n      and\n      dup2\n      mstore\n      0x20\n      add\n      swap1\n      dup2\n      mstore\n      0x20\n      add\n      0x00\n      keccak256\n        /* \"DataTradingTest/UntraceableVoting.sol\":2060:2076  votings[id].done */\n      0x08\n      add\n      0x00\n        /* \"DataTradingTest/UntraceableVoting.sol\":2060:2084  votings[id].done = false */\n      0x0100\n      exp\n      dup2\n      sload\n      dup2\n      0xff\n      mul\n      not\n      and\n      swap1\n      dup4\n      iszero\n      iszero\n      mul\n      or\n      swap1\n      sstore\n      pop\n        /* \"DataTradingTest/UntraceableVoting.sol\":2114:2119  false */\n      0x00\n        /* \"DataTradingTest/UntraceableVoting.sol\":2094:2101  votings */\n      0x02\n        /* \"DataTradingTest/UntraceableVoting.sol\":2094:2105  votings[id] */\n      0x00\n        /* \"DataTradingTest/UntraceableVoting.sol\":2102:2104  id */\n      dup6\n        /* \"DataTradingTest/UntraceableVoting.sol\":2094:2105  votings[id] */\n      0xffffffffffffffff\n      and\n      dup2\n      mstore\n      0x20\n      add\n      swap1\n      dup2\n      mstore\n      0x20\n      add\n      0x00\n      keccak256\n        /* \"DataTradingTest/UntraceableVoting.sol\":2094:2111  votings[id].ready */\n      0x08\n      add\n      0x01\n        /* \"DataTradingTest/UntraceableVoting.sol\":2094:2119  votings[id].ready = false */\n      0x0100\n      exp\n      dup2\n      sload\n      dup2\n      0xff\n      mul\n      not\n      and\n      swap1\n      dup4\n      iszero\n      iszero\n      mul\n      or\n      swap1\n      sstore\n      pop\n        /* \"DataTradingTest/UntraceableVoting.sol\":2171:2180  uint256 i */\n      0x00\n        /* \"DataTradingTest/UntraceableVoting.sol\":2166:2471  for (uint256 i = 0; i < candidatesIDs.length; i++) {... */\n    tag_77:\n        /* \"DataTradingTest/UntraceableVoting.sol\":2190:2203  candidatesIDs */\n      dup3\n      dup3\n        /* \"DataTradingTest/UntraceableVoting.sol\":2190:2210  candidatesIDs.length */\n      swap1\n      pop\n        /* \"DataTradingTest/UntraceableVoting.sol\":2186:2187  i */\n      dup2\n        /* \"DataTradingTest/UntraceableVoting.sol\":2186:2210  i < candidatesIDs.length */\n      lt\n        /* \"DataTradingTest/UntraceableVoting.sol\":2166:2471  for (uint256 i = 0; i < candidatesIDs.length; i++) {... */\n      iszero\n      tag_78\n      jumpi\n        /* \"DataTradingTest/UntraceableVoting.sol\":2231:2248  address candidate */\n      0x00\n        /* \"DataTradingTest/UntraceableVoting.sol\":2251:2264  candidatesIDs */\n      dup4\n      dup4\n        /* \"DataTradingTest/UntraceableVoting.sol\":2265:2266  i */\n      dup4\n        /* \"DataTradingTest/UntraceableVoting.sol\":2251:2267  candidatesIDs[i] */\n      dup2\n      dup2\n      lt\n      tag_80\n      jumpi\n      tag_81\n      tag_82\n      jump\t// in\n    tag_81:\n    tag_80:\n      swap1\n      pop\n      0x20\n      mul\n      add\n      0x20\n      dup2\n      add\n      swap1\n      tag_83\n      swap2\n      swap1\n      tag_19\n      jump\t// in\n    tag_83:\n        /* \"DataTradingTest/UntraceableVoting.sol\":2231:2267  address candidate = candidatesIDs[i] */\n      swap1\n      pop\n        /* \"DataTradingTest/UntraceableVoting.sol\":2388:2389  0 */\n      0x00\n        /* \"DataTradingTest/UntraceableVoting.sol\":2351:2358  votings */\n      0x02\n        /* \"DataTradingTest/UntraceableVoting.sol\":2351:2362  votings[id] */\n      0x00\n        /* \"DataTradingTest/UntraceableVoting.sol\":2359:2361  id */\n      dup8\n        /* \"DataTradingTest/UntraceableVoting.sol\":2351:2362  votings[id] */\n      0xffffffffffffffff\n      and\n      dup2\n      mstore\n      0x20\n      add\n      swap1\n      dup2\n      mstore\n      0x20\n      add\n      0x00\n      keccak256\n        /* \"DataTradingTest/UntraceableVoting.sol\":2351:2373  votings[id].candidates */\n      0x0a\n      add\n        /* \"DataTradingTest/UntraceableVoting.sol\":2351:2384  votings[id].candidates[candidate] */\n      0x00\n        /* \"DataTradingTest/UntraceableVoting.sol\":2374:2383  candidate */\n      dup4\n        /* \"DataTradingTest/UntraceableVoting.sol\":2351:2384  votings[id].candidates[candidate] */\n      0xffffffffffffffffffffffffffffffffffffffff\n      and\n      0xffffffffffffffffffffffffffffffffffffffff\n      and\n      dup2\n      mstore\n      0x20\n      add\n      swap1\n      dup2\n      mstore\n      0x20\n      add\n      0x00\n      keccak256\n      sload\n        /* \"DataTradingTest/UntraceableVoting.sol\":2351:2389  votings[id].candidates[candidate] == 0 */\n      sub\n        /* \"DataTradingTest/UntraceableVoting.sol\":2347:2461  if (votings[id].candidates[candidate] == 0) {... */\n      tag_84\n      jumpi\n        /* \"DataTradingTest/UntraceableVoting.sol\":2445:2446  1 */\n      0x01\n        /* \"DataTradingTest/UntraceableVoting.sol\":2409:2416  votings */\n      0x02\n        /* \"DataTradingTest/UntraceableVoting.sol\":2409:2420  votings[id] */\n      0x00\n        /* \"DataTradingTest/UntraceableVoting.sol\":2417:2419  id */\n      dup8\n        /* \"DataTradingTest/UntraceableVoting.sol\":2409:2420  votings[id] */\n      0xffffffffffffffff\n      and\n      dup2\n      mstore\n      0x20\n      add\n      swap1\n      dup2\n      mstore\n      0x20\n      add\n      0x00\n      keccak256\n        /* \"DataTradingTest/UntraceableVoting.sol\":2409:2431  votings[id].candidates */\n      0x0a\n      add\n        /* \"DataTradingTest/UntraceableVoting.sol\":2409:2442  votings[id].candidates[candidate] */\n      0x00\n        /* \"DataTradingTest/UntraceableVoting.sol\":2432:2441  candidate */\n      dup4\n        /* \"DataTradingTest/UntraceableVoting.sol\":2409:2442  votings[id].candidates[candidate] */\n      0xffffffffffffffffffffffffffffffffffffffff\n      and\n      0xffffffffffffffffffffffffffffffffffffffff\n      and\n      dup2\n      mstore\n      0x20\n      add\n      swap1\n      dup2\n      mstore\n      0x20\n      add\n      0x00\n      keccak256\n        /* \"DataTradingTest/UntraceableVoting.sol\":2409:2446  votings[id].candidates[candidate] = 1 */\n      dup2\n      swap1\n      sstore\n      pop\n        /* \"DataTradingTest/UntraceableVoting.sol\":2347:2461  if (votings[id].candidates[candidate] == 0) {... */\n    tag_84:\n        /* \"DataTradingTest/UntraceableVoting.sol\":2217:2471  {... */\n      pop\n        /* \"DataTradingTest/UntraceableVoting.sol\":2212:2215  i++ */\n      dup1\n      dup1\n      0x01\n      add\n      swap2\n      pop\n      pop\n        /* \"DataTradingTest/UntraceableVoting.sol\":2166:2471  for (uint256 i = 0; i < candidatesIDs.length; i++) {... */\n      jump(tag_77)\n    tag_78:\n      pop\n        /* \"DataTradingTest/UntraceableVoting.sol\":1446:2477  function createVote(uint64 id, address[] calldata candidatesIDs)... */\n      pop\n      pop\n      pop\n      jump\t// out\n        /* \"DataTradingTest/UntraceableVoting.sol\":4818:4937  function updateCurve(address curveDest) external onlyOwner {... */\n    tag_20:\n        /* \"DataTradingTest/UntraceableVoting.sol\":4560:4565  owner */\n      0x01\n      0x00\n      swap1\n      sload\n      swap1\n      0x0100\n      exp\n      swap1\n      div\n      0xffffffffffffffffffffffffffffffffffffffff\n      and\n        /* \"DataTradingTest/UntraceableVoting.sol\":4546:4565  msg.sender == owner */\n      0xffffffffffffffffffffffffffffffffffffffff\n      and\n        /* \"DataTradingTest/UntraceableVoting.sol\":4546:4556  msg.sender */\n      caller\n        /* \"DataTradingTest/UntraceableVoting.sol\":4546:4565  msg.sender == owner */\n      0xffffffffffffffffffffffffffffffffffffffff\n      and\n      eq\n        /* \"DataTradingTest/UntraceableVoting.sol\":4538:4588  require(msg.sender == owner, \"Only owner allowed\") */\n      tag_86\n      jumpi\n      mload(0x40)\n      0x08c379a000000000000000000000000000000000000000000000000000000000\n      dup2\n      mstore\n      0x04\n      add\n      tag_87\n      swap1\n      tag_88\n      jump\t// in\n    tag_87:\n      mload(0x40)\n      dup1\n      swap2\n      sub\n      swap1\n      revert\n    tag_86:\n        /* \"DataTradingTest/UntraceableVoting.sol\":4904:4913  curveDest */\n      dup1\n        /* \"DataTradingTest/UntraceableVoting.sol\":4887:4892  Curve */\n      0x00\n      dup1\n        /* \"DataTradingTest/UntraceableVoting.sol\":4887:4914  Curve = secp256k(curveDest) */\n      0x0100\n      exp\n      dup2\n      sload\n      dup2\n      0xffffffffffffffffffffffffffffffffffffffff\n      mul\n      not\n      and\n      swap1\n      dup4\n      0xffffffffffffffffffffffffffffffffffffffff\n      and\n      mul\n      or\n      swap1\n      sstore\n      pop\n        /* \"DataTradingTest/UntraceableVoting.sol\":4818:4937  function updateCurve(address curveDest) external onlyOwner {... */\n      pop\n      jump\t// out\n        /* \"DataTradingTest/UntraceableVoting.sol\":6332:7851  function VoteLeaders(uint64 id)... */\n    tag_25:\n        /* \"DataTradingTest/UntraceableVoting.sol\":6409:6427  address[15] memory */\n      tag_90\n      tag_91\n      jump\t// in\n    tag_90:\n        /* \"DataTradingTest/UntraceableVoting.sol\":6429:6434  uint8 */\n      0x00\n        /* \"DataTradingTest/UntraceableVoting.sol\":6476:6477  0 */\n      dup1\n        /* \"DataTradingTest/UntraceableVoting.sol\":6458:6465  votings */\n      0x02\n        /* \"DataTradingTest/UntraceableVoting.sol\":6458:6469  votings[id] */\n      0x00\n        /* \"DataTradingTest/UntraceableVoting.sol\":6466:6468  id */\n      dup6\n        /* \"DataTradingTest/UntraceableVoting.sol\":6458:6469  votings[id] */\n      0xffffffffffffffff\n      and\n      dup2\n      mstore\n      0x20\n      add\n      swap1\n      dup2\n      mstore\n      0x20\n      add\n      0x00\n      keccak256\n        /* \"DataTradingTest/UntraceableVoting.sol\":6458:6472  votings[id].id */\n      0x02\n      add\n      0x00\n      swap1\n      sload\n      swap1\n      0x0100\n      exp\n      swap1\n      div\n      0xffffffffffffffff\n      and\n        /* \"DataTradingTest/UntraceableVoting.sol\":6458:6477  votings[id].id != 0 */\n      0xffffffffffffffff\n      and\n      sub\n        /* \"DataTradingTest/UntraceableVoting.sol\":6450:6501  require(votings[id].id != 0, \"Vote does not exist\") */\n      tag_93\n      jumpi\n      mload(0x40)\n      0x08c379a000000000000000000000000000000000000000000000000000000000\n      dup2\n      mstore\n      0x04\n      add\n      tag_94\n      swap1\n      tag_95\n      jump\t// in\n    tag_94:\n      mload(0x40)\n      dup1\n      swap2\n      sub\n      swap1\n      revert\n    tag_93:\n        /* \"DataTradingTest/UntraceableVoting.sol\":6547:6554  votings */\n      0x02\n        /* \"DataTradingTest/UntraceableVoting.sol\":6547:6558  votings[id] */\n      0x00\n        /* \"DataTradingTest/UntraceableVoting.sol\":6555:6557  id */\n      dup5\n        /* \"DataTradingTest/UntraceableVoting.sol\":6547:6558  votings[id] */\n      0xffffffffffffffff\n      and\n      dup2\n      mstore\n      0x20\n      add\n      swap1\n      dup2\n      mstore\n      0x20\n      add\n      0x00\n      keccak256\n        /* \"DataTradingTest/UntraceableVoting.sol\":6547:6564  votings[id].ready */\n      0x08\n      add\n      0x01\n      swap1\n      sload\n      swap1\n      0x0100\n      exp\n      swap1\n      div\n      0xff\n      and\n        /* \"DataTradingTest/UntraceableVoting.sol\":6539:6586  require(votings[id].ready, \"Vote is not ready\") */\n      tag_96\n      jumpi\n      mload(0x40)\n      0x08c379a000000000000000000000000000000000000000000000000000000000\n      dup2\n      mstore\n      0x04\n      add\n      tag_97\n      swap1\n      tag_98\n      jump\t// in\n    tag_97:\n      mload(0x40)\n      dup1\n      swap2\n      sub\n      swap1\n      revert\n    tag_96:\n        /* \"DataTradingTest/UntraceableVoting.sol\":6630:6641  uint256 max */\n      0x00\n        /* \"DataTradingTest/UntraceableVoting.sol\":6655:6677  address[15] memory res */\n      tag_99\n      tag_91\n      jump\t// in\n    tag_99:\n        /* \"DataTradingTest/UntraceableVoting.sol\":6687:6700  uint8 counter */\n      0x00\n        /* \"DataTradingTest/UntraceableVoting.sol\":6703:6704  1 */\n      0x01\n        /* \"DataTradingTest/UntraceableVoting.sol\":6687:6704  uint8 counter = 1 */\n      swap1\n      pop\n        /* \"DataTradingTest/UntraceableVoting.sol\":6720:6729  uint256 i */\n      0x00\n        /* \"DataTradingTest/UntraceableVoting.sol\":6715:7771  for (uint256 i = 0; i < votings[id].candidatesIDs.length; i++) {... */\n    tag_100:\n        /* \"DataTradingTest/UntraceableVoting.sol\":6739:6746  votings */\n      0x02\n        /* \"DataTradingTest/UntraceableVoting.sol\":6739:6750  votings[id] */\n      0x00\n        /* \"DataTradingTest/UntraceableVoting.sol\":6747:6749  id */\n      dup9\n        /* \"DataTradingTest/UntraceableVoting.sol\":6739:6750  votings[id] */\n      0xffffffffffffffff\n      and\n      dup2\n      mstore\n      0x20\n      add\n      swap1\n      dup2\n      mstore\n      0x20\n      add\n      0x00\n      keccak256\n        /* \"DataTradingTest/UntraceableVoting.sol\":6739:6764  votings[id].candidatesIDs */\n      0x01\n      add\n        /* \"DataTradingTest/UntraceableVoting.sol\":6739:6771  votings[id].candidatesIDs.length */\n      dup1\n      sload\n      swap1\n      pop\n        /* \"DataTradingTest/UntraceableVoting.sol\":6735:6736  i */\n      dup2\n        /* \"DataTradingTest/UntraceableVoting.sol\":6735:6771  i < votings[id].candidatesIDs.length */\n      lt\n        /* \"DataTradingTest/UntraceableVoting.sol\":6715:7771  for (uint256 i = 0; i < votings[id].candidatesIDs.length; i++) {... */\n      iszero\n      tag_101\n      jumpi\n        /* \"DataTradingTest/UntraceableVoting.sol\":6792:6803  uint256 val */\n      0x00\n        /* \"DataTradingTest/UntraceableVoting.sol\":6806:6813  votings */\n      0x02\n        /* \"DataTradingTest/UntraceableVoting.sol\":6806:6817  votings[id] */\n      0x00\n        /* \"DataTradingTest/UntraceableVoting.sol\":6814:6816  id */\n      dup10\n        /* \"DataTradingTest/UntraceableVoting.sol\":6806:6817  votings[id] */\n      0xffffffffffffffff\n      and\n      dup2\n      mstore\n      0x20\n      add\n      swap1\n      dup2\n      mstore\n      0x20\n      add\n      0x00\n      keccak256\n        /* \"DataTradingTest/UntraceableVoting.sol\":6806:6828  votings[id].candidates */\n      0x0a\n      add\n        /* \"DataTradingTest/UntraceableVoting.sol\":6806:6858  votings[id].candidates[votings[id].candidatesIDs[i]] */\n      0x00\n        /* \"DataTradingTest/UntraceableVoting.sol\":6829:6836  votings */\n      0x02\n        /* \"DataTradingTest/UntraceableVoting.sol\":6829:6840  votings[id] */\n      0x00\n        /* \"DataTradingTest/UntraceableVoting.sol\":6837:6839  id */\n      dup12\n        /* \"DataTradingTest/UntraceableVoting.sol\":6829:6840  votings[id] */\n      0xffffffffffffffff\n      and\n      dup2\n      mstore\n      0x20\n      add\n      swap1\n      dup2\n      mstore\n      0x20\n      add\n      0x00\n      keccak256\n        /* \"DataTradingTest/UntraceableVoting.sol\":6829:6854  votings[id].candidatesIDs */\n      0x01\n      add\n        /* \"DataTradingTest/UntraceableVoting.sol\":6855:6856  i */\n      dup5\n        /* \"DataTradingTest/UntraceableVoting.sol\":6829:6857  votings[id].candidatesIDs[i] */\n      dup2\n      sload\n      dup2\n      lt\n      tag_103\n      jumpi\n      tag_104\n      tag_82\n      jump\t// in\n    tag_104:\n    tag_103:\n      swap1\n      0x00\n      mstore\n      keccak256(0x00, 0x20)\n      add\n      0x00\n      swap1\n      sload\n      swap1\n      0x0100\n      exp\n      swap1\n      div\n      0xffffffffffffffffffffffffffffffffffffffff\n      and\n        /* \"DataTradingTest/UntraceableVoting.sol\":6806:6858  votings[id].candidates[votings[id].candidatesIDs[i]] */\n      0xffffffffffffffffffffffffffffffffffffffff\n      and\n      0xffffffffffffffffffffffffffffffffffffffff\n      and\n      dup2\n      mstore\n      0x20\n      add\n      swap1\n      dup2\n      mstore\n      0x20\n      add\n      0x00\n      keccak256\n      sload\n        /* \"DataTradingTest/UntraceableVoting.sol\":6792:6858  uint256 val = votings[id].candidates[votings[id].candidatesIDs[i]] */\n      swap1\n      pop\n        /* \"DataTradingTest/UntraceableVoting.sol\":6882:6885  max */\n      dup5\n        /* \"DataTradingTest/UntraceableVoting.sol\":6876:6879  val */\n      dup2\n        /* \"DataTradingTest/UntraceableVoting.sol\":6876:6885  val > max */\n      gt\n        /* \"DataTradingTest/UntraceableVoting.sol\":6872:7761  if (val > max) {... */\n      iszero\n      tag_106\n      jumpi\n        /* \"DataTradingTest/UntraceableVoting.sol\":6905:7427  res = [... */\n      mload(0x40)\n      dup1\n      0x01e0\n      add\n      0x40\n      mstore\n      dup1\n        /* \"DataTradingTest/UntraceableVoting.sol\":6933:6940  votings */\n      0x02\n        /* \"DataTradingTest/UntraceableVoting.sol\":6933:6944  votings[id] */\n      0x00\n        /* \"DataTradingTest/UntraceableVoting.sol\":6941:6943  id */\n      dup12\n        /* \"DataTradingTest/UntraceableVoting.sol\":6933:6944  votings[id] */\n      0xffffffffffffffff\n      and\n      dup2\n      mstore\n      0x20\n      add\n      swap1\n      dup2\n      mstore\n      0x20\n      add\n      0x00\n      keccak256\n        /* \"DataTradingTest/UntraceableVoting.sol\":6933:6958  votings[id].candidatesIDs */\n      0x01\n      add\n        /* \"DataTradingTest/UntraceableVoting.sol\":6959:6960  i */\n      dup5\n        /* \"DataTradingTest/UntraceableVoting.sol\":6933:6961  votings[id].candidatesIDs[i] */\n      dup2\n      sload\n      dup2\n      lt\n      tag_107\n      jumpi\n      tag_108\n      tag_82\n      jump\t// in\n    tag_108:\n    tag_107:\n      swap1\n      0x00\n      mstore\n      keccak256(0x00, 0x20)\n      add\n      0x00\n      swap1\n      sload\n      swap1\n      0x0100\n      exp\n      swap1\n      div\n      0xffffffffffffffffffffffffffffffffffffffff\n      and\n        /* \"DataTradingTest/UntraceableVoting.sol\":6905:7427  res = [... */\n      0xffffffffffffffffffffffffffffffffffffffff\n      and\n      0xffffffffffffffffffffffffffffffffffffffff\n      and\n      dup2\n      mstore\n      0x20\n      add\n        /* \"DataTradingTest/UntraceableVoting.sol\":6991:6992  0 */\n      0x00\n        /* \"DataTradingTest/UntraceableVoting.sol\":6905:7427  res = [... */\n      0xffffffffffffffffffffffffffffffffffffffff\n      and\n      0xffffffffffffffffffffffffffffffffffffffff\n      and\n      dup2\n      mstore\n      0x20\n      add\n        /* \"DataTradingTest/UntraceableVoting.sol\":7023:7024  0 */\n      0x00\n        /* \"DataTradingTest/UntraceableVoting.sol\":6905:7427  res = [... */\n      0xffffffffffffffffffffffffffffffffffffffff\n      and\n      0xffffffffffffffffffffffffffffffffffffffff\n      and\n      dup2\n      mstore\n      0x20\n      add\n        /* \"DataTradingTest/UntraceableVoting.sol\":7055:7056  0 */\n      0x00\n        /* \"DataTradingTest/UntraceableVoting.sol\":6905:7427  res = [... */\n      0xffffffffffffffffffffffffffffffffffffffff\n      and\n      0xffffffffffffffffffffffffffffffffffffffff\n      and\n      dup2\n      mstore\n      0x20\n      add\n        /* \"DataTradingTest/UntraceableVoting.sol\":7087:7088  0 */\n      0x00\n        /* \"DataTradingTest/UntraceableVoting.sol\":6905:7427  res = [... */\n      0xffffffffffffffffffffffffffffffffffffffff\n      and\n      0xffffffffffffffffffffffffffffffffffffffff\n      and\n      dup2\n      mstore\n      0x20\n      add\n        /* \"DataTradingTest/UntraceableVoting.sol\":7119:7120  0 */\n      0x00\n        /* \"DataTradingTest/UntraceableVoting.sol\":6905:7427  res = [... */\n      0xffffffffffffffffffffffffffffffffffffffff\n      and\n      0xffffffffffffffffffffffffffffffffffffffff\n      and\n      dup2\n      mstore\n      0x20\n      add\n        /* \"DataTradingTest/UntraceableVoting.sol\":7151:7152  0 */\n      0x00\n        /* \"DataTradingTest/UntraceableVoting.sol\":6905:7427  res = [... */\n      0xffffffffffffffffffffffffffffffffffffffff\n      and\n      0xffffffffffffffffffffffffffffffffffffffff\n      and\n      dup2\n      mstore\n      0x20\n      add\n        /* \"DataTradingTest/UntraceableVoting.sol\":7183:7184  0 */\n      0x00\n        /* \"DataTradingTest/UntraceableVoting.sol\":6905:7427  res = [... */\n      0xffffffffffffffffffffffffffffffffffffffff\n      and\n      0xffffffffffffffffffffffffffffffffffffffff\n      and\n      dup2\n      mstore\n      0x20\n      add\n        /* \"DataTradingTest/UntraceableVoting.sol\":7215:7216  0 */\n      0x00\n        /* \"DataTradingTest/UntraceableVoting.sol\":6905:7427  res = [... */\n      0xffffffffffffffffffffffffffffffffffffffff\n      and\n      0xffffffffffffffffffffffffffffffffffffffff\n      and\n      dup2\n      mstore\n      0x20\n      add\n        /* \"DataTradingTest/UntraceableVoting.sol\":7247:7248  0 */\n      0x00\n        /* \"DataTradingTest/UntraceableVoting.sol\":6905:7427  res = [... */\n      0xffffffffffffffffffffffffffffffffffffffff\n      and\n      0xffffffffffffffffffffffffffffffffffffffff\n      and\n      dup2\n      mstore\n      0x20\n      add\n        /* \"DataTradingTest/UntraceableVoting.sol\":7279:7280  0 */\n      0x00\n        /* \"DataTradingTest/UntraceableVoting.sol\":6905:7427  res = [... */\n      0xffffffffffffffffffffffffffffffffffffffff\n      and\n      0xffffffffffffffffffffffffffffffffffffffff\n      and\n      dup2\n      mstore\n      0x20\n      add\n        /* \"DataTradingTest/UntraceableVoting.sol\":7311:7312  0 */\n      0x00\n        /* \"DataTradingTest/UntraceableVoting.sol\":6905:7427  res = [... */\n      0xffffffffffffffffffffffffffffffffffffffff\n      and\n      0xffffffffffffffffffffffffffffffffffffffff\n      and\n      dup2\n      mstore\n      0x20\n      add\n        /* \"DataTradingTest/UntraceableVoting.sol\":7343:7344  0 */\n      0x00\n        /* \"DataTradingTest/UntraceableVoting.sol\":6905:7427  res = [... */\n      0xffffffffffffffffffffffffffffffffffffffff\n      and\n      0xffffffffffffffffffffffffffffffffffffffff\n      and\n      dup2\n      mstore\n      0x20\n      add\n        /* \"DataTradingTest/UntraceableVoting.sol\":7375:7376  0 */\n      0x00\n        /* \"DataTradingTest/UntraceableVoting.sol\":6905:7427  res = [... */\n      0xffffffffffffffffffffffffffffffffffffffff\n      and\n      0xffffffffffffffffffffffffffffffffffffffff\n      and\n      dup2\n      mstore\n      0x20\n      add\n        /* \"DataTradingTest/UntraceableVoting.sol\":7407:7408  0 */\n      0x00\n        /* \"DataTradingTest/UntraceableVoting.sol\":6905:7427  res = [... */\n      0xffffffffffffffffffffffffffffffffffffffff\n      and\n      0xffffffffffffffffffffffffffffffffffffffff\n      and\n      dup2\n      mstore\n      pop\n      swap4\n      pop\n        /* \"DataTradingTest/UntraceableVoting.sol\":7476:7479  val */\n      dup1\n        /* \"DataTradingTest/UntraceableVoting.sol\":7470:7479  max = val */\n      swap5\n      pop\n        /* \"DataTradingTest/UntraceableVoting.sol\":7507:7508  1 */\n      0x01\n        /* \"DataTradingTest/UntraceableVoting.sol\":7497:7508  counter = 1 */\n      swap3\n      pop\n        /* \"DataTradingTest/UntraceableVoting.sol\":6872:7761  if (val > max) {... */\n      jump(tag_110)\n    tag_106:\n        /* \"DataTradingTest/UntraceableVoting.sol\":7540:7543  max */\n      dup5\n        /* \"DataTradingTest/UntraceableVoting.sol\":7533:7536  val */\n      dup2\n        /* \"DataTradingTest/UntraceableVoting.sol\":7533:7543  val == max */\n      sub\n        /* \"DataTradingTest/UntraceableVoting.sol\":7529:7761  if (val == max) {... */\n      tag_111\n      jumpi\n        /* \"DataTradingTest/UntraceableVoting.sol\":7578:7585  votings */\n      0x02\n        /* \"DataTradingTest/UntraceableVoting.sol\":7578:7589  votings[id] */\n      0x00\n        /* \"DataTradingTest/UntraceableVoting.sol\":7586:7588  id */\n      dup10\n        /* \"DataTradingTest/UntraceableVoting.sol\":7578:7589  votings[id] */\n      0xffffffffffffffff\n      and\n      dup2\n      mstore\n      0x20\n      add\n      swap1\n      dup2\n      mstore\n      0x20\n      add\n      0x00\n      keccak256\n        /* \"DataTradingTest/UntraceableVoting.sol\":7578:7603  votings[id].candidatesIDs */\n      0x01\n      add\n        /* \"DataTradingTest/UntraceableVoting.sol\":7604:7605  i */\n      dup3\n        /* \"DataTradingTest/UntraceableVoting.sol\":7578:7606  votings[id].candidatesIDs[i] */\n      dup2\n      sload\n      dup2\n      lt\n      tag_112\n      jumpi\n      tag_113\n      tag_82\n      jump\t// in\n    tag_113:\n    tag_112:\n      swap1\n      0x00\n      mstore\n      keccak256(0x00, 0x20)\n      add\n      0x00\n      swap1\n      sload\n      swap1\n      0x0100\n      exp\n      swap1\n      div\n      0xffffffffffffffffffffffffffffffffffffffff\n      and\n        /* \"DataTradingTest/UntraceableVoting.sol\":7563:7566  res */\n      dup5\n        /* \"DataTradingTest/UntraceableVoting.sol\":7567:7574  counter */\n      dup5\n        /* \"DataTradingTest/UntraceableVoting.sol\":7563:7575  res[counter] */\n      0xff\n      and\n      0x0f\n      dup2\n      lt\n      tag_115\n      jumpi\n      tag_116\n      tag_82\n      jump\t// in\n    tag_116:\n    tag_115:\n      0x20\n      mul\n      add\n        /* \"DataTradingTest/UntraceableVoting.sol\":7563:7606  res[counter] = votings[id].candidatesIDs[i] */\n      swap1\n      0xffffffffffffffffffffffffffffffffffffffff\n      and\n      swap1\n      dup2\n      0xffffffffffffffffffffffffffffffffffffffff\n      and\n      dup2\n      mstore\n      pop\n      pop\n        /* \"DataTradingTest/UntraceableVoting.sol\":7649:7658  counter++ */\n      dup3\n      dup1\n      tag_117\n      swap1\n      tag_118\n      jump\t// in\n    tag_117:\n      swap4\n      pop\n      pop\n        /* \"DataTradingTest/UntraceableVoting.sol\":7691:7693  14 */\n      0x0e\n        /* \"DataTradingTest/UntraceableVoting.sol\":7680:7687  counter */\n      dup4\n        /* \"DataTradingTest/UntraceableVoting.sol\":7680:7693  counter == 14 */\n      0xff\n      and\n      sub\n        /* \"DataTradingTest/UntraceableVoting.sol\":7676:7747  if (counter == 14) {... */\n      tag_119\n      jumpi\n        /* \"DataTradingTest/UntraceableVoting.sol\":7727:7728  1 */\n      0x01\n        /* \"DataTradingTest/UntraceableVoting.sol\":7717:7728  counter = 1 */\n      swap3\n      pop\n        /* \"DataTradingTest/UntraceableVoting.sol\":7676:7747  if (counter == 14) {... */\n    tag_119:\n        /* \"DataTradingTest/UntraceableVoting.sol\":7529:7761  if (val == max) {... */\n    tag_111:\n        /* \"DataTradingTest/UntraceableVoting.sol\":6872:7761  if (val > max) {... */\n    tag_110:\n        /* \"DataTradingTest/UntraceableVoting.sol\":6778:7771  {... */\n      pop\n        /* \"DataTradingTest/UntraceableVoting.sol\":6773:6776  i++ */\n      dup1\n      dup1\n      0x01\n      add\n      swap2\n      pop\n      pop\n        /* \"DataTradingTest/UntraceableVoting.sol\":6715:7771  for (uint256 i = 0; i < votings[id].candidatesIDs.length; i++) {... */\n      jump(tag_100)\n    tag_101:\n      pop\n        /* \"DataTradingTest/UntraceableVoting.sol\":7788:7791  res */\n      dup2\n        /* \"DataTradingTest/UntraceableVoting.sol\":7793:7800  counter */\n      dup2\n        /* \"DataTradingTest/UntraceableVoting.sol\":7780:7801  return (res, counter) */\n      swap5\n      pop\n      swap5\n      pop\n      pop\n      pop\n      pop\n        /* \"DataTradingTest/UntraceableVoting.sol\":6332:7851  function VoteLeaders(uint64 id)... */\n      swap2\n      pop\n      swap2\n      jump\t// out\n        /* \"DataTradingTest/UntraceableVoting.sol\":4654:4786  function oops() external onlyOwner {... */\n    tag_30:\n        /* \"DataTradingTest/UntraceableVoting.sol\":4560:4565  owner */\n      0x01\n      0x00\n      swap1\n      sload\n      swap1\n      0x0100\n      exp\n      swap1\n      div\n      0xffffffffffffffffffffffffffffffffffffffff\n      and\n        /* \"DataTradingTest/UntraceableVoting.sol\":4546:4565  msg.sender == owner */\n      0xffffffffffffffffffffffffffffffffffffffff\n      and\n        /* \"DataTradingTest/UntraceableVoting.sol\":4546:4556  msg.sender */\n      caller\n        /* \"DataTradingTest/UntraceableVoting.sol\":4546:4565  msg.sender == owner */\n      0xffffffffffffffffffffffffffffffffffffffff\n      and\n      eq\n        /* \"DataTradingTest/UntraceableVoting.sol\":4538:4588  require(msg.sender == owner, \"Only owner allowed\") */\n      tag_121\n      jumpi\n      mload(0x40)\n      0x08c379a000000000000000000000000000000000000000000000000000000000\n      dup2\n      mstore\n      0x04\n      add\n      tag_122\n      swap1\n      tag_88\n      jump\t// in\n    tag_122:\n      mload(0x40)\n      dup1\n      swap2\n      sub\n      swap1\n      revert\n    tag_121:\n        /* \"DataTradingTest/UntraceableVoting.sol\":4707:4712  owner */\n      0x01\n      0x00\n      swap1\n      sload\n      swap1\n      0x0100\n      exp\n      swap1\n      div\n      0xffffffffffffffffffffffffffffffffffffffff\n      and\n        /* \"DataTradingTest/UntraceableVoting.sol\":4699:4722  payable(owner).transfer */\n      0xffffffffffffffffffffffffffffffffffffffff\n      and\n        /* \"DataTradingTest/UntraceableVoting.sol\":4699:4745  payable(owner).transfer(address(this).balance) */\n      0x08fc\n        /* \"DataTradingTest/UntraceableVoting.sol\":4723:4744  address(this).balance */\n      selfbalance\n        /* \"DataTradingTest/UntraceableVoting.sol\":4699:4745  payable(owner).transfer(address(this).balance) */\n      swap1\n      dup2\n      iszero\n      mul\n      swap1\n      mload(0x40)\n      0x00\n      mload(0x40)\n      dup1\n      dup4\n      sub\n      dup2\n      dup6\n      dup9\n      dup9\n      call\n      swap4\n      pop\n      pop\n      pop\n      pop\n      iszero\n      dup1\n      iszero\n      tag_125\n      jumpi\n      returndatasize\n      0x00\n      dup1\n      returndatacopy\n      revert(0x00, returndatasize)\n    tag_125:\n      pop\n        /* \"DataTradingTest/UntraceableVoting.sol\":4654:4786  function oops() external onlyOwner {... */\n      jump\t// out\n        /* \"DataTradingTest/UntraceableVoting.sol\":7877:9126  function VoteAnnonymous(... */\n    tag_34:\n        /* \"DataTradingTest/UntraceableVoting.sol\":8097:8098  0 */\n      0x00\n        /* \"DataTradingTest/UntraceableVoting.sol\":8079:8086  votings */\n      0x02\n        /* \"DataTradingTest/UntraceableVoting.sol\":8079:8090  votings[id] */\n      0x00\n        /* \"DataTradingTest/UntraceableVoting.sol\":8087:8089  id */\n      dup10\n        /* \"DataTradingTest/UntraceableVoting.sol\":8079:8090  votings[id] */\n      0xffffffffffffffff\n      and\n      dup2\n      mstore\n      0x20\n      add\n      swap1\n      dup2\n      mstore\n      0x20\n      add\n      0x00\n      keccak256\n        /* \"DataTradingTest/UntraceableVoting.sol\":8079:8093  votings[id].id */\n      0x02\n      add\n      0x00\n      swap1\n      sload\n      swap1\n      0x0100\n      exp\n      swap1\n      div\n      0xffffffffffffffff\n      and\n        /* \"DataTradingTest/UntraceableVoting.sol\":8079:8098  votings[id].id != 0 */\n      0xffffffffffffffff\n      and\n      sub\n        /* \"DataTradingTest/UntraceableVoting.sol\":8071:8122  require(votings[id].id != 0, \"Vote does not exist\") */\n      tag_127\n      jumpi\n      mload(0x40)\n      0x08c379a000000000000000000000000000000000000000000000000000000000\n      dup2\n      mstore\n      0x04\n      add\n      tag_128\n      swap1\n      tag_95\n      jump\t// in\n    tag_128:\n      mload(0x40)\n      dup1\n      swap2\n      sub\n      swap1\n      revert\n    tag_127:\n        /* \"DataTradingTest/UntraceableVoting.sol\":8168:8175  votings */\n      0x02\n        /* \"DataTradingTest/UntraceableVoting.sol\":8168:8179  votings[id] */\n      0x00\n        /* \"DataTradingTest/UntraceableVoting.sol\":8176:8178  id */\n      dup9\n        /* \"DataTradingTest/UntraceableVoting.sol\":8168:8179  votings[id] */\n      0xffffffffffffffff\n      and\n      dup2\n      mstore\n      0x20\n      add\n      swap1\n      dup2\n      mstore\n      0x20\n      add\n      0x00\n      keccak256\n        /* \"DataTradingTest/UntraceableVoting.sol\":8168:8185  votings[id].ready */\n      0x08\n      add\n      0x01\n      swap1\n      sload\n      swap1\n      0x0100\n      exp\n      swap1\n      div\n      0xff\n      and\n        /* \"DataTradingTest/UntraceableVoting.sol\":8160:8207  require(votings[id].ready, \"Vote is not ready\") */\n      tag_129\n      jumpi\n      mload(0x40)\n      0x08c379a000000000000000000000000000000000000000000000000000000000\n      dup2\n      mstore\n      0x04\n      add\n      tag_130\n      swap1\n      tag_98\n      jump\t// in\n    tag_130:\n      mload(0x40)\n      dup1\n      swap2\n      sub\n      swap1\n      revert\n    tag_129:\n        /* \"DataTradingTest/UntraceableVoting.sol\":8260:8267  votings */\n      0x02\n        /* \"DataTradingTest/UntraceableVoting.sol\":8260:8271  votings[id] */\n      0x00\n        /* \"DataTradingTest/UntraceableVoting.sol\":8268:8270  id */\n      dup9\n        /* \"DataTradingTest/UntraceableVoting.sol\":8260:8271  votings[id] */\n      0xffffffffffffffff\n      and\n      dup2\n      mstore\n      0x20\n      add\n      swap1\n      dup2\n      mstore\n      0x20\n      add\n      0x00\n      keccak256\n        /* \"DataTradingTest/UntraceableVoting.sol\":8260:8276  votings[id].done */\n      0x08\n      add\n      0x00\n      swap1\n      sload\n      swap1\n      0x0100\n      exp\n      swap1\n      div\n      0xff\n      and\n        /* \"DataTradingTest/UntraceableVoting.sol\":8259:8276  !votings[id].done */\n      iszero\n        /* \"DataTradingTest/UntraceableVoting.sol\":8251:8306  require(!votings[id].done, \"Vote is already completed\") */\n      tag_131\n      jumpi\n      mload(0x40)\n      0x08c379a000000000000000000000000000000000000000000000000000000000\n      dup2\n      mstore\n      0x04\n      add\n      tag_132\n      swap1\n      tag_133\n      jump\t// in\n    tag_132:\n      mload(0x40)\n      dup1\n      swap2\n      sub\n      swap1\n      revert\n    tag_131:\n        /* \"DataTradingTest/UntraceableVoting.sol\":8380:8387  votings */\n      0x02\n        /* \"DataTradingTest/UntraceableVoting.sol\":8380:8391  votings[id] */\n      0x00\n        /* \"DataTradingTest/UntraceableVoting.sol\":8388:8390  id */\n      dup9\n        /* \"DataTradingTest/UntraceableVoting.sol\":8380:8391  votings[id] */\n      0xffffffffffffffff\n      and\n      dup2\n      mstore\n      0x20\n      add\n      swap1\n      dup2\n      mstore\n      0x20\n      add\n      0x00\n      keccak256\n        /* \"DataTradingTest/UntraceableVoting.sol\":8380:8399  votings[id].votersX */\n      0x06\n      add\n        /* \"DataTradingTest/UntraceableVoting.sol\":8380:8406  votings[id].votersX.length */\n      dup1\n      sload\n      swap1\n      pop\n        /* \"DataTradingTest/UntraceableVoting.sol\":8368:8369  s */\n      dup3\n      dup3\n        /* \"DataTradingTest/UntraceableVoting.sol\":8368:8376  s.length */\n      swap1\n      pop\n        /* \"DataTradingTest/UntraceableVoting.sol\":8368:8406  s.length == votings[id].votersX.length */\n      eq\n        /* \"DataTradingTest/UntraceableVoting.sol\":8347:8456  require(... */\n      tag_134\n      jumpi\n      mload(0x40)\n      0x08c379a000000000000000000000000000000000000000000000000000000000\n      dup2\n      mstore\n      0x04\n      add\n      tag_135\n      swap1\n      tag_136\n      jump\t// in\n    tag_135:\n      mload(0x40)\n      dup1\n      swap2\n      sub\n      swap1\n      revert\n    tag_134:\n        /* \"DataTradingTest/UntraceableVoting.sol\":8547:8548  1 */\n      0x01\n        /* \"DataTradingTest/UntraceableVoting.sol\":8508:8515  votings */\n      0x02\n        /* \"DataTradingTest/UntraceableVoting.sol\":8508:8519  votings[id] */\n      0x00\n        /* \"DataTradingTest/UntraceableVoting.sol\":8516:8518  id */\n      dup10\n        /* \"DataTradingTest/UntraceableVoting.sol\":8508:8519  votings[id] */\n      0xffffffffffffffff\n      and\n      dup2\n      mstore\n      0x20\n      add\n      swap1\n      dup2\n      mstore\n      0x20\n      add\n      0x00\n      keccak256\n        /* \"DataTradingTest/UntraceableVoting.sol\":8508:8530  votings[id].candidates */\n      0x0a\n      add\n        /* \"DataTradingTest/UntraceableVoting.sol\":8508:8543  votings[id].candidates[candidateId] */\n      0x00\n        /* \"DataTradingTest/UntraceableVoting.sol\":8531:8542  candidateId */\n      dup9\n        /* \"DataTradingTest/UntraceableVoting.sol\":8508:8543  votings[id].candidates[candidateId] */\n      0xffffffffffffffffffffffffffffffffffffffff\n      and\n      0xffffffffffffffffffffffffffffffffffffffff\n      and\n      dup2\n      mstore\n      0x20\n      add\n      swap1\n      dup2\n      mstore\n      0x20\n      add\n      0x00\n      keccak256\n      sload\n        /* \"DataTradingTest/UntraceableVoting.sol\":8508:8548  votings[id].candidates[candidateId] >= 1 */\n      lt\n      iszero\n        /* \"DataTradingTest/UntraceableVoting.sol\":8500:8570  require(votings[id].candidates[candidateId] >= 1, \"Invalid candidate\") */\n      tag_137\n      jumpi\n      mload(0x40)\n      0x08c379a000000000000000000000000000000000000000000000000000000000\n      dup2\n      mstore\n      0x04\n      add\n      tag_138\n      swap1\n      tag_139\n      jump\t// in\n    tag_138:\n      mload(0x40)\n      dup1\n      swap2\n      sub\n      swap1\n      revert\n    tag_137:\n        /* \"DataTradingTest/UntraceableVoting.sol\":8654:8659  false */\n      0x00\n        /* \"DataTradingTest/UntraceableVoting.sol\":8619:8659  votings[id].keyimageHashMap[Ix] == false */\n      iszero\n      iszero\n        /* \"DataTradingTest/UntraceableVoting.sol\":8619:8626  votings */\n      0x02\n        /* \"DataTradingTest/UntraceableVoting.sol\":8619:8630  votings[id] */\n      0x00\n        /* \"DataTradingTest/UntraceableVoting.sol\":8627:8629  id */\n      dup10\n        /* \"DataTradingTest/UntraceableVoting.sol\":8619:8630  votings[id] */\n      0xffffffffffffffff\n      and\n      dup2\n      mstore\n      0x20\n      add\n      swap1\n      dup2\n      mstore\n      0x20\n      add\n      0x00\n      keccak256\n        /* \"DataTradingTest/UntraceableVoting.sol\":8619:8646  votings[id].keyimageHashMap */\n      0x09\n      add\n        /* \"DataTradingTest/UntraceableVoting.sol\":8619:8650  votings[id].keyimageHashMap[Ix] */\n      0x00\n        /* \"DataTradingTest/UntraceableVoting.sol\":8647:8649  Ix */\n      dup8\n        /* \"DataTradingTest/UntraceableVoting.sol\":8619:8650  votings[id].keyimageHashMap[Ix] */\n      dup2\n      mstore\n      0x20\n      add\n      swap1\n      dup2\n      mstore\n      0x20\n      add\n      0x00\n      keccak256\n      0x00\n      swap1\n      sload\n      swap1\n      0x0100\n      exp\n      swap1\n      div\n      0xff\n      and\n        /* \"DataTradingTest/UntraceableVoting.sol\":8619:8659  votings[id].keyimageHashMap[Ix] == false */\n      iszero\n      iszero\n      eq\n        /* \"DataTradingTest/UntraceableVoting.sol\":8611:8681  require(votings[id].keyimageHashMap[Ix] == false, \"Vote already cast\") */\n      tag_140\n      jumpi\n      mload(0x40)\n      0x08c379a000000000000000000000000000000000000000000000000000000000\n      dup2\n      mstore\n      0x04\n      add\n      tag_141\n      swap1\n      tag_142\n      jump\t// in\n    tag_141:\n      mload(0x40)\n      dup1\n      swap2\n      sub\n      swap1\n      revert\n    tag_140:\n        /* \"DataTradingTest/UntraceableVoting.sol\":8741:8791  verifyRingSignature(candidateId, id, Ix, Iy, c, s) */\n      tag_143\n        /* \"DataTradingTest/UntraceableVoting.sol\":8761:8772  candidateId */\n      dup7\n        /* \"DataTradingTest/UntraceableVoting.sol\":8774:8776  id */\n      dup9\n        /* \"DataTradingTest/UntraceableVoting.sol\":8778:8780  Ix */\n      dup8\n        /* \"DataTradingTest/UntraceableVoting.sol\":8782:8784  Iy */\n      dup8\n        /* \"DataTradingTest/UntraceableVoting.sol\":8786:8787  c */\n      dup8\n        /* \"DataTradingTest/UntraceableVoting.sol\":8789:8790  s */\n      dup8\n      dup8\n        /* \"DataTradingTest/UntraceableVoting.sol\":8741:8760  verifyRingSignature */\n      tag_144\n        /* \"DataTradingTest/UntraceableVoting.sol\":8741:8791  verifyRingSignature(candidateId, id, Ix, Iy, c, s) */\n      jump\t// in\n    tag_143:\n        /* \"DataTradingTest/UntraceableVoting.sol\":8720:8834  require(... */\n      tag_145\n      jumpi\n      mload(0x40)\n      0x08c379a000000000000000000000000000000000000000000000000000000000\n      dup2\n      mstore\n      0x04\n      add\n      tag_146\n      swap1\n      tag_147\n      jump\t// in\n    tag_146:\n      mload(0x40)\n      dup1\n      swap2\n      sub\n      swap1\n      revert\n    tag_145:\n        /* \"DataTradingTest/UntraceableVoting.sol\":8883:8892  msg.value */\n      callvalue\n        /* \"DataTradingTest/UntraceableVoting.sol\":8864:8871  votings */\n      0x02\n        /* \"DataTradingTest/UntraceableVoting.sol\":8864:8875  votings[id] */\n      0x00\n        /* \"DataTradingTest/UntraceableVoting.sol\":8872:8874  id */\n      dup10\n        /* \"DataTradingTest/UntraceableVoting.sol\":8864:8875  votings[id] */\n      0xffffffffffffffff\n      and\n      dup2\n      mstore\n      0x20\n      add\n      swap1\n      dup2\n      mstore\n      0x20\n      add\n      0x00\n      keccak256\n        /* \"DataTradingTest/UntraceableVoting.sol\":8864:8879  votings[id].val */\n      0x03\n      add\n      0x00\n        /* \"DataTradingTest/UntraceableVoting.sol\":8864:8892  votings[id].val += msg.value */\n      dup3\n      dup3\n      sload\n      tag_148\n      swap2\n      swap1\n      tag_149\n      jump\t// in\n    tag_148:\n      swap3\n      pop\n      pop\n      dup2\n      swap1\n      sstore\n      pop\n        /* \"DataTradingTest/UntraceableVoting.sol\":8966:8967  1 */\n      0x01\n        /* \"DataTradingTest/UntraceableVoting.sol\":8927:8934  votings */\n      0x02\n        /* \"DataTradingTest/UntraceableVoting.sol\":8927:8938  votings[id] */\n      0x00\n        /* \"DataTradingTest/UntraceableVoting.sol\":8935:8937  id */\n      dup10\n        /* \"DataTradingTest/UntraceableVoting.sol\":8927:8938  votings[id] */\n      0xffffffffffffffff\n      and\n      dup2\n      mstore\n      0x20\n      add\n      swap1\n      dup2\n      mstore\n      0x20\n      add\n      0x00\n      keccak256\n        /* \"DataTradingTest/UntraceableVoting.sol\":8927:8949  votings[id].candidates */\n      0x0a\n      add\n        /* \"DataTradingTest/UntraceableVoting.sol\":8927:8962  votings[id].candidates[candidateId] */\n      0x00\n        /* \"DataTradingTest/UntraceableVoting.sol\":8950:8961  candidateId */\n      dup9\n        /* \"DataTradingTest/UntraceableVoting.sol\":8927:8962  votings[id].candidates[candidateId] */\n      0xffffffffffffffffffffffffffffffffffffffff\n      and\n      0xffffffffffffffffffffffffffffffffffffffff\n      and\n      dup2\n      mstore\n      0x20\n      add\n      swap1\n      dup2\n      mstore\n      0x20\n      add\n      0x00\n      keccak256\n      0x00\n        /* \"DataTradingTest/UntraceableVoting.sol\":8927:8967  votings[id].candidates[candidateId] += 1 */\n      dup3\n      dup3\n      sload\n      tag_150\n      swap2\n      swap1\n      tag_149\n      jump\t// in\n    tag_150:\n      swap3\n      pop\n      pop\n      dup2\n      swap1\n      sstore\n      pop\n        /* \"DataTradingTest/UntraceableVoting.sol\":9032:9033  1 */\n      0x01\n        /* \"DataTradingTest/UntraceableVoting.sol\":9005:9012  votings */\n      0x02\n        /* \"DataTradingTest/UntraceableVoting.sol\":9005:9016  votings[id] */\n      0x00\n        /* \"DataTradingTest/UntraceableVoting.sol\":9013:9015  id */\n      dup10\n        /* \"DataTradingTest/UntraceableVoting.sol\":9005:9016  votings[id] */\n      0xffffffffffffffff\n      and\n      dup2\n      mstore\n      0x20\n      add\n      swap1\n      dup2\n      mstore\n      0x20\n      add\n      0x00\n      keccak256\n        /* \"DataTradingTest/UntraceableVoting.sol\":9005:9028  votings[id].votecounter */\n      0x05\n      add\n      0x00\n        /* \"DataTradingTest/UntraceableVoting.sol\":9005:9033  votings[id].votecounter += 1 */\n      dup3\n      dup3\n      sload\n      tag_151\n      swap2\n      swap1\n      tag_149\n      jump\t// in\n    tag_151:\n      swap3\n      pop\n      pop\n      dup2\n      swap1\n      sstore\n      pop\n        /* \"DataTradingTest/UntraceableVoting.sol\":9099:9103  true */\n      0x01\n        /* \"DataTradingTest/UntraceableVoting.sol\":9065:9072  votings */\n      0x02\n        /* \"DataTradingTest/UntraceableVoting.sol\":9065:9076  votings[id] */\n      0x00\n        /* \"DataTradingTest/UntraceableVoting.sol\":9073:9075  id */\n      dup10\n        /* \"DataTradingTest/UntraceableVoting.sol\":9065:9076  votings[id] */\n      0xffffffffffffffff\n      and\n      dup2\n      mstore\n      0x20\n      add\n      swap1\n      dup2\n      mstore\n      0x20\n      add\n      0x00\n      keccak256\n        /* \"DataTradingTest/UntraceableVoting.sol\":9065:9092  votings[id].keyimageHashMap */\n      0x09\n      add\n        /* \"DataTradingTest/UntraceableVoting.sol\":9065:9096  votings[id].keyimageHashMap[Ix] */\n      0x00\n        /* \"DataTradingTest/UntraceableVoting.sol\":9093:9095  Ix */\n      dup8\n        /* \"DataTradingTest/UntraceableVoting.sol\":9065:9096  votings[id].keyimageHashMap[Ix] */\n      dup2\n      mstore\n      0x20\n      add\n      swap1\n      dup2\n      mstore\n      0x20\n      add\n      0x00\n      keccak256\n      0x00\n        /* \"DataTradingTest/UntraceableVoting.sol\":9065:9103  votings[id].keyimageHashMap[Ix] = true */\n      0x0100\n      exp\n      dup2\n      sload\n      dup2\n      0xff\n      mul\n      not\n      and\n      swap1\n      dup4\n      iszero\n      iszero\n      mul\n      or\n      swap1\n      sstore\n      pop\n        /* \"DataTradingTest/UntraceableVoting.sol\":7877:9126  function VoteAnnonymous(... */\n      pop\n      pop\n      pop\n      pop\n      pop\n      pop\n      pop\n      jump\t// out\n        /* \"DataTradingTest/UntraceableVoting.sol\":4969:5450  function VoteState(uint64 id, address candidate)... */\n    tag_39:\n        /* \"DataTradingTest/UntraceableVoting.sol\":5065:5069  bool */\n      0x00\n        /* \"DataTradingTest/UntraceableVoting.sol\":5071:5078  uint256 */\n      dup1\n        /* \"DataTradingTest/UntraceableVoting.sol\":5120:5121  0 */\n      0x00\n        /* \"DataTradingTest/UntraceableVoting.sol\":5102:5109  votings */\n      0x02\n        /* \"DataTradingTest/UntraceableVoting.sol\":5102:5113  votings[id] */\n      0x00\n        /* \"DataTradingTest/UntraceableVoting.sol\":5110:5112  id */\n      dup7\n        /* \"DataTradingTest/UntraceableVoting.sol\":5102:5113  votings[id] */\n      0xffffffffffffffff\n      and\n      dup2\n      mstore\n      0x20\n      add\n      swap1\n      dup2\n      mstore\n      0x20\n      add\n      0x00\n      keccak256\n        /* \"DataTradingTest/UntraceableVoting.sol\":5102:5116  votings[id].id */\n      0x02\n      add\n      0x00\n      swap1\n      sload\n      swap1\n      0x0100\n      exp\n      swap1\n      div\n      0xffffffffffffffff\n      and\n        /* \"DataTradingTest/UntraceableVoting.sol\":5102:5121  votings[id].id != 0 */\n      0xffffffffffffffff\n      and\n      sub\n        /* \"DataTradingTest/UntraceableVoting.sol\":5094:5145  require(votings[id].id != 0, \"Vote does not exist\") */\n      tag_153\n      jumpi\n      mload(0x40)\n      0x08c379a000000000000000000000000000000000000000000000000000000000\n      dup2\n      mstore\n      0x04\n      add\n      tag_154\n      swap1\n      tag_95\n      jump\t// in\n    tag_154:\n      mload(0x40)\n      dup1\n      swap2\n      sub\n      swap1\n      revert\n    tag_153:\n        /* \"DataTradingTest/UntraceableVoting.sol\":5228:5229  0 */\n      0x00\n        /* \"DataTradingTest/UntraceableVoting.sol\":5191:5198  votings */\n      0x02\n        /* \"DataTradingTest/UntraceableVoting.sol\":5191:5202  votings[id] */\n      0x00\n        /* \"DataTradingTest/UntraceableVoting.sol\":5199:5201  id */\n      dup7\n        /* \"DataTradingTest/UntraceableVoting.sol\":5191:5202  votings[id] */\n      0xffffffffffffffff\n      and\n      dup2\n      mstore\n      0x20\n      add\n      swap1\n      dup2\n      mstore\n      0x20\n      add\n      0x00\n      keccak256\n        /* \"DataTradingTest/UntraceableVoting.sol\":5191:5213  votings[id].candidates */\n      0x0a\n      add\n        /* \"DataTradingTest/UntraceableVoting.sol\":5191:5224  votings[id].candidates[candidate] */\n      0x00\n        /* \"DataTradingTest/UntraceableVoting.sol\":5214:5223  candidate */\n      dup6\n        /* \"DataTradingTest/UntraceableVoting.sol\":5191:5224  votings[id].candidates[candidate] */\n      0xffffffffffffffffffffffffffffffffffffffff\n      and\n      0xffffffffffffffffffffffffffffffffffffffff\n      and\n      dup2\n      mstore\n      0x20\n      add\n      swap1\n      dup2\n      mstore\n      0x20\n      add\n      0x00\n      keccak256\n      sload\n        /* \"DataTradingTest/UntraceableVoting.sol\":5191:5229  votings[id].candidates[candidate] != 0 */\n      sub\n        /* \"DataTradingTest/UntraceableVoting.sol\":5183:5253  require(votings[id].candidates[candidate] != 0, \"Candidate not found\") */\n      tag_155\n      jumpi\n      mload(0x40)\n      0x08c379a000000000000000000000000000000000000000000000000000000000\n      dup2\n      mstore\n      0x04\n      add\n      tag_156\n      swap1\n      tag_157\n      jump\t// in\n    tag_156:\n      mload(0x40)\n      dup1\n      swap2\n      sub\n      swap1\n      revert\n    tag_155:\n        /* \"DataTradingTest/UntraceableVoting.sol\":5342:5349  votings */\n      0x02\n        /* \"DataTradingTest/UntraceableVoting.sol\":5342:5353  votings[id] */\n      0x00\n        /* \"DataTradingTest/UntraceableVoting.sol\":5350:5352  id */\n      dup6\n        /* \"DataTradingTest/UntraceableVoting.sol\":5342:5353  votings[id] */\n      0xffffffffffffffff\n      and\n      dup2\n      mstore\n      0x20\n      add\n      swap1\n      dup2\n      mstore\n      0x20\n      add\n      0x00\n      keccak256\n        /* \"DataTradingTest/UntraceableVoting.sol\":5342:5364  votings[id].threashold */\n      0x04\n      add\n      sload\n        /* \"DataTradingTest/UntraceableVoting.sol\":5315:5322  votings */\n      0x02\n        /* \"DataTradingTest/UntraceableVoting.sol\":5315:5326  votings[id] */\n      0x00\n        /* \"DataTradingTest/UntraceableVoting.sol\":5323:5325  id */\n      dup7\n        /* \"DataTradingTest/UntraceableVoting.sol\":5315:5326  votings[id] */\n      0xffffffffffffffff\n      and\n      dup2\n      mstore\n      0x20\n      add\n      swap1\n      dup2\n      mstore\n      0x20\n      add\n      0x00\n      keccak256\n        /* \"DataTradingTest/UntraceableVoting.sol\":5315:5338  votings[id].votecounter */\n      0x05\n      add\n      sload\n        /* \"DataTradingTest/UntraceableVoting.sol\":5315:5364  votings[id].votecounter >= votings[id].threashold */\n      lt\n      iszero\n        /* \"DataTradingTest/UntraceableVoting.sol\":5378:5385  votings */\n      0x02\n        /* \"DataTradingTest/UntraceableVoting.sol\":5378:5389  votings[id] */\n      0x00\n        /* \"DataTradingTest/UntraceableVoting.sol\":5386:5388  id */\n      dup7\n        /* \"DataTradingTest/UntraceableVoting.sol\":5378:5389  votings[id] */\n      0xffffffffffffffff\n      and\n      dup2\n      mstore\n      0x20\n      add\n      swap1\n      dup2\n      mstore\n      0x20\n      add\n      0x00\n      keccak256\n        /* \"DataTradingTest/UntraceableVoting.sol\":5378:5400  votings[id].candidates */\n      0x0a\n      add\n        /* \"DataTradingTest/UntraceableVoting.sol\":5378:5411  votings[id].candidates[candidate] */\n      0x00\n        /* \"DataTradingTest/UntraceableVoting.sol\":5401:5410  candidate */\n      dup6\n        /* \"DataTradingTest/UntraceableVoting.sol\":5378:5411  votings[id].candidates[candidate] */\n      0xffffffffffffffffffffffffffffffffffffffff\n      and\n      0xffffffffffffffffffffffffffffffffffffffff\n      and\n      dup2\n      mstore\n      0x20\n      add\n      swap1\n      dup2\n      mstore\n      0x20\n      add\n      0x00\n      keccak256\n      sload\n        /* \"DataTradingTest/UntraceableVoting.sol\":5294:5421  return (... */\n      swap2\n      pop\n      swap2\n      pop\n        /* \"DataTradingTest/UntraceableVoting.sol\":4969:5450  function VoteState(uint64 id, address candidate)... */\n      swap3\n      pop\n      swap3\n      swap1\n      pop\n      jump\t// out\n        /* \"DataTradingTest/UntraceableVoting.sol\":1120:1161  mapping(uint256 => voting) public votings */\n    tag_46:\n      mstore(0x20, 0x02)\n      dup1\n      0x00\n      mstore\n      keccak256(0x00, 0x40)\n      0x00\n      swap2\n      pop\n      swap1\n      pop\n      dup1\n      0x00\n      add\n      0x00\n      swap1\n      sload\n      swap1\n      0x0100\n      exp\n      swap1\n      div\n      0xffffffffffffffffffffffffffffffffffffffff\n      and\n      swap1\n      dup1\n      0x02\n      add\n      0x00\n      swap1\n      sload\n      swap1\n      0x0100\n      exp\n      swap1\n      div\n      0xffffffffffffffff\n      and\n      swap1\n      dup1\n      0x03\n      add\n      sload\n      swap1\n      dup1\n      0x04\n      add\n      sload\n      swap1\n      dup1\n      0x05\n      add\n      sload\n      swap1\n      dup1\n      0x08\n      add\n      0x00\n      swap1\n      sload\n      swap1\n      0x0100\n      exp\n      swap1\n      div\n      0xff\n      and\n      swap1\n      dup1\n      0x08\n      add\n      0x01\n      swap1\n      sload\n      swap1\n      0x0100\n      exp\n      swap1\n      div\n      0xff\n      and\n      swap1\n      pop\n      dup8\n      jump\t// out\n        /* \"DataTradingTest/UntraceableVoting.sol\":2512:3951  function addVotersToVote(... */\n    tag_53:\n        /* \"DataTradingTest/UntraceableVoting.sol\":2741:2742  0 */\n      0x00\n        /* \"DataTradingTest/UntraceableVoting.sol\":2723:2730  votings */\n      0x02\n        /* \"DataTradingTest/UntraceableVoting.sol\":2723:2734  votings[id] */\n      0x00\n        /* \"DataTradingTest/UntraceableVoting.sol\":2731:2733  id */\n      dup10\n        /* \"DataTradingTest/UntraceableVoting.sol\":2723:2734  votings[id] */\n      0xffffffffffffffff\n      and\n      dup2\n      mstore\n      0x20\n      add\n      swap1\n      dup2\n      mstore\n      0x20\n      add\n      0x00\n      keccak256\n        /* \"DataTradingTest/UntraceableVoting.sol\":2723:2737  votings[id].id */\n      0x02\n      add\n      0x00\n      swap1\n      sload\n      swap1\n      0x0100\n      exp\n      swap1\n      div\n      0xffffffffffffffff\n      and\n        /* \"DataTradingTest/UntraceableVoting.sol\":2723:2742  votings[id].id != 0 */\n      0xffffffffffffffff\n      and\n      sub\n        /* \"DataTradingTest/UntraceableVoting.sol\":2715:2766  require(votings[id].id != 0, \"Vote does not exist\") */\n      tag_159\n      jumpi\n      mload(0x40)\n      0x08c379a000000000000000000000000000000000000000000000000000000000\n      dup2\n      mstore\n      0x04\n      add\n      tag_160\n      swap1\n      tag_95\n      jump\t// in\n    tag_160:\n      mload(0x40)\n      dup1\n      swap2\n      sub\n      swap1\n      revert\n    tag_159:\n        /* \"DataTradingTest/UntraceableVoting.sol\":2813:2820  votings */\n      0x02\n        /* \"DataTradingTest/UntraceableVoting.sol\":2813:2824  votings[id] */\n      0x00\n        /* \"DataTradingTest/UntraceableVoting.sol\":2821:2823  id */\n      dup9\n        /* \"DataTradingTest/UntraceableVoting.sol\":2813:2824  votings[id] */\n      0xffffffffffffffff\n      and\n      dup2\n      mstore\n      0x20\n      add\n      swap1\n      dup2\n      mstore\n      0x20\n      add\n      0x00\n      keccak256\n        /* \"DataTradingTest/UntraceableVoting.sol\":2813:2830  votings[id].ready */\n      0x08\n      add\n      0x01\n      swap1\n      sload\n      swap1\n      0x0100\n      exp\n      swap1\n      div\n      0xff\n      and\n        /* \"DataTradingTest/UntraceableVoting.sol\":2812:2830  !votings[id].ready */\n      iszero\n        /* \"DataTradingTest/UntraceableVoting.sol\":2804:2856  require(!votings[id].ready, \"Vote is already ready\") */\n      tag_161\n      jumpi\n      mload(0x40)\n      0x08c379a000000000000000000000000000000000000000000000000000000000\n      dup2\n      mstore\n      0x04\n      add\n      tag_162\n      swap1\n      tag_163\n      jump\t// in\n    tag_162:\n      mload(0x40)\n      dup1\n      swap2\n      sub\n      swap1\n      revert\n    tag_161:\n        /* \"DataTradingTest/UntraceableVoting.sol\":2935:2942  votings */\n      0x02\n        /* \"DataTradingTest/UntraceableVoting.sol\":2935:2946  votings[id] */\n      0x00\n        /* \"DataTradingTest/UntraceableVoting.sol\":2943:2945  id */\n      dup9\n        /* \"DataTradingTest/UntraceableVoting.sol\":2935:2946  votings[id] */\n      0xffffffffffffffff\n      and\n      dup2\n      mstore\n      0x20\n      add\n      swap1\n      dup2\n      mstore\n      0x20\n      add\n      0x00\n      keccak256\n        /* \"DataTradingTest/UntraceableVoting.sol\":2935:2954  votings[id].creator */\n      0x00\n      add\n      0x00\n      swap1\n      sload\n      swap1\n      0x0100\n      exp\n      swap1\n      div\n      0xffffffffffffffffffffffffffffffffffffffff\n      and\n        /* \"DataTradingTest/UntraceableVoting.sol\":2921:2954  msg.sender == votings[id].creator */\n      0xffffffffffffffffffffffffffffffffffffffff\n      and\n        /* \"DataTradingTest/UntraceableVoting.sol\":2921:2931  msg.sender */\n      caller\n        /* \"DataTradingTest/UntraceableVoting.sol\":2921:2954  msg.sender == votings[id].creator */\n      0xffffffffffffffffffffffffffffffffffffffff\n      and\n      eq\n        /* \"DataTradingTest/UntraceableVoting.sol\":2900:3011  require(... */\n      tag_164\n      jumpi\n      mload(0x40)\n      0x08c379a000000000000000000000000000000000000000000000000000000000\n      dup2\n      mstore\n      0x04\n      add\n      tag_165\n      swap1\n      tag_166\n      jump\t// in\n    tag_165:\n      mload(0x40)\n      dup1\n      swap2\n      sub\n      swap1\n      revert\n    tag_164:\n        /* \"DataTradingTest/UntraceableVoting.sol\":3104:3118  allowedVotersY */\n      dup4\n      dup4\n        /* \"DataTradingTest/UntraceableVoting.sol\":3104:3125  allowedVotersY.length */\n      swap1\n      pop\n        /* \"DataTradingTest/UntraceableVoting.sol\":3079:3093  allowedVotersX */\n      dup7\n      dup7\n        /* \"DataTradingTest/UntraceableVoting.sol\":3079:3100  allowedVotersX.length */\n      swap1\n      pop\n        /* \"DataTradingTest/UntraceableVoting.sol\":3079:3125  allowedVotersX.length == allowedVotersY.length */\n      eq\n        /* \"DataTradingTest/UntraceableVoting.sol\":3058:3177  require(... */\n      tag_167\n      jumpi\n      mload(0x40)\n      0x08c379a000000000000000000000000000000000000000000000000000000000\n      dup2\n      mstore\n      0x04\n      add\n      tag_168\n      swap1\n      tag_169\n      jump\t// in\n    tag_168:\n      mload(0x40)\n      dup1\n      swap2\n      sub\n      swap1\n      revert\n    tag_167:\n        /* \"DataTradingTest/UntraceableVoting.sol\":3267:3277  threashold */\n      dup2\n        /* \"DataTradingTest/UntraceableVoting.sol\":3242:3249  votings */\n      0x02\n        /* \"DataTradingTest/UntraceableVoting.sol\":3242:3253  votings[id] */\n      0x00\n        /* \"DataTradingTest/UntraceableVoting.sol\":3250:3252  id */\n      dup10\n        /* \"DataTradingTest/UntraceableVoting.sol\":3242:3253  votings[id] */\n      0xffffffffffffffff\n      and\n      dup2\n      mstore\n      0x20\n      add\n      swap1\n      dup2\n      mstore\n      0x20\n      add\n      0x00\n      keccak256\n        /* \"DataTradingTest/UntraceableVoting.sol\":3242:3264  votings[id].threashold */\n      0x04\n      add\n      sload\n        /* \"DataTradingTest/UntraceableVoting.sol\":3242:3277  votings[id].threashold < threashold */\n      lt\n        /* \"DataTradingTest/UntraceableVoting.sol\":3221:3355  require(... */\n      tag_170\n      jumpi\n      mload(0x40)\n      0x08c379a000000000000000000000000000000000000000000000000000000000\n      dup2\n      mstore\n      0x04\n      add\n      tag_171\n      swap1\n      tag_172\n      jump\t// in\n    tag_171:\n      mload(0x40)\n      dup1\n      swap2\n      sub\n      swap1\n      revert\n    tag_170:\n        /* \"DataTradingTest/UntraceableVoting.sol\":3467:3474  votings */\n      0x02\n        /* \"DataTradingTest/UntraceableVoting.sol\":3467:3478  votings[id] */\n      0x00\n        /* \"DataTradingTest/UntraceableVoting.sol\":3475:3477  id */\n      dup9\n        /* \"DataTradingTest/UntraceableVoting.sol\":3467:3478  votings[id] */\n      0xffffffffffffffff\n      and\n      dup2\n      mstore\n      0x20\n      add\n      swap1\n      dup2\n      mstore\n      0x20\n      add\n      0x00\n      keccak256\n        /* \"DataTradingTest/UntraceableVoting.sol\":3467:3486  votings[id].votersX */\n      0x06\n      add\n        /* \"DataTradingTest/UntraceableVoting.sol\":3467:3493  votings[id].votersX.length */\n      dup1\n      sload\n      swap1\n      pop\n        /* \"DataTradingTest/UntraceableVoting.sol\":3443:3457  allowedVotersX */\n      dup7\n      dup7\n        /* \"DataTradingTest/UntraceableVoting.sol\":3443:3464  allowedVotersX.length */\n      swap1\n      pop\n        /* \"DataTradingTest/UntraceableVoting.sol\":3443:3493  allowedVotersX.length + votings[id].votersX.length */\n      tag_173\n      swap2\n      swap1\n      tag_149\n      jump\t// in\n    tag_173:\n        /* \"DataTradingTest/UntraceableVoting.sol\":3429:3439  threashold */\n      dup3\n        /* \"DataTradingTest/UntraceableVoting.sol\":3429:3493  threashold <= allowedVotersX.length + votings[id].votersX.length */\n      gt\n      iszero\n        /* \"DataTradingTest/UntraceableVoting.sol\":3408:3551  require(... */\n      tag_174\n      jumpi\n      mload(0x40)\n      0x08c379a000000000000000000000000000000000000000000000000000000000\n      dup2\n      mstore\n      0x04\n      add\n      tag_175\n      swap1\n      tag_176\n      jump\t// in\n    tag_175:\n      mload(0x40)\n      dup1\n      swap2\n      sub\n      swap1\n      revert\n    tag_174:\n        /* \"DataTradingTest/UntraceableVoting.sol\":3637:3646  uint256 i */\n      0x00\n        /* \"DataTradingTest/UntraceableVoting.sol\":3632:3809  for (uint256 i = 0; i < allowedVotersX.length; i++) {... */\n    tag_177:\n        /* \"DataTradingTest/UntraceableVoting.sol\":3656:3670  allowedVotersX */\n      dup7\n      dup7\n        /* \"DataTradingTest/UntraceableVoting.sol\":3656:3677  allowedVotersX.length */\n      swap1\n      pop\n        /* \"DataTradingTest/UntraceableVoting.sol\":3652:3653  i */\n      dup2\n        /* \"DataTradingTest/UntraceableVoting.sol\":3652:3677  i < allowedVotersX.length */\n      lt\n        /* \"DataTradingTest/UntraceableVoting.sol\":3632:3809  for (uint256 i = 0; i < allowedVotersX.length; i++) {... */\n      iszero\n      tag_178\n      jumpi\n        /* \"DataTradingTest/UntraceableVoting.sol\":3698:3705  votings */\n      0x02\n        /* \"DataTradingTest/UntraceableVoting.sol\":3698:3709  votings[id] */\n      0x00\n        /* \"DataTradingTest/UntraceableVoting.sol\":3706:3708  id */\n      dup10\n        /* \"DataTradingTest/UntraceableVoting.sol\":3698:3709  votings[id] */\n      0xffffffffffffffff\n      and\n      dup2\n      mstore\n      0x20\n      add\n      swap1\n      dup2\n      mstore\n      0x20\n      add\n      0x00\n      keccak256\n        /* \"DataTradingTest/UntraceableVoting.sol\":3698:3717  votings[id].votersX */\n      0x06\n      add\n        /* \"DataTradingTest/UntraceableVoting.sol\":3723:3737  allowedVotersX */\n      dup8\n      dup8\n        /* \"DataTradingTest/UntraceableVoting.sol\":3738:3739  i */\n      dup4\n        /* \"DataTradingTest/UntraceableVoting.sol\":3723:3740  allowedVotersX[i] */\n      dup2\n      dup2\n      lt\n      tag_180\n      jumpi\n      tag_181\n      tag_82\n      jump\t// in\n    tag_181:\n    tag_180:\n      swap1\n      pop\n      0x20\n      mul\n      add\n      calldataload\n        /* \"DataTradingTest/UntraceableVoting.sol\":3698:3741  votings[id].votersX.push(allowedVotersX[i]) */\n      swap1\n      dup1\n      0x01\n      dup2\n      sload\n      add\n      dup1\n      dup3\n      sstore\n      dup1\n      swap2\n      pop\n      pop\n      0x01\n      swap1\n      sub\n      swap1\n      0x00\n      mstore\n      keccak256(0x00, 0x20)\n      add\n      0x00\n      swap1\n      swap2\n      swap1\n      swap2\n      swap1\n      swap2\n      pop\n      sstore\n        /* \"DataTradingTest/UntraceableVoting.sol\":3755:3762  votings */\n      0x02\n        /* \"DataTradingTest/UntraceableVoting.sol\":3755:3766  votings[id] */\n      0x00\n        /* \"DataTradingTest/UntraceableVoting.sol\":3763:3765  id */\n      dup10\n        /* \"DataTradingTest/UntraceableVoting.sol\":3755:3766  votings[id] */\n      0xffffffffffffffff\n      and\n      dup2\n      mstore\n      0x20\n      add\n      swap1\n      dup2\n      mstore\n      0x20\n      add\n      0x00\n      keccak256\n        /* \"DataTradingTest/UntraceableVoting.sol\":3755:3774  votings[id].votersY */\n      0x07\n      add\n        /* \"DataTradingTest/UntraceableVoting.sol\":3780:3794  allowedVotersY */\n      dup6\n      dup6\n        /* \"DataTradingTest/UntraceableVoting.sol\":3795:3796  i */\n      dup4\n        /* \"DataTradingTest/UntraceableVoting.sol\":3780:3797  allowedVotersY[i] */\n      dup2\n      dup2\n      lt\n      tag_183\n      jumpi\n      tag_184\n      tag_82\n      jump\t// in\n    tag_184:\n    tag_183:\n      swap1\n      pop\n      0x20\n      mul\n      add\n      calldataload\n        /* \"DataTradingTest/UntraceableVoting.sol\":3755:3798  votings[id].votersY.push(allowedVotersY[i]) */\n      swap1\n      dup1\n      0x01\n      dup2\n      sload\n      add\n      dup1\n      dup3\n      sstore\n      dup1\n      swap2\n      pop\n      pop\n      0x01\n      swap1\n      sub\n      swap1\n      0x00\n      mstore\n      keccak256(0x00, 0x20)\n      add\n      0x00\n      swap1\n      swap2\n      swap1\n      swap2\n      swap1\n      swap2\n      pop\n      sstore\n        /* \"DataTradingTest/UntraceableVoting.sol\":3679:3682  i++ */\n      dup1\n      dup1\n      0x01\n      add\n      swap2\n      pop\n      pop\n        /* \"DataTradingTest/UntraceableVoting.sol\":3632:3809  for (uint256 i = 0; i < allowedVotersX.length; i++) {... */\n      jump(tag_177)\n    tag_178:\n      pop\n        /* \"DataTradingTest/UntraceableVoting.sol\":3838:3843  ready */\n      dup1\n        /* \"DataTradingTest/UntraceableVoting.sol\":3818:3825  votings */\n      0x02\n        /* \"DataTradingTest/UntraceableVoting.sol\":3818:3829  votings[id] */\n      0x00\n        /* \"DataTradingTest/UntraceableVoting.sol\":3826:3828  id */\n      dup10\n        /* \"DataTradingTest/UntraceableVoting.sol\":3818:3829  votings[id] */\n      0xffffffffffffffff\n      and\n      dup2\n      mstore\n      0x20\n      add\n      swap1\n      dup2\n      mstore\n      0x20\n      add\n      0x00\n      keccak256\n        /* \"DataTradingTest/UntraceableVoting.sol\":3818:3835  votings[id].ready */\n      0x08\n      add\n      0x01\n        /* \"DataTradingTest/UntraceableVoting.sol\":3818:3843  votings[id].ready = ready */\n      0x0100\n      exp\n      dup2\n      sload\n      dup2\n      0xff\n      mul\n      not\n      and\n      swap1\n      dup4\n      iszero\n      iszero\n      mul\n      or\n      swap1\n      sstore\n      pop\n        /* \"DataTradingTest/UntraceableVoting.sol\":3912:3922  threashold */\n      dup2\n        /* \"DataTradingTest/UntraceableVoting.sol\":3887:3894  votings */\n      0x02\n        /* \"DataTradingTest/UntraceableVoting.sol\":3887:3898  votings[id] */\n      0x00\n        /* \"DataTradingTest/UntraceableVoting.sol\":3895:3897  id */\n      dup10\n        /* \"DataTradingTest/UntraceableVoting.sol\":3887:3898  votings[id] */\n      0xffffffffffffffff\n      and\n      dup2\n      mstore\n      0x20\n      add\n      swap1\n      dup2\n      mstore\n      0x20\n      add\n      0x00\n      keccak256\n        /* \"DataTradingTest/UntraceableVoting.sol\":3887:3909  votings[id].threashold */\n      0x04\n      add\n        /* \"DataTradingTest/UntraceableVoting.sol\":3887:3922  votings[id].threashold = threashold */\n      dup2\n      swap1\n      sstore\n      pop\n        /* \"DataTradingTest/UntraceableVoting.sol\":2512:3951  function addVotersToVote(... */\n      pop\n      pop\n      pop\n      pop\n      pop\n      pop\n      pop\n      jump\t// out\n        /* \"DataTradingTest/UntraceableVoting.sol\":5476:6303  function CompleteVote(uint64 id) external {... */\n    tag_57:\n        /* \"DataTradingTest/UntraceableVoting.sol\":5554:5555  0 */\n      0x00\n        /* \"DataTradingTest/UntraceableVoting.sol\":5536:5543  votings */\n      0x02\n        /* \"DataTradingTest/UntraceableVoting.sol\":5536:5547  votings[id] */\n      0x00\n        /* \"DataTradingTest/UntraceableVoting.sol\":5544:5546  id */\n      dup4\n        /* \"DataTradingTest/UntraceableVoting.sol\":5536:5547  votings[id] */\n      0xffffffffffffffff\n      and\n      dup2\n      mstore\n      0x20\n      add\n      swap1\n      dup2\n      mstore\n      0x20\n      add\n      0x00\n      keccak256\n        /* \"DataTradingTest/UntraceableVoting.sol\":5536:5550  votings[id].id */\n      0x02\n      add\n      0x00\n      swap1\n      sload\n      swap1\n      0x0100\n      exp\n      swap1\n      div\n      0xffffffffffffffff\n      and\n        /* \"DataTradingTest/UntraceableVoting.sol\":5536:5555  votings[id].id != 0 */\n      0xffffffffffffffff\n      and\n      sub\n        /* \"DataTradingTest/UntraceableVoting.sol\":5528:5579  require(votings[id].id != 0, \"Vote does not exist\") */\n      tag_187\n      jumpi\n      mload(0x40)\n      0x08c379a000000000000000000000000000000000000000000000000000000000\n      dup2\n      mstore\n      0x04\n      add\n      tag_188\n      swap1\n      tag_95\n      jump\t// in\n    tag_188:\n      mload(0x40)\n      dup1\n      swap2\n      sub\n      swap1\n      revert\n    tag_187:\n        /* \"DataTradingTest/UntraceableVoting.sol\":5625:5632  votings */\n      0x02\n        /* \"DataTradingTest/UntraceableVoting.sol\":5625:5636  votings[id] */\n      0x00\n        /* \"DataTradingTest/UntraceableVoting.sol\":5633:5635  id */\n      dup3\n        /* \"DataTradingTest/UntraceableVoting.sol\":5625:5636  votings[id] */\n      0xffffffffffffffff\n      and\n      dup2\n      mstore\n      0x20\n      add\n      swap1\n      dup2\n      mstore\n      0x20\n      add\n      0x00\n      keccak256\n        /* \"DataTradingTest/UntraceableVoting.sol\":5625:5642  votings[id].ready */\n      0x08\n      add\n      0x01\n      swap1\n      sload\n      swap1\n      0x0100\n      exp\n      swap1\n      div\n      0xff\n      and\n        /* \"DataTradingTest/UntraceableVoting.sol\":5617:5664  require(votings[id].ready, \"Vote is not ready\") */\n      tag_189\n      jumpi\n      mload(0x40)\n      0x08c379a000000000000000000000000000000000000000000000000000000000\n      dup2\n      mstore\n      0x04\n      add\n      tag_190\n      swap1\n      tag_98\n      jump\t// in\n    tag_190:\n      mload(0x40)\n      dup1\n      swap2\n      sub\n      swap1\n      revert\n    tag_189:\n        /* \"DataTradingTest/UntraceableVoting.sol\":5717:5724  votings */\n      0x02\n        /* \"DataTradingTest/UntraceableVoting.sol\":5717:5728  votings[id] */\n      0x00\n        /* \"DataTradingTest/UntraceableVoting.sol\":5725:5727  id */\n      dup3\n        /* \"DataTradingTest/UntraceableVoting.sol\":5717:5728  votings[id] */\n      0xffffffffffffffff\n      and\n      dup2\n      mstore\n      0x20\n      add\n      swap1\n      dup2\n      mstore\n      0x20\n      add\n      0x00\n      keccak256\n        /* \"DataTradingTest/UntraceableVoting.sol\":5717:5733  votings[id].done */\n      0x08\n      add\n      0x00\n      swap1\n      sload\n      swap1\n      0x0100\n      exp\n      swap1\n      div\n      0xff\n      and\n        /* \"DataTradingTest/UntraceableVoting.sol\":5716:5733  !votings[id].done */\n      iszero\n        /* \"DataTradingTest/UntraceableVoting.sol\":5708:5763  require(!votings[id].done, \"Vote is already completed\") */\n      tag_191\n      jumpi\n      mload(0x40)\n      0x08c379a000000000000000000000000000000000000000000000000000000000\n      dup2\n      mstore\n      0x04\n      add\n      tag_192\n      swap1\n      tag_133\n      jump\t// in\n    tag_192:\n      mload(0x40)\n      dup1\n      swap2\n      sub\n      swap1\n      revert\n    tag_191:\n        /* \"DataTradingTest/UntraceableVoting.sol\":5852:5859  votings */\n      0x02\n        /* \"DataTradingTest/UntraceableVoting.sol\":5852:5863  votings[id] */\n      0x00\n        /* \"DataTradingTest/UntraceableVoting.sol\":5860:5862  id */\n      dup3\n        /* \"DataTradingTest/UntraceableVoting.sol\":5852:5863  votings[id] */\n      0xffffffffffffffff\n      and\n      dup2\n      mstore\n      0x20\n      add\n      swap1\n      dup2\n      mstore\n      0x20\n      add\n      0x00\n      keccak256\n        /* \"DataTradingTest/UntraceableVoting.sol\":5852:5874  votings[id].threashold */\n      0x04\n      add\n      sload\n        /* \"DataTradingTest/UntraceableVoting.sol\":5825:5832  votings */\n      0x02\n        /* \"DataTradingTest/UntraceableVoting.sol\":5825:5836  votings[id] */\n      0x00\n        /* \"DataTradingTest/UntraceableVoting.sol\":5833:5835  id */\n      dup4\n        /* \"DataTradingTest/UntraceableVoting.sol\":5825:5836  votings[id] */\n      0xffffffffffffffff\n      and\n      dup2\n      mstore\n      0x20\n      add\n      swap1\n      dup2\n      mstore\n      0x20\n      add\n      0x00\n      keccak256\n        /* \"DataTradingTest/UntraceableVoting.sol\":5825:5848  votings[id].votecounter */\n      0x05\n      add\n      sload\n        /* \"DataTradingTest/UntraceableVoting.sol\":5825:5874  votings[id].votecounter >= votings[id].threashold */\n      lt\n      iszero\n        /* \"DataTradingTest/UntraceableVoting.sol\":5804:5916  require(... */\n      tag_193\n      jumpi\n      mload(0x40)\n      0x08c379a000000000000000000000000000000000000000000000000000000000\n      dup2\n      mstore\n      0x04\n      add\n      tag_194\n      swap1\n      tag_195\n      jump\t// in\n    tag_194:\n      mload(0x40)\n      dup1\n      swap2\n      sub\n      swap1\n      revert\n    tag_193:\n        /* \"DataTradingTest/UntraceableVoting.sol\":5980:5984  true */\n      0x01\n        /* \"DataTradingTest/UntraceableVoting.sol\":5961:5968  votings */\n      0x02\n        /* \"DataTradingTest/UntraceableVoting.sol\":5961:5972  votings[id] */\n      0x00\n        /* \"DataTradingTest/UntraceableVoting.sol\":5969:5971  id */\n      dup4\n        /* \"DataTradingTest/UntraceableVoting.sol\":5961:5972  votings[id] */\n      0xffffffffffffffff\n      and\n      dup2\n      mstore\n      0x20\n      add\n      swap1\n      dup2\n      mstore\n      0x20\n      add\n      0x00\n      keccak256\n        /* \"DataTradingTest/UntraceableVoting.sol\":5961:5977  votings[id].done */\n      0x08\n      add\n      0x00\n        /* \"DataTradingTest/UntraceableVoting.sol\":5961:5984  votings[id].done = true */\n      0x0100\n      exp\n      dup2\n      sload\n      dup2\n      0xff\n      mul\n      not\n      and\n      swap1\n      dup4\n      iszero\n      iszero\n      mul\n      or\n      swap1\n      sstore\n      pop\n        /* \"DataTradingTest/UntraceableVoting.sol\":6020:6042  address[15] memory res */\n      tag_196\n      tag_91\n      jump\t// in\n    tag_196:\n        /* \"DataTradingTest/UntraceableVoting.sol\":6052:6061  uint8 anz */\n      0x00\n        /* \"DataTradingTest/UntraceableVoting.sol\":6084:6099  VoteLeaders(id) */\n      tag_197\n        /* \"DataTradingTest/UntraceableVoting.sol\":6096:6098  id */\n      dup4\n        /* \"DataTradingTest/UntraceableVoting.sol\":6084:6095  VoteLeaders */\n      tag_25\n        /* \"DataTradingTest/UntraceableVoting.sol\":6084:6099  VoteLeaders(id) */\n      jump\t// in\n    tag_197:\n        /* \"DataTradingTest/UntraceableVoting.sol\":6071:6099  (res, anz) = VoteLeaders(id) */\n      dup1\n      swap3\n      pop\n      dup2\n      swap4\n      pop\n      pop\n      pop\n        /* \"DataTradingTest/UntraceableVoting.sol\":6128:6142  uint256 reward */\n      0x00\n        /* \"DataTradingTest/UntraceableVoting.sol\":6163:6166  anz */\n      dup2\n        /* \"DataTradingTest/UntraceableVoting.sol\":6145:6166  votings[id].val / anz */\n      0xff\n      and\n        /* \"DataTradingTest/UntraceableVoting.sol\":6145:6152  votings */\n      0x02\n        /* \"DataTradingTest/UntraceableVoting.sol\":6145:6156  votings[id] */\n      0x00\n        /* \"DataTradingTest/UntraceableVoting.sol\":6153:6155  id */\n      dup7\n        /* \"DataTradingTest/UntraceableVoting.sol\":6145:6156  votings[id] */\n      0xffffffffffffffff\n      and\n      dup2\n      mstore\n      0x20\n      add\n      swap1\n      dup2\n      mstore\n      0x20\n      add\n      0x00\n      keccak256\n        /* \"DataTradingTest/UntraceableVoting.sol\":6145:6160  votings[id].val */\n      0x03\n      add\n      sload\n        /* \"DataTradingTest/UntraceableVoting.sol\":6145:6166  votings[id].val / anz */\n      tag_198\n      swap2\n      swap1\n      tag_199\n      jump\t// in\n    tag_198:\n        /* \"DataTradingTest/UntraceableVoting.sol\":6128:6166  uint256 reward = votings[id].val / anz */\n      swap1\n      pop\n        /* \"DataTradingTest/UntraceableVoting.sol\":6197:6204  uint8 i */\n      0x00\n        /* \"DataTradingTest/UntraceableVoting.sol\":6192:6297  for (uint8 i = 0; i < anz; i++) {... */\n    tag_200:\n        /* \"DataTradingTest/UntraceableVoting.sol\":6214:6217  anz */\n      dup3\n        /* \"DataTradingTest/UntraceableVoting.sol\":6210:6217  i < anz */\n      0xff\n      and\n        /* \"DataTradingTest/UntraceableVoting.sol\":6210:6211  i */\n      dup2\n        /* \"DataTradingTest/UntraceableVoting.sol\":6210:6217  i < anz */\n      0xff\n      and\n      lt\n        /* \"DataTradingTest/UntraceableVoting.sol\":6192:6297  for (uint8 i = 0; i < anz; i++) {... */\n      iszero\n      tag_201\n      jumpi\n        /* \"DataTradingTest/UntraceableVoting.sol\":6246:6249  res */\n      dup4\n        /* \"DataTradingTest/UntraceableVoting.sol\":6250:6251  i */\n      dup2\n        /* \"DataTradingTest/UntraceableVoting.sol\":6246:6252  res[i] */\n      0xff\n      and\n      0x0f\n      dup2\n      lt\n      tag_203\n      jumpi\n      tag_204\n      tag_82\n      jump\t// in\n    tag_204:\n    tag_203:\n      0x20\n      mul\n      add\n      mload\n        /* \"DataTradingTest/UntraceableVoting.sol\":6238:6262  payable(res[i]).transfer */\n      0xffffffffffffffffffffffffffffffffffffffff\n      and\n        /* \"DataTradingTest/UntraceableVoting.sol\":6238:6270  payable(res[i]).transfer(reward) */\n      0x08fc\n        /* \"DataTradingTest/UntraceableVoting.sol\":6263:6269  reward */\n      dup4\n        /* \"DataTradingTest/UntraceableVoting.sol\":6238:6270  payable(res[i]).transfer(reward) */\n      swap1\n      dup2\n      iszero\n      mul\n      swap1\n      mload(0x40)\n      0x00\n      mload(0x40)\n      dup1\n      dup4\n      sub\n      dup2\n      dup6\n      dup9\n      dup9\n      call\n      swap4\n      pop\n      pop\n      pop\n      pop\n      iszero\n      dup1\n      iszero\n      tag_206\n      jumpi\n      returndatasize\n      0x00\n      dup1\n      returndatacopy\n      revert(0x00, returndatasize)\n    tag_206:\n      pop\n        /* \"DataTradingTest/UntraceableVoting.sol\":6219:6222  i++ */\n      dup1\n      dup1\n      0x01\n      add\n      swap2\n      pop\n      pop\n        /* \"DataTradingTest/UntraceableVoting.sol\":6192:6297  for (uint8 i = 0; i < anz; i++) {... */\n      jump(tag_200)\n    tag_201:\n      pop\n        /* \"DataTradingTest/UntraceableVoting.sol\":5518:6303  {... */\n      pop\n      pop\n      pop\n        /* \"DataTradingTest/UntraceableVoting.sol\":5476:6303  function CompleteVote(uint64 id) external {... */\n      pop\n      jump\t// out\n        /* \"DataTradingTest/UntraceableVoting.sol\":9155:10113  function verifyRingSignature(... */\n    tag_144:\n        /* \"DataTradingTest/UntraceableVoting.sol\":9350:9354  bool */\n      0x00\n        /* \"DataTradingTest/UntraceableVoting.sol\":9366:9385  uint256[] memory ci */\n      dup1\n        /* \"DataTradingTest/UntraceableVoting.sol\":9402:9403  2 */\n      0x02\n        /* \"DataTradingTest/UntraceableVoting.sol\":9388:9404  new uint256[](2) */\n      0xffffffffffffffff\n      dup2\n      gt\n      iszero\n      tag_208\n      jumpi\n      tag_209\n      tag_69\n      jump\t// in\n    tag_209:\n    tag_208:\n      mload(0x40)\n      swap1\n      dup1\n      dup3\n      mstore\n      dup1\n      0x20\n      mul\n      0x20\n      add\n      dup3\n      add\n      0x40\n      mstore\n      dup1\n      iszero\n      tag_210\n      jumpi\n      dup2\n      0x20\n      add\n      0x20\n      dup3\n      mul\n      dup1\n      calldatasize\n      dup4\n      calldatacopy\n      dup1\n      dup3\n      add\n      swap2\n      pop\n      pop\n      swap1\n      pop\n    tag_210:\n      pop\n        /* \"DataTradingTest/UntraceableVoting.sol\":9366:9404  uint256[] memory ci = new uint256[](2) */\n      swap1\n      pop\n        /* \"DataTradingTest/UntraceableVoting.sol\":9422:9423  c */\n      dup5\n        /* \"DataTradingTest/UntraceableVoting.sol\":9414:9416  ci */\n      dup2\n        /* \"DataTradingTest/UntraceableVoting.sol\":9417:9418  0 */\n      0x00\n        /* \"DataTradingTest/UntraceableVoting.sol\":9414:9419  ci[0] */\n      dup2\n      mload\n      dup2\n      lt\n      tag_211\n      jumpi\n      tag_212\n      tag_82\n      jump\t// in\n    tag_212:\n    tag_211:\n      0x20\n      mul\n      0x20\n      add\n      add\n        /* \"DataTradingTest/UntraceableVoting.sol\":9414:9423  ci[0] = c */\n      dup2\n      dup2\n      mstore\n      pop\n      pop\n        /* \"DataTradingTest/UntraceableVoting.sol\":9433:9457  LRValues memory lrValues */\n      tag_213\n      tag_214\n      jump\t// in\n    tag_213:\n        /* \"DataTradingTest/UntraceableVoting.sol\":9473:9482  uint256 i */\n      0x00\n        /* \"DataTradingTest/UntraceableVoting.sol\":9468:10027  for (uint256 i = 0; i < s.length; i++) {... */\n    tag_215:\n        /* \"DataTradingTest/UntraceableVoting.sol\":9492:9493  s */\n      dup6\n      dup6\n        /* \"DataTradingTest/UntraceableVoting.sol\":9492:9500  s.length */\n      swap1\n      pop\n        /* \"DataTradingTest/UntraceableVoting.sol\":9488:9489  i */\n      dup2\n        /* \"DataTradingTest/UntraceableVoting.sol\":9488:9500  i < s.length */\n      lt\n        /* \"DataTradingTest/UntraceableVoting.sol\":9468:10027  for (uint256 i = 0; i < s.length; i++) {... */\n      iszero\n      tag_216\n      jumpi\n        /* \"DataTradingTest/UntraceableVoting.sol\":9566:9613  computeLRValues(s[i], id, i, ci[i % 2], Ix, Iy) */\n      tag_218\n        /* \"DataTradingTest/UntraceableVoting.sol\":9582:9583  s */\n      dup7\n      dup7\n        /* \"DataTradingTest/UntraceableVoting.sol\":9584:9585  i */\n      dup4\n        /* \"DataTradingTest/UntraceableVoting.sol\":9582:9586  s[i] */\n      dup2\n      dup2\n      lt\n      tag_219\n      jumpi\n      tag_220\n      tag_82\n      jump\t// in\n    tag_220:\n    tag_219:\n      swap1\n      pop\n      0x20\n      mul\n      add\n      calldataload\n        /* \"DataTradingTest/UntraceableVoting.sol\":9588:9590  id */\n      dup12\n        /* \"DataTradingTest/UntraceableVoting.sol\":9592:9593  i */\n      dup4\n        /* \"DataTradingTest/UntraceableVoting.sol\":9595:9597  ci */\n      dup7\n        /* \"DataTradingTest/UntraceableVoting.sol\":9602:9603  2 */\n      0x02\n        /* \"DataTradingTest/UntraceableVoting.sol\":9598:9599  i */\n      dup7\n        /* \"DataTradingTest/UntraceableVoting.sol\":9598:9603  i % 2 */\n      tag_221\n      swap2\n      swap1\n      tag_222\n      jump\t// in\n    tag_221:\n        /* \"DataTradingTest/UntraceableVoting.sol\":9595:9604  ci[i % 2] */\n      dup2\n      mload\n      dup2\n      lt\n      tag_223\n      jumpi\n      tag_224\n      tag_82\n      jump\t// in\n    tag_224:\n    tag_223:\n      0x20\n      mul\n      0x20\n      add\n      add\n      mload\n        /* \"DataTradingTest/UntraceableVoting.sol\":9606:9608  Ix */\n      dup14\n        /* \"DataTradingTest/UntraceableVoting.sol\":9610:9612  Iy */\n      dup14\n        /* \"DataTradingTest/UntraceableVoting.sol\":9566:9581  computeLRValues */\n      tag_225\n        /* \"DataTradingTest/UntraceableVoting.sol\":9566:9613  computeLRValues(s[i], id, i, ci[i % 2], Ix, Iy) */\n      jump\t// in\n    tag_218:\n        /* \"DataTradingTest/UntraceableVoting.sol\":9555:9613  lrValues = computeLRValues(s[i], id, i, ci[i % 2], Ix, Iy) */\n      swap2\n      pop\n        /* \"DataTradingTest/UntraceableVoting.sol\":9743:9745  id */\n      dup10\n        /* \"DataTradingTest/UntraceableVoting.sol\":9771:9782  candidateId */\n      dup12\n        /* \"DataTradingTest/UntraceableVoting.sol\":9808:9816  lrValues */\n      dup4\n        /* \"DataTradingTest/UntraceableVoting.sol\":9808:9820  lrValues.Lix */\n      0x00\n      add\n      mload\n        /* \"DataTradingTest/UntraceableVoting.sol\":9846:9854  lrValues */\n      dup5\n        /* \"DataTradingTest/UntraceableVoting.sol\":9846:9858  lrValues.Liy */\n      0x20\n      add\n      mload\n        /* \"DataTradingTest/UntraceableVoting.sol\":9884:9892  lrValues */\n      dup6\n        /* \"DataTradingTest/UntraceableVoting.sol\":9884:9896  lrValues.Rix */\n      0x40\n      add\n      mload\n        /* \"DataTradingTest/UntraceableVoting.sol\":9922:9930  lrValues */\n      dup7\n        /* \"DataTradingTest/UntraceableVoting.sol\":9922:9934  lrValues.Riy */\n      0x60\n      add\n      mload\n        /* \"DataTradingTest/UntraceableVoting.sol\":9701:9956  abi.encodePacked(... */\n      add(0x20, mload(0x40))\n      tag_226\n      swap7\n      swap6\n      swap5\n      swap4\n      swap3\n      swap2\n      swap1\n      tag_227\n      jump\t// in\n    tag_226:\n      mload(0x40)\n      0x20\n      dup2\n      dup4\n      sub\n      sub\n      dup2\n      mstore\n      swap1\n      0x40\n      mstore\n        /* \"DataTradingTest/UntraceableVoting.sol\":9670:9974  keccak256(... */\n      dup1\n      mload\n      swap1\n      0x20\n      add\n      keccak256\n        /* \"DataTradingTest/UntraceableVoting.sol\":9645:9988  uint256(... */\n      0x00\n      shr\n        /* \"DataTradingTest/UntraceableVoting.sol\":9627:9629  ci */\n      dup4\n        /* \"DataTradingTest/UntraceableVoting.sol\":9640:9641  2 */\n      0x02\n        /* \"DataTradingTest/UntraceableVoting.sol\":9635:9636  1 */\n      0x01\n        /* \"DataTradingTest/UntraceableVoting.sol\":9631:9632  i */\n      dup5\n        /* \"DataTradingTest/UntraceableVoting.sol\":9631:9636  i + 1 */\n      tag_228\n      swap2\n      swap1\n      tag_149\n      jump\t// in\n    tag_228:\n        /* \"DataTradingTest/UntraceableVoting.sol\":9630:9641  (i + 1) % 2 */\n      tag_229\n      swap2\n      swap1\n      tag_222\n      jump\t// in\n    tag_229:\n        /* \"DataTradingTest/UntraceableVoting.sol\":9627:9642  ci[(i + 1) % 2] */\n      dup2\n      mload\n      dup2\n      lt\n      tag_230\n      jumpi\n      tag_231\n      tag_82\n      jump\t// in\n    tag_231:\n    tag_230:\n      0x20\n      mul\n      0x20\n      add\n      add\n        /* \"DataTradingTest/UntraceableVoting.sol\":9627:9988  ci[(i + 1) % 2] = uint256(... */\n      dup2\n      dup2\n      mstore\n      pop\n      pop\n        /* \"DataTradingTest/UntraceableVoting.sol\":9502:9505  i++ */\n      dup1\n      dup1\n      0x01\n      add\n      swap2\n      pop\n      pop\n        /* \"DataTradingTest/UntraceableVoting.sol\":9468:10027  for (uint256 i = 0; i < s.length; i++) {... */\n      jump(tag_215)\n    tag_216:\n      pop\n        /* \"DataTradingTest/UntraceableVoting.sol\":10065:10066  c */\n      dup6\n        /* \"DataTradingTest/UntraceableVoting.sol\":10045:10047  ci */\n      dup3\n        /* \"DataTradingTest/UntraceableVoting.sol\":10059:10060  2 */\n      0x02\n        /* \"DataTradingTest/UntraceableVoting.sol\":10048:10049  s */\n      dup8\n      dup8\n        /* \"DataTradingTest/UntraceableVoting.sol\":10048:10056  s.length */\n      swap1\n      pop\n        /* \"DataTradingTest/UntraceableVoting.sol\":10048:10060  s.length % 2 */\n      tag_232\n      swap2\n      swap1\n      tag_222\n      jump\t// in\n    tag_232:\n        /* \"DataTradingTest/UntraceableVoting.sol\":10045:10061  ci[s.length % 2] */\n      dup2\n      mload\n      dup2\n      lt\n      tag_233\n      jumpi\n      tag_234\n      tag_82\n      jump\t// in\n    tag_234:\n    tag_233:\n      0x20\n      mul\n      0x20\n      add\n      add\n      mload\n        /* \"DataTradingTest/UntraceableVoting.sol\":10045:10066  ci[s.length % 2] == c */\n      eq\n        /* \"DataTradingTest/UntraceableVoting.sol\":10037:10067  return (ci[s.length % 2] == c) */\n      swap3\n      pop\n      pop\n      pop\n        /* \"DataTradingTest/UntraceableVoting.sol\":9155:10113  function verifyRingSignature(... */\n      swap8\n      swap7\n      pop\n      pop\n      pop\n      pop\n      pop\n      pop\n      pop\n      jump\t// out\n        /* \"DataTradingTest/UntraceableVoting.sol\":10145:10551  function computeLRValues(... */\n    tag_225:\n        /* \"DataTradingTest/UntraceableVoting.sol\":10316:10331  LRValues memory */\n      tag_235\n      tag_214\n      jump\t// in\n    tag_235:\n        /* \"DataTradingTest/UntraceableVoting.sol\":10343:10367  LRValues memory lrValues */\n      tag_237\n      tag_214\n      jump\t// in\n    tag_237:\n        /* \"DataTradingTest/UntraceableVoting.sol\":10408:10423  l(s, id, i, ci) */\n      tag_238\n        /* \"DataTradingTest/UntraceableVoting.sol\":10410:10411  s */\n      dup9\n        /* \"DataTradingTest/UntraceableVoting.sol\":10413:10415  id */\n      dup9\n        /* \"DataTradingTest/UntraceableVoting.sol\":10417:10418  i */\n      dup9\n        /* \"DataTradingTest/UntraceableVoting.sol\":10420:10422  ci */\n      dup9\n        /* \"DataTradingTest/UntraceableVoting.sol\":10408:10409  l */\n      tag_239\n        /* \"DataTradingTest/UntraceableVoting.sol\":10408:10423  l(s, id, i, ci) */\n      jump\t// in\n    tag_238:\n        /* \"DataTradingTest/UntraceableVoting.sol\":10378:10386  lrValues */\n      dup3\n        /* \"DataTradingTest/UntraceableVoting.sol\":10378:10390  lrValues.Lix */\n      0x00\n      add\n        /* \"DataTradingTest/UntraceableVoting.sol\":10392:10400  lrValues */\n      dup4\n        /* \"DataTradingTest/UntraceableVoting.sol\":10392:10404  lrValues.Liy */\n      0x20\n      add\n        /* \"DataTradingTest/UntraceableVoting.sol\":10377:10423  (lrValues.Lix, lrValues.Liy) = l(s, id, i, ci) */\n      dup3\n      dup2\n      mstore\n      pop\n      dup3\n      dup2\n      mstore\n      pop\n      pop\n      pop\n        /* \"DataTradingTest/UntraceableVoting.sol\":10480:10503  r(s, id, i, ci, Ix, Iy) */\n      tag_240\n        /* \"DataTradingTest/UntraceableVoting.sol\":10482:10483  s */\n      dup9\n        /* \"DataTradingTest/UntraceableVoting.sol\":10485:10487  id */\n      dup9\n        /* \"DataTradingTest/UntraceableVoting.sol\":10489:10490  i */\n      dup9\n        /* \"DataTradingTest/UntraceableVoting.sol\":10492:10494  ci */\n      dup9\n        /* \"DataTradingTest/UntraceableVoting.sol\":10496:10498  Ix */\n      dup9\n        /* \"DataTradingTest/UntraceableVoting.sol\":10500:10502  Iy */\n      dup9\n        /* \"DataTradingTest/UntraceableVoting.sol\":10480:10481  r */\n      tag_241\n        /* \"DataTradingTest/UntraceableVoting.sol\":10480:10503  r(s, id, i, ci, Ix, Iy) */\n      jump\t// in\n    tag_240:\n        /* \"DataTradingTest/UntraceableVoting.sol\":10450:10458  lrValues */\n      dup3\n        /* \"DataTradingTest/UntraceableVoting.sol\":10450:10462  lrValues.Rix */\n      0x40\n      add\n        /* \"DataTradingTest/UntraceableVoting.sol\":10464:10472  lrValues */\n      dup4\n        /* \"DataTradingTest/UntraceableVoting.sol\":10464:10476  lrValues.Riy */\n      0x60\n      add\n        /* \"DataTradingTest/UntraceableVoting.sol\":10449:10503  (lrValues.Rix, lrValues.Riy) = r(s, id, i, ci, Ix, Iy) */\n      dup3\n      dup2\n      mstore\n      pop\n      dup3\n      dup2\n      mstore\n      pop\n      pop\n      pop\n        /* \"DataTradingTest/UntraceableVoting.sol\":10536:10544  lrValues */\n      dup1\n        /* \"DataTradingTest/UntraceableVoting.sol\":10529:10544  return lrValues */\n      swap2\n      pop\n      pop\n        /* \"DataTradingTest/UntraceableVoting.sol\":10145:10551  function computeLRValues(... */\n      swap7\n      swap6\n      pop\n      pop\n      pop\n      pop\n      pop\n      pop\n      jump\t// out\n        /* \"DataTradingTest/UntraceableVoting.sol\":11123:11706  function l(... */\n    tag_239:\n        /* \"DataTradingTest/UntraceableVoting.sol\":11240:11247  uint256 */\n      0x00\n        /* \"DataTradingTest/UntraceableVoting.sol\":11249:11256  uint256 */\n      dup1\n        /* \"DataTradingTest/UntraceableVoting.sol\":11268:11278  uint256 x1 */\n      0x00\n        /* \"DataTradingTest/UntraceableVoting.sol\":11288:11298  uint256 x2 */\n      dup1\n        /* \"DataTradingTest/UntraceableVoting.sol\":11308:11318  uint256 x3 */\n      0x00\n        /* \"DataTradingTest/UntraceableVoting.sol\":11328:11338  uint256 x4 */\n      dup1\n        /* \"DataTradingTest/UntraceableVoting.sol\":11359:11364  Curve */\n      0x00\n      dup1\n      sload\n      swap1\n      0x0100\n      exp\n      swap1\n      div\n      0xffffffffffffffffffffffffffffffffffffffff\n      and\n        /* \"DataTradingTest/UntraceableVoting.sol\":11359:11379  Curve.ScalarBaseMult */\n      0xffffffffffffffffffffffffffffffffffffffff\n      and\n      0x464cb749\n        /* \"DataTradingTest/UntraceableVoting.sol\":11380:11381  s */\n      dup12\n        /* \"DataTradingTest/UntraceableVoting.sol\":11359:11382  Curve.ScalarBaseMult(s) */\n      mload(0x40)\n      dup3\n      0xffffffff\n      and\n      0xe0\n      shl\n      dup2\n      mstore\n      0x04\n      add\n      tag_243\n      swap2\n      swap1\n      tag_244\n      jump\t// in\n    tag_243:\n      0x40\n      dup1\n      mload\n      dup1\n      dup4\n      sub\n      dup2\n      dup7\n      gas\n      staticcall\n      iszero\n      dup1\n      iszero\n      tag_246\n      jumpi\n      returndatasize\n      0x00\n      dup1\n      returndatacopy\n      revert(0x00, returndatasize)\n    tag_246:\n      pop\n      pop\n      pop\n      pop\n      mload(0x40)\n      returndatasize\n      not(0x1f)\n      0x1f\n      dup3\n      add\n      and\n      dup3\n      add\n      dup1\n      0x40\n      mstore\n      pop\n      dup2\n      add\n      swap1\n      tag_247\n      swap2\n      swap1\n      tag_248\n      jump\t// in\n    tag_247:\n        /* \"DataTradingTest/UntraceableVoting.sol\":11348:11382  (x1, x2) = Curve.ScalarBaseMult(s) */\n      dup1\n      swap5\n      pop\n      dup2\n      swap6\n      pop\n      pop\n      pop\n        /* \"DataTradingTest/UntraceableVoting.sol\":11403:11408  Curve */\n      0x00\n      dup1\n      sload\n      swap1\n      0x0100\n      exp\n      swap1\n      div\n      0xffffffffffffffffffffffffffffffffffffffff\n      and\n        /* \"DataTradingTest/UntraceableVoting.sol\":11403:11419  Curve.ScalarMult */\n      0xffffffffffffffffffffffffffffffffffffffff\n      and\n      0xfb88954d\n        /* \"DataTradingTest/UntraceableVoting.sol\":11433:11440  votings */\n      0x02\n        /* \"DataTradingTest/UntraceableVoting.sol\":11433:11444  votings[id] */\n      0x00\n        /* \"DataTradingTest/UntraceableVoting.sol\":11441:11443  id */\n      dup13\n        /* \"DataTradingTest/UntraceableVoting.sol\":11433:11444  votings[id] */\n      0xffffffffffffffff\n      and\n      dup2\n      mstore\n      0x20\n      add\n      swap1\n      dup2\n      mstore\n      0x20\n      add\n      0x00\n      keccak256\n        /* \"DataTradingTest/UntraceableVoting.sol\":11433:11452  votings[id].votersX */\n      0x06\n      add\n        /* \"DataTradingTest/UntraceableVoting.sol\":11453:11454  i */\n      dup11\n        /* \"DataTradingTest/UntraceableVoting.sol\":11433:11455  votings[id].votersX[i] */\n      dup2\n      sload\n      dup2\n      lt\n      tag_249\n      jumpi\n      tag_250\n      tag_82\n      jump\t// in\n    tag_250:\n    tag_249:\n      swap1\n      0x00\n      mstore\n      keccak256(0x00, 0x20)\n      add\n      sload\n        /* \"DataTradingTest/UntraceableVoting.sol\":11469:11476  votings */\n      0x02\n        /* \"DataTradingTest/UntraceableVoting.sol\":11469:11480  votings[id] */\n      0x00\n        /* \"DataTradingTest/UntraceableVoting.sol\":11477:11479  id */\n      dup14\n        /* \"DataTradingTest/UntraceableVoting.sol\":11469:11480  votings[id] */\n      0xffffffffffffffff\n      and\n      dup2\n      mstore\n      0x20\n      add\n      swap1\n      dup2\n      mstore\n      0x20\n      add\n      0x00\n      keccak256\n        /* \"DataTradingTest/UntraceableVoting.sol\":11469:11488  votings[id].votersY */\n      0x07\n      add\n        /* \"DataTradingTest/UntraceableVoting.sol\":11489:11490  i */\n      dup12\n        /* \"DataTradingTest/UntraceableVoting.sol\":11469:11491  votings[id].votersY[i] */\n      dup2\n      sload\n      dup2\n      lt\n      tag_252\n      jumpi\n      tag_253\n      tag_82\n      jump\t// in\n    tag_253:\n    tag_252:\n      swap1\n      0x00\n      mstore\n      keccak256(0x00, 0x20)\n      add\n      sload\n        /* \"DataTradingTest/UntraceableVoting.sol\":11505:11507  ci */\n      dup11\n        /* \"DataTradingTest/UntraceableVoting.sol\":11403:11517  Curve.ScalarMult(... */\n      mload(0x40)\n      dup5\n      0xffffffff\n      and\n      0xe0\n      shl\n      dup2\n      mstore\n      0x04\n      add\n      tag_255\n      swap4\n      swap3\n      swap2\n      swap1\n      tag_256\n      jump\t// in\n    tag_255:\n      0x40\n      dup1\n      mload\n      dup1\n      dup4\n      sub\n      dup2\n      dup7\n      gas\n      staticcall\n      iszero\n      dup1\n      iszero\n      tag_258\n      jumpi\n      returndatasize\n      0x00\n      dup1\n      returndatacopy\n      revert(0x00, returndatasize)\n    tag_258:\n      pop\n      pop\n      pop\n      pop\n      mload(0x40)\n      returndatasize\n      not(0x1f)\n      0x1f\n      dup3\n      add\n      and\n      dup3\n      add\n      dup1\n      0x40\n      mstore\n      pop\n      dup2\n      add\n      swap1\n      tag_259\n      swap2\n      swap1\n      tag_248\n      jump\t// in\n    tag_259:\n        /* \"DataTradingTest/UntraceableVoting.sol\":11392:11517  (x3, x4) = Curve.ScalarMult(... */\n      dup1\n      swap3\n      pop\n      dup2\n      swap4\n      pop\n      pop\n      pop\n        /* \"DataTradingTest/UntraceableVoting.sol\":11538:11543  Curve */\n      0x00\n      dup1\n      sload\n      swap1\n      0x0100\n      exp\n      swap1\n      div\n      0xffffffffffffffffffffffffffffffffffffffff\n      and\n        /* \"DataTradingTest/UntraceableVoting.sol\":11538:11547  Curve.Add */\n      0xffffffffffffffffffffffffffffffffffffffff\n      and\n      0x39cd1f40\n        /* \"DataTradingTest/UntraceableVoting.sol\":11548:11550  x1 */\n      dup6\n        /* \"DataTradingTest/UntraceableVoting.sol\":11552:11554  x2 */\n      dup6\n        /* \"DataTradingTest/UntraceableVoting.sol\":11556:11558  x3 */\n      dup6\n        /* \"DataTradingTest/UntraceableVoting.sol\":11560:11562  x4 */\n      dup6\n        /* \"DataTradingTest/UntraceableVoting.sol\":11538:11563  Curve.Add(x1, x2, x3, x4) */\n      mload(0x40)\n      dup6\n      0xffffffff\n      and\n      0xe0\n      shl\n      dup2\n      mstore\n      0x04\n      add\n      tag_260\n      swap5\n      swap4\n      swap3\n      swap2\n      swap1\n      tag_261\n      jump\t// in\n    tag_260:\n      0x40\n      dup1\n      mload\n      dup1\n      dup4\n      sub\n      dup2\n      dup7\n      gas\n      staticcall\n      iszero\n      dup1\n      iszero\n      tag_263\n      jumpi\n      returndatasize\n      0x00\n      dup1\n      returndatacopy\n      revert(0x00, returndatasize)\n    tag_263:\n      pop\n      pop\n      pop\n      pop\n      mload(0x40)\n      returndatasize\n      not(0x1f)\n      0x1f\n      dup3\n      add\n      and\n      dup3\n      add\n      dup1\n      0x40\n      mstore\n      pop\n      dup2\n      add\n      swap1\n      tag_264\n      swap2\n      swap1\n      tag_248\n      jump\t// in\n    tag_264:\n        /* \"DataTradingTest/UntraceableVoting.sol\":11527:11563  (x1, x2) = Curve.Add(x1, x2, x3, x4) */\n      dup1\n      swap5\n      pop\n      dup2\n      swap6\n      pop\n      pop\n      pop\n        /* \"DataTradingTest/UntraceableVoting.sol\":11692:11694  x1 */\n      dup4\n        /* \"DataTradingTest/UntraceableVoting.sol\":11696:11698  x2 */\n      dup4\n        /* \"DataTradingTest/UntraceableVoting.sol\":11684:11699  return (x1, x2) */\n      swap6\n      pop\n      swap6\n      pop\n      pop\n      pop\n      pop\n      pop\n        /* \"DataTradingTest/UntraceableVoting.sol\":11123:11706  function l(... */\n      swap5\n      pop\n      swap5\n      swap3\n      pop\n      pop\n      pop\n      jump\t// out\n        /* \"DataTradingTest/UntraceableVoting.sol\":10577:11097  function r(... */\n    tag_241:\n        /* \"DataTradingTest/UntraceableVoting.sol\":10734:10741  uint256 */\n      0x00\n        /* \"DataTradingTest/UntraceableVoting.sol\":10743:10750  uint256 */\n      dup1\n        /* \"DataTradingTest/UntraceableVoting.sol\":10762:10772  uint256 t1 */\n      0x00\n        /* \"DataTradingTest/UntraceableVoting.sol\":10782:10792  uint256 t2 */\n      dup1\n        /* \"DataTradingTest/UntraceableVoting.sol\":10802:10812  uint256 x3 */\n      0x00\n        /* \"DataTradingTest/UntraceableVoting.sol\":10822:10832  uint256 x4 */\n      dup1\n        /* \"DataTradingTest/UntraceableVoting.sol\":10853:10858  Curve */\n      0x00\n      dup1\n      sload\n      swap1\n      0x0100\n      exp\n      swap1\n      div\n      0xffffffffffffffffffffffffffffffffffffffff\n      and\n        /* \"DataTradingTest/UntraceableVoting.sol\":10853:10868  Curve.HashToEcc */\n      0xffffffffffffffffffffffffffffffffffffffff\n      and\n      0x7f77a40c\n        /* \"DataTradingTest/UntraceableVoting.sol\":10882:10889  votings */\n      0x02\n        /* \"DataTradingTest/UntraceableVoting.sol\":10882:10893  votings[id] */\n      0x00\n        /* \"DataTradingTest/UntraceableVoting.sol\":10890:10892  id */\n      dup15\n        /* \"DataTradingTest/UntraceableVoting.sol\":10882:10893  votings[id] */\n      0xffffffffffffffff\n      and\n      dup2\n      mstore\n      0x20\n      add\n      swap1\n      dup2\n      mstore\n      0x20\n      add\n      0x00\n      keccak256\n        /* \"DataTradingTest/UntraceableVoting.sol\":10882:10901  votings[id].votersX */\n      0x06\n      add\n        /* \"DataTradingTest/UntraceableVoting.sol\":10902:10903  i */\n      dup13\n        /* \"DataTradingTest/UntraceableVoting.sol\":10882:10904  votings[id].votersX[i] */\n      dup2\n      sload\n      dup2\n      lt\n      tag_266\n      jumpi\n      tag_267\n      tag_82\n      jump\t// in\n    tag_267:\n    tag_266:\n      swap1\n      0x00\n      mstore\n      keccak256(0x00, 0x20)\n      add\n      sload\n        /* \"DataTradingTest/UntraceableVoting.sol\":10918:10925  votings */\n      0x02\n        /* \"DataTradingTest/UntraceableVoting.sol\":10918:10929  votings[id] */\n      0x00\n        /* \"DataTradingTest/UntraceableVoting.sol\":10926:10928  id */\n      dup16\n        /* \"DataTradingTest/UntraceableVoting.sol\":10918:10929  votings[id] */\n      0xffffffffffffffff\n      and\n      dup2\n      mstore\n      0x20\n      add\n      swap1\n      dup2\n      mstore\n      0x20\n      add\n      0x00\n      keccak256\n        /* \"DataTradingTest/UntraceableVoting.sol\":10918:10937  votings[id].votersY */\n      0x07\n      add\n        /* \"DataTradingTest/UntraceableVoting.sol\":10938:10939  i */\n      dup14\n        /* \"DataTradingTest/UntraceableVoting.sol\":10918:10940  votings[id].votersY[i] */\n      dup2\n      sload\n      dup2\n      lt\n      tag_269\n      jumpi\n      tag_270\n      tag_82\n      jump\t// in\n    tag_270:\n    tag_269:\n      swap1\n      0x00\n      mstore\n      keccak256(0x00, 0x20)\n      add\n      sload\n        /* \"DataTradingTest/UntraceableVoting.sol\":10853:10950  Curve.HashToEcc(... */\n      mload(0x40)\n      dup4\n      0xffffffff\n      and\n      0xe0\n      shl\n      dup2\n      mstore\n      0x04\n      add\n      tag_272\n      swap3\n      swap2\n      swap1\n      tag_273\n      jump\t// in\n    tag_272:\n      0x40\n      dup1\n      mload\n      dup1\n      dup4\n      sub\n      dup2\n      dup7\n      gas\n      staticcall\n      iszero\n      dup1\n      iszero\n      tag_275\n      jumpi\n      returndatasize\n      0x00\n      dup1\n      returndatacopy\n      revert(0x00, returndatasize)\n    tag_275:\n      pop\n      pop\n      pop\n      pop\n      mload(0x40)\n      returndatasize\n      not(0x1f)\n      0x1f\n      dup3\n      add\n      and\n      dup3\n      add\n      dup1\n      0x40\n      mstore\n      pop\n      dup2\n      add\n      swap1\n      tag_276\n      swap2\n      swap1\n      tag_248\n      jump\t// in\n    tag_276:\n        /* \"DataTradingTest/UntraceableVoting.sol\":10842:10950  (t1, t2) = Curve.HashToEcc(... */\n      dup1\n      swap5\n      pop\n      dup2\n      swap6\n      pop\n      pop\n      pop\n        /* \"DataTradingTest/UntraceableVoting.sol\":10971:10976  Curve */\n      0x00\n      dup1\n      sload\n      swap1\n      0x0100\n      exp\n      swap1\n      div\n      0xffffffffffffffffffffffffffffffffffffffff\n      and\n        /* \"DataTradingTest/UntraceableVoting.sol\":10971:10987  Curve.ScalarMult */\n      0xffffffffffffffffffffffffffffffffffffffff\n      and\n      0xfb88954d\n        /* \"DataTradingTest/UntraceableVoting.sol\":10988:10990  t1 */\n      dup6\n        /* \"DataTradingTest/UntraceableVoting.sol\":10992:10994  t2 */\n      dup6\n        /* \"DataTradingTest/UntraceableVoting.sol\":10996:10997  s */\n      dup16\n        /* \"DataTradingTest/UntraceableVoting.sol\":10971:10998  Curve.ScalarMult(t1, t2, s) */\n      mload(0x40)\n      dup5\n      0xffffffff\n      and\n      0xe0\n      shl\n      dup2\n      mstore\n      0x04\n      add\n      tag_277\n      swap4\n      swap3\n      swap2\n      swap1\n      tag_256\n      jump\t// in\n    tag_277:\n      0x40\n      dup1\n      mload\n      dup1\n      dup4\n      sub\n      dup2\n      dup7\n      gas\n      staticcall\n      iszero\n      dup1\n      iszero\n      tag_279\n      jumpi\n      returndatasize\n      0x00\n      dup1\n      returndatacopy\n      revert(0x00, returndatasize)\n    tag_279:\n      pop\n      pop\n      pop\n      pop\n      mload(0x40)\n      returndatasize\n      not(0x1f)\n      0x1f\n      dup3\n      add\n      and\n      dup3\n      add\n      dup1\n      0x40\n      mstore\n      pop\n      dup2\n      add\n      swap1\n      tag_280\n      swap2\n      swap1\n      tag_248\n      jump\t// in\n    tag_280:\n        /* \"DataTradingTest/UntraceableVoting.sol\":10960:10998  (t1, t2) = Curve.ScalarMult(t1, t2, s) */\n      dup1\n      swap5\n      pop\n      dup2\n      swap6\n      pop\n      pop\n      pop\n        /* \"DataTradingTest/UntraceableVoting.sol\":11019:11024  Curve */\n      0x00\n      dup1\n      sload\n      swap1\n      0x0100\n      exp\n      swap1\n      div\n      0xffffffffffffffffffffffffffffffffffffffff\n      and\n        /* \"DataTradingTest/UntraceableVoting.sol\":11019:11035  Curve.ScalarMult */\n      0xffffffffffffffffffffffffffffffffffffffff\n      and\n      0xfb88954d\n        /* \"DataTradingTest/UntraceableVoting.sol\":11036:11038  Ix */\n      dup10\n        /* \"DataTradingTest/UntraceableVoting.sol\":11040:11042  Iy */\n      dup10\n        /* \"DataTradingTest/UntraceableVoting.sol\":11044:11046  ci */\n      dup13\n        /* \"DataTradingTest/UntraceableVoting.sol\":11019:11047  Curve.ScalarMult(Ix, Iy, ci) */\n      mload(0x40)\n      dup5\n      0xffffffff\n      and\n      0xe0\n      shl\n      dup2\n      mstore\n      0x04\n      add\n      tag_281\n      swap4\n      swap3\n      swap2\n      swap1\n      tag_256\n      jump\t// in\n    tag_281:\n      0x40\n      dup1\n      mload\n      dup1\n      dup4\n      sub\n      dup2\n      dup7\n      gas\n      staticcall\n      iszero\n      dup1\n      iszero\n      tag_283\n      jumpi\n      returndatasize\n      0x00\n      dup1\n      returndatacopy\n      revert(0x00, returndatasize)\n    tag_283:\n      pop\n      pop\n      pop\n      pop\n      mload(0x40)\n      returndatasize\n      not(0x1f)\n      0x1f\n      dup3\n      add\n      and\n      dup3\n      add\n      dup1\n      0x40\n      mstore\n      pop\n      dup2\n      add\n      swap1\n      tag_284\n      swap2\n      swap1\n      tag_248\n      jump\t// in\n    tag_284:\n        /* \"DataTradingTest/UntraceableVoting.sol\":11008:11047  (x3, x4) = Curve.ScalarMult(Ix, Iy, ci) */\n      dup1\n      swap3\n      pop\n      dup2\n      swap4\n      pop\n      pop\n      pop\n        /* \"DataTradingTest/UntraceableVoting.sol\":11065:11070  Curve */\n      0x00\n      dup1\n      sload\n      swap1\n      0x0100\n      exp\n      swap1\n      div\n      0xffffffffffffffffffffffffffffffffffffffff\n      and\n        /* \"DataTradingTest/UntraceableVoting.sol\":11065:11074  Curve.Add */\n      0xffffffffffffffffffffffffffffffffffffffff\n      and\n      0x39cd1f40\n        /* \"DataTradingTest/UntraceableVoting.sol\":11075:11077  t1 */\n      dup6\n        /* \"DataTradingTest/UntraceableVoting.sol\":11079:11081  t2 */\n      dup6\n        /* \"DataTradingTest/UntraceableVoting.sol\":11083:11085  x3 */\n      dup6\n        /* \"DataTradingTest/UntraceableVoting.sol\":11087:11089  x4 */\n      dup6\n        /* \"DataTradingTest/UntraceableVoting.sol\":11065:11090  Curve.Add(t1, t2, x3, x4) */\n      mload(0x40)\n      dup6\n      0xffffffff\n      and\n      0xe0\n      shl\n      dup2\n      mstore\n      0x04\n      add\n      tag_285\n      swap5\n      swap4\n      swap3\n      swap2\n      swap1\n      tag_261\n      jump\t// in\n    tag_285:\n      0x40\n      dup1\n      mload\n      dup1\n      dup4\n      sub\n      dup2\n      dup7\n      gas\n      staticcall\n      iszero\n      dup1\n      iszero\n      tag_287\n      jumpi\n      returndatasize\n      0x00\n      dup1\n      returndatacopy\n      revert(0x00, returndatasize)\n    tag_287:\n      pop\n      pop\n      pop\n      pop\n      mload(0x40)\n      returndatasize\n      not(0x1f)\n      0x1f\n      dup3\n      add\n      and\n      dup3\n      add\n      dup1\n      0x40\n      mstore\n      pop\n      dup2\n      add\n      swap1\n      tag_288\n      swap2\n      swap1\n      tag_248\n      jump\t// in\n    tag_288:\n        /* \"DataTradingTest/UntraceableVoting.sol\":11058:11090  return Curve.Add(t1, t2, x3, x4) */\n      swap6\n      pop\n      swap6\n      pop\n      pop\n      pop\n      pop\n      pop\n        /* \"DataTradingTest/UntraceableVoting.sol\":10577:11097  function r(... */\n      swap7\n      pop\n      swap7\n      swap5\n      pop\n      pop\n      pop\n      pop\n      pop\n      jump\t// out\n    tag_66:\n      dup3\n      dup1\n      sload\n      dup3\n      dup3\n      sstore\n      swap1\n      0x00\n      mstore\n      keccak256(0x00, 0x20)\n      swap1\n      dup2\n      add\n      swap3\n      dup3\n      iszero\n      tag_289\n      jumpi\n      swap2\n      0x20\n      mul\n      dup3\n      add\n    tag_290:\n      dup3\n      dup2\n      gt\n      iszero\n      tag_291\n      jumpi\n      dup3\n      calldataload\n      0xffffffffffffffffffffffffffffffffffffffff\n      and\n      dup3\n      exp(0x0100, 0x00)\n      dup2\n      sload\n      dup2\n      0xffffffffffffffffffffffffffffffffffffffff\n      mul\n      not\n      and\n      swap1\n      dup4\n      0xffffffffffffffffffffffffffffffffffffffff\n      and\n      mul\n      or\n      swap1\n      sstore\n      pop\n      swap2\n      0x20\n      add\n      swap2\n      swap1\n      0x01\n      add\n      swap1\n      jump(tag_290)\n    tag_291:\n    tag_289:\n      pop\n      swap1\n      pop\n      tag_292\n      swap2\n      swap1\n      tag_293\n      jump\t// in\n    tag_292:\n      pop\n      swap1\n      jump\t// out\n    tag_72:\n      dup3\n      dup1\n      sload\n      dup3\n      dup3\n      sstore\n      swap1\n      0x00\n      mstore\n      keccak256(0x00, 0x20)\n      swap1\n      dup2\n      add\n      swap3\n      dup3\n      iszero\n      tag_294\n      jumpi\n      swap2\n      0x20\n      mul\n      dup3\n      add\n    tag_295:\n      dup3\n      dup2\n      gt\n      iszero\n      tag_296\n      jumpi\n      dup3\n      mload\n      dup3\n      sstore\n      swap2\n      0x20\n      add\n      swap2\n      swap1\n      0x01\n      add\n      swap1\n      jump(tag_295)\n    tag_296:\n    tag_294:\n      pop\n      swap1\n      pop\n      tag_297\n      swap2\n      swap1\n      tag_293\n      jump\t// in\n    tag_297:\n      pop\n      swap1\n      jump\t// out\n    tag_91:\n      mload(0x40)\n      dup1\n      0x01e0\n      add\n      0x40\n      mstore\n      dup1\n      0x0f\n      swap1\n      0x20\n      dup3\n      mul\n      dup1\n      calldatasize\n      dup4\n      calldatacopy\n      dup1\n      dup3\n      add\n      swap2\n      pop\n      pop\n      swap1\n      pop\n      pop\n      swap1\n      jump\t// out\n    tag_214:\n      mload(0x40)\n      dup1\n      0x80\n      add\n      0x40\n      mstore\n      dup1\n      0x00\n      dup2\n      mstore\n      0x20\n      add\n      0x00\n      dup2\n      mstore\n      0x20\n      add\n      0x00\n      dup2\n      mstore\n      0x20\n      add\n      0x00\n      dup2\n      mstore\n      pop\n      swap1\n      jump\t// out\n    tag_293:\n    tag_298:\n      dup1\n      dup3\n      gt\n      iszero\n      tag_299\n      jumpi\n      0x00\n      dup2\n      0x00\n      swap1\n      sstore\n      pop\n      0x01\n      add\n      jump(tag_298)\n    tag_299:\n      pop\n      swap1\n      jump\t// out\n        /* \"#utility.yul\":88:205   */\n    tag_301:\n        /* \"#utility.yul\":197:198   */\n      0x00\n        /* \"#utility.yul\":194:195   */\n      dup1\n        /* \"#utility.yul\":187:199   */\n      revert\n        /* \"#utility.yul\":211:328   */\n    tag_302:\n        /* \"#utility.yul\":320:321   */\n      0x00\n        /* \"#utility.yul\":317:318   */\n      dup1\n        /* \"#utility.yul\":310:322   */\n      revert\n        /* \"#utility.yul\":334:435   */\n    tag_303:\n        /* \"#utility.yul\":370:377   */\n      0x00\n        /* \"#utility.yul\":410:428   */\n      0xffffffffffffffff\n        /* \"#utility.yul\":403:408   */\n      dup3\n        /* \"#utility.yul\":399:429   */\n      and\n        /* \"#utility.yul\":388:429   */\n      swap1\n      pop\n        /* \"#utility.yul\":334:435   */\n      swap2\n      swap1\n      pop\n      jump\t// out\n        /* \"#utility.yul\":441:561   */\n    tag_304:\n        /* \"#utility.yul\":513:536   */\n      tag_387\n        /* \"#utility.yul\":530:535   */\n      dup2\n        /* \"#utility.yul\":513:536   */\n      tag_303\n      jump\t// in\n    tag_387:\n        /* \"#utility.yul\":506:511   */\n      dup2\n        /* \"#utility.yul\":503:537   */\n      eq\n        /* \"#utility.yul\":493:555   */\n      tag_388\n      jumpi\n        /* \"#utility.yul\":551:552   */\n      0x00\n        /* \"#utility.yul\":548:549   */\n      dup1\n        /* \"#utility.yul\":541:553   */\n      revert\n        /* \"#utility.yul\":493:555   */\n    tag_388:\n        /* \"#utility.yul\":441:561   */\n      pop\n      jump\t// out\n        /* \"#utility.yul\":567:704   */\n    tag_305:\n        /* \"#utility.yul\":612:617   */\n      0x00\n        /* \"#utility.yul\":650:656   */\n      dup2\n        /* \"#utility.yul\":637:657   */\n      calldataload\n        /* \"#utility.yul\":628:657   */\n      swap1\n      pop\n        /* \"#utility.yul\":666:698   */\n      tag_390\n        /* \"#utility.yul\":692:697   */\n      dup2\n        /* \"#utility.yul\":666:698   */\n      tag_304\n      jump\t// in\n    tag_390:\n        /* \"#utility.yul\":567:704   */\n      swap3\n      swap2\n      pop\n      pop\n      jump\t// out\n        /* \"#utility.yul\":710:827   */\n    tag_306:\n        /* \"#utility.yul\":819:820   */\n      0x00\n        /* \"#utility.yul\":816:817   */\n      dup1\n        /* \"#utility.yul\":809:821   */\n      revert\n        /* \"#utility.yul\":833:950   */\n    tag_307:\n        /* \"#utility.yul\":942:943   */\n      0x00\n        /* \"#utility.yul\":939:940   */\n      dup1\n        /* \"#utility.yul\":932:944   */\n      revert\n        /* \"#utility.yul\":956:1073   */\n    tag_308:\n        /* \"#utility.yul\":1065:1066   */\n      0x00\n        /* \"#utility.yul\":1062:1063   */\n      dup1\n        /* \"#utility.yul\":1055:1067   */\n      revert\n        /* \"#utility.yul\":1096:1664   */\n    tag_309:\n        /* \"#utility.yul\":1169:1177   */\n      0x00\n        /* \"#utility.yul\":1179:1185   */\n      dup1\n        /* \"#utility.yul\":1229:1232   */\n      dup4\n        /* \"#utility.yul\":1222:1226   */\n      0x1f\n        /* \"#utility.yul\":1214:1220   */\n      dup5\n        /* \"#utility.yul\":1210:1227   */\n      add\n        /* \"#utility.yul\":1206:1233   */\n      slt\n        /* \"#utility.yul\":1196:1318   */\n      tag_395\n      jumpi\n        /* \"#utility.yul\":1237:1316   */\n      tag_396\n      tag_306\n      jump\t// in\n    tag_396:\n        /* \"#utility.yul\":1196:1318   */\n    tag_395:\n        /* \"#utility.yul\":1350:1356   */\n      dup3\n        /* \"#utility.yul\":1337:1357   */\n      calldataload\n        /* \"#utility.yul\":1327:1357   */\n      swap1\n      pop\n        /* \"#utility.yul\":1380:1398   */\n      0xffffffffffffffff\n        /* \"#utility.yul\":1372:1378   */\n      dup2\n        /* \"#utility.yul\":1369:1399   */\n      gt\n        /* \"#utility.yul\":1366:1483   */\n      iszero\n      tag_397\n      jumpi\n        /* \"#utility.yul\":1402:1481   */\n      tag_398\n      tag_307\n      jump\t// in\n    tag_398:\n        /* \"#utility.yul\":1366:1483   */\n    tag_397:\n        /* \"#utility.yul\":1516:1520   */\n      0x20\n        /* \"#utility.yul\":1508:1514   */\n      dup4\n        /* \"#utility.yul\":1504:1521   */\n      add\n        /* \"#utility.yul\":1492:1521   */\n      swap2\n      pop\n        /* \"#utility.yul\":1570:1573   */\n      dup4\n        /* \"#utility.yul\":1562:1566   */\n      0x20\n        /* \"#utility.yul\":1554:1560   */\n      dup3\n        /* \"#utility.yul\":1550:1567   */\n      mul\n        /* \"#utility.yul\":1540:1548   */\n      dup4\n        /* \"#utility.yul\":1536:1568   */\n      add\n        /* \"#utility.yul\":1533:1574   */\n      gt\n        /* \"#utility.yul\":1530:1658   */\n      iszero\n      tag_399\n      jumpi\n        /* \"#utility.yul\":1577:1656   */\n      tag_400\n      tag_308\n      jump\t// in\n    tag_400:\n        /* \"#utility.yul\":1530:1658   */\n    tag_399:\n        /* \"#utility.yul\":1096:1664   */\n      swap3\n      pop\n      swap3\n      swap1\n      pop\n      jump\t// out\n        /* \"#utility.yul\":1670:2372   */\n    tag_14:\n        /* \"#utility.yul\":1764:1770   */\n      0x00\n        /* \"#utility.yul\":1772:1778   */\n      dup1\n        /* \"#utility.yul\":1780:1786   */\n      0x00\n        /* \"#utility.yul\":1829:1831   */\n      0x40\n        /* \"#utility.yul\":1817:1826   */\n      dup5\n        /* \"#utility.yul\":1808:1815   */\n      dup7\n        /* \"#utility.yul\":1804:1827   */\n      sub\n        /* \"#utility.yul\":1800:1832   */\n      slt\n        /* \"#utility.yul\":1797:1916   */\n      iszero\n      tag_402\n      jumpi\n        /* \"#utility.yul\":1835:1914   */\n      tag_403\n      tag_301\n      jump\t// in\n    tag_403:\n        /* \"#utility.yul\":1797:1916   */\n    tag_402:\n        /* \"#utility.yul\":1955:1956   */\n      0x00\n        /* \"#utility.yul\":1980:2032   */\n      tag_404\n        /* \"#utility.yul\":2024:2031   */\n      dup7\n        /* \"#utility.yul\":2015:2021   */\n      dup3\n        /* \"#utility.yul\":2004:2013   */\n      dup8\n        /* \"#utility.yul\":2000:2022   */\n      add\n        /* \"#utility.yul\":1980:2032   */\n      tag_305\n      jump\t// in\n    tag_404:\n        /* \"#utility.yul\":1970:2032   */\n      swap4\n      pop\n        /* \"#utility.yul\":1926:2042   */\n      pop\n        /* \"#utility.yul\":2109:2111   */\n      0x20\n        /* \"#utility.yul\":2098:2107   */\n      dup5\n        /* \"#utility.yul\":2094:2112   */\n      add\n        /* \"#utility.yul\":2081:2113   */\n      calldataload\n        /* \"#utility.yul\":2140:2158   */\n      0xffffffffffffffff\n        /* \"#utility.yul\":2132:2138   */\n      dup2\n        /* \"#utility.yul\":2129:2159   */\n      gt\n        /* \"#utility.yul\":2126:2243   */\n      iszero\n      tag_405\n      jumpi\n        /* \"#utility.yul\":2162:2241   */\n      tag_406\n      tag_302\n      jump\t// in\n    tag_406:\n        /* \"#utility.yul\":2126:2243   */\n    tag_405:\n        /* \"#utility.yul\":2275:2355   */\n      tag_407\n        /* \"#utility.yul\":2347:2354   */\n      dup7\n        /* \"#utility.yul\":2338:2344   */\n      dup3\n        /* \"#utility.yul\":2327:2336   */\n      dup8\n        /* \"#utility.yul\":2323:2345   */\n      add\n        /* \"#utility.yul\":2275:2355   */\n      tag_309\n      jump\t// in\n    tag_407:\n        /* \"#utility.yul\":2257:2355   */\n      swap3\n      pop\n      swap3\n      pop\n        /* \"#utility.yul\":2052:2365   */\n      pop\n        /* \"#utility.yul\":1670:2372   */\n      swap3\n      pop\n      swap3\n      pop\n      swap3\n      jump\t// out\n        /* \"#utility.yul\":2378:2504   */\n    tag_310:\n        /* \"#utility.yul\":2415:2422   */\n      0x00\n        /* \"#utility.yul\":2455:2497   */\n      0xffffffffffffffffffffffffffffffffffffffff\n        /* \"#utility.yul\":2448:2453   */\n      dup3\n        /* \"#utility.yul\":2444:2498   */\n      and\n        /* \"#utility.yul\":2433:2498   */\n      swap1\n      pop\n        /* \"#utility.yul\":2378:2504   */\n      swap2\n      swap1\n      pop\n      jump\t// out\n        /* \"#utility.yul\":2510:2606   */\n    tag_311:\n        /* \"#utility.yul\":2547:2554   */\n      0x00\n        /* \"#utility.yul\":2576:2600   */\n      tag_410\n        /* \"#utility.yul\":2594:2599   */\n      dup3\n        /* \"#utility.yul\":2576:2600   */\n      tag_310\n      jump\t// in\n    tag_410:\n        /* \"#utility.yul\":2565:2600   */\n      swap1\n      pop\n        /* \"#utility.yul\":2510:2606   */\n      swap2\n      swap1\n      pop\n      jump\t// out\n        /* \"#utility.yul\":2612:2734   */\n    tag_312:\n        /* \"#utility.yul\":2685:2709   */\n      tag_412\n        /* \"#utility.yul\":2703:2708   */\n      dup2\n        /* \"#utility.yul\":2685:2709   */\n      tag_311\n      jump\t// in\n    tag_412:\n        /* \"#utility.yul\":2678:2683   */\n      dup2\n        /* \"#utility.yul\":2675:2710   */\n      eq\n        /* \"#utility.yul\":2665:2728   */\n      tag_413\n      jumpi\n        /* \"#utility.yul\":2724:2725   */\n      0x00\n        /* \"#utility.yul\":2721:2722   */\n      dup1\n        /* \"#utility.yul\":2714:2726   */\n      revert\n        /* \"#utility.yul\":2665:2728   */\n    tag_413:\n        /* \"#utility.yul\":2612:2734   */\n      pop\n      jump\t// out\n        /* \"#utility.yul\":2740:2879   */\n    tag_313:\n        /* \"#utility.yul\":2786:2791   */\n      0x00\n        /* \"#utility.yul\":2824:2830   */\n      dup2\n        /* \"#utility.yul\":2811:2831   */\n      calldataload\n        /* \"#utility.yul\":2802:2831   */\n      swap1\n      pop\n        /* \"#utility.yul\":2840:2873   */\n      tag_415\n        /* \"#utility.yul\":2867:2872   */\n      dup2\n        /* \"#utility.yul\":2840:2873   */\n      tag_312\n      jump\t// in\n    tag_415:\n        /* \"#utility.yul\":2740:2879   */\n      swap3\n      swap2\n      pop\n      pop\n      jump\t// out\n        /* \"#utility.yul\":2885:3214   */\n    tag_19:\n        /* \"#utility.yul\":2944:2950   */\n      0x00\n        /* \"#utility.yul\":2993:2995   */\n      0x20\n        /* \"#utility.yul\":2981:2990   */\n      dup3\n        /* \"#utility.yul\":2972:2979   */\n      dup5\n        /* \"#utility.yul\":2968:2991   */\n      sub\n        /* \"#utility.yul\":2964:2996   */\n      slt\n        /* \"#utility.yul\":2961:3080   */\n      iszero\n      tag_417\n      jumpi\n        /* \"#utility.yul\":2999:3078   */\n      tag_418\n      tag_301\n      jump\t// in\n    tag_418:\n        /* \"#utility.yul\":2961:3080   */\n    tag_417:\n        /* \"#utility.yul\":3119:3120   */\n      0x00\n        /* \"#utility.yul\":3144:3197   */\n      tag_419\n        /* \"#utility.yul\":3189:3196   */\n      dup5\n        /* \"#utility.yul\":3180:3186   */\n      dup3\n        /* \"#utility.yul\":3169:3178   */\n      dup6\n        /* \"#utility.yul\":3165:3187   */\n      add\n        /* \"#utility.yul\":3144:3197   */\n      tag_313\n      jump\t// in\n    tag_419:\n        /* \"#utility.yul\":3134:3197   */\n      swap2\n      pop\n        /* \"#utility.yul\":3090:3207   */\n      pop\n        /* \"#utility.yul\":2885:3214   */\n      swap3\n      swap2\n      pop\n      pop\n      jump\t// out\n        /* \"#utility.yul\":3220:3547   */\n    tag_24:\n        /* \"#utility.yul\":3278:3284   */\n      0x00\n        /* \"#utility.yul\":3327:3329   */\n      0x20\n        /* \"#utility.yul\":3315:3324   */\n      dup3\n        /* \"#utility.yul\":3306:3313   */\n      dup5\n        /* \"#utility.yul\":3302:3325   */\n      sub\n        /* \"#utility.yul\":3298:3330   */\n      slt\n        /* \"#utility.yul\":3295:3414   */\n      iszero\n      tag_421\n      jumpi\n        /* \"#utility.yul\":3333:3412   */\n      tag_422\n      tag_301\n      jump\t// in\n    tag_422:\n        /* \"#utility.yul\":3295:3414   */\n    tag_421:\n        /* \"#utility.yul\":3453:3454   */\n      0x00\n        /* \"#utility.yul\":3478:3530   */\n      tag_423\n        /* \"#utility.yul\":3522:3529   */\n      dup5\n        /* \"#utility.yul\":3513:3519   */\n      dup3\n        /* \"#utility.yul\":3502:3511   */\n      dup6\n        /* \"#utility.yul\":3498:3520   */\n      add\n        /* \"#utility.yul\":3478:3530   */\n      tag_305\n      jump\t// in\n    tag_423:\n        /* \"#utility.yul\":3468:3530   */\n      swap2\n      pop\n        /* \"#utility.yul\":3424:3540   */\n      pop\n        /* \"#utility.yul\":3220:3547   */\n      swap3\n      swap2\n      pop\n      pop\n      jump\t// out\n        /* \"#utility.yul\":3553:3658   */\n    tag_314:\n        /* \"#utility.yul\":3619:3625   */\n      0x00\n        /* \"#utility.yul\":3647:3651   */\n      0x0f\n        /* \"#utility.yul\":3637:3651   */\n      swap1\n      pop\n        /* \"#utility.yul\":3553:3658   */\n      swap2\n      swap1\n      pop\n      jump\t// out\n        /* \"#utility.yul\":3664:3808   */\n    tag_315:\n        /* \"#utility.yul\":3762:3773   */\n      0x00\n        /* \"#utility.yul\":3799:3802   */\n      dup2\n        /* \"#utility.yul\":3784:3802   */\n      swap1\n      pop\n        /* \"#utility.yul\":3664:3808   */\n      swap3\n      swap2\n      pop\n      pop\n      jump\t// out\n        /* \"#utility.yul\":3814:3913   */\n    tag_316:\n        /* \"#utility.yul\":3880:3884   */\n      0x00\n        /* \"#utility.yul\":3903:3906   */\n      dup2\n        /* \"#utility.yul\":3895:3906   */\n      swap1\n      pop\n        /* \"#utility.yul\":3814:3913   */\n      swap2\n      swap1\n      pop\n      jump\t// out\n        /* \"#utility.yul\":3919:4027   */\n    tag_317:\n        /* \"#utility.yul\":3996:4020   */\n      tag_428\n        /* \"#utility.yul\":4014:4019   */\n      dup2\n        /* \"#utility.yul\":3996:4020   */\n      tag_311\n      jump\t// in\n    tag_428:\n        /* \"#utility.yul\":3991:3994   */\n      dup3\n        /* \"#utility.yul\":3984:4021   */\n      mstore\n        /* \"#utility.yul\":3919:4027   */\n      pop\n      pop\n      jump\t// out\n        /* \"#utility.yul\":4033:4212   */\n    tag_318:\n        /* \"#utility.yul\":4102:4112   */\n      0x00\n        /* \"#utility.yul\":4123:4169   */\n      tag_430\n        /* \"#utility.yul\":4165:4168   */\n      dup4\n        /* \"#utility.yul\":4157:4163   */\n      dup4\n        /* \"#utility.yul\":4123:4169   */\n      tag_317\n      jump\t// in\n    tag_430:\n        /* \"#utility.yul\":4201:4205   */\n      0x20\n        /* \"#utility.yul\":4196:4199   */\n      dup4\n        /* \"#utility.yul\":4192:4206   */\n      add\n        /* \"#utility.yul\":4178:4206   */\n      swap1\n      pop\n        /* \"#utility.yul\":4033:4212   */\n      swap3\n      swap2\n      pop\n      pop\n      jump\t// out\n        /* \"#utility.yul\":4218:4330   */\n    tag_319:\n        /* \"#utility.yul\":4287:4291   */\n      0x00\n        /* \"#utility.yul\":4319:4323   */\n      0x20\n        /* \"#utility.yul\":4314:4317   */\n      dup3\n        /* \"#utility.yul\":4310:4324   */\n      add\n        /* \"#utility.yul\":4302:4324   */\n      swap1\n      pop\n        /* \"#utility.yul\":4218:4330   */\n      swap2\n      swap1\n      pop\n      jump\t// out\n        /* \"#utility.yul\":4370:5070   */\n    tag_320:\n        /* \"#utility.yul\":4508:4561   */\n      tag_433\n        /* \"#utility.yul\":4555:4560   */\n      dup2\n        /* \"#utility.yul\":4508:4561   */\n      tag_314\n      jump\t// in\n    tag_433:\n        /* \"#utility.yul\":4577:4662   */\n      tag_434\n        /* \"#utility.yul\":4655:4661   */\n      dup2\n        /* \"#utility.yul\":4650:4653   */\n      dup5\n        /* \"#utility.yul\":4577:4662   */\n      tag_315\n      jump\t// in\n    tag_434:\n        /* \"#utility.yul\":4570:4662   */\n      swap3\n      pop\n        /* \"#utility.yul\":4686:4741   */\n      tag_435\n        /* \"#utility.yul\":4735:4740   */\n      dup3\n        /* \"#utility.yul\":4686:4741   */\n      tag_316\n      jump\t// in\n    tag_435:\n        /* \"#utility.yul\":4764:4771   */\n      dup1\n        /* \"#utility.yul\":4795:4796   */\n      0x00\n        /* \"#utility.yul\":4780:5063   */\n    tag_436:\n        /* \"#utility.yul\":4805:4811   */\n      dup4\n        /* \"#utility.yul\":4802:4803   */\n      dup2\n        /* \"#utility.yul\":4799:4812   */\n      lt\n        /* \"#utility.yul\":4780:5063   */\n      iszero\n      tag_438\n      jumpi\n        /* \"#utility.yul\":4881:4887   */\n      dup2\n        /* \"#utility.yul\":4875:4888   */\n      mload\n        /* \"#utility.yul\":4908:4971   */\n      tag_439\n        /* \"#utility.yul\":4967:4970   */\n      dup8\n        /* \"#utility.yul\":4952:4965   */\n      dup3\n        /* \"#utility.yul\":4908:4971   */\n      tag_318\n      jump\t// in\n    tag_439:\n        /* \"#utility.yul\":4901:4971   */\n      swap7\n      pop\n        /* \"#utility.yul\":4994:5053   */\n      tag_440\n        /* \"#utility.yul\":5046:5052   */\n      dup4\n        /* \"#utility.yul\":4994:5053   */\n      tag_319\n      jump\t// in\n    tag_440:\n        /* \"#utility.yul\":4984:5053   */\n      swap3\n      pop\n        /* \"#utility.yul\":4840:5063   */\n      pop\n        /* \"#utility.yul\":4827:4828   */\n      0x01\n        /* \"#utility.yul\":4824:4825   */\n      dup2\n        /* \"#utility.yul\":4820:4829   */\n      add\n        /* \"#utility.yul\":4815:4829   */\n      swap1\n      pop\n        /* \"#utility.yul\":4780:5063   */\n      jump(tag_436)\n    tag_438:\n        /* \"#utility.yul\":4784:4798   */\n      pop\n        /* \"#utility.yul\":4484:5070   */\n      pop\n      pop\n      pop\n        /* \"#utility.yul\":4370:5070   */\n      pop\n      pop\n      jump\t// out\n        /* \"#utility.yul\":5076:5162   */\n    tag_321:\n        /* \"#utility.yul\":5111:5118   */\n      0x00\n        /* \"#utility.yul\":5151:5155   */\n      0xff\n        /* \"#utility.yul\":5144:5149   */\n      dup3\n        /* \"#utility.yul\":5140:5156   */\n      and\n        /* \"#utility.yul\":5129:5156   */\n      swap1\n      pop\n        /* \"#utility.yul\":5076:5162   */\n      swap2\n      swap1\n      pop\n      jump\t// out\n        /* \"#utility.yul\":5168:5280   */\n    tag_322:\n        /* \"#utility.yul\":5251:5273   */\n      tag_443\n        /* \"#utility.yul\":5267:5272   */\n      dup2\n        /* \"#utility.yul\":5251:5273   */\n      tag_321\n      jump\t// in\n    tag_443:\n        /* \"#utility.yul\":5246:5249   */\n      dup3\n        /* \"#utility.yul\":5239:5274   */\n      mstore\n        /* \"#utility.yul\":5168:5280   */\n      pop\n      pop\n      jump\t// out\n        /* \"#utility.yul\":5286:5708   */\n    tag_27:\n        /* \"#utility.yul\":5451:5455   */\n      0x00\n        /* \"#utility.yul\":5489:5492   */\n      0x0200\n        /* \"#utility.yul\":5478:5487   */\n      dup3\n        /* \"#utility.yul\":5474:5493   */\n      add\n        /* \"#utility.yul\":5466:5493   */\n      swap1\n      pop\n        /* \"#utility.yul\":5503:5622   */\n      tag_445\n        /* \"#utility.yul\":5619:5620   */\n      0x00\n        /* \"#utility.yul\":5608:5617   */\n      dup4\n        /* \"#utility.yul\":5604:5621   */\n      add\n        /* \"#utility.yul\":5595:5601   */\n      dup6\n        /* \"#utility.yul\":5503:5622   */\n      tag_320\n      jump\t// in\n    tag_445:\n        /* \"#utility.yul\":5632:5701   */\n      tag_446\n        /* \"#utility.yul\":5696:5699   */\n      0x01e0\n        /* \"#utility.yul\":5685:5694   */\n      dup4\n        /* \"#utility.yul\":5681:5700   */\n      add\n        /* \"#utility.yul\":5672:5678   */\n      dup5\n        /* \"#utility.yul\":5632:5701   */\n      tag_322\n      jump\t// in\n    tag_446:\n        /* \"#utility.yul\":5286:5708   */\n      swap4\n      swap3\n      pop\n      pop\n      pop\n      jump\t// out\n        /* \"#utility.yul\":5714:5791   */\n    tag_323:\n        /* \"#utility.yul\":5751:5758   */\n      0x00\n        /* \"#utility.yul\":5780:5785   */\n      dup2\n        /* \"#utility.yul\":5769:5785   */\n      swap1\n      pop\n        /* \"#utility.yul\":5714:5791   */\n      swap2\n      swap1\n      pop\n      jump\t// out\n        /* \"#utility.yul\":5797:5919   */\n    tag_324:\n        /* \"#utility.yul\":5870:5894   */\n      tag_449\n        /* \"#utility.yul\":5888:5893   */\n      dup2\n        /* \"#utility.yul\":5870:5894   */\n      tag_323\n      jump\t// in\n    tag_449:\n        /* \"#utility.yul\":5863:5868   */\n      dup2\n        /* \"#utility.yul\":5860:5895   */\n      eq\n        /* \"#utility.yul\":5850:5913   */\n      tag_450\n      jumpi\n        /* \"#utility.yul\":5909:5910   */\n      0x00\n        /* \"#utility.yul\":5906:5907   */\n      dup1\n        /* \"#utility.yul\":5899:5911   */\n      revert\n        /* \"#utility.yul\":5850:5913   */\n    tag_450:\n        /* \"#utility.yul\":5797:5919   */\n      pop\n      jump\t// out\n        /* \"#utility.yul\":5925:6064   */\n    tag_325:\n        /* \"#utility.yul\":5971:5976   */\n      0x00\n        /* \"#utility.yul\":6009:6015   */\n      dup2\n        /* \"#utility.yul\":5996:6016   */\n      calldataload\n        /* \"#utility.yul\":5987:6016   */\n      swap1\n      pop\n        /* \"#utility.yul\":6025:6058   */\n      tag_452\n        /* \"#utility.yul\":6052:6057   */\n      dup2\n        /* \"#utility.yul\":6025:6058   */\n      tag_324\n      jump\t// in\n    tag_452:\n        /* \"#utility.yul\":5925:6064   */\n      swap3\n      swap2\n      pop\n      pop\n      jump\t// out\n        /* \"#utility.yul\":6087:6655   */\n    tag_326:\n        /* \"#utility.yul\":6160:6168   */\n      0x00\n        /* \"#utility.yul\":6170:6176   */\n      dup1\n        /* \"#utility.yul\":6220:6223   */\n      dup4\n        /* \"#utility.yul\":6213:6217   */\n      0x1f\n        /* \"#utility.yul\":6205:6211   */\n      dup5\n        /* \"#utility.yul\":6201:6218   */\n      add\n        /* \"#utility.yul\":6197:6224   */\n      slt\n        /* \"#utility.yul\":6187:6309   */\n      tag_454\n      jumpi\n        /* \"#utility.yul\":6228:6307   */\n      tag_455\n      tag_306\n      jump\t// in\n    tag_455:\n        /* \"#utility.yul\":6187:6309   */\n    tag_454:\n        /* \"#utility.yul\":6341:6347   */\n      dup3\n        /* \"#utility.yul\":6328:6348   */\n      calldataload\n        /* \"#utility.yul\":6318:6348   */\n      swap1\n      pop\n        /* \"#utility.yul\":6371:6389   */\n      0xffffffffffffffff\n        /* \"#utility.yul\":6363:6369   */\n      dup2\n        /* \"#utility.yul\":6360:6390   */\n      gt\n        /* \"#utility.yul\":6357:6474   */\n      iszero\n      tag_456\n      jumpi\n        /* \"#utility.yul\":6393:6472   */\n      tag_457\n      tag_307\n      jump\t// in\n    tag_457:\n        /* \"#utility.yul\":6357:6474   */\n    tag_456:\n        /* \"#utility.yul\":6507:6511   */\n      0x20\n        /* \"#utility.yul\":6499:6505   */\n      dup4\n        /* \"#utility.yul\":6495:6512   */\n      add\n        /* \"#utility.yul\":6483:6512   */\n      swap2\n      pop\n        /* \"#utility.yul\":6561:6564   */\n      dup4\n        /* \"#utility.yul\":6553:6557   */\n      0x20\n        /* \"#utility.yul\":6545:6551   */\n      dup3\n        /* \"#utility.yul\":6541:6558   */\n      mul\n        /* \"#utility.yul\":6531:6539   */\n      dup4\n        /* \"#utility.yul\":6527:6559   */\n      add\n        /* \"#utility.yul\":6524:6565   */\n      gt\n        /* \"#utility.yul\":6521:6649   */\n      iszero\n      tag_458\n      jumpi\n        /* \"#utility.yul\":6568:6647   */\n      tag_459\n      tag_308\n      jump\t// in\n    tag_459:\n        /* \"#utility.yul\":6521:6649   */\n    tag_458:\n        /* \"#utility.yul\":6087:6655   */\n      swap3\n      pop\n      swap3\n      swap1\n      pop\n      jump\t// out\n        /* \"#utility.yul\":6661:7946   */\n    tag_33:\n        /* \"#utility.yul\":6791:6797   */\n      0x00\n        /* \"#utility.yul\":6799:6805   */\n      dup1\n        /* \"#utility.yul\":6807:6813   */\n      0x00\n        /* \"#utility.yul\":6815:6821   */\n      dup1\n        /* \"#utility.yul\":6823:6829   */\n      0x00\n        /* \"#utility.yul\":6831:6837   */\n      dup1\n        /* \"#utility.yul\":6839:6845   */\n      0x00\n        /* \"#utility.yul\":6888:6891   */\n      0xc0\n        /* \"#utility.yul\":6876:6885   */\n      dup9\n        /* \"#utility.yul\":6867:6874   */\n      dup11\n        /* \"#utility.yul\":6863:6886   */\n      sub\n        /* \"#utility.yul\":6859:6892   */\n      slt\n        /* \"#utility.yul\":6856:6976   */\n      iszero\n      tag_461\n      jumpi\n        /* \"#utility.yul\":6895:6974   */\n      tag_462\n      tag_301\n      jump\t// in\n    tag_462:\n        /* \"#utility.yul\":6856:6976   */\n    tag_461:\n        /* \"#utility.yul\":7015:7016   */\n      0x00\n        /* \"#utility.yul\":7040:7092   */\n      tag_463\n        /* \"#utility.yul\":7084:7091   */\n      dup11\n        /* \"#utility.yul\":7075:7081   */\n      dup3\n        /* \"#utility.yul\":7064:7073   */\n      dup12\n        /* \"#utility.yul\":7060:7082   */\n      add\n        /* \"#utility.yul\":7040:7092   */\n      tag_305\n      jump\t// in\n    tag_463:\n        /* \"#utility.yul\":7030:7092   */\n      swap8\n      pop\n        /* \"#utility.yul\":6986:7102   */\n      pop\n        /* \"#utility.yul\":7141:7143   */\n      0x20\n        /* \"#utility.yul\":7167:7220   */\n      tag_464\n        /* \"#utility.yul\":7212:7219   */\n      dup11\n        /* \"#utility.yul\":7203:7209   */\n      dup3\n        /* \"#utility.yul\":7192:7201   */\n      dup12\n        /* \"#utility.yul\":7188:7210   */\n      add\n        /* \"#utility.yul\":7167:7220   */\n      tag_313\n      jump\t// in\n    tag_464:\n        /* \"#utility.yul\":7157:7220   */\n      swap7\n      pop\n        /* \"#utility.yul\":7112:7230   */\n      pop\n        /* \"#utility.yul\":7269:7271   */\n      0x40\n        /* \"#utility.yul\":7295:7348   */\n      tag_465\n        /* \"#utility.yul\":7340:7347   */\n      dup11\n        /* \"#utility.yul\":7331:7337   */\n      dup3\n        /* \"#utility.yul\":7320:7329   */\n      dup12\n        /* \"#utility.yul\":7316:7338   */\n      add\n        /* \"#utility.yul\":7295:7348   */\n      tag_325\n      jump\t// in\n    tag_465:\n        /* \"#utility.yul\":7285:7348   */\n      swap6\n      pop\n        /* \"#utility.yul\":7240:7358   */\n      pop\n        /* \"#utility.yul\":7397:7399   */\n      0x60\n        /* \"#utility.yul\":7423:7476   */\n      tag_466\n        /* \"#utility.yul\":7468:7475   */\n      dup11\n        /* \"#utility.yul\":7459:7465   */\n      dup3\n        /* \"#utility.yul\":7448:7457   */\n      dup12\n        /* \"#utility.yul\":7444:7466   */\n      add\n        /* \"#utility.yul\":7423:7476   */\n      tag_325\n      jump\t// in\n    tag_466:\n        /* \"#utility.yul\":7413:7476   */\n      swap5\n      pop\n        /* \"#utility.yul\":7368:7486   */\n      pop\n        /* \"#utility.yul\":7525:7528   */\n      0x80\n        /* \"#utility.yul\":7552:7605   */\n      tag_467\n        /* \"#utility.yul\":7597:7604   */\n      dup11\n        /* \"#utility.yul\":7588:7594   */\n      dup3\n        /* \"#utility.yul\":7577:7586   */\n      dup12\n        /* \"#utility.yul\":7573:7595   */\n      add\n        /* \"#utility.yul\":7552:7605   */\n      tag_325\n      jump\t// in\n    tag_467:\n        /* \"#utility.yul\":7542:7605   */\n      swap4\n      pop\n        /* \"#utility.yul\":7496:7615   */\n      pop\n        /* \"#utility.yul\":7682:7685   */\n      0xa0\n        /* \"#utility.yul\":7671:7680   */\n      dup9\n        /* \"#utility.yul\":7667:7686   */\n      add\n        /* \"#utility.yul\":7654:7687   */\n      calldataload\n        /* \"#utility.yul\":7714:7732   */\n      0xffffffffffffffff\n        /* \"#utility.yul\":7706:7712   */\n      dup2\n        /* \"#utility.yul\":7703:7733   */\n      gt\n        /* \"#utility.yul\":7700:7817   */\n      iszero\n      tag_468\n      jumpi\n        /* \"#utility.yul\":7736:7815   */\n      tag_469\n      tag_302\n      jump\t// in\n    tag_469:\n        /* \"#utility.yul\":7700:7817   */\n    tag_468:\n        /* \"#utility.yul\":7849:7929   */\n      tag_470\n        /* \"#utility.yul\":7921:7928   */\n      dup11\n        /* \"#utility.yul\":7912:7918   */\n      dup3\n        /* \"#utility.yul\":7901:7910   */\n      dup12\n        /* \"#utility.yul\":7897:7919   */\n      add\n        /* \"#utility.yul\":7849:7929   */\n      tag_326\n      jump\t// in\n    tag_470:\n        /* \"#utility.yul\":7831:7929   */\n      swap3\n      pop\n      swap3\n      pop\n        /* \"#utility.yul\":7625:7939   */\n      pop\n        /* \"#utility.yul\":6661:7946   */\n      swap3\n      swap6\n      swap9\n      swap2\n      swap5\n      swap8\n      pop\n      swap3\n      swap6\n      pop\n      jump\t// out\n        /* \"#utility.yul\":7952:8424   */\n    tag_38:\n        /* \"#utility.yul\":8019:8025   */\n      0x00\n        /* \"#utility.yul\":8027:8033   */\n      dup1\n        /* \"#utility.yul\":8076:8078   */\n      0x40\n        /* \"#utility.yul\":8064:8073   */\n      dup4\n        /* \"#utility.yul\":8055:8062   */\n      dup6\n        /* \"#utility.yul\":8051:8074   */\n      sub\n        /* \"#utility.yul\":8047:8079   */\n      slt\n        /* \"#utility.yul\":8044:8163   */\n      iszero\n      tag_472\n      jumpi\n        /* \"#utility.yul\":8082:8161   */\n      tag_473\n      tag_301\n      jump\t// in\n    tag_473:\n        /* \"#utility.yul\":8044:8163   */\n    tag_472:\n        /* \"#utility.yul\":8202:8203   */\n      0x00\n        /* \"#utility.yul\":8227:8279   */\n      tag_474\n        /* \"#utility.yul\":8271:8278   */\n      dup6\n        /* \"#utility.yul\":8262:8268   */\n      dup3\n        /* \"#utility.yul\":8251:8260   */\n      dup7\n        /* \"#utility.yul\":8247:8269   */\n      add\n        /* \"#utility.yul\":8227:8279   */\n      tag_305\n      jump\t// in\n    tag_474:\n        /* \"#utility.yul\":8217:8279   */\n      swap3\n      pop\n        /* \"#utility.yul\":8173:8289   */\n      pop\n        /* \"#utility.yul\":8328:8330   */\n      0x20\n        /* \"#utility.yul\":8354:8407   */\n      tag_475\n        /* \"#utility.yul\":8399:8406   */\n      dup6\n        /* \"#utility.yul\":8390:8396   */\n      dup3\n        /* \"#utility.yul\":8379:8388   */\n      dup7\n        /* \"#utility.yul\":8375:8397   */\n      add\n        /* \"#utility.yul\":8354:8407   */\n      tag_313\n      jump\t// in\n    tag_475:\n        /* \"#utility.yul\":8344:8407   */\n      swap2\n      pop\n        /* \"#utility.yul\":8299:8417   */\n      pop\n        /* \"#utility.yul\":7952:8424   */\n      swap3\n      pop\n      swap3\n      swap1\n      pop\n      jump\t// out\n        /* \"#utility.yul\":8430:8520   */\n    tag_327:\n        /* \"#utility.yul\":8464:8471   */\n      0x00\n        /* \"#utility.yul\":8507:8512   */\n      dup2\n        /* \"#utility.yul\":8500:8513   */\n      iszero\n        /* \"#utility.yul\":8493:8514   */\n      iszero\n        /* \"#utility.yul\":8482:8514   */\n      swap1\n      pop\n        /* \"#utility.yul\":8430:8520   */\n      swap2\n      swap1\n      pop\n      jump\t// out\n        /* \"#utility.yul\":8526:8635   */\n    tag_328:\n        /* \"#utility.yul\":8607:8628   */\n      tag_478\n        /* \"#utility.yul\":8622:8627   */\n      dup2\n        /* \"#utility.yul\":8607:8628   */\n      tag_327\n      jump\t// in\n    tag_478:\n        /* \"#utility.yul\":8602:8605   */\n      dup3\n        /* \"#utility.yul\":8595:8629   */\n      mstore\n        /* \"#utility.yul\":8526:8635   */\n      pop\n      pop\n      jump\t// out\n        /* \"#utility.yul\":8641:8759   */\n    tag_329:\n        /* \"#utility.yul\":8728:8752   */\n      tag_480\n        /* \"#utility.yul\":8746:8751   */\n      dup2\n        /* \"#utility.yul\":8728:8752   */\n      tag_323\n      jump\t// in\n    tag_480:\n        /* \"#utility.yul\":8723:8726   */\n      dup3\n        /* \"#utility.yul\":8716:8753   */\n      mstore\n        /* \"#utility.yul\":8641:8759   */\n      pop\n      pop\n      jump\t// out\n        /* \"#utility.yul\":8765:9085   */\n    tag_41:\n        /* \"#utility.yul\":8880:8884   */\n      0x00\n        /* \"#utility.yul\":8918:8920   */\n      0x40\n        /* \"#utility.yul\":8907:8916   */\n      dup3\n        /* \"#utility.yul\":8903:8921   */\n      add\n        /* \"#utility.yul\":8895:8921   */\n      swap1\n      pop\n        /* \"#utility.yul\":8931:8996   */\n      tag_482\n        /* \"#utility.yul\":8993:8994   */\n      0x00\n        /* \"#utility.yul\":8982:8991   */\n      dup4\n        /* \"#utility.yul\":8978:8995   */\n      add\n        /* \"#utility.yul\":8969:8975   */\n      dup6\n        /* \"#utility.yul\":8931:8996   */\n      tag_328\n      jump\t// in\n    tag_482:\n        /* \"#utility.yul\":9006:9078   */\n      tag_483\n        /* \"#utility.yul\":9074:9076   */\n      0x20\n        /* \"#utility.yul\":9063:9072   */\n      dup4\n        /* \"#utility.yul\":9059:9077   */\n      add\n        /* \"#utility.yul\":9050:9056   */\n      dup5\n        /* \"#utility.yul\":9006:9078   */\n      tag_329\n      jump\t// in\n    tag_483:\n        /* \"#utility.yul\":8765:9085   */\n      swap4\n      swap3\n      pop\n      pop\n      pop\n      jump\t// out\n        /* \"#utility.yul\":9091:9420   */\n    tag_45:\n        /* \"#utility.yul\":9150:9156   */\n      0x00\n        /* \"#utility.yul\":9199:9201   */\n      0x20\n        /* \"#utility.yul\":9187:9196   */\n      dup3\n        /* \"#utility.yul\":9178:9185   */\n      dup5\n        /* \"#utility.yul\":9174:9197   */\n      sub\n        /* \"#utility.yul\":9170:9202   */\n      slt\n        /* \"#utility.yul\":9167:9286   */\n      iszero\n      tag_485\n      jumpi\n        /* \"#utility.yul\":9205:9284   */\n      tag_486\n      tag_301\n      jump\t// in\n    tag_486:\n        /* \"#utility.yul\":9167:9286   */\n    tag_485:\n        /* \"#utility.yul\":9325:9326   */\n      0x00\n        /* \"#utility.yul\":9350:9403   */\n      tag_487\n        /* \"#utility.yul\":9395:9402   */\n      dup5\n        /* \"#utility.yul\":9386:9392   */\n      dup3\n        /* \"#utility.yul\":9375:9384   */\n      dup6\n        /* \"#utility.yul\":9371:9393   */\n      add\n        /* \"#utility.yul\":9350:9403   */\n      tag_325\n      jump\t// in\n    tag_487:\n        /* \"#utility.yul\":9340:9403   */\n      swap2\n      pop\n        /* \"#utility.yul\":9296:9413   */\n      pop\n        /* \"#utility.yul\":9091:9420   */\n      swap3\n      swap2\n      pop\n      pop\n      jump\t// out\n        /* \"#utility.yul\":9426:9544   */\n    tag_330:\n        /* \"#utility.yul\":9513:9537   */\n      tag_489\n        /* \"#utility.yul\":9531:9536   */\n      dup2\n        /* \"#utility.yul\":9513:9537   */\n      tag_311\n      jump\t// in\n    tag_489:\n        /* \"#utility.yul\":9508:9511   */\n      dup3\n        /* \"#utility.yul\":9501:9538   */\n      mstore\n        /* \"#utility.yul\":9426:9544   */\n      pop\n      pop\n      jump\t// out\n        /* \"#utility.yul\":9550:9665   */\n    tag_331:\n        /* \"#utility.yul\":9635:9658   */\n      tag_491\n        /* \"#utility.yul\":9652:9657   */\n      dup2\n        /* \"#utility.yul\":9635:9658   */\n      tag_303\n      jump\t// in\n    tag_491:\n        /* \"#utility.yul\":9630:9633   */\n      dup3\n        /* \"#utility.yul\":9623:9659   */\n      mstore\n        /* \"#utility.yul\":9550:9665   */\n      pop\n      pop\n      jump\t// out\n        /* \"#utility.yul\":9671:10529   */\n    tag_48:\n        /* \"#utility.yul\":9918:9922   */\n      0x00\n        /* \"#utility.yul\":9956:9959   */\n      0xe0\n        /* \"#utility.yul\":9945:9954   */\n      dup3\n        /* \"#utility.yul\":9941:9960   */\n      add\n        /* \"#utility.yul\":9933:9960   */\n      swap1\n      pop\n        /* \"#utility.yul\":9970:10041   */\n      tag_493\n        /* \"#utility.yul\":10038:10039   */\n      0x00\n        /* \"#utility.yul\":10027:10036   */\n      dup4\n        /* \"#utility.yul\":10023:10040   */\n      add\n        /* \"#utility.yul\":10014:10020   */\n      dup11\n        /* \"#utility.yul\":9970:10041   */\n      tag_330\n      jump\t// in\n    tag_493:\n        /* \"#utility.yul\":10051:10121   */\n      tag_494\n        /* \"#utility.yul\":10117:10119   */\n      0x20\n        /* \"#utility.yul\":10106:10115   */\n      dup4\n        /* \"#utility.yul\":10102:10120   */\n      add\n        /* \"#utility.yul\":10093:10099   */\n      dup10\n        /* \"#utility.yul\":10051:10121   */\n      tag_331\n      jump\t// in\n    tag_494:\n        /* \"#utility.yul\":10131:10203   */\n      tag_495\n        /* \"#utility.yul\":10199:10201   */\n      0x40\n        /* \"#utility.yul\":10188:10197   */\n      dup4\n        /* \"#utility.yul\":10184:10202   */\n      add\n        /* \"#utility.yul\":10175:10181   */\n      dup9\n        /* \"#utility.yul\":10131:10203   */\n      tag_329\n      jump\t// in\n    tag_495:\n        /* \"#utility.yul\":10213:10285   */\n      tag_496\n        /* \"#utility.yul\":10281:10283   */\n      0x60\n        /* \"#utility.yul\":10270:10279   */\n      dup4\n        /* \"#utility.yul\":10266:10284   */\n      add\n        /* \"#utility.yul\":10257:10263   */\n      dup8\n        /* \"#utility.yul\":10213:10285   */\n      tag_329\n      jump\t// in\n    tag_496:\n        /* \"#utility.yul\":10295:10368   */\n      tag_497\n        /* \"#utility.yul\":10363:10366   */\n      0x80\n        /* \"#utility.yul\":10352:10361   */\n      dup4\n        /* \"#utility.yul\":10348:10367   */\n      add\n        /* \"#utility.yul\":10339:10345   */\n      dup7\n        /* \"#utility.yul\":10295:10368   */\n      tag_329\n      jump\t// in\n    tag_497:\n        /* \"#utility.yul\":10378:10445   */\n      tag_498\n        /* \"#utility.yul\":10440:10443   */\n      0xa0\n        /* \"#utility.yul\":10429:10438   */\n      dup4\n        /* \"#utility.yul\":10425:10444   */\n      add\n        /* \"#utility.yul\":10416:10422   */\n      dup6\n        /* \"#utility.yul\":10378:10445   */\n      tag_328\n      jump\t// in\n    tag_498:\n        /* \"#utility.yul\":10455:10522   */\n      tag_499\n        /* \"#utility.yul\":10517:10520   */\n      0xc0\n        /* \"#utility.yul\":10506:10515   */\n      dup4\n        /* \"#utility.yul\":10502:10521   */\n      add\n        /* \"#utility.yul\":10493:10499   */\n      dup5\n        /* \"#utility.yul\":10455:10522   */\n      tag_328\n      jump\t// in\n    tag_499:\n        /* \"#utility.yul\":9671:10529   */\n      swap9\n      swap8\n      pop\n      pop\n      pop\n      pop\n      pop\n      pop\n      pop\n      pop\n      jump\t// out\n        /* \"#utility.yul\":10535:10651   */\n    tag_332:\n        /* \"#utility.yul\":10605:10626   */\n      tag_501\n        /* \"#utility.yul\":10620:10625   */\n      dup2\n        /* \"#utility.yul\":10605:10626   */\n      tag_327\n      jump\t// in\n    tag_501:\n        /* \"#utility.yul\":10598:10603   */\n      dup2\n        /* \"#utility.yul\":10595:10627   */\n      eq\n        /* \"#utility.yul\":10585:10645   */\n      tag_502\n      jumpi\n        /* \"#utility.yul\":10641:10642   */\n      0x00\n        /* \"#utility.yul\":10638:10639   */\n      dup1\n        /* \"#utility.yul\":10631:10643   */\n      revert\n        /* \"#utility.yul\":10585:10645   */\n    tag_502:\n        /* \"#utility.yul\":10535:10651   */\n      pop\n      jump\t// out\n        /* \"#utility.yul\":10657:10790   */\n    tag_333:\n        /* \"#utility.yul\":10700:10705   */\n      0x00\n        /* \"#utility.yul\":10738:10744   */\n      dup2\n        /* \"#utility.yul\":10725:10745   */\n      calldataload\n        /* \"#utility.yul\":10716:10745   */\n      swap1\n      pop\n        /* \"#utility.yul\":10754:10784   */\n      tag_504\n        /* \"#utility.yul\":10778:10783   */\n      dup2\n        /* \"#utility.yul\":10754:10784   */\n      tag_332\n      jump\t// in\n    tag_504:\n        /* \"#utility.yul\":10657:10790   */\n      swap3\n      swap2\n      pop\n      pop\n      jump\t// out\n        /* \"#utility.yul\":10796:12159   */\n    tag_52:\n        /* \"#utility.yul\":10941:10947   */\n      0x00\n        /* \"#utility.yul\":10949:10955   */\n      dup1\n        /* \"#utility.yul\":10957:10963   */\n      0x00\n        /* \"#utility.yul\":10965:10971   */\n      dup1\n        /* \"#utility.yul\":10973:10979   */\n      0x00\n        /* \"#utility.yul\":10981:10987   */\n      dup1\n        /* \"#utility.yul\":10989:10995   */\n      0x00\n        /* \"#utility.yul\":11038:11041   */\n      0xa0\n        /* \"#utility.yul\":11026:11035   */\n      dup9\n        /* \"#utility.yul\":11017:11024   */\n      dup11\n        /* \"#utility.yul\":11013:11036   */\n      sub\n        /* \"#utility.yul\":11009:11042   */\n      slt\n        /* \"#utility.yul\":11006:11126   */\n      iszero\n      tag_506\n      jumpi\n        /* \"#utility.yul\":11045:11124   */\n      tag_507\n      tag_301\n      jump\t// in\n    tag_507:\n        /* \"#utility.yul\":11006:11126   */\n    tag_506:\n        /* \"#utility.yul\":11165:11166   */\n      0x00\n        /* \"#utility.yul\":11190:11242   */\n      tag_508\n        /* \"#utility.yul\":11234:11241   */\n      dup11\n        /* \"#utility.yul\":11225:11231   */\n      dup3\n        /* \"#utility.yul\":11214:11223   */\n      dup12\n        /* \"#utility.yul\":11210:11232   */\n      add\n        /* \"#utility.yul\":11190:11242   */\n      tag_305\n      jump\t// in\n    tag_508:\n        /* \"#utility.yul\":11180:11242   */\n      swap8\n      pop\n        /* \"#utility.yul\":11136:11252   */\n      pop\n        /* \"#utility.yul\":11319:11321   */\n      0x20\n        /* \"#utility.yul\":11308:11317   */\n      dup9\n        /* \"#utility.yul\":11304:11322   */\n      add\n        /* \"#utility.yul\":11291:11323   */\n      calldataload\n        /* \"#utility.yul\":11350:11368   */\n      0xffffffffffffffff\n        /* \"#utility.yul\":11342:11348   */\n      dup2\n        /* \"#utility.yul\":11339:11369   */\n      gt\n        /* \"#utility.yul\":11336:11453   */\n      iszero\n      tag_509\n      jumpi\n        /* \"#utility.yul\":11372:11451   */\n      tag_510\n      tag_302\n      jump\t// in\n    tag_510:\n        /* \"#utility.yul\":11336:11453   */\n    tag_509:\n        /* \"#utility.yul\":11485:11565   */\n      tag_511\n        /* \"#utility.yul\":11557:11564   */\n      dup11\n        /* \"#utility.yul\":11548:11554   */\n      dup3\n        /* \"#utility.yul\":11537:11546   */\n      dup12\n        /* \"#utility.yul\":11533:11555   */\n      add\n        /* \"#utility.yul\":11485:11565   */\n      tag_326\n      jump\t// in\n    tag_511:\n        /* \"#utility.yul\":11467:11565   */\n      swap7\n      pop\n      swap7\n      pop\n        /* \"#utility.yul\":11262:11575   */\n      pop\n        /* \"#utility.yul\":11642:11644   */\n      0x40\n        /* \"#utility.yul\":11631:11640   */\n      dup9\n        /* \"#utility.yul\":11627:11645   */\n      add\n        /* \"#utility.yul\":11614:11646   */\n      calldataload\n        /* \"#utility.yul\":11673:11691   */\n      0xffffffffffffffff\n        /* \"#utility.yul\":11665:11671   */\n      dup2\n        /* \"#utility.yul\":11662:11692   */\n      gt\n        /* \"#utility.yul\":11659:11776   */\n      iszero\n      tag_512\n      jumpi\n        /* \"#utility.yul\":11695:11774   */\n      tag_513\n      tag_302\n      jump\t// in\n    tag_513:\n        /* \"#utility.yul\":11659:11776   */\n    tag_512:\n        /* \"#utility.yul\":11808:11888   */\n      tag_514\n        /* \"#utility.yul\":11880:11887   */\n      dup11\n        /* \"#utility.yul\":11871:11877   */\n      dup3\n        /* \"#utility.yul\":11860:11869   */\n      dup12\n        /* \"#utility.yul\":11856:11878   */\n      add\n        /* \"#utility.yul\":11808:11888   */\n      tag_326\n      jump\t// in\n    tag_514:\n        /* \"#utility.yul\":11790:11888   */\n      swap5\n      pop\n      swap5\n      pop\n        /* \"#utility.yul\":11585:11898   */\n      pop\n        /* \"#utility.yul\":11937:11939   */\n      0x60\n        /* \"#utility.yul\":11963:12016   */\n      tag_515\n        /* \"#utility.yul\":12008:12015   */\n      dup11\n        /* \"#utility.yul\":11999:12005   */\n      dup3\n        /* \"#utility.yul\":11988:11997   */\n      dup12\n        /* \"#utility.yul\":11984:12006   */\n      add\n        /* \"#utility.yul\":11963:12016   */\n      tag_325\n      jump\t// in\n    tag_515:\n        /* \"#utility.yul\":11953:12016   */\n      swap3\n      pop\n        /* \"#utility.yul\":11908:12026   */\n      pop\n        /* \"#utility.yul\":12065:12068   */\n      0x80\n        /* \"#utility.yul\":12092:12142   */\n      tag_516\n        /* \"#utility.yul\":12134:12141   */\n      dup11\n        /* \"#utility.yul\":12125:12131   */\n      dup3\n        /* \"#utility.yul\":12114:12123   */\n      dup12\n        /* \"#utility.yul\":12110:12132   */\n      add\n        /* \"#utility.yul\":12092:12142   */\n      tag_333\n      jump\t// in\n    tag_516:\n        /* \"#utility.yul\":12082:12142   */\n      swap2\n      pop\n        /* \"#utility.yul\":12036:12152   */\n      pop\n        /* \"#utility.yul\":10796:12159   */\n      swap3\n      swap6\n      swap9\n      swap2\n      swap5\n      swap8\n      pop\n      swap3\n      swap6\n      pop\n      jump\t// out\n        /* \"#utility.yul\":12165:12334   */\n    tag_334:\n        /* \"#utility.yul\":12249:12260   */\n      0x00\n        /* \"#utility.yul\":12283:12289   */\n      dup3\n        /* \"#utility.yul\":12278:12281   */\n      dup3\n        /* \"#utility.yul\":12271:12290   */\n      mstore\n        /* \"#utility.yul\":12323:12327   */\n      0x20\n        /* \"#utility.yul\":12318:12321   */\n      dup3\n        /* \"#utility.yul\":12314:12328   */\n      add\n        /* \"#utility.yul\":12299:12328   */\n      swap1\n      pop\n        /* \"#utility.yul\":12165:12334   */\n      swap3\n      swap2\n      pop\n      pop\n      jump\t// out\n        /* \"#utility.yul\":12340:12522   */\n    tag_335:\n        /* \"#utility.yul\":12480:12514   */\n      0x566f74652077697468207468697320494420616c726561647920657869737473\n        /* \"#utility.yul\":12476:12477   */\n      0x00\n        /* \"#utility.yul\":12468:12474   */\n      dup3\n        /* \"#utility.yul\":12464:12478   */\n      add\n        /* \"#utility.yul\":12457:12515   */\n      mstore\n        /* \"#utility.yul\":12340:12522   */\n      pop\n      jump\t// out\n        /* \"#utility.yul\":12528:12894   */\n    tag_336:\n        /* \"#utility.yul\":12670:12673   */\n      0x00\n        /* \"#utility.yul\":12691:12758   */\n      tag_520\n        /* \"#utility.yul\":12755:12757   */\n      0x20\n        /* \"#utility.yul\":12750:12753   */\n      dup4\n        /* \"#utility.yul\":12691:12758   */\n      tag_334\n      jump\t// in\n    tag_520:\n        /* \"#utility.yul\":12684:12758   */\n      swap2\n      pop\n        /* \"#utility.yul\":12767:12860   */\n      tag_521\n        /* \"#utility.yul\":12856:12859   */\n      dup3\n        /* \"#utility.yul\":12767:12860   */\n      tag_335\n      jump\t// in\n    tag_521:\n        /* \"#utility.yul\":12885:12887   */\n      0x20\n        /* \"#utility.yul\":12880:12883   */\n      dup3\n        /* \"#utility.yul\":12876:12888   */\n      add\n        /* \"#utility.yul\":12869:12888   */\n      swap1\n      pop\n        /* \"#utility.yul\":12528:12894   */\n      swap2\n      swap1\n      pop\n      jump\t// out\n        /* \"#utility.yul\":12900:13319   */\n    tag_61:\n        /* \"#utility.yul\":13066:13070   */\n      0x00\n        /* \"#utility.yul\":13104:13106   */\n      0x20\n        /* \"#utility.yul\":13093:13102   */\n      dup3\n        /* \"#utility.yul\":13089:13107   */\n      add\n        /* \"#utility.yul\":13081:13107   */\n      swap1\n      pop\n        /* \"#utility.yul\":13153:13162   */\n      dup2\n        /* \"#utility.yul\":13147:13151   */\n      dup2\n        /* \"#utility.yul\":13143:13163   */\n      sub\n        /* \"#utility.yul\":13139:13140   */\n      0x00\n        /* \"#utility.yul\":13128:13137   */\n      dup4\n        /* \"#utility.yul\":13124:13141   */\n      add\n        /* \"#utility.yul\":13117:13164   */\n      mstore\n        /* \"#utility.yul\":13181:13312   */\n      tag_523\n        /* \"#utility.yul\":13307:13311   */\n      dup2\n        /* \"#utility.yul\":13181:13312   */\n      tag_336\n      jump\t// in\n    tag_523:\n        /* \"#utility.yul\":13173:13312   */\n      swap1\n      pop\n        /* \"#utility.yul\":12900:13319   */\n      swap2\n      swap1\n      pop\n      jump\t// out\n        /* \"#utility.yul\":13325:13485   */\n    tag_337:\n        /* \"#utility.yul\":13465:13477   */\n      0x496e76616c696420494400000000000000000000000000000000000000000000\n        /* \"#utility.yul\":13461:13462   */\n      0x00\n        /* \"#utility.yul\":13453:13459   */\n      dup3\n        /* \"#utility.yul\":13449:13463   */\n      add\n        /* \"#utility.yul\":13442:13478   */\n      mstore\n        /* \"#utility.yul\":13325:13485   */\n      pop\n      jump\t// out\n        /* \"#utility.yul\":13491:13857   */\n    tag_338:\n        /* \"#utility.yul\":13633:13636   */\n      0x00\n        /* \"#utility.yul\":13654:13721   */\n      tag_526\n        /* \"#utility.yul\":13718:13720   */\n      0x0a\n        /* \"#utility.yul\":13713:13716   */\n      dup4\n        /* \"#utility.yul\":13654:13721   */\n      tag_334\n      jump\t// in\n    tag_526:\n        /* \"#utility.yul\":13647:13721   */\n      swap2\n      pop\n        /* \"#utility.yul\":13730:13823   */\n      tag_527\n        /* \"#utility.yul\":13819:13822   */\n      dup3\n        /* \"#utility.yul\":13730:13823   */\n      tag_337\n      jump\t// in\n    tag_527:\n        /* \"#utility.yul\":13848:13850   */\n      0x20\n        /* \"#utility.yul\":13843:13846   */\n      dup3\n        /* \"#utility.yul\":13839:13851   */\n      add\n        /* \"#utility.yul\":13832:13851   */\n      swap1\n      pop\n        /* \"#utility.yul\":13491:13857   */\n      swap2\n      swap1\n      pop\n      jump\t// out\n        /* \"#utility.yul\":13863:14282   */\n    tag_64:\n        /* \"#utility.yul\":14029:14033   */\n      0x00\n        /* \"#utility.yul\":14067:14069   */\n      0x20\n        /* \"#utility.yul\":14056:14065   */\n      dup3\n        /* \"#utility.yul\":14052:14070   */\n      add\n        /* \"#utility.yul\":14044:14070   */\n      swap1\n      pop\n        /* \"#utility.yul\":14116:14125   */\n      dup2\n        /* \"#utility.yul\":14110:14114   */\n      dup2\n        /* \"#utility.yul\":14106:14126   */\n      sub\n        /* \"#utility.yul\":14102:14103   */\n      0x00\n        /* \"#utility.yul\":14091:14100   */\n      dup4\n        /* \"#utility.yul\":14087:14104   */\n      add\n        /* \"#utility.yul\":14080:14127   */\n      mstore\n        /* \"#utility.yul\":14144:14275   */\n      tag_529\n        /* \"#utility.yul\":14270:14274   */\n      dup2\n        /* \"#utility.yul\":14144:14275   */\n      tag_338\n      jump\t// in\n    tag_529:\n        /* \"#utility.yul\":14136:14275   */\n      swap1\n      pop\n        /* \"#utility.yul\":13863:14282   */\n      swap2\n      swap1\n      pop\n      jump\t// out\n        /* \"#utility.yul\":14288:14468   */\n    tag_69:\n        /* \"#utility.yul\":14336:14413   */\n      0x4e487b7100000000000000000000000000000000000000000000000000000000\n        /* \"#utility.yul\":14333:14334   */\n      0x00\n        /* \"#utility.yul\":14326:14414   */\n      mstore\n        /* \"#utility.yul\":14433:14437   */\n      0x41\n        /* \"#utility.yul\":14430:14431   */\n      0x04\n        /* \"#utility.yul\":14423:14438   */\n      mstore\n        /* \"#utility.yul\":14457:14461   */\n      0x24\n        /* \"#utility.yul\":14454:14455   */\n      0x00\n        /* \"#utility.yul\":14447:14462   */\n      revert\n        /* \"#utility.yul\":14474:14654   */\n    tag_82:\n        /* \"#utility.yul\":14522:14599   */\n      0x4e487b7100000000000000000000000000000000000000000000000000000000\n        /* \"#utility.yul\":14519:14520   */\n      0x00\n        /* \"#utility.yul\":14512:14600   */\n      mstore\n        /* \"#utility.yul\":14619:14623   */\n      0x32\n        /* \"#utility.yul\":14616:14617   */\n      0x04\n        /* \"#utility.yul\":14609:14624   */\n      mstore\n        /* \"#utility.yul\":14643:14647   */\n      0x24\n        /* \"#utility.yul\":14640:14641   */\n      0x00\n        /* \"#utility.yul\":14633:14648   */\n      revert\n        /* \"#utility.yul\":14660:14828   */\n    tag_339:\n        /* \"#utility.yul\":14800:14820   */\n      0x4f6e6c79206f776e657220616c6c6f7765640000000000000000000000000000\n        /* \"#utility.yul\":14796:14797   */\n      0x00\n        /* \"#utility.yul\":14788:14794   */\n      dup3\n        /* \"#utility.yul\":14784:14798   */\n      add\n        /* \"#utility.yul\":14777:14821   */\n      mstore\n        /* \"#utility.yul\":14660:14828   */\n      pop\n      jump\t// out\n        /* \"#utility.yul\":14834:15200   */\n    tag_340:\n        /* \"#utility.yul\":14976:14979   */\n      0x00\n        /* \"#utility.yul\":14997:15064   */\n      tag_534\n        /* \"#utility.yul\":15061:15063   */\n      0x12\n        /* \"#utility.yul\":15056:15059   */\n      dup4\n        /* \"#utility.yul\":14997:15064   */\n      tag_334\n      jump\t// in\n    tag_534:\n        /* \"#utility.yul\":14990:15064   */\n      swap2\n      pop\n        /* \"#utility.yul\":15073:15166   */\n      tag_535\n        /* \"#utility.yul\":15162:15165   */\n      dup3\n        /* \"#utility.yul\":15073:15166   */\n      tag_339\n      jump\t// in\n    tag_535:\n        /* \"#utility.yul\":15191:15193   */\n      0x20\n        /* \"#utility.yul\":15186:15189   */\n      dup3\n        /* \"#utility.yul\":15182:15194   */\n      add\n        /* \"#utility.yul\":15175:15194   */\n      swap1\n      pop\n        /* \"#utility.yul\":14834:15200   */\n      swap2\n      swap1\n      pop\n      jump\t// out\n        /* \"#utility.yul\":15206:15625   */\n    tag_88:\n        /* \"#utility.yul\":15372:15376   */\n      0x00\n        /* \"#utility.yul\":15410:15412   */\n      0x20\n        /* \"#utility.yul\":15399:15408   */\n      dup3\n        /* \"#utility.yul\":15395:15413   */\n      add\n        /* \"#utility.yul\":15387:15413   */\n      swap1\n      pop\n        /* \"#utility.yul\":15459:15468   */\n      dup2\n        /* \"#utility.yul\":15453:15457   */\n      dup2\n        /* \"#utility.yul\":15449:15469   */\n      sub\n        /* \"#utility.yul\":15445:15446   */\n      0x00\n        /* \"#utility.yul\":15434:15443   */\n      dup4\n        /* \"#utility.yul\":15430:15447   */\n      add\n        /* \"#utility.yul\":15423:15470   */\n      mstore\n        /* \"#utility.yul\":15487:15618   */\n      tag_537\n        /* \"#utility.yul\":15613:15617   */\n      dup2\n        /* \"#utility.yul\":15487:15618   */\n      tag_340\n      jump\t// in\n    tag_537:\n        /* \"#utility.yul\":15479:15618   */\n      swap1\n      pop\n        /* \"#utility.yul\":15206:15625   */\n      swap2\n      swap1\n      pop\n      jump\t// out\n        /* \"#utility.yul\":15631:15800   */\n    tag_341:\n        /* \"#utility.yul\":15771:15792   */\n      0x566f746520646f6573206e6f7420657869737400000000000000000000000000\n        /* \"#utility.yul\":15767:15768   */\n      0x00\n        /* \"#utility.yul\":15759:15765   */\n      dup3\n        /* \"#utility.yul\":15755:15769   */\n      add\n        /* \"#utility.yul\":15748:15793   */\n      mstore\n        /* \"#utility.yul\":15631:15800   */\n      pop\n      jump\t// out\n        /* \"#utility.yul\":15806:16172   */\n    tag_342:\n        /* \"#utility.yul\":15948:15951   */\n      0x00\n        /* \"#utility.yul\":15969:16036   */\n      tag_540\n        /* \"#utility.yul\":16033:16035   */\n      0x13\n        /* \"#utility.yul\":16028:16031   */\n      dup4\n        /* \"#utility.yul\":15969:16036   */\n      tag_334\n      jump\t// in\n    tag_540:\n        /* \"#utility.yul\":15962:16036   */\n      swap2\n      pop\n        /* \"#utility.yul\":16045:16138   */\n      tag_541\n        /* \"#utility.yul\":16134:16137   */\n      dup3\n        /* \"#utility.yul\":16045:16138   */\n      tag_341\n      jump\t// in\n    tag_541:\n        /* \"#utility.yul\":16163:16165   */\n      0x20\n        /* \"#utility.yul\":16158:16161   */\n      dup3\n        /* \"#utility.yul\":16154:16166   */\n      add\n        /* \"#utility.yul\":16147:16166   */\n      swap1\n      pop\n        /* \"#utility.yul\":15806:16172   */\n      swap2\n      swap1\n      pop\n      jump\t// out\n        /* \"#utility.yul\":16178:16597   */\n    tag_95:\n        /* \"#utility.yul\":16344:16348   */\n      0x00\n        /* \"#utility.yul\":16382:16384   */\n      0x20\n        /* \"#utility.yul\":16371:16380   */\n      dup3\n        /* \"#utility.yul\":16367:16385   */\n      add\n        /* \"#utility.yul\":16359:16385   */\n      swap1\n      pop\n        /* \"#utility.yul\":16431:16440   */\n      dup2\n        /* \"#utility.yul\":16425:16429   */\n      dup2\n        /* \"#utility.yul\":16421:16441   */\n      sub\n        /* \"#utility.yul\":16417:16418   */\n      0x00\n        /* \"#utility.yul\":16406:16415   */\n      dup4\n        /* \"#utility.yul\":16402:16419   */\n      add\n        /* \"#utility.yul\":16395:16442   */\n      mstore\n        /* \"#utility.yul\":16459:16590   */\n      tag_543\n        /* \"#utility.yul\":16585:16589   */\n      dup2\n        /* \"#utility.yul\":16459:16590   */\n      tag_342\n      jump\t// in\n    tag_543:\n        /* \"#utility.yul\":16451:16590   */\n      swap1\n      pop\n        /* \"#utility.yul\":16178:16597   */\n      swap2\n      swap1\n      pop\n      jump\t// out\n        /* \"#utility.yul\":16603:16770   */\n    tag_343:\n        /* \"#utility.yul\":16743:16762   */\n      0x566f7465206973206e6f74207265616479000000000000000000000000000000\n        /* \"#utility.yul\":16739:16740   */\n      0x00\n        /* \"#utility.yul\":16731:16737   */\n      dup3\n        /* \"#utility.yul\":16727:16741   */\n      add\n        /* \"#utility.yul\":16720:16763   */\n      mstore\n        /* \"#utility.yul\":16603:16770   */\n      pop\n      jump\t// out\n        /* \"#utility.yul\":16776:17142   */\n    tag_344:\n        /* \"#utility.yul\":16918:16921   */\n      0x00\n        /* \"#utility.yul\":16939:17006   */\n      tag_546\n        /* \"#utility.yul\":17003:17005   */\n      0x11\n        /* \"#utility.yul\":16998:17001   */\n      dup4\n        /* \"#utility.yul\":16939:17006   */\n      tag_334\n      jump\t// in\n    tag_546:\n        /* \"#utility.yul\":16932:17006   */\n      swap2\n      pop\n        /* \"#utility.yul\":17015:17108   */\n      tag_547\n        /* \"#utility.yul\":17104:17107   */\n      dup3\n        /* \"#utility.yul\":17015:17108   */\n      tag_343\n      jump\t// in\n    tag_547:\n        /* \"#utility.yul\":17133:17135   */\n      0x20\n        /* \"#utility.yul\":17128:17131   */\n      dup3\n        /* \"#utility.yul\":17124:17136   */\n      add\n        /* \"#utility.yul\":17117:17136   */\n      swap1\n      pop\n        /* \"#utility.yul\":16776:17142   */\n      swap2\n      swap1\n      pop\n      jump\t// out\n        /* \"#utility.yul\":17148:17567   */\n    tag_98:\n        /* \"#utility.yul\":17314:17318   */\n      0x00\n        /* \"#utility.yul\":17352:17354   */\n      0x20\n        /* \"#utility.yul\":17341:17350   */\n      dup3\n        /* \"#utility.yul\":17337:17355   */\n      add\n        /* \"#utility.yul\":17329:17355   */\n      swap1\n      pop\n        /* \"#utility.yul\":17401:17410   */\n      dup2\n        /* \"#utility.yul\":17395:17399   */\n      dup2\n        /* \"#utility.yul\":17391:17411   */\n      sub\n        /* \"#utility.yul\":17387:17388   */\n      0x00\n        /* \"#utility.yul\":17376:17385   */\n      dup4\n        /* \"#utility.yul\":17372:17389   */\n      add\n        /* \"#utility.yul\":17365:17412   */\n      mstore\n        /* \"#utility.yul\":17429:17560   */\n      tag_549\n        /* \"#utility.yul\":17555:17559   */\n      dup2\n        /* \"#utility.yul\":17429:17560   */\n      tag_344\n      jump\t// in\n    tag_549:\n        /* \"#utility.yul\":17421:17560   */\n      swap1\n      pop\n        /* \"#utility.yul\":17148:17567   */\n      swap2\n      swap1\n      pop\n      jump\t// out\n        /* \"#utility.yul\":17573:17753   */\n    tag_345:\n        /* \"#utility.yul\":17621:17698   */\n      0x4e487b7100000000000000000000000000000000000000000000000000000000\n        /* \"#utility.yul\":17618:17619   */\n      0x00\n        /* \"#utility.yul\":17611:17699   */\n      mstore\n        /* \"#utility.yul\":17718:17722   */\n      0x11\n        /* \"#utility.yul\":17715:17716   */\n      0x04\n        /* \"#utility.yul\":17708:17723   */\n      mstore\n        /* \"#utility.yul\":17742:17746   */\n      0x24\n        /* \"#utility.yul\":17739:17740   */\n      0x00\n        /* \"#utility.yul\":17732:17747   */\n      revert\n        /* \"#utility.yul\":17759:17926   */\n    tag_118:\n        /* \"#utility.yul\":17796:17799   */\n      0x00\n        /* \"#utility.yul\":17819:17841   */\n      tag_552\n        /* \"#utility.yul\":17835:17840   */\n      dup3\n        /* \"#utility.yul\":17819:17841   */\n      tag_321\n      jump\t// in\n    tag_552:\n        /* \"#utility.yul\":17810:17841   */\n      swap2\n      pop\n        /* \"#utility.yul\":17863:17867   */\n      0xff\n        /* \"#utility.yul\":17856:17861   */\n      dup3\n        /* \"#utility.yul\":17853:17868   */\n      sub\n        /* \"#utility.yul\":17850:17891   */\n      tag_553\n      jumpi\n        /* \"#utility.yul\":17871:17889   */\n      tag_554\n      tag_345\n      jump\t// in\n    tag_554:\n        /* \"#utility.yul\":17850:17891   */\n    tag_553:\n        /* \"#utility.yul\":17918:17919   */\n      0x01\n        /* \"#utility.yul\":17911:17916   */\n      dup3\n        /* \"#utility.yul\":17907:17920   */\n      add\n        /* \"#utility.yul\":17900:17920   */\n      swap1\n      pop\n        /* \"#utility.yul\":17759:17926   */\n      swap2\n      swap1\n      pop\n      jump\t// out\n        /* \"#utility.yul\":17932:18107   */\n    tag_346:\n        /* \"#utility.yul\":18072:18099   */\n      0x566f746520697320616c726561647920636f6d706c6574656400000000000000\n        /* \"#utility.yul\":18068:18069   */\n      0x00\n        /* \"#utility.yul\":18060:18066   */\n      dup3\n        /* \"#utility.yul\":18056:18070   */\n      add\n        /* \"#utility.yul\":18049:18100   */\n      mstore\n        /* \"#utility.yul\":17932:18107   */\n      pop\n      jump\t// out\n        /* \"#utility.yul\":18113:18479   */\n    tag_347:\n        /* \"#utility.yul\":18255:18258   */\n      0x00\n        /* \"#utility.yul\":18276:18343   */\n      tag_557\n        /* \"#utility.yul\":18340:18342   */\n      0x19\n        /* \"#utility.yul\":18335:18338   */\n      dup4\n        /* \"#utility.yul\":18276:18343   */\n      tag_334\n      jump\t// in\n    tag_557:\n        /* \"#utility.yul\":18269:18343   */\n      swap2\n      pop\n        /* \"#utility.yul\":18352:18445   */\n      tag_558\n        /* \"#utility.yul\":18441:18444   */\n      dup3\n        /* \"#utility.yul\":18352:18445   */\n      tag_346\n      jump\t// in\n    tag_558:\n        /* \"#utility.yul\":18470:18472   */\n      0x20\n        /* \"#utility.yul\":18465:18468   */\n      dup3\n        /* \"#utility.yul\":18461:18473   */\n      add\n        /* \"#utility.yul\":18454:18473   */\n      swap1\n      pop\n        /* \"#utility.yul\":18113:18479   */\n      swap2\n      swap1\n      pop\n      jump\t// out\n        /* \"#utility.yul\":18485:18904   */\n    tag_133:\n        /* \"#utility.yul\":18651:18655   */\n      0x00\n        /* \"#utility.yul\":18689:18691   */\n      0x20\n        /* \"#utility.yul\":18678:18687   */\n      dup3\n        /* \"#utility.yul\":18674:18692   */\n      add\n        /* \"#utility.yul\":18666:18692   */\n      swap1\n      pop\n        /* \"#utility.yul\":18738:18747   */\n      dup2\n        /* \"#utility.yul\":18732:18736   */\n      dup2\n        /* \"#utility.yul\":18728:18748   */\n      sub\n        /* \"#utility.yul\":18724:18725   */\n      0x00\n        /* \"#utility.yul\":18713:18722   */\n      dup4\n        /* \"#utility.yul\":18709:18726   */\n      add\n        /* \"#utility.yul\":18702:18749   */\n      mstore\n        /* \"#utility.yul\":18766:18897   */\n      tag_560\n        /* \"#utility.yul\":18892:18896   */\n      dup2\n        /* \"#utility.yul\":18766:18897   */\n      tag_347\n      jump\t// in\n    tag_560:\n        /* \"#utility.yul\":18758:18897   */\n      swap1\n      pop\n        /* \"#utility.yul\":18485:18904   */\n      swap2\n      swap1\n      pop\n      jump\t// out\n        /* \"#utility.yul\":18910:19084   */\n    tag_348:\n        /* \"#utility.yul\":19050:19076   */\n      0x496e76616c6964207369676e6174757265206c656e6774680000000000000000\n        /* \"#utility.yul\":19046:19047   */\n      0x00\n        /* \"#utility.yul\":19038:19044   */\n      dup3\n        /* \"#utility.yul\":19034:19048   */\n      add\n        /* \"#utility.yul\":19027:19077   */\n      mstore\n        /* \"#utility.yul\":18910:19084   */\n      pop\n      jump\t// out\n        /* \"#utility.yul\":19090:19456   */\n    tag_349:\n        /* \"#utility.yul\":19232:19235   */\n      0x00\n        /* \"#utility.yul\":19253:19320   */\n      tag_563\n        /* \"#utility.yul\":19317:19319   */\n      0x18\n        /* \"#utility.yul\":19312:19315   */\n      dup4\n        /* \"#utility.yul\":19253:19320   */\n      tag_334\n      jump\t// in\n    tag_563:\n        /* \"#utility.yul\":19246:19320   */\n      swap2\n      pop\n        /* \"#utility.yul\":19329:19422   */\n      tag_564\n        /* \"#utility.yul\":19418:19421   */\n      dup3\n        /* \"#utility.yul\":19329:19422   */\n      tag_348\n      jump\t// in\n    tag_564:\n        /* \"#utility.yul\":19447:19449   */\n      0x20\n        /* \"#utility.yul\":19442:19445   */\n      dup3\n        /* \"#utility.yul\":19438:19450   */\n      add\n        /* \"#utility.yul\":19431:19450   */\n      swap1\n      pop\n        /* \"#utility.yul\":19090:19456   */\n      swap2\n      swap1\n      pop\n      jump\t// out\n        /* \"#utility.yul\":19462:19881   */\n    tag_136:\n        /* \"#utility.yul\":19628:19632   */\n      0x00\n        /* \"#utility.yul\":19666:19668   */\n      0x20\n        /* \"#utility.yul\":19655:19664   */\n      dup3\n        /* \"#utility.yul\":19651:19669   */\n      add\n        /* \"#utility.yul\":19643:19669   */\n      swap1\n      pop\n        /* \"#utility.yul\":19715:19724   */\n      dup2\n        /* \"#utility.yul\":19709:19713   */\n      dup2\n        /* \"#utility.yul\":19705:19725   */\n      sub\n        /* \"#utility.yul\":19701:19702   */\n      0x00\n        /* \"#utility.yul\":19690:19699   */\n      dup4\n        /* \"#utility.yul\":19686:19703   */\n      add\n        /* \"#utility.yul\":19679:19726   */\n      mstore\n        /* \"#utility.yul\":19743:19874   */\n      tag_566\n        /* \"#utility.yul\":19869:19873   */\n      dup2\n        /* \"#utility.yul\":19743:19874   */\n      tag_349\n      jump\t// in\n    tag_566:\n        /* \"#utility.yul\":19735:19874   */\n      swap1\n      pop\n        /* \"#utility.yul\":19462:19881   */\n      swap2\n      swap1\n      pop\n      jump\t// out\n        /* \"#utility.yul\":19887:20054   */\n    tag_350:\n        /* \"#utility.yul\":20027:20046   */\n      0x496e76616c69642063616e646964617465000000000000000000000000000000\n        /* \"#utility.yul\":20023:20024   */\n      0x00\n        /* \"#utility.yul\":20015:20021   */\n      dup3\n        /* \"#utility.yul\":20011:20025   */\n      add\n        /* \"#utility.yul\":20004:20047   */\n      mstore\n        /* \"#utility.yul\":19887:20054   */\n      pop\n      jump\t// out\n        /* \"#utility.yul\":20060:20426   */\n    tag_351:\n        /* \"#utility.yul\":20202:20205   */\n      0x00\n        /* \"#utility.yul\":20223:20290   */\n      tag_569\n        /* \"#utility.yul\":20287:20289   */\n      0x11\n        /* \"#utility.yul\":20282:20285   */\n      dup4\n        /* \"#utility.yul\":20223:20290   */\n      tag_334\n      jump\t// in\n    tag_569:\n        /* \"#utility.yul\":20216:20290   */\n      swap2\n      pop\n        /* \"#utility.yul\":20299:20392   */\n      tag_570\n        /* \"#utility.yul\":20388:20391   */\n      dup3\n        /* \"#utility.yul\":20299:20392   */\n      tag_350\n      jump\t// in\n    tag_570:\n        /* \"#utility.yul\":20417:20419   */\n      0x20\n        /* \"#utility.yul\":20412:20415   */\n      dup3\n        /* \"#utility.yul\":20408:20420   */\n      add\n        /* \"#utility.yul\":20401:20420   */\n      swap1\n      pop\n        /* \"#utility.yul\":20060:20426   */\n      swap2\n      swap1\n      pop\n      jump\t// out\n        /* \"#utility.yul\":20432:20851   */\n    tag_139:\n        /* \"#utility.yul\":20598:20602   */\n      0x00\n        /* \"#utility.yul\":20636:20638   */\n      0x20\n        /* \"#utility.yul\":20625:20634   */\n      dup3\n        /* \"#utility.yul\":20621:20639   */\n      add\n        /* \"#utility.yul\":20613:20639   */\n      swap1\n      pop\n        /* \"#utility.yul\":20685:20694   */\n      dup2\n        /* \"#utility.yul\":20679:20683   */\n      dup2\n        /* \"#utility.yul\":20675:20695   */\n      sub\n        /* \"#utility.yul\":20671:20672   */\n      0x00\n        /* \"#utility.yul\":20660:20669   */\n      dup4\n        /* \"#utility.yul\":20656:20673   */\n      add\n        /* \"#utility.yul\":20649:20696   */\n      mstore\n        /* \"#utility.yul\":20713:20844   */\n      tag_572\n        /* \"#utility.yul\":20839:20843   */\n      dup2\n        /* \"#utility.yul\":20713:20844   */\n      tag_351\n      jump\t// in\n    tag_572:\n        /* \"#utility.yul\":20705:20844   */\n      swap1\n      pop\n        /* \"#utility.yul\":20432:20851   */\n      swap2\n      swap1\n      pop\n      jump\t// out\n        /* \"#utility.yul\":20857:21024   */\n    tag_352:\n        /* \"#utility.yul\":20997:21016   */\n      0x566f746520616c72656164792063617374000000000000000000000000000000\n        /* \"#utility.yul\":20993:20994   */\n      0x00\n        /* \"#utility.yul\":20985:20991   */\n      dup3\n        /* \"#utility.yul\":20981:20995   */\n      add\n        /* \"#utility.yul\":20974:21017   */\n      mstore\n        /* \"#utility.yul\":20857:21024   */\n      pop\n      jump\t// out\n        /* \"#utility.yul\":21030:21396   */\n    tag_353:\n        /* \"#utility.yul\":21172:21175   */\n      0x00\n        /* \"#utility.yul\":21193:21260   */\n      tag_575\n        /* \"#utility.yul\":21257:21259   */\n      0x11\n        /* \"#utility.yul\":21252:21255   */\n      dup4\n        /* \"#utility.yul\":21193:21260   */\n      tag_334\n      jump\t// in\n    tag_575:\n        /* \"#utility.yul\":21186:21260   */\n      swap2\n      pop\n        /* \"#utility.yul\":21269:21362   */\n      tag_576\n        /* \"#utility.yul\":21358:21361   */\n      dup3\n        /* \"#utility.yul\":21269:21362   */\n      tag_352\n      jump\t// in\n    tag_576:\n        /* \"#utility.yul\":21387:21389   */\n      0x20\n        /* \"#utility.yul\":21382:21385   */\n      dup3\n        /* \"#utility.yul\":21378:21390   */\n      add\n        /* \"#utility.yul\":21371:21390   */\n      swap1\n      pop\n        /* \"#utility.yul\":21030:21396   */\n      swap2\n      swap1\n      pop\n      jump\t// out\n        /* \"#utility.yul\":21402:21821   */\n    tag_142:\n        /* \"#utility.yul\":21568:21572   */\n      0x00\n        /* \"#utility.yul\":21606:21608   */\n      0x20\n        /* \"#utility.yul\":21595:21604   */\n      dup3\n        /* \"#utility.yul\":21591:21609   */\n      add\n        /* \"#utility.yul\":21583:21609   */\n      swap1\n      pop\n        /* \"#utility.yul\":21655:21664   */\n      dup2\n        /* \"#utility.yul\":21649:21653   */\n      dup2\n        /* \"#utility.yul\":21645:21665   */\n      sub\n        /* \"#utility.yul\":21641:21642   */\n      0x00\n        /* \"#utility.yul\":21630:21639   */\n      dup4\n        /* \"#utility.yul\":21626:21643   */\n      add\n        /* \"#utility.yul\":21619:21666   */\n      mstore\n        /* \"#utility.yul\":21683:21814   */\n      tag_578\n        /* \"#utility.yul\":21809:21813   */\n      dup2\n        /* \"#utility.yul\":21683:21814   */\n      tag_353\n      jump\t// in\n    tag_578:\n        /* \"#utility.yul\":21675:21814   */\n      swap1\n      pop\n        /* \"#utility.yul\":21402:21821   */\n      swap2\n      swap1\n      pop\n      jump\t// out\n        /* \"#utility.yul\":21827:21994   */\n    tag_354:\n        /* \"#utility.yul\":21967:21986   */\n      0x496e76616c6964207369676e6174757265000000000000000000000000000000\n        /* \"#utility.yul\":21963:21964   */\n      0x00\n        /* \"#utility.yul\":21955:21961   */\n      dup3\n        /* \"#utility.yul\":21951:21965   */\n      add\n        /* \"#utility.yul\":21944:21987   */\n      mstore\n        /* \"#utility.yul\":21827:21994   */\n      pop\n      jump\t// out\n        /* \"#utility.yul\":22000:22366   */\n    tag_355:\n        /* \"#utility.yul\":22142:22145   */\n      0x00\n        /* \"#utility.yul\":22163:22230   */\n      tag_581\n        /* \"#utility.yul\":22227:22229   */\n      0x11\n        /* \"#utility.yul\":22222:22225   */\n      dup4\n        /* \"#utility.yul\":22163:22230   */\n      tag_334\n      jump\t// in\n    tag_581:\n        /* \"#utility.yul\":22156:22230   */\n      swap2\n      pop\n        /* \"#utility.yul\":22239:22332   */\n      tag_582\n        /* \"#utility.yul\":22328:22331   */\n      dup3\n        /* \"#utility.yul\":22239:22332   */\n      tag_354\n      jump\t// in\n    tag_582:\n        /* \"#utility.yul\":22357:22359   */\n      0x20\n        /* \"#utility.yul\":22352:22355   */\n      dup3\n        /* \"#utility.yul\":22348:22360   */\n      add\n        /* \"#utility.yul\":22341:22360   */\n      swap1\n      pop\n        /* \"#utility.yul\":22000:22366   */\n      swap2\n      swap1\n      pop\n      jump\t// out\n        /* \"#utility.yul\":22372:22791   */\n    tag_147:\n        /* \"#utility.yul\":22538:22542   */\n      0x00\n        /* \"#utility.yul\":22576:22578   */\n      0x20\n        /* \"#utility.yul\":22565:22574   */\n      dup3\n        /* \"#utility.yul\":22561:22579   */\n      add\n        /* \"#utility.yul\":22553:22579   */\n      swap1\n      pop\n        /* \"#utility.yul\":22625:22634   */\n      dup2\n        /* \"#utility.yul\":22619:22623   */\n      dup2\n        /* \"#utility.yul\":22615:22635   */\n      sub\n        /* \"#utility.yul\":22611:22612   */\n      0x00\n        /* \"#utility.yul\":22600:22609   */\n      dup4\n        /* \"#utility.yul\":22596:22613   */\n      add\n        /* \"#utility.yul\":22589:22636   */\n      mstore\n        /* \"#utility.yul\":22653:22784   */\n      tag_584\n        /* \"#utility.yul\":22779:22783   */\n      dup2\n        /* \"#utility.yul\":22653:22784   */\n      tag_355\n      jump\t// in\n    tag_584:\n        /* \"#utility.yul\":22645:22784   */\n      swap1\n      pop\n        /* \"#utility.yul\":22372:22791   */\n      swap2\n      swap1\n      pop\n      jump\t// out\n        /* \"#utility.yul\":22797:22988   */\n    tag_149:\n        /* \"#utility.yul\":22837:22840   */\n      0x00\n        /* \"#utility.yul\":22856:22876   */\n      tag_586\n        /* \"#utility.yul\":22874:22875   */\n      dup3\n        /* \"#utility.yul\":22856:22876   */\n      tag_323\n      jump\t// in\n    tag_586:\n        /* \"#utility.yul\":22851:22876   */\n      swap2\n      pop\n        /* \"#utility.yul\":22890:22910   */\n      tag_587\n        /* \"#utility.yul\":22908:22909   */\n      dup4\n        /* \"#utility.yul\":22890:22910   */\n      tag_323\n      jump\t// in\n    tag_587:\n        /* \"#utility.yul\":22885:22910   */\n      swap3\n      pop\n        /* \"#utility.yul\":22933:22934   */\n      dup3\n        /* \"#utility.yul\":22930:22931   */\n      dup3\n        /* \"#utility.yul\":22926:22935   */\n      add\n        /* \"#utility.yul\":22919:22935   */\n      swap1\n      pop\n        /* \"#utility.yul\":22954:22957   */\n      dup1\n        /* \"#utility.yul\":22951:22952   */\n      dup3\n        /* \"#utility.yul\":22948:22958   */\n      gt\n        /* \"#utility.yul\":22945:22981   */\n      iszero\n      tag_588\n      jumpi\n        /* \"#utility.yul\":22961:22979   */\n      tag_589\n      tag_345\n      jump\t// in\n    tag_589:\n        /* \"#utility.yul\":22945:22981   */\n    tag_588:\n        /* \"#utility.yul\":22797:22988   */\n      swap3\n      swap2\n      pop\n      pop\n      jump\t// out\n        /* \"#utility.yul\":22994:23163   */\n    tag_356:\n        /* \"#utility.yul\":23134:23155   */\n      0x43616e646964617465206e6f7420666f756e6400000000000000000000000000\n        /* \"#utility.yul\":23130:23131   */\n      0x00\n        /* \"#utility.yul\":23122:23128   */\n      dup3\n        /* \"#utility.yul\":23118:23132   */\n      add\n        /* \"#utility.yul\":23111:23156   */\n      mstore\n        /* \"#utility.yul\":22994:23163   */\n      pop\n      jump\t// out\n        /* \"#utility.yul\":23169:23535   */\n    tag_357:\n        /* \"#utility.yul\":23311:23314   */\n      0x00\n        /* \"#utility.yul\":23332:23399   */\n      tag_592\n        /* \"#utility.yul\":23396:23398   */\n      0x13\n        /* \"#utility.yul\":23391:23394   */\n      dup4\n        /* \"#utility.yul\":23332:23399   */\n      tag_334\n      jump\t// in\n    tag_592:\n        /* \"#utility.yul\":23325:23399   */\n      swap2\n      pop\n        /* \"#utility.yul\":23408:23501   */\n      tag_593\n        /* \"#utility.yul\":23497:23500   */\n      dup3\n        /* \"#utility.yul\":23408:23501   */\n      tag_356\n      jump\t// in\n    tag_593:\n        /* \"#utility.yul\":23526:23528   */\n      0x20\n        /* \"#utility.yul\":23521:23524   */\n      dup3\n        /* \"#utility.yul\":23517:23529   */\n      add\n        /* \"#utility.yul\":23510:23529   */\n      swap1\n      pop\n        /* \"#utility.yul\":23169:23535   */\n      swap2\n      swap1\n      pop\n      jump\t// out\n        /* \"#utility.yul\":23541:23960   */\n    tag_157:\n        /* \"#utility.yul\":23707:23711   */\n      0x00\n        /* \"#utility.yul\":23745:23747   */\n      0x20\n        /* \"#utility.yul\":23734:23743   */\n      dup3\n        /* \"#utility.yul\":23730:23748   */\n      add\n        /* \"#utility.yul\":23722:23748   */\n      swap1\n      pop\n        /* \"#utility.yul\":23794:23803   */\n      dup2\n        /* \"#utility.yul\":23788:23792   */\n      dup2\n        /* \"#utility.yul\":23784:23804   */\n      sub\n        /* \"#utility.yul\":23780:23781   */\n      0x00\n        /* \"#utility.yul\":23769:23778   */\n      dup4\n        /* \"#utility.yul\":23765:23782   */\n      add\n        /* \"#utility.yul\":23758:23805   */\n      mstore\n        /* \"#utility.yul\":23822:23953   */\n      tag_595\n        /* \"#utility.yul\":23948:23952   */\n      dup2\n        /* \"#utility.yul\":23822:23953   */\n      tag_357\n      jump\t// in\n    tag_595:\n        /* \"#utility.yul\":23814:23953   */\n      swap1\n      pop\n        /* \"#utility.yul\":23541:23960   */\n      swap2\n      swap1\n      pop\n      jump\t// out\n        /* \"#utility.yul\":23966:24137   */\n    tag_358:\n        /* \"#utility.yul\":24106:24129   */\n      0x566f746520697320616c72656164792072656164790000000000000000000000\n        /* \"#utility.yul\":24102:24103   */\n      0x00\n        /* \"#utility.yul\":24094:24100   */\n      dup3\n        /* \"#utility.yul\":24090:24104   */\n      add\n        /* \"#utility.yul\":24083:24130   */\n      mstore\n        /* \"#utility.yul\":23966:24137   */\n      pop\n      jump\t// out\n        /* \"#utility.yul\":24143:24509   */\n    tag_359:\n        /* \"#utility.yul\":24285:24288   */\n      0x00\n        /* \"#utility.yul\":24306:24373   */\n      tag_598\n        /* \"#utility.yul\":24370:24372   */\n      0x15\n        /* \"#utility.yul\":24365:24368   */\n      dup4\n        /* \"#utility.yul\":24306:24373   */\n      tag_334\n      jump\t// in\n    tag_598:\n        /* \"#utility.yul\":24299:24373   */\n      swap2\n      pop\n        /* \"#utility.yul\":24382:24475   */\n      tag_599\n        /* \"#utility.yul\":24471:24474   */\n      dup3\n        /* \"#utility.yul\":24382:24475   */\n      tag_358\n      jump\t// in\n    tag_599:\n        /* \"#utility.yul\":24500:24502   */\n      0x20\n        /* \"#utility.yul\":24495:24498   */\n      dup3\n        /* \"#utility.yul\":24491:24503   */\n      add\n        /* \"#utility.yul\":24484:24503   */\n      swap1\n      pop\n        /* \"#utility.yul\":24143:24509   */\n      swap2\n      swap1\n      pop\n      jump\t// out\n        /* \"#utility.yul\":24515:24934   */\n    tag_163:\n        /* \"#utility.yul\":24681:24685   */\n      0x00\n        /* \"#utility.yul\":24719:24721   */\n      0x20\n        /* \"#utility.yul\":24708:24717   */\n      dup3\n        /* \"#utility.yul\":24704:24722   */\n      add\n        /* \"#utility.yul\":24696:24722   */\n      swap1\n      pop\n        /* \"#utility.yul\":24768:24777   */\n      dup2\n        /* \"#utility.yul\":24762:24766   */\n      dup2\n        /* \"#utility.yul\":24758:24778   */\n      sub\n        /* \"#utility.yul\":24754:24755   */\n      0x00\n        /* \"#utility.yul\":24743:24752   */\n      dup4\n        /* \"#utility.yul\":24739:24756   */\n      add\n        /* \"#utility.yul\":24732:24779   */\n      mstore\n        /* \"#utility.yul\":24796:24927   */\n      tag_601\n        /* \"#utility.yul\":24922:24926   */\n      dup2\n        /* \"#utility.yul\":24796:24927   */\n      tag_359\n      jump\t// in\n    tag_601:\n        /* \"#utility.yul\":24788:24927   */\n      swap1\n      pop\n        /* \"#utility.yul\":24515:24934   */\n      swap2\n      swap1\n      pop\n      jump\t// out\n        /* \"#utility.yul\":24940:25121   */\n    tag_360:\n        /* \"#utility.yul\":25080:25113   */\n      0x4f6e6c79207468652063726561746f722063616e2061646420766f7465727300\n        /* \"#utility.yul\":25076:25077   */\n      0x00\n        /* \"#utility.yul\":25068:25074   */\n      dup3\n        /* \"#utility.yul\":25064:25078   */\n      add\n        /* \"#utility.yul\":25057:25114   */\n      mstore\n        /* \"#utility.yul\":24940:25121   */\n      pop\n      jump\t// out\n        /* \"#utility.yul\":25127:25493   */\n    tag_361:\n        /* \"#utility.yul\":25269:25272   */\n      0x00\n        /* \"#utility.yul\":25290:25357   */\n      tag_604\n        /* \"#utility.yul\":25354:25356   */\n      0x1f\n        /* \"#utility.yul\":25349:25352   */\n      dup4\n        /* \"#utility.yul\":25290:25357   */\n      tag_334\n      jump\t// in\n    tag_604:\n        /* \"#utility.yul\":25283:25357   */\n      swap2\n      pop\n        /* \"#utility.yul\":25366:25459   */\n      tag_605\n        /* \"#utility.yul\":25455:25458   */\n      dup3\n        /* \"#utility.yul\":25366:25459   */\n      tag_360\n      jump\t// in\n    tag_605:\n        /* \"#utility.yul\":25484:25486   */\n      0x20\n        /* \"#utility.yul\":25479:25482   */\n      dup3\n        /* \"#utility.yul\":25475:25487   */\n      add\n        /* \"#utility.yul\":25468:25487   */\n      swap1\n      pop\n        /* \"#utility.yul\":25127:25493   */\n      swap2\n      swap1\n      pop\n      jump\t// out\n        /* \"#utility.yul\":25499:25918   */\n    tag_166:\n        /* \"#utility.yul\":25665:25669   */\n      0x00\n        /* \"#utility.yul\":25703:25705   */\n      0x20\n        /* \"#utility.yul\":25692:25701   */\n      dup3\n        /* \"#utility.yul\":25688:25706   */\n      add\n        /* \"#utility.yul\":25680:25706   */\n      swap1\n      pop\n        /* \"#utility.yul\":25752:25761   */\n      dup2\n        /* \"#utility.yul\":25746:25750   */\n      dup2\n        /* \"#utility.yul\":25742:25762   */\n      sub\n        /* \"#utility.yul\":25738:25739   */\n      0x00\n        /* \"#utility.yul\":25727:25736   */\n      dup4\n        /* \"#utility.yul\":25723:25740   */\n      add\n        /* \"#utility.yul\":25716:25763   */\n      mstore\n        /* \"#utility.yul\":25780:25911   */\n      tag_607\n        /* \"#utility.yul\":25906:25910   */\n      dup2\n        /* \"#utility.yul\":25780:25911   */\n      tag_361\n      jump\t// in\n    tag_607:\n        /* \"#utility.yul\":25772:25911   */\n      swap1\n      pop\n        /* \"#utility.yul\":25499:25918   */\n      swap2\n      swap1\n      pop\n      jump\t// out\n        /* \"#utility.yul\":25924:26100   */\n    tag_362:\n        /* \"#utility.yul\":26064:26092   */\n      0x496e76616c696420766f7465727320636f6f7264696e61746573000000000000\n        /* \"#utility.yul\":26060:26061   */\n      0x00\n        /* \"#utility.yul\":26052:26058   */\n      dup3\n        /* \"#utility.yul\":26048:26062   */\n      add\n        /* \"#utility.yul\":26041:26093   */\n      mstore\n        /* \"#utility.yul\":25924:26100   */\n      pop\n      jump\t// out\n        /* \"#utility.yul\":26106:26472   */\n    tag_363:\n        /* \"#utility.yul\":26248:26251   */\n      0x00\n        /* \"#utility.yul\":26269:26336   */\n      tag_610\n        /* \"#utility.yul\":26333:26335   */\n      0x1a\n        /* \"#utility.yul\":26328:26331   */\n      dup4\n        /* \"#utility.yul\":26269:26336   */\n      tag_334\n      jump\t// in\n    tag_610:\n        /* \"#utility.yul\":26262:26336   */\n      swap2\n      pop\n        /* \"#utility.yul\":26345:26438   */\n      tag_611\n        /* \"#utility.yul\":26434:26437   */\n      dup3\n        /* \"#utility.yul\":26345:26438   */\n      tag_362\n      jump\t// in\n    tag_611:\n        /* \"#utility.yul\":26463:26465   */\n      0x20\n        /* \"#utility.yul\":26458:26461   */\n      dup3\n        /* \"#utility.yul\":26454:26466   */\n      add\n        /* \"#utility.yul\":26447:26466   */\n      swap1\n      pop\n        /* \"#utility.yul\":26106:26472   */\n      swap2\n      swap1\n      pop\n      jump\t// out\n        /* \"#utility.yul\":26478:26897   */\n    tag_169:\n        /* \"#utility.yul\":26644:26648   */\n      0x00\n        /* \"#utility.yul\":26682:26684   */\n      0x20\n        /* \"#utility.yul\":26671:26680   */\n      dup3\n        /* \"#utility.yul\":26667:26685   */\n      add\n        /* \"#utility.yul\":26659:26685   */\n      swap1\n      pop\n        /* \"#utility.yul\":26731:26740   */\n      dup2\n        /* \"#utility.yul\":26725:26729   */\n      dup2\n        /* \"#utility.yul\":26721:26741   */\n      sub\n        /* \"#utility.yul\":26717:26718   */\n      0x00\n        /* \"#utility.yul\":26706:26715   */\n      dup4\n        /* \"#utility.yul\":26702:26719   */\n      add\n        /* \"#utility.yul\":26695:26742   */\n      mstore\n        /* \"#utility.yul\":26759:26890   */\n      tag_613\n        /* \"#utility.yul\":26885:26889   */\n      dup2\n        /* \"#utility.yul\":26759:26890   */\n      tag_363\n      jump\t// in\n    tag_613:\n        /* \"#utility.yul\":26751:26890   */\n      swap1\n      pop\n        /* \"#utility.yul\":26478:26897   */\n      swap2\n      swap1\n      pop\n      jump\t// out\n        /* \"#utility.yul\":26903:27142   */\n    tag_364:\n        /* \"#utility.yul\":27043:27077   */\n      0x4e6577207468726573686f6c64206d7573742062652067726561746572207468\n        /* \"#utility.yul\":27039:27040   */\n      0x00\n        /* \"#utility.yul\":27031:27037   */\n      dup3\n        /* \"#utility.yul\":27027:27041   */\n      add\n        /* \"#utility.yul\":27020:27078   */\n      mstore\n        /* \"#utility.yul\":27112:27134   */\n      0x616e2063757272656e74207468726573686f6c64000000000000000000000000\n        /* \"#utility.yul\":27107:27109   */\n      0x20\n        /* \"#utility.yul\":27099:27105   */\n      dup3\n        /* \"#utility.yul\":27095:27110   */\n      add\n        /* \"#utility.yul\":27088:27135   */\n      mstore\n        /* \"#utility.yul\":26903:27142   */\n      pop\n      jump\t// out\n        /* \"#utility.yul\":27148:27514   */\n    tag_365:\n        /* \"#utility.yul\":27290:27293   */\n      0x00\n        /* \"#utility.yul\":27311:27378   */\n      tag_616\n        /* \"#utility.yul\":27375:27377   */\n      0x34\n        /* \"#utility.yul\":27370:27373   */\n      dup4\n        /* \"#utility.yul\":27311:27378   */\n      tag_334\n      jump\t// in\n    tag_616:\n        /* \"#utility.yul\":27304:27378   */\n      swap2\n      pop\n        /* \"#utility.yul\":27387:27480   */\n      tag_617\n        /* \"#utility.yul\":27476:27479   */\n      dup3\n        /* \"#utility.yul\":27387:27480   */\n      tag_364\n      jump\t// in\n    tag_617:\n        /* \"#utility.yul\":27505:27507   */\n      0x40\n        /* \"#utility.yul\":27500:27503   */\n      dup3\n        /* \"#utility.yul\":27496:27508   */\n      add\n        /* \"#utility.yul\":27489:27508   */\n      swap1\n      pop\n        /* \"#utility.yul\":27148:27514   */\n      swap2\n      swap1\n      pop\n      jump\t// out\n        /* \"#utility.yul\":27520:27939   */\n    tag_172:\n        /* \"#utility.yul\":27686:27690   */\n      0x00\n        /* \"#utility.yul\":27724:27726   */\n      0x20\n        /* \"#utility.yul\":27713:27722   */\n      dup3\n        /* \"#utility.yul\":27709:27727   */\n      add\n        /* \"#utility.yul\":27701:27727   */\n      swap1\n      pop\n        /* \"#utility.yul\":27773:27782   */\n      dup2\n        /* \"#utility.yul\":27767:27771   */\n      dup2\n        /* \"#utility.yul\":27763:27783   */\n      sub\n        /* \"#utility.yul\":27759:27760   */\n      0x00\n        /* \"#utility.yul\":27748:27757   */\n      dup4\n        /* \"#utility.yul\":27744:27761   */\n      add\n        /* \"#utility.yul\":27737:27784   */\n      mstore\n        /* \"#utility.yul\":27801:27932   */\n      tag_619\n        /* \"#utility.yul\":27927:27931   */\n      dup2\n        /* \"#utility.yul\":27801:27932   */\n      tag_365\n      jump\t// in\n    tag_619:\n        /* \"#utility.yul\":27793:27932   */\n      swap1\n      pop\n        /* \"#utility.yul\":27520:27939   */\n      swap2\n      swap1\n      pop\n      jump\t// out\n        /* \"#utility.yul\":27945:28127   */\n    tag_366:\n        /* \"#utility.yul\":28085:28119   */\n      0x5468726573686f6c64206578636565647320616c6c6f77656420766f74657273\n        /* \"#utility.yul\":28081:28082   */\n      0x00\n        /* \"#utility.yul\":28073:28079   */\n      dup3\n        /* \"#utility.yul\":28069:28083   */\n      add\n        /* \"#utility.yul\":28062:28120   */\n      mstore\n        /* \"#utility.yul\":27945:28127   */\n      pop\n      jump\t// out\n        /* \"#utility.yul\":28133:28499   */\n    tag_367:\n        /* \"#utility.yul\":28275:28278   */\n      0x00\n        /* \"#utility.yul\":28296:28363   */\n      tag_622\n        /* \"#utility.yul\":28360:28362   */\n      0x20\n        /* \"#utility.yul\":28355:28358   */\n      dup4\n        /* \"#utility.yul\":28296:28363   */\n      tag_334\n      jump\t// in\n    tag_622:\n        /* \"#utility.yul\":28289:28363   */\n      swap2\n      pop\n        /* \"#utility.yul\":28372:28465   */\n      tag_623\n        /* \"#utility.yul\":28461:28464   */\n      dup3\n        /* \"#utility.yul\":28372:28465   */\n      tag_366\n      jump\t// in\n    tag_623:\n        /* \"#utility.yul\":28490:28492   */\n      0x20\n        /* \"#utility.yul\":28485:28488   */\n      dup3\n        /* \"#utility.yul\":28481:28493   */\n      add\n        /* \"#utility.yul\":28474:28493   */\n      swap1\n      pop\n        /* \"#utility.yul\":28133:28499   */\n      swap2\n      swap1\n      pop\n      jump\t// out\n        /* \"#utility.yul\":28505:28924   */\n    tag_176:\n        /* \"#utility.yul\":28671:28675   */\n      0x00\n        /* \"#utility.yul\":28709:28711   */\n      0x20\n        /* \"#utility.yul\":28698:28707   */\n      dup3\n        /* \"#utility.yul\":28694:28712   */\n      add\n        /* \"#utility.yul\":28686:28712   */\n      swap1\n      pop\n        /* \"#utility.yul\":28758:28767   */\n      dup2\n        /* \"#utility.yul\":28752:28756   */\n      dup2\n        /* \"#utility.yul\":28748:28768   */\n      sub\n        /* \"#utility.yul\":28744:28745   */\n      0x00\n        /* \"#utility.yul\":28733:28742   */\n      dup4\n        /* \"#utility.yul\":28729:28746   */\n      add\n        /* \"#utility.yul\":28722:28769   */\n      mstore\n        /* \"#utility.yul\":28786:28917   */\n      tag_625\n        /* \"#utility.yul\":28912:28916   */\n      dup2\n        /* \"#utility.yul\":28786:28917   */\n      tag_367\n      jump\t// in\n    tag_625:\n        /* \"#utility.yul\":28778:28917   */\n      swap1\n      pop\n        /* \"#utility.yul\":28505:28924   */\n      swap2\n      swap1\n      pop\n      jump\t// out\n        /* \"#utility.yul\":28930:29096   */\n    tag_368:\n        /* \"#utility.yul\":29070:29088   */\n      0x4e6f7420656e6f75676820766f74657300000000000000000000000000000000\n        /* \"#utility.yul\":29066:29067   */\n      0x00\n        /* \"#utility.yul\":29058:29064   */\n      dup3\n        /* \"#utility.yul\":29054:29068   */\n      add\n        /* \"#utility.yul\":29047:29089   */\n      mstore\n        /* \"#utility.yul\":28930:29096   */\n      pop\n      jump\t// out\n        /* \"#utility.yul\":29102:29468   */\n    tag_369:\n        /* \"#utility.yul\":29244:29247   */\n      0x00\n        /* \"#utility.yul\":29265:29332   */\n      tag_628\n        /* \"#utility.yul\":29329:29331   */\n      0x10\n        /* \"#utility.yul\":29324:29327   */\n      dup4\n        /* \"#utility.yul\":29265:29332   */\n      tag_334\n      jump\t// in\n    tag_628:\n        /* \"#utility.yul\":29258:29332   */\n      swap2\n      pop\n        /* \"#utility.yul\":29341:29434   */\n      tag_629\n        /* \"#utility.yul\":29430:29433   */\n      dup3\n        /* \"#utility.yul\":29341:29434   */\n      tag_368\n      jump\t// in\n    tag_629:\n        /* \"#utility.yul\":29459:29461   */\n      0x20\n        /* \"#utility.yul\":29454:29457   */\n      dup3\n        /* \"#utility.yul\":29450:29462   */\n      add\n        /* \"#utility.yul\":29443:29462   */\n      swap1\n      pop\n        /* \"#utility.yul\":29102:29468   */\n      swap2\n      swap1\n      pop\n      jump\t// out\n        /* \"#utility.yul\":29474:29893   */\n    tag_195:\n        /* \"#utility.yul\":29640:29644   */\n      0x00\n        /* \"#utility.yul\":29678:29680   */\n      0x20\n        /* \"#utility.yul\":29667:29676   */\n      dup3\n        /* \"#utility.yul\":29663:29681   */\n      add\n        /* \"#utility.yul\":29655:29681   */\n      swap1\n      pop\n        /* \"#utility.yul\":29727:29736   */\n      dup2\n        /* \"#utility.yul\":29721:29725   */\n      dup2\n        /* \"#utility.yul\":29717:29737   */\n      sub\n        /* \"#utility.yul\":29713:29714   */\n      0x00\n        /* \"#utility.yul\":29702:29711   */\n      dup4\n        /* \"#utility.yul\":29698:29715   */\n      add\n        /* \"#utility.yul\":29691:29738   */\n      mstore\n        /* \"#utility.yul\":29755:29886   */\n      tag_631\n        /* \"#utility.yul\":29881:29885   */\n      dup2\n        /* \"#utility.yul\":29755:29886   */\n      tag_369\n      jump\t// in\n    tag_631:\n        /* \"#utility.yul\":29747:29886   */\n      swap1\n      pop\n        /* \"#utility.yul\":29474:29893   */\n      swap2\n      swap1\n      pop\n      jump\t// out\n        /* \"#utility.yul\":29899:30079   */\n    tag_370:\n        /* \"#utility.yul\":29947:30024   */\n      0x4e487b7100000000000000000000000000000000000000000000000000000000\n        /* \"#utility.yul\":29944:29945   */\n      0x00\n        /* \"#utility.yul\":29937:30025   */\n      mstore\n        /* \"#utility.yul\":30044:30048   */\n      0x12\n        /* \"#utility.yul\":30041:30042   */\n      0x04\n        /* \"#utility.yul\":30034:30049   */\n      mstore\n        /* \"#utility.yul\":30068:30072   */\n      0x24\n        /* \"#utility.yul\":30065:30066   */\n      0x00\n        /* \"#utility.yul\":30058:30073   */\n      revert\n        /* \"#utility.yul\":30085:30270   */\n    tag_199:\n        /* \"#utility.yul\":30125:30126   */\n      0x00\n        /* \"#utility.yul\":30142:30162   */\n      tag_634\n        /* \"#utility.yul\":30160:30161   */\n      dup3\n        /* \"#utility.yul\":30142:30162   */\n      tag_323\n      jump\t// in\n    tag_634:\n        /* \"#utility.yul\":30137:30162   */\n      swap2\n      pop\n        /* \"#utility.yul\":30176:30196   */\n      tag_635\n        /* \"#utility.yul\":30194:30195   */\n      dup4\n        /* \"#utility.yul\":30176:30196   */\n      tag_323\n      jump\t// in\n    tag_635:\n        /* \"#utility.yul\":30171:30196   */\n      swap3\n      pop\n        /* \"#utility.yul\":30215:30216   */\n      dup3\n        /* \"#utility.yul\":30205:30240   */\n      tag_636\n      jumpi\n        /* \"#utility.yul\":30220:30238   */\n      tag_637\n      tag_370\n      jump\t// in\n    tag_637:\n        /* \"#utility.yul\":30205:30240   */\n    tag_636:\n        /* \"#utility.yul\":30262:30263   */\n      dup3\n        /* \"#utility.yul\":30259:30260   */\n      dup3\n        /* \"#utility.yul\":30255:30264   */\n      div\n        /* \"#utility.yul\":30250:30264   */\n      swap1\n      pop\n        /* \"#utility.yul\":30085:30270   */\n      swap3\n      swap2\n      pop\n      pop\n      jump\t// out\n        /* \"#utility.yul\":30276:30452   */\n    tag_222:\n        /* \"#utility.yul\":30308:30309   */\n      0x00\n        /* \"#utility.yul\":30325:30345   */\n      tag_639\n        /* \"#utility.yul\":30343:30344   */\n      dup3\n        /* \"#utility.yul\":30325:30345   */\n      tag_323\n      jump\t// in\n    tag_639:\n        /* \"#utility.yul\":30320:30345   */\n      swap2\n      pop\n        /* \"#utility.yul\":30359:30379   */\n      tag_640\n        /* \"#utility.yul\":30377:30378   */\n      dup4\n        /* \"#utility.yul\":30359:30379   */\n      tag_323\n      jump\t// in\n    tag_640:\n        /* \"#utility.yul\":30354:30379   */\n      swap3\n      pop\n        /* \"#utility.yul\":30398:30399   */\n      dup3\n        /* \"#utility.yul\":30388:30423   */\n      tag_641\n      jumpi\n        /* \"#utility.yul\":30403:30421   */\n      tag_642\n      tag_370\n      jump\t// in\n    tag_642:\n        /* \"#utility.yul\":30388:30423   */\n    tag_641:\n        /* \"#utility.yul\":30444:30445   */\n      dup3\n        /* \"#utility.yul\":30441:30442   */\n      dup3\n        /* \"#utility.yul\":30437:30446   */\n      mod\n        /* \"#utility.yul\":30432:30446   */\n      swap1\n      pop\n        /* \"#utility.yul\":30276:30452   */\n      swap3\n      swap2\n      pop\n      pop\n      jump\t// out\n        /* \"#utility.yul\":30458:30554   */\n    tag_371:\n        /* \"#utility.yul\":30492:30500   */\n      0x00\n        /* \"#utility.yul\":30541:30546   */\n      dup2\n        /* \"#utility.yul\":30536:30539   */\n      0xc0\n        /* \"#utility.yul\":30532:30547   */\n      shl\n        /* \"#utility.yul\":30511:30547   */\n      swap1\n      pop\n        /* \"#utility.yul\":30458:30554   */\n      swap2\n      swap1\n      pop\n      jump\t// out\n        /* \"#utility.yul\":30560:30654   */\n    tag_372:\n        /* \"#utility.yul\":30598:30605   */\n      0x00\n        /* \"#utility.yul\":30627:30648   */\n      tag_645\n        /* \"#utility.yul\":30642:30647   */\n      dup3\n        /* \"#utility.yul\":30627:30648   */\n      tag_371\n      jump\t// in\n    tag_645:\n        /* \"#utility.yul\":30616:30648   */\n      swap1\n      pop\n        /* \"#utility.yul\":30560:30654   */\n      swap2\n      swap1\n      pop\n      jump\t// out\n        /* \"#utility.yul\":30660:30813   */\n    tag_373:\n        /* \"#utility.yul\":30763:30806   */\n      tag_647\n        /* \"#utility.yul\":30782:30805   */\n      tag_648\n        /* \"#utility.yul\":30799:30804   */\n      dup3\n        /* \"#utility.yul\":30782:30805   */\n      tag_303\n      jump\t// in\n    tag_648:\n        /* \"#utility.yul\":30763:30806   */\n      tag_372\n      jump\t// in\n    tag_647:\n        /* \"#utility.yul\":30758:30761   */\n      dup3\n        /* \"#utility.yul\":30751:30807   */\n      mstore\n        /* \"#utility.yul\":30660:30813   */\n      pop\n      pop\n      jump\t// out\n        /* \"#utility.yul\":30819:30913   */\n    tag_374:\n        /* \"#utility.yul\":30852:30860   */\n      0x00\n        /* \"#utility.yul\":30900:30905   */\n      dup2\n        /* \"#utility.yul\":30896:30898   */\n      0x60\n        /* \"#utility.yul\":30892:30906   */\n      shl\n        /* \"#utility.yul\":30871:30906   */\n      swap1\n      pop\n        /* \"#utility.yul\":30819:30913   */\n      swap2\n      swap1\n      pop\n      jump\t// out\n        /* \"#utility.yul\":30919:31013   */\n    tag_375:\n        /* \"#utility.yul\":30958:30965   */\n      0x00\n        /* \"#utility.yul\":30987:31007   */\n      tag_651\n        /* \"#utility.yul\":31001:31006   */\n      dup3\n        /* \"#utility.yul\":30987:31007   */\n      tag_374\n      jump\t// in\n    tag_651:\n        /* \"#utility.yul\":30976:31007   */\n      swap1\n      pop\n        /* \"#utility.yul\":30919:31013   */\n      swap2\n      swap1\n      pop\n      jump\t// out\n        /* \"#utility.yul\":31019:31119   */\n    tag_376:\n        /* \"#utility.yul\":31058:31065   */\n      0x00\n        /* \"#utility.yul\":31087:31113   */\n      tag_653\n        /* \"#utility.yul\":31107:31112   */\n      dup3\n        /* \"#utility.yul\":31087:31113   */\n      tag_375\n      jump\t// in\n    tag_653:\n        /* \"#utility.yul\":31076:31113   */\n      swap1\n      pop\n        /* \"#utility.yul\":31019:31119   */\n      swap2\n      swap1\n      pop\n      jump\t// out\n        /* \"#utility.yul\":31125:31282   */\n    tag_377:\n        /* \"#utility.yul\":31230:31275   */\n      tag_655\n        /* \"#utility.yul\":31250:31274   */\n      tag_656\n        /* \"#utility.yul\":31268:31273   */\n      dup3\n        /* \"#utility.yul\":31250:31274   */\n      tag_311\n      jump\t// in\n    tag_656:\n        /* \"#utility.yul\":31230:31275   */\n      tag_376\n      jump\t// in\n    tag_655:\n        /* \"#utility.yul\":31225:31228   */\n      dup3\n        /* \"#utility.yul\":31218:31276   */\n      mstore\n        /* \"#utility.yul\":31125:31282   */\n      pop\n      pop\n      jump\t// out\n        /* \"#utility.yul\":31288:31367   */\n    tag_378:\n        /* \"#utility.yul\":31327:31334   */\n      0x00\n        /* \"#utility.yul\":31356:31361   */\n      dup2\n        /* \"#utility.yul\":31345:31361   */\n      swap1\n      pop\n        /* \"#utility.yul\":31288:31367   */\n      swap2\n      swap1\n      pop\n      jump\t// out\n        /* \"#utility.yul\":31373:31530   */\n    tag_379:\n        /* \"#utility.yul\":31478:31523   */\n      tag_659\n        /* \"#utility.yul\":31498:31522   */\n      tag_660\n        /* \"#utility.yul\":31516:31521   */\n      dup3\n        /* \"#utility.yul\":31498:31522   */\n      tag_323\n      jump\t// in\n    tag_660:\n        /* \"#utility.yul\":31478:31523   */\n      tag_378\n      jump\t// in\n    tag_659:\n        /* \"#utility.yul\":31473:31476   */\n      dup3\n        /* \"#utility.yul\":31466:31524   */\n      mstore\n        /* \"#utility.yul\":31373:31530   */\n      pop\n      pop\n      jump\t// out\n        /* \"#utility.yul\":31536:32492   */\n    tag_227:\n        /* \"#utility.yul\":31786:31789   */\n      0x00\n        /* \"#utility.yul\":31801:31874   */\n      tag_662\n        /* \"#utility.yul\":31870:31873   */\n      dup3\n        /* \"#utility.yul\":31861:31867   */\n      dup10\n        /* \"#utility.yul\":31801:31874   */\n      tag_373\n      jump\t// in\n    tag_662:\n        /* \"#utility.yul\":31899:31900   */\n      0x08\n        /* \"#utility.yul\":31894:31897   */\n      dup3\n        /* \"#utility.yul\":31890:31901   */\n      add\n        /* \"#utility.yul\":31883:31901   */\n      swap2\n      pop\n        /* \"#utility.yul\":31911:31986   */\n      tag_663\n        /* \"#utility.yul\":31982:31985   */\n      dup3\n        /* \"#utility.yul\":31973:31979   */\n      dup9\n        /* \"#utility.yul\":31911:31986   */\n      tag_377\n      jump\t// in\n    tag_663:\n        /* \"#utility.yul\":32011:32013   */\n      0x14\n        /* \"#utility.yul\":32006:32009   */\n      dup3\n        /* \"#utility.yul\":32002:32014   */\n      add\n        /* \"#utility.yul\":31995:32014   */\n      swap2\n      pop\n        /* \"#utility.yul\":32024:32099   */\n      tag_664\n        /* \"#utility.yul\":32095:32098   */\n      dup3\n        /* \"#utility.yul\":32086:32092   */\n      dup8\n        /* \"#utility.yul\":32024:32099   */\n      tag_379\n      jump\t// in\n    tag_664:\n        /* \"#utility.yul\":32124:32126   */\n      0x20\n        /* \"#utility.yul\":32119:32122   */\n      dup3\n        /* \"#utility.yul\":32115:32127   */\n      add\n        /* \"#utility.yul\":32108:32127   */\n      swap2\n      pop\n        /* \"#utility.yul\":32137:32212   */\n      tag_665\n        /* \"#utility.yul\":32208:32211   */\n      dup3\n        /* \"#utility.yul\":32199:32205   */\n      dup7\n        /* \"#utility.yul\":32137:32212   */\n      tag_379\n      jump\t// in\n    tag_665:\n        /* \"#utility.yul\":32237:32239   */\n      0x20\n        /* \"#utility.yul\":32232:32235   */\n      dup3\n        /* \"#utility.yul\":32228:32240   */\n      add\n        /* \"#utility.yul\":32221:32240   */\n      swap2\n      pop\n        /* \"#utility.yul\":32250:32325   */\n      tag_666\n        /* \"#utility.yul\":32321:32324   */\n      dup3\n        /* \"#utility.yul\":32312:32318   */\n      dup6\n        /* \"#utility.yul\":32250:32325   */\n      tag_379\n      jump\t// in\n    tag_666:\n        /* \"#utility.yul\":32350:32352   */\n      0x20\n        /* \"#utility.yul\":32345:32348   */\n      dup3\n        /* \"#utility.yul\":32341:32353   */\n      add\n        /* \"#utility.yul\":32334:32353   */\n      swap2\n      pop\n        /* \"#utility.yul\":32363:32438   */\n      tag_667\n        /* \"#utility.yul\":32434:32437   */\n      dup3\n        /* \"#utility.yul\":32425:32431   */\n      dup5\n        /* \"#utility.yul\":32363:32438   */\n      tag_379\n      jump\t// in\n    tag_667:\n        /* \"#utility.yul\":32463:32465   */\n      0x20\n        /* \"#utility.yul\":32458:32461   */\n      dup3\n        /* \"#utility.yul\":32454:32466   */\n      add\n        /* \"#utility.yul\":32447:32466   */\n      swap2\n      pop\n        /* \"#utility.yul\":32483:32486   */\n      dup2\n        /* \"#utility.yul\":32476:32486   */\n      swap1\n      pop\n        /* \"#utility.yul\":31536:32492   */\n      swap8\n      swap7\n      pop\n      pop\n      pop\n      pop\n      pop\n      pop\n      pop\n      jump\t// out\n        /* \"#utility.yul\":32498:32720   */\n    tag_244:\n        /* \"#utility.yul\":32591:32595   */\n      0x00\n        /* \"#utility.yul\":32629:32631   */\n      0x20\n        /* \"#utility.yul\":32618:32627   */\n      dup3\n        /* \"#utility.yul\":32614:32632   */\n      add\n        /* \"#utility.yul\":32606:32632   */\n      swap1\n      pop\n        /* \"#utility.yul\":32642:32713   */\n      tag_669\n        /* \"#utility.yul\":32710:32711   */\n      0x00\n        /* \"#utility.yul\":32699:32708   */\n      dup4\n        /* \"#utility.yul\":32695:32712   */\n      add\n        /* \"#utility.yul\":32686:32692   */\n      dup5\n        /* \"#utility.yul\":32642:32713   */\n      tag_329\n      jump\t// in\n    tag_669:\n        /* \"#utility.yul\":32498:32720   */\n      swap3\n      swap2\n      pop\n      pop\n      jump\t// out\n        /* \"#utility.yul\":32726:32869   */\n    tag_380:\n        /* \"#utility.yul\":32783:32788   */\n      0x00\n        /* \"#utility.yul\":32814:32820   */\n      dup2\n        /* \"#utility.yul\":32808:32821   */\n      mload\n        /* \"#utility.yul\":32799:32821   */\n      swap1\n      pop\n        /* \"#utility.yul\":32830:32863   */\n      tag_671\n        /* \"#utility.yul\":32857:32862   */\n      dup2\n        /* \"#utility.yul\":32830:32863   */\n      tag_324\n      jump\t// in\n    tag_671:\n        /* \"#utility.yul\":32726:32869   */\n      swap3\n      swap2\n      pop\n      pop\n      jump\t// out\n        /* \"#utility.yul\":32875:33382   */\n    tag_248:\n        /* \"#utility.yul\":32954:32960   */\n      0x00\n        /* \"#utility.yul\":32962:32968   */\n      dup1\n        /* \"#utility.yul\":33011:33013   */\n      0x40\n        /* \"#utility.yul\":32999:33008   */\n      dup4\n        /* \"#utility.yul\":32990:32997   */\n      dup6\n        /* \"#utility.yul\":32986:33009   */\n      sub\n        /* \"#utility.yul\":32982:33014   */\n      slt\n        /* \"#utility.yul\":32979:33098   */\n      iszero\n      tag_673\n      jumpi\n        /* \"#utility.yul\":33017:33096   */\n      tag_674\n      tag_301\n      jump\t// in\n    tag_674:\n        /* \"#utility.yul\":32979:33098   */\n    tag_673:\n        /* \"#utility.yul\":33137:33138   */\n      0x00\n        /* \"#utility.yul\":33162:33226   */\n      tag_675\n        /* \"#utility.yul\":33218:33225   */\n      dup6\n        /* \"#utility.yul\":33209:33215   */\n      dup3\n        /* \"#utility.yul\":33198:33207   */\n      dup7\n        /* \"#utility.yul\":33194:33216   */\n      add\n        /* \"#utility.yul\":33162:33226   */\n      tag_380\n      jump\t// in\n    tag_675:\n        /* \"#utility.yul\":33152:33226   */\n      swap3\n      pop\n        /* \"#utility.yul\":33108:33236   */\n      pop\n        /* \"#utility.yul\":33275:33277   */\n      0x20\n        /* \"#utility.yul\":33301:33365   */\n      tag_676\n        /* \"#utility.yul\":33357:33364   */\n      dup6\n        /* \"#utility.yul\":33348:33354   */\n      dup3\n        /* \"#utility.yul\":33337:33346   */\n      dup7\n        /* \"#utility.yul\":33333:33355   */\n      add\n        /* \"#utility.yul\":33301:33365   */\n      tag_380\n      jump\t// in\n    tag_676:\n        /* \"#utility.yul\":33291:33365   */\n      swap2\n      pop\n        /* \"#utility.yul\":33246:33375   */\n      pop\n        /* \"#utility.yul\":32875:33382   */\n      swap3\n      pop\n      swap3\n      swap1\n      pop\n      jump\t// out\n        /* \"#utility.yul\":33388:33830   */\n    tag_256:\n        /* \"#utility.yul\":33537:33541   */\n      0x00\n        /* \"#utility.yul\":33575:33577   */\n      0x60\n        /* \"#utility.yul\":33564:33573   */\n      dup3\n        /* \"#utility.yul\":33560:33578   */\n      add\n        /* \"#utility.yul\":33552:33578   */\n      swap1\n      pop\n        /* \"#utility.yul\":33588:33659   */\n      tag_678\n        /* \"#utility.yul\":33656:33657   */\n      0x00\n        /* \"#utility.yul\":33645:33654   */\n      dup4\n        /* \"#utility.yul\":33641:33658   */\n      add\n        /* \"#utility.yul\":33632:33638   */\n      dup7\n        /* \"#utility.yul\":33588:33659   */\n      tag_329\n      jump\t// in\n    tag_678:\n        /* \"#utility.yul\":33669:33741   */\n      tag_679\n        /* \"#utility.yul\":33737:33739   */\n      0x20\n        /* \"#utility.yul\":33726:33735   */\n      dup4\n        /* \"#utility.yul\":33722:33740   */\n      add\n        /* \"#utility.yul\":33713:33719   */\n      dup6\n        /* \"#utility.yul\":33669:33741   */\n      tag_329\n      jump\t// in\n    tag_679:\n        /* \"#utility.yul\":33751:33823   */\n      tag_680\n        /* \"#utility.yul\":33819:33821   */\n      0x40\n        /* \"#utility.yul\":33808:33817   */\n      dup4\n        /* \"#utility.yul\":33804:33822   */\n      add\n        /* \"#utility.yul\":33795:33801   */\n      dup5\n        /* \"#utility.yul\":33751:33823   */\n      tag_329\n      jump\t// in\n    tag_680:\n        /* \"#utility.yul\":33388:33830   */\n      swap5\n      swap4\n      pop\n      pop\n      pop\n      pop\n      jump\t// out\n        /* \"#utility.yul\":33836:34389   */\n    tag_261:\n        /* \"#utility.yul\":34013:34017   */\n      0x00\n        /* \"#utility.yul\":34051:34054   */\n      0x80\n        /* \"#utility.yul\":34040:34049   */\n      dup3\n        /* \"#utility.yul\":34036:34055   */\n      add\n        /* \"#utility.yul\":34028:34055   */\n      swap1\n      pop\n        /* \"#utility.yul\":34065:34136   */\n      tag_682\n        /* \"#utility.yul\":34133:34134   */\n      0x00\n        /* \"#utility.yul\":34122:34131   */\n      dup4\n        /* \"#utility.yul\":34118:34135   */\n      add\n        /* \"#utility.yul\":34109:34115   */\n      dup8\n        /* \"#utility.yul\":34065:34136   */\n      tag_329\n      jump\t// in\n    tag_682:\n        /* \"#utility.yul\":34146:34218   */\n      tag_683\n        /* \"#utility.yul\":34214:34216   */\n      0x20\n        /* \"#utility.yul\":34203:34212   */\n      dup4\n        /* \"#utility.yul\":34199:34217   */\n      add\n        /* \"#utility.yul\":34190:34196   */\n      dup7\n        /* \"#utility.yul\":34146:34218   */\n      tag_329\n      jump\t// in\n    tag_683:\n        /* \"#utility.yul\":34228:34300   */\n      tag_684\n        /* \"#utility.yul\":34296:34298   */\n      0x40\n        /* \"#utility.yul\":34285:34294   */\n      dup4\n        /* \"#utility.yul\":34281:34299   */\n      add\n        /* \"#utility.yul\":34272:34278   */\n      dup6\n        /* \"#utility.yul\":34228:34300   */\n      tag_329\n      jump\t// in\n    tag_684:\n        /* \"#utility.yul\":34310:34382   */\n      tag_685\n        /* \"#utility.yul\":34378:34380   */\n      0x60\n        /* \"#utility.yul\":34367:34376   */\n      dup4\n        /* \"#utility.yul\":34363:34381   */\n      add\n        /* \"#utility.yul\":34354:34360   */\n      dup5\n        /* \"#utility.yul\":34310:34382   */\n      tag_329\n      jump\t// in\n    tag_685:\n        /* \"#utility.yul\":33836:34389   */\n      swap6\n      swap5\n      pop\n      pop\n      pop\n      pop\n      pop\n      jump\t// out\n        /* \"#utility.yul\":34395:34727   */\n    tag_273:\n        /* \"#utility.yul\":34516:34520   */\n      0x00\n        /* \"#utility.yul\":34554:34556   */\n      0x40\n        /* \"#utility.yul\":34543:34552   */\n      dup3\n        /* \"#utility.yul\":34539:34557   */\n      add\n        /* \"#utility.yul\":34531:34557   */\n      swap1\n      pop\n        /* \"#utility.yul\":34567:34638   */\n      tag_687\n        /* \"#utility.yul\":34635:34636   */\n      0x00\n        /* \"#utility.yul\":34624:34633   */\n      dup4\n        /* \"#utility.yul\":34620:34637   */\n      add\n        /* \"#utility.yul\":34611:34617   */\n      dup6\n        /* \"#utility.yul\":34567:34638   */\n      tag_329\n      jump\t// in\n    tag_687:\n        /* \"#utility.yul\":34648:34720   */\n      tag_688\n        /* \"#utility.yul\":34716:34718   */\n      0x20\n        /* \"#utility.yul\":34705:34714   */\n      dup4\n        /* \"#utility.yul\":34701:34719   */\n      add\n        /* \"#utility.yul\":34692:34698   */\n      dup5\n        /* \"#utility.yul\":34648:34720   */\n      tag_329\n      jump\t// in\n    tag_688:\n        /* \"#utility.yul\":34395:34727   */\n      swap4\n      swap3\n      pop\n      pop\n      pop\n      jump\t// out\n\n    auxdata: 0xa26469706673582212201bf189dc7a745dec4397cdbb707cc7ff436bdd027362e9fabe8fd85b82dd306a64736f6c63430008160033\n}\n",
				"bytecode": {
					"linkReferences": {},
					"object": "608060405234801562000010575f80fd5b506040516200375338038062003753833981810160405281019062000036919062000192565b5f73ffffffffffffffffffffffffffffffffffffffff168173ffffffffffffffffffffffffffffffffffffffff1603620000a7576040517f08c379a00000000000000000000000000000000000000000000000000000000081526004016200009e9062000220565b60405180910390fd5b805f806101000a81548173ffffffffffffffffffffffffffffffffffffffff021916908373ffffffffffffffffffffffffffffffffffffffff1602179055503360015f6101000a81548173ffffffffffffffffffffffffffffffffffffffff021916908373ffffffffffffffffffffffffffffffffffffffff1602179055505062000240565b5f80fd5b5f73ffffffffffffffffffffffffffffffffffffffff82169050919050565b5f6200015c8262000131565b9050919050565b6200016e8162000150565b811462000179575f80fd5b50565b5f815190506200018c8162000163565b92915050565b5f60208284031215620001aa57620001a96200012d565b5b5f620001b9848285016200017c565b91505092915050565b5f82825260208201905092915050565b7f496e76616c69642063757276652064657374696e6174696f6e000000000000005f82015250565b5f62000208601983620001c2565b91506200021582620001d2565b602082019050919050565b5f6020820190508181035f8301526200023981620001fa565b9050919050565b613505806200024e5f395ff3fe608060405260043610610085575f3560e01c80639e5515a8116100585780639e5515a8146101205780639f7aa8f41461013c578063a598d03c14610179578063c4f788e9146101bb578063e5db95e3146101e357610085565b806324b4cdc7146100895780633b2a537c146100a557806361450b52146100cd5780638bcd80561461010a575b5f80fd5b6100a3600480360381019061009e91906124e3565b61020b565b005b3480156100b0575f80fd5b506100cb60048036038101906100c6919061259a565b610655565b005b3480156100d8575f80fd5b506100f360048036038101906100ee91906125c5565b610726565b6040516101019291906126b0565b60405180910390f35b348015610115575f80fd5b5061011e610d52565b005b61013a60048036038101906101359190612761565b610e48565b005b348015610147575f80fd5b50610162600480360381019061015d919061280b565b611292565b604051610170929190612872565b60405180910390f35b348015610184575f80fd5b5061019f600480360381019061019a9190612899565b611451565b6040516101b297969594939291906128e2565b60405180910390f35b3480156101c6575f80fd5b506101e160048036038101906101dc9190612979565b6114da565b005b3480156101ee575f80fd5b50610209600480360381019061020491906125c5565b6118ba565b005b5f60025f8567ffffffffffffffff1681526020019081526020015f206002015f9054906101000a900467ffffffffffffffff1667ffffffffffffffff1614610288576040517f08c379a000000000000000000000000000000000000000000000000000000000815260040161027f90612a8a565b60405180910390fd5b5f8367ffffffffffffffff16036102d4576040517f08c379a00000000000000000000000000000000000000000000000000000000081526004016102cb90612af2565b60405180910390fd5b3360025f8567ffffffffffffffff1681526020019081526020015f205f015f6101000a81548173ffffffffffffffffffffffffffffffffffffffff021916908373ffffffffffffffffffffffffffffffffffffffff160217905550818160025f8667ffffffffffffffff1681526020019081526020015f20600101919061035c9291906122f3565b508260025f8567ffffffffffffffff1681526020019081526020015f206002015f6101000a81548167ffffffffffffffff021916908367ffffffffffffffff1602179055503460025f8567ffffffffffffffff1681526020019081526020015f2060030181905550600160025f8567ffffffffffffffff1681526020019081526020015f20600401819055505f67ffffffffffffffff81111561040257610401612b10565b5b6040519080825280602002602001820160405280156104305781602001602082028036833780820191505090505b5060025f8567ffffffffffffffff1681526020019081526020015f206006019080519060200190610462929190612390565b505f67ffffffffffffffff81111561047d5761047c612b10565b5b6040519080825280602002602001820160405280156104ab5781602001602082028036833780820191505090505b5060025f8567ffffffffffffffff1681526020019081526020015f2060070190805190602001906104dd929190612390565b505f60025f8567ffffffffffffffff1681526020019081526020015f206008015f6101000a81548160ff0219169083151502179055505f60025f8567ffffffffffffffff1681526020019081526020015f2060080160016101000a81548160ff0219169083151502179055505f5b8282905081101561064f575f83838381811061056a57610569612b3d565b5b905060200201602081019061057f919061259a565b90505f60025f8767ffffffffffffffff1681526020019081526020015f20600a015f8373ffffffffffffffffffffffffffffffffffffffff1673ffffffffffffffffffffffffffffffffffffffff1681526020019081526020015f20540361064157600160025f8767ffffffffffffffff1681526020019081526020015f20600a015f8373ffffffffffffffffffffffffffffffffffffffff1673ffffffffffffffffffffffffffffffffffffffff1681526020019081526020015f20819055505b50808060010191505061054b565b50505050565b60015f9054906101000a900473ffffffffffffffffffffffffffffffffffffffff1673ffffffffffffffffffffffffffffffffffffffff163373ffffffffffffffffffffffffffffffffffffffff16146106e4576040517f08c379a00000000000000000000000000000000000000000000000000000000081526004016106db90612bb4565b60405180910390fd5b805f806101000a81548173ffffffffffffffffffffffffffffffffffffffff021916908373ffffffffffffffffffffffffffffffffffffffff16021790555050565b61072e6123db565b5f8060025f8567ffffffffffffffff1681526020019081526020015f206002015f9054906101000a900467ffffffffffffffff1667ffffffffffffffff16036107ac576040517f08c379a00000000000000000000000000000000000000000000000000000000081526004016107a390612c1c565b60405180910390fd5b60025f8467ffffffffffffffff1681526020019081526020015f2060080160019054906101000a900460ff16610817576040517f08c379a000000000000000000000000000000000000000000000000000000000815260040161080e90612c84565b60405180910390fd5b5f6108206123db565b5f600190505f5b60025f8867ffffffffffffffff1681526020019081526020015f2060010180549050811015610d43575f60025f8967ffffffffffffffff1681526020019081526020015f20600a015f60025f8b67ffffffffffffffff1681526020019081526020015f2060010184815481106108a05761089f612b3d565b5b905f5260205f20015f9054906101000a900473ffffffffffffffffffffffffffffffffffffffff1673ffffffffffffffffffffffffffffffffffffffff1673ffffffffffffffffffffffffffffffffffffffff1681526020019081526020015f2054905084811115610c6957604051806101e0016040528060025f8b67ffffffffffffffff1681526020019081526020015f20600101848154811061094857610947612b3d565b5b905f5260205f20015f9054906101000a900473ffffffffffffffffffffffffffffffffffffffff1673ffffffffffffffffffffffffffffffffffffffff1673ffffffffffffffffffffffffffffffffffffffff1681526020015f73ffffffffffffffffffffffffffffffffffffffff1673ffffffffffffffffffffffffffffffffffffffff1681526020015f73ffffffffffffffffffffffffffffffffffffffff1673ffffffffffffffffffffffffffffffffffffffff1681526020015f73ffffffffffffffffffffffffffffffffffffffff1673ffffffffffffffffffffffffffffffffffffffff1681526020015f73ffffffffffffffffffffffffffffffffffffffff1673ffffffffffffffffffffffffffffffffffffffff1681526020015f73ffffffffffffffffffffffffffffffffffffffff1673ffffffffffffffffffffffffffffffffffffffff1681526020015f73ffffffffffffffffffffffffffffffffffffffff1673ffffffffffffffffffffffffffffffffffffffff1681526020015f73ffffffffffffffffffffffffffffffffffffffff1673ffffffffffffffffffffffffffffffffffffffff1681526020015f73ffffffffffffffffffffffffffffffffffffffff1673ffffffffffffffffffffffffffffffffffffffff1681526020015f73ffffffffffffffffffffffffffffffffffffffff1673ffffffffffffffffffffffffffffffffffffffff1681526020015f73ffffffffffffffffffffffffffffffffffffffff1673ffffffffffffffffffffffffffffffffffffffff1681526020015f73ffffffffffffffffffffffffffffffffffffffff1673ffffffffffffffffffffffffffffffffffffffff1681526020015f73ffffffffffffffffffffffffffffffffffffffff1673ffffffffffffffffffffffffffffffffffffffff1681526020015f73ffffffffffffffffffffffffffffffffffffffff1673ffffffffffffffffffffffffffffffffffffffff1681526020015f73ffffffffffffffffffffffffffffffffffffffff1673ffffffffffffffffffffffffffffffffffffffff16815250935080945060019250610d35565b848103610d345760025f8967ffffffffffffffff1681526020019081526020015f206001018281548110610ca057610c9f612b3d565b5b905f5260205f20015f9054906101000a900473ffffffffffffffffffffffffffffffffffffffff16848460ff16600f8110610cde57610cdd612b3d565b5b602002019073ffffffffffffffffffffffffffffffffffffffff16908173ffffffffffffffffffffffffffffffffffffffff16815250508280610d2090612ccf565b935050600e8360ff1603610d3357600192505b5b5b508080600101915050610827565b50818194509450505050915091565b60015f9054906101000a900473ffffffffffffffffffffffffffffffffffffffff1673ffffffffffffffffffffffffffffffffffffffff163373ffffffffffffffffffffffffffffffffffffffff1614610de1576040517f08c379a0000000000000000000000000000000000000000000000000000000008152600401610dd890612bb4565b60405180910390fd5b60015f9054906101000a900473ffffffffffffffffffffffffffffffffffffffff1673ffffffffffffffffffffffffffffffffffffffff166108fc4790811502906040515f60405180830381858888f19350505050158015610e45573d5f803e3d5ffd5b50565b5f60025f8967ffffffffffffffff1681526020019081526020015f206002015f9054906101000a900467ffffffffffffffff1667ffffffffffffffff1603610ec5576040517f08c379a0000000000000000000000000000000000000000000000000000000008152600401610ebc90612c1c565b60405180910390fd5b60025f8867ffffffffffffffff1681526020019081526020015f2060080160019054906101000a900460ff16610f30576040517f08c379a0000000000000000000000000000000000000000000000000000000008152600401610f2790612c84565b60405180910390fd5b60025f8867ffffffffffffffff1681526020019081526020015f206008015f9054906101000a900460ff1615610f9b576040517f08c379a0000000000000000000000000000000000000000000000000000000008152600401610f9290612d41565b60405180910390fd5b60025f8867ffffffffffffffff1681526020019081526020015f20600601805490508282905014611001576040517f08c379a0000000000000000000000000000000000000000000000000000000008152600401610ff890612da9565b60405180910390fd5b600160025f8967ffffffffffffffff1681526020019081526020015f20600a015f8873ffffffffffffffffffffffffffffffffffffffff1673ffffffffffffffffffffffffffffffffffffffff1681526020019081526020015f2054101561109e576040517f08c379a000000000000000000000000000000000000000000000000000000000815260040161109590612e11565b60405180910390fd5b5f151560025f8967ffffffffffffffff1681526020019081526020015f206009015f8781526020019081526020015f205f9054906101000a900460ff1615151461111d576040517f08c379a000000000000000000000000000000000000000000000000000000000815260040161111490612e79565b60405180910390fd5b61112c86888787878787611b8e565b61116b576040517f08c379a000000000000000000000000000000000000000000000000000000000815260040161116290612ee1565b60405180910390fd5b3460025f8967ffffffffffffffff1681526020019081526020015f206003015f8282546111989190612eff565b92505081905550600160025f8967ffffffffffffffff1681526020019081526020015f20600a015f8873ffffffffffffffffffffffffffffffffffffffff1673ffffffffffffffffffffffffffffffffffffffff1681526020019081526020015f205f8282546112089190612eff565b92505081905550600160025f8967ffffffffffffffff1681526020019081526020015f206005015f82825461123d9190612eff565b92505081905550600160025f8967ffffffffffffffff1681526020019081526020015f206009015f8781526020019081526020015f205f6101000a81548160ff02191690831515021790555050505050505050565b5f805f60025f8667ffffffffffffffff1681526020019081526020015f206002015f9054906101000a900467ffffffffffffffff1667ffffffffffffffff1603611311576040517f08c379a000000000000000000000000000000000000000000000000000000000815260040161130890612c1c565b60405180910390fd5b5f60025f8667ffffffffffffffff1681526020019081526020015f20600a015f8573ffffffffffffffffffffffffffffffffffffffff1673ffffffffffffffffffffffffffffffffffffffff1681526020019081526020015f2054036113ac576040517f08c379a00000000000000000000000000000000000000000000000000000000081526004016113a390612f7c565b60405180910390fd5b60025f8567ffffffffffffffff1681526020019081526020015f206004015460025f8667ffffffffffffffff1681526020019081526020015f2060050154101560025f8667ffffffffffffffff1681526020019081526020015f20600a015f8573ffffffffffffffffffffffffffffffffffffffff1673ffffffffffffffffffffffffffffffffffffffff1681526020019081526020015f2054915091509250929050565b6002602052805f5260405f205f91509050805f015f9054906101000a900473ffffffffffffffffffffffffffffffffffffffff1690806002015f9054906101000a900467ffffffffffffffff1690806003015490806004015490806005015490806008015f9054906101000a900460ff16908060080160019054906101000a900460ff16905087565b5f60025f8967ffffffffffffffff1681526020019081526020015f206002015f9054906101000a900467ffffffffffffffff1667ffffffffffffffff1603611557576040517f08c379a000000000000000000000000000000000000000000000000000000000815260040161154e90612c1c565b60405180910390fd5b60025f8867ffffffffffffffff1681526020019081526020015f2060080160019054906101000a900460ff16156115c3576040517f08c379a00000000000000000000000000000000000000000000000000000000081526004016115ba90612fe4565b60405180910390fd5b60025f8867ffffffffffffffff1681526020019081526020015f205f015f9054906101000a900473ffffffffffffffffffffffffffffffffffffffff1673ffffffffffffffffffffffffffffffffffffffff163373ffffffffffffffffffffffffffffffffffffffff161461166d576040517f08c379a00000000000000000000000000000000000000000000000000000000081526004016116649061304c565b60405180910390fd5b8383905086869050146116b5576040517f08c379a00000000000000000000000000000000000000000000000000000000081526004016116ac906130b4565b60405180910390fd5b8160025f8967ffffffffffffffff1681526020019081526020015f206004015410611715576040517f08c379a000000000000000000000000000000000000000000000000000000000815260040161170c90613142565b60405180910390fd5b60025f8867ffffffffffffffff1681526020019081526020015f2060060180549050868690506117459190612eff565b821115611787576040517f08c379a000000000000000000000000000000000000000000000000000000000815260040161177e906131aa565b60405180910390fd5b5f5b868690508110156118575760025f8967ffffffffffffffff1681526020019081526020015f206006018787838181106117c5576117c4612b3d565b5b90506020020135908060018154018082558091505060019003905f5260205f20015f909190919091505560025f8967ffffffffffffffff1681526020019081526020015f206007018585838181106118205761181f612b3d565b5b90506020020135908060018154018082558091505060019003905f5260205f20015f90919091909150558080600101915050611789565b508060025f8967ffffffffffffffff1681526020019081526020015f2060080160016101000a81548160ff0219169083151502179055508160025f8967ffffffffffffffff1681526020019081526020015f206004018190555050505050505050565b5f60025f8367ffffffffffffffff1681526020019081526020015f206002015f9054906101000a900467ffffffffffffffff1667ffffffffffffffff1603611937576040517f08c379a000000000000000000000000000000000000000000000000000000000815260040161192e90612c1c565b60405180910390fd5b60025f8267ffffffffffffffff1681526020019081526020015f2060080160019054906101000a900460ff166119a2576040517f08c379a000000000000000000000000000000000000000000000000000000000815260040161199990612c84565b60405180910390fd5b60025f8267ffffffffffffffff1681526020019081526020015f206008015f9054906101000a900460ff1615611a0d576040517f08c379a0000000000000000000000000000000000000000000000000000000008152600401611a0490612d41565b60405180910390fd5b60025f8267ffffffffffffffff1681526020019081526020015f206004015460025f8367ffffffffffffffff1681526020019081526020015f20600501541015611a8c576040517f08c379a0000000000000000000000000000000000000000000000000000000008152600401611a8390613212565b60405180910390fd5b600160025f8367ffffffffffffffff1681526020019081526020015f206008015f6101000a81548160ff021916908315150217905550611aca6123db565b5f611ad483610726565b80925081935050505f8160ff1660025f8667ffffffffffffffff1681526020019081526020015f2060030154611b0a919061325d565b90505f5b8260ff168160ff161015611b8757838160ff16600f8110611b3257611b31612b3d565b5b602002015173ffffffffffffffffffffffffffffffffffffffff166108fc8390811502906040515f60405180830381858888f19350505050158015611b79573d5f803e3d5ffd5b508080600101915050611b0e565b5050505050565b5f80600267ffffffffffffffff811115611bab57611baa612b10565b5b604051908082528060200260200182016040528015611bd95781602001602082028036833780820191505090505b50905084815f81518110611bf057611bef612b3d565b5b602002602001018181525050611c046123fe565b5f5b85859050811015611ce657611c5e868683818110611c2757611c26612b3d565b5b905060200201358b8386600286611c3e919061328d565b81518110611c4f57611c4e612b3d565b5b60200260200101518d8d611d22565b9150898b835f0151846020015185604001518660600151604051602001611c8a96959493929190613356565b604051602081830303815290604052805190602001205f1c836002600184611cb29190612eff565b611cbc919061328d565b81518110611ccd57611ccc612b3d565b5b6020026020010181815250508080600101915050611c06565b508582600287879050611cf9919061328d565b81518110611d0a57611d09612b3d565b5b60200260200101511492505050979650505050505050565b611d2a6123fe565b611d326123fe565b611d3e88888888611d7d565b825f018360200182815250828152505050611d5d888888888888611fea565b826040018360600182815250828152505050809150509695505050505050565b5f805f805f805f8054906101000a900473ffffffffffffffffffffffffffffffffffffffff1673ffffffffffffffffffffffffffffffffffffffff1663464cb7498b6040518263ffffffff1660e01b8152600401611ddb91906133c5565b6040805180830381865afa158015611df5573d5f803e3d5ffd5b505050506040513d601f19601f82011682018060405250810190611e1991906133f2565b80945081955050505f8054906101000a900473ffffffffffffffffffffffffffffffffffffffff1673ffffffffffffffffffffffffffffffffffffffff1663fb88954d60025f8c67ffffffffffffffff1681526020019081526020015f206006018a81548110611e8c57611e8b612b3d565b5b905f5260205f20015460025f8d67ffffffffffffffff1681526020019081526020015f206007018b81548110611ec557611ec4612b3d565b5b905f5260205f2001548a6040518463ffffffff1660e01b8152600401611eed93929190613430565b6040805180830381865afa158015611f07573d5f803e3d5ffd5b505050506040513d601f19601f82011682018060405250810190611f2b91906133f2565b80925081935050505f8054906101000a900473ffffffffffffffffffffffffffffffffffffffff1673ffffffffffffffffffffffffffffffffffffffff166339cd1f40858585856040518563ffffffff1660e01b8152600401611f919493929190613465565b6040805180830381865afa158015611fab573d5f803e3d5ffd5b505050506040513d601f19601f82011682018060405250810190611fcf91906133f2565b80945081955050508383955095505050505094509492505050565b5f805f805f805f8054906101000a900473ffffffffffffffffffffffffffffffffffffffff1673ffffffffffffffffffffffffffffffffffffffff16637f77a40c60025f8e67ffffffffffffffff1681526020019081526020015f206006018c8154811061205b5761205a612b3d565b5b905f5260205f20015460025f8f67ffffffffffffffff1681526020019081526020015f206007018d8154811061209457612093612b3d565b5b905f5260205f2001546040518363ffffffff1660e01b81526004016120ba9291906134a8565b6040805180830381865afa1580156120d4573d5f803e3d5ffd5b505050506040513d601f19601f820116820180604052508101906120f891906133f2565b80945081955050505f8054906101000a900473ffffffffffffffffffffffffffffffffffffffff1673ffffffffffffffffffffffffffffffffffffffff1663fb88954d85858f6040518463ffffffff1660e01b815260040161215c93929190613430565b6040805180830381865afa158015612176573d5f803e3d5ffd5b505050506040513d601f19601f8201168201806040525081019061219a91906133f2565b80945081955050505f8054906101000a900473ffffffffffffffffffffffffffffffffffffffff1673ffffffffffffffffffffffffffffffffffffffff1663fb88954d89898c6040518463ffffffff1660e01b81526004016121fe93929190613430565b6040805180830381865afa158015612218573d5f803e3d5ffd5b505050506040513d601f19601f8201168201806040525081019061223c91906133f2565b80925081935050505f8054906101000a900473ffffffffffffffffffffffffffffffffffffffff1673ffffffffffffffffffffffffffffffffffffffff166339cd1f40858585856040518563ffffffff1660e01b81526004016122a29493929190613465565b6040805180830381865afa1580156122bc573d5f803e3d5ffd5b505050506040513d601f19601f820116820180604052508101906122e091906133f2565b9550955050505050965096945050505050565b828054828255905f5260205f2090810192821561237f579160200282015b8281111561237e57823573ffffffffffffffffffffffffffffffffffffffff16825f6101000a81548173ffffffffffffffffffffffffffffffffffffffff021916908373ffffffffffffffffffffffffffffffffffffffff16021790555091602001919060010190612311565b5b50905061238c9190612422565b5090565b828054828255905f5260205f209081019282156123ca579160200282015b828111156123c95782518255916020019190600101906123ae565b5b5090506123d79190612422565b5090565b604051806101e00160405280600f90602082028036833780820191505090505090565b60405180608001604052805f81526020015f81526020015f81526020015f81525090565b5b80821115612439575f815f905550600101612423565b5090565b5f80fd5b5f80fd5b5f67ffffffffffffffff82169050919050565b61246181612445565b811461246b575f80fd5b50565b5f8135905061247c81612458565b92915050565b5f80fd5b5f80fd5b5f80fd5b5f8083601f8401126124a3576124a2612482565b5b8235905067ffffffffffffffff8111156124c0576124bf612486565b5b6020830191508360208202830111156124dc576124db61248a565b5b9250929050565b5f805f604084860312156124fa576124f961243d565b5b5f6125078682870161246e565b935050602084013567ffffffffffffffff81111561252857612527612441565b5b6125348682870161248e565b92509250509250925092565b5f73ffffffffffffffffffffffffffffffffffffffff82169050919050565b5f61256982612540565b9050919050565b6125798161255f565b8114612583575f80fd5b50565b5f8135905061259481612570565b92915050565b5f602082840312156125af576125ae61243d565b5b5f6125bc84828501612586565b91505092915050565b5f602082840312156125da576125d961243d565b5b5f6125e78482850161246e565b91505092915050565b5f600f9050919050565b5f81905092915050565b5f819050919050565b6126168161255f565b82525050565b5f612627838361260d565b60208301905092915050565b5f602082019050919050565b612648816125f0565b61265281846125fa565b925061265d82612604565b805f5b8381101561268d578151612674878261261c565b965061267f83612633565b925050600181019050612660565b505050505050565b5f60ff82169050919050565b6126aa81612695565b82525050565b5f610200820190506126c45f83018561263f565b6126d26101e08301846126a1565b9392505050565b5f819050919050565b6126eb816126d9565b81146126f5575f80fd5b50565b5f81359050612706816126e2565b92915050565b5f8083601f84011261272157612720612482565b5b8235905067ffffffffffffffff81111561273e5761273d612486565b5b60208301915083602082028301111561275a5761275961248a565b5b9250929050565b5f805f805f805f60c0888a03121561277c5761277b61243d565b5b5f6127898a828b0161246e565b975050602061279a8a828b01612586565b96505060406127ab8a828b016126f8565b95505060606127bc8a828b016126f8565b94505060806127cd8a828b016126f8565b93505060a088013567ffffffffffffffff8111156127ee576127ed612441565b5b6127fa8a828b0161270c565b925092505092959891949750929550565b5f80604083850312156128215761282061243d565b5b5f61282e8582860161246e565b925050602061283f85828601612586565b9150509250929050565b5f8115159050919050565b61285d81612849565b82525050565b61286c816126d9565b82525050565b5f6040820190506128855f830185612854565b6128926020830184612863565b9392505050565b5f602082840312156128ae576128ad61243d565b5b5f6128bb848285016126f8565b91505092915050565b6128cd8161255f565b82525050565b6128dc81612445565b82525050565b5f60e0820190506128f55f83018a6128c4565b61290260208301896128d3565b61290f6040830188612863565b61291c6060830187612863565b6129296080830186612863565b61293660a0830185612854565b61294360c0830184612854565b98975050505050505050565b61295881612849565b8114612962575f80fd5b50565b5f813590506129738161294f565b92915050565b5f805f805f805f60a0888a0312156129945761299361243d565b5b5f6129a18a828b0161246e565b975050602088013567ffffffffffffffff8111156129c2576129c1612441565b5b6129ce8a828b0161270c565b9650965050604088013567ffffffffffffffff8111156129f1576129f0612441565b5b6129fd8a828b0161270c565b94509450506060612a108a828b016126f8565b9250506080612a218a828b01612965565b91505092959891949750929550565b5f82825260208201905092915050565b7f566f74652077697468207468697320494420616c7265616479206578697374735f82015250565b5f612a74602083612a30565b9150612a7f82612a40565b602082019050919050565b5f6020820190508181035f830152612aa181612a68565b9050919050565b7f496e76616c6964204944000000000000000000000000000000000000000000005f82015250565b5f612adc600a83612a30565b9150612ae782612aa8565b602082019050919050565b5f6020820190508181035f830152612b0981612ad0565b9050919050565b7f4e487b71000000000000000000000000000000000000000000000000000000005f52604160045260245ffd5b7f4e487b71000000000000000000000000000000000000000000000000000000005f52603260045260245ffd5b7f4f6e6c79206f776e657220616c6c6f77656400000000000000000000000000005f82015250565b5f612b9e601283612a30565b9150612ba982612b6a565b602082019050919050565b5f6020820190508181035f830152612bcb81612b92565b9050919050565b7f566f746520646f6573206e6f74206578697374000000000000000000000000005f82015250565b5f612c06601383612a30565b9150612c1182612bd2565b602082019050919050565b5f6020820190508181035f830152612c3381612bfa565b9050919050565b7f566f7465206973206e6f742072656164790000000000000000000000000000005f82015250565b5f612c6e601183612a30565b9150612c7982612c3a565b602082019050919050565b5f6020820190508181035f830152612c9b81612c62565b9050919050565b7f4e487b71000000000000000000000000000000000000000000000000000000005f52601160045260245ffd5b5f612cd982612695565b915060ff8203612cec57612ceb612ca2565b5b600182019050919050565b7f566f746520697320616c726561647920636f6d706c65746564000000000000005f82015250565b5f612d2b601983612a30565b9150612d3682612cf7565b602082019050919050565b5f6020820190508181035f830152612d5881612d1f565b9050919050565b7f496e76616c6964207369676e6174757265206c656e67746800000000000000005f82015250565b5f612d93601883612a30565b9150612d9e82612d5f565b602082019050919050565b5f6020820190508181035f830152612dc081612d87565b9050919050565b7f496e76616c69642063616e6469646174650000000000000000000000000000005f82015250565b5f612dfb601183612a30565b9150612e0682612dc7565b602082019050919050565b5f6020820190508181035f830152612e2881612def565b9050919050565b7f566f746520616c726561647920636173740000000000000000000000000000005f82015250565b5f612e63601183612a30565b9150612e6e82612e2f565b602082019050919050565b5f6020820190508181035f830152612e9081612e57565b9050919050565b7f496e76616c6964207369676e61747572650000000000000000000000000000005f82015250565b5f612ecb601183612a30565b9150612ed682612e97565b602082019050919050565b5f6020820190508181035f830152612ef881612ebf565b9050919050565b5f612f09826126d9565b9150612f14836126d9565b9250828201905080821115612f2c57612f2b612ca2565b5b92915050565b7f43616e646964617465206e6f7420666f756e64000000000000000000000000005f82015250565b5f612f66601383612a30565b9150612f7182612f32565b602082019050919050565b5f6020820190508181035f830152612f9381612f5a565b9050919050565b7f566f746520697320616c726561647920726561647900000000000000000000005f82015250565b5f612fce601583612a30565b9150612fd982612f9a565b602082019050919050565b5f6020820190508181035f830152612ffb81612fc2565b9050919050565b7f4f6e6c79207468652063726561746f722063616e2061646420766f74657273005f82015250565b5f613036601f83612a30565b915061304182613002565b602082019050919050565b5f6020820190508181035f8301526130638161302a565b9050919050565b7f496e76616c696420766f7465727320636f6f7264696e617465730000000000005f82015250565b5f61309e601a83612a30565b91506130a98261306a565b602082019050919050565b5f6020820190508181035f8301526130cb81613092565b9050919050565b7f4e6577207468726573686f6c64206d75737420626520677265617465722074685f8201527f616e2063757272656e74207468726573686f6c64000000000000000000000000602082015250565b5f61312c603483612a30565b9150613137826130d2565b604082019050919050565b5f6020820190508181035f83015261315981613120565b9050919050565b7f5468726573686f6c64206578636565647320616c6c6f77656420766f746572735f82015250565b5f613194602083612a30565b915061319f82613160565b602082019050919050565b5f6020820190508181035f8301526131c181613188565b9050919050565b7f4e6f7420656e6f75676820766f746573000000000000000000000000000000005f82015250565b5f6131fc601083612a30565b9150613207826131c8565b602082019050919050565b5f6020820190508181035f830152613229816131f0565b9050919050565b7f4e487b71000000000000000000000000000000000000000000000000000000005f52601260045260245ffd5b5f613267826126d9565b9150613272836126d9565b92508261328257613281613230565b5b828204905092915050565b5f613297826126d9565b91506132a2836126d9565b9250826132b2576132b1613230565b5b828206905092915050565b5f8160c01b9050919050565b5f6132d3826132bd565b9050919050565b6132eb6132e682612445565b6132c9565b82525050565b5f8160601b9050919050565b5f613307826132f1565b9050919050565b5f613318826132fd565b9050919050565b61333061332b8261255f565b61330e565b82525050565b5f819050919050565b61335061334b826126d9565b613336565b82525050565b5f61336182896132da565b600882019150613371828861331f565b601482019150613381828761333f565b602082019150613391828661333f565b6020820191506133a1828561333f565b6020820191506133b1828461333f565b602082019150819050979650505050505050565b5f6020820190506133d85f830184612863565b92915050565b5f815190506133ec816126e2565b92915050565b5f80604083850312156134085761340761243d565b5b5f613415858286016133de565b9250506020613426858286016133de565b9150509250929050565b5f6060820190506134435f830186612863565b6134506020830185612863565b61345d6040830184612863565b949350505050565b5f6080820190506134785f830187612863565b6134856020830186612863565b6134926040830185612863565b61349f6060830184612863565b95945050505050565b5f6040820190506134bb5f830185612863565b6134c86020830184612863565b939250505056fea26469706673582212201bf189dc7a745dec4397cdbb707cc7ff436bdd027362e9fabe8fd85b82dd306a64736f6c63430008160033",
					"opcodes": "PUSH1 0x80 PUSH1 0x40 MSTORE CALLVALUE DUP1 ISZERO PUSH3 0x10 JUMPI PUSH0 DUP1 REVERT JUMPDEST POP PUSH1 0x40 MLOAD PUSH3 0x3753 CODESIZE SUB DUP1 PUSH3 0x3753 DUP4 CODECOPY DUP2 DUP2 ADD PUSH1 0x40 MSTORE DUP2 ADD SWAP1 PUSH3 0x36 SWAP2 SWAP1 PUSH3 0x192 JUMP JUMPDEST PUSH0 PUSH20 0xFFFFFFFFFFFFFFFFFFFFFFFFFFFFFFFFFFFFFFFF AND DUP2 PUSH20 0xFFFFFFFFFFFFFFFFFFFFFFFFFFFFFFFFFFFFFFFF AND SUB PUSH3 0xA7 JUMPI PUSH1 0x40 MLOAD PUSH32 0x8C379A000000000000000000000000000000000000000000000000000000000 DUP2 MSTORE PUSH1 0x4 ADD PUSH3 0x9E SWAP1 PUSH3 0x220 JUMP JUMPDEST PUSH1 0x40 MLOAD DUP1 SWAP2 SUB SWAP1 REVERT JUMPDEST DUP1 PUSH0 DUP1 PUSH2 0x100 EXP DUP2 SLOAD DUP2 PUSH20 0xFFFFFFFFFFFFFFFFFFFFFFFFFFFFFFFFFFFFFFFF MUL NOT AND SWAP1 DUP4 PUSH20 0xFFFFFFFFFFFFFFFFFFFFFFFFFFFFFFFFFFFFFFFF AND MUL OR SWAP1 SSTORE POP CALLER PUSH1 0x1 PUSH0 PUSH2 0x100 EXP DUP2 SLOAD DUP2 PUSH20 0xFFFFFFFFFFFFFFFFFFFFFFFFFFFFFFFFFFFFFFFF MUL NOT AND SWAP1 DUP4 PUSH20 0xFFFFFFFFFFFFFFFFFFFFFFFFFFFFFFFFFFFFFFFF AND MUL OR SWAP1 SSTORE POP POP PUSH3 0x240 JUMP JUMPDEST PUSH0 DUP1 REVERT JUMPDEST PUSH0 PUSH20 0xFFFFFFFFFFFFFFFFFFFFFFFFFFFFFFFFFFFFFFFF DUP3 AND SWAP1 POP SWAP2 SWAP1 POP JUMP JUMPDEST PUSH0 PUSH3 0x15C DUP3 PUSH3 0x131 JUMP JUMPDEST SWAP1 POP SWAP2 SWAP1 POP JUMP JUMPDEST PUSH3 0x16E DUP2 PUSH3 0x150 JUMP JUMPDEST DUP2 EQ PUSH3 0x179 JUMPI PUSH0 DUP1 REVERT JUMPDEST POP JUMP JUMPDEST PUSH0 DUP2 MLOAD SWAP1 POP PUSH3 0x18C DUP2 PUSH3 0x163 JUMP JUMPDEST SWAP3 SWAP2 POP POP JUMP JUMPDEST PUSH0 PUSH1 0x20 DUP3 DUP5 SUB SLT ISZERO PUSH3 0x1AA JUMPI PUSH3 0x1A9 PUSH3 0x12D JUMP JUMPDEST JUMPDEST PUSH0 PUSH3 0x1B9 DUP5 DUP3 DUP6 ADD PUSH3 0x17C JUMP JUMPDEST SWAP2 POP POP SWAP3 SWAP2 POP POP JUMP JUMPDEST PUSH0 DUP3 DUP3 MSTORE PUSH1 0x20 DUP3 ADD SWAP1 POP SWAP3 SWAP2 POP POP JUMP JUMPDEST PUSH32 0x496E76616C69642063757276652064657374696E6174696F6E00000000000000 PUSH0 DUP3 ADD MSTORE POP JUMP JUMPDEST PUSH0 PUSH3 0x208 PUSH1 0x19 DUP4 PUSH3 0x1C2 JUMP JUMPDEST SWAP2 POP PUSH3 0x215 DUP3 PUSH3 0x1D2 JUMP JUMPDEST PUSH1 0x20 DUP3 ADD SWAP1 POP SWAP2 SWAP1 POP JUMP JUMPDEST PUSH0 PUSH1 0x20 DUP3 ADD SWAP1 POP DUP2 DUP2 SUB PUSH0 DUP4 ADD MSTORE PUSH3 0x239 DUP2 PUSH3 0x1FA JUMP JUMPDEST SWAP1 POP SWAP2 SWAP1 POP JUMP JUMPDEST PUSH2 0x3505 DUP1 PUSH3 0x24E PUSH0 CODECOPY PUSH0 RETURN INVALID PUSH1 0x80 PUSH1 0x40 MSTORE PUSH1 0x4 CALLDATASIZE LT PUSH2 0x85 JUMPI PUSH0 CALLDATALOAD PUSH1 0xE0 SHR DUP1 PUSH4 0x9E5515A8 GT PUSH2 0x58 JUMPI DUP1 PUSH4 0x9E5515A8 EQ PUSH2 0x120 JUMPI DUP1 PUSH4 0x9F7AA8F4 EQ PUSH2 0x13C JUMPI DUP1 PUSH4 0xA598D03C EQ PUSH2 0x179 JUMPI DUP1 PUSH4 0xC4F788E9 EQ PUSH2 0x1BB JUMPI DUP1 PUSH4 0xE5DB95E3 EQ PUSH2 0x1E3 JUMPI PUSH2 0x85 JUMP JUMPDEST DUP1 PUSH4 0x24B4CDC7 EQ PUSH2 0x89 JUMPI DUP1 PUSH4 0x3B2A537C EQ PUSH2 0xA5 JUMPI DUP1 PUSH4 0x61450B52 EQ PUSH2 0xCD JUMPI DUP1 PUSH4 0x8BCD8056 EQ PUSH2 0x10A JUMPI JUMPDEST PUSH0 DUP1 REVERT JUMPDEST PUSH2 0xA3 PUSH1 0x4 DUP1 CALLDATASIZE SUB DUP2 ADD SWAP1 PUSH2 0x9E SWAP2 SWAP1 PUSH2 0x24E3 JUMP JUMPDEST PUSH2 0x20B JUMP JUMPDEST STOP JUMPDEST CALLVALUE DUP1 ISZERO PUSH2 0xB0 JUMPI PUSH0 DUP1 REVERT JUMPDEST POP PUSH2 0xCB PUSH1 0x4 DUP1 CALLDATASIZE SUB DUP2 ADD SWAP1 PUSH2 0xC6 SWAP2 SWAP1 PUSH2 0x259A JUMP JUMPDEST PUSH2 0x655 JUMP JUMPDEST STOP JUMPDEST CALLVALUE DUP1 ISZERO PUSH2 0xD8 JUMPI PUSH0 DUP1 REVERT JUMPDEST POP PUSH2 0xF3 PUSH1 0x4 DUP1 CALLDATASIZE SUB DUP2 ADD SWAP1 PUSH2 0xEE SWAP2 SWAP1 PUSH2 0x25C5 JUMP JUMPDEST PUSH2 0x726 JUMP JUMPDEST PUSH1 0x40 MLOAD PUSH2 0x101 SWAP3 SWAP2 SWAP1 PUSH2 0x26B0 JUMP JUMPDEST PUSH1 0x40 MLOAD DUP1 SWAP2 SUB SWAP1 RETURN JUMPDEST CALLVALUE DUP1 ISZERO PUSH2 0x115 JUMPI PUSH0 DUP1 REVERT JUMPDEST POP PUSH2 0x11E PUSH2 0xD52 JUMP JUMPDEST STOP JUMPDEST PUSH2 0x13A PUSH1 0x4 DUP1 CALLDATASIZE SUB DUP2 ADD SWAP1 PUSH2 0x135 SWAP2 SWAP1 PUSH2 0x2761 JUMP JUMPDEST PUSH2 0xE48 JUMP JUMPDEST STOP JUMPDEST CALLVALUE DUP1 ISZERO PUSH2 0x147 JUMPI PUSH0 DUP1 REVERT JUMPDEST POP PUSH2 0x162 PUSH1 0x4 DUP1 CALLDATASIZE SUB DUP2 ADD SWAP1 PUSH2 0x15D SWAP2 SWAP1 PUSH2 0x280B JUMP JUMPDEST PUSH2 0x1292 JUMP JUMPDEST PUSH1 0x40 MLOAD PUSH2 0x170 SWAP3 SWAP2 SWAP1 PUSH2 0x2872 JUMP JUMPDEST PUSH1 0x40 MLOAD DUP1 SWAP2 SUB SWAP1 RETURN JUMPDEST CALLVALUE DUP1 ISZERO PUSH2 0x184 JUMPI PUSH0 DUP1 REVERT JUMPDEST POP PUSH2 0x19F PUSH1 0x4 DUP1 CALLDATASIZE SUB DUP2 ADD SWAP1 PUSH2 0x19A SWAP2 SWAP1 PUSH2 0x2899 JUMP JUMPDEST PUSH2 0x1451 JUMP JUMPDEST PUSH1 0x40 MLOAD PUSH2 0x1B2 SWAP8 SWAP7 SWAP6 SWAP5 SWAP4 SWAP3 SWAP2 SWAP1 PUSH2 0x28E2 JUMP JUMPDEST PUSH1 0x40 MLOAD DUP1 SWAP2 SUB SWAP1 RETURN JUMPDEST CALLVALUE DUP1 ISZERO PUSH2 0x1C6 JUMPI PUSH0 DUP1 REVERT JUMPDEST POP PUSH2 0x1E1 PUSH1 0x4 DUP1 CALLDATASIZE SUB DUP2 ADD SWAP1 PUSH2 0x1DC SWAP2 SWAP1 PUSH2 0x2979 JUMP JUMPDEST PUSH2 0x14DA JUMP JUMPDEST STOP JUMPDEST CALLVALUE DUP1 ISZERO PUSH2 0x1EE JUMPI PUSH0 DUP1 REVERT JUMPDEST POP PUSH2 0x209 PUSH1 0x4 DUP1 CALLDATASIZE SUB DUP2 ADD SWAP1 PUSH2 0x204 SWAP2 SWAP1 PUSH2 0x25C5 JUMP JUMPDEST PUSH2 0x18BA JUMP JUMPDEST STOP JUMPDEST PUSH0 PUSH1 0x2 PUSH0 DUP6 PUSH8 0xFFFFFFFFFFFFFFFF AND DUP2 MSTORE PUSH1 0x20 ADD SWAP1 DUP2 MSTORE PUSH1 0x20 ADD PUSH0 KECCAK256 PUSH1 0x2 ADD PUSH0 SWAP1 SLOAD SWAP1 PUSH2 0x100 EXP SWAP1 DIV PUSH8 0xFFFFFFFFFFFFFFFF AND PUSH8 0xFFFFFFFFFFFFFFFF AND EQ PUSH2 0x288 JUMPI PUSH1 0x40 MLOAD PUSH32 0x8C379A000000000000000000000000000000000000000000000000000000000 DUP2 MSTORE PUSH1 0x4 ADD PUSH2 0x27F SWAP1 PUSH2 0x2A8A JUMP JUMPDEST PUSH1 0x40 MLOAD DUP1 SWAP2 SUB SWAP1 REVERT JUMPDEST PUSH0 DUP4 PUSH8 0xFFFFFFFFFFFFFFFF AND SUB PUSH2 0x2D4 JUMPI PUSH1 0x40 MLOAD PUSH32 0x8C379A000000000000000000000000000000000000000000000000000000000 DUP2 MSTORE PUSH1 0x4 ADD PUSH2 0x2CB SWAP1 PUSH2 0x2AF2 JUMP JUMPDEST PUSH1 0x40 MLOAD DUP1 SWAP2 SUB SWAP1 REVERT JUMPDEST CALLER PUSH1 0x2 PUSH0 DUP6 PUSH8 0xFFFFFFFFFFFFFFFF AND DUP2 MSTORE PUSH1 0x20 ADD SWAP1 DUP2 MSTORE PUSH1 0x20 ADD PUSH0 KECCAK256 PUSH0 ADD PUSH0 PUSH2 0x100 EXP DUP2 SLOAD DUP2 PUSH20 0xFFFFFFFFFFFFFFFFFFFFFFFFFFFFFFFFFFFFFFFF MUL NOT AND SWAP1 DUP4 PUSH20 0xFFFFFFFFFFFFFFFFFFFFFFFFFFFFFFFFFFFFFFFF AND MUL OR SWAP1 SSTORE POP DUP2 DUP2 PUSH1 0x2 PUSH0 DUP7 PUSH8 0xFFFFFFFFFFFFFFFF AND DUP2 MSTORE PUSH1 0x20 ADD SWAP1 DUP2 MSTORE PUSH1 0x20 ADD PUSH0 KECCAK256 PUSH1 0x1 ADD SWAP2 SWAP1 PUSH2 0x35C SWAP3 SWAP2 SWAP1 PUSH2 0x22F3 JUMP JUMPDEST POP DUP3 PUSH1 0x2 PUSH0 DUP6 PUSH8 0xFFFFFFFFFFFFFFFF AND DUP2 MSTORE PUSH1 0x20 ADD SWAP1 DUP2 MSTORE PUSH1 0x20 ADD PUSH0 KECCAK256 PUSH1 0x2 ADD PUSH0 PUSH2 0x100 EXP DUP2 SLOAD DUP2 PUSH8 0xFFFFFFFFFFFFFFFF MUL NOT AND SWAP1 DUP4 PUSH8 0xFFFFFFFFFFFFFFFF AND MUL OR SWAP1 SSTORE POP CALLVALUE PUSH1 0x2 PUSH0 DUP6 PUSH8 0xFFFFFFFFFFFFFFFF AND DUP2 MSTORE PUSH1 0x20 ADD SWAP1 DUP2 MSTORE PUSH1 0x20 ADD PUSH0 KECCAK256 PUSH1 0x3 ADD DUP2 SWAP1 SSTORE POP PUSH1 0x1 PUSH1 0x2 PUSH0 DUP6 PUSH8 0xFFFFFFFFFFFFFFFF AND DUP2 MSTORE PUSH1 0x20 ADD SWAP1 DUP2 MSTORE PUSH1 0x20 ADD PUSH0 KECCAK256 PUSH1 0x4 ADD DUP2 SWAP1 SSTORE POP PUSH0 PUSH8 0xFFFFFFFFFFFFFFFF DUP2 GT ISZERO PUSH2 0x402 JUMPI PUSH2 0x401 PUSH2 0x2B10 JUMP JUMPDEST JUMPDEST PUSH1 0x40 MLOAD SWAP1 DUP1 DUP3 MSTORE DUP1 PUSH1 0x20 MUL PUSH1 0x20 ADD DUP3 ADD PUSH1 0x40 MSTORE DUP1 ISZERO PUSH2 0x430 JUMPI DUP2 PUSH1 0x20 ADD PUSH1 0x20 DUP3 MUL DUP1 CALLDATASIZE DUP4 CALLDATACOPY DUP1 DUP3 ADD SWAP2 POP POP SWAP1 POP JUMPDEST POP PUSH1 0x2 PUSH0 DUP6 PUSH8 0xFFFFFFFFFFFFFFFF AND DUP2 MSTORE PUSH1 0x20 ADD SWAP1 DUP2 MSTORE PUSH1 0x20 ADD PUSH0 KECCAK256 PUSH1 0x6 ADD SWAP1 DUP1 MLOAD SWAP1 PUSH1 0x20 ADD SWAP1 PUSH2 0x462 SWAP3 SWAP2 SWAP1 PUSH2 0x2390 JUMP JUMPDEST POP PUSH0 PUSH8 0xFFFFFFFFFFFFFFFF DUP2 GT ISZERO PUSH2 0x47D JUMPI PUSH2 0x47C PUSH2 0x2B10 JUMP JUMPDEST JUMPDEST PUSH1 0x40 MLOAD SWAP1 DUP1 DUP3 MSTORE DUP1 PUSH1 0x20 MUL PUSH1 0x20 ADD DUP3 ADD PUSH1 0x40 MSTORE DUP1 ISZERO PUSH2 0x4AB JUMPI DUP2 PUSH1 0x20 ADD PUSH1 0x20 DUP3 MUL DUP1 CALLDATASIZE DUP4 CALLDATACOPY DUP1 DUP3 ADD SWAP2 POP POP SWAP1 POP JUMPDEST POP PUSH1 0x2 PUSH0 DUP6 PUSH8 0xFFFFFFFFFFFFFFFF AND DUP2 MSTORE PUSH1 0x20 ADD SWAP1 DUP2 MSTORE PUSH1 0x20 ADD PUSH0 KECCAK256 PUSH1 0x7 ADD SWAP1 DUP1 MLOAD SWAP1 PUSH1 0x20 ADD SWAP1 PUSH2 0x4DD SWAP3 SWAP2 SWAP1 PUSH2 0x2390 JUMP JUMPDEST POP PUSH0 PUSH1 0x2 PUSH0 DUP6 PUSH8 0xFFFFFFFFFFFFFFFF AND DUP2 MSTORE PUSH1 0x20 ADD SWAP1 DUP2 MSTORE PUSH1 0x20 ADD PUSH0 KECCAK256 PUSH1 0x8 ADD PUSH0 PUSH2 0x100 EXP DUP2 SLOAD DUP2 PUSH1 0xFF MUL NOT AND SWAP1 DUP4 ISZERO ISZERO MUL OR SWAP1 SSTORE POP PUSH0 PUSH1 0x2 PUSH0 DUP6 PUSH8 0xFFFFFFFFFFFFFFFF AND DUP2 MSTORE PUSH1 0x20 ADD SWAP1 DUP2 MSTORE PUSH1 0x20 ADD PUSH0 KECCAK256 PUSH1 0x8 ADD PUSH1 0x1 PUSH2 0x100 EXP DUP2 SLOAD DUP2 PUSH1 0xFF MUL NOT AND SWAP1 DUP4 ISZERO ISZERO MUL OR SWAP1 SSTORE POP PUSH0 JUMPDEST DUP3 DUP3 SWAP1 POP DUP2 LT ISZERO PUSH2 0x64F JUMPI PUSH0 DUP4 DUP4 DUP4 DUP2 DUP2 LT PUSH2 0x56A JUMPI PUSH2 0x569 PUSH2 0x2B3D JUMP JUMPDEST JUMPDEST SWAP1 POP PUSH1 0x20 MUL ADD PUSH1 0x20 DUP2 ADD SWAP1 PUSH2 0x57F SWAP2 SWAP1 PUSH2 0x259A JUMP JUMPDEST SWAP1 POP PUSH0 PUSH1 0x2 PUSH0 DUP8 PUSH8 0xFFFFFFFFFFFFFFFF AND DUP2 MSTORE PUSH1 0x20 ADD SWAP1 DUP2 MSTORE PUSH1 0x20 ADD PUSH0 KECCAK256 PUSH1 0xA ADD PUSH0 DUP4 PUSH20 0xFFFFFFFFFFFFFFFFFFFFFFFFFFFFFFFFFFFFFFFF AND PUSH20 0xFFFFFFFFFFFFFFFFFFFFFFFFFFFFFFFFFFFFFFFF AND DUP2 MSTORE PUSH1 0x20 ADD SWAP1 DUP2 MSTORE PUSH1 0x20 ADD PUSH0 KECCAK256 SLOAD SUB PUSH2 0x641 JUMPI PUSH1 0x1 PUSH1 0x2 PUSH0 DUP8 PUSH8 0xFFFFFFFFFFFFFFFF AND DUP2 MSTORE PUSH1 0x20 ADD SWAP1 DUP2 MSTORE PUSH1 0x20 ADD PUSH0 KECCAK256 PUSH1 0xA ADD PUSH0 DUP4 PUSH20 0xFFFFFFFFFFFFFFFFFFFFFFFFFFFFFFFFFFFFFFFF AND PUSH20 0xFFFFFFFFFFFFFFFFFFFFFFFFFFFFFFFFFFFFFFFF AND DUP2 MSTORE PUSH1 0x20 ADD SWAP1 DUP2 MSTORE PUSH1 0x20 ADD PUSH0 KECCAK256 DUP2 SWAP1 SSTORE POP JUMPDEST POP DUP1 DUP1 PUSH1 0x1 ADD SWAP2 POP POP PUSH2 0x54B JUMP JUMPDEST POP POP POP POP JUMP JUMPDEST PUSH1 0x1 PUSH0 SWAP1 SLOAD SWAP1 PUSH2 0x100 EXP SWAP1 DIV PUSH20 0xFFFFFFFFFFFFFFFFFFFFFFFFFFFFFFFFFFFFFFFF AND PUSH20 0xFFFFFFFFFFFFFFFFFFFFFFFFFFFFFFFFFFFFFFFF AND CALLER PUSH20 0xFFFFFFFFFFFFFFFFFFFFFFFFFFFFFFFFFFFFFFFF AND EQ PUSH2 0x6E4 JUMPI PUSH1 0x40 MLOAD PUSH32 0x8C379A000000000000000000000000000000000000000000000000000000000 DUP2 MSTORE PUSH1 0x4 ADD PUSH2 0x6DB SWAP1 PUSH2 0x2BB4 JUMP JUMPDEST PUSH1 0x40 MLOAD DUP1 SWAP2 SUB SWAP1 REVERT JUMPDEST DUP1 PUSH0 DUP1 PUSH2 0x100 EXP DUP2 SLOAD DUP2 PUSH20 0xFFFFFFFFFFFFFFFFFFFFFFFFFFFFFFFFFFFFFFFF MUL NOT AND SWAP1 DUP4 PUSH20 0xFFFFFFFFFFFFFFFFFFFFFFFFFFFFFFFFFFFFFFFF AND MUL OR SWAP1 SSTORE POP POP JUMP JUMPDEST PUSH2 0x72E PUSH2 0x23DB JUMP JUMPDEST PUSH0 DUP1 PUSH1 0x2 PUSH0 DUP6 PUSH8 0xFFFFFFFFFFFFFFFF AND DUP2 MSTORE PUSH1 0x20 ADD SWAP1 DUP2 MSTORE PUSH1 0x20 ADD PUSH0 KECCAK256 PUSH1 0x2 ADD PUSH0 SWAP1 SLOAD SWAP1 PUSH2 0x100 EXP SWAP1 DIV PUSH8 0xFFFFFFFFFFFFFFFF AND PUSH8 0xFFFFFFFFFFFFFFFF AND SUB PUSH2 0x7AC JUMPI PUSH1 0x40 MLOAD PUSH32 0x8C379A000000000000000000000000000000000000000000000000000000000 DUP2 MSTORE PUSH1 0x4 ADD PUSH2 0x7A3 SWAP1 PUSH2 0x2C1C JUMP JUMPDEST PUSH1 0x40 MLOAD DUP1 SWAP2 SUB SWAP1 REVERT JUMPDEST PUSH1 0x2 PUSH0 DUP5 PUSH8 0xFFFFFFFFFFFFFFFF AND DUP2 MSTORE PUSH1 0x20 ADD SWAP1 DUP2 MSTORE PUSH1 0x20 ADD PUSH0 KECCAK256 PUSH1 0x8 ADD PUSH1 0x1 SWAP1 SLOAD SWAP1 PUSH2 0x100 EXP SWAP1 DIV PUSH1 0xFF AND PUSH2 0x817 JUMPI PUSH1 0x40 MLOAD PUSH32 0x8C379A000000000000000000000000000000000000000000000000000000000 DUP2 MSTORE PUSH1 0x4 ADD PUSH2 0x80E SWAP1 PUSH2 0x2C84 JUMP JUMPDEST PUSH1 0x40 MLOAD DUP1 SWAP2 SUB SWAP1 REVERT JUMPDEST PUSH0 PUSH2 0x820 PUSH2 0x23DB JUMP JUMPDEST PUSH0 PUSH1 0x1 SWAP1 POP PUSH0 JUMPDEST PUSH1 0x2 PUSH0 DUP9 PUSH8 0xFFFFFFFFFFFFFFFF AND DUP2 MSTORE PUSH1 0x20 ADD SWAP1 DUP2 MSTORE PUSH1 0x20 ADD PUSH0 KECCAK256 PUSH1 0x1 ADD DUP1 SLOAD SWAP1 POP DUP2 LT ISZERO PUSH2 0xD43 JUMPI PUSH0 PUSH1 0x2 PUSH0 DUP10 PUSH8 0xFFFFFFFFFFFFFFFF AND DUP2 MSTORE PUSH1 0x20 ADD SWAP1 DUP2 MSTORE PUSH1 0x20 ADD PUSH0 KECCAK256 PUSH1 0xA ADD PUSH0 PUSH1 0x2 PUSH0 DUP12 PUSH8 0xFFFFFFFFFFFFFFFF AND DUP2 MSTORE PUSH1 0x20 ADD SWAP1 DUP2 MSTORE PUSH1 0x20 ADD PUSH0 KECCAK256 PUSH1 0x1 ADD DUP5 DUP2 SLOAD DUP2 LT PUSH2 0x8A0 JUMPI PUSH2 0x89F PUSH2 0x2B3D JUMP JUMPDEST JUMPDEST SWAP1 PUSH0 MSTORE PUSH1 0x20 PUSH0 KECCAK256 ADD PUSH0 SWAP1 SLOAD SWAP1 PUSH2 0x100 EXP SWAP1 DIV PUSH20 0xFFFFFFFFFFFFFFFFFFFFFFFFFFFFFFFFFFFFFFFF AND PUSH20 0xFFFFFFFFFFFFFFFFFFFFFFFFFFFFFFFFFFFFFFFF AND PUSH20 0xFFFFFFFFFFFFFFFFFFFFFFFFFFFFFFFFFFFFFFFF AND DUP2 MSTORE PUSH1 0x20 ADD SWAP1 DUP2 MSTORE PUSH1 0x20 ADD PUSH0 KECCAK256 SLOAD SWAP1 POP DUP5 DUP2 GT ISZERO PUSH2 0xC69 JUMPI PUSH1 0x40 MLOAD DUP1 PUSH2 0x1E0 ADD PUSH1 0x40 MSTORE DUP1 PUSH1 0x2 PUSH0 DUP12 PUSH8 0xFFFFFFFFFFFFFFFF AND DUP2 MSTORE PUSH1 0x20 ADD SWAP1 DUP2 MSTORE PUSH1 0x20 ADD PUSH0 KECCAK256 PUSH1 0x1 ADD DUP5 DUP2 SLOAD DUP2 LT PUSH2 0x948 JUMPI PUSH2 0x947 PUSH2 0x2B3D JUMP JUMPDEST JUMPDEST SWAP1 PUSH0 MSTORE PUSH1 0x20 PUSH0 KECCAK256 ADD PUSH0 SWAP1 SLOAD SWAP1 PUSH2 0x100 EXP SWAP1 DIV PUSH20 0xFFFFFFFFFFFFFFFFFFFFFFFFFFFFFFFFFFFFFFFF AND PUSH20 0xFFFFFFFFFFFFFFFFFFFFFFFFFFFFFFFFFFFFFFFF AND PUSH20 0xFFFFFFFFFFFFFFFFFFFFFFFFFFFFFFFFFFFFFFFF AND DUP2 MSTORE PUSH1 0x20 ADD PUSH0 PUSH20 0xFFFFFFFFFFFFFFFFFFFFFFFFFFFFFFFFFFFFFFFF AND PUSH20 0xFFFFFFFFFFFFFFFFFFFFFFFFFFFFFFFFFFFFFFFF AND DUP2 MSTORE PUSH1 0x20 ADD PUSH0 PUSH20 0xFFFFFFFFFFFFFFFFFFFFFFFFFFFFFFFFFFFFFFFF AND PUSH20 0xFFFFFFFFFFFFFFFFFFFFFFFFFFFFFFFFFFFFFFFF AND DUP2 MSTORE PUSH1 0x20 ADD PUSH0 PUSH20 0xFFFFFFFFFFFFFFFFFFFFFFFFFFFFFFFFFFFFFFFF AND PUSH20 0xFFFFFFFFFFFFFFFFFFFFFFFFFFFFFFFFFFFFFFFF AND DUP2 MSTORE PUSH1 0x20 ADD PUSH0 PUSH20 0xFFFFFFFFFFFFFFFFFFFFFFFFFFFFFFFFFFFFFFFF AND PUSH20 0xFFFFFFFFFFFFFFFFFFFFFFFFFFFFFFFFFFFFFFFF AND DUP2 MSTORE PUSH1 0x20 ADD PUSH0 PUSH20 0xFFFFFFFFFFFFFFFFFFFFFFFFFFFFFFFFFFFFFFFF AND PUSH20 0xFFFFFFFFFFFFFFFFFFFFFFFFFFFFFFFFFFFFFFFF AND DUP2 MSTORE PUSH1 0x20 ADD PUSH0 PUSH20 0xFFFFFFFFFFFFFFFFFFFFFFFFFFFFFFFFFFFFFFFF AND PUSH20 0xFFFFFFFFFFFFFFFFFFFFFFFFFFFFFFFFFFFFFFFF AND DUP2 MSTORE PUSH1 0x20 ADD PUSH0 PUSH20 0xFFFFFFFFFFFFFFFFFFFFFFFFFFFFFFFFFFFFFFFF AND PUSH20 0xFFFFFFFFFFFFFFFFFFFFFFFFFFFFFFFFFFFFFFFF AND DUP2 MSTORE PUSH1 0x20 ADD PUSH0 PUSH20 0xFFFFFFFFFFFFFFFFFFFFFFFFFFFFFFFFFFFFFFFF AND PUSH20 0xFFFFFFFFFFFFFFFFFFFFFFFFFFFFFFFFFFFFFFFF AND DUP2 MSTORE PUSH1 0x20 ADD PUSH0 PUSH20 0xFFFFFFFFFFFFFFFFFFFFFFFFFFFFFFFFFFFFFFFF AND PUSH20 0xFFFFFFFFFFFFFFFFFFFFFFFFFFFFFFFFFFFFFFFF AND DUP2 MSTORE PUSH1 0x20 ADD PUSH0 PUSH20 0xFFFFFFFFFFFFFFFFFFFFFFFFFFFFFFFFFFFFFFFF AND PUSH20 0xFFFFFFFFFFFFFFFFFFFFFFFFFFFFFFFFFFFFFFFF AND DUP2 MSTORE PUSH1 0x20 ADD PUSH0 PUSH20 0xFFFFFFFFFFFFFFFFFFFFFFFFFFFFFFFFFFFFFFFF AND PUSH20 0xFFFFFFFFFFFFFFFFFFFFFFFFFFFFFFFFFFFFFFFF AND DUP2 MSTORE PUSH1 0x20 ADD PUSH0 PUSH20 0xFFFFFFFFFFFFFFFFFFFFFFFFFFFFFFFFFFFFFFFF AND PUSH20 0xFFFFFFFFFFFFFFFFFFFFFFFFFFFFFFFFFFFFFFFF AND DUP2 MSTORE PUSH1 0x20 ADD PUSH0 PUSH20 0xFFFFFFFFFFFFFFFFFFFFFFFFFFFFFFFFFFFFFFFF AND PUSH20 0xFFFFFFFFFFFFFFFFFFFFFFFFFFFFFFFFFFFFFFFF AND DUP2 MSTORE PUSH1 0x20 ADD PUSH0 PUSH20 0xFFFFFFFFFFFFFFFFFFFFFFFFFFFFFFFFFFFFFFFF AND PUSH20 0xFFFFFFFFFFFFFFFFFFFFFFFFFFFFFFFFFFFFFFFF AND DUP2 MSTORE POP SWAP4 POP DUP1 SWAP5 POP PUSH1 0x1 SWAP3 POP PUSH2 0xD35 JUMP JUMPDEST DUP5 DUP2 SUB PUSH2 0xD34 JUMPI PUSH1 0x2 PUSH0 DUP10 PUSH8 0xFFFFFFFFFFFFFFFF AND DUP2 MSTORE PUSH1 0x20 ADD SWAP1 DUP2 MSTORE PUSH1 0x20 ADD PUSH0 KECCAK256 PUSH1 0x1 ADD DUP3 DUP2 SLOAD DUP2 LT PUSH2 0xCA0 JUMPI PUSH2 0xC9F PUSH2 0x2B3D JUMP JUMPDEST JUMPDEST SWAP1 PUSH0 MSTORE PUSH1 0x20 PUSH0 KECCAK256 ADD PUSH0 SWAP1 SLOAD SWAP1 PUSH2 0x100 EXP SWAP1 DIV PUSH20 0xFFFFFFFFFFFFFFFFFFFFFFFFFFFFFFFFFFFFFFFF AND DUP5 DUP5 PUSH1 0xFF AND PUSH1 0xF DUP2 LT PUSH2 0xCDE JUMPI PUSH2 0xCDD PUSH2 0x2B3D JUMP JUMPDEST JUMPDEST PUSH1 0x20 MUL ADD SWAP1 PUSH20 0xFFFFFFFFFFFFFFFFFFFFFFFFFFFFFFFFFFFFFFFF AND SWAP1 DUP2 PUSH20 0xFFFFFFFFFFFFFFFFFFFFFFFFFFFFFFFFFFFFFFFF AND DUP2 MSTORE POP POP DUP3 DUP1 PUSH2 0xD20 SWAP1 PUSH2 0x2CCF JUMP JUMPDEST SWAP4 POP POP PUSH1 0xE DUP4 PUSH1 0xFF AND SUB PUSH2 0xD33 JUMPI PUSH1 0x1 SWAP3 POP JUMPDEST JUMPDEST JUMPDEST POP DUP1 DUP1 PUSH1 0x1 ADD SWAP2 POP POP PUSH2 0x827 JUMP JUMPDEST POP DUP2 DUP2 SWAP5 POP SWAP5 POP POP POP POP SWAP2 POP SWAP2 JUMP JUMPDEST PUSH1 0x1 PUSH0 SWAP1 SLOAD SWAP1 PUSH2 0x100 EXP SWAP1 DIV PUSH20 0xFFFFFFFFFFFFFFFFFFFFFFFFFFFFFFFFFFFFFFFF AND PUSH20 0xFFFFFFFFFFFFFFFFFFFFFFFFFFFFFFFFFFFFFFFF AND CALLER PUSH20 0xFFFFFFFFFFFFFFFFFFFFFFFFFFFFFFFFFFFFFFFF AND EQ PUSH2 0xDE1 JUMPI PUSH1 0x40 MLOAD PUSH32 0x8C379A000000000000000000000000000000000000000000000000000000000 DUP2 MSTORE PUSH1 0x4 ADD PUSH2 0xDD8 SWAP1 PUSH2 0x2BB4 JUMP JUMPDEST PUSH1 0x40 MLOAD DUP1 SWAP2 SUB SWAP1 REVERT JUMPDEST PUSH1 0x1 PUSH0 SWAP1 SLOAD SWAP1 PUSH2 0x100 EXP SWAP1 DIV PUSH20 0xFFFFFFFFFFFFFFFFFFFFFFFFFFFFFFFFFFFFFFFF AND PUSH20 0xFFFFFFFFFFFFFFFFFFFFFFFFFFFFFFFFFFFFFFFF AND PUSH2 0x8FC SELFBALANCE SWAP1 DUP2 ISZERO MUL SWAP1 PUSH1 0x40 MLOAD PUSH0 PUSH1 0x40 MLOAD DUP1 DUP4 SUB DUP2 DUP6 DUP9 DUP9 CALL SWAP4 POP POP POP POP ISZERO DUP1 ISZERO PUSH2 0xE45 JUMPI RETURNDATASIZE PUSH0 DUP1 RETURNDATACOPY RETURNDATASIZE PUSH0 REVERT JUMPDEST POP JUMP JUMPDEST PUSH0 PUSH1 0x2 PUSH0 DUP10 PUSH8 0xFFFFFFFFFFFFFFFF AND DUP2 MSTORE PUSH1 0x20 ADD SWAP1 DUP2 MSTORE PUSH1 0x20 ADD PUSH0 KECCAK256 PUSH1 0x2 ADD PUSH0 SWAP1 SLOAD SWAP1 PUSH2 0x100 EXP SWAP1 DIV PUSH8 0xFFFFFFFFFFFFFFFF AND PUSH8 0xFFFFFFFFFFFFFFFF AND SUB PUSH2 0xEC5 JUMPI PUSH1 0x40 MLOAD PUSH32 0x8C379A000000000000000000000000000000000000000000000000000000000 DUP2 MSTORE PUSH1 0x4 ADD PUSH2 0xEBC SWAP1 PUSH2 0x2C1C JUMP JUMPDEST PUSH1 0x40 MLOAD DUP1 SWAP2 SUB SWAP1 REVERT JUMPDEST PUSH1 0x2 PUSH0 DUP9 PUSH8 0xFFFFFFFFFFFFFFFF AND DUP2 MSTORE PUSH1 0x20 ADD SWAP1 DUP2 MSTORE PUSH1 0x20 ADD PUSH0 KECCAK256 PUSH1 0x8 ADD PUSH1 0x1 SWAP1 SLOAD SWAP1 PUSH2 0x100 EXP SWAP1 DIV PUSH1 0xFF AND PUSH2 0xF30 JUMPI PUSH1 0x40 MLOAD PUSH32 0x8C379A000000000000000000000000000000000000000000000000000000000 DUP2 MSTORE PUSH1 0x4 ADD PUSH2 0xF27 SWAP1 PUSH2 0x2C84 JUMP JUMPDEST PUSH1 0x40 MLOAD DUP1 SWAP2 SUB SWAP1 REVERT JUMPDEST PUSH1 0x2 PUSH0 DUP9 PUSH8 0xFFFFFFFFFFFFFFFF AND DUP2 MSTORE PUSH1 0x20 ADD SWAP1 DUP2 MSTORE PUSH1 0x20 ADD PUSH0 KECCAK256 PUSH1 0x8 ADD PUSH0 SWAP1 SLOAD SWAP1 PUSH2 0x100 EXP SWAP1 DIV PUSH1 0xFF AND ISZERO PUSH2 0xF9B JUMPI PUSH1 0x40 MLOAD PUSH32 0x8C379A000000000000000000000000000000000000000000000000000000000 DUP2 MSTORE PUSH1 0x4 ADD PUSH2 0xF92 SWAP1 PUSH2 0x2D41 JUMP JUMPDEST PUSH1 0x40 MLOAD DUP1 SWAP2 SUB SWAP1 REVERT JUMPDEST PUSH1 0x2 PUSH0 DUP9 PUSH8 0xFFFFFFFFFFFFFFFF AND DUP2 MSTORE PUSH1 0x20 ADD SWAP1 DUP2 MSTORE PUSH1 0x20 ADD PUSH0 KECCAK256 PUSH1 0x6 ADD DUP1 SLOAD SWAP1 POP DUP3 DUP3 SWAP1 POP EQ PUSH2 0x1001 JUMPI PUSH1 0x40 MLOAD PUSH32 0x8C379A000000000000000000000000000000000000000000000000000000000 DUP2 MSTORE PUSH1 0x4 ADD PUSH2 0xFF8 SWAP1 PUSH2 0x2DA9 JUMP JUMPDEST PUSH1 0x40 MLOAD DUP1 SWAP2 SUB SWAP1 REVERT JUMPDEST PUSH1 0x1 PUSH1 0x2 PUSH0 DUP10 PUSH8 0xFFFFFFFFFFFFFFFF AND DUP2 MSTORE PUSH1 0x20 ADD SWAP1 DUP2 MSTORE PUSH1 0x20 ADD PUSH0 KECCAK256 PUSH1 0xA ADD PUSH0 DUP9 PUSH20 0xFFFFFFFFFFFFFFFFFFFFFFFFFFFFFFFFFFFFFFFF AND PUSH20 0xFFFFFFFFFFFFFFFFFFFFFFFFFFFFFFFFFFFFFFFF AND DUP2 MSTORE PUSH1 0x20 ADD SWAP1 DUP2 MSTORE PUSH1 0x20 ADD PUSH0 KECCAK256 SLOAD LT ISZERO PUSH2 0x109E JUMPI PUSH1 0x40 MLOAD PUSH32 0x8C379A000000000000000000000000000000000000000000000000000000000 DUP2 MSTORE PUSH1 0x4 ADD PUSH2 0x1095 SWAP1 PUSH2 0x2E11 JUMP JUMPDEST PUSH1 0x40 MLOAD DUP1 SWAP2 SUB SWAP1 REVERT JUMPDEST PUSH0 ISZERO ISZERO PUSH1 0x2 PUSH0 DUP10 PUSH8 0xFFFFFFFFFFFFFFFF AND DUP2 MSTORE PUSH1 0x20 ADD SWAP1 DUP2 MSTORE PUSH1 0x20 ADD PUSH0 KECCAK256 PUSH1 0x9 ADD PUSH0 DUP8 DUP2 MSTORE PUSH1 0x20 ADD SWAP1 DUP2 MSTORE PUSH1 0x20 ADD PUSH0 KECCAK256 PUSH0 SWAP1 SLOAD SWAP1 PUSH2 0x100 EXP SWAP1 DIV PUSH1 0xFF AND ISZERO ISZERO EQ PUSH2 0x111D JUMPI PUSH1 0x40 MLOAD PUSH32 0x8C379A000000000000000000000000000000000000000000000000000000000 DUP2 MSTORE PUSH1 0x4 ADD PUSH2 0x1114 SWAP1 PUSH2 0x2E79 JUMP JUMPDEST PUSH1 0x40 MLOAD DUP1 SWAP2 SUB SWAP1 REVERT JUMPDEST PUSH2 0x112C DUP7 DUP9 DUP8 DUP8 DUP8 DUP8 DUP8 PUSH2 0x1B8E JUMP JUMPDEST PUSH2 0x116B JUMPI PUSH1 0x40 MLOAD PUSH32 0x8C379A000000000000000000000000000000000000000000000000000000000 DUP2 MSTORE PUSH1 0x4 ADD PUSH2 0x1162 SWAP1 PUSH2 0x2EE1 JUMP JUMPDEST PUSH1 0x40 MLOAD DUP1 SWAP2 SUB SWAP1 REVERT JUMPDEST CALLVALUE PUSH1 0x2 PUSH0 DUP10 PUSH8 0xFFFFFFFFFFFFFFFF AND DUP2 MSTORE PUSH1 0x20 ADD SWAP1 DUP2 MSTORE PUSH1 0x20 ADD PUSH0 KECCAK256 PUSH1 0x3 ADD PUSH0 DUP3 DUP3 SLOAD PUSH2 0x1198 SWAP2 SWAP1 PUSH2 0x2EFF JUMP JUMPDEST SWAP3 POP POP DUP2 SWAP1 SSTORE POP PUSH1 0x1 PUSH1 0x2 PUSH0 DUP10 PUSH8 0xFFFFFFFFFFFFFFFF AND DUP2 MSTORE PUSH1 0x20 ADD SWAP1 DUP2 MSTORE PUSH1 0x20 ADD PUSH0 KECCAK256 PUSH1 0xA ADD PUSH0 DUP9 PUSH20 0xFFFFFFFFFFFFFFFFFFFFFFFFFFFFFFFFFFFFFFFF AND PUSH20 0xFFFFFFFFFFFFFFFFFFFFFFFFFFFFFFFFFFFFFFFF AND DUP2 MSTORE PUSH1 0x20 ADD SWAP1 DUP2 MSTORE PUSH1 0x20 ADD PUSH0 KECCAK256 PUSH0 DUP3 DUP3 SLOAD PUSH2 0x1208 SWAP2 SWAP1 PUSH2 0x2EFF JUMP JUMPDEST SWAP3 POP POP DUP2 SWAP1 SSTORE POP PUSH1 0x1 PUSH1 0x2 PUSH0 DUP10 PUSH8 0xFFFFFFFFFFFFFFFF AND DUP2 MSTORE PUSH1 0x20 ADD SWAP1 DUP2 MSTORE PUSH1 0x20 ADD PUSH0 KECCAK256 PUSH1 0x5 ADD PUSH0 DUP3 DUP3 SLOAD PUSH2 0x123D SWAP2 SWAP1 PUSH2 0x2EFF JUMP JUMPDEST SWAP3 POP POP DUP2 SWAP1 SSTORE POP PUSH1 0x1 PUSH1 0x2 PUSH0 DUP10 PUSH8 0xFFFFFFFFFFFFFFFF AND DUP2 MSTORE PUSH1 0x20 ADD SWAP1 DUP2 MSTORE PUSH1 0x20 ADD PUSH0 KECCAK256 PUSH1 0x9 ADD PUSH0 DUP8 DUP2 MSTORE PUSH1 0x20 ADD SWAP1 DUP2 MSTORE PUSH1 0x20 ADD PUSH0 KECCAK256 PUSH0 PUSH2 0x100 EXP DUP2 SLOAD DUP2 PUSH1 0xFF MUL NOT AND SWAP1 DUP4 ISZERO ISZERO MUL OR SWAP1 SSTORE POP POP POP POP POP POP POP POP JUMP JUMPDEST PUSH0 DUP1 PUSH0 PUSH1 0x2 PUSH0 DUP7 PUSH8 0xFFFFFFFFFFFFFFFF AND DUP2 MSTORE PUSH1 0x20 ADD SWAP1 DUP2 MSTORE PUSH1 0x20 ADD PUSH0 KECCAK256 PUSH1 0x2 ADD PUSH0 SWAP1 SLOAD SWAP1 PUSH2 0x100 EXP SWAP1 DIV PUSH8 0xFFFFFFFFFFFFFFFF AND PUSH8 0xFFFFFFFFFFFFFFFF AND SUB PUSH2 0x1311 JUMPI PUSH1 0x40 MLOAD PUSH32 0x8C379A000000000000000000000000000000000000000000000000000000000 DUP2 MSTORE PUSH1 0x4 ADD PUSH2 0x1308 SWAP1 PUSH2 0x2C1C JUMP JUMPDEST PUSH1 0x40 MLOAD DUP1 SWAP2 SUB SWAP1 REVERT JUMPDEST PUSH0 PUSH1 0x2 PUSH0 DUP7 PUSH8 0xFFFFFFFFFFFFFFFF AND DUP2 MSTORE PUSH1 0x20 ADD SWAP1 DUP2 MSTORE PUSH1 0x20 ADD PUSH0 KECCAK256 PUSH1 0xA ADD PUSH0 DUP6 PUSH20 0xFFFFFFFFFFFFFFFFFFFFFFFFFFFFFFFFFFFFFFFF AND PUSH20 0xFFFFFFFFFFFFFFFFFFFFFFFFFFFFFFFFFFFFFFFF AND DUP2 MSTORE PUSH1 0x20 ADD SWAP1 DUP2 MSTORE PUSH1 0x20 ADD PUSH0 KECCAK256 SLOAD SUB PUSH2 0x13AC JUMPI PUSH1 0x40 MLOAD PUSH32 0x8C379A000000000000000000000000000000000000000000000000000000000 DUP2 MSTORE PUSH1 0x4 ADD PUSH2 0x13A3 SWAP1 PUSH2 0x2F7C JUMP JUMPDEST PUSH1 0x40 MLOAD DUP1 SWAP2 SUB SWAP1 REVERT JUMPDEST PUSH1 0x2 PUSH0 DUP6 PUSH8 0xFFFFFFFFFFFFFFFF AND DUP2 MSTORE PUSH1 0x20 ADD SWAP1 DUP2 MSTORE PUSH1 0x20 ADD PUSH0 KECCAK256 PUSH1 0x4 ADD SLOAD PUSH1 0x2 PUSH0 DUP7 PUSH8 0xFFFFFFFFFFFFFFFF AND DUP2 MSTORE PUSH1 0x20 ADD SWAP1 DUP2 MSTORE PUSH1 0x20 ADD PUSH0 KECCAK256 PUSH1 0x5 ADD SLOAD LT ISZERO PUSH1 0x2 PUSH0 DUP7 PUSH8 0xFFFFFFFFFFFFFFFF AND DUP2 MSTORE PUSH1 0x20 ADD SWAP1 DUP2 MSTORE PUSH1 0x20 ADD PUSH0 KECCAK256 PUSH1 0xA ADD PUSH0 DUP6 PUSH20 0xFFFFFFFFFFFFFFFFFFFFFFFFFFFFFFFFFFFFFFFF AND PUSH20 0xFFFFFFFFFFFFFFFFFFFFFFFFFFFFFFFFFFFFFFFF AND DUP2 MSTORE PUSH1 0x20 ADD SWAP1 DUP2 MSTORE PUSH1 0x20 ADD PUSH0 KECCAK256 SLOAD SWAP2 POP SWAP2 POP SWAP3 POP SWAP3 SWAP1 POP JUMP JUMPDEST PUSH1 0x2 PUSH1 0x20 MSTORE DUP1 PUSH0 MSTORE PUSH1 0x40 PUSH0 KECCAK256 PUSH0 SWAP2 POP SWAP1 POP DUP1 PUSH0 ADD PUSH0 SWAP1 SLOAD SWAP1 PUSH2 0x100 EXP SWAP1 DIV PUSH20 0xFFFFFFFFFFFFFFFFFFFFFFFFFFFFFFFFFFFFFFFF AND SWAP1 DUP1 PUSH1 0x2 ADD PUSH0 SWAP1 SLOAD SWAP1 PUSH2 0x100 EXP SWAP1 DIV PUSH8 0xFFFFFFFFFFFFFFFF AND SWAP1 DUP1 PUSH1 0x3 ADD SLOAD SWAP1 DUP1 PUSH1 0x4 ADD SLOAD SWAP1 DUP1 PUSH1 0x5 ADD SLOAD SWAP1 DUP1 PUSH1 0x8 ADD PUSH0 SWAP1 SLOAD SWAP1 PUSH2 0x100 EXP SWAP1 DIV PUSH1 0xFF AND SWAP1 DUP1 PUSH1 0x8 ADD PUSH1 0x1 SWAP1 SLOAD SWAP1 PUSH2 0x100 EXP SWAP1 DIV PUSH1 0xFF AND SWAP1 POP DUP8 JUMP JUMPDEST PUSH0 PUSH1 0x2 PUSH0 DUP10 PUSH8 0xFFFFFFFFFFFFFFFF AND DUP2 MSTORE PUSH1 0x20 ADD SWAP1 DUP2 MSTORE PUSH1 0x20 ADD PUSH0 KECCAK256 PUSH1 0x2 ADD PUSH0 SWAP1 SLOAD SWAP1 PUSH2 0x100 EXP SWAP1 DIV PUSH8 0xFFFFFFFFFFFFFFFF AND PUSH8 0xFFFFFFFFFFFFFFFF AND SUB PUSH2 0x1557 JUMPI PUSH1 0x40 MLOAD PUSH32 0x8C379A000000000000000000000000000000000000000000000000000000000 DUP2 MSTORE PUSH1 0x4 ADD PUSH2 0x154E SWAP1 PUSH2 0x2C1C JUMP JUMPDEST PUSH1 0x40 MLOAD DUP1 SWAP2 SUB SWAP1 REVERT JUMPDEST PUSH1 0x2 PUSH0 DUP9 PUSH8 0xFFFFFFFFFFFFFFFF AND DUP2 MSTORE PUSH1 0x20 ADD SWAP1 DUP2 MSTORE PUSH1 0x20 ADD PUSH0 KECCAK256 PUSH1 0x8 ADD PUSH1 0x1 SWAP1 SLOAD SWAP1 PUSH2 0x100 EXP SWAP1 DIV PUSH1 0xFF AND ISZERO PUSH2 0x15C3 JUMPI PUSH1 0x40 MLOAD PUSH32 0x8C379A000000000000000000000000000000000000000000000000000000000 DUP2 MSTORE PUSH1 0x4 ADD PUSH2 0x15BA SWAP1 PUSH2 0x2FE4 JUMP JUMPDEST PUSH1 0x40 MLOAD DUP1 SWAP2 SUB SWAP1 REVERT JUMPDEST PUSH1 0x2 PUSH0 DUP9 PUSH8 0xFFFFFFFFFFFFFFFF AND DUP2 MSTORE PUSH1 0x20 ADD SWAP1 DUP2 MSTORE PUSH1 0x20 ADD PUSH0 KECCAK256 PUSH0 ADD PUSH0 SWAP1 SLOAD SWAP1 PUSH2 0x100 EXP SWAP1 DIV PUSH20 0xFFFFFFFFFFFFFFFFFFFFFFFFFFFFFFFFFFFFFFFF AND PUSH20 0xFFFFFFFFFFFFFFFFFFFFFFFFFFFFFFFFFFFFFFFF AND CALLER PUSH20 0xFFFFFFFFFFFFFFFFFFFFFFFFFFFFFFFFFFFFFFFF AND EQ PUSH2 0x166D JUMPI PUSH1 0x40 MLOAD PUSH32 0x8C379A000000000000000000000000000000000000000000000000000000000 DUP2 MSTORE PUSH1 0x4 ADD PUSH2 0x1664 SWAP1 PUSH2 0x304C JUMP JUMPDEST PUSH1 0x40 MLOAD DUP1 SWAP2 SUB SWAP1 REVERT JUMPDEST DUP4 DUP4 SWAP1 POP DUP7 DUP7 SWAP1 POP EQ PUSH2 0x16B5 JUMPI PUSH1 0x40 MLOAD PUSH32 0x8C379A000000000000000000000000000000000000000000000000000000000 DUP2 MSTORE PUSH1 0x4 ADD PUSH2 0x16AC SWAP1 PUSH2 0x30B4 JUMP JUMPDEST PUSH1 0x40 MLOAD DUP1 SWAP2 SUB SWAP1 REVERT JUMPDEST DUP2 PUSH1 0x2 PUSH0 DUP10 PUSH8 0xFFFFFFFFFFFFFFFF AND DUP2 MSTORE PUSH1 0x20 ADD SWAP1 DUP2 MSTORE PUSH1 0x20 ADD PUSH0 KECCAK256 PUSH1 0x4 ADD SLOAD LT PUSH2 0x1715 JUMPI PUSH1 0x40 MLOAD PUSH32 0x8C379A000000000000000000000000000000000000000000000000000000000 DUP2 MSTORE PUSH1 0x4 ADD PUSH2 0x170C SWAP1 PUSH2 0x3142 JUMP JUMPDEST PUSH1 0x40 MLOAD DUP1 SWAP2 SUB SWAP1 REVERT JUMPDEST PUSH1 0x2 PUSH0 DUP9 PUSH8 0xFFFFFFFFFFFFFFFF AND DUP2 MSTORE PUSH1 0x20 ADD SWAP1 DUP2 MSTORE PUSH1 0x20 ADD PUSH0 KECCAK256 PUSH1 0x6 ADD DUP1 SLOAD SWAP1 POP DUP7 DUP7 SWAP1 POP PUSH2 0x1745 SWAP2 SWAP1 PUSH2 0x2EFF JUMP JUMPDEST DUP3 GT ISZERO PUSH2 0x1787 JUMPI PUSH1 0x40 MLOAD PUSH32 0x8C379A000000000000000000000000000000000000000000000000000000000 DUP2 MSTORE PUSH1 0x4 ADD PUSH2 0x177E SWAP1 PUSH2 0x31AA JUMP JUMPDEST PUSH1 0x40 MLOAD DUP1 SWAP2 SUB SWAP1 REVERT JUMPDEST PUSH0 JUMPDEST DUP7 DUP7 SWAP1 POP DUP2 LT ISZERO PUSH2 0x1857 JUMPI PUSH1 0x2 PUSH0 DUP10 PUSH8 0xFFFFFFFFFFFFFFFF AND DUP2 MSTORE PUSH1 0x20 ADD SWAP1 DUP2 MSTORE PUSH1 0x20 ADD PUSH0 KECCAK256 PUSH1 0x6 ADD DUP8 DUP8 DUP4 DUP2 DUP2 LT PUSH2 0x17C5 JUMPI PUSH2 0x17C4 PUSH2 0x2B3D JUMP JUMPDEST JUMPDEST SWAP1 POP PUSH1 0x20 MUL ADD CALLDATALOAD SWAP1 DUP1 PUSH1 0x1 DUP2 SLOAD ADD DUP1 DUP3 SSTORE DUP1 SWAP2 POP POP PUSH1 0x1 SWAP1 SUB SWAP1 PUSH0 MSTORE PUSH1 0x20 PUSH0 KECCAK256 ADD PUSH0 SWAP1 SWAP2 SWAP1 SWAP2 SWAP1 SWAP2 POP SSTORE PUSH1 0x2 PUSH0 DUP10 PUSH8 0xFFFFFFFFFFFFFFFF AND DUP2 MSTORE PUSH1 0x20 ADD SWAP1 DUP2 MSTORE PUSH1 0x20 ADD PUSH0 KECCAK256 PUSH1 0x7 ADD DUP6 DUP6 DUP4 DUP2 DUP2 LT PUSH2 0x1820 JUMPI PUSH2 0x181F PUSH2 0x2B3D JUMP JUMPDEST JUMPDEST SWAP1 POP PUSH1 0x20 MUL ADD CALLDATALOAD SWAP1 DUP1 PUSH1 0x1 DUP2 SLOAD ADD DUP1 DUP3 SSTORE DUP1 SWAP2 POP POP PUSH1 0x1 SWAP1 SUB SWAP1 PUSH0 MSTORE PUSH1 0x20 PUSH0 KECCAK256 ADD PUSH0 SWAP1 SWAP2 SWAP1 SWAP2 SWAP1 SWAP2 POP SSTORE DUP1 DUP1 PUSH1 0x1 ADD SWAP2 POP POP PUSH2 0x1789 JUMP JUMPDEST POP DUP1 PUSH1 0x2 PUSH0 DUP10 PUSH8 0xFFFFFFFFFFFFFFFF AND DUP2 MSTORE PUSH1 0x20 ADD SWAP1 DUP2 MSTORE PUSH1 0x20 ADD PUSH0 KECCAK256 PUSH1 0x8 ADD PUSH1 0x1 PUSH2 0x100 EXP DUP2 SLOAD DUP2 PUSH1 0xFF MUL NOT AND SWAP1 DUP4 ISZERO ISZERO MUL OR SWAP1 SSTORE POP DUP2 PUSH1 0x2 PUSH0 DUP10 PUSH8 0xFFFFFFFFFFFFFFFF AND DUP2 MSTORE PUSH1 0x20 ADD SWAP1 DUP2 MSTORE PUSH1 0x20 ADD PUSH0 KECCAK256 PUSH1 0x4 ADD DUP2 SWAP1 SSTORE POP POP POP POP POP POP POP POP JUMP JUMPDEST PUSH0 PUSH1 0x2 PUSH0 DUP4 PUSH8 0xFFFFFFFFFFFFFFFF AND DUP2 MSTORE PUSH1 0x20 ADD SWAP1 DUP2 MSTORE PUSH1 0x20 ADD PUSH0 KECCAK256 PUSH1 0x2 ADD PUSH0 SWAP1 SLOAD SWAP1 PUSH2 0x100 EXP SWAP1 DIV PUSH8 0xFFFFFFFFFFFFFFFF AND PUSH8 0xFFFFFFFFFFFFFFFF AND SUB PUSH2 0x1937 JUMPI PUSH1 0x40 MLOAD PUSH32 0x8C379A000000000000000000000000000000000000000000000000000000000 DUP2 MSTORE PUSH1 0x4 ADD PUSH2 0x192E SWAP1 PUSH2 0x2C1C JUMP JUMPDEST PUSH1 0x40 MLOAD DUP1 SWAP2 SUB SWAP1 REVERT JUMPDEST PUSH1 0x2 PUSH0 DUP3 PUSH8 0xFFFFFFFFFFFFFFFF AND DUP2 MSTORE PUSH1 0x20 ADD SWAP1 DUP2 MSTORE PUSH1 0x20 ADD PUSH0 KECCAK256 PUSH1 0x8 ADD PUSH1 0x1 SWAP1 SLOAD SWAP1 PUSH2 0x100 EXP SWAP1 DIV PUSH1 0xFF AND PUSH2 0x19A2 JUMPI PUSH1 0x40 MLOAD PUSH32 0x8C379A000000000000000000000000000000000000000000000000000000000 DUP2 MSTORE PUSH1 0x4 ADD PUSH2 0x1999 SWAP1 PUSH2 0x2C84 JUMP JUMPDEST PUSH1 0x40 MLOAD DUP1 SWAP2 SUB SWAP1 REVERT JUMPDEST PUSH1 0x2 PUSH0 DUP3 PUSH8 0xFFFFFFFFFFFFFFFF AND DUP2 MSTORE PUSH1 0x20 ADD SWAP1 DUP2 MSTORE PUSH1 0x20 ADD PUSH0 KECCAK256 PUSH1 0x8 ADD PUSH0 SWAP1 SLOAD SWAP1 PUSH2 0x100 EXP SWAP1 DIV PUSH1 0xFF AND ISZERO PUSH2 0x1A0D JUMPI PUSH1 0x40 MLOAD PUSH32 0x8C379A000000000000000000000000000000000000000000000000000000000 DUP2 MSTORE PUSH1 0x4 ADD PUSH2 0x1A04 SWAP1 PUSH2 0x2D41 JUMP JUMPDEST PUSH1 0x40 MLOAD DUP1 SWAP2 SUB SWAP1 REVERT JUMPDEST PUSH1 0x2 PUSH0 DUP3 PUSH8 0xFFFFFFFFFFFFFFFF AND DUP2 MSTORE PUSH1 0x20 ADD SWAP1 DUP2 MSTORE PUSH1 0x20 ADD PUSH0 KECCAK256 PUSH1 0x4 ADD SLOAD PUSH1 0x2 PUSH0 DUP4 PUSH8 0xFFFFFFFFFFFFFFFF AND DUP2 MSTORE PUSH1 0x20 ADD SWAP1 DUP2 MSTORE PUSH1 0x20 ADD PUSH0 KECCAK256 PUSH1 0x5 ADD SLOAD LT ISZERO PUSH2 0x1A8C JUMPI PUSH1 0x40 MLOAD PUSH32 0x8C379A000000000000000000000000000000000000000000000000000000000 DUP2 MSTORE PUSH1 0x4 ADD PUSH2 0x1A83 SWAP1 PUSH2 0x3212 JUMP JUMPDEST PUSH1 0x40 MLOAD DUP1 SWAP2 SUB SWAP1 REVERT JUMPDEST PUSH1 0x1 PUSH1 0x2 PUSH0 DUP4 PUSH8 0xFFFFFFFFFFFFFFFF AND DUP2 MSTORE PUSH1 0x20 ADD SWAP1 DUP2 MSTORE PUSH1 0x20 ADD PUSH0 KECCAK256 PUSH1 0x8 ADD PUSH0 PUSH2 0x100 EXP DUP2 SLOAD DUP2 PUSH1 0xFF MUL NOT AND SWAP1 DUP4 ISZERO ISZERO MUL OR SWAP1 SSTORE POP PUSH2 0x1ACA PUSH2 0x23DB JUMP JUMPDEST PUSH0 PUSH2 0x1AD4 DUP4 PUSH2 0x726 JUMP JUMPDEST DUP1 SWAP3 POP DUP2 SWAP4 POP POP POP PUSH0 DUP2 PUSH1 0xFF AND PUSH1 0x2 PUSH0 DUP7 PUSH8 0xFFFFFFFFFFFFFFFF AND DUP2 MSTORE PUSH1 0x20 ADD SWAP1 DUP2 MSTORE PUSH1 0x20 ADD PUSH0 KECCAK256 PUSH1 0x3 ADD SLOAD PUSH2 0x1B0A SWAP2 SWAP1 PUSH2 0x325D JUMP JUMPDEST SWAP1 POP PUSH0 JUMPDEST DUP3 PUSH1 0xFF AND DUP2 PUSH1 0xFF AND LT ISZERO PUSH2 0x1B87 JUMPI DUP4 DUP2 PUSH1 0xFF AND PUSH1 0xF DUP2 LT PUSH2 0x1B32 JUMPI PUSH2 0x1B31 PUSH2 0x2B3D JUMP JUMPDEST JUMPDEST PUSH1 0x20 MUL ADD MLOAD PUSH20 0xFFFFFFFFFFFFFFFFFFFFFFFFFFFFFFFFFFFFFFFF AND PUSH2 0x8FC DUP4 SWAP1 DUP2 ISZERO MUL SWAP1 PUSH1 0x40 MLOAD PUSH0 PUSH1 0x40 MLOAD DUP1 DUP4 SUB DUP2 DUP6 DUP9 DUP9 CALL SWAP4 POP POP POP POP ISZERO DUP1 ISZERO PUSH2 0x1B79 JUMPI RETURNDATASIZE PUSH0 DUP1 RETURNDATACOPY RETURNDATASIZE PUSH0 REVERT JUMPDEST POP DUP1 DUP1 PUSH1 0x1 ADD SWAP2 POP POP PUSH2 0x1B0E JUMP JUMPDEST POP POP POP POP POP JUMP JUMPDEST PUSH0 DUP1 PUSH1 0x2 PUSH8 0xFFFFFFFFFFFFFFFF DUP2 GT ISZERO PUSH2 0x1BAB JUMPI PUSH2 0x1BAA PUSH2 0x2B10 JUMP JUMPDEST JUMPDEST PUSH1 0x40 MLOAD SWAP1 DUP1 DUP3 MSTORE DUP1 PUSH1 0x20 MUL PUSH1 0x20 ADD DUP3 ADD PUSH1 0x40 MSTORE DUP1 ISZERO PUSH2 0x1BD9 JUMPI DUP2 PUSH1 0x20 ADD PUSH1 0x20 DUP3 MUL DUP1 CALLDATASIZE DUP4 CALLDATACOPY DUP1 DUP3 ADD SWAP2 POP POP SWAP1 POP JUMPDEST POP SWAP1 POP DUP5 DUP2 PUSH0 DUP2 MLOAD DUP2 LT PUSH2 0x1BF0 JUMPI PUSH2 0x1BEF PUSH2 0x2B3D JUMP JUMPDEST JUMPDEST PUSH1 0x20 MUL PUSH1 0x20 ADD ADD DUP2 DUP2 MSTORE POP POP PUSH2 0x1C04 PUSH2 0x23FE JUMP JUMPDEST PUSH0 JUMPDEST DUP6 DUP6 SWAP1 POP DUP2 LT ISZERO PUSH2 0x1CE6 JUMPI PUSH2 0x1C5E DUP7 DUP7 DUP4 DUP2 DUP2 LT PUSH2 0x1C27 JUMPI PUSH2 0x1C26 PUSH2 0x2B3D JUMP JUMPDEST JUMPDEST SWAP1 POP PUSH1 0x20 MUL ADD CALLDATALOAD DUP12 DUP4 DUP7 PUSH1 0x2 DUP7 PUSH2 0x1C3E SWAP2 SWAP1 PUSH2 0x328D JUMP JUMPDEST DUP2 MLOAD DUP2 LT PUSH2 0x1C4F JUMPI PUSH2 0x1C4E PUSH2 0x2B3D JUMP JUMPDEST JUMPDEST PUSH1 0x20 MUL PUSH1 0x20 ADD ADD MLOAD DUP14 DUP14 PUSH2 0x1D22 JUMP JUMPDEST SWAP2 POP DUP10 DUP12 DUP4 PUSH0 ADD MLOAD DUP5 PUSH1 0x20 ADD MLOAD DUP6 PUSH1 0x40 ADD MLOAD DUP7 PUSH1 0x60 ADD MLOAD PUSH1 0x40 MLOAD PUSH1 0x20 ADD PUSH2 0x1C8A SWAP7 SWAP6 SWAP5 SWAP4 SWAP3 SWAP2 SWAP1 PUSH2 0x3356 JUMP JUMPDEST PUSH1 0x40 MLOAD PUSH1 0x20 DUP2 DUP4 SUB SUB DUP2 MSTORE SWAP1 PUSH1 0x40 MSTORE DUP1 MLOAD SWAP1 PUSH1 0x20 ADD KECCAK256 PUSH0 SHR DUP4 PUSH1 0x2 PUSH1 0x1 DUP5 PUSH2 0x1CB2 SWAP2 SWAP1 PUSH2 0x2EFF JUMP JUMPDEST PUSH2 0x1CBC SWAP2 SWAP1 PUSH2 0x328D JUMP JUMPDEST DUP2 MLOAD DUP2 LT PUSH2 0x1CCD JUMPI PUSH2 0x1CCC PUSH2 0x2B3D JUMP JUMPDEST JUMPDEST PUSH1 0x20 MUL PUSH1 0x20 ADD ADD DUP2 DUP2 MSTORE POP POP DUP1 DUP1 PUSH1 0x1 ADD SWAP2 POP POP PUSH2 0x1C06 JUMP JUMPDEST POP DUP6 DUP3 PUSH1 0x2 DUP8 DUP8 SWAP1 POP PUSH2 0x1CF9 SWAP2 SWAP1 PUSH2 0x328D JUMP JUMPDEST DUP2 MLOAD DUP2 LT PUSH2 0x1D0A JUMPI PUSH2 0x1D09 PUSH2 0x2B3D JUMP JUMPDEST JUMPDEST PUSH1 0x20 MUL PUSH1 0x20 ADD ADD MLOAD EQ SWAP3 POP POP POP SWAP8 SWAP7 POP POP POP POP POP POP POP JUMP JUMPDEST PUSH2 0x1D2A PUSH2 0x23FE JUMP JUMPDEST PUSH2 0x1D32 PUSH2 0x23FE JUMP JUMPDEST PUSH2 0x1D3E DUP9 DUP9 DUP9 DUP9 PUSH2 0x1D7D JUMP JUMPDEST DUP3 PUSH0 ADD DUP4 PUSH1 0x20 ADD DUP3 DUP2 MSTORE POP DUP3 DUP2 MSTORE POP POP POP PUSH2 0x1D5D DUP9 DUP9 DUP9 DUP9 DUP9 DUP9 PUSH2 0x1FEA JUMP JUMPDEST DUP3 PUSH1 0x40 ADD DUP4 PUSH1 0x60 ADD DUP3 DUP2 MSTORE POP DUP3 DUP2 MSTORE POP POP POP DUP1 SWAP2 POP POP SWAP7 SWAP6 POP POP POP POP POP POP JUMP JUMPDEST PUSH0 DUP1 PUSH0 DUP1 PUSH0 DUP1 PUSH0 DUP1 SLOAD SWAP1 PUSH2 0x100 EXP SWAP1 DIV PUSH20 0xFFFFFFFFFFFFFFFFFFFFFFFFFFFFFFFFFFFFFFFF AND PUSH20 0xFFFFFFFFFFFFFFFFFFFFFFFFFFFFFFFFFFFFFFFF AND PUSH4 0x464CB749 DUP12 PUSH1 0x40 MLOAD DUP3 PUSH4 0xFFFFFFFF AND PUSH1 0xE0 SHL DUP2 MSTORE PUSH1 0x4 ADD PUSH2 0x1DDB SWAP2 SWAP1 PUSH2 0x33C5 JUMP JUMPDEST PUSH1 0x40 DUP1 MLOAD DUP1 DUP4 SUB DUP2 DUP7 GAS STATICCALL ISZERO DUP1 ISZERO PUSH2 0x1DF5 JUMPI RETURNDATASIZE PUSH0 DUP1 RETURNDATACOPY RETURNDATASIZE PUSH0 REVERT JUMPDEST POP POP POP POP PUSH1 0x40 MLOAD RETURNDATASIZE PUSH1 0x1F NOT PUSH1 0x1F DUP3 ADD AND DUP3 ADD DUP1 PUSH1 0x40 MSTORE POP DUP2 ADD SWAP1 PUSH2 0x1E19 SWAP2 SWAP1 PUSH2 0x33F2 JUMP JUMPDEST DUP1 SWAP5 POP DUP2 SWAP6 POP POP POP PUSH0 DUP1 SLOAD SWAP1 PUSH2 0x100 EXP SWAP1 DIV PUSH20 0xFFFFFFFFFFFFFFFFFFFFFFFFFFFFFFFFFFFFFFFF AND PUSH20 0xFFFFFFFFFFFFFFFFFFFFFFFFFFFFFFFFFFFFFFFF AND PUSH4 0xFB88954D PUSH1 0x2 PUSH0 DUP13 PUSH8 0xFFFFFFFFFFFFFFFF AND DUP2 MSTORE PUSH1 0x20 ADD SWAP1 DUP2 MSTORE PUSH1 0x20 ADD PUSH0 KECCAK256 PUSH1 0x6 ADD DUP11 DUP2 SLOAD DUP2 LT PUSH2 0x1E8C JUMPI PUSH2 0x1E8B PUSH2 0x2B3D JUMP JUMPDEST JUMPDEST SWAP1 PUSH0 MSTORE PUSH1 0x20 PUSH0 KECCAK256 ADD SLOAD PUSH1 0x2 PUSH0 DUP14 PUSH8 0xFFFFFFFFFFFFFFFF AND DUP2 MSTORE PUSH1 0x20 ADD SWAP1 DUP2 MSTORE PUSH1 0x20 ADD PUSH0 KECCAK256 PUSH1 0x7 ADD DUP12 DUP2 SLOAD DUP2 LT PUSH2 0x1EC5 JUMPI PUSH2 0x1EC4 PUSH2 0x2B3D JUMP JUMPDEST JUMPDEST SWAP1 PUSH0 MSTORE PUSH1 0x20 PUSH0 KECCAK256 ADD SLOAD DUP11 PUSH1 0x40 MLOAD DUP5 PUSH4 0xFFFFFFFF AND PUSH1 0xE0 SHL DUP2 MSTORE PUSH1 0x4 ADD PUSH2 0x1EED SWAP4 SWAP3 SWAP2 SWAP1 PUSH2 0x3430 JUMP JUMPDEST PUSH1 0x40 DUP1 MLOAD DUP1 DUP4 SUB DUP2 DUP7 GAS STATICCALL ISZERO DUP1 ISZERO PUSH2 0x1F07 JUMPI RETURNDATASIZE PUSH0 DUP1 RETURNDATACOPY RETURNDATASIZE PUSH0 REVERT JUMPDEST POP POP POP POP PUSH1 0x40 MLOAD RETURNDATASIZE PUSH1 0x1F NOT PUSH1 0x1F DUP3 ADD AND DUP3 ADD DUP1 PUSH1 0x40 MSTORE POP DUP2 ADD SWAP1 PUSH2 0x1F2B SWAP2 SWAP1 PUSH2 0x33F2 JUMP JUMPDEST DUP1 SWAP3 POP DUP2 SWAP4 POP POP POP PUSH0 DUP1 SLOAD SWAP1 PUSH2 0x100 EXP SWAP1 DIV PUSH20 0xFFFFFFFFFFFFFFFFFFFFFFFFFFFFFFFFFFFFFFFF AND PUSH20 0xFFFFFFFFFFFFFFFFFFFFFFFFFFFFFFFFFFFFFFFF AND PUSH4 0x39CD1F40 DUP6 DUP6 DUP6 DUP6 PUSH1 0x40 MLOAD DUP6 PUSH4 0xFFFFFFFF AND PUSH1 0xE0 SHL DUP2 MSTORE PUSH1 0x4 ADD PUSH2 0x1F91 SWAP5 SWAP4 SWAP3 SWAP2 SWAP1 PUSH2 0x3465 JUMP JUMPDEST PUSH1 0x40 DUP1 MLOAD DUP1 DUP4 SUB DUP2 DUP7 GAS STATICCALL ISZERO DUP1 ISZERO PUSH2 0x1FAB JUMPI RETURNDATASIZE PUSH0 DUP1 RETURNDATACOPY RETURNDATASIZE PUSH0 REVERT JUMPDEST POP POP POP POP PUSH1 0x40 MLOAD RETURNDATASIZE PUSH1 0x1F NOT PUSH1 0x1F DUP3 ADD AND DUP3 ADD DUP1 PUSH1 0x40 MSTORE POP DUP2 ADD SWAP1 PUSH2 0x1FCF SWAP2 SWAP1 PUSH2 0x33F2 JUMP JUMPDEST DUP1 SWAP5 POP DUP2 SWAP6 POP POP POP DUP4 DUP4 SWAP6 POP SWAP6 POP POP POP POP POP SWAP5 POP SWAP5 SWAP3 POP POP POP JUMP JUMPDEST PUSH0 DUP1 PUSH0 DUP1 PUSH0 DUP1 PUSH0 DUP1 SLOAD SWAP1 PUSH2 0x100 EXP SWAP1 DIV PUSH20 0xFFFFFFFFFFFFFFFFFFFFFFFFFFFFFFFFFFFFFFFF AND PUSH20 0xFFFFFFFFFFFFFFFFFFFFFFFFFFFFFFFFFFFFFFFF AND PUSH4 0x7F77A40C PUSH1 0x2 PUSH0 DUP15 PUSH8 0xFFFFFFFFFFFFFFFF AND DUP2 MSTORE PUSH1 0x20 ADD SWAP1 DUP2 MSTORE PUSH1 0x20 ADD PUSH0 KECCAK256 PUSH1 0x6 ADD DUP13 DUP2 SLOAD DUP2 LT PUSH2 0x205B JUMPI PUSH2 0x205A PUSH2 0x2B3D JUMP JUMPDEST JUMPDEST SWAP1 PUSH0 MSTORE PUSH1 0x20 PUSH0 KECCAK256 ADD SLOAD PUSH1 0x2 PUSH0 DUP16 PUSH8 0xFFFFFFFFFFFFFFFF AND DUP2 MSTORE PUSH1 0x20 ADD SWAP1 DUP2 MSTORE PUSH1 0x20 ADD PUSH0 KECCAK256 PUSH1 0x7 ADD DUP14 DUP2 SLOAD DUP2 LT PUSH2 0x2094 JUMPI PUSH2 0x2093 PUSH2 0x2B3D JUMP JUMPDEST JUMPDEST SWAP1 PUSH0 MSTORE PUSH1 0x20 PUSH0 KECCAK256 ADD SLOAD PUSH1 0x40 MLOAD DUP4 PUSH4 0xFFFFFFFF AND PUSH1 0xE0 SHL DUP2 MSTORE PUSH1 0x4 ADD PUSH2 0x20BA SWAP3 SWAP2 SWAP1 PUSH2 0x34A8 JUMP JUMPDEST PUSH1 0x40 DUP1 MLOAD DUP1 DUP4 SUB DUP2 DUP7 GAS STATICCALL ISZERO DUP1 ISZERO PUSH2 0x20D4 JUMPI RETURNDATASIZE PUSH0 DUP1 RETURNDATACOPY RETURNDATASIZE PUSH0 REVERT JUMPDEST POP POP POP POP PUSH1 0x40 MLOAD RETURNDATASIZE PUSH1 0x1F NOT PUSH1 0x1F DUP3 ADD AND DUP3 ADD DUP1 PUSH1 0x40 MSTORE POP DUP2 ADD SWAP1 PUSH2 0x20F8 SWAP2 SWAP1 PUSH2 0x33F2 JUMP JUMPDEST DUP1 SWAP5 POP DUP2 SWAP6 POP POP POP PUSH0 DUP1 SLOAD SWAP1 PUSH2 0x100 EXP SWAP1 DIV PUSH20 0xFFFFFFFFFFFFFFFFFFFFFFFFFFFFFFFFFFFFFFFF AND PUSH20 0xFFFFFFFFFFFFFFFFFFFFFFFFFFFFFFFFFFFFFFFF AND PUSH4 0xFB88954D DUP6 DUP6 DUP16 PUSH1 0x40 MLOAD DUP5 PUSH4 0xFFFFFFFF AND PUSH1 0xE0 SHL DUP2 MSTORE PUSH1 0x4 ADD PUSH2 0x215C SWAP4 SWAP3 SWAP2 SWAP1 PUSH2 0x3430 JUMP JUMPDEST PUSH1 0x40 DUP1 MLOAD DUP1 DUP4 SUB DUP2 DUP7 GAS STATICCALL ISZERO DUP1 ISZERO PUSH2 0x2176 JUMPI RETURNDATASIZE PUSH0 DUP1 RETURNDATACOPY RETURNDATASIZE PUSH0 REVERT JUMPDEST POP POP POP POP PUSH1 0x40 MLOAD RETURNDATASIZE PUSH1 0x1F NOT PUSH1 0x1F DUP3 ADD AND DUP3 ADD DUP1 PUSH1 0x40 MSTORE POP DUP2 ADD SWAP1 PUSH2 0x219A SWAP2 SWAP1 PUSH2 0x33F2 JUMP JUMPDEST DUP1 SWAP5 POP DUP2 SWAP6 POP POP POP PUSH0 DUP1 SLOAD SWAP1 PUSH2 0x100 EXP SWAP1 DIV PUSH20 0xFFFFFFFFFFFFFFFFFFFFFFFFFFFFFFFFFFFFFFFF AND PUSH20 0xFFFFFFFFFFFFFFFFFFFFFFFFFFFFFFFFFFFFFFFF AND PUSH4 0xFB88954D DUP10 DUP10 DUP13 PUSH1 0x40 MLOAD DUP5 PUSH4 0xFFFFFFFF AND PUSH1 0xE0 SHL DUP2 MSTORE PUSH1 0x4 ADD PUSH2 0x21FE SWAP4 SWAP3 SWAP2 SWAP1 PUSH2 0x3430 JUMP JUMPDEST PUSH1 0x40 DUP1 MLOAD DUP1 DUP4 SUB DUP2 DUP7 GAS STATICCALL ISZERO DUP1 ISZERO PUSH2 0x2218 JUMPI RETURNDATASIZE PUSH0 DUP1 RETURNDATACOPY RETURNDATASIZE PUSH0 REVERT JUMPDEST POP POP POP POP PUSH1 0x40 MLOAD RETURNDATASIZE PUSH1 0x1F NOT PUSH1 0x1F DUP3 ADD AND DUP3 ADD DUP1 PUSH1 0x40 MSTORE POP DUP2 ADD SWAP1 PUSH2 0x223C SWAP2 SWAP1 PUSH2 0x33F2 JUMP JUMPDEST DUP1 SWAP3 POP DUP2 SWAP4 POP POP POP PUSH0 DUP1 SLOAD SWAP1 PUSH2 0x100 EXP SWAP1 DIV PUSH20 0xFFFFFFFFFFFFFFFFFFFFFFFFFFFFFFFFFFFFFFFF AND PUSH20 0xFFFFFFFFFFFFFFFFFFFFFFFFFFFFFFFFFFFFFFFF AND PUSH4 0x39CD1F40 DUP6 DUP6 DUP6 DUP6 PUSH1 0x40 MLOAD DUP6 PUSH4 0xFFFFFFFF AND PUSH1 0xE0 SHL DUP2 MSTORE PUSH1 0x4 ADD PUSH2 0x22A2 SWAP5 SWAP4 SWAP3 SWAP2 SWAP1 PUSH2 0x3465 JUMP JUMPDEST PUSH1 0x40 DUP1 MLOAD DUP1 DUP4 SUB DUP2 DUP7 GAS STATICCALL ISZERO DUP1 ISZERO PUSH2 0x22BC JUMPI RETURNDATASIZE PUSH0 DUP1 RETURNDATACOPY RETURNDATASIZE PUSH0 REVERT JUMPDEST POP POP POP POP PUSH1 0x40 MLOAD RETURNDATASIZE PUSH1 0x1F NOT PUSH1 0x1F DUP3 ADD AND DUP3 ADD DUP1 PUSH1 0x40 MSTORE POP DUP2 ADD SWAP1 PUSH2 0x22E0 SWAP2 SWAP1 PUSH2 0x33F2 JUMP JUMPDEST SWAP6 POP SWAP6 POP POP POP POP POP SWAP7 POP SWAP7 SWAP5 POP POP POP POP POP JUMP JUMPDEST DUP3 DUP1 SLOAD DUP3 DUP3 SSTORE SWAP1 PUSH0 MSTORE PUSH1 0x20 PUSH0 KECCAK256 SWAP1 DUP2 ADD SWAP3 DUP3 ISZERO PUSH2 0x237F JUMPI SWAP2 PUSH1 0x20 MUL DUP3 ADD JUMPDEST DUP3 DUP2 GT ISZERO PUSH2 0x237E JUMPI DUP3 CALLDATALOAD PUSH20 0xFFFFFFFFFFFFFFFFFFFFFFFFFFFFFFFFFFFFFFFF AND DUP3 PUSH0 PUSH2 0x100 EXP DUP2 SLOAD DUP2 PUSH20 0xFFFFFFFFFFFFFFFFFFFFFFFFFFFFFFFFFFFFFFFF MUL NOT AND SWAP1 DUP4 PUSH20 0xFFFFFFFFFFFFFFFFFFFFFFFFFFFFFFFFFFFFFFFF AND MUL OR SWAP1 SSTORE POP SWAP2 PUSH1 0x20 ADD SWAP2 SWAP1 PUSH1 0x1 ADD SWAP1 PUSH2 0x2311 JUMP JUMPDEST JUMPDEST POP SWAP1 POP PUSH2 0x238C SWAP2 SWAP1 PUSH2 0x2422 JUMP JUMPDEST POP SWAP1 JUMP JUMPDEST DUP3 DUP1 SLOAD DUP3 DUP3 SSTORE SWAP1 PUSH0 MSTORE PUSH1 0x20 PUSH0 KECCAK256 SWAP1 DUP2 ADD SWAP3 DUP3 ISZERO PUSH2 0x23CA JUMPI SWAP2 PUSH1 0x20 MUL DUP3 ADD JUMPDEST DUP3 DUP2 GT ISZERO PUSH2 0x23C9 JUMPI DUP3 MLOAD DUP3 SSTORE SWAP2 PUSH1 0x20 ADD SWAP2 SWAP1 PUSH1 0x1 ADD SWAP1 PUSH2 0x23AE JUMP JUMPDEST JUMPDEST POP SWAP1 POP PUSH2 0x23D7 SWAP2 SWAP1 PUSH2 0x2422 JUMP JUMPDEST POP SWAP1 JUMP JUMPDEST PUSH1 0x40 MLOAD DUP1 PUSH2 0x1E0 ADD PUSH1 0x40 MSTORE DUP1 PUSH1 0xF SWAP1 PUSH1 0x20 DUP3 MUL DUP1 CALLDATASIZE DUP4 CALLDATACOPY DUP1 DUP3 ADD SWAP2 POP POP SWAP1 POP POP SWAP1 JUMP JUMPDEST PUSH1 0x40 MLOAD DUP1 PUSH1 0x80 ADD PUSH1 0x40 MSTORE DUP1 PUSH0 DUP2 MSTORE PUSH1 0x20 ADD PUSH0 DUP2 MSTORE PUSH1 0x20 ADD PUSH0 DUP2 MSTORE PUSH1 0x20 ADD PUSH0 DUP2 MSTORE POP SWAP1 JUMP JUMPDEST JUMPDEST DUP1 DUP3 GT ISZERO PUSH2 0x2439 JUMPI PUSH0 DUP2 PUSH0 SWAP1 SSTORE POP PUSH1 0x1 ADD PUSH2 0x2423 JUMP JUMPDEST POP SWAP1 JUMP JUMPDEST PUSH0 DUP1 REVERT JUMPDEST PUSH0 DUP1 REVERT JUMPDEST PUSH0 PUSH8 0xFFFFFFFFFFFFFFFF DUP3 AND SWAP1 POP SWAP2 SWAP1 POP JUMP JUMPDEST PUSH2 0x2461 DUP2 PUSH2 0x2445 JUMP JUMPDEST DUP2 EQ PUSH2 0x246B JUMPI PUSH0 DUP1 REVERT JUMPDEST POP JUMP JUMPDEST PUSH0 DUP2 CALLDATALOAD SWAP1 POP PUSH2 0x247C DUP2 PUSH2 0x2458 JUMP JUMPDEST SWAP3 SWAP2 POP POP JUMP JUMPDEST PUSH0 DUP1 REVERT JUMPDEST PUSH0 DUP1 REVERT JUMPDEST PUSH0 DUP1 REVERT JUMPDEST PUSH0 DUP1 DUP4 PUSH1 0x1F DUP5 ADD SLT PUSH2 0x24A3 JUMPI PUSH2 0x24A2 PUSH2 0x2482 JUMP JUMPDEST JUMPDEST DUP3 CALLDATALOAD SWAP1 POP PUSH8 0xFFFFFFFFFFFFFFFF DUP2 GT ISZERO PUSH2 0x24C0 JUMPI PUSH2 0x24BF PUSH2 0x2486 JUMP JUMPDEST JUMPDEST PUSH1 0x20 DUP4 ADD SWAP2 POP DUP4 PUSH1 0x20 DUP3 MUL DUP4 ADD GT ISZERO PUSH2 0x24DC JUMPI PUSH2 0x24DB PUSH2 0x248A JUMP JUMPDEST JUMPDEST SWAP3 POP SWAP3 SWAP1 POP JUMP JUMPDEST PUSH0 DUP1 PUSH0 PUSH1 0x40 DUP5 DUP7 SUB SLT ISZERO PUSH2 0x24FA JUMPI PUSH2 0x24F9 PUSH2 0x243D JUMP JUMPDEST JUMPDEST PUSH0 PUSH2 0x2507 DUP7 DUP3 DUP8 ADD PUSH2 0x246E JUMP JUMPDEST SWAP4 POP POP PUSH1 0x20 DUP5 ADD CALLDATALOAD PUSH8 0xFFFFFFFFFFFFFFFF DUP2 GT ISZERO PUSH2 0x2528 JUMPI PUSH2 0x2527 PUSH2 0x2441 JUMP JUMPDEST JUMPDEST PUSH2 0x2534 DUP7 DUP3 DUP8 ADD PUSH2 0x248E JUMP JUMPDEST SWAP3 POP SWAP3 POP POP SWAP3 POP SWAP3 POP SWAP3 JUMP JUMPDEST PUSH0 PUSH20 0xFFFFFFFFFFFFFFFFFFFFFFFFFFFFFFFFFFFFFFFF DUP3 AND SWAP1 POP SWAP2 SWAP1 POP JUMP JUMPDEST PUSH0 PUSH2 0x2569 DUP3 PUSH2 0x2540 JUMP JUMPDEST SWAP1 POP SWAP2 SWAP1 POP JUMP JUMPDEST PUSH2 0x2579 DUP2 PUSH2 0x255F JUMP JUMPDEST DUP2 EQ PUSH2 0x2583 JUMPI PUSH0 DUP1 REVERT JUMPDEST POP JUMP JUMPDEST PUSH0 DUP2 CALLDATALOAD SWAP1 POP PUSH2 0x2594 DUP2 PUSH2 0x2570 JUMP JUMPDEST SWAP3 SWAP2 POP POP JUMP JUMPDEST PUSH0 PUSH1 0x20 DUP3 DUP5 SUB SLT ISZERO PUSH2 0x25AF JUMPI PUSH2 0x25AE PUSH2 0x243D JUMP JUMPDEST JUMPDEST PUSH0 PUSH2 0x25BC DUP5 DUP3 DUP6 ADD PUSH2 0x2586 JUMP JUMPDEST SWAP2 POP POP SWAP3 SWAP2 POP POP JUMP JUMPDEST PUSH0 PUSH1 0x20 DUP3 DUP5 SUB SLT ISZERO PUSH2 0x25DA JUMPI PUSH2 0x25D9 PUSH2 0x243D JUMP JUMPDEST JUMPDEST PUSH0 PUSH2 0x25E7 DUP5 DUP3 DUP6 ADD PUSH2 0x246E JUMP JUMPDEST SWAP2 POP POP SWAP3 SWAP2 POP POP JUMP JUMPDEST PUSH0 PUSH1 0xF SWAP1 POP SWAP2 SWAP1 POP JUMP JUMPDEST PUSH0 DUP2 SWAP1 POP SWAP3 SWAP2 POP POP JUMP JUMPDEST PUSH0 DUP2 SWAP1 POP SWAP2 SWAP1 POP JUMP JUMPDEST PUSH2 0x2616 DUP2 PUSH2 0x255F JUMP JUMPDEST DUP3 MSTORE POP POP JUMP JUMPDEST PUSH0 PUSH2 0x2627 DUP4 DUP4 PUSH2 0x260D JUMP JUMPDEST PUSH1 0x20 DUP4 ADD SWAP1 POP SWAP3 SWAP2 POP POP JUMP JUMPDEST PUSH0 PUSH1 0x20 DUP3 ADD SWAP1 POP SWAP2 SWAP1 POP JUMP JUMPDEST PUSH2 0x2648 DUP2 PUSH2 0x25F0 JUMP JUMPDEST PUSH2 0x2652 DUP2 DUP5 PUSH2 0x25FA JUMP JUMPDEST SWAP3 POP PUSH2 0x265D DUP3 PUSH2 0x2604 JUMP JUMPDEST DUP1 PUSH0 JUMPDEST DUP4 DUP2 LT ISZERO PUSH2 0x268D JUMPI DUP2 MLOAD PUSH2 0x2674 DUP8 DUP3 PUSH2 0x261C JUMP JUMPDEST SWAP7 POP PUSH2 0x267F DUP4 PUSH2 0x2633 JUMP JUMPDEST SWAP3 POP POP PUSH1 0x1 DUP2 ADD SWAP1 POP PUSH2 0x2660 JUMP JUMPDEST POP POP POP POP POP POP JUMP JUMPDEST PUSH0 PUSH1 0xFF DUP3 AND SWAP1 POP SWAP2 SWAP1 POP JUMP JUMPDEST PUSH2 0x26AA DUP2 PUSH2 0x2695 JUMP JUMPDEST DUP3 MSTORE POP POP JUMP JUMPDEST PUSH0 PUSH2 0x200 DUP3 ADD SWAP1 POP PUSH2 0x26C4 PUSH0 DUP4 ADD DUP6 PUSH2 0x263F JUMP JUMPDEST PUSH2 0x26D2 PUSH2 0x1E0 DUP4 ADD DUP5 PUSH2 0x26A1 JUMP JUMPDEST SWAP4 SWAP3 POP POP POP JUMP JUMPDEST PUSH0 DUP2 SWAP1 POP SWAP2 SWAP1 POP JUMP JUMPDEST PUSH2 0x26EB DUP2 PUSH2 0x26D9 JUMP JUMPDEST DUP2 EQ PUSH2 0x26F5 JUMPI PUSH0 DUP1 REVERT JUMPDEST POP JUMP JUMPDEST PUSH0 DUP2 CALLDATALOAD SWAP1 POP PUSH2 0x2706 DUP2 PUSH2 0x26E2 JUMP JUMPDEST SWAP3 SWAP2 POP POP JUMP JUMPDEST PUSH0 DUP1 DUP4 PUSH1 0x1F DUP5 ADD SLT PUSH2 0x2721 JUMPI PUSH2 0x2720 PUSH2 0x2482 JUMP JUMPDEST JUMPDEST DUP3 CALLDATALOAD SWAP1 POP PUSH8 0xFFFFFFFFFFFFFFFF DUP2 GT ISZERO PUSH2 0x273E JUMPI PUSH2 0x273D PUSH2 0x2486 JUMP JUMPDEST JUMPDEST PUSH1 0x20 DUP4 ADD SWAP2 POP DUP4 PUSH1 0x20 DUP3 MUL DUP4 ADD GT ISZERO PUSH2 0x275A JUMPI PUSH2 0x2759 PUSH2 0x248A JUMP JUMPDEST JUMPDEST SWAP3 POP SWAP3 SWAP1 POP JUMP JUMPDEST PUSH0 DUP1 PUSH0 DUP1 PUSH0 DUP1 PUSH0 PUSH1 0xC0 DUP9 DUP11 SUB SLT ISZERO PUSH2 0x277C JUMPI PUSH2 0x277B PUSH2 0x243D JUMP JUMPDEST JUMPDEST PUSH0 PUSH2 0x2789 DUP11 DUP3 DUP12 ADD PUSH2 0x246E JUMP JUMPDEST SWAP8 POP POP PUSH1 0x20 PUSH2 0x279A DUP11 DUP3 DUP12 ADD PUSH2 0x2586 JUMP JUMPDEST SWAP7 POP POP PUSH1 0x40 PUSH2 0x27AB DUP11 DUP3 DUP12 ADD PUSH2 0x26F8 JUMP JUMPDEST SWAP6 POP POP PUSH1 0x60 PUSH2 0x27BC DUP11 DUP3 DUP12 ADD PUSH2 0x26F8 JUMP JUMPDEST SWAP5 POP POP PUSH1 0x80 PUSH2 0x27CD DUP11 DUP3 DUP12 ADD PUSH2 0x26F8 JUMP JUMPDEST SWAP4 POP POP PUSH1 0xA0 DUP9 ADD CALLDATALOAD PUSH8 0xFFFFFFFFFFFFFFFF DUP2 GT ISZERO PUSH2 0x27EE JUMPI PUSH2 0x27ED PUSH2 0x2441 JUMP JUMPDEST JUMPDEST PUSH2 0x27FA DUP11 DUP3 DUP12 ADD PUSH2 0x270C JUMP JUMPDEST SWAP3 POP SWAP3 POP POP SWAP3 SWAP6 SWAP9 SWAP2 SWAP5 SWAP8 POP SWAP3 SWAP6 POP JUMP JUMPDEST PUSH0 DUP1 PUSH1 0x40 DUP4 DUP6 SUB SLT ISZERO PUSH2 0x2821 JUMPI PUSH2 0x2820 PUSH2 0x243D JUMP JUMPDEST JUMPDEST PUSH0 PUSH2 0x282E DUP6 DUP3 DUP7 ADD PUSH2 0x246E JUMP JUMPDEST SWAP3 POP POP PUSH1 0x20 PUSH2 0x283F DUP6 DUP3 DUP7 ADD PUSH2 0x2586 JUMP JUMPDEST SWAP2 POP POP SWAP3 POP SWAP3 SWAP1 POP JUMP JUMPDEST PUSH0 DUP2 ISZERO ISZERO SWAP1 POP SWAP2 SWAP1 POP JUMP JUMPDEST PUSH2 0x285D DUP2 PUSH2 0x2849 JUMP JUMPDEST DUP3 MSTORE POP POP JUMP JUMPDEST PUSH2 0x286C DUP2 PUSH2 0x26D9 JUMP JUMPDEST DUP3 MSTORE POP POP JUMP JUMPDEST PUSH0 PUSH1 0x40 DUP3 ADD SWAP1 POP PUSH2 0x2885 PUSH0 DUP4 ADD DUP6 PUSH2 0x2854 JUMP JUMPDEST PUSH2 0x2892 PUSH1 0x20 DUP4 ADD DUP5 PUSH2 0x2863 JUMP JUMPDEST SWAP4 SWAP3 POP POP POP JUMP JUMPDEST PUSH0 PUSH1 0x20 DUP3 DUP5 SUB SLT ISZERO PUSH2 0x28AE JUMPI PUSH2 0x28AD PUSH2 0x243D JUMP JUMPDEST JUMPDEST PUSH0 PUSH2 0x28BB DUP5 DUP3 DUP6 ADD PUSH2 0x26F8 JUMP JUMPDEST SWAP2 POP POP SWAP3 SWAP2 POP POP JUMP JUMPDEST PUSH2 0x28CD DUP2 PUSH2 0x255F JUMP JUMPDEST DUP3 MSTORE POP POP JUMP JUMPDEST PUSH2 0x28DC DUP2 PUSH2 0x2445 JUMP JUMPDEST DUP3 MSTORE POP POP JUMP JUMPDEST PUSH0 PUSH1 0xE0 DUP3 ADD SWAP1 POP PUSH2 0x28F5 PUSH0 DUP4 ADD DUP11 PUSH2 0x28C4 JUMP JUMPDEST PUSH2 0x2902 PUSH1 0x20 DUP4 ADD DUP10 PUSH2 0x28D3 JUMP JUMPDEST PUSH2 0x290F PUSH1 0x40 DUP4 ADD DUP9 PUSH2 0x2863 JUMP JUMPDEST PUSH2 0x291C PUSH1 0x60 DUP4 ADD DUP8 PUSH2 0x2863 JUMP JUMPDEST PUSH2 0x2929 PUSH1 0x80 DUP4 ADD DUP7 PUSH2 0x2863 JUMP JUMPDEST PUSH2 0x2936 PUSH1 0xA0 DUP4 ADD DUP6 PUSH2 0x2854 JUMP JUMPDEST PUSH2 0x2943 PUSH1 0xC0 DUP4 ADD DUP5 PUSH2 0x2854 JUMP JUMPDEST SWAP9 SWAP8 POP POP POP POP POP POP POP POP JUMP JUMPDEST PUSH2 0x2958 DUP2 PUSH2 0x2849 JUMP JUMPDEST DUP2 EQ PUSH2 0x2962 JUMPI PUSH0 DUP1 REVERT JUMPDEST POP JUMP JUMPDEST PUSH0 DUP2 CALLDATALOAD SWAP1 POP PUSH2 0x2973 DUP2 PUSH2 0x294F JUMP JUMPDEST SWAP3 SWAP2 POP POP JUMP JUMPDEST PUSH0 DUP1 PUSH0 DUP1 PUSH0 DUP1 PUSH0 PUSH1 0xA0 DUP9 DUP11 SUB SLT ISZERO PUSH2 0x2994 JUMPI PUSH2 0x2993 PUSH2 0x243D JUMP JUMPDEST JUMPDEST PUSH0 PUSH2 0x29A1 DUP11 DUP3 DUP12 ADD PUSH2 0x246E JUMP JUMPDEST SWAP8 POP POP PUSH1 0x20 DUP9 ADD CALLDATALOAD PUSH8 0xFFFFFFFFFFFFFFFF DUP2 GT ISZERO PUSH2 0x29C2 JUMPI PUSH2 0x29C1 PUSH2 0x2441 JUMP JUMPDEST JUMPDEST PUSH2 0x29CE DUP11 DUP3 DUP12 ADD PUSH2 0x270C JUMP JUMPDEST SWAP7 POP SWAP7 POP POP PUSH1 0x40 DUP9 ADD CALLDATALOAD PUSH8 0xFFFFFFFFFFFFFFFF DUP2 GT ISZERO PUSH2 0x29F1 JUMPI PUSH2 0x29F0 PUSH2 0x2441 JUMP JUMPDEST JUMPDEST PUSH2 0x29FD DUP11 DUP3 DUP12 ADD PUSH2 0x270C JUMP JUMPDEST SWAP5 POP SWAP5 POP POP PUSH1 0x60 PUSH2 0x2A10 DUP11 DUP3 DUP12 ADD PUSH2 0x26F8 JUMP JUMPDEST SWAP3 POP POP PUSH1 0x80 PUSH2 0x2A21 DUP11 DUP3 DUP12 ADD PUSH2 0x2965 JUMP JUMPDEST SWAP2 POP POP SWAP3 SWAP6 SWAP9 SWAP2 SWAP5 SWAP8 POP SWAP3 SWAP6 POP JUMP JUMPDEST PUSH0 DUP3 DUP3 MSTORE PUSH1 0x20 DUP3 ADD SWAP1 POP SWAP3 SWAP2 POP POP JUMP JUMPDEST PUSH32 0x566F74652077697468207468697320494420616C726561647920657869737473 PUSH0 DUP3 ADD MSTORE POP JUMP JUMPDEST PUSH0 PUSH2 0x2A74 PUSH1 0x20 DUP4 PUSH2 0x2A30 JUMP JUMPDEST SWAP2 POP PUSH2 0x2A7F DUP3 PUSH2 0x2A40 JUMP JUMPDEST PUSH1 0x20 DUP3 ADD SWAP1 POP SWAP2 SWAP1 POP JUMP JUMPDEST PUSH0 PUSH1 0x20 DUP3 ADD SWAP1 POP DUP2 DUP2 SUB PUSH0 DUP4 ADD MSTORE PUSH2 0x2AA1 DUP2 PUSH2 0x2A68 JUMP JUMPDEST SWAP1 POP SWAP2 SWAP1 POP JUMP JUMPDEST PUSH32 0x496E76616C696420494400000000000000000000000000000000000000000000 PUSH0 DUP3 ADD MSTORE POP JUMP JUMPDEST PUSH0 PUSH2 0x2ADC PUSH1 0xA DUP4 PUSH2 0x2A30 JUMP JUMPDEST SWAP2 POP PUSH2 0x2AE7 DUP3 PUSH2 0x2AA8 JUMP JUMPDEST PUSH1 0x20 DUP3 ADD SWAP1 POP SWAP2 SWAP1 POP JUMP JUMPDEST PUSH0 PUSH1 0x20 DUP3 ADD SWAP1 POP DUP2 DUP2 SUB PUSH0 DUP4 ADD MSTORE PUSH2 0x2B09 DUP2 PUSH2 0x2AD0 JUMP JUMPDEST SWAP1 POP SWAP2 SWAP1 POP JUMP JUMPDEST PUSH32 0x4E487B7100000000000000000000000000000000000000000000000000000000 PUSH0 MSTORE PUSH1 0x41 PUSH1 0x4 MSTORE PUSH1 0x24 PUSH0 REVERT JUMPDEST PUSH32 0x4E487B7100000000000000000000000000000000000000000000000000000000 PUSH0 MSTORE PUSH1 0x32 PUSH1 0x4 MSTORE PUSH1 0x24 PUSH0 REVERT JUMPDEST PUSH32 0x4F6E6C79206F776E657220616C6C6F7765640000000000000000000000000000 PUSH0 DUP3 ADD MSTORE POP JUMP JUMPDEST PUSH0 PUSH2 0x2B9E PUSH1 0x12 DUP4 PUSH2 0x2A30 JUMP JUMPDEST SWAP2 POP PUSH2 0x2BA9 DUP3 PUSH2 0x2B6A JUMP JUMPDEST PUSH1 0x20 DUP3 ADD SWAP1 POP SWAP2 SWAP1 POP JUMP JUMPDEST PUSH0 PUSH1 0x20 DUP3 ADD SWAP1 POP DUP2 DUP2 SUB PUSH0 DUP4 ADD MSTORE PUSH2 0x2BCB DUP2 PUSH2 0x2B92 JUMP JUMPDEST SWAP1 POP SWAP2 SWAP1 POP JUMP JUMPDEST PUSH32 0x566F746520646F6573206E6F7420657869737400000000000000000000000000 PUSH0 DUP3 ADD MSTORE POP JUMP JUMPDEST PUSH0 PUSH2 0x2C06 PUSH1 0x13 DUP4 PUSH2 0x2A30 JUMP JUMPDEST SWAP2 POP PUSH2 0x2C11 DUP3 PUSH2 0x2BD2 JUMP JUMPDEST PUSH1 0x20 DUP3 ADD SWAP1 POP SWAP2 SWAP1 POP JUMP JUMPDEST PUSH0 PUSH1 0x20 DUP3 ADD SWAP1 POP DUP2 DUP2 SUB PUSH0 DUP4 ADD MSTORE PUSH2 0x2C33 DUP2 PUSH2 0x2BFA JUMP JUMPDEST SWAP1 POP SWAP2 SWAP1 POP JUMP JUMPDEST PUSH32 0x566F7465206973206E6F74207265616479000000000000000000000000000000 PUSH0 DUP3 ADD MSTORE POP JUMP JUMPDEST PUSH0 PUSH2 0x2C6E PUSH1 0x11 DUP4 PUSH2 0x2A30 JUMP JUMPDEST SWAP2 POP PUSH2 0x2C79 DUP3 PUSH2 0x2C3A JUMP JUMPDEST PUSH1 0x20 DUP3 ADD SWAP1 POP SWAP2 SWAP1 POP JUMP JUMPDEST PUSH0 PUSH1 0x20 DUP3 ADD SWAP1 POP DUP2 DUP2 SUB PUSH0 DUP4 ADD MSTORE PUSH2 0x2C9B DUP2 PUSH2 0x2C62 JUMP JUMPDEST SWAP1 POP SWAP2 SWAP1 POP JUMP JUMPDEST PUSH32 0x4E487B7100000000000000000000000000000000000000000000000000000000 PUSH0 MSTORE PUSH1 0x11 PUSH1 0x4 MSTORE PUSH1 0x24 PUSH0 REVERT JUMPDEST PUSH0 PUSH2 0x2CD9 DUP3 PUSH2 0x2695 JUMP JUMPDEST SWAP2 POP PUSH1 0xFF DUP3 SUB PUSH2 0x2CEC JUMPI PUSH2 0x2CEB PUSH2 0x2CA2 JUMP JUMPDEST JUMPDEST PUSH1 0x1 DUP3 ADD SWAP1 POP SWAP2 SWAP1 POP JUMP JUMPDEST PUSH32 0x566F746520697320616C726561647920636F6D706C6574656400000000000000 PUSH0 DUP3 ADD MSTORE POP JUMP JUMPDEST PUSH0 PUSH2 0x2D2B PUSH1 0x19 DUP4 PUSH2 0x2A30 JUMP JUMPDEST SWAP2 POP PUSH2 0x2D36 DUP3 PUSH2 0x2CF7 JUMP JUMPDEST PUSH1 0x20 DUP3 ADD SWAP1 POP SWAP2 SWAP1 POP JUMP JUMPDEST PUSH0 PUSH1 0x20 DUP3 ADD SWAP1 POP DUP2 DUP2 SUB PUSH0 DUP4 ADD MSTORE PUSH2 0x2D58 DUP2 PUSH2 0x2D1F JUMP JUMPDEST SWAP1 POP SWAP2 SWAP1 POP JUMP JUMPDEST PUSH32 0x496E76616C6964207369676E6174757265206C656E6774680000000000000000 PUSH0 DUP3 ADD MSTORE POP JUMP JUMPDEST PUSH0 PUSH2 0x2D93 PUSH1 0x18 DUP4 PUSH2 0x2A30 JUMP JUMPDEST SWAP2 POP PUSH2 0x2D9E DUP3 PUSH2 0x2D5F JUMP JUMPDEST PUSH1 0x20 DUP3 ADD SWAP1 POP SWAP2 SWAP1 POP JUMP JUMPDEST PUSH0 PUSH1 0x20 DUP3 ADD SWAP1 POP DUP2 DUP2 SUB PUSH0 DUP4 ADD MSTORE PUSH2 0x2DC0 DUP2 PUSH2 0x2D87 JUMP JUMPDEST SWAP1 POP SWAP2 SWAP1 POP JUMP JUMPDEST PUSH32 0x496E76616C69642063616E646964617465000000000000000000000000000000 PUSH0 DUP3 ADD MSTORE POP JUMP JUMPDEST PUSH0 PUSH2 0x2DFB PUSH1 0x11 DUP4 PUSH2 0x2A30 JUMP JUMPDEST SWAP2 POP PUSH2 0x2E06 DUP3 PUSH2 0x2DC7 JUMP JUMPDEST PUSH1 0x20 DUP3 ADD SWAP1 POP SWAP2 SWAP1 POP JUMP JUMPDEST PUSH0 PUSH1 0x20 DUP3 ADD SWAP1 POP DUP2 DUP2 SUB PUSH0 DUP4 ADD MSTORE PUSH2 0x2E28 DUP2 PUSH2 0x2DEF JUMP JUMPDEST SWAP1 POP SWAP2 SWAP1 POP JUMP JUMPDEST PUSH32 0x566F746520616C72656164792063617374000000000000000000000000000000 PUSH0 DUP3 ADD MSTORE POP JUMP JUMPDEST PUSH0 PUSH2 0x2E63 PUSH1 0x11 DUP4 PUSH2 0x2A30 JUMP JUMPDEST SWAP2 POP PUSH2 0x2E6E DUP3 PUSH2 0x2E2F JUMP JUMPDEST PUSH1 0x20 DUP3 ADD SWAP1 POP SWAP2 SWAP1 POP JUMP JUMPDEST PUSH0 PUSH1 0x20 DUP3 ADD SWAP1 POP DUP2 DUP2 SUB PUSH0 DUP4 ADD MSTORE PUSH2 0x2E90 DUP2 PUSH2 0x2E57 JUMP JUMPDEST SWAP1 POP SWAP2 SWAP1 POP JUMP JUMPDEST PUSH32 0x496E76616C6964207369676E6174757265000000000000000000000000000000 PUSH0 DUP3 ADD MSTORE POP JUMP JUMPDEST PUSH0 PUSH2 0x2ECB PUSH1 0x11 DUP4 PUSH2 0x2A30 JUMP JUMPDEST SWAP2 POP PUSH2 0x2ED6 DUP3 PUSH2 0x2E97 JUMP JUMPDEST PUSH1 0x20 DUP3 ADD SWAP1 POP SWAP2 SWAP1 POP JUMP JUMPDEST PUSH0 PUSH1 0x20 DUP3 ADD SWAP1 POP DUP2 DUP2 SUB PUSH0 DUP4 ADD MSTORE PUSH2 0x2EF8 DUP2 PUSH2 0x2EBF JUMP JUMPDEST SWAP1 POP SWAP2 SWAP1 POP JUMP JUMPDEST PUSH0 PUSH2 0x2F09 DUP3 PUSH2 0x26D9 JUMP JUMPDEST SWAP2 POP PUSH2 0x2F14 DUP4 PUSH2 0x26D9 JUMP JUMPDEST SWAP3 POP DUP3 DUP3 ADD SWAP1 POP DUP1 DUP3 GT ISZERO PUSH2 0x2F2C JUMPI PUSH2 0x2F2B PUSH2 0x2CA2 JUMP JUMPDEST JUMPDEST SWAP3 SWAP2 POP POP JUMP JUMPDEST PUSH32 0x43616E646964617465206E6F7420666F756E6400000000000000000000000000 PUSH0 DUP3 ADD MSTORE POP JUMP JUMPDEST PUSH0 PUSH2 0x2F66 PUSH1 0x13 DUP4 PUSH2 0x2A30 JUMP JUMPDEST SWAP2 POP PUSH2 0x2F71 DUP3 PUSH2 0x2F32 JUMP JUMPDEST PUSH1 0x20 DUP3 ADD SWAP1 POP SWAP2 SWAP1 POP JUMP JUMPDEST PUSH0 PUSH1 0x20 DUP3 ADD SWAP1 POP DUP2 DUP2 SUB PUSH0 DUP4 ADD MSTORE PUSH2 0x2F93 DUP2 PUSH2 0x2F5A JUMP JUMPDEST SWAP1 POP SWAP2 SWAP1 POP JUMP JUMPDEST PUSH32 0x566F746520697320616C72656164792072656164790000000000000000000000 PUSH0 DUP3 ADD MSTORE POP JUMP JUMPDEST PUSH0 PUSH2 0x2FCE PUSH1 0x15 DUP4 PUSH2 0x2A30 JUMP JUMPDEST SWAP2 POP PUSH2 0x2FD9 DUP3 PUSH2 0x2F9A JUMP JUMPDEST PUSH1 0x20 DUP3 ADD SWAP1 POP SWAP2 SWAP1 POP JUMP JUMPDEST PUSH0 PUSH1 0x20 DUP3 ADD SWAP1 POP DUP2 DUP2 SUB PUSH0 DUP4 ADD MSTORE PUSH2 0x2FFB DUP2 PUSH2 0x2FC2 JUMP JUMPDEST SWAP1 POP SWAP2 SWAP1 POP JUMP JUMPDEST PUSH32 0x4F6E6C79207468652063726561746F722063616E2061646420766F7465727300 PUSH0 DUP3 ADD MSTORE POP JUMP JUMPDEST PUSH0 PUSH2 0x3036 PUSH1 0x1F DUP4 PUSH2 0x2A30 JUMP JUMPDEST SWAP2 POP PUSH2 0x3041 DUP3 PUSH2 0x3002 JUMP JUMPDEST PUSH1 0x20 DUP3 ADD SWAP1 POP SWAP2 SWAP1 POP JUMP JUMPDEST PUSH0 PUSH1 0x20 DUP3 ADD SWAP1 POP DUP2 DUP2 SUB PUSH0 DUP4 ADD MSTORE PUSH2 0x3063 DUP2 PUSH2 0x302A JUMP JUMPDEST SWAP1 POP SWAP2 SWAP1 POP JUMP JUMPDEST PUSH32 0x496E76616C696420766F7465727320636F6F7264696E61746573000000000000 PUSH0 DUP3 ADD MSTORE POP JUMP JUMPDEST PUSH0 PUSH2 0x309E PUSH1 0x1A DUP4 PUSH2 0x2A30 JUMP JUMPDEST SWAP2 POP PUSH2 0x30A9 DUP3 PUSH2 0x306A JUMP JUMPDEST PUSH1 0x20 DUP3 ADD SWAP1 POP SWAP2 SWAP1 POP JUMP JUMPDEST PUSH0 PUSH1 0x20 DUP3 ADD SWAP1 POP DUP2 DUP2 SUB PUSH0 DUP4 ADD MSTORE PUSH2 0x30CB DUP2 PUSH2 0x3092 JUMP JUMPDEST SWAP1 POP SWAP2 SWAP1 POP JUMP JUMPDEST PUSH32 0x4E6577207468726573686F6C64206D7573742062652067726561746572207468 PUSH0 DUP3 ADD MSTORE PUSH32 0x616E2063757272656E74207468726573686F6C64000000000000000000000000 PUSH1 0x20 DUP3 ADD MSTORE POP JUMP JUMPDEST PUSH0 PUSH2 0x312C PUSH1 0x34 DUP4 PUSH2 0x2A30 JUMP JUMPDEST SWAP2 POP PUSH2 0x3137 DUP3 PUSH2 0x30D2 JUMP JUMPDEST PUSH1 0x40 DUP3 ADD SWAP1 POP SWAP2 SWAP1 POP JUMP JUMPDEST PUSH0 PUSH1 0x20 DUP3 ADD SWAP1 POP DUP2 DUP2 SUB PUSH0 DUP4 ADD MSTORE PUSH2 0x3159 DUP2 PUSH2 0x3120 JUMP JUMPDEST SWAP1 POP SWAP2 SWAP1 POP JUMP JUMPDEST PUSH32 0x5468726573686F6C64206578636565647320616C6C6F77656420766F74657273 PUSH0 DUP3 ADD MSTORE POP JUMP JUMPDEST PUSH0 PUSH2 0x3194 PUSH1 0x20 DUP4 PUSH2 0x2A30 JUMP JUMPDEST SWAP2 POP PUSH2 0x319F DUP3 PUSH2 0x3160 JUMP JUMPDEST PUSH1 0x20 DUP3 ADD SWAP1 POP SWAP2 SWAP1 POP JUMP JUMPDEST PUSH0 PUSH1 0x20 DUP3 ADD SWAP1 POP DUP2 DUP2 SUB PUSH0 DUP4 ADD MSTORE PUSH2 0x31C1 DUP2 PUSH2 0x3188 JUMP JUMPDEST SWAP1 POP SWAP2 SWAP1 POP JUMP JUMPDEST PUSH32 0x4E6F7420656E6F75676820766F74657300000000000000000000000000000000 PUSH0 DUP3 ADD MSTORE POP JUMP JUMPDEST PUSH0 PUSH2 0x31FC PUSH1 0x10 DUP4 PUSH2 0x2A30 JUMP JUMPDEST SWAP2 POP PUSH2 0x3207 DUP3 PUSH2 0x31C8 JUMP JUMPDEST PUSH1 0x20 DUP3 ADD SWAP1 POP SWAP2 SWAP1 POP JUMP JUMPDEST PUSH0 PUSH1 0x20 DUP3 ADD SWAP1 POP DUP2 DUP2 SUB PUSH0 DUP4 ADD MSTORE PUSH2 0x3229 DUP2 PUSH2 0x31F0 JUMP JUMPDEST SWAP1 POP SWAP2 SWAP1 POP JUMP JUMPDEST PUSH32 0x4E487B7100000000000000000000000000000000000000000000000000000000 PUSH0 MSTORE PUSH1 0x12 PUSH1 0x4 MSTORE PUSH1 0x24 PUSH0 REVERT JUMPDEST PUSH0 PUSH2 0x3267 DUP3 PUSH2 0x26D9 JUMP JUMPDEST SWAP2 POP PUSH2 0x3272 DUP4 PUSH2 0x26D9 JUMP JUMPDEST SWAP3 POP DUP3 PUSH2 0x3282 JUMPI PUSH2 0x3281 PUSH2 0x3230 JUMP JUMPDEST JUMPDEST DUP3 DUP3 DIV SWAP1 POP SWAP3 SWAP2 POP POP JUMP JUMPDEST PUSH0 PUSH2 0x3297 DUP3 PUSH2 0x26D9 JUMP JUMPDEST SWAP2 POP PUSH2 0x32A2 DUP4 PUSH2 0x26D9 JUMP JUMPDEST SWAP3 POP DUP3 PUSH2 0x32B2 JUMPI PUSH2 0x32B1 PUSH2 0x3230 JUMP JUMPDEST JUMPDEST DUP3 DUP3 MOD SWAP1 POP SWAP3 SWAP2 POP POP JUMP JUMPDEST PUSH0 DUP2 PUSH1 0xC0 SHL SWAP1 POP SWAP2 SWAP1 POP JUMP JUMPDEST PUSH0 PUSH2 0x32D3 DUP3 PUSH2 0x32BD JUMP JUMPDEST SWAP1 POP SWAP2 SWAP1 POP JUMP JUMPDEST PUSH2 0x32EB PUSH2 0x32E6 DUP3 PUSH2 0x2445 JUMP JUMPDEST PUSH2 0x32C9 JUMP JUMPDEST DUP3 MSTORE POP POP JUMP JUMPDEST PUSH0 DUP2 PUSH1 0x60 SHL SWAP1 POP SWAP2 SWAP1 POP JUMP JUMPDEST PUSH0 PUSH2 0x3307 DUP3 PUSH2 0x32F1 JUMP JUMPDEST SWAP1 POP SWAP2 SWAP1 POP JUMP JUMPDEST PUSH0 PUSH2 0x3318 DUP3 PUSH2 0x32FD JUMP JUMPDEST SWAP1 POP SWAP2 SWAP1 POP JUMP JUMPDEST PUSH2 0x3330 PUSH2 0x332B DUP3 PUSH2 0x255F JUMP JUMPDEST PUSH2 0x330E JUMP JUMPDEST DUP3 MSTORE POP POP JUMP JUMPDEST PUSH0 DUP2 SWAP1 POP SWAP2 SWAP1 POP JUMP JUMPDEST PUSH2 0x3350 PUSH2 0x334B DUP3 PUSH2 0x26D9 JUMP JUMPDEST PUSH2 0x3336 JUMP JUMPDEST DUP3 MSTORE POP POP JUMP JUMPDEST PUSH0 PUSH2 0x3361 DUP3 DUP10 PUSH2 0x32DA JUMP JUMPDEST PUSH1 0x8 DUP3 ADD SWAP2 POP PUSH2 0x3371 DUP3 DUP9 PUSH2 0x331F JUMP JUMPDEST PUSH1 0x14 DUP3 ADD SWAP2 POP PUSH2 0x3381 DUP3 DUP8 PUSH2 0x333F JUMP JUMPDEST PUSH1 0x20 DUP3 ADD SWAP2 POP PUSH2 0x3391 DUP3 DUP7 PUSH2 0x333F JUMP JUMPDEST PUSH1 0x20 DUP3 ADD SWAP2 POP PUSH2 0x33A1 DUP3 DUP6 PUSH2 0x333F JUMP JUMPDEST PUSH1 0x20 DUP3 ADD SWAP2 POP PUSH2 0x33B1 DUP3 DUP5 PUSH2 0x333F JUMP JUMPDEST PUSH1 0x20 DUP3 ADD SWAP2 POP DUP2 SWAP1 POP SWAP8 SWAP7 POP POP POP POP POP POP POP JUMP JUMPDEST PUSH0 PUSH1 0x20 DUP3 ADD SWAP1 POP PUSH2 0x33D8 PUSH0 DUP4 ADD DUP5 PUSH2 0x2863 JUMP JUMPDEST SWAP3 SWAP2 POP POP JUMP JUMPDEST PUSH0 DUP2 MLOAD SWAP1 POP PUSH2 0x33EC DUP2 PUSH2 0x26E2 JUMP JUMPDEST SWAP3 SWAP2 POP POP JUMP JUMPDEST PUSH0 DUP1 PUSH1 0x40 DUP4 DUP6 SUB SLT ISZERO PUSH2 0x3408 JUMPI PUSH2 0x3407 PUSH2 0x243D JUMP JUMPDEST JUMPDEST PUSH0 PUSH2 0x3415 DUP6 DUP3 DUP7 ADD PUSH2 0x33DE JUMP JUMPDEST SWAP3 POP POP PUSH1 0x20 PUSH2 0x3426 DUP6 DUP3 DUP7 ADD PUSH2 0x33DE JUMP JUMPDEST SWAP2 POP POP SWAP3 POP SWAP3 SWAP1 POP JUMP JUMPDEST PUSH0 PUSH1 0x60 DUP3 ADD SWAP1 POP PUSH2 0x3443 PUSH0 DUP4 ADD DUP7 PUSH2 0x2863 JUMP JUMPDEST PUSH2 0x3450 PUSH1 0x20 DUP4 ADD DUP6 PUSH2 0x2863 JUMP JUMPDEST PUSH2 0x345D PUSH1 0x40 DUP4 ADD DUP5 PUSH2 0x2863 JUMP JUMPDEST SWAP5 SWAP4 POP POP POP POP JUMP JUMPDEST PUSH0 PUSH1 0x80 DUP3 ADD SWAP1 POP PUSH2 0x3478 PUSH0 DUP4 ADD DUP8 PUSH2 0x2863 JUMP JUMPDEST PUSH2 0x3485 PUSH1 0x20 DUP4 ADD DUP7 PUSH2 0x2863 JUMP JUMPDEST PUSH2 0x3492 PUSH1 0x40 DUP4 ADD DUP6 PUSH2 0x2863 JUMP JUMPDEST PUSH2 0x349F PUSH1 0x60 DUP4 ADD DUP5 PUSH2 0x2863 JUMP JUMPDEST SWAP6 SWAP5 POP POP POP POP POP JUMP JUMPDEST PUSH0 PUSH1 0x40 DUP3 ADD SWAP1 POP PUSH2 0x34BB PUSH0 DUP4 ADD DUP6 PUSH2 0x2863 JUMP JUMPDEST PUSH2 0x34C8 PUSH1 0x20 DUP4 ADD DUP5 PUSH2 0x2863 JUMP JUMPDEST SWAP4 SWAP3 POP POP POP JUMP INVALID LOG2 PUSH5 0x6970667358 0x22 SLT KECCAK256 SHL CALL DUP10 0xDC PUSH27 0x745DEC4397CDBB707CC7FF436BDD027362E9FABE8FD85B82DD306A PUSH5 0x736F6C6343 STOP ADDMOD AND STOP CALLER "
				},
				"gasEstimates": {
					"creation": {
						"codeDepositCost": "2714600",
						"executionCost": "infinite",
						"totalCost": "infinite"
					},
					"external": {
						"CompleteVote(uint64)": "infinite",
						"VoteAnnonymous(uint64,address,uint256,uint256,uint256,uint256[])": "infinite",
						"VoteLeaders(uint64)": "infinite",
						"VoteState(uint64,address)": "12169",
						"addVotersToVote(uint64,uint256[],uint256[],uint256,bool)": "infinite",
						"createVote(uint64,address[])": "infinite",
						"oops()": "infinite",
						"updateCurve(address)": "26907",
						"votings(uint256)": "infinite"
					},
					"internal": {
						"computeLRValues(uint256,uint64,uint256,uint256,uint256,uint256)": "infinite",
						"l(uint256,uint64,uint256,uint256)": "infinite",
						"r(uint256,uint64,uint256,uint256,uint256,uint256)": "infinite",
						"verifyRingSignature(address,uint64,uint256,uint256,uint256,uint256[] calldata)": "infinite"
					}
				},
				"methodIdentifiers": {
					"CompleteVote(uint64)": "e5db95e3",
					"VoteAnnonymous(uint64,address,uint256,uint256,uint256,uint256[])": "9e5515a8",
					"VoteLeaders(uint64)": "61450b52",
					"VoteState(uint64,address)": "9f7aa8f4",
					"addVotersToVote(uint64,uint256[],uint256[],uint256,bool)": "c4f788e9",
					"createVote(uint64,address[])": "24b4cdc7",
					"oops()": "8bcd8056",
					"updateCurve(address)": "3b2a537c",
					"votings(uint256)": "a598d03c"
				}
			},
			"storageLayout": {
				"storage": [
					{
						"astId": 100,
						"contract": "DataTradingTest/UntraceableVoting.sol:UntraceableVoting",
						"label": "Curve",
						"offset": 0,
						"slot": "0",
						"type": "t_contract(secp256k)97"
					},
					{
						"astId": 102,
						"contract": "DataTradingTest/UntraceableVoting.sol:UntraceableVoting",
						"label": "owner",
						"offset": 0,
						"slot": "1",
						"type": "t_address"
					},
					{
						"astId": 107,
						"contract": "DataTradingTest/UntraceableVoting.sol:UntraceableVoting",
						"label": "votings",
						"offset": 0,
						"slot": "2",
						"type": "t_mapping(t_uint256,t_struct(voting)429_storage)"
					}
				],
				"types": {
					"t_address": {
						"encoding": "inplace",
						"label": "address",
						"numberOfBytes": "20"
					},
					"t_array(t_address)dyn_storage": {
						"base": "t_address",
						"encoding": "dynamic_array",
						"label": "address[]",
						"numberOfBytes": "32"
					},
					"t_array(t_uint256)dyn_storage": {
						"base": "t_uint256",
						"encoding": "dynamic_array",
						"label": "uint256[]",
						"numberOfBytes": "32"
					},
					"t_bool": {
						"encoding": "inplace",
						"label": "bool",
						"numberOfBytes": "1"
					},
					"t_contract(secp256k)97": {
						"encoding": "inplace",
						"label": "contract secp256k",
						"numberOfBytes": "20"
					},
					"t_mapping(t_address,t_uint256)": {
						"encoding": "mapping",
						"key": "t_address",
						"label": "mapping(address => uint256)",
						"numberOfBytes": "32",
						"value": "t_uint256"
					},
					"t_mapping(t_uint256,t_bool)": {
						"encoding": "mapping",
						"key": "t_uint256",
						"label": "mapping(uint256 => bool)",
						"numberOfBytes": "32",
						"value": "t_bool"
					},
					"t_mapping(t_uint256,t_struct(voting)429_storage)": {
						"encoding": "mapping",
						"key": "t_uint256",
						"label": "mapping(uint256 => struct UntraceableVoting.voting)",
						"numberOfBytes": "32",
						"value": "t_struct(voting)429_storage"
					},
					"t_struct(voting)429_storage": {
						"encoding": "inplace",
						"label": "struct UntraceableVoting.voting",
						"members": [
							{
								"astId": 399,
								"contract": "DataTradingTest/UntraceableVoting.sol:UntraceableVoting",
								"label": "creator",
								"offset": 0,
								"slot": "0",
								"type": "t_address"
							},
							{
								"astId": 402,
								"contract": "DataTradingTest/UntraceableVoting.sol:UntraceableVoting",
								"label": "candidatesIDs",
								"offset": 0,
								"slot": "1",
								"type": "t_array(t_address)dyn_storage"
							},
							{
								"astId": 404,
								"contract": "DataTradingTest/UntraceableVoting.sol:UntraceableVoting",
								"label": "id",
								"offset": 0,
								"slot": "2",
								"type": "t_uint64"
							},
							{
								"astId": 406,
								"contract": "DataTradingTest/UntraceableVoting.sol:UntraceableVoting",
								"label": "val",
								"offset": 0,
								"slot": "3",
								"type": "t_uint256"
							},
							{
								"astId": 408,
								"contract": "DataTradingTest/UntraceableVoting.sol:UntraceableVoting",
								"label": "threashold",
								"offset": 0,
								"slot": "4",
								"type": "t_uint256"
							},
							{
								"astId": 410,
								"contract": "DataTradingTest/UntraceableVoting.sol:UntraceableVoting",
								"label": "votecounter",
								"offset": 0,
								"slot": "5",
								"type": "t_uint256"
							},
							{
								"astId": 413,
								"contract": "DataTradingTest/UntraceableVoting.sol:UntraceableVoting",
								"label": "votersX",
								"offset": 0,
								"slot": "6",
								"type": "t_array(t_uint256)dyn_storage"
							},
							{
								"astId": 416,
								"contract": "DataTradingTest/UntraceableVoting.sol:UntraceableVoting",
								"label": "votersY",
								"offset": 0,
								"slot": "7",
								"type": "t_array(t_uint256)dyn_storage"
							},
							{
								"astId": 418,
								"contract": "DataTradingTest/UntraceableVoting.sol:UntraceableVoting",
								"label": "done",
								"offset": 0,
								"slot": "8",
								"type": "t_bool"
							},
							{
								"astId": 420,
								"contract": "DataTradingTest/UntraceableVoting.sol:UntraceableVoting",
								"label": "ready",
								"offset": 1,
								"slot": "8",
								"type": "t_bool"
							},
							{
								"astId": 424,
								"contract": "DataTradingTest/UntraceableVoting.sol:UntraceableVoting",
								"label": "keyimageHashMap",
								"offset": 0,
								"slot": "9",
								"type": "t_mapping(t_uint256,t_bool)"
							},
							{
								"astId": 428,
								"contract": "DataTradingTest/UntraceableVoting.sol:UntraceableVoting",
								"label": "candidates",
								"offset": 0,
								"slot": "10",
								"type": "t_mapping(t_address,t_uint256)"
							}
						],
						"numberOfBytes": "352"
					},
					"t_uint256": {
						"encoding": "inplace",
						"label": "uint256",
						"numberOfBytes": "32"
					},
					"t_uint64": {
						"encoding": "inplace",
						"label": "uint64",
						"numberOfBytes": "8"
					}
				}
			},
			"userdoc": {
				"kind": "user",
				"methods": {},
				"version": 1
			}
		}
	}
}