{
	"DataTradingTest/secp256k1.sol": {
		"secp256k": {
			"abi": [
				{
					"inputs": [
						{
							"internalType": "uint256",
							"name": "x1",
							"type": "uint256"
						},
						{
							"internalType": "uint256",
							"name": "y1",
							"type": "uint256"
						},
						{
							"internalType": "uint256",
							"name": "x2",
							"type": "uint256"
						},
						{
							"internalType": "uint256",
							"name": "y2",
							"type": "uint256"
						}
					],
					"name": "Add",
					"outputs": [
						{
							"internalType": "uint256",
							"name": "x3",
							"type": "uint256"
						},
						{
							"internalType": "uint256",
							"name": "y3",
							"type": "uint256"
						}
					],
					"stateMutability": "pure",
					"type": "function"
				},
				{
					"inputs": [
						{
							"internalType": "uint256",
							"name": "x1",
							"type": "uint256"
						},
						{
							"internalType": "uint256",
							"name": "y1",
							"type": "uint256"
						}
					],
					"name": "HashToEcc",
					"outputs": [
						{
							"internalType": "uint256",
							"name": "qx",
							"type": "uint256"
						},
						{
							"internalType": "uint256",
							"name": "qy",
							"type": "uint256"
						}
					],
					"stateMutability": "pure",
					"type": "function"
				},
				{
					"inputs": [
						{
							"internalType": "uint256",
							"name": "scalar",
							"type": "uint256"
						}
					],
					"name": "ScalarBaseMult",
					"outputs": [
						{
							"internalType": "uint256",
							"name": "qx",
							"type": "uint256"
						},
						{
							"internalType": "uint256",
							"name": "qy",
							"type": "uint256"
						}
					],
					"stateMutability": "pure",
					"type": "function"
				},
				{
					"inputs": [
						{
							"internalType": "uint256",
							"name": "px",
							"type": "uint256"
						},
						{
							"internalType": "uint256",
							"name": "py",
							"type": "uint256"
						},
						{
							"internalType": "uint256",
							"name": "scalar",
							"type": "uint256"
						}
					],
					"name": "ScalarMult",
					"outputs": [
						{
							"internalType": "uint256",
							"name": "qx",
							"type": "uint256"
						},
						{
							"internalType": "uint256",
							"name": "qy",
							"type": "uint256"
						}
					],
					"stateMutability": "pure",
					"type": "function"
				}
			],
			"devdoc": {
				"kind": "dev",
				"methods": {},
				"version": 1
			},
			"evm": {
				"assembly": "    /* \"DataTradingTest/secp256k1.sol\":58:6117  contract secp256k {... */\n  mstore(0x40, 0x80)\n  callvalue\n  dup1\n  iszero\n  tag_1\n  jumpi\n  0x00\n  dup1\n  revert\ntag_1:\n  pop\n  dataSize(sub_0)\n  dup1\n  dataOffset(sub_0)\n  0x00\n  codecopy\n  0x00\n  return\nstop\n\nsub_0: assembly {\n        /* \"DataTradingTest/secp256k1.sol\":58:6117  contract secp256k {... */\n      mstore(0x40, 0x80)\n      callvalue\n      dup1\n      iszero\n      tag_1\n      jumpi\n      0x00\n      dup1\n      revert\n    tag_1:\n      pop\n      jumpi(tag_2, lt(calldatasize, 0x04))\n      shr(0xe0, calldataload(0x00))\n      dup1\n      0x39cd1f40\n      eq\n      tag_3\n      jumpi\n      dup1\n      0x464cb749\n      eq\n      tag_4\n      jumpi\n      dup1\n      0x7f77a40c\n      eq\n      tag_5\n      jumpi\n      dup1\n      0xfb88954d\n      eq\n      tag_6\n      jumpi\n    tag_2:\n      0x00\n      dup1\n      revert\n        /* \"DataTradingTest/secp256k1.sol\":5808:6115  function Add(uint256 x1, uint256 y1, uint256 x2, uint256 y2) external pure returns (uint256 x3, uint256 y3) {... */\n    tag_3:\n      tag_7\n      0x04\n      dup1\n      calldatasize\n      sub\n      dup2\n      add\n      swap1\n      tag_8\n      swap2\n      swap1\n      tag_9\n      jump\t// in\n    tag_8:\n      tag_10\n      jump\t// in\n    tag_7:\n      mload(0x40)\n      tag_11\n      swap3\n      swap2\n      swap1\n      tag_12\n      jump\t// in\n    tag_11:\n      mload(0x40)\n      dup1\n      swap2\n      sub\n      swap1\n      return\n        /* \"DataTradingTest/secp256k1.sol\":5020:5303  function ScalarBaseMult(uint256 scalar) external pure returns (uint256 qx, uint256 qy) {... */\n    tag_4:\n      tag_13\n      0x04\n      dup1\n      calldatasize\n      sub\n      dup2\n      add\n      swap1\n      tag_14\n      swap2\n      swap1\n      tag_15\n      jump\t// in\n    tag_14:\n      tag_16\n      jump\t// in\n    tag_13:\n      mload(0x40)\n      tag_17\n      swap3\n      swap2\n      swap1\n      tag_12\n      jump\t// in\n    tag_17:\n      mload(0x40)\n      dup1\n      swap2\n      sub\n      swap1\n      return\n        /* \"DataTradingTest/secp256k1.sol\":5401:5725  function HashToEcc(uint256 x1, uint256 y1) external pure returns (uint256 qx, uint256 qy) {... */\n    tag_5:\n      tag_18\n      0x04\n      dup1\n      calldatasize\n      sub\n      dup2\n      add\n      swap1\n      tag_19\n      swap2\n      swap1\n      tag_20\n      jump\t// in\n    tag_19:\n      tag_21\n      jump\t// in\n    tag_18:\n      mload(0x40)\n      tag_22\n      swap3\n      swap2\n      swap1\n      tag_12\n      jump\t// in\n    tag_22:\n      mload(0x40)\n      dup1\n      swap2\n      sub\n      swap1\n      return\n        /* \"DataTradingTest/secp256k1.sol\":4639:4942  function ScalarMult(uint256 px, uint256 py, uint256 scalar) external pure returns (uint256 qx, uint256 qy) {... */\n    tag_6:\n      tag_23\n      0x04\n      dup1\n      calldatasize\n      sub\n      dup2\n      add\n      swap1\n      tag_24\n      swap2\n      swap1\n      tag_25\n      jump\t// in\n    tag_24:\n      tag_26\n      jump\t// in\n    tag_23:\n      mload(0x40)\n      tag_27\n      swap3\n      swap2\n      swap1\n      tag_12\n      jump\t// in\n    tag_27:\n      mload(0x40)\n      dup1\n      swap2\n      sub\n      swap1\n      return\n        /* \"DataTradingTest/secp256k1.sol\":5808:6115  function Add(uint256 x1, uint256 y1, uint256 x2, uint256 y2) external pure returns (uint256 x3, uint256 y3) {... */\n    tag_10:\n        /* \"DataTradingTest/secp256k1.sol\":5892:5902  uint256 x3 */\n      0x00\n        /* \"DataTradingTest/secp256k1.sol\":5904:5914  uint256 y3 */\n      dup1\n        /* \"DataTradingTest/secp256k1.sol\":5926:5935  uint256 x */\n      0x00\n        /* \"DataTradingTest/secp256k1.sol\":5945:5954  uint256 y */\n      dup1\n        /* \"DataTradingTest/secp256k1.sol\":5964:5973  uint256 z */\n      0x00\n        /* \"DataTradingTest/secp256k1.sol\":5995:6023  _ecAdd(x1, y1, 1, x2, y2, 1) */\n      tag_29\n        /* \"DataTradingTest/secp256k1.sol\":6002:6004  x1 */\n      dup10\n        /* \"DataTradingTest/secp256k1.sol\":6006:6008  y1 */\n      dup10\n        /* \"DataTradingTest/secp256k1.sol\":6010:6011  1 */\n      0x01\n        /* \"DataTradingTest/secp256k1.sol\":6013:6015  x2 */\n      dup11\n        /* \"DataTradingTest/secp256k1.sol\":6017:6019  y2 */\n      dup11\n        /* \"DataTradingTest/secp256k1.sol\":6021:6022  1 */\n      0x01\n        /* \"DataTradingTest/secp256k1.sol\":5995:6001  _ecAdd */\n      tag_30\n        /* \"DataTradingTest/secp256k1.sol\":5995:6023  _ecAdd(x1, y1, 1, x2, y2, 1) */\n      jump\t// in\n    tag_29:\n        /* \"DataTradingTest/secp256k1.sol\":5983:6023  (x, y, z) = _ecAdd(x1, y1, 1, x2, y2, 1) */\n      dup1\n      swap4\n      pop\n      dup2\n      swap5\n      pop\n      dup3\n      swap6\n      pop\n      pop\n      pop\n      pop\n        /* \"DataTradingTest/secp256k1.sol\":6037:6048  _inverse(z) */\n      tag_31\n        /* \"DataTradingTest/secp256k1.sol\":6046:6047  z */\n      dup2\n        /* \"DataTradingTest/secp256k1.sol\":6037:6045  _inverse */\n      tag_32\n        /* \"DataTradingTest/secp256k1.sol\":6037:6048  _inverse(z) */\n      jump\t// in\n    tag_31:\n        /* \"DataTradingTest/secp256k1.sol\":6033:6048  z = _inverse(z) */\n      swap1\n      pop\n        /* \"DataTradingTest/secp256k1.sol\":488:554  0xFFFFFFFFFFFFFFFFFFFFFFFFFFFFFFFFFFFFFFFFFFFFFFFFFFFFFFFEFFFFFC2F */\n      0xfffffffffffffffffffffffffffffffffffffffffffffffffffffffefffffc2f\n        /* \"DataTradingTest/secp256k1.sol\":6063:6078  mulmod(x, z, n) */\n      dup1\n      tag_33\n      jumpi\n      tag_34\n      tag_35\n      jump\t// in\n    tag_34:\n    tag_33:\n        /* \"DataTradingTest/secp256k1.sol\":6073:6074  z */\n      dup2\n        /* \"DataTradingTest/secp256k1.sol\":6070:6071  x */\n      dup5\n        /* \"DataTradingTest/secp256k1.sol\":6063:6078  mulmod(x, z, n) */\n      mulmod\n        /* \"DataTradingTest/secp256k1.sol\":6058:6078  x3 = mulmod(x, z, n) */\n      swap5\n      pop\n        /* \"DataTradingTest/secp256k1.sol\":488:554  0xFFFFFFFFFFFFFFFFFFFFFFFFFFFFFFFFFFFFFFFFFFFFFFFFFFFFFFFEFFFFFC2F */\n      0xfffffffffffffffffffffffffffffffffffffffffffffffffffffffefffffc2f\n        /* \"DataTradingTest/secp256k1.sol\":6093:6108  mulmod(y, z, n) */\n      dup1\n      tag_36\n      jumpi\n      tag_37\n      tag_35\n      jump\t// in\n    tag_37:\n    tag_36:\n        /* \"DataTradingTest/secp256k1.sol\":6103:6104  z */\n      dup2\n        /* \"DataTradingTest/secp256k1.sol\":6100:6101  y */\n      dup4\n        /* \"DataTradingTest/secp256k1.sol\":6093:6108  mulmod(y, z, n) */\n      mulmod\n        /* \"DataTradingTest/secp256k1.sol\":6088:6108  y3 = mulmod(y, z, n) */\n      swap4\n      pop\n        /* \"DataTradingTest/secp256k1.sol\":5916:6115  {... */\n      pop\n      pop\n      pop\n        /* \"DataTradingTest/secp256k1.sol\":5808:6115  function Add(uint256 x1, uint256 y1, uint256 x2, uint256 y2) external pure returns (uint256 x3, uint256 y3) {... */\n      swap5\n      pop\n      swap5\n      swap3\n      pop\n      pop\n      pop\n      jump\t// out\n        /* \"DataTradingTest/secp256k1.sol\":5020:5303  function ScalarBaseMult(uint256 scalar) external pure returns (uint256 qx, uint256 qy) {... */\n    tag_16:\n        /* \"DataTradingTest/secp256k1.sol\":5083:5093  uint256 qx */\n      0x00\n        /* \"DataTradingTest/secp256k1.sol\":5095:5105  uint256 qy */\n      dup1\n        /* \"DataTradingTest/secp256k1.sol\":5117:5126  uint256 x */\n      0x00\n        /* \"DataTradingTest/secp256k1.sol\":5136:5145  uint256 y */\n      dup1\n        /* \"DataTradingTest/secp256k1.sol\":5155:5164  uint256 z */\n      0x00\n        /* \"DataTradingTest/secp256k1.sol\":5186:5211  _ecMul(scalar, gx, gy, 1) */\n      tag_39\n        /* \"DataTradingTest/secp256k1.sol\":5193:5199  scalar */\n      dup7\n        /* \"DataTradingTest/secp256k1.sol\":285:351  0x79BE667EF9DCBBAC55A06295CE870B07029BFCDB2DCE28D959F2815B16F81798 */\n      0x79be667ef9dcbbac55a06295ce870b07029bfcdb2dce28d959f2815b16f81798\n        /* \"DataTradingTest/secp256k1.sol\":387:453  0x483ADA7726A3C4655DA4FBFC0E1108A8FD17B448A68554199C47D08FFB10D4B8 */\n      0x483ada7726a3c4655da4fbfc0e1108a8fd17b448a68554199c47d08ffb10d4b8\n        /* \"DataTradingTest/secp256k1.sol\":5209:5210  1 */\n      0x01\n        /* \"DataTradingTest/secp256k1.sol\":5186:5192  _ecMul */\n      tag_40\n        /* \"DataTradingTest/secp256k1.sol\":5186:5211  _ecMul(scalar, gx, gy, 1) */\n      jump\t// in\n    tag_39:\n        /* \"DataTradingTest/secp256k1.sol\":5174:5211  (x, y, z) = _ecMul(scalar, gx, gy, 1) */\n      dup1\n      swap4\n      pop\n      dup2\n      swap5\n      pop\n      dup3\n      swap6\n      pop\n      pop\n      pop\n      pop\n        /* \"DataTradingTest/secp256k1.sol\":5225:5236  _inverse(z) */\n      tag_41\n        /* \"DataTradingTest/secp256k1.sol\":5234:5235  z */\n      dup2\n        /* \"DataTradingTest/secp256k1.sol\":5225:5233  _inverse */\n      tag_32\n        /* \"DataTradingTest/secp256k1.sol\":5225:5236  _inverse(z) */\n      jump\t// in\n    tag_41:\n        /* \"DataTradingTest/secp256k1.sol\":5221:5236  z = _inverse(z) */\n      swap1\n      pop\n        /* \"DataTradingTest/secp256k1.sol\":488:554  0xFFFFFFFFFFFFFFFFFFFFFFFFFFFFFFFFFFFFFFFFFFFFFFFFFFFFFFFEFFFFFC2F */\n      0xfffffffffffffffffffffffffffffffffffffffffffffffffffffffefffffc2f\n        /* \"DataTradingTest/secp256k1.sol\":5251:5266  mulmod(x, z, n) */\n      dup1\n      tag_42\n      jumpi\n      tag_43\n      tag_35\n      jump\t// in\n    tag_43:\n    tag_42:\n        /* \"DataTradingTest/secp256k1.sol\":5261:5262  z */\n      dup2\n        /* \"DataTradingTest/secp256k1.sol\":5258:5259  x */\n      dup5\n        /* \"DataTradingTest/secp256k1.sol\":5251:5266  mulmod(x, z, n) */\n      mulmod\n        /* \"DataTradingTest/secp256k1.sol\":5246:5266  qx = mulmod(x, z, n) */\n      swap5\n      pop\n        /* \"DataTradingTest/secp256k1.sol\":488:554  0xFFFFFFFFFFFFFFFFFFFFFFFFFFFFFFFFFFFFFFFFFFFFFFFFFFFFFFFEFFFFFC2F */\n      0xfffffffffffffffffffffffffffffffffffffffffffffffffffffffefffffc2f\n        /* \"DataTradingTest/secp256k1.sol\":5281:5296  mulmod(y, z, n) */\n      dup1\n      tag_44\n      jumpi\n      tag_45\n      tag_35\n      jump\t// in\n    tag_45:\n    tag_44:\n        /* \"DataTradingTest/secp256k1.sol\":5291:5292  z */\n      dup2\n        /* \"DataTradingTest/secp256k1.sol\":5288:5289  y */\n      dup4\n        /* \"DataTradingTest/secp256k1.sol\":5281:5296  mulmod(y, z, n) */\n      mulmod\n        /* \"DataTradingTest/secp256k1.sol\":5276:5296  qy = mulmod(y, z, n) */\n      swap4\n      pop\n        /* \"DataTradingTest/secp256k1.sol\":5107:5303  {... */\n      pop\n      pop\n      pop\n        /* \"DataTradingTest/secp256k1.sol\":5020:5303  function ScalarBaseMult(uint256 scalar) external pure returns (uint256 qx, uint256 qy) {... */\n      swap2\n      pop\n      swap2\n      jump\t// out\n        /* \"DataTradingTest/secp256k1.sol\":5401:5725  function HashToEcc(uint256 x1, uint256 y1) external pure returns (uint256 qx, uint256 qy) {... */\n    tag_21:\n        /* \"DataTradingTest/secp256k1.sol\":5467:5477  uint256 qx */\n      0x00\n        /* \"DataTradingTest/secp256k1.sol\":5479:5489  uint256 qy */\n      dup1\n        /* \"DataTradingTest/secp256k1.sol\":5501:5510  uint256 x */\n      0x00\n        /* \"DataTradingTest/secp256k1.sol\":5520:5529  uint256 y */\n      dup1\n        /* \"DataTradingTest/secp256k1.sol\":5539:5548  uint256 z */\n      0x00\n        /* \"DataTradingTest/secp256k1.sol\":5570:5633  _ecMul(uint256(keccak256(abi.encodePacked(x1, y1))), gx, gy, 1) */\n      tag_47\n        /* \"DataTradingTest/secp256k1.sol\":5612:5614  x1 */\n      dup8\n        /* \"DataTradingTest/secp256k1.sol\":5616:5618  y1 */\n      dup8\n        /* \"DataTradingTest/secp256k1.sol\":5595:5619  abi.encodePacked(x1, y1) */\n      add(0x20, mload(0x40))\n      tag_48\n      swap3\n      swap2\n      swap1\n      tag_49\n      jump\t// in\n    tag_48:\n      mload(0x40)\n      0x20\n      dup2\n      dup4\n      sub\n      sub\n      dup2\n      mstore\n      swap1\n      0x40\n      mstore\n        /* \"DataTradingTest/secp256k1.sol\":5585:5620  keccak256(abi.encodePacked(x1, y1)) */\n      dup1\n      mload\n      swap1\n      0x20\n      add\n      keccak256\n        /* \"DataTradingTest/secp256k1.sol\":5577:5621  uint256(keccak256(abi.encodePacked(x1, y1))) */\n      0x00\n      shr\n        /* \"DataTradingTest/secp256k1.sol\":285:351  0x79BE667EF9DCBBAC55A06295CE870B07029BFCDB2DCE28D959F2815B16F81798 */\n      0x79be667ef9dcbbac55a06295ce870b07029bfcdb2dce28d959f2815b16f81798\n        /* \"DataTradingTest/secp256k1.sol\":387:453  0x483ADA7726A3C4655DA4FBFC0E1108A8FD17B448A68554199C47D08FFB10D4B8 */\n      0x483ada7726a3c4655da4fbfc0e1108a8fd17b448a68554199c47d08ffb10d4b8\n        /* \"DataTradingTest/secp256k1.sol\":5631:5632  1 */\n      0x01\n        /* \"DataTradingTest/secp256k1.sol\":5570:5576  _ecMul */\n      tag_40\n        /* \"DataTradingTest/secp256k1.sol\":5570:5633  _ecMul(uint256(keccak256(abi.encodePacked(x1, y1))), gx, gy, 1) */\n      jump\t// in\n    tag_47:\n        /* \"DataTradingTest/secp256k1.sol\":5558:5633  (x, y, z) = _ecMul(uint256(keccak256(abi.encodePacked(x1, y1))), gx, gy, 1) */\n      dup1\n      swap4\n      pop\n      dup2\n      swap5\n      pop\n      dup3\n      swap6\n      pop\n      pop\n      pop\n      pop\n        /* \"DataTradingTest/secp256k1.sol\":5647:5658  _inverse(z) */\n      tag_50\n        /* \"DataTradingTest/secp256k1.sol\":5656:5657  z */\n      dup2\n        /* \"DataTradingTest/secp256k1.sol\":5647:5655  _inverse */\n      tag_32\n        /* \"DataTradingTest/secp256k1.sol\":5647:5658  _inverse(z) */\n      jump\t// in\n    tag_50:\n        /* \"DataTradingTest/secp256k1.sol\":5643:5658  z = _inverse(z) */\n      swap1\n      pop\n        /* \"DataTradingTest/secp256k1.sol\":488:554  0xFFFFFFFFFFFFFFFFFFFFFFFFFFFFFFFFFFFFFFFFFFFFFFFFFFFFFFFEFFFFFC2F */\n      0xfffffffffffffffffffffffffffffffffffffffffffffffffffffffefffffc2f\n        /* \"DataTradingTest/secp256k1.sol\":5673:5688  mulmod(x, z, n) */\n      dup1\n      tag_51\n      jumpi\n      tag_52\n      tag_35\n      jump\t// in\n    tag_52:\n    tag_51:\n        /* \"DataTradingTest/secp256k1.sol\":5683:5684  z */\n      dup2\n        /* \"DataTradingTest/secp256k1.sol\":5680:5681  x */\n      dup5\n        /* \"DataTradingTest/secp256k1.sol\":5673:5688  mulmod(x, z, n) */\n      mulmod\n        /* \"DataTradingTest/secp256k1.sol\":5668:5688  qx = mulmod(x, z, n) */\n      swap5\n      pop\n        /* \"DataTradingTest/secp256k1.sol\":488:554  0xFFFFFFFFFFFFFFFFFFFFFFFFFFFFFFFFFFFFFFFFFFFFFFFFFFFFFFFEFFFFFC2F */\n      0xfffffffffffffffffffffffffffffffffffffffffffffffffffffffefffffc2f\n        /* \"DataTradingTest/secp256k1.sol\":5703:5718  mulmod(y, z, n) */\n      dup1\n      tag_53\n      jumpi\n      tag_54\n      tag_35\n      jump\t// in\n    tag_54:\n    tag_53:\n        /* \"DataTradingTest/secp256k1.sol\":5713:5714  z */\n      dup2\n        /* \"DataTradingTest/secp256k1.sol\":5710:5711  y */\n      dup4\n        /* \"DataTradingTest/secp256k1.sol\":5703:5718  mulmod(y, z, n) */\n      mulmod\n        /* \"DataTradingTest/secp256k1.sol\":5698:5718  qy = mulmod(y, z, n) */\n      swap4\n      pop\n        /* \"DataTradingTest/secp256k1.sol\":5491:5725  {... */\n      pop\n      pop\n      pop\n        /* \"DataTradingTest/secp256k1.sol\":5401:5725  function HashToEcc(uint256 x1, uint256 y1) external pure returns (uint256 qx, uint256 qy) {... */\n      swap3\n      pop\n      swap3\n      swap1\n      pop\n      jump\t// out\n        /* \"DataTradingTest/secp256k1.sol\":4639:4942  function ScalarMult(uint256 px, uint256 py, uint256 scalar) external pure returns (uint256 qx, uint256 qy) {... */\n    tag_26:\n        /* \"DataTradingTest/secp256k1.sol\":4722:4732  uint256 qx */\n      0x00\n        /* \"DataTradingTest/secp256k1.sol\":4734:4744  uint256 qy */\n      dup1\n        /* \"DataTradingTest/secp256k1.sol\":4756:4765  uint256 x */\n      0x00\n        /* \"DataTradingTest/secp256k1.sol\":4775:4784  uint256 y */\n      dup1\n        /* \"DataTradingTest/secp256k1.sol\":4794:4803  uint256 z */\n      0x00\n        /* \"DataTradingTest/secp256k1.sol\":4825:4850  _ecMul(scalar, px, py, 1) */\n      tag_56\n        /* \"DataTradingTest/secp256k1.sol\":4832:4838  scalar */\n      dup7\n        /* \"DataTradingTest/secp256k1.sol\":4840:4842  px */\n      dup10\n        /* \"DataTradingTest/secp256k1.sol\":4844:4846  py */\n      dup10\n        /* \"DataTradingTest/secp256k1.sol\":4848:4849  1 */\n      0x01\n        /* \"DataTradingTest/secp256k1.sol\":4825:4831  _ecMul */\n      tag_40\n        /* \"DataTradingTest/secp256k1.sol\":4825:4850  _ecMul(scalar, px, py, 1) */\n      jump\t// in\n    tag_56:\n        /* \"DataTradingTest/secp256k1.sol\":4813:4850  (x, y, z) = _ecMul(scalar, px, py, 1) */\n      dup1\n      swap4\n      pop\n      dup2\n      swap5\n      pop\n      dup3\n      swap6\n      pop\n      pop\n      pop\n      pop\n        /* \"DataTradingTest/secp256k1.sol\":4864:4875  _inverse(z) */\n      tag_57\n        /* \"DataTradingTest/secp256k1.sol\":4873:4874  z */\n      dup2\n        /* \"DataTradingTest/secp256k1.sol\":4864:4872  _inverse */\n      tag_32\n        /* \"DataTradingTest/secp256k1.sol\":4864:4875  _inverse(z) */\n      jump\t// in\n    tag_57:\n        /* \"DataTradingTest/secp256k1.sol\":4860:4875  z = _inverse(z) */\n      swap1\n      pop\n        /* \"DataTradingTest/secp256k1.sol\":488:554  0xFFFFFFFFFFFFFFFFFFFFFFFFFFFFFFFFFFFFFFFFFFFFFFFFFFFFFFFEFFFFFC2F */\n      0xfffffffffffffffffffffffffffffffffffffffffffffffffffffffefffffc2f\n        /* \"DataTradingTest/secp256k1.sol\":4890:4905  mulmod(x, z, n) */\n      dup1\n      tag_58\n      jumpi\n      tag_59\n      tag_35\n      jump\t// in\n    tag_59:\n    tag_58:\n        /* \"DataTradingTest/secp256k1.sol\":4900:4901  z */\n      dup2\n        /* \"DataTradingTest/secp256k1.sol\":4897:4898  x */\n      dup5\n        /* \"DataTradingTest/secp256k1.sol\":4890:4905  mulmod(x, z, n) */\n      mulmod\n        /* \"DataTradingTest/secp256k1.sol\":4885:4905  qx = mulmod(x, z, n) */\n      swap5\n      pop\n        /* \"DataTradingTest/secp256k1.sol\":488:554  0xFFFFFFFFFFFFFFFFFFFFFFFFFFFFFFFFFFFFFFFFFFFFFFFFFFFFFFFEFFFFFC2F */\n      0xfffffffffffffffffffffffffffffffffffffffffffffffffffffffefffffc2f\n        /* \"DataTradingTest/secp256k1.sol\":4920:4935  mulmod(y, z, n) */\n      dup1\n      tag_60\n      jumpi\n      tag_61\n      tag_35\n      jump\t// in\n    tag_61:\n    tag_60:\n        /* \"DataTradingTest/secp256k1.sol\":4930:4931  z */\n      dup2\n        /* \"DataTradingTest/secp256k1.sol\":4927:4928  y */\n      dup4\n        /* \"DataTradingTest/secp256k1.sol\":4920:4935  mulmod(y, z, n) */\n      mulmod\n        /* \"DataTradingTest/secp256k1.sol\":4915:4935  qy = mulmod(y, z, n) */\n      swap4\n      pop\n        /* \"DataTradingTest/secp256k1.sol\":4746:4942  {... */\n      pop\n      pop\n      pop\n        /* \"DataTradingTest/secp256k1.sol\":4639:4942  function ScalarMult(uint256 px, uint256 py, uint256 scalar) external pure returns (uint256 qx, uint256 qy) {... */\n      swap4\n      pop\n      swap4\n      swap2\n      pop\n      pop\n      jump\t// out\n        /* \"DataTradingTest/secp256k1.sol\":2379:3580  function _ecAdd(uint256 x1, uint256 y1, uint256 z1, uint256 x2, uint256 y2, uint256 z2) private pure returns (uint256 x3, uint256 y3, uint256 z3) {... */\n    tag_30:\n        /* \"DataTradingTest/secp256k1.sol\":2489:2499  uint256 x3 */\n      0x00\n        /* \"DataTradingTest/secp256k1.sol\":2501:2511  uint256 y3 */\n      dup1\n        /* \"DataTradingTest/secp256k1.sol\":2513:2523  uint256 z3 */\n      0x00\n        /* \"DataTradingTest/secp256k1.sol\":2535:2544  uint256 l */\n      dup1\n        /* \"DataTradingTest/secp256k1.sol\":2554:2564  uint256 lz */\n      0x00\n        /* \"DataTradingTest/secp256k1.sol\":2574:2584  uint256 da */\n      dup1\n        /* \"DataTradingTest/secp256k1.sol\":2594:2604  uint256 db */\n      0x00\n        /* \"DataTradingTest/secp256k1.sol\":2626:2627  0 */\n      dup1\n        /* \"DataTradingTest/secp256k1.sol\":2620:2622  x1 */\n      dup14\n        /* \"DataTradingTest/secp256k1.sol\":2620:2627  x1 == 0 */\n      eq\n        /* \"DataTradingTest/secp256k1.sol\":2619:2641  (x1 == 0) && (y1 == 0) */\n      dup1\n      iszero\n      tag_63\n      jumpi\n      pop\n        /* \"DataTradingTest/secp256k1.sol\":2639:2640  0 */\n      0x00\n        /* \"DataTradingTest/secp256k1.sol\":2633:2635  y1 */\n      dup13\n        /* \"DataTradingTest/secp256k1.sol\":2633:2640  y1 == 0 */\n      eq\n        /* \"DataTradingTest/secp256k1.sol\":2619:2641  (x1 == 0) && (y1 == 0) */\n    tag_63:\n        /* \"DataTradingTest/secp256k1.sol\":2615:2687  if ((x1 == 0) && (y1 == 0)) {... */\n      iszero\n      tag_64\n      jumpi\n        /* \"DataTradingTest/secp256k1.sol\":2665:2667  x2 */\n      dup10\n        /* \"DataTradingTest/secp256k1.sol\":2669:2671  y2 */\n      dup10\n        /* \"DataTradingTest/secp256k1.sol\":2673:2675  z2 */\n      dup10\n        /* \"DataTradingTest/secp256k1.sol\":2657:2676  return (x2, y2, z2) */\n      swap7\n      pop\n      swap7\n      pop\n      swap7\n      pop\n      pop\n      pop\n      pop\n      pop\n      jump(tag_62)\n        /* \"DataTradingTest/secp256k1.sol\":2615:2687  if ((x1 == 0) && (y1 == 0)) {... */\n    tag_64:\n        /* \"DataTradingTest/secp256k1.sol\":2708:2709  0 */\n      0x00\n        /* \"DataTradingTest/secp256k1.sol\":2702:2704  x2 */\n      dup11\n        /* \"DataTradingTest/secp256k1.sol\":2702:2709  x2 == 0 */\n      eq\n        /* \"DataTradingTest/secp256k1.sol\":2701:2723  (x2 == 0) && (y2 == 0) */\n      dup1\n      iszero\n      tag_65\n      jumpi\n      pop\n        /* \"DataTradingTest/secp256k1.sol\":2721:2722  0 */\n      0x00\n        /* \"DataTradingTest/secp256k1.sol\":2715:2717  y2 */\n      dup10\n        /* \"DataTradingTest/secp256k1.sol\":2715:2722  y2 == 0 */\n      eq\n        /* \"DataTradingTest/secp256k1.sol\":2701:2723  (x2 == 0) && (y2 == 0) */\n    tag_65:\n        /* \"DataTradingTest/secp256k1.sol\":2697:2769  if ((x2 == 0) && (y2 == 0)) {... */\n      iszero\n      tag_66\n      jumpi\n        /* \"DataTradingTest/secp256k1.sol\":2747:2749  x1 */\n      dup13\n        /* \"DataTradingTest/secp256k1.sol\":2751:2753  y1 */\n      dup13\n        /* \"DataTradingTest/secp256k1.sol\":2755:2757  z1 */\n      dup13\n        /* \"DataTradingTest/secp256k1.sol\":2739:2758  return (x1, y1, z1) */\n      swap7\n      pop\n      swap7\n      pop\n      swap7\n      pop\n      pop\n      pop\n      pop\n      pop\n      jump(tag_62)\n        /* \"DataTradingTest/secp256k1.sol\":2697:2769  if ((x2 == 0) && (y2 == 0)) {... */\n    tag_66:\n        /* \"DataTradingTest/secp256k1.sol\":2790:2792  x2 */\n      dup10\n        /* \"DataTradingTest/secp256k1.sol\":2784:2786  x1 */\n      dup14\n        /* \"DataTradingTest/secp256k1.sol\":2784:2792  x1 == x2 */\n      eq\n        /* \"DataTradingTest/secp256k1.sol\":2783:2807  (x1 == x2) && (y1 == y2) */\n      dup1\n      iszero\n      tag_67\n      jumpi\n      pop\n        /* \"DataTradingTest/secp256k1.sol\":2804:2806  y2 */\n      dup9\n        /* \"DataTradingTest/secp256k1.sol\":2798:2800  y1 */\n      dup13\n        /* \"DataTradingTest/secp256k1.sol\":2798:2806  y1 == y2 */\n      eq\n        /* \"DataTradingTest/secp256k1.sol\":2783:2807  (x1 == x2) && (y1 == y2) */\n    tag_67:\n        /* \"DataTradingTest/secp256k1.sol\":2779:3101  if ((x1 == x2) && (y1 == y2)) {... */\n      iszero\n      tag_68\n      jumpi\n        /* \"DataTradingTest/secp256k1.sol\":2833:2854  _jMul(x1, z1, x1, z1) */\n      tag_69\n        /* \"DataTradingTest/secp256k1.sol\":2839:2841  x1 */\n      dup14\n        /* \"DataTradingTest/secp256k1.sol\":2843:2845  z1 */\n      dup13\n        /* \"DataTradingTest/secp256k1.sol\":2847:2849  x1 */\n      dup16\n        /* \"DataTradingTest/secp256k1.sol\":2851:2853  z1 */\n      dup15\n        /* \"DataTradingTest/secp256k1.sol\":2833:2838  _jMul */\n      tag_70\n        /* \"DataTradingTest/secp256k1.sol\":2833:2854  _jMul(x1, z1, x1, z1) */\n      jump\t// in\n    tag_69:\n        /* \"DataTradingTest/secp256k1.sol\":2823:2854  (l, lz) = _jMul(x1, z1, x1, z1) */\n      dup1\n      swap5\n      pop\n      dup2\n      swap6\n      pop\n      pop\n      pop\n        /* \"DataTradingTest/secp256k1.sol\":2878:2896  _jMul(l, lz, 3, 1) */\n      tag_71\n        /* \"DataTradingTest/secp256k1.sol\":2884:2885  l */\n      dup5\n        /* \"DataTradingTest/secp256k1.sol\":2887:2889  lz */\n      dup5\n        /* \"DataTradingTest/secp256k1.sol\":2891:2892  3 */\n      0x03\n        /* \"DataTradingTest/secp256k1.sol\":2894:2895  1 */\n      0x01\n        /* \"DataTradingTest/secp256k1.sol\":2878:2883  _jMul */\n      tag_70\n        /* \"DataTradingTest/secp256k1.sol\":2878:2896  _jMul(l, lz, 3, 1) */\n      jump\t// in\n    tag_71:\n        /* \"DataTradingTest/secp256k1.sol\":2868:2896  (l, lz) = _jMul(l, lz, 3, 1) */\n      dup1\n      swap5\n      pop\n      dup2\n      swap6\n      pop\n      pop\n      pop\n        /* \"DataTradingTest/secp256k1.sol\":2920:2938  _jAdd(l, lz, a, 1) */\n      tag_72\n        /* \"DataTradingTest/secp256k1.sol\":2926:2927  l */\n      dup5\n        /* \"DataTradingTest/secp256k1.sol\":2929:2931  lz */\n      dup5\n        /* \"DataTradingTest/secp256k1.sol\":589:590  0 */\n      0x00\n        /* \"DataTradingTest/secp256k1.sol\":2936:2937  1 */\n      0x01\n        /* \"DataTradingTest/secp256k1.sol\":2920:2925  _jAdd */\n      tag_73\n        /* \"DataTradingTest/secp256k1.sol\":2920:2938  _jAdd(l, lz, a, 1) */\n      jump\t// in\n    tag_72:\n        /* \"DataTradingTest/secp256k1.sol\":2910:2938  (l, lz) = _jAdd(l, lz, a, 1) */\n      dup1\n      swap5\n      pop\n      dup2\n      swap6\n      pop\n      pop\n      pop\n        /* \"DataTradingTest/secp256k1.sol\":2963:2982  _jMul(y1, z1, 2, 1) */\n      tag_74\n        /* \"DataTradingTest/secp256k1.sol\":2969:2971  y1 */\n      dup13\n        /* \"DataTradingTest/secp256k1.sol\":2973:2975  z1 */\n      dup13\n        /* \"DataTradingTest/secp256k1.sol\":2977:2978  2 */\n      0x02\n        /* \"DataTradingTest/secp256k1.sol\":2980:2981  1 */\n      0x01\n        /* \"DataTradingTest/secp256k1.sol\":2963:2968  _jMul */\n      tag_70\n        /* \"DataTradingTest/secp256k1.sol\":2963:2982  _jMul(y1, z1, 2, 1) */\n      jump\t// in\n    tag_74:\n        /* \"DataTradingTest/secp256k1.sol\":2952:2982  (da, db) = _jMul(y1, z1, 2, 1) */\n      dup1\n      swap3\n      pop\n      dup2\n      swap4\n      pop\n      pop\n      pop\n        /* \"DataTradingTest/secp256k1.sol\":2779:3101  if ((x1 == x2) && (y1 == y2)) {... */\n      jump(tag_75)\n    tag_68:\n        /* \"DataTradingTest/secp256k1.sol\":3023:3044  _jSub(y2, z2, y1, z1) */\n      tag_76\n        /* \"DataTradingTest/secp256k1.sol\":3029:3031  y2 */\n      dup10\n        /* \"DataTradingTest/secp256k1.sol\":3033:3035  z2 */\n      dup10\n        /* \"DataTradingTest/secp256k1.sol\":3037:3039  y1 */\n      dup15\n        /* \"DataTradingTest/secp256k1.sol\":3041:3043  z1 */\n      dup15\n        /* \"DataTradingTest/secp256k1.sol\":3023:3028  _jSub */\n      tag_77\n        /* \"DataTradingTest/secp256k1.sol\":3023:3044  _jSub(y2, z2, y1, z1) */\n      jump\t// in\n    tag_76:\n        /* \"DataTradingTest/secp256k1.sol\":3013:3044  (l, lz) = _jSub(y2, z2, y1, z1) */\n      dup1\n      swap5\n      pop\n      dup2\n      swap6\n      pop\n      pop\n      pop\n        /* \"DataTradingTest/secp256k1.sol\":3069:3090  _jSub(x2, z2, x1, z1) */\n      tag_78\n        /* \"DataTradingTest/secp256k1.sol\":3075:3077  x2 */\n      dup11\n        /* \"DataTradingTest/secp256k1.sol\":3079:3081  z2 */\n      dup10\n        /* \"DataTradingTest/secp256k1.sol\":3083:3085  x1 */\n      dup16\n        /* \"DataTradingTest/secp256k1.sol\":3087:3089  z1 */\n      dup15\n        /* \"DataTradingTest/secp256k1.sol\":3069:3074  _jSub */\n      tag_77\n        /* \"DataTradingTest/secp256k1.sol\":3069:3090  _jSub(x2, z2, x1, z1) */\n      jump\t// in\n    tag_78:\n        /* \"DataTradingTest/secp256k1.sol\":3058:3090  (da, db) = _jSub(x2, z2, x1, z1) */\n      dup1\n      swap3\n      pop\n      dup2\n      swap4\n      pop\n      pop\n      pop\n        /* \"DataTradingTest/secp256k1.sol\":2779:3101  if ((x1 == x2) && (y1 == y2)) {... */\n    tag_75:\n        /* \"DataTradingTest/secp256k1.sol\":3121:3141  _jDiv(l, lz, da, db) */\n      tag_79\n        /* \"DataTradingTest/secp256k1.sol\":3127:3128  l */\n      dup5\n        /* \"DataTradingTest/secp256k1.sol\":3130:3132  lz */\n      dup5\n        /* \"DataTradingTest/secp256k1.sol\":3134:3136  da */\n      dup5\n        /* \"DataTradingTest/secp256k1.sol\":3138:3140  db */\n      dup5\n        /* \"DataTradingTest/secp256k1.sol\":3121:3126  _jDiv */\n      tag_80\n        /* \"DataTradingTest/secp256k1.sol\":3121:3141  _jDiv(l, lz, da, db) */\n      jump\t// in\n    tag_79:\n        /* \"DataTradingTest/secp256k1.sol\":3111:3141  (l, lz) = _jDiv(l, lz, da, db) */\n      dup1\n      swap5\n      pop\n      dup2\n      swap6\n      pop\n      pop\n      pop\n        /* \"DataTradingTest/secp256k1.sol\":3163:3182  _jMul(l, lz, l, lz) */\n      tag_81\n        /* \"DataTradingTest/secp256k1.sol\":3169:3170  l */\n      dup5\n        /* \"DataTradingTest/secp256k1.sol\":3172:3174  lz */\n      dup5\n        /* \"DataTradingTest/secp256k1.sol\":3176:3177  l */\n      dup7\n        /* \"DataTradingTest/secp256k1.sol\":3179:3181  lz */\n      dup7\n        /* \"DataTradingTest/secp256k1.sol\":3163:3168  _jMul */\n      tag_70\n        /* \"DataTradingTest/secp256k1.sol\":3163:3182  _jMul(l, lz, l, lz) */\n      jump\t// in\n    tag_81:\n        /* \"DataTradingTest/secp256k1.sol\":3152:3182  (x3, da) = _jMul(l, lz, l, lz) */\n      dup1\n      swap4\n      pop\n      dup2\n      swap9\n      pop\n      pop\n      pop\n        /* \"DataTradingTest/secp256k1.sol\":3203:3224  _jSub(x3, da, x1, z1) */\n      tag_82\n        /* \"DataTradingTest/secp256k1.sol\":3209:3211  x3 */\n      dup8\n        /* \"DataTradingTest/secp256k1.sol\":3213:3215  da */\n      dup4\n        /* \"DataTradingTest/secp256k1.sol\":3217:3219  x1 */\n      dup16\n        /* \"DataTradingTest/secp256k1.sol\":3221:3223  z1 */\n      dup15\n        /* \"DataTradingTest/secp256k1.sol\":3203:3208  _jSub */\n      tag_77\n        /* \"DataTradingTest/secp256k1.sol\":3203:3224  _jSub(x3, da, x1, z1) */\n      jump\t// in\n    tag_82:\n        /* \"DataTradingTest/secp256k1.sol\":3192:3224  (x3, da) = _jSub(x3, da, x1, z1) */\n      dup1\n      swap4\n      pop\n      dup2\n      swap9\n      pop\n      pop\n      pop\n        /* \"DataTradingTest/secp256k1.sol\":3245:3266  _jSub(x3, da, x2, z2) */\n      tag_83\n        /* \"DataTradingTest/secp256k1.sol\":3251:3253  x3 */\n      dup8\n        /* \"DataTradingTest/secp256k1.sol\":3255:3257  da */\n      dup4\n        /* \"DataTradingTest/secp256k1.sol\":3259:3261  x2 */\n      dup13\n        /* \"DataTradingTest/secp256k1.sol\":3263:3265  z2 */\n      dup12\n        /* \"DataTradingTest/secp256k1.sol\":3245:3250  _jSub */\n      tag_77\n        /* \"DataTradingTest/secp256k1.sol\":3245:3266  _jSub(x3, da, x2, z2) */\n      jump\t// in\n    tag_83:\n        /* \"DataTradingTest/secp256k1.sol\":3234:3266  (x3, da) = _jSub(x3, da, x2, z2) */\n      dup1\n      swap4\n      pop\n      dup2\n      swap9\n      pop\n      pop\n      pop\n        /* \"DataTradingTest/secp256k1.sol\":3288:3309  _jSub(x1, z1, x3, da) */\n      tag_84\n        /* \"DataTradingTest/secp256k1.sol\":3294:3296  x1 */\n      dup14\n        /* \"DataTradingTest/secp256k1.sol\":3298:3300  z1 */\n      dup13\n        /* \"DataTradingTest/secp256k1.sol\":3302:3304  x3 */\n      dup10\n        /* \"DataTradingTest/secp256k1.sol\":3306:3308  da */\n      dup6\n        /* \"DataTradingTest/secp256k1.sol\":3288:3293  _jSub */\n      tag_77\n        /* \"DataTradingTest/secp256k1.sol\":3288:3309  _jSub(x1, z1, x3, da) */\n      jump\t// in\n    tag_84:\n        /* \"DataTradingTest/secp256k1.sol\":3277:3309  (y3, db) = _jSub(x1, z1, x3, da) */\n      dup1\n      swap3\n      pop\n      dup2\n      swap8\n      pop\n      pop\n      pop\n        /* \"DataTradingTest/secp256k1.sol\":3330:3350  _jMul(y3, db, l, lz) */\n      tag_85\n        /* \"DataTradingTest/secp256k1.sol\":3336:3338  y3 */\n      dup7\n        /* \"DataTradingTest/secp256k1.sol\":3340:3342  db */\n      dup3\n        /* \"DataTradingTest/secp256k1.sol\":3344:3345  l */\n      dup7\n        /* \"DataTradingTest/secp256k1.sol\":3347:3349  lz */\n      dup7\n        /* \"DataTradingTest/secp256k1.sol\":3330:3335  _jMul */\n      tag_70\n        /* \"DataTradingTest/secp256k1.sol\":3330:3350  _jMul(y3, db, l, lz) */\n      jump\t// in\n    tag_85:\n        /* \"DataTradingTest/secp256k1.sol\":3319:3350  (y3, db) = _jMul(y3, db, l, lz) */\n      dup1\n      swap3\n      pop\n      dup2\n      swap8\n      pop\n      pop\n      pop\n        /* \"DataTradingTest/secp256k1.sol\":3371:3392  _jSub(y3, db, y1, z1) */\n      tag_86\n        /* \"DataTradingTest/secp256k1.sol\":3377:3379  y3 */\n      dup7\n        /* \"DataTradingTest/secp256k1.sol\":3381:3383  db */\n      dup3\n        /* \"DataTradingTest/secp256k1.sol\":3385:3387  y1 */\n      dup15\n        /* \"DataTradingTest/secp256k1.sol\":3389:3391  z1 */\n      dup15\n        /* \"DataTradingTest/secp256k1.sol\":3371:3376  _jSub */\n      tag_77\n        /* \"DataTradingTest/secp256k1.sol\":3371:3392  _jSub(y3, db, y1, z1) */\n      jump\t// in\n    tag_86:\n        /* \"DataTradingTest/secp256k1.sol\":3360:3392  (y3, db) = _jSub(y3, db, y1, z1) */\n      dup1\n      swap3\n      pop\n      dup2\n      swap8\n      pop\n      pop\n      pop\n        /* \"DataTradingTest/secp256k1.sol\":3413:3415  db */\n      dup1\n        /* \"DataTradingTest/secp256k1.sol\":3407:3409  da */\n      dup3\n        /* \"DataTradingTest/secp256k1.sol\":3407:3415  da != db */\n      eq\n        /* \"DataTradingTest/secp256k1.sol\":3403:3574  if (da != db) {... */\n      tag_87\n      jumpi\n        /* \"DataTradingTest/secp256k1.sol\":488:554  0xFFFFFFFFFFFFFFFFFFFFFFFFFFFFFFFFFFFFFFFFFFFFFFFFFFFFFFFEFFFFFC2F */\n      0xfffffffffffffffffffffffffffffffffffffffffffffffffffffffefffffc2f\n        /* \"DataTradingTest/secp256k1.sol\":3436:3453  mulmod(x3, db, n) */\n      dup1\n      tag_88\n      jumpi\n      tag_89\n      tag_35\n      jump\t// in\n    tag_89:\n    tag_88:\n        /* \"DataTradingTest/secp256k1.sol\":3447:3449  db */\n      dup2\n        /* \"DataTradingTest/secp256k1.sol\":3443:3445  x3 */\n      dup9\n        /* \"DataTradingTest/secp256k1.sol\":3436:3453  mulmod(x3, db, n) */\n      mulmod\n        /* \"DataTradingTest/secp256k1.sol\":3431:3453  x3 = mulmod(x3, db, n) */\n      swap7\n      pop\n        /* \"DataTradingTest/secp256k1.sol\":488:554  0xFFFFFFFFFFFFFFFFFFFFFFFFFFFFFFFFFFFFFFFFFFFFFFFFFFFFFFFEFFFFFC2F */\n      0xfffffffffffffffffffffffffffffffffffffffffffffffffffffffefffffc2f\n        /* \"DataTradingTest/secp256k1.sol\":3472:3489  mulmod(y3, da, n) */\n      dup1\n      tag_90\n      jumpi\n      tag_91\n      tag_35\n      jump\t// in\n    tag_91:\n    tag_90:\n        /* \"DataTradingTest/secp256k1.sol\":3483:3485  da */\n      dup3\n        /* \"DataTradingTest/secp256k1.sol\":3479:3481  y3 */\n      dup8\n        /* \"DataTradingTest/secp256k1.sol\":3472:3489  mulmod(y3, da, n) */\n      mulmod\n        /* \"DataTradingTest/secp256k1.sol\":3467:3489  y3 = mulmod(y3, da, n) */\n      swap6\n      pop\n        /* \"DataTradingTest/secp256k1.sol\":488:554  0xFFFFFFFFFFFFFFFFFFFFFFFFFFFFFFFFFFFFFFFFFFFFFFFFFFFFFFFEFFFFFC2F */\n      0xfffffffffffffffffffffffffffffffffffffffffffffffffffffffefffffc2f\n        /* \"DataTradingTest/secp256k1.sol\":3508:3525  mulmod(da, db, n) */\n      dup1\n      tag_92\n      jumpi\n      tag_93\n      tag_35\n      jump\t// in\n    tag_93:\n    tag_92:\n        /* \"DataTradingTest/secp256k1.sol\":3519:3521  db */\n      dup2\n        /* \"DataTradingTest/secp256k1.sol\":3515:3517  da */\n      dup4\n        /* \"DataTradingTest/secp256k1.sol\":3508:3525  mulmod(da, db, n) */\n      mulmod\n        /* \"DataTradingTest/secp256k1.sol\":3503:3525  z3 = mulmod(da, db, n) */\n      swap5\n      pop\n        /* \"DataTradingTest/secp256k1.sol\":3403:3574  if (da != db) {... */\n      jump(tag_94)\n    tag_87:\n        /* \"DataTradingTest/secp256k1.sol\":3561:3563  da */\n      dup2\n        /* \"DataTradingTest/secp256k1.sol\":3556:3563  z3 = da */\n      swap5\n      pop\n        /* \"DataTradingTest/secp256k1.sol\":3403:3574  if (da != db) {... */\n    tag_94:\n        /* \"DataTradingTest/secp256k1.sol\":2525:3580  {... */\n      pop\n      pop\n      pop\n      pop\n        /* \"DataTradingTest/secp256k1.sol\":2379:3580  function _ecAdd(uint256 x1, uint256 y1, uint256 z1, uint256 x2, uint256 y2, uint256 z2) private pure returns (uint256 x3, uint256 y3, uint256 z3) {... */\n    tag_62:\n      swap7\n      pop\n      swap7\n      pop\n      swap7\n      swap4\n      pop\n      pop\n      pop\n      pop\n      jump\t// out\n        /* \"DataTradingTest/secp256k1.sol\":1897:2296  function _inverse(uint256 inewrq) private pure returns (uint256 invA) {... */\n    tag_32:\n        /* \"DataTradingTest/secp256k1.sol\":1953:1965  uint256 invA */\n      0x00\n        /* \"DataTradingTest/secp256k1.sol\":1977:1986  uint256 t */\n      dup1\n        /* \"DataTradingTest/secp256k1.sol\":1989:1990  0 */\n      0x00\n        /* \"DataTradingTest/secp256k1.sol\":1977:1990  uint256 t = 0 */\n      swap1\n      pop\n        /* \"DataTradingTest/secp256k1.sol\":2000:2012  uint256 newT */\n      0x00\n        /* \"DataTradingTest/secp256k1.sol\":2015:2016  1 */\n      0x01\n        /* \"DataTradingTest/secp256k1.sol\":2000:2016  uint256 newT = 1 */\n      swap1\n      pop\n        /* \"DataTradingTest/secp256k1.sol\":2026:2035  uint256 r */\n      0x00\n        /* \"DataTradingTest/secp256k1.sol\":488:554  0xFFFFFFFFFFFFFFFFFFFFFFFFFFFFFFFFFFFFFFFFFFFFFFFFFFFFFFFEFFFFFC2F */\n      0xfffffffffffffffffffffffffffffffffffffffffffffffffffffffefffffc2f\n        /* \"DataTradingTest/secp256k1.sol\":2026:2039  uint256 r = n */\n      swap1\n      pop\n        /* \"DataTradingTest/secp256k1.sol\":2049:2061  uint256 newR */\n      0x00\n        /* \"DataTradingTest/secp256k1.sol\":2064:2070  inewrq */\n      dup6\n        /* \"DataTradingTest/secp256k1.sol\":2049:2070  uint256 newR = inewrq */\n      swap1\n      pop\n        /* \"DataTradingTest/secp256k1.sol\":2080:2089  uint256 q */\n      0x00\n        /* \"DataTradingTest/secp256k1.sol\":2099:2272  while (newR != 0) {... */\n    tag_96:\n        /* \"DataTradingTest/secp256k1.sol\":2114:2115  0 */\n      0x00\n        /* \"DataTradingTest/secp256k1.sol\":2106:2110  newR */\n      dup3\n        /* \"DataTradingTest/secp256k1.sol\":2106:2115  newR != 0 */\n      eq\n        /* \"DataTradingTest/secp256k1.sol\":2099:2272  while (newR != 0) {... */\n      tag_97\n      jumpi\n        /* \"DataTradingTest/secp256k1.sol\":2139:2143  newR */\n      dup2\n        /* \"DataTradingTest/secp256k1.sol\":2135:2136  r */\n      dup4\n        /* \"DataTradingTest/secp256k1.sol\":2135:2143  r / newR */\n      tag_98\n      swap2\n      swap1\n      tag_99\n      jump\t// in\n    tag_98:\n        /* \"DataTradingTest/secp256k1.sol\":2131:2143  q = r / newR */\n      swap1\n      pop\n        /* \"DataTradingTest/secp256k1.sol\":2170:2174  newT */\n      dup4\n        /* \"DataTradingTest/secp256k1.sol\":488:554  0xFFFFFFFFFFFFFFFFFFFFFFFFFFFFFFFFFFFFFFFFFFFFFFFFFFFFFFFEFFFFFC2F */\n      0xfffffffffffffffffffffffffffffffffffffffffffffffffffffffefffffc2f\n        /* \"DataTradingTest/secp256k1.sol\":2176:2214  addmod(t, (n - mulmod(q, newT, n)), n) */\n      dup1\n      tag_100\n      jumpi\n      tag_101\n      tag_35\n      jump\t// in\n    tag_101:\n    tag_100:\n        /* \"DataTradingTest/secp256k1.sol\":488:554  0xFFFFFFFFFFFFFFFFFFFFFFFFFFFFFFFFFFFFFFFFFFFFFFFFFFFFFFFEFFFFFC2F */\n      0xfffffffffffffffffffffffffffffffffffffffffffffffffffffffefffffc2f\n        /* \"DataTradingTest/secp256k1.sol\":2191:2209  mulmod(q, newT, n) */\n      dup1\n      tag_102\n      jumpi\n      tag_103\n      tag_35\n      jump\t// in\n    tag_103:\n    tag_102:\n        /* \"DataTradingTest/secp256k1.sol\":2201:2205  newT */\n      dup7\n        /* \"DataTradingTest/secp256k1.sol\":2198:2199  q */\n      dup5\n        /* \"DataTradingTest/secp256k1.sol\":2191:2209  mulmod(q, newT, n) */\n      mulmod\n        /* \"DataTradingTest/secp256k1.sol\":488:554  0xFFFFFFFFFFFFFFFFFFFFFFFFFFFFFFFFFFFFFFFFFFFFFFFFFFFFFFFEFFFFFC2F */\n      0xfffffffffffffffffffffffffffffffffffffffffffffffffffffffefffffc2f\n        /* \"DataTradingTest/secp256k1.sol\":2187:2209  n - mulmod(q, newT, n) */\n      tag_104\n      swap2\n      swap1\n      tag_105\n      jump\t// in\n    tag_104:\n        /* \"DataTradingTest/secp256k1.sol\":2183:2184  t */\n      dup8\n        /* \"DataTradingTest/secp256k1.sol\":2176:2214  addmod(t, (n - mulmod(q, newT, n)), n) */\n      addmod\n        /* \"DataTradingTest/secp256k1.sol\":2157:2215  (t, newT) = (newT, addmod(t, (n - mulmod(q, newT, n)), n)) */\n      dup1\n      swap6\n      pop\n      dup2\n      swap7\n      pop\n      pop\n      pop\n        /* \"DataTradingTest/secp256k1.sol\":2242:2246  newR */\n      dup2\n        /* \"DataTradingTest/secp256k1.sol\":2256:2260  newR */\n      dup3\n        /* \"DataTradingTest/secp256k1.sol\":2252:2253  q */\n      dup3\n        /* \"DataTradingTest/secp256k1.sol\":2252:2260  q * newR */\n      tag_106\n      swap2\n      swap1\n      tag_107\n      jump\t// in\n    tag_106:\n        /* \"DataTradingTest/secp256k1.sol\":2248:2249  r */\n      dup5\n        /* \"DataTradingTest/secp256k1.sol\":2248:2260  r - q * newR */\n      tag_108\n      swap2\n      swap1\n      tag_105\n      jump\t// in\n    tag_108:\n        /* \"DataTradingTest/secp256k1.sol\":2229:2261  (r, newR) = (newR, r - q * newR) */\n      dup1\n      swap4\n      pop\n      dup2\n      swap5\n      pop\n      pop\n      pop\n        /* \"DataTradingTest/secp256k1.sol\":2099:2272  while (newR != 0) {... */\n      jump(tag_96)\n    tag_97:\n        /* \"DataTradingTest/secp256k1.sol\":2288:2289  t */\n      dup5\n        /* \"DataTradingTest/secp256k1.sol\":2281:2289  return t */\n      swap6\n      pop\n      pop\n      pop\n      pop\n      pop\n      pop\n        /* \"DataTradingTest/secp256k1.sol\":1897:2296  function _inverse(uint256 inewrq) private pure returns (uint256 invA) {... */\n      swap2\n      swap1\n      pop\n      jump\t// out\n        /* \"DataTradingTest/secp256k1.sol\":3908:4577  function _ecMul(uint256 d, uint256 x1, uint256 y1, uint256 z1) private pure returns (uint256 x3, uint256 y3, uint256 z3) {... */\n    tag_40:\n        /* \"DataTradingTest/secp256k1.sol\":3993:4003  uint256 x3 */\n      0x00\n        /* \"DataTradingTest/secp256k1.sol\":4005:4015  uint256 y3 */\n      dup1\n        /* \"DataTradingTest/secp256k1.sol\":4017:4027  uint256 z3 */\n      0x00\n        /* \"DataTradingTest/secp256k1.sol\":4039:4056  uint256 remaining */\n      dup1\n        /* \"DataTradingTest/secp256k1.sol\":4059:4060  d */\n      dup8\n        /* \"DataTradingTest/secp256k1.sol\":4039:4060  uint256 remaining = d */\n      swap1\n      pop\n        /* \"DataTradingTest/secp256k1.sol\":4070:4080  uint256 px */\n      0x00\n        /* \"DataTradingTest/secp256k1.sol\":4083:4085  x1 */\n      dup8\n        /* \"DataTradingTest/secp256k1.sol\":4070:4085  uint256 px = x1 */\n      swap1\n      pop\n        /* \"DataTradingTest/secp256k1.sol\":4095:4105  uint256 py */\n      0x00\n        /* \"DataTradingTest/secp256k1.sol\":4108:4110  y1 */\n      dup8\n        /* \"DataTradingTest/secp256k1.sol\":4095:4110  uint256 py = y1 */\n      swap1\n      pop\n        /* \"DataTradingTest/secp256k1.sol\":4120:4130  uint256 pz */\n      0x00\n        /* \"DataTradingTest/secp256k1.sol\":4133:4135  z1 */\n      dup8\n        /* \"DataTradingTest/secp256k1.sol\":4120:4135  uint256 pz = z1 */\n      swap1\n      pop\n        /* \"DataTradingTest/secp256k1.sol\":4145:4156  uint256 acx */\n      0x00\n        /* \"DataTradingTest/secp256k1.sol\":4170:4181  uint256 acy */\n      dup1\n        /* \"DataTradingTest/secp256k1.sol\":4195:4206  uint256 acz */\n      0x00\n        /* \"DataTradingTest/secp256k1.sol\":4209:4210  1 */\n      0x01\n        /* \"DataTradingTest/secp256k1.sol\":4195:4210  uint256 acz = 1 */\n      swap1\n      pop\n        /* \"DataTradingTest/secp256k1.sol\":4230:4231  0 */\n      0x00\n        /* \"DataTradingTest/secp256k1.sol\":4225:4226  d */\n      dup15\n        /* \"DataTradingTest/secp256k1.sol\":4225:4231  d == 0 */\n      sub\n        /* \"DataTradingTest/secp256k1.sol\":4221:4274  if (d == 0) {... */\n      tag_110\n      jumpi\n        /* \"DataTradingTest/secp256k1.sol\":4255:4256  0 */\n      0x00\n        /* \"DataTradingTest/secp256k1.sol\":4258:4259  0 */\n      dup1\n        /* \"DataTradingTest/secp256k1.sol\":4261:4262  1 */\n      0x01\n        /* \"DataTradingTest/secp256k1.sol\":4247:4263  return (0, 0, 1) */\n      swap10\n      pop\n      swap10\n      pop\n      swap10\n      pop\n      pop\n      pop\n      pop\n      pop\n      pop\n      pop\n      pop\n      jump(tag_109)\n        /* \"DataTradingTest/secp256k1.sol\":4221:4274  if (d == 0) {... */\n    tag_110:\n        /* \"DataTradingTest/secp256k1.sol\":4284:4530  while (remaining != 0) {... */\n    tag_111:\n        /* \"DataTradingTest/secp256k1.sol\":4304:4305  0 */\n      0x00\n        /* \"DataTradingTest/secp256k1.sol\":4291:4300  remaining */\n      dup8\n        /* \"DataTradingTest/secp256k1.sol\":4291:4305  remaining != 0 */\n      eq\n        /* \"DataTradingTest/secp256k1.sol\":4284:4530  while (remaining != 0) {... */\n      tag_112\n      jumpi\n        /* \"DataTradingTest/secp256k1.sol\":4344:4345  0 */\n      0x00\n        /* \"DataTradingTest/secp256k1.sol\":4338:4339  1 */\n      0x01\n        /* \"DataTradingTest/secp256k1.sol\":4326:4335  remaining */\n      dup9\n        /* \"DataTradingTest/secp256k1.sol\":4326:4339  remaining & 1 */\n      and\n        /* \"DataTradingTest/secp256k1.sol\":4325:4345  (remaining & 1) != 0 */\n      eq\n        /* \"DataTradingTest/secp256k1.sol\":4321:4431  if ((remaining & 1) != 0) {... */\n      tag_113\n      jumpi\n        /* \"DataTradingTest/secp256k1.sol\":4383:4416  _ecAdd(acx, acy, acz, px, py, pz) */\n      tag_114\n        /* \"DataTradingTest/secp256k1.sol\":4390:4393  acx */\n      dup4\n        /* \"DataTradingTest/secp256k1.sol\":4395:4398  acy */\n      dup4\n        /* \"DataTradingTest/secp256k1.sol\":4400:4403  acz */\n      dup4\n        /* \"DataTradingTest/secp256k1.sol\":4405:4407  px */\n      dup10\n        /* \"DataTradingTest/secp256k1.sol\":4409:4411  py */\n      dup10\n        /* \"DataTradingTest/secp256k1.sol\":4413:4415  pz */\n      dup10\n        /* \"DataTradingTest/secp256k1.sol\":4383:4389  _ecAdd */\n      tag_30\n        /* \"DataTradingTest/secp256k1.sol\":4383:4416  _ecAdd(acx, acy, acz, px, py, pz) */\n      jump\t// in\n    tag_114:\n        /* \"DataTradingTest/secp256k1.sol\":4365:4416  (acx, acy, acz) = _ecAdd(acx, acy, acz, px, py, pz) */\n      dup1\n      swap4\n      pop\n      dup2\n      swap5\n      pop\n      dup3\n      swap6\n      pop\n      pop\n      pop\n      pop\n        /* \"DataTradingTest/secp256k1.sol\":4321:4431  if ((remaining & 1) != 0) {... */\n    tag_113:\n        /* \"DataTradingTest/secp256k1.sol\":4468:4469  2 */\n      0x02\n        /* \"DataTradingTest/secp256k1.sol\":4456:4465  remaining */\n      dup8\n        /* \"DataTradingTest/secp256k1.sol\":4456:4469  remaining / 2 */\n      tag_115\n      swap2\n      swap1\n      tag_99\n      jump\t// in\n    tag_115:\n        /* \"DataTradingTest/secp256k1.sol\":4444:4469  remaining = remaining / 2 */\n      swap7\n      pop\n        /* \"DataTradingTest/secp256k1.sol\":4498:4519  _ecDouble(px, py, pz) */\n      tag_116\n        /* \"DataTradingTest/secp256k1.sol\":4508:4510  px */\n      dup7\n        /* \"DataTradingTest/secp256k1.sol\":4512:4514  py */\n      dup7\n        /* \"DataTradingTest/secp256k1.sol\":4516:4518  pz */\n      dup7\n        /* \"DataTradingTest/secp256k1.sol\":4498:4507  _ecDouble */\n      tag_117\n        /* \"DataTradingTest/secp256k1.sol\":4498:4519  _ecDouble(px, py, pz) */\n      jump\t// in\n    tag_116:\n        /* \"DataTradingTest/secp256k1.sol\":4483:4519  (px, py, pz) = _ecDouble(px, py, pz) */\n      dup1\n      swap7\n      pop\n      dup2\n      swap8\n      pop\n      dup3\n      swap9\n      pop\n      pop\n      pop\n      pop\n        /* \"DataTradingTest/secp256k1.sol\":4284:4530  while (remaining != 0) {... */\n      jump(tag_111)\n    tag_112:\n        /* \"DataTradingTest/secp256k1.sol\":4556:4559  acx */\n      dup3\n        /* \"DataTradingTest/secp256k1.sol\":4561:4564  acy */\n      dup3\n        /* \"DataTradingTest/secp256k1.sol\":4566:4569  acz */\n      dup3\n        /* \"DataTradingTest/secp256k1.sol\":4540:4570  (x3, y3, z3) = (acx, acy, acz) */\n      dup1\n      swap11\n      pop\n      dup2\n      swap12\n      pop\n      dup3\n      swap13\n      pop\n      pop\n      pop\n      pop\n        /* \"DataTradingTest/secp256k1.sol\":4029:4577  {... */\n      pop\n      pop\n      pop\n      pop\n      pop\n      pop\n      pop\n        /* \"DataTradingTest/secp256k1.sol\":3908:4577  function _ecMul(uint256 d, uint256 x1, uint256 y1, uint256 z1) private pure returns (uint256 x3, uint256 y3, uint256 z3) {... */\n    tag_109:\n      swap5\n      pop\n      swap5\n      pop\n      swap5\n      swap2\n      pop\n      pop\n      jump\t// out\n        /* \"DataTradingTest/secp256k1.sol\":1406:1581  function _jMul(uint256 x1, uint256 z1, uint256 x2, uint256 z2) private pure returns (uint256 x3, uint256 z3) {... */\n    tag_70:\n        /* \"DataTradingTest/secp256k1.sol\":1491:1501  uint256 x3 */\n      0x00\n        /* \"DataTradingTest/secp256k1.sol\":1503:1513  uint256 z3 */\n      dup1\n        /* \"DataTradingTest/secp256k1.sol\":488:554  0xFFFFFFFFFFFFFFFFFFFFFFFFFFFFFFFFFFFFFFFFFFFFFFFFFFFFFFFEFFFFFC2F */\n      0xfffffffffffffffffffffffffffffffffffffffffffffffffffffffefffffc2f\n        /* \"DataTradingTest/secp256k1.sol\":1537:1554  mulmod(x1, x2, n) */\n      dup1\n      tag_119\n      jumpi\n      tag_120\n      tag_35\n      jump\t// in\n    tag_120:\n    tag_119:\n        /* \"DataTradingTest/secp256k1.sol\":1548:1550  x2 */\n      dup5\n        /* \"DataTradingTest/secp256k1.sol\":1544:1546  x1 */\n      dup8\n        /* \"DataTradingTest/secp256k1.sol\":1537:1554  mulmod(x1, x2, n) */\n      mulmod\n        /* \"DataTradingTest/secp256k1.sol\":488:554  0xFFFFFFFFFFFFFFFFFFFFFFFFFFFFFFFFFFFFFFFFFFFFFFFFFFFFFFFEFFFFFC2F */\n      0xfffffffffffffffffffffffffffffffffffffffffffffffffffffffefffffc2f\n        /* \"DataTradingTest/secp256k1.sol\":1556:1573  mulmod(z1, z2, n) */\n      dup1\n      tag_121\n      jumpi\n      tag_122\n      tag_35\n      jump\t// in\n    tag_122:\n    tag_121:\n        /* \"DataTradingTest/secp256k1.sol\":1567:1569  z2 */\n      dup5\n        /* \"DataTradingTest/secp256k1.sol\":1563:1565  z1 */\n      dup8\n        /* \"DataTradingTest/secp256k1.sol\":1556:1573  mulmod(z1, z2, n) */\n      mulmod\n        /* \"DataTradingTest/secp256k1.sol\":1525:1574  (x3, z3) = (mulmod(x1, x2, n), mulmod(z1, z2, n)) */\n      dup1\n      swap3\n      pop\n      dup2\n      swap4\n      pop\n      pop\n      pop\n        /* \"DataTradingTest/secp256k1.sol\":1406:1581  function _jMul(uint256 x1, uint256 z1, uint256 x2, uint256 z2) private pure returns (uint256 x3, uint256 z3) {... */\n      swap5\n      pop\n      swap5\n      swap3\n      pop\n      pop\n      pop\n      jump\t// out\n        /* \"DataTradingTest/secp256k1.sol\":808:1013  function _jAdd(uint256 x1, uint256 z1, uint256 x2, uint256 z2) private pure returns (uint256 x3, uint256 z3) {... */\n    tag_73:\n        /* \"DataTradingTest/secp256k1.sol\":893:903  uint256 x3 */\n      0x00\n        /* \"DataTradingTest/secp256k1.sol\":905:915  uint256 z3 */\n      dup1\n        /* \"DataTradingTest/secp256k1.sol\":488:554  0xFFFFFFFFFFFFFFFFFFFFFFFFFFFFFFFFFFFFFFFFFFFFFFFFFFFFFFFEFFFFFC2F */\n      0xfffffffffffffffffffffffffffffffffffffffffffffffffffffffefffffc2f\n        /* \"DataTradingTest/secp256k1.sol\":939:986  addmod(mulmod(z2, x1, n), mulmod(x2, z1, n), n) */\n      dup1\n      tag_124\n      jumpi\n      tag_125\n      tag_35\n      jump\t// in\n    tag_125:\n    tag_124:\n        /* \"DataTradingTest/secp256k1.sol\":488:554  0xFFFFFFFFFFFFFFFFFFFFFFFFFFFFFFFFFFFFFFFFFFFFFFFFFFFFFFFEFFFFFC2F */\n      0xfffffffffffffffffffffffffffffffffffffffffffffffffffffffefffffc2f\n        /* \"DataTradingTest/secp256k1.sol\":965:982  mulmod(x2, z1, n) */\n      dup1\n      tag_126\n      jumpi\n      tag_127\n      tag_35\n      jump\t// in\n    tag_127:\n    tag_126:\n        /* \"DataTradingTest/secp256k1.sol\":976:978  z1 */\n      dup7\n        /* \"DataTradingTest/secp256k1.sol\":972:974  x2 */\n      dup7\n        /* \"DataTradingTest/secp256k1.sol\":965:982  mulmod(x2, z1, n) */\n      mulmod\n        /* \"DataTradingTest/secp256k1.sol\":488:554  0xFFFFFFFFFFFFFFFFFFFFFFFFFFFFFFFFFFFFFFFFFFFFFFFFFFFFFFFEFFFFFC2F */\n      0xfffffffffffffffffffffffffffffffffffffffffffffffffffffffefffffc2f\n        /* \"DataTradingTest/secp256k1.sol\":946:963  mulmod(z2, x1, n) */\n      dup1\n      tag_128\n      jumpi\n      tag_129\n      tag_35\n      jump\t// in\n    tag_129:\n    tag_128:\n        /* \"DataTradingTest/secp256k1.sol\":957:959  x1 */\n      dup9\n        /* \"DataTradingTest/secp256k1.sol\":953:955  z2 */\n      dup7\n        /* \"DataTradingTest/secp256k1.sol\":946:963  mulmod(z2, x1, n) */\n      mulmod\n        /* \"DataTradingTest/secp256k1.sol\":939:986  addmod(mulmod(z2, x1, n), mulmod(x2, z1, n), n) */\n      addmod\n        /* \"DataTradingTest/secp256k1.sol\":488:554  0xFFFFFFFFFFFFFFFFFFFFFFFFFFFFFFFFFFFFFFFFFFFFFFFFFFFFFFFEFFFFFC2F */\n      0xfffffffffffffffffffffffffffffffffffffffffffffffffffffffefffffc2f\n        /* \"DataTradingTest/secp256k1.sol\":988:1005  mulmod(z1, z2, n) */\n      dup1\n      tag_130\n      jumpi\n      tag_131\n      tag_35\n      jump\t// in\n    tag_131:\n    tag_130:\n        /* \"DataTradingTest/secp256k1.sol\":999:1001  z2 */\n      dup5\n        /* \"DataTradingTest/secp256k1.sol\":995:997  z1 */\n      dup8\n        /* \"DataTradingTest/secp256k1.sol\":988:1005  mulmod(z1, z2, n) */\n      mulmod\n        /* \"DataTradingTest/secp256k1.sol\":927:1006  (x3, z3) = (addmod(mulmod(z2, x1, n), mulmod(x2, z1, n), n), mulmod(z1, z2, n)) */\n      dup1\n      swap3\n      pop\n      dup2\n      swap4\n      pop\n      pop\n      pop\n        /* \"DataTradingTest/secp256k1.sol\":808:1013  function _jAdd(uint256 x1, uint256 z1, uint256 x2, uint256 z2) private pure returns (uint256 x3, uint256 z3) {... */\n      swap5\n      pop\n      swap5\n      swap3\n      pop\n      pop\n      pop\n      jump\t// out\n        /* \"DataTradingTest/secp256k1.sol\":1114:1323  function _jSub(uint256 x1, uint256 z1, uint256 x2, uint256 z2) private pure returns (uint256 x3, uint256 z3) {... */\n    tag_77:\n        /* \"DataTradingTest/secp256k1.sol\":1199:1209  uint256 x3 */\n      0x00\n        /* \"DataTradingTest/secp256k1.sol\":1211:1221  uint256 z3 */\n      dup1\n        /* \"DataTradingTest/secp256k1.sol\":488:554  0xFFFFFFFFFFFFFFFFFFFFFFFFFFFFFFFFFFFFFFFFFFFFFFFFFFFFFFFEFFFFFC2F */\n      0xfffffffffffffffffffffffffffffffffffffffffffffffffffffffefffffc2f\n        /* \"DataTradingTest/secp256k1.sol\":1245:1296  addmod(mulmod(z2, x1, n), mulmod(n - x2, z1, n), n) */\n      dup1\n      tag_133\n      jumpi\n      tag_134\n      tag_35\n      jump\t// in\n    tag_134:\n    tag_133:\n        /* \"DataTradingTest/secp256k1.sol\":488:554  0xFFFFFFFFFFFFFFFFFFFFFFFFFFFFFFFFFFFFFFFFFFFFFFFFFFFFFFFEFFFFFC2F */\n      0xfffffffffffffffffffffffffffffffffffffffffffffffffffffffefffffc2f\n        /* \"DataTradingTest/secp256k1.sol\":1271:1292  mulmod(n - x2, z1, n) */\n      dup1\n      tag_135\n      jumpi\n      tag_136\n      tag_35\n      jump\t// in\n    tag_136:\n    tag_135:\n        /* \"DataTradingTest/secp256k1.sol\":1286:1288  z1 */\n      dup7\n        /* \"DataTradingTest/secp256k1.sol\":1282:1284  x2 */\n      dup7\n        /* \"DataTradingTest/secp256k1.sol\":488:554  0xFFFFFFFFFFFFFFFFFFFFFFFFFFFFFFFFFFFFFFFFFFFFFFFFFFFFFFFEFFFFFC2F */\n      0xfffffffffffffffffffffffffffffffffffffffffffffffffffffffefffffc2f\n        /* \"DataTradingTest/secp256k1.sol\":1278:1284  n - x2 */\n      tag_137\n      swap2\n      swap1\n      tag_105\n      jump\t// in\n    tag_137:\n        /* \"DataTradingTest/secp256k1.sol\":1271:1292  mulmod(n - x2, z1, n) */\n      mulmod\n        /* \"DataTradingTest/secp256k1.sol\":488:554  0xFFFFFFFFFFFFFFFFFFFFFFFFFFFFFFFFFFFFFFFFFFFFFFFFFFFFFFFEFFFFFC2F */\n      0xfffffffffffffffffffffffffffffffffffffffffffffffffffffffefffffc2f\n        /* \"DataTradingTest/secp256k1.sol\":1252:1269  mulmod(z2, x1, n) */\n      dup1\n      tag_138\n      jumpi\n      tag_139\n      tag_35\n      jump\t// in\n    tag_139:\n    tag_138:\n        /* \"DataTradingTest/secp256k1.sol\":1263:1265  x1 */\n      dup9\n        /* \"DataTradingTest/secp256k1.sol\":1259:1261  z2 */\n      dup7\n        /* \"DataTradingTest/secp256k1.sol\":1252:1269  mulmod(z2, x1, n) */\n      mulmod\n        /* \"DataTradingTest/secp256k1.sol\":1245:1296  addmod(mulmod(z2, x1, n), mulmod(n - x2, z1, n), n) */\n      addmod\n        /* \"DataTradingTest/secp256k1.sol\":488:554  0xFFFFFFFFFFFFFFFFFFFFFFFFFFFFFFFFFFFFFFFFFFFFFFFFFFFFFFFEFFFFFC2F */\n      0xfffffffffffffffffffffffffffffffffffffffffffffffffffffffefffffc2f\n        /* \"DataTradingTest/secp256k1.sol\":1298:1315  mulmod(z1, z2, n) */\n      dup1\n      tag_140\n      jumpi\n      tag_141\n      tag_35\n      jump\t// in\n    tag_141:\n    tag_140:\n        /* \"DataTradingTest/secp256k1.sol\":1309:1311  z2 */\n      dup5\n        /* \"DataTradingTest/secp256k1.sol\":1305:1307  z1 */\n      dup8\n        /* \"DataTradingTest/secp256k1.sol\":1298:1315  mulmod(z1, z2, n) */\n      mulmod\n        /* \"DataTradingTest/secp256k1.sol\":1233:1316  (x3, z3) = (addmod(mulmod(z2, x1, n), mulmod(n - x2, z1, n), n), mulmod(z1, z2, n)) */\n      dup1\n      swap3\n      pop\n      dup2\n      swap4\n      pop\n      pop\n      pop\n        /* \"DataTradingTest/secp256k1.sol\":1114:1323  function _jSub(uint256 x1, uint256 z1, uint256 x2, uint256 z2) private pure returns (uint256 x3, uint256 z3) {... */\n      swap5\n      pop\n      swap5\n      swap3\n      pop\n      pop\n      pop\n      jump\t// out\n        /* \"DataTradingTest/secp256k1.sol\":1682:1857  function _jDiv(uint256 x1, uint256 z1, uint256 x2, uint256 z2) private pure returns (uint256 x3, uint256 z3) {... */\n    tag_80:\n        /* \"DataTradingTest/secp256k1.sol\":1767:1777  uint256 x3 */\n      0x00\n        /* \"DataTradingTest/secp256k1.sol\":1779:1789  uint256 z3 */\n      dup1\n        /* \"DataTradingTest/secp256k1.sol\":488:554  0xFFFFFFFFFFFFFFFFFFFFFFFFFFFFFFFFFFFFFFFFFFFFFFFFFFFFFFFEFFFFFC2F */\n      0xfffffffffffffffffffffffffffffffffffffffffffffffffffffffefffffc2f\n        /* \"DataTradingTest/secp256k1.sol\":1813:1830  mulmod(x1, z2, n) */\n      dup1\n      tag_143\n      jumpi\n      tag_144\n      tag_35\n      jump\t// in\n    tag_144:\n    tag_143:\n        /* \"DataTradingTest/secp256k1.sol\":1824:1826  z2 */\n      dup4\n        /* \"DataTradingTest/secp256k1.sol\":1820:1822  x1 */\n      dup8\n        /* \"DataTradingTest/secp256k1.sol\":1813:1830  mulmod(x1, z2, n) */\n      mulmod\n        /* \"DataTradingTest/secp256k1.sol\":488:554  0xFFFFFFFFFFFFFFFFFFFFFFFFFFFFFFFFFFFFFFFFFFFFFFFFFFFFFFFEFFFFFC2F */\n      0xfffffffffffffffffffffffffffffffffffffffffffffffffffffffefffffc2f\n        /* \"DataTradingTest/secp256k1.sol\":1832:1849  mulmod(z1, x2, n) */\n      dup1\n      tag_145\n      jumpi\n      tag_146\n      tag_35\n      jump\t// in\n    tag_146:\n    tag_145:\n        /* \"DataTradingTest/secp256k1.sol\":1843:1845  x2 */\n      dup6\n        /* \"DataTradingTest/secp256k1.sol\":1839:1841  z1 */\n      dup8\n        /* \"DataTradingTest/secp256k1.sol\":1832:1849  mulmod(z1, x2, n) */\n      mulmod\n        /* \"DataTradingTest/secp256k1.sol\":1801:1850  (x3, z3) = (mulmod(x1, z2, n), mulmod(z1, x2, n)) */\n      dup1\n      swap3\n      pop\n      dup2\n      swap4\n      pop\n      pop\n      pop\n        /* \"DataTradingTest/secp256k1.sol\":1682:1857  function _jDiv(uint256 x1, uint256 z1, uint256 x2, uint256 z2) private pure returns (uint256 x3, uint256 z3) {... */\n      swap5\n      pop\n      swap5\n      swap3\n      pop\n      pop\n      pop\n      jump\t// out\n        /* \"DataTradingTest/secp256k1.sol\":3663:3838  function _ecDouble(uint256 x1, uint256 y1, uint256 z1) private pure returns (uint256 x3, uint256 y3, uint256 z3) {... */\n    tag_117:\n        /* \"DataTradingTest/secp256k1.sol\":3740:3750  uint256 x3 */\n      0x00\n        /* \"DataTradingTest/secp256k1.sol\":3752:3762  uint256 y3 */\n      dup1\n        /* \"DataTradingTest/secp256k1.sol\":3764:3774  uint256 z3 */\n      0x00\n        /* \"DataTradingTest/secp256k1.sol\":3801:3831  _ecAdd(x1, y1, z1, x1, y1, z1) */\n      tag_148\n        /* \"DataTradingTest/secp256k1.sol\":3808:3810  x1 */\n      dup7\n        /* \"DataTradingTest/secp256k1.sol\":3812:3814  y1 */\n      dup7\n        /* \"DataTradingTest/secp256k1.sol\":3816:3818  z1 */\n      dup7\n        /* \"DataTradingTest/secp256k1.sol\":3820:3822  x1 */\n      dup10\n        /* \"DataTradingTest/secp256k1.sol\":3824:3826  y1 */\n      dup10\n        /* \"DataTradingTest/secp256k1.sol\":3828:3830  z1 */\n      dup10\n        /* \"DataTradingTest/secp256k1.sol\":3801:3807  _ecAdd */\n      tag_30\n        /* \"DataTradingTest/secp256k1.sol\":3801:3831  _ecAdd(x1, y1, z1, x1, y1, z1) */\n      jump\t// in\n    tag_148:\n        /* \"DataTradingTest/secp256k1.sol\":3786:3831  (x3, y3, z3) = _ecAdd(x1, y1, z1, x1, y1, z1) */\n      dup1\n      swap4\n      pop\n      dup2\n      swap5\n      pop\n      dup3\n      swap6\n      pop\n      pop\n      pop\n      pop\n        /* \"DataTradingTest/secp256k1.sol\":3663:3838  function _ecDouble(uint256 x1, uint256 y1, uint256 z1) private pure returns (uint256 x3, uint256 y3, uint256 z3) {... */\n      swap4\n      pop\n      swap4\n      pop\n      swap4\n      swap1\n      pop\n      jump\t// out\n        /* \"#utility.yul\":88:205   */\n    tag_150:\n        /* \"#utility.yul\":197:198   */\n      0x00\n        /* \"#utility.yul\":194:195   */\n      dup1\n        /* \"#utility.yul\":187:199   */\n      revert\n        /* \"#utility.yul\":334:411   */\n    tag_152:\n        /* \"#utility.yul\":371:378   */\n      0x00\n        /* \"#utility.yul\":400:405   */\n      dup2\n        /* \"#utility.yul\":389:405   */\n      swap1\n      pop\n        /* \"#utility.yul\":334:411   */\n      swap2\n      swap1\n      pop\n      jump\t// out\n        /* \"#utility.yul\":417:539   */\n    tag_153:\n        /* \"#utility.yul\":490:514   */\n      tag_165\n        /* \"#utility.yul\":508:513   */\n      dup2\n        /* \"#utility.yul\":490:514   */\n      tag_152\n      jump\t// in\n    tag_165:\n        /* \"#utility.yul\":483:488   */\n      dup2\n        /* \"#utility.yul\":480:515   */\n      eq\n        /* \"#utility.yul\":470:533   */\n      tag_166\n      jumpi\n        /* \"#utility.yul\":529:530   */\n      0x00\n        /* \"#utility.yul\":526:527   */\n      dup1\n        /* \"#utility.yul\":519:531   */\n      revert\n        /* \"#utility.yul\":470:533   */\n    tag_166:\n        /* \"#utility.yul\":417:539   */\n      pop\n      jump\t// out\n        /* \"#utility.yul\":545:684   */\n    tag_154:\n        /* \"#utility.yul\":591:596   */\n      0x00\n        /* \"#utility.yul\":629:635   */\n      dup2\n        /* \"#utility.yul\":616:636   */\n      calldataload\n        /* \"#utility.yul\":607:636   */\n      swap1\n      pop\n        /* \"#utility.yul\":645:678   */\n      tag_168\n        /* \"#utility.yul\":672:677   */\n      dup2\n        /* \"#utility.yul\":645:678   */\n      tag_153\n      jump\t// in\n    tag_168:\n        /* \"#utility.yul\":545:684   */\n      swap3\n      swap2\n      pop\n      pop\n      jump\t// out\n        /* \"#utility.yul\":690:1455   */\n    tag_9:\n        /* \"#utility.yul\":776:782   */\n      0x00\n        /* \"#utility.yul\":784:790   */\n      dup1\n        /* \"#utility.yul\":792:798   */\n      0x00\n        /* \"#utility.yul\":800:806   */\n      dup1\n        /* \"#utility.yul\":849:852   */\n      0x80\n        /* \"#utility.yul\":837:846   */\n      dup6\n        /* \"#utility.yul\":828:835   */\n      dup8\n        /* \"#utility.yul\":824:847   */\n      sub\n        /* \"#utility.yul\":820:853   */\n      slt\n        /* \"#utility.yul\":817:937   */\n      iszero\n      tag_170\n      jumpi\n        /* \"#utility.yul\":856:935   */\n      tag_171\n      tag_150\n      jump\t// in\n    tag_171:\n        /* \"#utility.yul\":817:937   */\n    tag_170:\n        /* \"#utility.yul\":976:977   */\n      0x00\n        /* \"#utility.yul\":1001:1054   */\n      tag_172\n        /* \"#utility.yul\":1046:1053   */\n      dup8\n        /* \"#utility.yul\":1037:1043   */\n      dup3\n        /* \"#utility.yul\":1026:1035   */\n      dup9\n        /* \"#utility.yul\":1022:1044   */\n      add\n        /* \"#utility.yul\":1001:1054   */\n      tag_154\n      jump\t// in\n    tag_172:\n        /* \"#utility.yul\":991:1054   */\n      swap5\n      pop\n        /* \"#utility.yul\":947:1064   */\n      pop\n        /* \"#utility.yul\":1103:1105   */\n      0x20\n        /* \"#utility.yul\":1129:1182   */\n      tag_173\n        /* \"#utility.yul\":1174:1181   */\n      dup8\n        /* \"#utility.yul\":1165:1171   */\n      dup3\n        /* \"#utility.yul\":1154:1163   */\n      dup9\n        /* \"#utility.yul\":1150:1172   */\n      add\n        /* \"#utility.yul\":1129:1182   */\n      tag_154\n      jump\t// in\n    tag_173:\n        /* \"#utility.yul\":1119:1182   */\n      swap4\n      pop\n        /* \"#utility.yul\":1074:1192   */\n      pop\n        /* \"#utility.yul\":1231:1233   */\n      0x40\n        /* \"#utility.yul\":1257:1310   */\n      tag_174\n        /* \"#utility.yul\":1302:1309   */\n      dup8\n        /* \"#utility.yul\":1293:1299   */\n      dup3\n        /* \"#utility.yul\":1282:1291   */\n      dup9\n        /* \"#utility.yul\":1278:1300   */\n      add\n        /* \"#utility.yul\":1257:1310   */\n      tag_154\n      jump\t// in\n    tag_174:\n        /* \"#utility.yul\":1247:1310   */\n      swap3\n      pop\n        /* \"#utility.yul\":1202:1320   */\n      pop\n        /* \"#utility.yul\":1359:1361   */\n      0x60\n        /* \"#utility.yul\":1385:1438   */\n      tag_175\n        /* \"#utility.yul\":1430:1437   */\n      dup8\n        /* \"#utility.yul\":1421:1427   */\n      dup3\n        /* \"#utility.yul\":1410:1419   */\n      dup9\n        /* \"#utility.yul\":1406:1428   */\n      add\n        /* \"#utility.yul\":1385:1438   */\n      tag_154\n      jump\t// in\n    tag_175:\n        /* \"#utility.yul\":1375:1438   */\n      swap2\n      pop\n        /* \"#utility.yul\":1330:1448   */\n      pop\n        /* \"#utility.yul\":690:1455   */\n      swap3\n      swap6\n      swap2\n      swap5\n      pop\n      swap3\n      pop\n      jump\t// out\n        /* \"#utility.yul\":1461:1579   */\n    tag_155:\n        /* \"#utility.yul\":1548:1572   */\n      tag_177\n        /* \"#utility.yul\":1566:1571   */\n      dup2\n        /* \"#utility.yul\":1548:1572   */\n      tag_152\n      jump\t// in\n    tag_177:\n        /* \"#utility.yul\":1543:1546   */\n      dup3\n        /* \"#utility.yul\":1536:1573   */\n      mstore\n        /* \"#utility.yul\":1461:1579   */\n      pop\n      pop\n      jump\t// out\n        /* \"#utility.yul\":1585:1917   */\n    tag_12:\n        /* \"#utility.yul\":1706:1710   */\n      0x00\n        /* \"#utility.yul\":1744:1746   */\n      0x40\n        /* \"#utility.yul\":1733:1742   */\n      dup3\n        /* \"#utility.yul\":1729:1747   */\n      add\n        /* \"#utility.yul\":1721:1747   */\n      swap1\n      pop\n        /* \"#utility.yul\":1757:1828   */\n      tag_179\n        /* \"#utility.yul\":1825:1826   */\n      0x00\n        /* \"#utility.yul\":1814:1823   */\n      dup4\n        /* \"#utility.yul\":1810:1827   */\n      add\n        /* \"#utility.yul\":1801:1807   */\n      dup6\n        /* \"#utility.yul\":1757:1828   */\n      tag_155\n      jump\t// in\n    tag_179:\n        /* \"#utility.yul\":1838:1910   */\n      tag_180\n        /* \"#utility.yul\":1906:1908   */\n      0x20\n        /* \"#utility.yul\":1895:1904   */\n      dup4\n        /* \"#utility.yul\":1891:1909   */\n      add\n        /* \"#utility.yul\":1882:1888   */\n      dup5\n        /* \"#utility.yul\":1838:1910   */\n      tag_155\n      jump\t// in\n    tag_180:\n        /* \"#utility.yul\":1585:1917   */\n      swap4\n      swap3\n      pop\n      pop\n      pop\n      jump\t// out\n        /* \"#utility.yul\":1923:2252   */\n    tag_15:\n        /* \"#utility.yul\":1982:1988   */\n      0x00\n        /* \"#utility.yul\":2031:2033   */\n      0x20\n        /* \"#utility.yul\":2019:2028   */\n      dup3\n        /* \"#utility.yul\":2010:2017   */\n      dup5\n        /* \"#utility.yul\":2006:2029   */\n      sub\n        /* \"#utility.yul\":2002:2034   */\n      slt\n        /* \"#utility.yul\":1999:2118   */\n      iszero\n      tag_182\n      jumpi\n        /* \"#utility.yul\":2037:2116   */\n      tag_183\n      tag_150\n      jump\t// in\n    tag_183:\n        /* \"#utility.yul\":1999:2118   */\n    tag_182:\n        /* \"#utility.yul\":2157:2158   */\n      0x00\n        /* \"#utility.yul\":2182:2235   */\n      tag_184\n        /* \"#utility.yul\":2227:2234   */\n      dup5\n        /* \"#utility.yul\":2218:2224   */\n      dup3\n        /* \"#utility.yul\":2207:2216   */\n      dup6\n        /* \"#utility.yul\":2203:2225   */\n      add\n        /* \"#utility.yul\":2182:2235   */\n      tag_154\n      jump\t// in\n    tag_184:\n        /* \"#utility.yul\":2172:2235   */\n      swap2\n      pop\n        /* \"#utility.yul\":2128:2245   */\n      pop\n        /* \"#utility.yul\":1923:2252   */\n      swap3\n      swap2\n      pop\n      pop\n      jump\t// out\n        /* \"#utility.yul\":2258:2732   */\n    tag_20:\n        /* \"#utility.yul\":2326:2332   */\n      0x00\n        /* \"#utility.yul\":2334:2340   */\n      dup1\n        /* \"#utility.yul\":2383:2385   */\n      0x40\n        /* \"#utility.yul\":2371:2380   */\n      dup4\n        /* \"#utility.yul\":2362:2369   */\n      dup6\n        /* \"#utility.yul\":2358:2381   */\n      sub\n        /* \"#utility.yul\":2354:2386   */\n      slt\n        /* \"#utility.yul\":2351:2470   */\n      iszero\n      tag_186\n      jumpi\n        /* \"#utility.yul\":2389:2468   */\n      tag_187\n      tag_150\n      jump\t// in\n    tag_187:\n        /* \"#utility.yul\":2351:2470   */\n    tag_186:\n        /* \"#utility.yul\":2509:2510   */\n      0x00\n        /* \"#utility.yul\":2534:2587   */\n      tag_188\n        /* \"#utility.yul\":2579:2586   */\n      dup6\n        /* \"#utility.yul\":2570:2576   */\n      dup3\n        /* \"#utility.yul\":2559:2568   */\n      dup7\n        /* \"#utility.yul\":2555:2577   */\n      add\n        /* \"#utility.yul\":2534:2587   */\n      tag_154\n      jump\t// in\n    tag_188:\n        /* \"#utility.yul\":2524:2587   */\n      swap3\n      pop\n        /* \"#utility.yul\":2480:2597   */\n      pop\n        /* \"#utility.yul\":2636:2638   */\n      0x20\n        /* \"#utility.yul\":2662:2715   */\n      tag_189\n        /* \"#utility.yul\":2707:2714   */\n      dup6\n        /* \"#utility.yul\":2698:2704   */\n      dup3\n        /* \"#utility.yul\":2687:2696   */\n      dup7\n        /* \"#utility.yul\":2683:2705   */\n      add\n        /* \"#utility.yul\":2662:2715   */\n      tag_154\n      jump\t// in\n    tag_189:\n        /* \"#utility.yul\":2652:2715   */\n      swap2\n      pop\n        /* \"#utility.yul\":2607:2725   */\n      pop\n        /* \"#utility.yul\":2258:2732   */\n      swap3\n      pop\n      swap3\n      swap1\n      pop\n      jump\t// out\n        /* \"#utility.yul\":2738:3357   */\n    tag_25:\n        /* \"#utility.yul\":2815:2821   */\n      0x00\n        /* \"#utility.yul\":2823:2829   */\n      dup1\n        /* \"#utility.yul\":2831:2837   */\n      0x00\n        /* \"#utility.yul\":2880:2882   */\n      0x60\n        /* \"#utility.yul\":2868:2877   */\n      dup5\n        /* \"#utility.yul\":2859:2866   */\n      dup7\n        /* \"#utility.yul\":2855:2878   */\n      sub\n        /* \"#utility.yul\":2851:2883   */\n      slt\n        /* \"#utility.yul\":2848:2967   */\n      iszero\n      tag_191\n      jumpi\n        /* \"#utility.yul\":2886:2965   */\n      tag_192\n      tag_150\n      jump\t// in\n    tag_192:\n        /* \"#utility.yul\":2848:2967   */\n    tag_191:\n        /* \"#utility.yul\":3006:3007   */\n      0x00\n        /* \"#utility.yul\":3031:3084   */\n      tag_193\n        /* \"#utility.yul\":3076:3083   */\n      dup7\n        /* \"#utility.yul\":3067:3073   */\n      dup3\n        /* \"#utility.yul\":3056:3065   */\n      dup8\n        /* \"#utility.yul\":3052:3074   */\n      add\n        /* \"#utility.yul\":3031:3084   */\n      tag_154\n      jump\t// in\n    tag_193:\n        /* \"#utility.yul\":3021:3084   */\n      swap4\n      pop\n        /* \"#utility.yul\":2977:3094   */\n      pop\n        /* \"#utility.yul\":3133:3135   */\n      0x20\n        /* \"#utility.yul\":3159:3212   */\n      tag_194\n        /* \"#utility.yul\":3204:3211   */\n      dup7\n        /* \"#utility.yul\":3195:3201   */\n      dup3\n        /* \"#utility.yul\":3184:3193   */\n      dup8\n        /* \"#utility.yul\":3180:3202   */\n      add\n        /* \"#utility.yul\":3159:3212   */\n      tag_154\n      jump\t// in\n    tag_194:\n        /* \"#utility.yul\":3149:3212   */\n      swap3\n      pop\n        /* \"#utility.yul\":3104:3222   */\n      pop\n        /* \"#utility.yul\":3261:3263   */\n      0x40\n        /* \"#utility.yul\":3287:3340   */\n      tag_195\n        /* \"#utility.yul\":3332:3339   */\n      dup7\n        /* \"#utility.yul\":3323:3329   */\n      dup3\n        /* \"#utility.yul\":3312:3321   */\n      dup8\n        /* \"#utility.yul\":3308:3330   */\n      add\n        /* \"#utility.yul\":3287:3340   */\n      tag_154\n      jump\t// in\n    tag_195:\n        /* \"#utility.yul\":3277:3340   */\n      swap2\n      pop\n        /* \"#utility.yul\":3232:3350   */\n      pop\n        /* \"#utility.yul\":2738:3357   */\n      swap3\n      pop\n      swap3\n      pop\n      swap3\n      jump\t// out\n        /* \"#utility.yul\":3363:3543   */\n    tag_35:\n        /* \"#utility.yul\":3411:3488   */\n      0x4e487b7100000000000000000000000000000000000000000000000000000000\n        /* \"#utility.yul\":3408:3409   */\n      0x00\n        /* \"#utility.yul\":3401:3489   */\n      mstore\n        /* \"#utility.yul\":3508:3512   */\n      0x12\n        /* \"#utility.yul\":3505:3506   */\n      0x04\n        /* \"#utility.yul\":3498:3513   */\n      mstore\n        /* \"#utility.yul\":3532:3536   */\n      0x24\n        /* \"#utility.yul\":3529:3530   */\n      0x00\n        /* \"#utility.yul\":3522:3537   */\n      revert\n        /* \"#utility.yul\":3549:3628   */\n    tag_156:\n        /* \"#utility.yul\":3588:3595   */\n      0x00\n        /* \"#utility.yul\":3617:3622   */\n      dup2\n        /* \"#utility.yul\":3606:3622   */\n      swap1\n      pop\n        /* \"#utility.yul\":3549:3628   */\n      swap2\n      swap1\n      pop\n      jump\t// out\n        /* \"#utility.yul\":3634:3791   */\n    tag_157:\n        /* \"#utility.yul\":3739:3784   */\n      tag_199\n        /* \"#utility.yul\":3759:3783   */\n      tag_200\n        /* \"#utility.yul\":3777:3782   */\n      dup3\n        /* \"#utility.yul\":3759:3783   */\n      tag_152\n      jump\t// in\n    tag_200:\n        /* \"#utility.yul\":3739:3784   */\n      tag_156\n      jump\t// in\n    tag_199:\n        /* \"#utility.yul\":3734:3737   */\n      dup3\n        /* \"#utility.yul\":3727:3785   */\n      mstore\n        /* \"#utility.yul\":3634:3791   */\n      pop\n      pop\n      jump\t// out\n        /* \"#utility.yul\":3797:4194   */\n    tag_49:\n        /* \"#utility.yul\":3937:3940   */\n      0x00\n        /* \"#utility.yul\":3952:4027   */\n      tag_202\n        /* \"#utility.yul\":4023:4026   */\n      dup3\n        /* \"#utility.yul\":4014:4020   */\n      dup6\n        /* \"#utility.yul\":3952:4027   */\n      tag_157\n      jump\t// in\n    tag_202:\n        /* \"#utility.yul\":4052:4054   */\n      0x20\n        /* \"#utility.yul\":4047:4050   */\n      dup3\n        /* \"#utility.yul\":4043:4055   */\n      add\n        /* \"#utility.yul\":4036:4055   */\n      swap2\n      pop\n        /* \"#utility.yul\":4065:4140   */\n      tag_203\n        /* \"#utility.yul\":4136:4139   */\n      dup3\n        /* \"#utility.yul\":4127:4133   */\n      dup5\n        /* \"#utility.yul\":4065:4140   */\n      tag_157\n      jump\t// in\n    tag_203:\n        /* \"#utility.yul\":4165:4167   */\n      0x20\n        /* \"#utility.yul\":4160:4163   */\n      dup3\n        /* \"#utility.yul\":4156:4168   */\n      add\n        /* \"#utility.yul\":4149:4168   */\n      swap2\n      pop\n        /* \"#utility.yul\":4185:4188   */\n      dup2\n        /* \"#utility.yul\":4178:4188   */\n      swap1\n      pop\n        /* \"#utility.yul\":3797:4194   */\n      swap4\n      swap3\n      pop\n      pop\n      pop\n      jump\t// out\n        /* \"#utility.yul\":4200:4380   */\n    tag_158:\n        /* \"#utility.yul\":4248:4325   */\n      0x4e487b7100000000000000000000000000000000000000000000000000000000\n        /* \"#utility.yul\":4245:4246   */\n      0x00\n        /* \"#utility.yul\":4238:4326   */\n      mstore\n        /* \"#utility.yul\":4345:4349   */\n      0x11\n        /* \"#utility.yul\":4342:4343   */\n      0x04\n        /* \"#utility.yul\":4335:4350   */\n      mstore\n        /* \"#utility.yul\":4369:4373   */\n      0x24\n        /* \"#utility.yul\":4366:4367   */\n      0x00\n        /* \"#utility.yul\":4359:4374   */\n      revert\n        /* \"#utility.yul\":4386:4571   */\n    tag_99:\n        /* \"#utility.yul\":4426:4427   */\n      0x00\n        /* \"#utility.yul\":4443:4463   */\n      tag_206\n        /* \"#utility.yul\":4461:4462   */\n      dup3\n        /* \"#utility.yul\":4443:4463   */\n      tag_152\n      jump\t// in\n    tag_206:\n        /* \"#utility.yul\":4438:4463   */\n      swap2\n      pop\n        /* \"#utility.yul\":4477:4497   */\n      tag_207\n        /* \"#utility.yul\":4495:4496   */\n      dup4\n        /* \"#utility.yul\":4477:4497   */\n      tag_152\n      jump\t// in\n    tag_207:\n        /* \"#utility.yul\":4472:4497   */\n      swap3\n      pop\n        /* \"#utility.yul\":4516:4517   */\n      dup3\n        /* \"#utility.yul\":4506:4541   */\n      tag_208\n      jumpi\n        /* \"#utility.yul\":4521:4539   */\n      tag_209\n      tag_35\n      jump\t// in\n    tag_209:\n        /* \"#utility.yul\":4506:4541   */\n    tag_208:\n        /* \"#utility.yul\":4563:4564   */\n      dup3\n        /* \"#utility.yul\":4560:4561   */\n      dup3\n        /* \"#utility.yul\":4556:4565   */\n      div\n        /* \"#utility.yul\":4551:4565   */\n      swap1\n      pop\n        /* \"#utility.yul\":4386:4571   */\n      swap3\n      swap2\n      pop\n      pop\n      jump\t// out\n        /* \"#utility.yul\":4577:4771   */\n    tag_105:\n        /* \"#utility.yul\":4617:4621   */\n      0x00\n        /* \"#utility.yul\":4637:4657   */\n      tag_211\n        /* \"#utility.yul\":4655:4656   */\n      dup3\n        /* \"#utility.yul\":4637:4657   */\n      tag_152\n      jump\t// in\n    tag_211:\n        /* \"#utility.yul\":4632:4657   */\n      swap2\n      pop\n        /* \"#utility.yul\":4671:4691   */\n      tag_212\n        /* \"#utility.yul\":4689:4690   */\n      dup4\n        /* \"#utility.yul\":4671:4691   */\n      tag_152\n      jump\t// in\n    tag_212:\n        /* \"#utility.yul\":4666:4691   */\n      swap3\n      pop\n        /* \"#utility.yul\":4715:4716   */\n      dup3\n        /* \"#utility.yul\":4712:4713   */\n      dup3\n        /* \"#utility.yul\":4708:4717   */\n      sub\n        /* \"#utility.yul\":4700:4717   */\n      swap1\n      pop\n        /* \"#utility.yul\":4739:4740   */\n      dup2\n        /* \"#utility.yul\":4733:4737   */\n      dup2\n        /* \"#utility.yul\":4730:4741   */\n      gt\n        /* \"#utility.yul\":4727:4764   */\n      iszero\n      tag_213\n      jumpi\n        /* \"#utility.yul\":4744:4762   */\n      tag_214\n      tag_158\n      jump\t// in\n    tag_214:\n        /* \"#utility.yul\":4727:4764   */\n    tag_213:\n        /* \"#utility.yul\":4577:4771   */\n      swap3\n      swap2\n      pop\n      pop\n      jump\t// out\n        /* \"#utility.yul\":4777:5187   */\n    tag_107:\n        /* \"#utility.yul\":4817:4824   */\n      0x00\n        /* \"#utility.yul\":4840:4860   */\n      tag_216\n        /* \"#utility.yul\":4858:4859   */\n      dup3\n        /* \"#utility.yul\":4840:4860   */\n      tag_152\n      jump\t// in\n    tag_216:\n        /* \"#utility.yul\":4835:4860   */\n      swap2\n      pop\n        /* \"#utility.yul\":4874:4894   */\n      tag_217\n        /* \"#utility.yul\":4892:4893   */\n      dup4\n        /* \"#utility.yul\":4874:4894   */\n      tag_152\n      jump\t// in\n    tag_217:\n        /* \"#utility.yul\":4869:4894   */\n      swap3\n      pop\n        /* \"#utility.yul\":4929:4930   */\n      dup3\n        /* \"#utility.yul\":4926:4927   */\n      dup3\n        /* \"#utility.yul\":4922:4931   */\n      mul\n        /* \"#utility.yul\":4951:4981   */\n      tag_218\n        /* \"#utility.yul\":4969:4980   */\n      dup2\n        /* \"#utility.yul\":4951:4981   */\n      tag_152\n      jump\t// in\n    tag_218:\n        /* \"#utility.yul\":4940:4981   */\n      swap2\n      pop\n        /* \"#utility.yul\":5130:5131   */\n      dup3\n        /* \"#utility.yul\":5121:5128   */\n      dup3\n        /* \"#utility.yul\":5117:5132   */\n      div\n        /* \"#utility.yul\":5114:5115   */\n      dup5\n        /* \"#utility.yul\":5111:5133   */\n      eq\n        /* \"#utility.yul\":5091:5092   */\n      dup4\n        /* \"#utility.yul\":5084:5093   */\n      iszero\n        /* \"#utility.yul\":5064:5147   */\n      or\n        /* \"#utility.yul\":5041:5180   */\n      tag_219\n      jumpi\n        /* \"#utility.yul\":5160:5178   */\n      tag_220\n      tag_158\n      jump\t// in\n    tag_220:\n        /* \"#utility.yul\":5041:5180   */\n    tag_219:\n        /* \"#utility.yul\":4825:5187   */\n      pop\n        /* \"#utility.yul\":4777:5187   */\n      swap3\n      swap2\n      pop\n      pop\n      jump\t// out\n\n    auxdata: 0xa264697066735822122005a984e54e8e4d99f80616e7c3a6bf3e3dc452e87e2bc64b4c05d8a5a6b3d0cf64736f6c63430008160033\n}\n",
				"bytecode": {
					"linkReferences": {},
					"object": "608060405234801561000f575f80fd5b50610e188061001d5f395ff3fe608060405234801561000f575f80fd5b506004361061004a575f3560e01c806339cd1f401461004e578063464cb7491461007f5780637f77a40c146100b0578063fb88954d146100e1575b5f80fd5b61006860048036038101906100639190610b46565b610112565b604051610076929190610bb9565b60405180910390f35b61009960048036038101906100949190610be0565b6101b2565b6040516100a7929190610bb9565b60405180910390f35b6100ca60048036038101906100c59190610c0b565b61028b565b6040516100d8929190610bb9565b60405180910390f35b6100fb60048036038101906100f69190610c49565b610390565b604051610109929190610bb9565b60405180910390f35b5f805f805f610127898960018a8a600161042c565b80935081945082955050505061013c8161065c565b90507ffffffffffffffffffffffffffffffffffffffffffffffffffffffffefffffc2f8061016d5761016c610c99565b5b81840994507ffffffffffffffffffffffffffffffffffffffffffffffffffffffffefffffc2f806101a1576101a0610c99565b5b818309935050505094509492505050565b5f805f805f610204867f79be667ef9dcbbac55a06295ce870b07029bfcdb2dce28d959f2815b16f817987f483ada7726a3c4655da4fbfc0e1108a8fd17b448a68554199c47d08ffb10d4b8600161076e565b8093508194508295505050506102198161065c565b90507ffffffffffffffffffffffffffffffffffffffffffffffffffffffffefffffc2f8061024a57610249610c99565b5b81840994507ffffffffffffffffffffffffffffffffffffffffffffffffffffffffefffffc2f8061027e5761027d610c99565b5b8183099350505050915091565b5f805f805f61030787876040516020016102a6929190610ce6565b604051602081830303815290604052805190602001205f1c7f79be667ef9dcbbac55a06295ce870b07029bfcdb2dce28d959f2815b16f817987f483ada7726a3c4655da4fbfc0e1108a8fd17b448a68554199c47d08ffb10d4b8600161076e565b80935081945082955050505061031c8161065c565b90507ffffffffffffffffffffffffffffffffffffffffffffffffffffffffefffffc2f8061034d5761034c610c99565b5b81840994507ffffffffffffffffffffffffffffffffffffffffffffffffffffffffefffffc2f8061038157610380610c99565b5b81830993505050509250929050565b5f805f805f6103a2868989600161076e565b8093508194508295505050506103b78161065c565b90507ffffffffffffffffffffffffffffffffffffffffffffffffffffffffefffffc2f806103e8576103e7610c99565b5b81840994507ffffffffffffffffffffffffffffffffffffffffffffffffffffffffefffffc2f8061041c5761041b610c99565b5b8183099350505050935093915050565b5f805f805f805f808d14801561044157505f8c145b156104585789898996509650965050505050610650565b5f8a14801561046657505f89145b1561047d578c8c8c96509650965050505050610650565b898d14801561048b5750888c145b156104ea5761049c8d8c8f8e61081e565b80945081955050506104b284846003600161081e565b80945081955050506104c784845f6001610895565b80945081955050506104dd8c8c6002600161081e565b8092508193505050610513565b6104f689898e8e61096e565b809450819550505061050a8a898f8e61096e565b80925081935050505b61051f84848484610a72565b80945081955050506105338484868661081e565b809350819850505061054787838f8e61096e565b809350819850505061055b87838c8b61096e565b809350819850505061056f8d8c898561096e565b80925081975050506105838682868661081e565b809250819750505061059786828e8e61096e565b8092508197505050808214610647577ffffffffffffffffffffffffffffffffffffffffffffffffffffffffefffffc2f806105d5576105d4610c99565b5b81880996507ffffffffffffffffffffffffffffffffffffffffffffffffffffffffefffffc2f8061060957610608610c99565b5b82870995507ffffffffffffffffffffffffffffffffffffffffffffffffffffffffefffffc2f8061063d5761063c610c99565b5b818309945061064b565b8194505b505050505b96509650969350505050565b5f805f90505f600190505f7ffffffffffffffffffffffffffffffffffffffffffffffffffffffffefffffc2f90505f8590505f5b5f82146107615781836106a39190610d3e565b9050837ffffffffffffffffffffffffffffffffffffffffffffffffffffffffefffffc2f806106d5576106d4610c99565b5b7ffffffffffffffffffffffffffffffffffffffffffffffffffffffffefffffc2f8061070457610703610c99565b5b8684097ffffffffffffffffffffffffffffffffffffffffffffffffffffffffefffffc2f6107329190610d6e565b870880955081965050508182826107499190610da1565b846107549190610d6e565b8093508194505050610690565b8495505050505050919050565b5f805f808790505f8790505f8790505f8790505f805f600190505f8e036107a5575f80600199509950995050505050505050610814565b5b5f87146107fd575f60018816146107d2576107c583838389898961042c565b8093508194508295505050505b6002876107df9190610d3e565b96506107ec868686610ae9565b8096508197508298505050506107a6565b828282809a50819b50829c50505050505050505050505b9450945094915050565b5f807ffffffffffffffffffffffffffffffffffffffffffffffffffffffffefffffc2f8061084f5761084e610c99565b5b8487097ffffffffffffffffffffffffffffffffffffffffffffffffffffffffefffffc2f8061088157610880610c99565b5b848709809250819350505094509492505050565b5f807ffffffffffffffffffffffffffffffffffffffffffffffffffffffffefffffc2f806108c6576108c5610c99565b5b7ffffffffffffffffffffffffffffffffffffffffffffffffffffffffefffffc2f806108f5576108f4610c99565b5b8686097ffffffffffffffffffffffffffffffffffffffffffffffffffffffffefffffc2f8061092757610926610c99565b5b888609087ffffffffffffffffffffffffffffffffffffffffffffffffffffffffefffffc2f8061095a57610959610c99565b5b848709809250819350505094509492505050565b5f807ffffffffffffffffffffffffffffffffffffffffffffffffffffffffefffffc2f8061099f5761099e610c99565b5b7ffffffffffffffffffffffffffffffffffffffffffffffffffffffffefffffc2f806109ce576109cd610c99565b5b86867ffffffffffffffffffffffffffffffffffffffffffffffffffffffffefffffc2f6109fb9190610d6e565b097ffffffffffffffffffffffffffffffffffffffffffffffffffffffffefffffc2f80610a2b57610a2a610c99565b5b888609087ffffffffffffffffffffffffffffffffffffffffffffffffffffffffefffffc2f80610a5e57610a5d610c99565b5b848709809250819350505094509492505050565b5f807ffffffffffffffffffffffffffffffffffffffffffffffffffffffffefffffc2f80610aa357610aa2610c99565b5b8387097ffffffffffffffffffffffffffffffffffffffffffffffffffffffffefffffc2f80610ad557610ad4610c99565b5b858709809250819350505094509492505050565b5f805f610afa86868689898961042c565b80935081945082955050505093509350939050565b5f80fd5b5f819050919050565b610b2581610b13565b8114610b2f575f80fd5b50565b5f81359050610b4081610b1c565b92915050565b5f805f8060808587031215610b5e57610b5d610b0f565b5b5f610b6b87828801610b32565b9450506020610b7c87828801610b32565b9350506040610b8d87828801610b32565b9250506060610b9e87828801610b32565b91505092959194509250565b610bb381610b13565b82525050565b5f604082019050610bcc5f830185610baa565b610bd96020830184610baa565b9392505050565b5f60208284031215610bf557610bf4610b0f565b5b5f610c0284828501610b32565b91505092915050565b5f8060408385031215610c2157610c20610b0f565b5b5f610c2e85828601610b32565b9250506020610c3f85828601610b32565b9150509250929050565b5f805f60608486031215610c6057610c5f610b0f565b5b5f610c6d86828701610b32565b9350506020610c7e86828701610b32565b9250506040610c8f86828701610b32565b9150509250925092565b7f4e487b71000000000000000000000000000000000000000000000000000000005f52601260045260245ffd5b5f819050919050565b610ce0610cdb82610b13565b610cc6565b82525050565b5f610cf18285610ccf565b602082019150610d018284610ccf565b6020820191508190509392505050565b7f4e487b71000000000000000000000000000000000000000000000000000000005f52601160045260245ffd5b5f610d4882610b13565b9150610d5383610b13565b925082610d6357610d62610c99565b5b828204905092915050565b5f610d7882610b13565b9150610d8383610b13565b9250828203905081811115610d9b57610d9a610d11565b5b92915050565b5f610dab82610b13565b9150610db683610b13565b9250828202610dc481610b13565b91508282048414831517610ddb57610dda610d11565b5b509291505056fea264697066735822122005a984e54e8e4d99f80616e7c3a6bf3e3dc452e87e2bc64b4c05d8a5a6b3d0cf64736f6c63430008160033",
					"opcodes": "PUSH1 0x80 PUSH1 0x40 MSTORE CALLVALUE DUP1 ISZERO PUSH2 0xF JUMPI PUSH0 DUP1 REVERT JUMPDEST POP PUSH2 0xE18 DUP1 PUSH2 0x1D PUSH0 CODECOPY PUSH0 RETURN INVALID PUSH1 0x80 PUSH1 0x40 MSTORE CALLVALUE DUP1 ISZERO PUSH2 0xF JUMPI PUSH0 DUP1 REVERT JUMPDEST POP PUSH1 0x4 CALLDATASIZE LT PUSH2 0x4A JUMPI PUSH0 CALLDATALOAD PUSH1 0xE0 SHR DUP1 PUSH4 0x39CD1F40 EQ PUSH2 0x4E JUMPI DUP1 PUSH4 0x464CB749 EQ PUSH2 0x7F JUMPI DUP1 PUSH4 0x7F77A40C EQ PUSH2 0xB0 JUMPI DUP1 PUSH4 0xFB88954D EQ PUSH2 0xE1 JUMPI JUMPDEST PUSH0 DUP1 REVERT JUMPDEST PUSH2 0x68 PUSH1 0x4 DUP1 CALLDATASIZE SUB DUP2 ADD SWAP1 PUSH2 0x63 SWAP2 SWAP1 PUSH2 0xB46 JUMP JUMPDEST PUSH2 0x112 JUMP JUMPDEST PUSH1 0x40 MLOAD PUSH2 0x76 SWAP3 SWAP2 SWAP1 PUSH2 0xBB9 JUMP JUMPDEST PUSH1 0x40 MLOAD DUP1 SWAP2 SUB SWAP1 RETURN JUMPDEST PUSH2 0x99 PUSH1 0x4 DUP1 CALLDATASIZE SUB DUP2 ADD SWAP1 PUSH2 0x94 SWAP2 SWAP1 PUSH2 0xBE0 JUMP JUMPDEST PUSH2 0x1B2 JUMP JUMPDEST PUSH1 0x40 MLOAD PUSH2 0xA7 SWAP3 SWAP2 SWAP1 PUSH2 0xBB9 JUMP JUMPDEST PUSH1 0x40 MLOAD DUP1 SWAP2 SUB SWAP1 RETURN JUMPDEST PUSH2 0xCA PUSH1 0x4 DUP1 CALLDATASIZE SUB DUP2 ADD SWAP1 PUSH2 0xC5 SWAP2 SWAP1 PUSH2 0xC0B JUMP JUMPDEST PUSH2 0x28B JUMP JUMPDEST PUSH1 0x40 MLOAD PUSH2 0xD8 SWAP3 SWAP2 SWAP1 PUSH2 0xBB9 JUMP JUMPDEST PUSH1 0x40 MLOAD DUP1 SWAP2 SUB SWAP1 RETURN JUMPDEST PUSH2 0xFB PUSH1 0x4 DUP1 CALLDATASIZE SUB DUP2 ADD SWAP1 PUSH2 0xF6 SWAP2 SWAP1 PUSH2 0xC49 JUMP JUMPDEST PUSH2 0x390 JUMP JUMPDEST PUSH1 0x40 MLOAD PUSH2 0x109 SWAP3 SWAP2 SWAP1 PUSH2 0xBB9 JUMP JUMPDEST PUSH1 0x40 MLOAD DUP1 SWAP2 SUB SWAP1 RETURN JUMPDEST PUSH0 DUP1 PUSH0 DUP1 PUSH0 PUSH2 0x127 DUP10 DUP10 PUSH1 0x1 DUP11 DUP11 PUSH1 0x1 PUSH2 0x42C JUMP JUMPDEST DUP1 SWAP4 POP DUP2 SWAP5 POP DUP3 SWAP6 POP POP POP POP PUSH2 0x13C DUP2 PUSH2 0x65C JUMP JUMPDEST SWAP1 POP PUSH32 0xFFFFFFFFFFFFFFFFFFFFFFFFFFFFFFFFFFFFFFFFFFFFFFFFFFFFFFFEFFFFFC2F DUP1 PUSH2 0x16D JUMPI PUSH2 0x16C PUSH2 0xC99 JUMP JUMPDEST JUMPDEST DUP2 DUP5 MULMOD SWAP5 POP PUSH32 0xFFFFFFFFFFFFFFFFFFFFFFFFFFFFFFFFFFFFFFFFFFFFFFFFFFFFFFFEFFFFFC2F DUP1 PUSH2 0x1A1 JUMPI PUSH2 0x1A0 PUSH2 0xC99 JUMP JUMPDEST JUMPDEST DUP2 DUP4 MULMOD SWAP4 POP POP POP POP SWAP5 POP SWAP5 SWAP3 POP POP POP JUMP JUMPDEST PUSH0 DUP1 PUSH0 DUP1 PUSH0 PUSH2 0x204 DUP7 PUSH32 0x79BE667EF9DCBBAC55A06295CE870B07029BFCDB2DCE28D959F2815B16F81798 PUSH32 0x483ADA7726A3C4655DA4FBFC0E1108A8FD17B448A68554199C47D08FFB10D4B8 PUSH1 0x1 PUSH2 0x76E JUMP JUMPDEST DUP1 SWAP4 POP DUP2 SWAP5 POP DUP3 SWAP6 POP POP POP POP PUSH2 0x219 DUP2 PUSH2 0x65C JUMP JUMPDEST SWAP1 POP PUSH32 0xFFFFFFFFFFFFFFFFFFFFFFFFFFFFFFFFFFFFFFFFFFFFFFFFFFFFFFFEFFFFFC2F DUP1 PUSH2 0x24A JUMPI PUSH2 0x249 PUSH2 0xC99 JUMP JUMPDEST JUMPDEST DUP2 DUP5 MULMOD SWAP5 POP PUSH32 0xFFFFFFFFFFFFFFFFFFFFFFFFFFFFFFFFFFFFFFFFFFFFFFFFFFFFFFFEFFFFFC2F DUP1 PUSH2 0x27E JUMPI PUSH2 0x27D PUSH2 0xC99 JUMP JUMPDEST JUMPDEST DUP2 DUP4 MULMOD SWAP4 POP POP POP POP SWAP2 POP SWAP2 JUMP JUMPDEST PUSH0 DUP1 PUSH0 DUP1 PUSH0 PUSH2 0x307 DUP8 DUP8 PUSH1 0x40 MLOAD PUSH1 0x20 ADD PUSH2 0x2A6 SWAP3 SWAP2 SWAP1 PUSH2 0xCE6 JUMP JUMPDEST PUSH1 0x40 MLOAD PUSH1 0x20 DUP2 DUP4 SUB SUB DUP2 MSTORE SWAP1 PUSH1 0x40 MSTORE DUP1 MLOAD SWAP1 PUSH1 0x20 ADD KECCAK256 PUSH0 SHR PUSH32 0x79BE667EF9DCBBAC55A06295CE870B07029BFCDB2DCE28D959F2815B16F81798 PUSH32 0x483ADA7726A3C4655DA4FBFC0E1108A8FD17B448A68554199C47D08FFB10D4B8 PUSH1 0x1 PUSH2 0x76E JUMP JUMPDEST DUP1 SWAP4 POP DUP2 SWAP5 POP DUP3 SWAP6 POP POP POP POP PUSH2 0x31C DUP2 PUSH2 0x65C JUMP JUMPDEST SWAP1 POP PUSH32 0xFFFFFFFFFFFFFFFFFFFFFFFFFFFFFFFFFFFFFFFFFFFFFFFFFFFFFFFEFFFFFC2F DUP1 PUSH2 0x34D JUMPI PUSH2 0x34C PUSH2 0xC99 JUMP JUMPDEST JUMPDEST DUP2 DUP5 MULMOD SWAP5 POP PUSH32 0xFFFFFFFFFFFFFFFFFFFFFFFFFFFFFFFFFFFFFFFFFFFFFFFFFFFFFFFEFFFFFC2F DUP1 PUSH2 0x381 JUMPI PUSH2 0x380 PUSH2 0xC99 JUMP JUMPDEST JUMPDEST DUP2 DUP4 MULMOD SWAP4 POP POP POP POP SWAP3 POP SWAP3 SWAP1 POP JUMP JUMPDEST PUSH0 DUP1 PUSH0 DUP1 PUSH0 PUSH2 0x3A2 DUP7 DUP10 DUP10 PUSH1 0x1 PUSH2 0x76E JUMP JUMPDEST DUP1 SWAP4 POP DUP2 SWAP5 POP DUP3 SWAP6 POP POP POP POP PUSH2 0x3B7 DUP2 PUSH2 0x65C JUMP JUMPDEST SWAP1 POP PUSH32 0xFFFFFFFFFFFFFFFFFFFFFFFFFFFFFFFFFFFFFFFFFFFFFFFFFFFFFFFEFFFFFC2F DUP1 PUSH2 0x3E8 JUMPI PUSH2 0x3E7 PUSH2 0xC99 JUMP JUMPDEST JUMPDEST DUP2 DUP5 MULMOD SWAP5 POP PUSH32 0xFFFFFFFFFFFFFFFFFFFFFFFFFFFFFFFFFFFFFFFFFFFFFFFFFFFFFFFEFFFFFC2F DUP1 PUSH2 0x41C JUMPI PUSH2 0x41B PUSH2 0xC99 JUMP JUMPDEST JUMPDEST DUP2 DUP4 MULMOD SWAP4 POP POP POP POP SWAP4 POP SWAP4 SWAP2 POP POP JUMP JUMPDEST PUSH0 DUP1 PUSH0 DUP1 PUSH0 DUP1 PUSH0 DUP1 DUP14 EQ DUP1 ISZERO PUSH2 0x441 JUMPI POP PUSH0 DUP13 EQ JUMPDEST ISZERO PUSH2 0x458 JUMPI DUP10 DUP10 DUP10 SWAP7 POP SWAP7 POP SWAP7 POP POP POP POP POP PUSH2 0x650 JUMP JUMPDEST PUSH0 DUP11 EQ DUP1 ISZERO PUSH2 0x466 JUMPI POP PUSH0 DUP10 EQ JUMPDEST ISZERO PUSH2 0x47D JUMPI DUP13 DUP13 DUP13 SWAP7 POP SWAP7 POP SWAP7 POP POP POP POP POP PUSH2 0x650 JUMP JUMPDEST DUP10 DUP14 EQ DUP1 ISZERO PUSH2 0x48B JUMPI POP DUP9 DUP13 EQ JUMPDEST ISZERO PUSH2 0x4EA JUMPI PUSH2 0x49C DUP14 DUP13 DUP16 DUP15 PUSH2 0x81E JUMP JUMPDEST DUP1 SWAP5 POP DUP2 SWAP6 POP POP POP PUSH2 0x4B2 DUP5 DUP5 PUSH1 0x3 PUSH1 0x1 PUSH2 0x81E JUMP JUMPDEST DUP1 SWAP5 POP DUP2 SWAP6 POP POP POP PUSH2 0x4C7 DUP5 DUP5 PUSH0 PUSH1 0x1 PUSH2 0x895 JUMP JUMPDEST DUP1 SWAP5 POP DUP2 SWAP6 POP POP POP PUSH2 0x4DD DUP13 DUP13 PUSH1 0x2 PUSH1 0x1 PUSH2 0x81E JUMP JUMPDEST DUP1 SWAP3 POP DUP2 SWAP4 POP POP POP PUSH2 0x513 JUMP JUMPDEST PUSH2 0x4F6 DUP10 DUP10 DUP15 DUP15 PUSH2 0x96E JUMP JUMPDEST DUP1 SWAP5 POP DUP2 SWAP6 POP POP POP PUSH2 0x50A DUP11 DUP10 DUP16 DUP15 PUSH2 0x96E JUMP JUMPDEST DUP1 SWAP3 POP DUP2 SWAP4 POP POP POP JUMPDEST PUSH2 0x51F DUP5 DUP5 DUP5 DUP5 PUSH2 0xA72 JUMP JUMPDEST DUP1 SWAP5 POP DUP2 SWAP6 POP POP POP PUSH2 0x533 DUP5 DUP5 DUP7 DUP7 PUSH2 0x81E JUMP JUMPDEST DUP1 SWAP4 POP DUP2 SWAP9 POP POP POP PUSH2 0x547 DUP8 DUP4 DUP16 DUP15 PUSH2 0x96E JUMP JUMPDEST DUP1 SWAP4 POP DUP2 SWAP9 POP POP POP PUSH2 0x55B DUP8 DUP4 DUP13 DUP12 PUSH2 0x96E JUMP JUMPDEST DUP1 SWAP4 POP DUP2 SWAP9 POP POP POP PUSH2 0x56F DUP14 DUP13 DUP10 DUP6 PUSH2 0x96E JUMP JUMPDEST DUP1 SWAP3 POP DUP2 SWAP8 POP POP POP PUSH2 0x583 DUP7 DUP3 DUP7 DUP7 PUSH2 0x81E JUMP JUMPDEST DUP1 SWAP3 POP DUP2 SWAP8 POP POP POP PUSH2 0x597 DUP7 DUP3 DUP15 DUP15 PUSH2 0x96E JUMP JUMPDEST DUP1 SWAP3 POP DUP2 SWAP8 POP POP POP DUP1 DUP3 EQ PUSH2 0x647 JUMPI PUSH32 0xFFFFFFFFFFFFFFFFFFFFFFFFFFFFFFFFFFFFFFFFFFFFFFFFFFFFFFFEFFFFFC2F DUP1 PUSH2 0x5D5 JUMPI PUSH2 0x5D4 PUSH2 0xC99 JUMP JUMPDEST JUMPDEST DUP2 DUP9 MULMOD SWAP7 POP PUSH32 0xFFFFFFFFFFFFFFFFFFFFFFFFFFFFFFFFFFFFFFFFFFFFFFFFFFFFFFFEFFFFFC2F DUP1 PUSH2 0x609 JUMPI PUSH2 0x608 PUSH2 0xC99 JUMP JUMPDEST JUMPDEST DUP3 DUP8 MULMOD SWAP6 POP PUSH32 0xFFFFFFFFFFFFFFFFFFFFFFFFFFFFFFFFFFFFFFFFFFFFFFFFFFFFFFFEFFFFFC2F DUP1 PUSH2 0x63D JUMPI PUSH2 0x63C PUSH2 0xC99 JUMP JUMPDEST JUMPDEST DUP2 DUP4 MULMOD SWAP5 POP PUSH2 0x64B JUMP JUMPDEST DUP2 SWAP5 POP JUMPDEST POP POP POP POP JUMPDEST SWAP7 POP SWAP7 POP SWAP7 SWAP4 POP POP POP POP JUMP JUMPDEST PUSH0 DUP1 PUSH0 SWAP1 POP PUSH0 PUSH1 0x1 SWAP1 POP PUSH0 PUSH32 0xFFFFFFFFFFFFFFFFFFFFFFFFFFFFFFFFFFFFFFFFFFFFFFFFFFFFFFFEFFFFFC2F SWAP1 POP PUSH0 DUP6 SWAP1 POP PUSH0 JUMPDEST PUSH0 DUP3 EQ PUSH2 0x761 JUMPI DUP2 DUP4 PUSH2 0x6A3 SWAP2 SWAP1 PUSH2 0xD3E JUMP JUMPDEST SWAP1 POP DUP4 PUSH32 0xFFFFFFFFFFFFFFFFFFFFFFFFFFFFFFFFFFFFFFFFFFFFFFFFFFFFFFFEFFFFFC2F DUP1 PUSH2 0x6D5 JUMPI PUSH2 0x6D4 PUSH2 0xC99 JUMP JUMPDEST JUMPDEST PUSH32 0xFFFFFFFFFFFFFFFFFFFFFFFFFFFFFFFFFFFFFFFFFFFFFFFFFFFFFFFEFFFFFC2F DUP1 PUSH2 0x704 JUMPI PUSH2 0x703 PUSH2 0xC99 JUMP JUMPDEST JUMPDEST DUP7 DUP5 MULMOD PUSH32 0xFFFFFFFFFFFFFFFFFFFFFFFFFFFFFFFFFFFFFFFFFFFFFFFFFFFFFFFEFFFFFC2F PUSH2 0x732 SWAP2 SWAP1 PUSH2 0xD6E JUMP JUMPDEST DUP8 ADDMOD DUP1 SWAP6 POP DUP2 SWAP7 POP POP POP DUP2 DUP3 DUP3 PUSH2 0x749 SWAP2 SWAP1 PUSH2 0xDA1 JUMP JUMPDEST DUP5 PUSH2 0x754 SWAP2 SWAP1 PUSH2 0xD6E JUMP JUMPDEST DUP1 SWAP4 POP DUP2 SWAP5 POP POP POP PUSH2 0x690 JUMP JUMPDEST DUP5 SWAP6 POP POP POP POP POP POP SWAP2 SWAP1 POP JUMP JUMPDEST PUSH0 DUP1 PUSH0 DUP1 DUP8 SWAP1 POP PUSH0 DUP8 SWAP1 POP PUSH0 DUP8 SWAP1 POP PUSH0 DUP8 SWAP1 POP PUSH0 DUP1 PUSH0 PUSH1 0x1 SWAP1 POP PUSH0 DUP15 SUB PUSH2 0x7A5 JUMPI PUSH0 DUP1 PUSH1 0x1 SWAP10 POP SWAP10 POP SWAP10 POP POP POP POP POP POP POP POP PUSH2 0x814 JUMP JUMPDEST JUMPDEST PUSH0 DUP8 EQ PUSH2 0x7FD JUMPI PUSH0 PUSH1 0x1 DUP9 AND EQ PUSH2 0x7D2 JUMPI PUSH2 0x7C5 DUP4 DUP4 DUP4 DUP10 DUP10 DUP10 PUSH2 0x42C JUMP JUMPDEST DUP1 SWAP4 POP DUP2 SWAP5 POP DUP3 SWAP6 POP POP POP POP JUMPDEST PUSH1 0x2 DUP8 PUSH2 0x7DF SWAP2 SWAP1 PUSH2 0xD3E JUMP JUMPDEST SWAP7 POP PUSH2 0x7EC DUP7 DUP7 DUP7 PUSH2 0xAE9 JUMP JUMPDEST DUP1 SWAP7 POP DUP2 SWAP8 POP DUP3 SWAP9 POP POP POP POP PUSH2 0x7A6 JUMP JUMPDEST DUP3 DUP3 DUP3 DUP1 SWAP11 POP DUP2 SWAP12 POP DUP3 SWAP13 POP POP POP POP POP POP POP POP POP POP POP JUMPDEST SWAP5 POP SWAP5 POP SWAP5 SWAP2 POP POP JUMP JUMPDEST PUSH0 DUP1 PUSH32 0xFFFFFFFFFFFFFFFFFFFFFFFFFFFFFFFFFFFFFFFFFFFFFFFFFFFFFFFEFFFFFC2F DUP1 PUSH2 0x84F JUMPI PUSH2 0x84E PUSH2 0xC99 JUMP JUMPDEST JUMPDEST DUP5 DUP8 MULMOD PUSH32 0xFFFFFFFFFFFFFFFFFFFFFFFFFFFFFFFFFFFFFFFFFFFFFFFFFFFFFFFEFFFFFC2F DUP1 PUSH2 0x881 JUMPI PUSH2 0x880 PUSH2 0xC99 JUMP JUMPDEST JUMPDEST DUP5 DUP8 MULMOD DUP1 SWAP3 POP DUP2 SWAP4 POP POP POP SWAP5 POP SWAP5 SWAP3 POP POP POP JUMP JUMPDEST PUSH0 DUP1 PUSH32 0xFFFFFFFFFFFFFFFFFFFFFFFFFFFFFFFFFFFFFFFFFFFFFFFFFFFFFFFEFFFFFC2F DUP1 PUSH2 0x8C6 JUMPI PUSH2 0x8C5 PUSH2 0xC99 JUMP JUMPDEST JUMPDEST PUSH32 0xFFFFFFFFFFFFFFFFFFFFFFFFFFFFFFFFFFFFFFFFFFFFFFFFFFFFFFFEFFFFFC2F DUP1 PUSH2 0x8F5 JUMPI PUSH2 0x8F4 PUSH2 0xC99 JUMP JUMPDEST JUMPDEST DUP7 DUP7 MULMOD PUSH32 0xFFFFFFFFFFFFFFFFFFFFFFFFFFFFFFFFFFFFFFFFFFFFFFFFFFFFFFFEFFFFFC2F DUP1 PUSH2 0x927 JUMPI PUSH2 0x926 PUSH2 0xC99 JUMP JUMPDEST JUMPDEST DUP9 DUP7 MULMOD ADDMOD PUSH32 0xFFFFFFFFFFFFFFFFFFFFFFFFFFFFFFFFFFFFFFFFFFFFFFFFFFFFFFFEFFFFFC2F DUP1 PUSH2 0x95A JUMPI PUSH2 0x959 PUSH2 0xC99 JUMP JUMPDEST JUMPDEST DUP5 DUP8 MULMOD DUP1 SWAP3 POP DUP2 SWAP4 POP POP POP SWAP5 POP SWAP5 SWAP3 POP POP POP JUMP JUMPDEST PUSH0 DUP1 PUSH32 0xFFFFFFFFFFFFFFFFFFFFFFFFFFFFFFFFFFFFFFFFFFFFFFFFFFFFFFFEFFFFFC2F DUP1 PUSH2 0x99F JUMPI PUSH2 0x99E PUSH2 0xC99 JUMP JUMPDEST JUMPDEST PUSH32 0xFFFFFFFFFFFFFFFFFFFFFFFFFFFFFFFFFFFFFFFFFFFFFFFFFFFFFFFEFFFFFC2F DUP1 PUSH2 0x9CE JUMPI PUSH2 0x9CD PUSH2 0xC99 JUMP JUMPDEST JUMPDEST DUP7 DUP7 PUSH32 0xFFFFFFFFFFFFFFFFFFFFFFFFFFFFFFFFFFFFFFFFFFFFFFFFFFFFFFFEFFFFFC2F PUSH2 0x9FB SWAP2 SWAP1 PUSH2 0xD6E JUMP JUMPDEST MULMOD PUSH32 0xFFFFFFFFFFFFFFFFFFFFFFFFFFFFFFFFFFFFFFFFFFFFFFFFFFFFFFFEFFFFFC2F DUP1 PUSH2 0xA2B JUMPI PUSH2 0xA2A PUSH2 0xC99 JUMP JUMPDEST JUMPDEST DUP9 DUP7 MULMOD ADDMOD PUSH32 0xFFFFFFFFFFFFFFFFFFFFFFFFFFFFFFFFFFFFFFFFFFFFFFFFFFFFFFFEFFFFFC2F DUP1 PUSH2 0xA5E JUMPI PUSH2 0xA5D PUSH2 0xC99 JUMP JUMPDEST JUMPDEST DUP5 DUP8 MULMOD DUP1 SWAP3 POP DUP2 SWAP4 POP POP POP SWAP5 POP SWAP5 SWAP3 POP POP POP JUMP JUMPDEST PUSH0 DUP1 PUSH32 0xFFFFFFFFFFFFFFFFFFFFFFFFFFFFFFFFFFFFFFFFFFFFFFFFFFFFFFFEFFFFFC2F DUP1 PUSH2 0xAA3 JUMPI PUSH2 0xAA2 PUSH2 0xC99 JUMP JUMPDEST JUMPDEST DUP4 DUP8 MULMOD PUSH32 0xFFFFFFFFFFFFFFFFFFFFFFFFFFFFFFFFFFFFFFFFFFFFFFFFFFFFFFFEFFFFFC2F DUP1 PUSH2 0xAD5 JUMPI PUSH2 0xAD4 PUSH2 0xC99 JUMP JUMPDEST JUMPDEST DUP6 DUP8 MULMOD DUP1 SWAP3 POP DUP2 SWAP4 POP POP POP SWAP5 POP SWAP5 SWAP3 POP POP POP JUMP JUMPDEST PUSH0 DUP1 PUSH0 PUSH2 0xAFA DUP7 DUP7 DUP7 DUP10 DUP10 DUP10 PUSH2 0x42C JUMP JUMPDEST DUP1 SWAP4 POP DUP2 SWAP5 POP DUP3 SWAP6 POP POP POP POP SWAP4 POP SWAP4 POP SWAP4 SWAP1 POP JUMP JUMPDEST PUSH0 DUP1 REVERT JUMPDEST PUSH0 DUP2 SWAP1 POP SWAP2 SWAP1 POP JUMP JUMPDEST PUSH2 0xB25 DUP2 PUSH2 0xB13 JUMP JUMPDEST DUP2 EQ PUSH2 0xB2F JUMPI PUSH0 DUP1 REVERT JUMPDEST POP JUMP JUMPDEST PUSH0 DUP2 CALLDATALOAD SWAP1 POP PUSH2 0xB40 DUP2 PUSH2 0xB1C JUMP JUMPDEST SWAP3 SWAP2 POP POP JUMP JUMPDEST PUSH0 DUP1 PUSH0 DUP1 PUSH1 0x80 DUP6 DUP8 SUB SLT ISZERO PUSH2 0xB5E JUMPI PUSH2 0xB5D PUSH2 0xB0F JUMP JUMPDEST JUMPDEST PUSH0 PUSH2 0xB6B DUP8 DUP3 DUP9 ADD PUSH2 0xB32 JUMP JUMPDEST SWAP5 POP POP PUSH1 0x20 PUSH2 0xB7C DUP8 DUP3 DUP9 ADD PUSH2 0xB32 JUMP JUMPDEST SWAP4 POP POP PUSH1 0x40 PUSH2 0xB8D DUP8 DUP3 DUP9 ADD PUSH2 0xB32 JUMP JUMPDEST SWAP3 POP POP PUSH1 0x60 PUSH2 0xB9E DUP8 DUP3 DUP9 ADD PUSH2 0xB32 JUMP JUMPDEST SWAP2 POP POP SWAP3 SWAP6 SWAP2 SWAP5 POP SWAP3 POP JUMP JUMPDEST PUSH2 0xBB3 DUP2 PUSH2 0xB13 JUMP JUMPDEST DUP3 MSTORE POP POP JUMP JUMPDEST PUSH0 PUSH1 0x40 DUP3 ADD SWAP1 POP PUSH2 0xBCC PUSH0 DUP4 ADD DUP6 PUSH2 0xBAA JUMP JUMPDEST PUSH2 0xBD9 PUSH1 0x20 DUP4 ADD DUP5 PUSH2 0xBAA JUMP JUMPDEST SWAP4 SWAP3 POP POP POP JUMP JUMPDEST PUSH0 PUSH1 0x20 DUP3 DUP5 SUB SLT ISZERO PUSH2 0xBF5 JUMPI PUSH2 0xBF4 PUSH2 0xB0F JUMP JUMPDEST JUMPDEST PUSH0 PUSH2 0xC02 DUP5 DUP3 DUP6 ADD PUSH2 0xB32 JUMP JUMPDEST SWAP2 POP POP SWAP3 SWAP2 POP POP JUMP JUMPDEST PUSH0 DUP1 PUSH1 0x40 DUP4 DUP6 SUB SLT ISZERO PUSH2 0xC21 JUMPI PUSH2 0xC20 PUSH2 0xB0F JUMP JUMPDEST JUMPDEST PUSH0 PUSH2 0xC2E DUP6 DUP3 DUP7 ADD PUSH2 0xB32 JUMP JUMPDEST SWAP3 POP POP PUSH1 0x20 PUSH2 0xC3F DUP6 DUP3 DUP7 ADD PUSH2 0xB32 JUMP JUMPDEST SWAP2 POP POP SWAP3 POP SWAP3 SWAP1 POP JUMP JUMPDEST PUSH0 DUP1 PUSH0 PUSH1 0x60 DUP5 DUP7 SUB SLT ISZERO PUSH2 0xC60 JUMPI PUSH2 0xC5F PUSH2 0xB0F JUMP JUMPDEST JUMPDEST PUSH0 PUSH2 0xC6D DUP7 DUP3 DUP8 ADD PUSH2 0xB32 JUMP JUMPDEST SWAP4 POP POP PUSH1 0x20 PUSH2 0xC7E DUP7 DUP3 DUP8 ADD PUSH2 0xB32 JUMP JUMPDEST SWAP3 POP POP PUSH1 0x40 PUSH2 0xC8F DUP7 DUP3 DUP8 ADD PUSH2 0xB32 JUMP JUMPDEST SWAP2 POP POP SWAP3 POP SWAP3 POP SWAP3 JUMP JUMPDEST PUSH32 0x4E487B7100000000000000000000000000000000000000000000000000000000 PUSH0 MSTORE PUSH1 0x12 PUSH1 0x4 MSTORE PUSH1 0x24 PUSH0 REVERT JUMPDEST PUSH0 DUP2 SWAP1 POP SWAP2 SWAP1 POP JUMP JUMPDEST PUSH2 0xCE0 PUSH2 0xCDB DUP3 PUSH2 0xB13 JUMP JUMPDEST PUSH2 0xCC6 JUMP JUMPDEST DUP3 MSTORE POP POP JUMP JUMPDEST PUSH0 PUSH2 0xCF1 DUP3 DUP6 PUSH2 0xCCF JUMP JUMPDEST PUSH1 0x20 DUP3 ADD SWAP2 POP PUSH2 0xD01 DUP3 DUP5 PUSH2 0xCCF JUMP JUMPDEST PUSH1 0x20 DUP3 ADD SWAP2 POP DUP2 SWAP1 POP SWAP4 SWAP3 POP POP POP JUMP JUMPDEST PUSH32 0x4E487B7100000000000000000000000000000000000000000000000000000000 PUSH0 MSTORE PUSH1 0x11 PUSH1 0x4 MSTORE PUSH1 0x24 PUSH0 REVERT JUMPDEST PUSH0 PUSH2 0xD48 DUP3 PUSH2 0xB13 JUMP JUMPDEST SWAP2 POP PUSH2 0xD53 DUP4 PUSH2 0xB13 JUMP JUMPDEST SWAP3 POP DUP3 PUSH2 0xD63 JUMPI PUSH2 0xD62 PUSH2 0xC99 JUMP JUMPDEST JUMPDEST DUP3 DUP3 DIV SWAP1 POP SWAP3 SWAP2 POP POP JUMP JUMPDEST PUSH0 PUSH2 0xD78 DUP3 PUSH2 0xB13 JUMP JUMPDEST SWAP2 POP PUSH2 0xD83 DUP4 PUSH2 0xB13 JUMP JUMPDEST SWAP3 POP DUP3 DUP3 SUB SWAP1 POP DUP2 DUP2 GT ISZERO PUSH2 0xD9B JUMPI PUSH2 0xD9A PUSH2 0xD11 JUMP JUMPDEST JUMPDEST SWAP3 SWAP2 POP POP JUMP JUMPDEST PUSH0 PUSH2 0xDAB DUP3 PUSH2 0xB13 JUMP JUMPDEST SWAP2 POP PUSH2 0xDB6 DUP4 PUSH2 0xB13 JUMP JUMPDEST SWAP3 POP DUP3 DUP3 MUL PUSH2 0xDC4 DUP2 PUSH2 0xB13 JUMP JUMPDEST SWAP2 POP DUP3 DUP3 DIV DUP5 EQ DUP4 ISZERO OR PUSH2 0xDDB JUMPI PUSH2 0xDDA PUSH2 0xD11 JUMP JUMPDEST JUMPDEST POP SWAP3 SWAP2 POP POP JUMP INVALID LOG2 PUSH5 0x6970667358 0x22 SLT KECCAK256 SDIV 0xA9 DUP5 0xE5 0x4E DUP15 0x4D SWAP10 0xF8 MOD AND 0xE7 0xC3 0xA6 0xBF RETURNDATACOPY RETURNDATASIZE 0xC4 MSTORE 0xE8 PUSH31 0x2BC64B4C05D8A5A6B3D0CF64736F6C63430008160033000000000000000000 "
				},
				"gasEstimates": {
					"creation": {
						"codeDepositCost": "721600",
						"executionCost": "751",
						"totalCost": "722351"
					},
					"external": {
						"Add(uint256,uint256,uint256,uint256)": "infinite",
						"HashToEcc(uint256,uint256)": "infinite",
						"ScalarBaseMult(uint256)": "infinite",
						"ScalarMult(uint256,uint256,uint256)": "infinite"
					},
					"internal": {
						"_ecAdd(uint256,uint256,uint256,uint256,uint256,uint256)": "infinite",
						"_ecDouble(uint256,uint256,uint256)": "infinite",
						"_ecMul(uint256,uint256,uint256,uint256)": "infinite",
						"_inverse(uint256)": "infinite",
						"_jAdd(uint256,uint256,uint256,uint256)": "181",
						"_jDiv(uint256,uint256,uint256,uint256)": "119",
						"_jMul(uint256,uint256,uint256,uint256)": "119",
						"_jSub(uint256,uint256,uint256,uint256)": "infinite"
					}
				},
				"methodIdentifiers": {
					"Add(uint256,uint256,uint256,uint256)": "39cd1f40",
					"HashToEcc(uint256,uint256)": "7f77a40c",
					"ScalarBaseMult(uint256)": "464cb749",
					"ScalarMult(uint256,uint256,uint256)": "fb88954d"
				}
			},
			"storageLayout": {
				"storage": [],
				"types": null
			},
			"userdoc": {
				"kind": "user",
				"methods": {},
				"version": 1
			}
		}
	}
}