{
	"data": {
		"bytecode": {
			"linkReferences": {},
			"object": "608060405234801561000f575f80fd5b506115468061001d5f395ff3fe608060405234801561000f575f80fd5b5060043610610086575f3560e01c8063abb2347711610059578063abb2347714610126578063d05f7ca014610156578063e0b74c2a14610174578063f472a58a146101a457610086565b80630df0ff901461008a5780631aa2829a146100ba578063251c9422146100d85780635a4c633b146100f6575b5f80fd5b6100a4600480360381019061009f9190610a8e565b6101d4565b6040516100b19190610ad1565b60405180910390f35b6100c26101f3565b6040516100cf9190610ba1565b60405180910390f35b6100e06102d8565b6040516100ed9190610ad1565b60405180910390f35b610110600480360381019061010b9190610d27565b6102de565b60405161011d9190610d9b565b60405180910390f35b610140600480360381019061013b9190610e96565b610329565b60405161014d9190610ad1565b60405180910390f35b61015e61045a565b60405161016b9190610ba1565b60405180910390f35b61018e60048036038101906101899190610e96565b6104af565b60405161019b9190610d9b565b60405180910390f35b6101be60048036038101906101b99190610a8e565b6104ce565b6040516101cb9190610f57565b60405180910390f35b5f81815481106101e2575f80fd5b905f5260205f20015f915090505481565b60605f7f5b35d3eb51100a148052e2929effe2fe4eb9ad9347888482b2899ac3d1763cbf5f1b90505f7f01c5774fe2597b80b5949d2145d7f444fa5dbdd19a8ab5c72c037c82b2a7fd055f1b90505f600267ffffffffffffffff81111561025d5761025c610c03565b5b60405190808252806020026020018201604052801561028b5781602001602082028036833780820191505090505b50905082815f815181106102a2576102a1610f77565b5b60200260200101818152505081816001815181106102c3576102c2610f77565b5b60200260200101818152505080935050505090565b60015481565b5f806102e86101f3565b90505f836040516020016102fc9190610fde565b60405160208183030381529060405280519060200120905061031f828683610574565b9250505092915050565b5f6103338261058a565b5f6002805490501161037a576040517f08c379a00000000000000000000000000000000000000000000000000000000081526004016103719061103e565b60405180910390fd5b5f60028054905067ffffffffffffffff81111561039a57610399610c03565b5b6040519080825280602002602001820160405280156103c85781602001602082028036833780820191505090505b5090505f5b60028054905081101561044857600281815481106103ee576103ed610f77565b5b905f5260205f2001604051602001610406919061114b565b6040516020818303038152906040528051906020012082828151811061042f5761042e610f77565b5b60200260200101818152505080806001019150506103cd565b50610452816105ff565b915050919050565b60605f8054806020026020016040519081016040528092919081815260200182805480156104a557602002820191905f5260205f20905b815481526020019060010190808311610491575b5050505050905090565b5f8060015490505f6104c084610329565b905081811492505050919050565b600281815481106104dd575f80fd5b905f5260205f20015f9150905080546104f590611089565b80601f016020809104026020016040519081016040528092919081815260200182805461052190611089565b801561056c5780601f106105435761010080835404028352916020019161056c565b820191905f5260205f20905b81548152906001019060200180831161054f57829003601f168201915b505050505081565b5f8261058085846108bf565b1490509392505050565b60025f610597919061094b565b5f5b81518110156105fb5760028282815181106105b7576105b6610f77565b5b6020026020010151908060018154018082558091505060019003905f5260205f20015f9091909190915090816105ed91906112ec565b508080600101915050610599565b5050565b5f80825190505f8190505b600181111561065957600260018261062291906113e8565b61062c9190611448565b8261063791906113e8565b9150600260018261064891906113e8565b6106529190611448565b905061060a565b5f8267ffffffffffffffff81111561067457610673610c03565b5b6040519080825280602002602001820160405280156106a25781602001602082028036833780820191505090505b5090505f805b8651811015610729578681815181106106c4576106c3610f77565b5b60200260200101516040516020016106dc9190611498565b604051602081830303815290604052805190602001208382846106ff91906113e8565b815181106107105761070f610f77565b5b60200260200101818152505080806001019150506106a8565b505f865190505b600181111561086c575f5b8181101561083d575f84828561075191906113e8565b8151811061076257610761610f77565b5b602002602001015190505f8360018461077b91906113e8565b10610788575f801b6107bb565b856001848761079791906113e8565b6107a191906113e8565b815181106107b2576107b1610f77565b5b60200260200101515b905081816040516020016107d09291906114b2565b60405160208183030381529060405280519060200120866002856107f49190611448565b868861080091906113e8565b61080a91906113e8565b8151811061081b5761081a610f77565b5b602002602001018181525050505060028161083691906113e8565b905061073b565b50808261084a91906113e8565b9150600260018261085b91906113e8565b6108659190611448565b9050610730565b825f9080519060200190610881929190610969565b50826001845161089191906114dd565b815181106108a2576108a1610f77565b5b602002602001015160018190555060015495505050505050919050565b5f808290505f5b8451811015610902576108f3828683815181106108e6576108e5610f77565b5b602002602001015161090d565b915080806001019150506108c6565b508091505092915050565b5f8183106109245761091f8284610937565b61092f565b61092e8383610937565b5b905092915050565b5f825f528160205260405f20905092915050565b5080545f8255905f5260205f209081019061096691906109b4565b50565b828054828255905f5260205f209081019282156109a3579160200282015b828111156109a2578251825591602001919060010190610987565b5b5090506109b091906109d7565b5090565b5b808211156109d3575f81816109ca91906109f2565b506001016109b5565b5090565b5b808211156109ee575f815f9055506001016109d8565b5090565b5080546109fe90611089565b5f825580601f10610a0f5750610a2c565b601f0160209004905f5260205f2090810190610a2b9190610a2f565b5b50565b5b80821115610a46575f815f905550600101610a30565b5090565b5f604051905090565b5f80fd5b5f80fd5b5f819050919050565b610a6d81610a5b565b8114610a77575f80fd5b50565b5f81359050610a8881610a64565b92915050565b5f60208284031215610aa357610aa2610a53565b5b5f610ab084828501610a7a565b91505092915050565b5f819050919050565b610acb81610ab9565b82525050565b5f602082019050610ae45f830184610ac2565b92915050565b5f81519050919050565b5f82825260208201905092915050565b5f819050602082019050919050565b610b1c81610ab9565b82525050565b5f610b2d8383610b13565b60208301905092915050565b5f602082019050919050565b5f610b4f82610aea565b610b598185610af4565b9350610b6483610b04565b805f5b83811015610b94578151610b7b8882610b22565b9750610b8683610b39565b925050600181019050610b67565b5085935050505092915050565b5f6020820190508181035f830152610bb98184610b45565b905092915050565b610bca81610ab9565b8114610bd4575f80fd5b50565b5f81359050610be581610bc1565b92915050565b5f80fd5b5f80fd5b5f601f19601f8301169050919050565b7f4e487b71000000000000000000000000000000000000000000000000000000005f52604160045260245ffd5b610c3982610bf3565b810181811067ffffffffffffffff82111715610c5857610c57610c03565b5b80604052505050565b5f610c6a610a4a565b9050610c768282610c30565b919050565b5f67ffffffffffffffff821115610c9557610c94610c03565b5b610c9e82610bf3565b9050602081019050919050565b828183375f83830152505050565b5f610ccb610cc684610c7b565b610c61565b905082815260208101848484011115610ce757610ce6610bef565b5b610cf2848285610cab565b509392505050565b5f82601f830112610d0e57610d0d610beb565b5b8135610d1e848260208601610cb9565b91505092915050565b5f8060408385031215610d3d57610d3c610a53565b5b5f610d4a85828601610bd7565b925050602083013567ffffffffffffffff811115610d6b57610d6a610a57565b5b610d7785828601610cfa565b9150509250929050565b5f8115159050919050565b610d9581610d81565b82525050565b5f602082019050610dae5f830184610d8c565b92915050565b5f67ffffffffffffffff821115610dce57610dcd610c03565b5b602082029050602081019050919050565b5f80fd5b5f610df5610df084610db4565b610c61565b90508083825260208201905060208402830185811115610e1857610e17610ddf565b5b835b81811015610e5f57803567ffffffffffffffff811115610e3d57610e3c610beb565b5b808601610e4a8982610cfa565b85526020850194505050602081019050610e1a565b5050509392505050565b5f82601f830112610e7d57610e7c610beb565b5b8135610e8d848260208601610de3565b91505092915050565b5f60208284031215610eab57610eaa610a53565b5b5f82013567ffffffffffffffff811115610ec857610ec7610a57565b5b610ed484828501610e69565b91505092915050565b5f81519050919050565b5f82825260208201905092915050565b5f5b83811015610f14578082015181840152602081019050610ef9565b5f8484015250505050565b5f610f2982610edd565b610f338185610ee7565b9350610f43818560208601610ef7565b610f4c81610bf3565b840191505092915050565b5f6020820190508181035f830152610f6f8184610f1f565b905092915050565b7f4e487b71000000000000000000000000000000000000000000000000000000005f52603260045260245ffd5b5f81905092915050565b5f610fb882610edd565b610fc28185610fa4565b9350610fd2818560208601610ef7565b80840191505092915050565b5f610fe98284610fae565b915081905092915050565b7f446174612073686f756c64206e6f7420626520656d70747900000000000000005f82015250565b5f611028601883610ee7565b915061103382610ff4565b602082019050919050565b5f6020820190508181035f8301526110558161101c565b9050919050565b7f4e487b71000000000000000000000000000000000000000000000000000000005f52602260045260245ffd5b5f60028204905060018216806110a057607f821691505b6020821081036110b3576110b261105c565b5b50919050565b5f819050815f5260205f209050919050565b5f81546110d781611089565b6110e18186610fa4565b9450600182165f81146110fb576001811461111057611142565b60ff1983168652811515820286019350611142565b611119856110b9565b5f5b8381101561113a5781548189015260018201915060208101905061111b565b838801955050505b50505092915050565b5f61115682846110cb565b915081905092915050565b5f6020601f8301049050919050565b5f82821b905092915050565b5f600883026111ab7fffffffffffffffffffffffffffffffffffffffffffffffffffffffffffffffff82611170565b6111b58683611170565b95508019841693508086168417925050509392505050565b5f819050919050565b5f6111f06111eb6111e684610a5b565b6111cd565b610a5b565b9050919050565b5f819050919050565b611209836111d6565b61121d611215826111f7565b84845461117c565b825550505050565b5f90565b611231611225565b61123c818484611200565b505050565b5b8181101561125f576112545f82611229565b600181019050611242565b5050565b601f8211156112a457611275816110b9565b61127e84611161565b8101602085101561128d578190505b6112a161129985611161565b830182611241565b50505b505050565b5f82821c905092915050565b5f6112c45f19846008026112a9565b1980831691505092915050565b5f6112dc83836112b5565b9150826002028217905092915050565b6112f582610edd565b67ffffffffffffffff81111561130e5761130d610c03565b5b6113188254611089565b611323828285611263565b5f60209050601f831160018114611354575f8415611342578287015190505b61134c85826112d1565b8655506113b3565b601f198416611362866110b9565b5f5b8281101561138957848901518255600182019150602085019450602081019050611364565b868310156113a657848901516113a2601f8916826112b5565b8355505b6001600288020188555050505b505050505050565b7f4e487b71000000000000000000000000000000000000000000000000000000005f52601160045260245ffd5b5f6113f282610a5b565b91506113fd83610a5b565b9250828201905080821115611415576114146113bb565b5b92915050565b7f4e487b71000000000000000000000000000000000000000000000000000000005f52601260045260245ffd5b5f61145282610a5b565b915061145d83610a5b565b92508261146d5761146c61141b565b5b828204905092915050565b5f819050919050565b61149261148d82610ab9565b611478565b82525050565b5f6114a38284611481565b60208201915081905092915050565b5f6114bd8285611481565b6020820191506114cd8284611481565b6020820191508190509392505050565b5f6114e782610a5b565b91506114f283610a5b565b925082820390508181111561150a576115096113bb565b5b9291505056fea264697066735822122067e4fffa17b359ed139229fe90f27738867ebc64c958eb933440d4248af98d4c64736f6c63430008160033",
			"opcodes": "PUSH1 0x80 PUSH1 0x40 MSTORE CALLVALUE DUP1 ISZERO PUSH2 0xF JUMPI PUSH0 DUP1 REVERT JUMPDEST POP PUSH2 0x1546 DUP1 PUSH2 0x1D PUSH0 CODECOPY PUSH0 RETURN INVALID PUSH1 0x80 PUSH1 0x40 MSTORE CALLVALUE DUP1 ISZERO PUSH2 0xF JUMPI PUSH0 DUP1 REVERT JUMPDEST POP PUSH1 0x4 CALLDATASIZE LT PUSH2 0x86 JUMPI PUSH0 CALLDATALOAD PUSH1 0xE0 SHR DUP1 PUSH4 0xABB23477 GT PUSH2 0x59 JUMPI DUP1 PUSH4 0xABB23477 EQ PUSH2 0x126 JUMPI DUP1 PUSH4 0xD05F7CA0 EQ PUSH2 0x156 JUMPI DUP1 PUSH4 0xE0B74C2A EQ PUSH2 0x174 JUMPI DUP1 PUSH4 0xF472A58A EQ PUSH2 0x1A4 JUMPI PUSH2 0x86 JUMP JUMPDEST DUP1 PUSH4 0xDF0FF90 EQ PUSH2 0x8A JUMPI DUP1 PUSH4 0x1AA2829A EQ PUSH2 0xBA JUMPI DUP1 PUSH4 0x251C9422 EQ PUSH2 0xD8 JUMPI DUP1 PUSH4 0x5A4C633B EQ PUSH2 0xF6 JUMPI JUMPDEST PUSH0 DUP1 REVERT JUMPDEST PUSH2 0xA4 PUSH1 0x4 DUP1 CALLDATASIZE SUB DUP2 ADD SWAP1 PUSH2 0x9F SWAP2 SWAP1 PUSH2 0xA8E JUMP JUMPDEST PUSH2 0x1D4 JUMP JUMPDEST PUSH1 0x40 MLOAD PUSH2 0xB1 SWAP2 SWAP1 PUSH2 0xAD1 JUMP JUMPDEST PUSH1 0x40 MLOAD DUP1 SWAP2 SUB SWAP1 RETURN JUMPDEST PUSH2 0xC2 PUSH2 0x1F3 JUMP JUMPDEST PUSH1 0x40 MLOAD PUSH2 0xCF SWAP2 SWAP1 PUSH2 0xBA1 JUMP JUMPDEST PUSH1 0x40 MLOAD DUP1 SWAP2 SUB SWAP1 RETURN JUMPDEST PUSH2 0xE0 PUSH2 0x2D8 JUMP JUMPDEST PUSH1 0x40 MLOAD PUSH2 0xED SWAP2 SWAP1 PUSH2 0xAD1 JUMP JUMPDEST PUSH1 0x40 MLOAD DUP1 SWAP2 SUB SWAP1 RETURN JUMPDEST PUSH2 0x110 PUSH1 0x4 DUP1 CALLDATASIZE SUB DUP2 ADD SWAP1 PUSH2 0x10B SWAP2 SWAP1 PUSH2 0xD27 JUMP JUMPDEST PUSH2 0x2DE JUMP JUMPDEST PUSH1 0x40 MLOAD PUSH2 0x11D SWAP2 SWAP1 PUSH2 0xD9B JUMP JUMPDEST PUSH1 0x40 MLOAD DUP1 SWAP2 SUB SWAP1 RETURN JUMPDEST PUSH2 0x140 PUSH1 0x4 DUP1 CALLDATASIZE SUB DUP2 ADD SWAP1 PUSH2 0x13B SWAP2 SWAP1 PUSH2 0xE96 JUMP JUMPDEST PUSH2 0x329 JUMP JUMPDEST PUSH1 0x40 MLOAD PUSH2 0x14D SWAP2 SWAP1 PUSH2 0xAD1 JUMP JUMPDEST PUSH1 0x40 MLOAD DUP1 SWAP2 SUB SWAP1 RETURN JUMPDEST PUSH2 0x15E PUSH2 0x45A JUMP JUMPDEST PUSH1 0x40 MLOAD PUSH2 0x16B SWAP2 SWAP1 PUSH2 0xBA1 JUMP JUMPDEST PUSH1 0x40 MLOAD DUP1 SWAP2 SUB SWAP1 RETURN JUMPDEST PUSH2 0x18E PUSH1 0x4 DUP1 CALLDATASIZE SUB DUP2 ADD SWAP1 PUSH2 0x189 SWAP2 SWAP1 PUSH2 0xE96 JUMP JUMPDEST PUSH2 0x4AF JUMP JUMPDEST PUSH1 0x40 MLOAD PUSH2 0x19B SWAP2 SWAP1 PUSH2 0xD9B JUMP JUMPDEST PUSH1 0x40 MLOAD DUP1 SWAP2 SUB SWAP1 RETURN JUMPDEST PUSH2 0x1BE PUSH1 0x4 DUP1 CALLDATASIZE SUB DUP2 ADD SWAP1 PUSH2 0x1B9 SWAP2 SWAP1 PUSH2 0xA8E JUMP JUMPDEST PUSH2 0x4CE JUMP JUMPDEST PUSH1 0x40 MLOAD PUSH2 0x1CB SWAP2 SWAP1 PUSH2 0xF57 JUMP JUMPDEST PUSH1 0x40 MLOAD DUP1 SWAP2 SUB SWAP1 RETURN JUMPDEST PUSH0 DUP2 DUP2 SLOAD DUP2 LT PUSH2 0x1E2 JUMPI PUSH0 DUP1 REVERT JUMPDEST SWAP1 PUSH0 MSTORE PUSH1 0x20 PUSH0 KECCAK256 ADD PUSH0 SWAP2 POP SWAP1 POP SLOAD DUP2 JUMP JUMPDEST PUSH1 0x60 PUSH0 PUSH32 0x5B35D3EB51100A148052E2929EFFE2FE4EB9AD9347888482B2899AC3D1763CBF PUSH0 SHL SWAP1 POP PUSH0 PUSH32 0x1C5774FE2597B80B5949D2145D7F444FA5DBDD19A8AB5C72C037C82B2A7FD05 PUSH0 SHL SWAP1 POP PUSH0 PUSH1 0x2 PUSH8 0xFFFFFFFFFFFFFFFF DUP2 GT ISZERO PUSH2 0x25D JUMPI PUSH2 0x25C PUSH2 0xC03 JUMP JUMPDEST JUMPDEST PUSH1 0x40 MLOAD SWAP1 DUP1 DUP3 MSTORE DUP1 PUSH1 0x20 MUL PUSH1 0x20 ADD DUP3 ADD PUSH1 0x40 MSTORE DUP1 ISZERO PUSH2 0x28B JUMPI DUP2 PUSH1 0x20 ADD PUSH1 0x20 DUP3 MUL DUP1 CALLDATASIZE DUP4 CALLDATACOPY DUP1 DUP3 ADD SWAP2 POP POP SWAP1 POP JUMPDEST POP SWAP1 POP DUP3 DUP2 PUSH0 DUP2 MLOAD DUP2 LT PUSH2 0x2A2 JUMPI PUSH2 0x2A1 PUSH2 0xF77 JUMP JUMPDEST JUMPDEST PUSH1 0x20 MUL PUSH1 0x20 ADD ADD DUP2 DUP2 MSTORE POP POP DUP2 DUP2 PUSH1 0x1 DUP2 MLOAD DUP2 LT PUSH2 0x2C3 JUMPI PUSH2 0x2C2 PUSH2 0xF77 JUMP JUMPDEST JUMPDEST PUSH1 0x20 MUL PUSH1 0x20 ADD ADD DUP2 DUP2 MSTORE POP POP DUP1 SWAP4 POP POP POP POP SWAP1 JUMP JUMPDEST PUSH1 0x1 SLOAD DUP2 JUMP JUMPDEST PUSH0 DUP1 PUSH2 0x2E8 PUSH2 0x1F3 JUMP JUMPDEST SWAP1 POP PUSH0 DUP4 PUSH1 0x40 MLOAD PUSH1 0x20 ADD PUSH2 0x2FC SWAP2 SWAP1 PUSH2 0xFDE JUMP JUMPDEST PUSH1 0x40 MLOAD PUSH1 0x20 DUP2 DUP4 SUB SUB DUP2 MSTORE SWAP1 PUSH1 0x40 MSTORE DUP1 MLOAD SWAP1 PUSH1 0x20 ADD KECCAK256 SWAP1 POP PUSH2 0x31F DUP3 DUP7 DUP4 PUSH2 0x574 JUMP JUMPDEST SWAP3 POP POP POP SWAP3 SWAP2 POP POP JUMP JUMPDEST PUSH0 PUSH2 0x333 DUP3 PUSH2 0x58A JUMP JUMPDEST PUSH0 PUSH1 0x2 DUP1 SLOAD SWAP1 POP GT PUSH2 0x37A JUMPI PUSH1 0x40 MLOAD PUSH32 0x8C379A000000000000000000000000000000000000000000000000000000000 DUP2 MSTORE PUSH1 0x4 ADD PUSH2 0x371 SWAP1 PUSH2 0x103E JUMP JUMPDEST PUSH1 0x40 MLOAD DUP1 SWAP2 SUB SWAP1 REVERT JUMPDEST PUSH0 PUSH1 0x2 DUP1 SLOAD SWAP1 POP PUSH8 0xFFFFFFFFFFFFFFFF DUP2 GT ISZERO PUSH2 0x39A JUMPI PUSH2 0x399 PUSH2 0xC03 JUMP JUMPDEST JUMPDEST PUSH1 0x40 MLOAD SWAP1 DUP1 DUP3 MSTORE DUP1 PUSH1 0x20 MUL PUSH1 0x20 ADD DUP3 ADD PUSH1 0x40 MSTORE DUP1 ISZERO PUSH2 0x3C8 JUMPI DUP2 PUSH1 0x20 ADD PUSH1 0x20 DUP3 MUL DUP1 CALLDATASIZE DUP4 CALLDATACOPY DUP1 DUP3 ADD SWAP2 POP POP SWAP1 POP JUMPDEST POP SWAP1 POP PUSH0 JUMPDEST PUSH1 0x2 DUP1 SLOAD SWAP1 POP DUP2 LT ISZERO PUSH2 0x448 JUMPI PUSH1 0x2 DUP2 DUP2 SLOAD DUP2 LT PUSH2 0x3EE JUMPI PUSH2 0x3ED PUSH2 0xF77 JUMP JUMPDEST JUMPDEST SWAP1 PUSH0 MSTORE PUSH1 0x20 PUSH0 KECCAK256 ADD PUSH1 0x40 MLOAD PUSH1 0x20 ADD PUSH2 0x406 SWAP2 SWAP1 PUSH2 0x114B JUMP JUMPDEST PUSH1 0x40 MLOAD PUSH1 0x20 DUP2 DUP4 SUB SUB DUP2 MSTORE SWAP1 PUSH1 0x40 MSTORE DUP1 MLOAD SWAP1 PUSH1 0x20 ADD KECCAK256 DUP3 DUP3 DUP2 MLOAD DUP2 LT PUSH2 0x42F JUMPI PUSH2 0x42E PUSH2 0xF77 JUMP JUMPDEST JUMPDEST PUSH1 0x20 MUL PUSH1 0x20 ADD ADD DUP2 DUP2 MSTORE POP POP DUP1 DUP1 PUSH1 0x1 ADD SWAP2 POP POP PUSH2 0x3CD JUMP JUMPDEST POP PUSH2 0x452 DUP2 PUSH2 0x5FF JUMP JUMPDEST SWAP2 POP POP SWAP2 SWAP1 POP JUMP JUMPDEST PUSH1 0x60 PUSH0 DUP1 SLOAD DUP1 PUSH1 0x20 MUL PUSH1 0x20 ADD PUSH1 0x40 MLOAD SWAP1 DUP2 ADD PUSH1 0x40 MSTORE DUP1 SWAP3 SWAP2 SWAP1 DUP2 DUP2 MSTORE PUSH1 0x20 ADD DUP3 DUP1 SLOAD DUP1 ISZERO PUSH2 0x4A5 JUMPI PUSH1 0x20 MUL DUP3 ADD SWAP2 SWAP1 PUSH0 MSTORE PUSH1 0x20 PUSH0 KECCAK256 SWAP1 JUMPDEST DUP2 SLOAD DUP2 MSTORE PUSH1 0x20 ADD SWAP1 PUSH1 0x1 ADD SWAP1 DUP1 DUP4 GT PUSH2 0x491 JUMPI JUMPDEST POP POP POP POP POP SWAP1 POP SWAP1 JUMP JUMPDEST PUSH0 DUP1 PUSH1 0x1 SLOAD SWAP1 POP PUSH0 PUSH2 0x4C0 DUP5 PUSH2 0x329 JUMP JUMPDEST SWAP1 POP DUP2 DUP2 EQ SWAP3 POP POP POP SWAP2 SWAP1 POP JUMP JUMPDEST PUSH1 0x2 DUP2 DUP2 SLOAD DUP2 LT PUSH2 0x4DD JUMPI PUSH0 DUP1 REVERT JUMPDEST SWAP1 PUSH0 MSTORE PUSH1 0x20 PUSH0 KECCAK256 ADD PUSH0 SWAP2 POP SWAP1 POP DUP1 SLOAD PUSH2 0x4F5 SWAP1 PUSH2 0x1089 JUMP JUMPDEST DUP1 PUSH1 0x1F ADD PUSH1 0x20 DUP1 SWAP2 DIV MUL PUSH1 0x20 ADD PUSH1 0x40 MLOAD SWAP1 DUP2 ADD PUSH1 0x40 MSTORE DUP1 SWAP3 SWAP2 SWAP1 DUP2 DUP2 MSTORE PUSH1 0x20 ADD DUP3 DUP1 SLOAD PUSH2 0x521 SWAP1 PUSH2 0x1089 JUMP JUMPDEST DUP1 ISZERO PUSH2 0x56C JUMPI DUP1 PUSH1 0x1F LT PUSH2 0x543 JUMPI PUSH2 0x100 DUP1 DUP4 SLOAD DIV MUL DUP4 MSTORE SWAP2 PUSH1 0x20 ADD SWAP2 PUSH2 0x56C JUMP JUMPDEST DUP3 ADD SWAP2 SWAP1 PUSH0 MSTORE PUSH1 0x20 PUSH0 KECCAK256 SWAP1 JUMPDEST DUP2 SLOAD DUP2 MSTORE SWAP1 PUSH1 0x1 ADD SWAP1 PUSH1 0x20 ADD DUP1 DUP4 GT PUSH2 0x54F JUMPI DUP3 SWAP1 SUB PUSH1 0x1F AND DUP3 ADD SWAP2 JUMPDEST POP POP POP POP POP DUP2 JUMP JUMPDEST PUSH0 DUP3 PUSH2 0x580 DUP6 DUP5 PUSH2 0x8BF JUMP JUMPDEST EQ SWAP1 POP SWAP4 SWAP3 POP POP POP JUMP JUMPDEST PUSH1 0x2 PUSH0 PUSH2 0x597 SWAP2 SWAP1 PUSH2 0x94B JUMP JUMPDEST PUSH0 JUMPDEST DUP2 MLOAD DUP2 LT ISZERO PUSH2 0x5FB JUMPI PUSH1 0x2 DUP3 DUP3 DUP2 MLOAD DUP2 LT PUSH2 0x5B7 JUMPI PUSH2 0x5B6 PUSH2 0xF77 JUMP JUMPDEST JUMPDEST PUSH1 0x20 MUL PUSH1 0x20 ADD ADD MLOAD SWAP1 DUP1 PUSH1 0x1 DUP2 SLOAD ADD DUP1 DUP3 SSTORE DUP1 SWAP2 POP POP PUSH1 0x1 SWAP1 SUB SWAP1 PUSH0 MSTORE PUSH1 0x20 PUSH0 KECCAK256 ADD PUSH0 SWAP1 SWAP2 SWAP1 SWAP2 SWAP1 SWAP2 POP SWAP1 DUP2 PUSH2 0x5ED SWAP2 SWAP1 PUSH2 0x12EC JUMP JUMPDEST POP DUP1 DUP1 PUSH1 0x1 ADD SWAP2 POP POP PUSH2 0x599 JUMP JUMPDEST POP POP JUMP JUMPDEST PUSH0 DUP1 DUP3 MLOAD SWAP1 POP PUSH0 DUP2 SWAP1 POP JUMPDEST PUSH1 0x1 DUP2 GT ISZERO PUSH2 0x659 JUMPI PUSH1 0x2 PUSH1 0x1 DUP3 PUSH2 0x622 SWAP2 SWAP1 PUSH2 0x13E8 JUMP JUMPDEST PUSH2 0x62C SWAP2 SWAP1 PUSH2 0x1448 JUMP JUMPDEST DUP3 PUSH2 0x637 SWAP2 SWAP1 PUSH2 0x13E8 JUMP JUMPDEST SWAP2 POP PUSH1 0x2 PUSH1 0x1 DUP3 PUSH2 0x648 SWAP2 SWAP1 PUSH2 0x13E8 JUMP JUMPDEST PUSH2 0x652 SWAP2 SWAP1 PUSH2 0x1448 JUMP JUMPDEST SWAP1 POP PUSH2 0x60A JUMP JUMPDEST PUSH0 DUP3 PUSH8 0xFFFFFFFFFFFFFFFF DUP2 GT ISZERO PUSH2 0x674 JUMPI PUSH2 0x673 PUSH2 0xC03 JUMP JUMPDEST JUMPDEST PUSH1 0x40 MLOAD SWAP1 DUP1 DUP3 MSTORE DUP1 PUSH1 0x20 MUL PUSH1 0x20 ADD DUP3 ADD PUSH1 0x40 MSTORE DUP1 ISZERO PUSH2 0x6A2 JUMPI DUP2 PUSH1 0x20 ADD PUSH1 0x20 DUP3 MUL DUP1 CALLDATASIZE DUP4 CALLDATACOPY DUP1 DUP3 ADD SWAP2 POP POP SWAP1 POP JUMPDEST POP SWAP1 POP PUSH0 DUP1 JUMPDEST DUP7 MLOAD DUP2 LT ISZERO PUSH2 0x729 JUMPI DUP7 DUP2 DUP2 MLOAD DUP2 LT PUSH2 0x6C4 JUMPI PUSH2 0x6C3 PUSH2 0xF77 JUMP JUMPDEST JUMPDEST PUSH1 0x20 MUL PUSH1 0x20 ADD ADD MLOAD PUSH1 0x40 MLOAD PUSH1 0x20 ADD PUSH2 0x6DC SWAP2 SWAP1 PUSH2 0x1498 JUMP JUMPDEST PUSH1 0x40 MLOAD PUSH1 0x20 DUP2 DUP4 SUB SUB DUP2 MSTORE SWAP1 PUSH1 0x40 MSTORE DUP1 MLOAD SWAP1 PUSH1 0x20 ADD KECCAK256 DUP4 DUP3 DUP5 PUSH2 0x6FF SWAP2 SWAP1 PUSH2 0x13E8 JUMP JUMPDEST DUP2 MLOAD DUP2 LT PUSH2 0x710 JUMPI PUSH2 0x70F PUSH2 0xF77 JUMP JUMPDEST JUMPDEST PUSH1 0x20 MUL PUSH1 0x20 ADD ADD DUP2 DUP2 MSTORE POP POP DUP1 DUP1 PUSH1 0x1 ADD SWAP2 POP POP PUSH2 0x6A8 JUMP JUMPDEST POP PUSH0 DUP7 MLOAD SWAP1 POP JUMPDEST PUSH1 0x1 DUP2 GT ISZERO PUSH2 0x86C JUMPI PUSH0 JUMPDEST DUP2 DUP2 LT ISZERO PUSH2 0x83D JUMPI PUSH0 DUP5 DUP3 DUP6 PUSH2 0x751 SWAP2 SWAP1 PUSH2 0x13E8 JUMP JUMPDEST DUP2 MLOAD DUP2 LT PUSH2 0x762 JUMPI PUSH2 0x761 PUSH2 0xF77 JUMP JUMPDEST JUMPDEST PUSH1 0x20 MUL PUSH1 0x20 ADD ADD MLOAD SWAP1 POP PUSH0 DUP4 PUSH1 0x1 DUP5 PUSH2 0x77B SWAP2 SWAP1 PUSH2 0x13E8 JUMP JUMPDEST LT PUSH2 0x788 JUMPI PUSH0 DUP1 SHL PUSH2 0x7BB JUMP JUMPDEST DUP6 PUSH1 0x1 DUP5 DUP8 PUSH2 0x797 SWAP2 SWAP1 PUSH2 0x13E8 JUMP JUMPDEST PUSH2 0x7A1 SWAP2 SWAP1 PUSH2 0x13E8 JUMP JUMPDEST DUP2 MLOAD DUP2 LT PUSH2 0x7B2 JUMPI PUSH2 0x7B1 PUSH2 0xF77 JUMP JUMPDEST JUMPDEST PUSH1 0x20 MUL PUSH1 0x20 ADD ADD MLOAD JUMPDEST SWAP1 POP DUP2 DUP2 PUSH1 0x40 MLOAD PUSH1 0x20 ADD PUSH2 0x7D0 SWAP3 SWAP2 SWAP1 PUSH2 0x14B2 JUMP JUMPDEST PUSH1 0x40 MLOAD PUSH1 0x20 DUP2 DUP4 SUB SUB DUP2 MSTORE SWAP1 PUSH1 0x40 MSTORE DUP1 MLOAD SWAP1 PUSH1 0x20 ADD KECCAK256 DUP7 PUSH1 0x2 DUP6 PUSH2 0x7F4 SWAP2 SWAP1 PUSH2 0x1448 JUMP JUMPDEST DUP7 DUP9 PUSH2 0x800 SWAP2 SWAP1 PUSH2 0x13E8 JUMP JUMPDEST PUSH2 0x80A SWAP2 SWAP1 PUSH2 0x13E8 JUMP JUMPDEST DUP2 MLOAD DUP2 LT PUSH2 0x81B JUMPI PUSH2 0x81A PUSH2 0xF77 JUMP JUMPDEST JUMPDEST PUSH1 0x20 MUL PUSH1 0x20 ADD ADD DUP2 DUP2 MSTORE POP POP POP POP PUSH1 0x2 DUP2 PUSH2 0x836 SWAP2 SWAP1 PUSH2 0x13E8 JUMP JUMPDEST SWAP1 POP PUSH2 0x73B JUMP JUMPDEST POP DUP1 DUP3 PUSH2 0x84A SWAP2 SWAP1 PUSH2 0x13E8 JUMP JUMPDEST SWAP2 POP PUSH1 0x2 PUSH1 0x1 DUP3 PUSH2 0x85B SWAP2 SWAP1 PUSH2 0x13E8 JUMP JUMPDEST PUSH2 0x865 SWAP2 SWAP1 PUSH2 0x1448 JUMP JUMPDEST SWAP1 POP PUSH2 0x730 JUMP JUMPDEST DUP3 PUSH0 SWAP1 DUP1 MLOAD SWAP1 PUSH1 0x20 ADD SWAP1 PUSH2 0x881 SWAP3 SWAP2 SWAP1 PUSH2 0x969 JUMP JUMPDEST POP DUP3 PUSH1 0x1 DUP5 MLOAD PUSH2 0x891 SWAP2 SWAP1 PUSH2 0x14DD JUMP JUMPDEST DUP2 MLOAD DUP2 LT PUSH2 0x8A2 JUMPI PUSH2 0x8A1 PUSH2 0xF77 JUMP JUMPDEST JUMPDEST PUSH1 0x20 MUL PUSH1 0x20 ADD ADD MLOAD PUSH1 0x1 DUP2 SWAP1 SSTORE POP PUSH1 0x1 SLOAD SWAP6 POP POP POP POP POP POP SWAP2 SWAP1 POP JUMP JUMPDEST PUSH0 DUP1 DUP3 SWAP1 POP PUSH0 JUMPDEST DUP5 MLOAD DUP2 LT ISZERO PUSH2 0x902 JUMPI PUSH2 0x8F3 DUP3 DUP7 DUP4 DUP2 MLOAD DUP2 LT PUSH2 0x8E6 JUMPI PUSH2 0x8E5 PUSH2 0xF77 JUMP JUMPDEST JUMPDEST PUSH1 0x20 MUL PUSH1 0x20 ADD ADD MLOAD PUSH2 0x90D JUMP JUMPDEST SWAP2 POP DUP1 DUP1 PUSH1 0x1 ADD SWAP2 POP POP PUSH2 0x8C6 JUMP JUMPDEST POP DUP1 SWAP2 POP POP SWAP3 SWAP2 POP POP JUMP JUMPDEST PUSH0 DUP2 DUP4 LT PUSH2 0x924 JUMPI PUSH2 0x91F DUP3 DUP5 PUSH2 0x937 JUMP JUMPDEST PUSH2 0x92F JUMP JUMPDEST PUSH2 0x92E DUP4 DUP4 PUSH2 0x937 JUMP JUMPDEST JUMPDEST SWAP1 POP SWAP3 SWAP2 POP POP JUMP JUMPDEST PUSH0 DUP3 PUSH0 MSTORE DUP2 PUSH1 0x20 MSTORE PUSH1 0x40 PUSH0 KECCAK256 SWAP1 POP SWAP3 SWAP2 POP POP JUMP JUMPDEST POP DUP1 SLOAD PUSH0 DUP3 SSTORE SWAP1 PUSH0 MSTORE PUSH1 0x20 PUSH0 KECCAK256 SWAP1 DUP2 ADD SWAP1 PUSH2 0x966 SWAP2 SWAP1 PUSH2 0x9B4 JUMP JUMPDEST POP JUMP JUMPDEST DUP3 DUP1 SLOAD DUP3 DUP3 SSTORE SWAP1 PUSH0 MSTORE PUSH1 0x20 PUSH0 KECCAK256 SWAP1 DUP2 ADD SWAP3 DUP3 ISZERO PUSH2 0x9A3 JUMPI SWAP2 PUSH1 0x20 MUL DUP3 ADD JUMPDEST DUP3 DUP2 GT ISZERO PUSH2 0x9A2 JUMPI DUP3 MLOAD DUP3 SSTORE SWAP2 PUSH1 0x20 ADD SWAP2 SWAP1 PUSH1 0x1 ADD SWAP1 PUSH2 0x987 JUMP JUMPDEST JUMPDEST POP SWAP1 POP PUSH2 0x9B0 SWAP2 SWAP1 PUSH2 0x9D7 JUMP JUMPDEST POP SWAP1 JUMP JUMPDEST JUMPDEST DUP1 DUP3 GT ISZERO PUSH2 0x9D3 JUMPI PUSH0 DUP2 DUP2 PUSH2 0x9CA SWAP2 SWAP1 PUSH2 0x9F2 JUMP JUMPDEST POP PUSH1 0x1 ADD PUSH2 0x9B5 JUMP JUMPDEST POP SWAP1 JUMP JUMPDEST JUMPDEST DUP1 DUP3 GT ISZERO PUSH2 0x9EE JUMPI PUSH0 DUP2 PUSH0 SWAP1 SSTORE POP PUSH1 0x1 ADD PUSH2 0x9D8 JUMP JUMPDEST POP SWAP1 JUMP JUMPDEST POP DUP1 SLOAD PUSH2 0x9FE SWAP1 PUSH2 0x1089 JUMP JUMPDEST PUSH0 DUP3 SSTORE DUP1 PUSH1 0x1F LT PUSH2 0xA0F JUMPI POP PUSH2 0xA2C JUMP JUMPDEST PUSH1 0x1F ADD PUSH1 0x20 SWAP1 DIV SWAP1 PUSH0 MSTORE PUSH1 0x20 PUSH0 KECCAK256 SWAP1 DUP2 ADD SWAP1 PUSH2 0xA2B SWAP2 SWAP1 PUSH2 0xA2F JUMP JUMPDEST JUMPDEST POP JUMP JUMPDEST JUMPDEST DUP1 DUP3 GT ISZERO PUSH2 0xA46 JUMPI PUSH0 DUP2 PUSH0 SWAP1 SSTORE POP PUSH1 0x1 ADD PUSH2 0xA30 JUMP JUMPDEST POP SWAP1 JUMP JUMPDEST PUSH0 PUSH1 0x40 MLOAD SWAP1 POP SWAP1 JUMP JUMPDEST PUSH0 DUP1 REVERT JUMPDEST PUSH0 DUP1 REVERT JUMPDEST PUSH0 DUP2 SWAP1 POP SWAP2 SWAP1 POP JUMP JUMPDEST PUSH2 0xA6D DUP2 PUSH2 0xA5B JUMP JUMPDEST DUP2 EQ PUSH2 0xA77 JUMPI PUSH0 DUP1 REVERT JUMPDEST POP JUMP JUMPDEST PUSH0 DUP2 CALLDATALOAD SWAP1 POP PUSH2 0xA88 DUP2 PUSH2 0xA64 JUMP JUMPDEST SWAP3 SWAP2 POP POP JUMP JUMPDEST PUSH0 PUSH1 0x20 DUP3 DUP5 SUB SLT ISZERO PUSH2 0xAA3 JUMPI PUSH2 0xAA2 PUSH2 0xA53 JUMP JUMPDEST JUMPDEST PUSH0 PUSH2 0xAB0 DUP5 DUP3 DUP6 ADD PUSH2 0xA7A JUMP JUMPDEST SWAP2 POP POP SWAP3 SWAP2 POP POP JUMP JUMPDEST PUSH0 DUP2 SWAP1 POP SWAP2 SWAP1 POP JUMP JUMPDEST PUSH2 0xACB DUP2 PUSH2 0xAB9 JUMP JUMPDEST DUP3 MSTORE POP POP JUMP JUMPDEST PUSH0 PUSH1 0x20 DUP3 ADD SWAP1 POP PUSH2 0xAE4 PUSH0 DUP4 ADD DUP5 PUSH2 0xAC2 JUMP JUMPDEST SWAP3 SWAP2 POP POP JUMP JUMPDEST PUSH0 DUP2 MLOAD SWAP1 POP SWAP2 SWAP1 POP JUMP JUMPDEST PUSH0 DUP3 DUP3 MSTORE PUSH1 0x20 DUP3 ADD SWAP1 POP SWAP3 SWAP2 POP POP JUMP JUMPDEST PUSH0 DUP2 SWAP1 POP PUSH1 0x20 DUP3 ADD SWAP1 POP SWAP2 SWAP1 POP JUMP JUMPDEST PUSH2 0xB1C DUP2 PUSH2 0xAB9 JUMP JUMPDEST DUP3 MSTORE POP POP JUMP JUMPDEST PUSH0 PUSH2 0xB2D DUP4 DUP4 PUSH2 0xB13 JUMP JUMPDEST PUSH1 0x20 DUP4 ADD SWAP1 POP SWAP3 SWAP2 POP POP JUMP JUMPDEST PUSH0 PUSH1 0x20 DUP3 ADD SWAP1 POP SWAP2 SWAP1 POP JUMP JUMPDEST PUSH0 PUSH2 0xB4F DUP3 PUSH2 0xAEA JUMP JUMPDEST PUSH2 0xB59 DUP2 DUP6 PUSH2 0xAF4 JUMP JUMPDEST SWAP4 POP PUSH2 0xB64 DUP4 PUSH2 0xB04 JUMP JUMPDEST DUP1 PUSH0 JUMPDEST DUP4 DUP2 LT ISZERO PUSH2 0xB94 JUMPI DUP2 MLOAD PUSH2 0xB7B DUP9 DUP3 PUSH2 0xB22 JUMP JUMPDEST SWAP8 POP PUSH2 0xB86 DUP4 PUSH2 0xB39 JUMP JUMPDEST SWAP3 POP POP PUSH1 0x1 DUP2 ADD SWAP1 POP PUSH2 0xB67 JUMP JUMPDEST POP DUP6 SWAP4 POP POP POP POP SWAP3 SWAP2 POP POP JUMP JUMPDEST PUSH0 PUSH1 0x20 DUP3 ADD SWAP1 POP DUP2 DUP2 SUB PUSH0 DUP4 ADD MSTORE PUSH2 0xBB9 DUP2 DUP5 PUSH2 0xB45 JUMP JUMPDEST SWAP1 POP SWAP3 SWAP2 POP POP JUMP JUMPDEST PUSH2 0xBCA DUP2 PUSH2 0xAB9 JUMP JUMPDEST DUP2 EQ PUSH2 0xBD4 JUMPI PUSH0 DUP1 REVERT JUMPDEST POP JUMP JUMPDEST PUSH0 DUP2 CALLDATALOAD SWAP1 POP PUSH2 0xBE5 DUP2 PUSH2 0xBC1 JUMP JUMPDEST SWAP3 SWAP2 POP POP JUMP JUMPDEST PUSH0 DUP1 REVERT JUMPDEST PUSH0 DUP1 REVERT JUMPDEST PUSH0 PUSH1 0x1F NOT PUSH1 0x1F DUP4 ADD AND SWAP1 POP SWAP2 SWAP1 POP JUMP JUMPDEST PUSH32 0x4E487B7100000000000000000000000000000000000000000000000000000000 PUSH0 MSTORE PUSH1 0x41 PUSH1 0x4 MSTORE PUSH1 0x24 PUSH0 REVERT JUMPDEST PUSH2 0xC39 DUP3 PUSH2 0xBF3 JUMP JUMPDEST DUP2 ADD DUP2 DUP2 LT PUSH8 0xFFFFFFFFFFFFFFFF DUP3 GT OR ISZERO PUSH2 0xC58 JUMPI PUSH2 0xC57 PUSH2 0xC03 JUMP JUMPDEST JUMPDEST DUP1 PUSH1 0x40 MSTORE POP POP POP JUMP JUMPDEST PUSH0 PUSH2 0xC6A PUSH2 0xA4A JUMP JUMPDEST SWAP1 POP PUSH2 0xC76 DUP3 DUP3 PUSH2 0xC30 JUMP JUMPDEST SWAP2 SWAP1 POP JUMP JUMPDEST PUSH0 PUSH8 0xFFFFFFFFFFFFFFFF DUP3 GT ISZERO PUSH2 0xC95 JUMPI PUSH2 0xC94 PUSH2 0xC03 JUMP JUMPDEST JUMPDEST PUSH2 0xC9E DUP3 PUSH2 0xBF3 JUMP JUMPDEST SWAP1 POP PUSH1 0x20 DUP2 ADD SWAP1 POP SWAP2 SWAP1 POP JUMP JUMPDEST DUP3 DUP2 DUP4 CALLDATACOPY PUSH0 DUP4 DUP4 ADD MSTORE POP POP POP JUMP JUMPDEST PUSH0 PUSH2 0xCCB PUSH2 0xCC6 DUP5 PUSH2 0xC7B JUMP JUMPDEST PUSH2 0xC61 JUMP JUMPDEST SWAP1 POP DUP3 DUP2 MSTORE PUSH1 0x20 DUP2 ADD DUP5 DUP5 DUP5 ADD GT ISZERO PUSH2 0xCE7 JUMPI PUSH2 0xCE6 PUSH2 0xBEF JUMP JUMPDEST JUMPDEST PUSH2 0xCF2 DUP5 DUP3 DUP6 PUSH2 0xCAB JUMP JUMPDEST POP SWAP4 SWAP3 POP POP POP JUMP JUMPDEST PUSH0 DUP3 PUSH1 0x1F DUP4 ADD SLT PUSH2 0xD0E JUMPI PUSH2 0xD0D PUSH2 0xBEB JUMP JUMPDEST JUMPDEST DUP2 CALLDATALOAD PUSH2 0xD1E DUP5 DUP3 PUSH1 0x20 DUP7 ADD PUSH2 0xCB9 JUMP JUMPDEST SWAP2 POP POP SWAP3 SWAP2 POP POP JUMP JUMPDEST PUSH0 DUP1 PUSH1 0x40 DUP4 DUP6 SUB SLT ISZERO PUSH2 0xD3D JUMPI PUSH2 0xD3C PUSH2 0xA53 JUMP JUMPDEST JUMPDEST PUSH0 PUSH2 0xD4A DUP6 DUP3 DUP7 ADD PUSH2 0xBD7 JUMP JUMPDEST SWAP3 POP POP PUSH1 0x20 DUP4 ADD CALLDATALOAD PUSH8 0xFFFFFFFFFFFFFFFF DUP2 GT ISZERO PUSH2 0xD6B JUMPI PUSH2 0xD6A PUSH2 0xA57 JUMP JUMPDEST JUMPDEST PUSH2 0xD77 DUP6 DUP3 DUP7 ADD PUSH2 0xCFA JUMP JUMPDEST SWAP2 POP POP SWAP3 POP SWAP3 SWAP1 POP JUMP JUMPDEST PUSH0 DUP2 ISZERO ISZERO SWAP1 POP SWAP2 SWAP1 POP JUMP JUMPDEST PUSH2 0xD95 DUP2 PUSH2 0xD81 JUMP JUMPDEST DUP3 MSTORE POP POP JUMP JUMPDEST PUSH0 PUSH1 0x20 DUP3 ADD SWAP1 POP PUSH2 0xDAE PUSH0 DUP4 ADD DUP5 PUSH2 0xD8C JUMP JUMPDEST SWAP3 SWAP2 POP POP JUMP JUMPDEST PUSH0 PUSH8 0xFFFFFFFFFFFFFFFF DUP3 GT ISZERO PUSH2 0xDCE JUMPI PUSH2 0xDCD PUSH2 0xC03 JUMP JUMPDEST JUMPDEST PUSH1 0x20 DUP3 MUL SWAP1 POP PUSH1 0x20 DUP2 ADD SWAP1 POP SWAP2 SWAP1 POP JUMP JUMPDEST PUSH0 DUP1 REVERT JUMPDEST PUSH0 PUSH2 0xDF5 PUSH2 0xDF0 DUP5 PUSH2 0xDB4 JUMP JUMPDEST PUSH2 0xC61 JUMP JUMPDEST SWAP1 POP DUP1 DUP4 DUP3 MSTORE PUSH1 0x20 DUP3 ADD SWAP1 POP PUSH1 0x20 DUP5 MUL DUP4 ADD DUP6 DUP2 GT ISZERO PUSH2 0xE18 JUMPI PUSH2 0xE17 PUSH2 0xDDF JUMP JUMPDEST JUMPDEST DUP4 JUMPDEST DUP2 DUP2 LT ISZERO PUSH2 0xE5F JUMPI DUP1 CALLDATALOAD PUSH8 0xFFFFFFFFFFFFFFFF DUP2 GT ISZERO PUSH2 0xE3D JUMPI PUSH2 0xE3C PUSH2 0xBEB JUMP JUMPDEST JUMPDEST DUP1 DUP7 ADD PUSH2 0xE4A DUP10 DUP3 PUSH2 0xCFA JUMP JUMPDEST DUP6 MSTORE PUSH1 0x20 DUP6 ADD SWAP5 POP POP POP PUSH1 0x20 DUP2 ADD SWAP1 POP PUSH2 0xE1A JUMP JUMPDEST POP POP POP SWAP4 SWAP3 POP POP POP JUMP JUMPDEST PUSH0 DUP3 PUSH1 0x1F DUP4 ADD SLT PUSH2 0xE7D JUMPI PUSH2 0xE7C PUSH2 0xBEB JUMP JUMPDEST JUMPDEST DUP2 CALLDATALOAD PUSH2 0xE8D DUP5 DUP3 PUSH1 0x20 DUP7 ADD PUSH2 0xDE3 JUMP JUMPDEST SWAP2 POP POP SWAP3 SWAP2 POP POP JUMP JUMPDEST PUSH0 PUSH1 0x20 DUP3 DUP5 SUB SLT ISZERO PUSH2 0xEAB JUMPI PUSH2 0xEAA PUSH2 0xA53 JUMP JUMPDEST JUMPDEST PUSH0 DUP3 ADD CALLDATALOAD PUSH8 0xFFFFFFFFFFFFFFFF DUP2 GT ISZERO PUSH2 0xEC8 JUMPI PUSH2 0xEC7 PUSH2 0xA57 JUMP JUMPDEST JUMPDEST PUSH2 0xED4 DUP5 DUP3 DUP6 ADD PUSH2 0xE69 JUMP JUMPDEST SWAP2 POP POP SWAP3 SWAP2 POP POP JUMP JUMPDEST PUSH0 DUP2 MLOAD SWAP1 POP SWAP2 SWAP1 POP JUMP JUMPDEST PUSH0 DUP3 DUP3 MSTORE PUSH1 0x20 DUP3 ADD SWAP1 POP SWAP3 SWAP2 POP POP JUMP JUMPDEST PUSH0 JUMPDEST DUP4 DUP2 LT ISZERO PUSH2 0xF14 JUMPI DUP1 DUP3 ADD MLOAD DUP2 DUP5 ADD MSTORE PUSH1 0x20 DUP2 ADD SWAP1 POP PUSH2 0xEF9 JUMP JUMPDEST PUSH0 DUP5 DUP5 ADD MSTORE POP POP POP POP JUMP JUMPDEST PUSH0 PUSH2 0xF29 DUP3 PUSH2 0xEDD JUMP JUMPDEST PUSH2 0xF33 DUP2 DUP6 PUSH2 0xEE7 JUMP JUMPDEST SWAP4 POP PUSH2 0xF43 DUP2 DUP6 PUSH1 0x20 DUP7 ADD PUSH2 0xEF7 JUMP JUMPDEST PUSH2 0xF4C DUP2 PUSH2 0xBF3 JUMP JUMPDEST DUP5 ADD SWAP2 POP POP SWAP3 SWAP2 POP POP JUMP JUMPDEST PUSH0 PUSH1 0x20 DUP3 ADD SWAP1 POP DUP2 DUP2 SUB PUSH0 DUP4 ADD MSTORE PUSH2 0xF6F DUP2 DUP5 PUSH2 0xF1F JUMP JUMPDEST SWAP1 POP SWAP3 SWAP2 POP POP JUMP JUMPDEST PUSH32 0x4E487B7100000000000000000000000000000000000000000000000000000000 PUSH0 MSTORE PUSH1 0x32 PUSH1 0x4 MSTORE PUSH1 0x24 PUSH0 REVERT JUMPDEST PUSH0 DUP2 SWAP1 POP SWAP3 SWAP2 POP POP JUMP JUMPDEST PUSH0 PUSH2 0xFB8 DUP3 PUSH2 0xEDD JUMP JUMPDEST PUSH2 0xFC2 DUP2 DUP6 PUSH2 0xFA4 JUMP JUMPDEST SWAP4 POP PUSH2 0xFD2 DUP2 DUP6 PUSH1 0x20 DUP7 ADD PUSH2 0xEF7 JUMP JUMPDEST DUP1 DUP5 ADD SWAP2 POP POP SWAP3 SWAP2 POP POP JUMP JUMPDEST PUSH0 PUSH2 0xFE9 DUP3 DUP5 PUSH2 0xFAE JUMP JUMPDEST SWAP2 POP DUP2 SWAP1 POP SWAP3 SWAP2 POP POP JUMP JUMPDEST PUSH32 0x446174612073686F756C64206E6F7420626520656D7074790000000000000000 PUSH0 DUP3 ADD MSTORE POP JUMP JUMPDEST PUSH0 PUSH2 0x1028 PUSH1 0x18 DUP4 PUSH2 0xEE7 JUMP JUMPDEST SWAP2 POP PUSH2 0x1033 DUP3 PUSH2 0xFF4 JUMP JUMPDEST PUSH1 0x20 DUP3 ADD SWAP1 POP SWAP2 SWAP1 POP JUMP JUMPDEST PUSH0 PUSH1 0x20 DUP3 ADD SWAP1 POP DUP2 DUP2 SUB PUSH0 DUP4 ADD MSTORE PUSH2 0x1055 DUP2 PUSH2 0x101C JUMP JUMPDEST SWAP1 POP SWAP2 SWAP1 POP JUMP JUMPDEST PUSH32 0x4E487B7100000000000000000000000000000000000000000000000000000000 PUSH0 MSTORE PUSH1 0x22 PUSH1 0x4 MSTORE PUSH1 0x24 PUSH0 REVERT JUMPDEST PUSH0 PUSH1 0x2 DUP3 DIV SWAP1 POP PUSH1 0x1 DUP3 AND DUP1 PUSH2 0x10A0 JUMPI PUSH1 0x7F DUP3 AND SWAP2 POP JUMPDEST PUSH1 0x20 DUP3 LT DUP2 SUB PUSH2 0x10B3 JUMPI PUSH2 0x10B2 PUSH2 0x105C JUMP JUMPDEST JUMPDEST POP SWAP2 SWAP1 POP JUMP JUMPDEST PUSH0 DUP2 SWAP1 POP DUP2 PUSH0 MSTORE PUSH1 0x20 PUSH0 KECCAK256 SWAP1 POP SWAP2 SWAP1 POP JUMP JUMPDEST PUSH0 DUP2 SLOAD PUSH2 0x10D7 DUP2 PUSH2 0x1089 JUMP JUMPDEST PUSH2 0x10E1 DUP2 DUP7 PUSH2 0xFA4 JUMP JUMPDEST SWAP5 POP PUSH1 0x1 DUP3 AND PUSH0 DUP2 EQ PUSH2 0x10FB JUMPI PUSH1 0x1 DUP2 EQ PUSH2 0x1110 JUMPI PUSH2 0x1142 JUMP JUMPDEST PUSH1 0xFF NOT DUP4 AND DUP7 MSTORE DUP2 ISZERO ISZERO DUP3 MUL DUP7 ADD SWAP4 POP PUSH2 0x1142 JUMP JUMPDEST PUSH2 0x1119 DUP6 PUSH2 0x10B9 JUMP JUMPDEST PUSH0 JUMPDEST DUP4 DUP2 LT ISZERO PUSH2 0x113A JUMPI DUP2 SLOAD DUP2 DUP10 ADD MSTORE PUSH1 0x1 DUP3 ADD SWAP2 POP PUSH1 0x20 DUP2 ADD SWAP1 POP PUSH2 0x111B JUMP JUMPDEST DUP4 DUP9 ADD SWAP6 POP POP POP JUMPDEST POP POP POP SWAP3 SWAP2 POP POP JUMP JUMPDEST PUSH0 PUSH2 0x1156 DUP3 DUP5 PUSH2 0x10CB JUMP JUMPDEST SWAP2 POP DUP2 SWAP1 POP SWAP3 SWAP2 POP POP JUMP JUMPDEST PUSH0 PUSH1 0x20 PUSH1 0x1F DUP4 ADD DIV SWAP1 POP SWAP2 SWAP1 POP JUMP JUMPDEST PUSH0 DUP3 DUP3 SHL SWAP1 POP SWAP3 SWAP2 POP POP JUMP JUMPDEST PUSH0 PUSH1 0x8 DUP4 MUL PUSH2 0x11AB PUSH32 0xFFFFFFFFFFFFFFFFFFFFFFFFFFFFFFFFFFFFFFFFFFFFFFFFFFFFFFFFFFFFFFFF DUP3 PUSH2 0x1170 JUMP JUMPDEST PUSH2 0x11B5 DUP7 DUP4 PUSH2 0x1170 JUMP JUMPDEST SWAP6 POP DUP1 NOT DUP5 AND SWAP4 POP DUP1 DUP7 AND DUP5 OR SWAP3 POP POP POP SWAP4 SWAP3 POP POP POP JUMP JUMPDEST PUSH0 DUP2 SWAP1 POP SWAP2 SWAP1 POP JUMP JUMPDEST PUSH0 PUSH2 0x11F0 PUSH2 0x11EB PUSH2 0x11E6 DUP5 PUSH2 0xA5B JUMP JUMPDEST PUSH2 0x11CD JUMP JUMPDEST PUSH2 0xA5B JUMP JUMPDEST SWAP1 POP SWAP2 SWAP1 POP JUMP JUMPDEST PUSH0 DUP2 SWAP1 POP SWAP2 SWAP1 POP JUMP JUMPDEST PUSH2 0x1209 DUP4 PUSH2 0x11D6 JUMP JUMPDEST PUSH2 0x121D PUSH2 0x1215 DUP3 PUSH2 0x11F7 JUMP JUMPDEST DUP5 DUP5 SLOAD PUSH2 0x117C JUMP JUMPDEST DUP3 SSTORE POP POP POP POP JUMP JUMPDEST PUSH0 SWAP1 JUMP JUMPDEST PUSH2 0x1231 PUSH2 0x1225 JUMP JUMPDEST PUSH2 0x123C DUP2 DUP5 DUP5 PUSH2 0x1200 JUMP JUMPDEST POP POP POP JUMP JUMPDEST JUMPDEST DUP2 DUP2 LT ISZERO PUSH2 0x125F JUMPI PUSH2 0x1254 PUSH0 DUP3 PUSH2 0x1229 JUMP JUMPDEST PUSH1 0x1 DUP2 ADD SWAP1 POP PUSH2 0x1242 JUMP JUMPDEST POP POP JUMP JUMPDEST PUSH1 0x1F DUP3 GT ISZERO PUSH2 0x12A4 JUMPI PUSH2 0x1275 DUP2 PUSH2 0x10B9 JUMP JUMPDEST PUSH2 0x127E DUP5 PUSH2 0x1161 JUMP JUMPDEST DUP2 ADD PUSH1 0x20 DUP6 LT ISZERO PUSH2 0x128D JUMPI DUP2 SWAP1 POP JUMPDEST PUSH2 0x12A1 PUSH2 0x1299 DUP6 PUSH2 0x1161 JUMP JUMPDEST DUP4 ADD DUP3 PUSH2 0x1241 JUMP JUMPDEST POP POP JUMPDEST POP POP POP JUMP JUMPDEST PUSH0 DUP3 DUP3 SHR SWAP1 POP SWAP3 SWAP2 POP POP JUMP JUMPDEST PUSH0 PUSH2 0x12C4 PUSH0 NOT DUP5 PUSH1 0x8 MUL PUSH2 0x12A9 JUMP JUMPDEST NOT DUP1 DUP4 AND SWAP2 POP POP SWAP3 SWAP2 POP POP JUMP JUMPDEST PUSH0 PUSH2 0x12DC DUP4 DUP4 PUSH2 0x12B5 JUMP JUMPDEST SWAP2 POP DUP3 PUSH1 0x2 MUL DUP3 OR SWAP1 POP SWAP3 SWAP2 POP POP JUMP JUMPDEST PUSH2 0x12F5 DUP3 PUSH2 0xEDD JUMP JUMPDEST PUSH8 0xFFFFFFFFFFFFFFFF DUP2 GT ISZERO PUSH2 0x130E JUMPI PUSH2 0x130D PUSH2 0xC03 JUMP JUMPDEST JUMPDEST PUSH2 0x1318 DUP3 SLOAD PUSH2 0x1089 JUMP JUMPDEST PUSH2 0x1323 DUP3 DUP3 DUP6 PUSH2 0x1263 JUMP JUMPDEST PUSH0 PUSH1 0x20 SWAP1 POP PUSH1 0x1F DUP4 GT PUSH1 0x1 DUP2 EQ PUSH2 0x1354 JUMPI PUSH0 DUP5 ISZERO PUSH2 0x1342 JUMPI DUP3 DUP8 ADD MLOAD SWAP1 POP JUMPDEST PUSH2 0x134C DUP6 DUP3 PUSH2 0x12D1 JUMP JUMPDEST DUP7 SSTORE POP PUSH2 0x13B3 JUMP JUMPDEST PUSH1 0x1F NOT DUP5 AND PUSH2 0x1362 DUP7 PUSH2 0x10B9 JUMP JUMPDEST PUSH0 JUMPDEST DUP3 DUP2 LT ISZERO PUSH2 0x1389 JUMPI DUP5 DUP10 ADD MLOAD DUP3 SSTORE PUSH1 0x1 DUP3 ADD SWAP2 POP PUSH1 0x20 DUP6 ADD SWAP5 POP PUSH1 0x20 DUP2 ADD SWAP1 POP PUSH2 0x1364 JUMP JUMPDEST DUP7 DUP4 LT ISZERO PUSH2 0x13A6 JUMPI DUP5 DUP10 ADD MLOAD PUSH2 0x13A2 PUSH1 0x1F DUP10 AND DUP3 PUSH2 0x12B5 JUMP JUMPDEST DUP4 SSTORE POP JUMPDEST PUSH1 0x1 PUSH1 0x2 DUP9 MUL ADD DUP9 SSTORE POP POP POP JUMPDEST POP POP POP POP POP POP JUMP JUMPDEST PUSH32 0x4E487B7100000000000000000000000000000000000000000000000000000000 PUSH0 MSTORE PUSH1 0x11 PUSH1 0x4 MSTORE PUSH1 0x24 PUSH0 REVERT JUMPDEST PUSH0 PUSH2 0x13F2 DUP3 PUSH2 0xA5B JUMP JUMPDEST SWAP2 POP PUSH2 0x13FD DUP4 PUSH2 0xA5B JUMP JUMPDEST SWAP3 POP DUP3 DUP3 ADD SWAP1 POP DUP1 DUP3 GT ISZERO PUSH2 0x1415 JUMPI PUSH2 0x1414 PUSH2 0x13BB JUMP JUMPDEST JUMPDEST SWAP3 SWAP2 POP POP JUMP JUMPDEST PUSH32 0x4E487B7100000000000000000000000000000000000000000000000000000000 PUSH0 MSTORE PUSH1 0x12 PUSH1 0x4 MSTORE PUSH1 0x24 PUSH0 REVERT JUMPDEST PUSH0 PUSH2 0x1452 DUP3 PUSH2 0xA5B JUMP JUMPDEST SWAP2 POP PUSH2 0x145D DUP4 PUSH2 0xA5B JUMP JUMPDEST SWAP3 POP DUP3 PUSH2 0x146D JUMPI PUSH2 0x146C PUSH2 0x141B JUMP JUMPDEST JUMPDEST DUP3 DUP3 DIV SWAP1 POP SWAP3 SWAP2 POP POP JUMP JUMPDEST PUSH0 DUP2 SWAP1 POP SWAP2 SWAP1 POP JUMP JUMPDEST PUSH2 0x1492 PUSH2 0x148D DUP3 PUSH2 0xAB9 JUMP JUMPDEST PUSH2 0x1478 JUMP JUMPDEST DUP3 MSTORE POP POP JUMP JUMPDEST PUSH0 PUSH2 0x14A3 DUP3 DUP5 PUSH2 0x1481 JUMP JUMPDEST PUSH1 0x20 DUP3 ADD SWAP2 POP DUP2 SWAP1 POP SWAP3 SWAP2 POP POP JUMP JUMPDEST PUSH0 PUSH2 0x14BD DUP3 DUP6 PUSH2 0x1481 JUMP JUMPDEST PUSH1 0x20 DUP3 ADD SWAP2 POP PUSH2 0x14CD DUP3 DUP5 PUSH2 0x1481 JUMP JUMPDEST PUSH1 0x20 DUP3 ADD SWAP2 POP DUP2 SWAP1 POP SWAP4 SWAP3 POP POP POP JUMP JUMPDEST PUSH0 PUSH2 0x14E7 DUP3 PUSH2 0xA5B JUMP JUMPDEST SWAP2 POP PUSH2 0x14F2 DUP4 PUSH2 0xA5B JUMP JUMPDEST SWAP3 POP DUP3 DUP3 SUB SWAP1 POP DUP2 DUP2 GT ISZERO PUSH2 0x150A JUMPI PUSH2 0x1509 PUSH2 0x13BB JUMP JUMPDEST JUMPDEST SWAP3 SWAP2 POP POP JUMP INVALID LOG2 PUSH5 0x6970667358 0x22 SLT KECCAK256 PUSH8 0xE4FFFA17B359ED13 SWAP3 0x29 INVALID SWAP1 CALLCODE PUSH24 0x38867EBC64C958EB933440D4248AF98D4C64736F6C634300 ADDMOD AND STOP CALLER "
		},
		"gasEstimates": {
			"creation": {
				"codeDepositCost": "1089200",
				"executionCost": "1132",
				"totalCost": "1090332"
			},
			"external": {
				"constructMerkleTreeFromString(string[])": "infinite",
				"getMerkleProof()": "infinite",
				"getMerkleTree()": "infinite",
				"leaf(uint256)": "infinite",
				"merkleTree(uint256)": "4871",
				"roothash()": "2470",
				"verfied(string[])": "infinite",
				"verifyMerkleProof(bytes32,string)": "infinite"
			},
			"internal": {
				"constructMerkleTree(bytes32[] memory)": "infinite",
				"fillLeafArray(string memory[] memory)": "infinite"
			}
		},
		"methodIdentifiers": {
			"constructMerkleTreeFromString(string[])": "abb23477",
			"getMerkleProof()": "1aa2829a",
			"getMerkleTree()": "d05f7ca0",
			"leaf(uint256)": "f472a58a",
			"merkleTree(uint256)": "0df0ff90",
			"roothash()": "251c9422",
			"verfied(string[])": "e0b74c2a",
			"verifyMerkleProof(bytes32,string)": "5a4c633b"
		}
	},
	"abi": [
		{
			"inputs": [
				{
					"internalType": "string[]",
					"name": "data",
					"type": "string[]"
				}
			],
			"name": "constructMerkleTreeFromString",
			"outputs": [
				{
					"internalType": "bytes32",
					"name": "",
					"type": "bytes32"
				}
			],
			"stateMutability": "nonpayable",
			"type": "function"
		},
		{
			"inputs": [],
			"name": "getMerkleProof",
			"outputs": [
				{
					"internalType": "bytes32[]",
					"name": "",
					"type": "bytes32[]"
				}
			],
			"stateMutability": "pure",
			"type": "function"
		},
		{
			"inputs": [],
			"name": "getMerkleTree",
			"outputs": [
				{
					"internalType": "bytes32[]",
					"name": "",
					"type": "bytes32[]"
				}
			],
			"stateMutability": "view",
			"type": "function"
		},
		{
			"inputs": [
				{
					"internalType": "uint256",
					"name": "",
					"type": "uint256"
				}
			],
			"name": "leaf",
			"outputs": [
				{
					"internalType": "string",
					"name": "",
					"type": "string"
				}
			],
			"stateMutability": "view",
			"type": "function"
		},
		{
			"inputs": [
				{
					"internalType": "uint256",
					"name": "",
					"type": "uint256"
				}
			],
			"name": "merkleTree",
			"outputs": [
				{
					"internalType": "bytes32",
					"name": "",
					"type": "bytes32"
				}
			],
			"stateMutability": "view",
			"type": "function"
		},
		{
			"inputs": [],
			"name": "roothash",
			"outputs": [
				{
					"internalType": "bytes32",
					"name": "",
					"type": "bytes32"
				}
			],
			"stateMutability": "view",
			"type": "function"
		},
		{
			"inputs": [
				{
					"internalType": "string[]",
					"name": "current",
					"type": "string[]"
				}
			],
			"name": "verfied",
			"outputs": [
				{
					"internalType": "bool",
					"name": "",
					"type": "bool"
				}
			],
			"stateMutability": "nonpayable",
			"type": "function"
		},
		{
			"inputs": [
				{
					"internalType": "bytes32",
					"name": "merkleroot",
					"type": "bytes32"
				},
				{
					"internalType": "string",
					"name": "current",
					"type": "string"
				}
			],
			"name": "verifyMerkleProof",
			"outputs": [
				{
					"internalType": "bool",
					"name": "",
					"type": "bool"
				}
			],
			"stateMutability": "pure",
			"type": "function"
		}
	]
}