{
	"data": {
		"bytecode": {
			"linkReferences": {},
			"object": "608060405234801561000f575f80fd5b5061081d8061001d5f395ff3fe608060405234801561000f575f80fd5b5060043610610055575f3560e01c80630df0ff90146100595780631752260f1461007f578063251c942214610092578063d05f7ca01461009b578063e0b74c2a146100b0575b5f80fd5b61006c610067366004610581565b6100d3565b6040519081526020015b60405180910390f35b61006c61008d3660046105dd565b6100f1565b61006c60015481565b6100a3610218565b60405161007691906106ed565b6100c36100be3660046105dd565b61026d565b6040519015158152602001610076565b5f81815481106100e1575f80fd5b5f91825260209091200154905081565b5f808251116101465760405162461bcd60e51b815260206004820152601860248201527f446174612073686f756c64206e6f7420626520656d7074790000000000000000604482015260640160405180910390fd5b5f825167ffffffffffffffff81111561016157610161610598565b60405190808252806020026020018201604052801561018a578160200160208202803683370190505b5090505f5b8351811015610207578381815181106101aa576101aa610730565b60200260200101516040516020016101c29190610744565b604051602081830303815290604052805190602001208282815181106101ea576101ea610730565b6020908102919091010152806101ff81610784565b91505061018f565b5061021181610287565b9392505050565b60605f80548060200260200160405190810160405280929190818152602001828054801561026357602002820191905f5260205f20905b81548152602001906001019080831161024f575b5050505050905090565b6001545f908161027c846100f1565b919091149392505050565b80515f90805b60018111156102d75760026102a382600161079c565b6102ad91906107b5565b6102b7908361079c565b915060026102c682600161079c565b6102d091906107b5565b905061028d565b5f8267ffffffffffffffff8111156102f1576102f1610598565b60405190808252806020026020018201604052801561031a578160200160208202803683370190505b5090505f805b86518110156103a55786818151811061033b5761033b610730565b602002602001015160405160200161035591815260200190565b60405160208183030381529060405280519060200120838284610378919061079c565b8151811061038857610388610730565b60209081029190910101528061039d81610784565b915050610320565b5085515b60018111156104d5575f5b818110156104aa575f846103c8838661079c565b815181106103d8576103d8610730565b602002602001015190505f838360016103f1919061079c565b106103fc575f61042b565b85610407848761079c565b61041290600161079c565b8151811061042257610422610730565b60200260200101515b6040805160208101859052908101829052909150606001604051602081830303815290604052805190602001208660028561046691906107b5565b610470878961079c565b61047a919061079c565b8151811061048a5761048a610730565b6020908102919091010152506104a3905060028261079c565b90506103b4565b506104b5818361079c565b915060026104c482600161079c565b6104ce91906107b5565b90506103a9565b82516104e7905f906020860190610524565b5082600184516104f791906107d4565b8151811061050757610507610730565b602002602001015160018190555060015495505050505050919050565b828054828255905f5260205f2090810192821561055d579160200282015b8281111561055d578251825591602001919060010190610542565b5061056992915061056d565b5090565b5b80821115610569575f815560010161056e565b5f60208284031215610591575f80fd5b5035919050565b634e487b7160e01b5f52604160045260245ffd5b604051601f8201601f1916810167ffffffffffffffff811182821017156105d5576105d5610598565b604052919050565b5f60208083850312156105ee575f80fd5b823567ffffffffffffffff80821115610605575f80fd5b8185019150601f8681840112610619575f80fd5b82358281111561062b5761062b610598565b8060051b61063a8682016105ac565b918252848101860191868101908a841115610653575f80fd5b87870192505b838310156106df57823586811115610670575f8081fd5b8701603f81018c13610681575f8081fd5b8881013560408882111561069757610697610598565b6106a8828901601f19168c016105ac565b8281528e828486010111156106bc575f8081fd5b828285018d8301375f9281018c0192909252508352509187019190870190610659565b9a9950505050505050505050565b602080825282518282018190525f9190848201906040850190845b8181101561072457835183529284019291840191600101610708565b50909695505050505050565b634e487b7160e01b5f52603260045260245ffd5b5f82515f5b818110156107635760208186018101518583015201610749565b505f920191825250919050565b634e487b7160e01b5f52601160045260245ffd5b5f6001820161079557610795610770565b5060010190565b808201808211156107af576107af610770565b92915050565b5f826107cf57634e487b7160e01b5f52601260045260245ffd5b500490565b818103818111156107af576107af61077056fea264697066735822122051beac9c13101915749f5a3dc2354358cf6482f0aee550b324f12446b11d92e664736f6c63430008150033",
			"opcodes": "PUSH1 0x80 PUSH1 0x40 MSTORE CALLVALUE DUP1 ISZERO PUSH2 0xF JUMPI PUSH0 DUP1 REVERT JUMPDEST POP PUSH2 0x81D DUP1 PUSH2 0x1D PUSH0 CODECOPY PUSH0 RETURN INVALID PUSH1 0x80 PUSH1 0x40 MSTORE CALLVALUE DUP1 ISZERO PUSH2 0xF JUMPI PUSH0 DUP1 REVERT JUMPDEST POP PUSH1 0x4 CALLDATASIZE LT PUSH2 0x55 JUMPI PUSH0 CALLDATALOAD PUSH1 0xE0 SHR DUP1 PUSH4 0xDF0FF90 EQ PUSH2 0x59 JUMPI DUP1 PUSH4 0x1752260F EQ PUSH2 0x7F JUMPI DUP1 PUSH4 0x251C9422 EQ PUSH2 0x92 JUMPI DUP1 PUSH4 0xD05F7CA0 EQ PUSH2 0x9B JUMPI DUP1 PUSH4 0xE0B74C2A EQ PUSH2 0xB0 JUMPI JUMPDEST PUSH0 DUP1 REVERT JUMPDEST PUSH2 0x6C PUSH2 0x67 CALLDATASIZE PUSH1 0x4 PUSH2 0x581 JUMP JUMPDEST PUSH2 0xD3 JUMP JUMPDEST PUSH1 0x40 MLOAD SWAP1 DUP2 MSTORE PUSH1 0x20 ADD JUMPDEST PUSH1 0x40 MLOAD DUP1 SWAP2 SUB SWAP1 RETURN JUMPDEST PUSH2 0x6C PUSH2 0x8D CALLDATASIZE PUSH1 0x4 PUSH2 0x5DD JUMP JUMPDEST PUSH2 0xF1 JUMP JUMPDEST PUSH2 0x6C PUSH1 0x1 SLOAD DUP2 JUMP JUMPDEST PUSH2 0xA3 PUSH2 0x218 JUMP JUMPDEST PUSH1 0x40 MLOAD PUSH2 0x76 SWAP2 SWAP1 PUSH2 0x6ED JUMP JUMPDEST PUSH2 0xC3 PUSH2 0xBE CALLDATASIZE PUSH1 0x4 PUSH2 0x5DD JUMP JUMPDEST PUSH2 0x26D JUMP JUMPDEST PUSH1 0x40 MLOAD SWAP1 ISZERO ISZERO DUP2 MSTORE PUSH1 0x20 ADD PUSH2 0x76 JUMP JUMPDEST PUSH0 DUP2 DUP2 SLOAD DUP2 LT PUSH2 0xE1 JUMPI PUSH0 DUP1 REVERT JUMPDEST PUSH0 SWAP2 DUP3 MSTORE PUSH1 0x20 SWAP1 SWAP2 KECCAK256 ADD SLOAD SWAP1 POP DUP2 JUMP JUMPDEST PUSH0 DUP1 DUP3 MLOAD GT PUSH2 0x146 JUMPI PUSH1 0x40 MLOAD PUSH3 0x461BCD PUSH1 0xE5 SHL DUP2 MSTORE PUSH1 0x20 PUSH1 0x4 DUP3 ADD MSTORE PUSH1 0x18 PUSH1 0x24 DUP3 ADD MSTORE PUSH32 0x446174612073686F756C64206E6F7420626520656D7074790000000000000000 PUSH1 0x44 DUP3 ADD MSTORE PUSH1 0x64 ADD PUSH1 0x40 MLOAD DUP1 SWAP2 SUB SWAP1 REVERT JUMPDEST PUSH0 DUP3 MLOAD PUSH8 0xFFFFFFFFFFFFFFFF DUP2 GT ISZERO PUSH2 0x161 JUMPI PUSH2 0x161 PUSH2 0x598 JUMP JUMPDEST PUSH1 0x40 MLOAD SWAP1 DUP1 DUP3 MSTORE DUP1 PUSH1 0x20 MUL PUSH1 0x20 ADD DUP3 ADD PUSH1 0x40 MSTORE DUP1 ISZERO PUSH2 0x18A JUMPI DUP2 PUSH1 0x20 ADD PUSH1 0x20 DUP3 MUL DUP1 CALLDATASIZE DUP4 CALLDATACOPY ADD SWAP1 POP JUMPDEST POP SWAP1 POP PUSH0 JUMPDEST DUP4 MLOAD DUP2 LT ISZERO PUSH2 0x207 JUMPI DUP4 DUP2 DUP2 MLOAD DUP2 LT PUSH2 0x1AA JUMPI PUSH2 0x1AA PUSH2 0x730 JUMP JUMPDEST PUSH1 0x20 MUL PUSH1 0x20 ADD ADD MLOAD PUSH1 0x40 MLOAD PUSH1 0x20 ADD PUSH2 0x1C2 SWAP2 SWAP1 PUSH2 0x744 JUMP JUMPDEST PUSH1 0x40 MLOAD PUSH1 0x20 DUP2 DUP4 SUB SUB DUP2 MSTORE SWAP1 PUSH1 0x40 MSTORE DUP1 MLOAD SWAP1 PUSH1 0x20 ADD KECCAK256 DUP3 DUP3 DUP2 MLOAD DUP2 LT PUSH2 0x1EA JUMPI PUSH2 0x1EA PUSH2 0x730 JUMP JUMPDEST PUSH1 0x20 SWAP1 DUP2 MUL SWAP2 SWAP1 SWAP2 ADD ADD MSTORE DUP1 PUSH2 0x1FF DUP2 PUSH2 0x784 JUMP JUMPDEST SWAP2 POP POP PUSH2 0x18F JUMP JUMPDEST POP PUSH2 0x211 DUP2 PUSH2 0x287 JUMP JUMPDEST SWAP4 SWAP3 POP POP POP JUMP JUMPDEST PUSH1 0x60 PUSH0 DUP1 SLOAD DUP1 PUSH1 0x20 MUL PUSH1 0x20 ADD PUSH1 0x40 MLOAD SWAP1 DUP2 ADD PUSH1 0x40 MSTORE DUP1 SWAP3 SWAP2 SWAP1 DUP2 DUP2 MSTORE PUSH1 0x20 ADD DUP3 DUP1 SLOAD DUP1 ISZERO PUSH2 0x263 JUMPI PUSH1 0x20 MUL DUP3 ADD SWAP2 SWAP1 PUSH0 MSTORE PUSH1 0x20 PUSH0 KECCAK256 SWAP1 JUMPDEST DUP2 SLOAD DUP2 MSTORE PUSH1 0x20 ADD SWAP1 PUSH1 0x1 ADD SWAP1 DUP1 DUP4 GT PUSH2 0x24F JUMPI JUMPDEST POP POP POP POP POP SWAP1 POP SWAP1 JUMP JUMPDEST PUSH1 0x1 SLOAD PUSH0 SWAP1 DUP2 PUSH2 0x27C DUP5 PUSH2 0xF1 JUMP JUMPDEST SWAP2 SWAP1 SWAP2 EQ SWAP4 SWAP3 POP POP POP JUMP JUMPDEST DUP1 MLOAD PUSH0 SWAP1 DUP1 JUMPDEST PUSH1 0x1 DUP2 GT ISZERO PUSH2 0x2D7 JUMPI PUSH1 0x2 PUSH2 0x2A3 DUP3 PUSH1 0x1 PUSH2 0x79C JUMP JUMPDEST PUSH2 0x2AD SWAP2 SWAP1 PUSH2 0x7B5 JUMP JUMPDEST PUSH2 0x2B7 SWAP1 DUP4 PUSH2 0x79C JUMP JUMPDEST SWAP2 POP PUSH1 0x2 PUSH2 0x2C6 DUP3 PUSH1 0x1 PUSH2 0x79C JUMP JUMPDEST PUSH2 0x2D0 SWAP2 SWAP1 PUSH2 0x7B5 JUMP JUMPDEST SWAP1 POP PUSH2 0x28D JUMP JUMPDEST PUSH0 DUP3 PUSH8 0xFFFFFFFFFFFFFFFF DUP2 GT ISZERO PUSH2 0x2F1 JUMPI PUSH2 0x2F1 PUSH2 0x598 JUMP JUMPDEST PUSH1 0x40 MLOAD SWAP1 DUP1 DUP3 MSTORE DUP1 PUSH1 0x20 MUL PUSH1 0x20 ADD DUP3 ADD PUSH1 0x40 MSTORE DUP1 ISZERO PUSH2 0x31A JUMPI DUP2 PUSH1 0x20 ADD PUSH1 0x20 DUP3 MUL DUP1 CALLDATASIZE DUP4 CALLDATACOPY ADD SWAP1 POP JUMPDEST POP SWAP1 POP PUSH0 DUP1 JUMPDEST DUP7 MLOAD DUP2 LT ISZERO PUSH2 0x3A5 JUMPI DUP7 DUP2 DUP2 MLOAD DUP2 LT PUSH2 0x33B JUMPI PUSH2 0x33B PUSH2 0x730 JUMP JUMPDEST PUSH1 0x20 MUL PUSH1 0x20 ADD ADD MLOAD PUSH1 0x40 MLOAD PUSH1 0x20 ADD PUSH2 0x355 SWAP2 DUP2 MSTORE PUSH1 0x20 ADD SWAP1 JUMP JUMPDEST PUSH1 0x40 MLOAD PUSH1 0x20 DUP2 DUP4 SUB SUB DUP2 MSTORE SWAP1 PUSH1 0x40 MSTORE DUP1 MLOAD SWAP1 PUSH1 0x20 ADD KECCAK256 DUP4 DUP3 DUP5 PUSH2 0x378 SWAP2 SWAP1 PUSH2 0x79C JUMP JUMPDEST DUP2 MLOAD DUP2 LT PUSH2 0x388 JUMPI PUSH2 0x388 PUSH2 0x730 JUMP JUMPDEST PUSH1 0x20 SWAP1 DUP2 MUL SWAP2 SWAP1 SWAP2 ADD ADD MSTORE DUP1 PUSH2 0x39D DUP2 PUSH2 0x784 JUMP JUMPDEST SWAP2 POP POP PUSH2 0x320 JUMP JUMPDEST POP DUP6 MLOAD JUMPDEST PUSH1 0x1 DUP2 GT ISZERO PUSH2 0x4D5 JUMPI PUSH0 JUMPDEST DUP2 DUP2 LT ISZERO PUSH2 0x4AA JUMPI PUSH0 DUP5 PUSH2 0x3C8 DUP4 DUP7 PUSH2 0x79C JUMP JUMPDEST DUP2 MLOAD DUP2 LT PUSH2 0x3D8 JUMPI PUSH2 0x3D8 PUSH2 0x730 JUMP JUMPDEST PUSH1 0x20 MUL PUSH1 0x20 ADD ADD MLOAD SWAP1 POP PUSH0 DUP4 DUP4 PUSH1 0x1 PUSH2 0x3F1 SWAP2 SWAP1 PUSH2 0x79C JUMP JUMPDEST LT PUSH2 0x3FC JUMPI PUSH0 PUSH2 0x42B JUMP JUMPDEST DUP6 PUSH2 0x407 DUP5 DUP8 PUSH2 0x79C JUMP JUMPDEST PUSH2 0x412 SWAP1 PUSH1 0x1 PUSH2 0x79C JUMP JUMPDEST DUP2 MLOAD DUP2 LT PUSH2 0x422 JUMPI PUSH2 0x422 PUSH2 0x730 JUMP JUMPDEST PUSH1 0x20 MUL PUSH1 0x20 ADD ADD MLOAD JUMPDEST PUSH1 0x40 DUP1 MLOAD PUSH1 0x20 DUP2 ADD DUP6 SWAP1 MSTORE SWAP1 DUP2 ADD DUP3 SWAP1 MSTORE SWAP1 SWAP2 POP PUSH1 0x60 ADD PUSH1 0x40 MLOAD PUSH1 0x20 DUP2 DUP4 SUB SUB DUP2 MSTORE SWAP1 PUSH1 0x40 MSTORE DUP1 MLOAD SWAP1 PUSH1 0x20 ADD KECCAK256 DUP7 PUSH1 0x2 DUP6 PUSH2 0x466 SWAP2 SWAP1 PUSH2 0x7B5 JUMP JUMPDEST PUSH2 0x470 DUP8 DUP10 PUSH2 0x79C JUMP JUMPDEST PUSH2 0x47A SWAP2 SWAP1 PUSH2 0x79C JUMP JUMPDEST DUP2 MLOAD DUP2 LT PUSH2 0x48A JUMPI PUSH2 0x48A PUSH2 0x730 JUMP JUMPDEST PUSH1 0x20 SWAP1 DUP2 MUL SWAP2 SWAP1 SWAP2 ADD ADD MSTORE POP PUSH2 0x4A3 SWAP1 POP PUSH1 0x2 DUP3 PUSH2 0x79C JUMP JUMPDEST SWAP1 POP PUSH2 0x3B4 JUMP JUMPDEST POP PUSH2 0x4B5 DUP2 DUP4 PUSH2 0x79C JUMP JUMPDEST SWAP2 POP PUSH1 0x2 PUSH2 0x4C4 DUP3 PUSH1 0x1 PUSH2 0x79C JUMP JUMPDEST PUSH2 0x4CE SWAP2 SWAP1 PUSH2 0x7B5 JUMP JUMPDEST SWAP1 POP PUSH2 0x3A9 JUMP JUMPDEST DUP3 MLOAD PUSH2 0x4E7 SWAP1 PUSH0 SWAP1 PUSH1 0x20 DUP7 ADD SWAP1 PUSH2 0x524 JUMP JUMPDEST POP DUP3 PUSH1 0x1 DUP5 MLOAD PUSH2 0x4F7 SWAP2 SWAP1 PUSH2 0x7D4 JUMP JUMPDEST DUP2 MLOAD DUP2 LT PUSH2 0x507 JUMPI PUSH2 0x507 PUSH2 0x730 JUMP JUMPDEST PUSH1 0x20 MUL PUSH1 0x20 ADD ADD MLOAD PUSH1 0x1 DUP2 SWAP1 SSTORE POP PUSH1 0x1 SLOAD SWAP6 POP POP POP POP POP POP SWAP2 SWAP1 POP JUMP JUMPDEST DUP3 DUP1 SLOAD DUP3 DUP3 SSTORE SWAP1 PUSH0 MSTORE PUSH1 0x20 PUSH0 KECCAK256 SWAP1 DUP2 ADD SWAP3 DUP3 ISZERO PUSH2 0x55D JUMPI SWAP2 PUSH1 0x20 MUL DUP3 ADD JUMPDEST DUP3 DUP2 GT ISZERO PUSH2 0x55D JUMPI DUP3 MLOAD DUP3 SSTORE SWAP2 PUSH1 0x20 ADD SWAP2 SWAP1 PUSH1 0x1 ADD SWAP1 PUSH2 0x542 JUMP JUMPDEST POP PUSH2 0x569 SWAP3 SWAP2 POP PUSH2 0x56D JUMP JUMPDEST POP SWAP1 JUMP JUMPDEST JUMPDEST DUP1 DUP3 GT ISZERO PUSH2 0x569 JUMPI PUSH0 DUP2 SSTORE PUSH1 0x1 ADD PUSH2 0x56E JUMP JUMPDEST PUSH0 PUSH1 0x20 DUP3 DUP5 SUB SLT ISZERO PUSH2 0x591 JUMPI PUSH0 DUP1 REVERT JUMPDEST POP CALLDATALOAD SWAP2 SWAP1 POP JUMP JUMPDEST PUSH4 0x4E487B71 PUSH1 0xE0 SHL PUSH0 MSTORE PUSH1 0x41 PUSH1 0x4 MSTORE PUSH1 0x24 PUSH0 REVERT JUMPDEST PUSH1 0x40 MLOAD PUSH1 0x1F DUP3 ADD PUSH1 0x1F NOT AND DUP2 ADD PUSH8 0xFFFFFFFFFFFFFFFF DUP2 GT DUP3 DUP3 LT OR ISZERO PUSH2 0x5D5 JUMPI PUSH2 0x5D5 PUSH2 0x598 JUMP JUMPDEST PUSH1 0x40 MSTORE SWAP2 SWAP1 POP JUMP JUMPDEST PUSH0 PUSH1 0x20 DUP1 DUP4 DUP6 SUB SLT ISZERO PUSH2 0x5EE JUMPI PUSH0 DUP1 REVERT JUMPDEST DUP3 CALLDATALOAD PUSH8 0xFFFFFFFFFFFFFFFF DUP1 DUP3 GT ISZERO PUSH2 0x605 JUMPI PUSH0 DUP1 REVERT JUMPDEST DUP2 DUP6 ADD SWAP2 POP PUSH1 0x1F DUP7 DUP2 DUP5 ADD SLT PUSH2 0x619 JUMPI PUSH0 DUP1 REVERT JUMPDEST DUP3 CALLDATALOAD DUP3 DUP2 GT ISZERO PUSH2 0x62B JUMPI PUSH2 0x62B PUSH2 0x598 JUMP JUMPDEST DUP1 PUSH1 0x5 SHL PUSH2 0x63A DUP7 DUP3 ADD PUSH2 0x5AC JUMP JUMPDEST SWAP2 DUP3 MSTORE DUP5 DUP2 ADD DUP7 ADD SWAP2 DUP7 DUP2 ADD SWAP1 DUP11 DUP5 GT ISZERO PUSH2 0x653 JUMPI PUSH0 DUP1 REVERT JUMPDEST DUP8 DUP8 ADD SWAP3 POP JUMPDEST DUP4 DUP4 LT ISZERO PUSH2 0x6DF JUMPI DUP3 CALLDATALOAD DUP7 DUP2 GT ISZERO PUSH2 0x670 JUMPI PUSH0 DUP1 DUP2 REVERT JUMPDEST DUP8 ADD PUSH1 0x3F DUP2 ADD DUP13 SGT PUSH2 0x681 JUMPI PUSH0 DUP1 DUP2 REVERT JUMPDEST DUP9 DUP2 ADD CALLDATALOAD PUSH1 0x40 DUP9 DUP3 GT ISZERO PUSH2 0x697 JUMPI PUSH2 0x697 PUSH2 0x598 JUMP JUMPDEST PUSH2 0x6A8 DUP3 DUP10 ADD PUSH1 0x1F NOT AND DUP13 ADD PUSH2 0x5AC JUMP JUMPDEST DUP3 DUP2 MSTORE DUP15 DUP3 DUP5 DUP7 ADD ADD GT ISZERO PUSH2 0x6BC JUMPI PUSH0 DUP1 DUP2 REVERT JUMPDEST DUP3 DUP3 DUP6 ADD DUP14 DUP4 ADD CALLDATACOPY PUSH0 SWAP3 DUP2 ADD DUP13 ADD SWAP3 SWAP1 SWAP3 MSTORE POP DUP4 MSTORE POP SWAP2 DUP8 ADD SWAP2 SWAP1 DUP8 ADD SWAP1 PUSH2 0x659 JUMP JUMPDEST SWAP11 SWAP10 POP POP POP POP POP POP POP POP POP POP JUMP JUMPDEST PUSH1 0x20 DUP1 DUP3 MSTORE DUP3 MLOAD DUP3 DUP3 ADD DUP2 SWAP1 MSTORE PUSH0 SWAP2 SWAP1 DUP5 DUP3 ADD SWAP1 PUSH1 0x40 DUP6 ADD SWAP1 DUP5 JUMPDEST DUP2 DUP2 LT ISZERO PUSH2 0x724 JUMPI DUP4 MLOAD DUP4 MSTORE SWAP3 DUP5 ADD SWAP3 SWAP2 DUP5 ADD SWAP2 PUSH1 0x1 ADD PUSH2 0x708 JUMP JUMPDEST POP SWAP1 SWAP7 SWAP6 POP POP POP POP POP POP JUMP JUMPDEST PUSH4 0x4E487B71 PUSH1 0xE0 SHL PUSH0 MSTORE PUSH1 0x32 PUSH1 0x4 MSTORE PUSH1 0x24 PUSH0 REVERT JUMPDEST PUSH0 DUP3 MLOAD PUSH0 JUMPDEST DUP2 DUP2 LT ISZERO PUSH2 0x763 JUMPI PUSH1 0x20 DUP2 DUP7 ADD DUP2 ADD MLOAD DUP6 DUP4 ADD MSTORE ADD PUSH2 0x749 JUMP JUMPDEST POP PUSH0 SWAP3 ADD SWAP2 DUP3 MSTORE POP SWAP2 SWAP1 POP JUMP JUMPDEST PUSH4 0x4E487B71 PUSH1 0xE0 SHL PUSH0 MSTORE PUSH1 0x11 PUSH1 0x4 MSTORE PUSH1 0x24 PUSH0 REVERT JUMPDEST PUSH0 PUSH1 0x1 DUP3 ADD PUSH2 0x795 JUMPI PUSH2 0x795 PUSH2 0x770 JUMP JUMPDEST POP PUSH1 0x1 ADD SWAP1 JUMP JUMPDEST DUP1 DUP3 ADD DUP1 DUP3 GT ISZERO PUSH2 0x7AF JUMPI PUSH2 0x7AF PUSH2 0x770 JUMP JUMPDEST SWAP3 SWAP2 POP POP JUMP JUMPDEST PUSH0 DUP3 PUSH2 0x7CF JUMPI PUSH4 0x4E487B71 PUSH1 0xE0 SHL PUSH0 MSTORE PUSH1 0x12 PUSH1 0x4 MSTORE PUSH1 0x24 PUSH0 REVERT JUMPDEST POP DIV SWAP1 JUMP JUMPDEST DUP2 DUP2 SUB DUP2 DUP2 GT ISZERO PUSH2 0x7AF JUMPI PUSH2 0x7AF PUSH2 0x770 JUMP INVALID LOG2 PUSH5 0x6970667358 0x22 SLT KECCAK256 MLOAD 0xBE 0xAC SWAP13 SGT LT NOT ISZERO PUSH21 0x9F5A3DC2354358CF6482F0AEE550B324F12446B11D SWAP3 0xE6 PUSH5 0x736F6C6343 STOP ADDMOD ISZERO STOP CALLER "
		},
		"gasEstimates": {
			"creation": {
				"codeDepositCost": "415400",
				"executionCost": "447",
				"totalCost": "415847"
			},
			"external": {
				"constructMerkleTreeFromAddresses(string[])": "infinite",
				"getMerkleTree()": "infinite",
				"merkleTree(uint256)": "4538",
				"roothash()": "2305",
				"verfied(string[])": "infinite"
			},
			"internal": {
				"constructMerkleTree(bytes32[] memory)": "infinite"
			}
		},
		"methodIdentifiers": {
			"constructMerkleTreeFromAddresses(string[])": "1752260f",
			"getMerkleTree()": "d05f7ca0",
			"merkleTree(uint256)": "0df0ff90",
			"roothash()": "251c9422",
			"verfied(string[])": "e0b74c2a"
		}
	},
	"abi": [
		{
			"inputs": [
				{
					"internalType": "string[]",
					"name": "data",
					"type": "string[]"
				}
			],
			"name": "constructMerkleTreeFromAddresses",
			"outputs": [
				{
					"internalType": "bytes32",
					"name": "",
					"type": "bytes32"
				}
			],
			"stateMutability": "nonpayable",
			"type": "function"
		},
		{
			"inputs": [],
			"name": "getMerkleTree",
			"outputs": [
				{
					"internalType": "bytes32[]",
					"name": "",
					"type": "bytes32[]"
				}
			],
			"stateMutability": "view",
			"type": "function"
		},
		{
			"inputs": [
				{
					"internalType": "uint256",
					"name": "",
					"type": "uint256"
				}
			],
			"name": "merkleTree",
			"outputs": [
				{
					"internalType": "bytes32",
					"name": "",
					"type": "bytes32"
				}
			],
			"stateMutability": "view",
			"type": "function"
		},
		{
			"inputs": [],
			"name": "roothash",
			"outputs": [
				{
					"internalType": "bytes32",
					"name": "",
					"type": "bytes32"
				}
			],
			"stateMutability": "view",
			"type": "function"
		},
		{
			"inputs": [
				{
					"internalType": "string[]",
					"name": "current",
					"type": "string[]"
				}
			],
			"name": "verfied",
			"outputs": [
				{
					"internalType": "bool",
					"name": "",
					"type": "bool"
				}
			],
			"stateMutability": "nonpayable",
			"type": "function"
		}
	]
}