{
	"data": {
		"bytecode": {
			"linkReferences": {},
			"object": "608060405234801561000f575f80fd5b50610d248061001d5f395ff3fe608060405234801561000f575f80fd5b5060043610610085575f3560e01c8063910cfa7311610058578063910cfa73146100e6578063a443df9414610106578063cee26ed514610131578063feb026ee14610144575f80fd5b80632ab23fc9146100895780632ce37b101461009e57806342b6d145146100b35780638c7c2399146100c6575b5f80fd5b61009c61009736600461086f565b610157565b005b5f546040519081526020015b60405180910390f35b61009c6100c13660046108bb565b610253565b6100d96100d4366004610978565b610345565b6040516100aa91906109db565b6100f96100f43660046109f4565b610400565b6040516100aa9190610a0b565b6101196101143660046109f4565b610535565b6040516001600160a01b0390911681526020016100aa565b61011961013f3660046109f4565b61055d565b61009c610152366004610978565b61056c565b5f5483106101a75760405162461bcd60e51b81526020600482015260186024820152774c69737420696e646578206f7574206f6620626f756e647360401b60448201526064015b60405180910390fd5b5f83815481106101b9576101b9610a6b565b5f91825260209091200154821061020d5760405162461bcd60e51b8152602060048201526018602482015277496e666f20696e646578206f7574206f6620626f756e647360401b604482015260640161019e565b805f848154811061022057610220610a6b565b905f5260205f2001838154811061023957610239610a6b565b905f5260205f2001908161024d9190610b04565b50505050565b5f805b6001548110156102a8576001818154811061027357610273610a6b565b5f918252602090912001546001600160a01b0316330361029657600191506102a8565b806102a081610bd4565b915050610256565b50806103015760405162461bcd60e51b815260206004820152602260248201527f4f6e6c792073656c6c65722063616e2063616c6c20746869732066756e63746960448201526137b760f11b606482015260840161019e565b5f80546001810182559080528251610340917f290decd9548b62a8d60345a988386fc84ba6bc95484008f6362f93160ef3e56301906020850190610700565b505050565b5f8281548110610353575f80fd5b905f5260205f20018181548110610368575f80fd5b905f5260205f20015f9150915050805461038190610a7f565b80601f01602080910402602001604051908101604052809291908181526020018280546103ad90610a7f565b80156103f85780601f106103cf576101008083540402835291602001916103f8565b820191905f5260205f20905b8154815290600101906020018083116103db57829003601f168201915b505050505081565b5f5460609082106104495760405162461bcd60e51b8152602060048201526013602482015272496e646578206f7574206f6620626f756e647360681b604482015260640161019e565b5f828154811061045b5761045b610a6b565b905f5260205f2001805480602002602001604051908101604052809291908181526020015f905b8282101561052a578382905f5260205f2001805461049f90610a7f565b80601f01602080910402602001604051908101604052809291908181526020018280546104cb90610a7f565b80156105165780601f106104ed57610100808354040283529160200191610516565b820191905f5260205f20905b8154815290600101906020018083116104f957829003601f168201915b505050505081526020019060010190610482565b505050509050919050565b60028181548110610544575f80fd5b5f918252602090912001546001600160a01b0316905081565b60018181548110610544575f80fd5b5f5482106105b75760405162461bcd60e51b81526020600482015260186024820152774c69737420696e646578206f7574206f6620626f756e647360401b604482015260640161019e565b5f82815481106105c9576105c9610a6b565b5f91825260209091200154811061061d5760405162461bcd60e51b8152602060048201526018602482015277496e666f20696e646578206f7574206f6620626f756e647360401b604482015260640161019e565b5f828154811061062f5761062f610a6b565b905f5260205f200160015f848154811061064b5761064b610a6b565b5f918252602090912001546106609190610bec565b8154811061067057610670610a6b565b905f5260205f20015f838154811061068a5761068a610a6b565b905f5260205f200182815481106106a3576106a3610a6b565b905f5260205f200190816106b79190610c05565b505f82815481106106ca576106ca610a6b565b905f5260205f20018054806106e1576106e1610cda565b600190038181905f5260205f20015f6106fa9190610754565b90555050565b828054828255905f5260205f20908101928215610744579160200282015b8281111561074457825182906107349082610b04565b509160200191906001019061071e565b5061075092915061078e565b5090565b50805461076090610a7f565b5f825580601f1061076f575050565b601f0160209004905f5260205f209081019061078b91906107aa565b50565b80821115610750575f6107a18282610754565b5060010161078e565b5b80821115610750575f81556001016107ab565b634e487b7160e01b5f52604160045260245ffd5b604051601f8201601f1916810167ffffffffffffffff811182821017156107fb576107fb6107be565b604052919050565b5f82601f830112610812575f80fd5b813567ffffffffffffffff81111561082c5761082c6107be565b61083f601f8201601f19166020016107d2565b818152846020838601011115610853575f80fd5b816020850160208301375f918101602001919091529392505050565b5f805f60608486031215610881575f80fd5b8335925060208401359150604084013567ffffffffffffffff8111156108a5575f80fd5b6108b186828701610803565b9150509250925092565b5f60208083850312156108cc575f80fd5b823567ffffffffffffffff808211156108e3575f80fd5b818501915085601f8301126108f6575f80fd5b813581811115610908576109086107be565b8060051b6109178582016107d2565b9182528381018501918581019089841115610930575f80fd5b86860192505b8383101561096b5782358581111561094d575f8081fd5b61095b8b89838a0101610803565b8352509186019190860190610936565b9998505050505050505050565b5f8060408385031215610989575f80fd5b50508035926020909101359150565b5f81518084525f5b818110156109bc576020818501810151868301820152016109a0565b505f602082860101526020601f19601f83011685010191505092915050565b602081525f6109ed6020830184610998565b9392505050565b5f60208284031215610a04575f80fd5b5035919050565b5f602080830181845280855180835260408601915060408160051b87010192508387015f5b82811015610a5e57603f19888603018452610a4c858351610998565b94509285019290850190600101610a30565b5092979650505050505050565b634e487b7160e01b5f52603260045260245ffd5b600181811c90821680610a9357607f821691505b602082108103610ab157634e487b7160e01b5f52602260045260245ffd5b50919050565b601f821115610340575f81815260208120601f850160051c81016020861015610add5750805b601f850160051c820191505b81811015610afc57828155600101610ae9565b505050505050565b815167ffffffffffffffff811115610b1e57610b1e6107be565b610b3281610b2c8454610a7f565b84610ab7565b602080601f831160018114610b65575f8415610b4e5750858301515b5f19600386901b1c1916600185901b178555610afc565b5f85815260208120601f198616915b82811015610b9357888601518255948401946001909101908401610b74565b5085821015610bb057878501515f19600388901b60f8161c191681555b5050505050600190811b01905550565b634e487b7160e01b5f52601160045260245ffd5b5f60018201610be557610be5610bc0565b5060010190565b81810381811115610bff57610bff610bc0565b92915050565b818103610c10575050565b610c1a8254610a7f565b67ffffffffffffffff811115610c3257610c326107be565b610c4081610b2c8454610a7f565b5f601f821160018114610c71575f8315610c5a5750848201545b5f19600385901b1c1916600184901b178455610cd3565b5f85815260209020601f198416905f86815260209020845b83811015610ca95782860154825560019586019590910190602001610c89565b5085831015610cc657818501545f19600388901b60f8161c191681555b50505060018360011b0184555b5050505050565b634e487b7160e01b5f52603160045260245ffdfea26469706673582212202fcb4c5c261f0dd07877a6c1d5ee424b4c8022a5f66b13fc7714b91a998287d164736f6c63430008150033",
			"opcodes": "PUSH1 0x80 PUSH1 0x40 MSTORE CALLVALUE DUP1 ISZERO PUSH2 0xF JUMPI PUSH0 DUP1 REVERT JUMPDEST POP PUSH2 0xD24 DUP1 PUSH2 0x1D PUSH0 CODECOPY PUSH0 RETURN INVALID PUSH1 0x80 PUSH1 0x40 MSTORE CALLVALUE DUP1 ISZERO PUSH2 0xF JUMPI PUSH0 DUP1 REVERT JUMPDEST POP PUSH1 0x4 CALLDATASIZE LT PUSH2 0x85 JUMPI PUSH0 CALLDATALOAD PUSH1 0xE0 SHR DUP1 PUSH4 0x910CFA73 GT PUSH2 0x58 JUMPI DUP1 PUSH4 0x910CFA73 EQ PUSH2 0xE6 JUMPI DUP1 PUSH4 0xA443DF94 EQ PUSH2 0x106 JUMPI DUP1 PUSH4 0xCEE26ED5 EQ PUSH2 0x131 JUMPI DUP1 PUSH4 0xFEB026EE EQ PUSH2 0x144 JUMPI PUSH0 DUP1 REVERT JUMPDEST DUP1 PUSH4 0x2AB23FC9 EQ PUSH2 0x89 JUMPI DUP1 PUSH4 0x2CE37B10 EQ PUSH2 0x9E JUMPI DUP1 PUSH4 0x42B6D145 EQ PUSH2 0xB3 JUMPI DUP1 PUSH4 0x8C7C2399 EQ PUSH2 0xC6 JUMPI JUMPDEST PUSH0 DUP1 REVERT JUMPDEST PUSH2 0x9C PUSH2 0x97 CALLDATASIZE PUSH1 0x4 PUSH2 0x86F JUMP JUMPDEST PUSH2 0x157 JUMP JUMPDEST STOP JUMPDEST PUSH0 SLOAD PUSH1 0x40 MLOAD SWAP1 DUP2 MSTORE PUSH1 0x20 ADD JUMPDEST PUSH1 0x40 MLOAD DUP1 SWAP2 SUB SWAP1 RETURN JUMPDEST PUSH2 0x9C PUSH2 0xC1 CALLDATASIZE PUSH1 0x4 PUSH2 0x8BB JUMP JUMPDEST PUSH2 0x253 JUMP JUMPDEST PUSH2 0xD9 PUSH2 0xD4 CALLDATASIZE PUSH1 0x4 PUSH2 0x978 JUMP JUMPDEST PUSH2 0x345 JUMP JUMPDEST PUSH1 0x40 MLOAD PUSH2 0xAA SWAP2 SWAP1 PUSH2 0x9DB JUMP JUMPDEST PUSH2 0xF9 PUSH2 0xF4 CALLDATASIZE PUSH1 0x4 PUSH2 0x9F4 JUMP JUMPDEST PUSH2 0x400 JUMP JUMPDEST PUSH1 0x40 MLOAD PUSH2 0xAA SWAP2 SWAP1 PUSH2 0xA0B JUMP JUMPDEST PUSH2 0x119 PUSH2 0x114 CALLDATASIZE PUSH1 0x4 PUSH2 0x9F4 JUMP JUMPDEST PUSH2 0x535 JUMP JUMPDEST PUSH1 0x40 MLOAD PUSH1 0x1 PUSH1 0x1 PUSH1 0xA0 SHL SUB SWAP1 SWAP2 AND DUP2 MSTORE PUSH1 0x20 ADD PUSH2 0xAA JUMP JUMPDEST PUSH2 0x119 PUSH2 0x13F CALLDATASIZE PUSH1 0x4 PUSH2 0x9F4 JUMP JUMPDEST PUSH2 0x55D JUMP JUMPDEST PUSH2 0x9C PUSH2 0x152 CALLDATASIZE PUSH1 0x4 PUSH2 0x978 JUMP JUMPDEST PUSH2 0x56C JUMP JUMPDEST PUSH0 SLOAD DUP4 LT PUSH2 0x1A7 JUMPI PUSH1 0x40 MLOAD PUSH3 0x461BCD PUSH1 0xE5 SHL DUP2 MSTORE PUSH1 0x20 PUSH1 0x4 DUP3 ADD MSTORE PUSH1 0x18 PUSH1 0x24 DUP3 ADD MSTORE PUSH24 0x4C69737420696E646578206F7574206F6620626F756E6473 PUSH1 0x40 SHL PUSH1 0x44 DUP3 ADD MSTORE PUSH1 0x64 ADD JUMPDEST PUSH1 0x40 MLOAD DUP1 SWAP2 SUB SWAP1 REVERT JUMPDEST PUSH0 DUP4 DUP2 SLOAD DUP2 LT PUSH2 0x1B9 JUMPI PUSH2 0x1B9 PUSH2 0xA6B JUMP JUMPDEST PUSH0 SWAP2 DUP3 MSTORE PUSH1 0x20 SWAP1 SWAP2 KECCAK256 ADD SLOAD DUP3 LT PUSH2 0x20D JUMPI PUSH1 0x40 MLOAD PUSH3 0x461BCD PUSH1 0xE5 SHL DUP2 MSTORE PUSH1 0x20 PUSH1 0x4 DUP3 ADD MSTORE PUSH1 0x18 PUSH1 0x24 DUP3 ADD MSTORE PUSH24 0x496E666F20696E646578206F7574206F6620626F756E6473 PUSH1 0x40 SHL PUSH1 0x44 DUP3 ADD MSTORE PUSH1 0x64 ADD PUSH2 0x19E JUMP JUMPDEST DUP1 PUSH0 DUP5 DUP2 SLOAD DUP2 LT PUSH2 0x220 JUMPI PUSH2 0x220 PUSH2 0xA6B JUMP JUMPDEST SWAP1 PUSH0 MSTORE PUSH1 0x20 PUSH0 KECCAK256 ADD DUP4 DUP2 SLOAD DUP2 LT PUSH2 0x239 JUMPI PUSH2 0x239 PUSH2 0xA6B JUMP JUMPDEST SWAP1 PUSH0 MSTORE PUSH1 0x20 PUSH0 KECCAK256 ADD SWAP1 DUP2 PUSH2 0x24D SWAP2 SWAP1 PUSH2 0xB04 JUMP JUMPDEST POP POP POP POP JUMP JUMPDEST PUSH0 DUP1 JUMPDEST PUSH1 0x1 SLOAD DUP2 LT ISZERO PUSH2 0x2A8 JUMPI PUSH1 0x1 DUP2 DUP2 SLOAD DUP2 LT PUSH2 0x273 JUMPI PUSH2 0x273 PUSH2 0xA6B JUMP JUMPDEST PUSH0 SWAP2 DUP3 MSTORE PUSH1 0x20 SWAP1 SWAP2 KECCAK256 ADD SLOAD PUSH1 0x1 PUSH1 0x1 PUSH1 0xA0 SHL SUB AND CALLER SUB PUSH2 0x296 JUMPI PUSH1 0x1 SWAP2 POP PUSH2 0x2A8 JUMP JUMPDEST DUP1 PUSH2 0x2A0 DUP2 PUSH2 0xBD4 JUMP JUMPDEST SWAP2 POP POP PUSH2 0x256 JUMP JUMPDEST POP DUP1 PUSH2 0x301 JUMPI PUSH1 0x40 MLOAD PUSH3 0x461BCD PUSH1 0xE5 SHL DUP2 MSTORE PUSH1 0x20 PUSH1 0x4 DUP3 ADD MSTORE PUSH1 0x22 PUSH1 0x24 DUP3 ADD MSTORE PUSH32 0x4F6E6C792073656C6C65722063616E2063616C6C20746869732066756E637469 PUSH1 0x44 DUP3 ADD MSTORE PUSH2 0x37B7 PUSH1 0xF1 SHL PUSH1 0x64 DUP3 ADD MSTORE PUSH1 0x84 ADD PUSH2 0x19E JUMP JUMPDEST PUSH0 DUP1 SLOAD PUSH1 0x1 DUP2 ADD DUP3 SSTORE SWAP1 DUP1 MSTORE DUP3 MLOAD PUSH2 0x340 SWAP2 PUSH32 0x290DECD9548B62A8D60345A988386FC84BA6BC95484008F6362F93160EF3E563 ADD SWAP1 PUSH1 0x20 DUP6 ADD SWAP1 PUSH2 0x700 JUMP JUMPDEST POP POP POP JUMP JUMPDEST PUSH0 DUP3 DUP2 SLOAD DUP2 LT PUSH2 0x353 JUMPI PUSH0 DUP1 REVERT JUMPDEST SWAP1 PUSH0 MSTORE PUSH1 0x20 PUSH0 KECCAK256 ADD DUP2 DUP2 SLOAD DUP2 LT PUSH2 0x368 JUMPI PUSH0 DUP1 REVERT JUMPDEST SWAP1 PUSH0 MSTORE PUSH1 0x20 PUSH0 KECCAK256 ADD PUSH0 SWAP2 POP SWAP2 POP POP DUP1 SLOAD PUSH2 0x381 SWAP1 PUSH2 0xA7F JUMP JUMPDEST DUP1 PUSH1 0x1F ADD PUSH1 0x20 DUP1 SWAP2 DIV MUL PUSH1 0x20 ADD PUSH1 0x40 MLOAD SWAP1 DUP2 ADD PUSH1 0x40 MSTORE DUP1 SWAP3 SWAP2 SWAP1 DUP2 DUP2 MSTORE PUSH1 0x20 ADD DUP3 DUP1 SLOAD PUSH2 0x3AD SWAP1 PUSH2 0xA7F JUMP JUMPDEST DUP1 ISZERO PUSH2 0x3F8 JUMPI DUP1 PUSH1 0x1F LT PUSH2 0x3CF JUMPI PUSH2 0x100 DUP1 DUP4 SLOAD DIV MUL DUP4 MSTORE SWAP2 PUSH1 0x20 ADD SWAP2 PUSH2 0x3F8 JUMP JUMPDEST DUP3 ADD SWAP2 SWAP1 PUSH0 MSTORE PUSH1 0x20 PUSH0 KECCAK256 SWAP1 JUMPDEST DUP2 SLOAD DUP2 MSTORE SWAP1 PUSH1 0x1 ADD SWAP1 PUSH1 0x20 ADD DUP1 DUP4 GT PUSH2 0x3DB JUMPI DUP3 SWAP1 SUB PUSH1 0x1F AND DUP3 ADD SWAP2 JUMPDEST POP POP POP POP POP DUP2 JUMP JUMPDEST PUSH0 SLOAD PUSH1 0x60 SWAP1 DUP3 LT PUSH2 0x449 JUMPI PUSH1 0x40 MLOAD PUSH3 0x461BCD PUSH1 0xE5 SHL DUP2 MSTORE PUSH1 0x20 PUSH1 0x4 DUP3 ADD MSTORE PUSH1 0x13 PUSH1 0x24 DUP3 ADD MSTORE PUSH19 0x496E646578206F7574206F6620626F756E6473 PUSH1 0x68 SHL PUSH1 0x44 DUP3 ADD MSTORE PUSH1 0x64 ADD PUSH2 0x19E JUMP JUMPDEST PUSH0 DUP3 DUP2 SLOAD DUP2 LT PUSH2 0x45B JUMPI PUSH2 0x45B PUSH2 0xA6B JUMP JUMPDEST SWAP1 PUSH0 MSTORE PUSH1 0x20 PUSH0 KECCAK256 ADD DUP1 SLOAD DUP1 PUSH1 0x20 MUL PUSH1 0x20 ADD PUSH1 0x40 MLOAD SWAP1 DUP2 ADD PUSH1 0x40 MSTORE DUP1 SWAP3 SWAP2 SWAP1 DUP2 DUP2 MSTORE PUSH1 0x20 ADD PUSH0 SWAP1 JUMPDEST DUP3 DUP3 LT ISZERO PUSH2 0x52A JUMPI DUP4 DUP3 SWAP1 PUSH0 MSTORE PUSH1 0x20 PUSH0 KECCAK256 ADD DUP1 SLOAD PUSH2 0x49F SWAP1 PUSH2 0xA7F JUMP JUMPDEST DUP1 PUSH1 0x1F ADD PUSH1 0x20 DUP1 SWAP2 DIV MUL PUSH1 0x20 ADD PUSH1 0x40 MLOAD SWAP1 DUP2 ADD PUSH1 0x40 MSTORE DUP1 SWAP3 SWAP2 SWAP1 DUP2 DUP2 MSTORE PUSH1 0x20 ADD DUP3 DUP1 SLOAD PUSH2 0x4CB SWAP1 PUSH2 0xA7F JUMP JUMPDEST DUP1 ISZERO PUSH2 0x516 JUMPI DUP1 PUSH1 0x1F LT PUSH2 0x4ED JUMPI PUSH2 0x100 DUP1 DUP4 SLOAD DIV MUL DUP4 MSTORE SWAP2 PUSH1 0x20 ADD SWAP2 PUSH2 0x516 JUMP JUMPDEST DUP3 ADD SWAP2 SWAP1 PUSH0 MSTORE PUSH1 0x20 PUSH0 KECCAK256 SWAP1 JUMPDEST DUP2 SLOAD DUP2 MSTORE SWAP1 PUSH1 0x1 ADD SWAP1 PUSH1 0x20 ADD DUP1 DUP4 GT PUSH2 0x4F9 JUMPI DUP3 SWAP1 SUB PUSH1 0x1F AND DUP3 ADD SWAP2 JUMPDEST POP POP POP POP POP DUP2 MSTORE PUSH1 0x20 ADD SWAP1 PUSH1 0x1 ADD SWAP1 PUSH2 0x482 JUMP JUMPDEST POP POP POP POP SWAP1 POP SWAP2 SWAP1 POP JUMP JUMPDEST PUSH1 0x2 DUP2 DUP2 SLOAD DUP2 LT PUSH2 0x544 JUMPI PUSH0 DUP1 REVERT JUMPDEST PUSH0 SWAP2 DUP3 MSTORE PUSH1 0x20 SWAP1 SWAP2 KECCAK256 ADD SLOAD PUSH1 0x1 PUSH1 0x1 PUSH1 0xA0 SHL SUB AND SWAP1 POP DUP2 JUMP JUMPDEST PUSH1 0x1 DUP2 DUP2 SLOAD DUP2 LT PUSH2 0x544 JUMPI PUSH0 DUP1 REVERT JUMPDEST PUSH0 SLOAD DUP3 LT PUSH2 0x5B7 JUMPI PUSH1 0x40 MLOAD PUSH3 0x461BCD PUSH1 0xE5 SHL DUP2 MSTORE PUSH1 0x20 PUSH1 0x4 DUP3 ADD MSTORE PUSH1 0x18 PUSH1 0x24 DUP3 ADD MSTORE PUSH24 0x4C69737420696E646578206F7574206F6620626F756E6473 PUSH1 0x40 SHL PUSH1 0x44 DUP3 ADD MSTORE PUSH1 0x64 ADD PUSH2 0x19E JUMP JUMPDEST PUSH0 DUP3 DUP2 SLOAD DUP2 LT PUSH2 0x5C9 JUMPI PUSH2 0x5C9 PUSH2 0xA6B JUMP JUMPDEST PUSH0 SWAP2 DUP3 MSTORE PUSH1 0x20 SWAP1 SWAP2 KECCAK256 ADD SLOAD DUP2 LT PUSH2 0x61D JUMPI PUSH1 0x40 MLOAD PUSH3 0x461BCD PUSH1 0xE5 SHL DUP2 MSTORE PUSH1 0x20 PUSH1 0x4 DUP3 ADD MSTORE PUSH1 0x18 PUSH1 0x24 DUP3 ADD MSTORE PUSH24 0x496E666F20696E646578206F7574206F6620626F756E6473 PUSH1 0x40 SHL PUSH1 0x44 DUP3 ADD MSTORE PUSH1 0x64 ADD PUSH2 0x19E JUMP JUMPDEST PUSH0 DUP3 DUP2 SLOAD DUP2 LT PUSH2 0x62F JUMPI PUSH2 0x62F PUSH2 0xA6B JUMP JUMPDEST SWAP1 PUSH0 MSTORE PUSH1 0x20 PUSH0 KECCAK256 ADD PUSH1 0x1 PUSH0 DUP5 DUP2 SLOAD DUP2 LT PUSH2 0x64B JUMPI PUSH2 0x64B PUSH2 0xA6B JUMP JUMPDEST PUSH0 SWAP2 DUP3 MSTORE PUSH1 0x20 SWAP1 SWAP2 KECCAK256 ADD SLOAD PUSH2 0x660 SWAP2 SWAP1 PUSH2 0xBEC JUMP JUMPDEST DUP2 SLOAD DUP2 LT PUSH2 0x670 JUMPI PUSH2 0x670 PUSH2 0xA6B JUMP JUMPDEST SWAP1 PUSH0 MSTORE PUSH1 0x20 PUSH0 KECCAK256 ADD PUSH0 DUP4 DUP2 SLOAD DUP2 LT PUSH2 0x68A JUMPI PUSH2 0x68A PUSH2 0xA6B JUMP JUMPDEST SWAP1 PUSH0 MSTORE PUSH1 0x20 PUSH0 KECCAK256 ADD DUP3 DUP2 SLOAD DUP2 LT PUSH2 0x6A3 JUMPI PUSH2 0x6A3 PUSH2 0xA6B JUMP JUMPDEST SWAP1 PUSH0 MSTORE PUSH1 0x20 PUSH0 KECCAK256 ADD SWAP1 DUP2 PUSH2 0x6B7 SWAP2 SWAP1 PUSH2 0xC05 JUMP JUMPDEST POP PUSH0 DUP3 DUP2 SLOAD DUP2 LT PUSH2 0x6CA JUMPI PUSH2 0x6CA PUSH2 0xA6B JUMP JUMPDEST SWAP1 PUSH0 MSTORE PUSH1 0x20 PUSH0 KECCAK256 ADD DUP1 SLOAD DUP1 PUSH2 0x6E1 JUMPI PUSH2 0x6E1 PUSH2 0xCDA JUMP JUMPDEST PUSH1 0x1 SWAP1 SUB DUP2 DUP2 SWAP1 PUSH0 MSTORE PUSH1 0x20 PUSH0 KECCAK256 ADD PUSH0 PUSH2 0x6FA SWAP2 SWAP1 PUSH2 0x754 JUMP JUMPDEST SWAP1 SSTORE POP POP JUMP JUMPDEST DUP3 DUP1 SLOAD DUP3 DUP3 SSTORE SWAP1 PUSH0 MSTORE PUSH1 0x20 PUSH0 KECCAK256 SWAP1 DUP2 ADD SWAP3 DUP3 ISZERO PUSH2 0x744 JUMPI SWAP2 PUSH1 0x20 MUL DUP3 ADD JUMPDEST DUP3 DUP2 GT ISZERO PUSH2 0x744 JUMPI DUP3 MLOAD DUP3 SWAP1 PUSH2 0x734 SWAP1 DUP3 PUSH2 0xB04 JUMP JUMPDEST POP SWAP2 PUSH1 0x20 ADD SWAP2 SWAP1 PUSH1 0x1 ADD SWAP1 PUSH2 0x71E JUMP JUMPDEST POP PUSH2 0x750 SWAP3 SWAP2 POP PUSH2 0x78E JUMP JUMPDEST POP SWAP1 JUMP JUMPDEST POP DUP1 SLOAD PUSH2 0x760 SWAP1 PUSH2 0xA7F JUMP JUMPDEST PUSH0 DUP3 SSTORE DUP1 PUSH1 0x1F LT PUSH2 0x76F JUMPI POP POP JUMP JUMPDEST PUSH1 0x1F ADD PUSH1 0x20 SWAP1 DIV SWAP1 PUSH0 MSTORE PUSH1 0x20 PUSH0 KECCAK256 SWAP1 DUP2 ADD SWAP1 PUSH2 0x78B SWAP2 SWAP1 PUSH2 0x7AA JUMP JUMPDEST POP JUMP JUMPDEST DUP1 DUP3 GT ISZERO PUSH2 0x750 JUMPI PUSH0 PUSH2 0x7A1 DUP3 DUP3 PUSH2 0x754 JUMP JUMPDEST POP PUSH1 0x1 ADD PUSH2 0x78E JUMP JUMPDEST JUMPDEST DUP1 DUP3 GT ISZERO PUSH2 0x750 JUMPI PUSH0 DUP2 SSTORE PUSH1 0x1 ADD PUSH2 0x7AB JUMP JUMPDEST PUSH4 0x4E487B71 PUSH1 0xE0 SHL PUSH0 MSTORE PUSH1 0x41 PUSH1 0x4 MSTORE PUSH1 0x24 PUSH0 REVERT JUMPDEST PUSH1 0x40 MLOAD PUSH1 0x1F DUP3 ADD PUSH1 0x1F NOT AND DUP2 ADD PUSH8 0xFFFFFFFFFFFFFFFF DUP2 GT DUP3 DUP3 LT OR ISZERO PUSH2 0x7FB JUMPI PUSH2 0x7FB PUSH2 0x7BE JUMP JUMPDEST PUSH1 0x40 MSTORE SWAP2 SWAP1 POP JUMP JUMPDEST PUSH0 DUP3 PUSH1 0x1F DUP4 ADD SLT PUSH2 0x812 JUMPI PUSH0 DUP1 REVERT JUMPDEST DUP2 CALLDATALOAD PUSH8 0xFFFFFFFFFFFFFFFF DUP2 GT ISZERO PUSH2 0x82C JUMPI PUSH2 0x82C PUSH2 0x7BE JUMP JUMPDEST PUSH2 0x83F PUSH1 0x1F DUP3 ADD PUSH1 0x1F NOT AND PUSH1 0x20 ADD PUSH2 0x7D2 JUMP JUMPDEST DUP2 DUP2 MSTORE DUP5 PUSH1 0x20 DUP4 DUP7 ADD ADD GT ISZERO PUSH2 0x853 JUMPI PUSH0 DUP1 REVERT JUMPDEST DUP2 PUSH1 0x20 DUP6 ADD PUSH1 0x20 DUP4 ADD CALLDATACOPY PUSH0 SWAP2 DUP2 ADD PUSH1 0x20 ADD SWAP2 SWAP1 SWAP2 MSTORE SWAP4 SWAP3 POP POP POP JUMP JUMPDEST PUSH0 DUP1 PUSH0 PUSH1 0x60 DUP5 DUP7 SUB SLT ISZERO PUSH2 0x881 JUMPI PUSH0 DUP1 REVERT JUMPDEST DUP4 CALLDATALOAD SWAP3 POP PUSH1 0x20 DUP5 ADD CALLDATALOAD SWAP2 POP PUSH1 0x40 DUP5 ADD CALLDATALOAD PUSH8 0xFFFFFFFFFFFFFFFF DUP2 GT ISZERO PUSH2 0x8A5 JUMPI PUSH0 DUP1 REVERT JUMPDEST PUSH2 0x8B1 DUP7 DUP3 DUP8 ADD PUSH2 0x803 JUMP JUMPDEST SWAP2 POP POP SWAP3 POP SWAP3 POP SWAP3 JUMP JUMPDEST PUSH0 PUSH1 0x20 DUP1 DUP4 DUP6 SUB SLT ISZERO PUSH2 0x8CC JUMPI PUSH0 DUP1 REVERT JUMPDEST DUP3 CALLDATALOAD PUSH8 0xFFFFFFFFFFFFFFFF DUP1 DUP3 GT ISZERO PUSH2 0x8E3 JUMPI PUSH0 DUP1 REVERT JUMPDEST DUP2 DUP6 ADD SWAP2 POP DUP6 PUSH1 0x1F DUP4 ADD SLT PUSH2 0x8F6 JUMPI PUSH0 DUP1 REVERT JUMPDEST DUP2 CALLDATALOAD DUP2 DUP2 GT ISZERO PUSH2 0x908 JUMPI PUSH2 0x908 PUSH2 0x7BE JUMP JUMPDEST DUP1 PUSH1 0x5 SHL PUSH2 0x917 DUP6 DUP3 ADD PUSH2 0x7D2 JUMP JUMPDEST SWAP2 DUP3 MSTORE DUP4 DUP2 ADD DUP6 ADD SWAP2 DUP6 DUP2 ADD SWAP1 DUP10 DUP5 GT ISZERO PUSH2 0x930 JUMPI PUSH0 DUP1 REVERT JUMPDEST DUP7 DUP7 ADD SWAP3 POP JUMPDEST DUP4 DUP4 LT ISZERO PUSH2 0x96B JUMPI DUP3 CALLDATALOAD DUP6 DUP2 GT ISZERO PUSH2 0x94D JUMPI PUSH0 DUP1 DUP2 REVERT JUMPDEST PUSH2 0x95B DUP12 DUP10 DUP4 DUP11 ADD ADD PUSH2 0x803 JUMP JUMPDEST DUP4 MSTORE POP SWAP2 DUP7 ADD SWAP2 SWAP1 DUP7 ADD SWAP1 PUSH2 0x936 JUMP JUMPDEST SWAP10 SWAP9 POP POP POP POP POP POP POP POP POP JUMP JUMPDEST PUSH0 DUP1 PUSH1 0x40 DUP4 DUP6 SUB SLT ISZERO PUSH2 0x989 JUMPI PUSH0 DUP1 REVERT JUMPDEST POP POP DUP1 CALLDATALOAD SWAP3 PUSH1 0x20 SWAP1 SWAP2 ADD CALLDATALOAD SWAP2 POP JUMP JUMPDEST PUSH0 DUP2 MLOAD DUP1 DUP5 MSTORE PUSH0 JUMPDEST DUP2 DUP2 LT ISZERO PUSH2 0x9BC JUMPI PUSH1 0x20 DUP2 DUP6 ADD DUP2 ADD MLOAD DUP7 DUP4 ADD DUP3 ADD MSTORE ADD PUSH2 0x9A0 JUMP JUMPDEST POP PUSH0 PUSH1 0x20 DUP3 DUP7 ADD ADD MSTORE PUSH1 0x20 PUSH1 0x1F NOT PUSH1 0x1F DUP4 ADD AND DUP6 ADD ADD SWAP2 POP POP SWAP3 SWAP2 POP POP JUMP JUMPDEST PUSH1 0x20 DUP2 MSTORE PUSH0 PUSH2 0x9ED PUSH1 0x20 DUP4 ADD DUP5 PUSH2 0x998 JUMP JUMPDEST SWAP4 SWAP3 POP POP POP JUMP JUMPDEST PUSH0 PUSH1 0x20 DUP3 DUP5 SUB SLT ISZERO PUSH2 0xA04 JUMPI PUSH0 DUP1 REVERT JUMPDEST POP CALLDATALOAD SWAP2 SWAP1 POP JUMP JUMPDEST PUSH0 PUSH1 0x20 DUP1 DUP4 ADD DUP2 DUP5 MSTORE DUP1 DUP6 MLOAD DUP1 DUP4 MSTORE PUSH1 0x40 DUP7 ADD SWAP2 POP PUSH1 0x40 DUP2 PUSH1 0x5 SHL DUP8 ADD ADD SWAP3 POP DUP4 DUP8 ADD PUSH0 JUMPDEST DUP3 DUP2 LT ISZERO PUSH2 0xA5E JUMPI PUSH1 0x3F NOT DUP9 DUP7 SUB ADD DUP5 MSTORE PUSH2 0xA4C DUP6 DUP4 MLOAD PUSH2 0x998 JUMP JUMPDEST SWAP5 POP SWAP3 DUP6 ADD SWAP3 SWAP1 DUP6 ADD SWAP1 PUSH1 0x1 ADD PUSH2 0xA30 JUMP JUMPDEST POP SWAP3 SWAP8 SWAP7 POP POP POP POP POP POP POP JUMP JUMPDEST PUSH4 0x4E487B71 PUSH1 0xE0 SHL PUSH0 MSTORE PUSH1 0x32 PUSH1 0x4 MSTORE PUSH1 0x24 PUSH0 REVERT JUMPDEST PUSH1 0x1 DUP2 DUP2 SHR SWAP1 DUP3 AND DUP1 PUSH2 0xA93 JUMPI PUSH1 0x7F DUP3 AND SWAP2 POP JUMPDEST PUSH1 0x20 DUP3 LT DUP2 SUB PUSH2 0xAB1 JUMPI PUSH4 0x4E487B71 PUSH1 0xE0 SHL PUSH0 MSTORE PUSH1 0x22 PUSH1 0x4 MSTORE PUSH1 0x24 PUSH0 REVERT JUMPDEST POP SWAP2 SWAP1 POP JUMP JUMPDEST PUSH1 0x1F DUP3 GT ISZERO PUSH2 0x340 JUMPI PUSH0 DUP2 DUP2 MSTORE PUSH1 0x20 DUP2 KECCAK256 PUSH1 0x1F DUP6 ADD PUSH1 0x5 SHR DUP2 ADD PUSH1 0x20 DUP7 LT ISZERO PUSH2 0xADD JUMPI POP DUP1 JUMPDEST PUSH1 0x1F DUP6 ADD PUSH1 0x5 SHR DUP3 ADD SWAP2 POP JUMPDEST DUP2 DUP2 LT ISZERO PUSH2 0xAFC JUMPI DUP3 DUP2 SSTORE PUSH1 0x1 ADD PUSH2 0xAE9 JUMP JUMPDEST POP POP POP POP POP POP JUMP JUMPDEST DUP2 MLOAD PUSH8 0xFFFFFFFFFFFFFFFF DUP2 GT ISZERO PUSH2 0xB1E JUMPI PUSH2 0xB1E PUSH2 0x7BE JUMP JUMPDEST PUSH2 0xB32 DUP2 PUSH2 0xB2C DUP5 SLOAD PUSH2 0xA7F JUMP JUMPDEST DUP5 PUSH2 0xAB7 JUMP JUMPDEST PUSH1 0x20 DUP1 PUSH1 0x1F DUP4 GT PUSH1 0x1 DUP2 EQ PUSH2 0xB65 JUMPI PUSH0 DUP5 ISZERO PUSH2 0xB4E JUMPI POP DUP6 DUP4 ADD MLOAD JUMPDEST PUSH0 NOT PUSH1 0x3 DUP7 SWAP1 SHL SHR NOT AND PUSH1 0x1 DUP6 SWAP1 SHL OR DUP6 SSTORE PUSH2 0xAFC JUMP JUMPDEST PUSH0 DUP6 DUP2 MSTORE PUSH1 0x20 DUP2 KECCAK256 PUSH1 0x1F NOT DUP7 AND SWAP2 JUMPDEST DUP3 DUP2 LT ISZERO PUSH2 0xB93 JUMPI DUP9 DUP7 ADD MLOAD DUP3 SSTORE SWAP5 DUP5 ADD SWAP5 PUSH1 0x1 SWAP1 SWAP2 ADD SWAP1 DUP5 ADD PUSH2 0xB74 JUMP JUMPDEST POP DUP6 DUP3 LT ISZERO PUSH2 0xBB0 JUMPI DUP8 DUP6 ADD MLOAD PUSH0 NOT PUSH1 0x3 DUP9 SWAP1 SHL PUSH1 0xF8 AND SHR NOT AND DUP2 SSTORE JUMPDEST POP POP POP POP POP PUSH1 0x1 SWAP1 DUP2 SHL ADD SWAP1 SSTORE POP JUMP JUMPDEST PUSH4 0x4E487B71 PUSH1 0xE0 SHL PUSH0 MSTORE PUSH1 0x11 PUSH1 0x4 MSTORE PUSH1 0x24 PUSH0 REVERT JUMPDEST PUSH0 PUSH1 0x1 DUP3 ADD PUSH2 0xBE5 JUMPI PUSH2 0xBE5 PUSH2 0xBC0 JUMP JUMPDEST POP PUSH1 0x1 ADD SWAP1 JUMP JUMPDEST DUP2 DUP2 SUB DUP2 DUP2 GT ISZERO PUSH2 0xBFF JUMPI PUSH2 0xBFF PUSH2 0xBC0 JUMP JUMPDEST SWAP3 SWAP2 POP POP JUMP JUMPDEST DUP2 DUP2 SUB PUSH2 0xC10 JUMPI POP POP JUMP JUMPDEST PUSH2 0xC1A DUP3 SLOAD PUSH2 0xA7F JUMP JUMPDEST PUSH8 0xFFFFFFFFFFFFFFFF DUP2 GT ISZERO PUSH2 0xC32 JUMPI PUSH2 0xC32 PUSH2 0x7BE JUMP JUMPDEST PUSH2 0xC40 DUP2 PUSH2 0xB2C DUP5 SLOAD PUSH2 0xA7F JUMP JUMPDEST PUSH0 PUSH1 0x1F DUP3 GT PUSH1 0x1 DUP2 EQ PUSH2 0xC71 JUMPI PUSH0 DUP4 ISZERO PUSH2 0xC5A JUMPI POP DUP5 DUP3 ADD SLOAD JUMPDEST PUSH0 NOT PUSH1 0x3 DUP6 SWAP1 SHL SHR NOT AND PUSH1 0x1 DUP5 SWAP1 SHL OR DUP5 SSTORE PUSH2 0xCD3 JUMP JUMPDEST PUSH0 DUP6 DUP2 MSTORE PUSH1 0x20 SWAP1 KECCAK256 PUSH1 0x1F NOT DUP5 AND SWAP1 PUSH0 DUP7 DUP2 MSTORE PUSH1 0x20 SWAP1 KECCAK256 DUP5 JUMPDEST DUP4 DUP2 LT ISZERO PUSH2 0xCA9 JUMPI DUP3 DUP7 ADD SLOAD DUP3 SSTORE PUSH1 0x1 SWAP6 DUP7 ADD SWAP6 SWAP1 SWAP2 ADD SWAP1 PUSH1 0x20 ADD PUSH2 0xC89 JUMP JUMPDEST POP DUP6 DUP4 LT ISZERO PUSH2 0xCC6 JUMPI DUP2 DUP6 ADD SLOAD PUSH0 NOT PUSH1 0x3 DUP9 SWAP1 SHL PUSH1 0xF8 AND SHR NOT AND DUP2 SSTORE JUMPDEST POP POP POP PUSH1 0x1 DUP4 PUSH1 0x1 SHL ADD DUP5 SSTORE JUMPDEST POP POP POP POP POP JUMP JUMPDEST PUSH4 0x4E487B71 PUSH1 0xE0 SHL PUSH0 MSTORE PUSH1 0x31 PUSH1 0x4 MSTORE PUSH1 0x24 PUSH0 REVERT INVALID LOG2 PUSH5 0x6970667358 0x22 SLT KECCAK256 0x2F 0xCB 0x4C 0x5C 0x26 0x1F 0xD 0xD0 PUSH25 0x77A6C1D5EE424B4C8022A5F66B13FC7714B91A998287D16473 PUSH16 0x6C634300081500330000000000000000 "
		},
		"gasEstimates": {
			"creation": {
				"codeDepositCost": "672800",
				"executionCost": "706",
				"totalCost": "673506"
			},
			"external": {
				"Buyers(uint256)": "4633",
				"addInformationList(string[])": "infinite",
				"deleteInformation(uint256,uint256)": "infinite",
				"getInformationList(uint256)": "infinite",
				"getListCount()": "2290",
				"informationList(uint256,uint256)": "infinite",
				"sellers(uint256)": "4655",
				"updateInformation(uint256,uint256,string)": "infinite"
			}
		},
		"methodIdentifiers": {
			"Buyers(uint256)": "a443df94",
			"addInformationList(string[])": "42b6d145",
			"deleteInformation(uint256,uint256)": "feb026ee",
			"getInformationList(uint256)": "910cfa73",
			"getListCount()": "2ce37b10",
			"informationList(uint256,uint256)": "8c7c2399",
			"sellers(uint256)": "cee26ed5",
			"updateInformation(uint256,uint256,string)": "2ab23fc9"
		}
	},
	"abi": [
		{
			"inputs": [
				{
					"internalType": "uint256",
					"name": "",
					"type": "uint256"
				}
			],
			"name": "Buyers",
			"outputs": [
				{
					"internalType": "address",
					"name": "",
					"type": "address"
				}
			],
			"stateMutability": "view",
			"type": "function"
		},
		{
			"inputs": [
				{
					"internalType": "string[]",
					"name": "infoList",
					"type": "string[]"
				}
			],
			"name": "addInformationList",
			"outputs": [],
			"stateMutability": "nonpayable",
			"type": "function"
		},
		{
			"inputs": [
				{
					"internalType": "uint256",
					"name": "listIndex",
					"type": "uint256"
				},
				{
					"internalType": "uint256",
					"name": "infoIndex",
					"type": "uint256"
				}
			],
			"name": "deleteInformation",
			"outputs": [],
			"stateMutability": "nonpayable",
			"type": "function"
		},
		{
			"inputs": [
				{
					"internalType": "uint256",
					"name": "index",
					"type": "uint256"
				}
			],
			"name": "getInformationList",
			"outputs": [
				{
					"internalType": "string[]",
					"name": "",
					"type": "string[]"
				}
			],
			"stateMutability": "view",
			"type": "function"
		},
		{
			"inputs": [],
			"name": "getListCount",
			"outputs": [
				{
					"internalType": "uint256",
					"name": "",
					"type": "uint256"
				}
			],
			"stateMutability": "view",
			"type": "function"
		},
		{
			"inputs": [
				{
					"internalType": "uint256",
					"name": "",
					"type": "uint256"
				},
				{
					"internalType": "uint256",
					"name": "",
					"type": "uint256"
				}
			],
			"name": "informationList",
			"outputs": [
				{
					"internalType": "string",
					"name": "",
					"type": "string"
				}
			],
			"stateMutability": "view",
			"type": "function"
		},
		{
			"inputs": [
				{
					"internalType": "uint256",
					"name": "",
					"type": "uint256"
				}
			],
			"name": "sellers",
			"outputs": [
				{
					"internalType": "address",
					"name": "",
					"type": "address"
				}
			],
			"stateMutability": "view",
			"type": "function"
		},
		{
			"inputs": [
				{
					"internalType": "uint256",
					"name": "listIndex",
					"type": "uint256"
				},
				{
					"internalType": "uint256",
					"name": "infoIndex",
					"type": "uint256"
				},
				{
					"internalType": "string",
					"name": "newInfo",
					"type": "string"
				}
			],
			"name": "updateInformation",
			"outputs": [],
			"stateMutability": "nonpayable",
			"type": "function"
		}
	]
}