{
	"data": {
		"bytecode": {
			"linkReferences": {},
			"object": "60806040526040516200001290620000e6565b604051809103905ff0801580156200002c573d5f803e3d5ffd5b505f806101000a81548173ffffffffffffffffffffffffffffffffffffffff021916908373ffffffffffffffffffffffffffffffffffffffff1602179055506040516200007990620000f4565b604051809103905ff08015801562000093573d5f803e3d5ffd5b5060015f6101000a81548173ffffffffffffffffffffffffffffffffffffffff021916908373ffffffffffffffffffffffffffffffffffffffff160217905550348015620000df575f80fd5b5062000102565b6106b7806200193a83390190565b6106b78062001ff183390190565b61182a80620001105f395ff3fe608060405234801561000f575f80fd5b5060043610610091575f3560e01c80639862d5f0116100645780639862d5f01461012f578063cee26ed51461015f578063db3fb9d81461018f578063f2aa8218146101ab578063f8a8fd6d146101db57610091565b80632ab23fc9146100955780632ce37b10146100c557806342b6d145146100e35780638c7c2399146100ff575b5f80fd5b6100af60048036038101906100aa9190610cd0565b6101e5565b6040516100bc9190610d4b565b60405180910390f35b6100cd6103e7565b6040516100da9190610d4b565b60405180910390f35b6100fd60048036038101906100f89190610e46565b6103f3565b005b61011960048036038101906101149190610e8d565b610660565b6040516101269190610f45565b60405180910390f35b61014960048036038101906101449190610fbf565b61071c565b60405161015691906111a8565b60405180910390f35b610179600480360381019061017491906111c8565b610871565b6040516101869190611202565b60405180910390f35b6101a960048036038101906101a491906111c8565b6108ac565b005b6101c560048036038101906101c091906111c8565b610993565b6040516101d29190611202565b60405180910390f35b6101e36109ce565b005b5f60035f3373ffffffffffffffffffffffffffffffffffffffff1673ffffffffffffffffffffffffffffffffffffffff1681526020019081526020015f20805490508410610268576040517f08c379a000000000000000000000000000000000000000000000000000000000815260040161025f90611265565b60405180910390fd5b60035f3373ffffffffffffffffffffffffffffffffffffffff1673ffffffffffffffffffffffffffffffffffffffff1681526020019081526020015f2084815481106102b7576102b6611283565b5b905f5260205f2001805490508310610304576040517f08c379a00000000000000000000000000000000000000000000000000000000081526004016102fb906112fa565b60405180910390fd5b8160035f3373ffffffffffffffffffffffffffffffffffffffff1673ffffffffffffffffffffffffffffffffffffffff1681526020019081526020015f20858154811061035457610353611283565b5b905f5260205f2001848154811061036e5761036d611283565b5b905f5260205f200190816103829190611512565b5060035f3373ffffffffffffffffffffffffffffffffffffffff1673ffffffffffffffffffffffffffffffffffffffff1681526020019081526020015f2084815481106103d2576103d1611283565b5b905f5260205f20018054905090509392505050565b5f600280549050905090565b5f80805f9054906101000a900473ffffffffffffffffffffffffffffffffffffffff1673ffffffffffffffffffffffffffffffffffffffff16637cac07af6040518163ffffffff1660e01b8152600401602060405180830381865afa15801561045e573d5f803e3d5ffd5b505050506040513d601f19601f8201168201806040525081019061048291906115f5565b90505f5b8181101561056d575f8054906101000a900473ffffffffffffffffffffffffffffffffffffffff1673ffffffffffffffffffffffffffffffffffffffff16639d0ec380826040518263ffffffff1660e01b81526004016104e69190610d4b565b602060405180830381865afa158015610501573d5f803e3d5ffd5b505050506040513d601f19601f820116820180604052508101906105259190611634565b73ffffffffffffffffffffffffffffffffffffffff163373ffffffffffffffffffffffffffffffffffffffff1603610560576001925061056d565b8080600101915050610486565b50816105ae576040517f08c379a00000000000000000000000000000000000000000000000000000000081526004016105a5906116cf565b60405180910390fd5b600283908060018154018082558091505060019003905f5260205f20015f9091909190915090805190602001906105e6929190610a60565b5060035f3373ffffffffffffffffffffffffffffffffffffffff1673ffffffffffffffffffffffffffffffffffffffff1681526020019081526020015f2083908060018154018082558091505060019003905f5260205f20015f90919091909150908051906020019061065a929190610a60565b50505050565b6002828154811061066f575f80fd5b905f5260205f20018181548110610684575f80fd5b905f5260205f20015f9150915050805461069d90611345565b80601f01602080910402602001604051908101604052809291908181526020018280546106c990611345565b80156107145780601f106106eb57610100808354040283529160200191610714565b820191905f5260205f20905b8154815290600101906020018083116106f757829003601f168201915b505050505081565b606060035f8373ffffffffffffffffffffffffffffffffffffffff1673ffffffffffffffffffffffffffffffffffffffff1681526020019081526020015f20805480602002602001604051908101604052809291908181526020015f905b82821015610866578382905f5260205f2001805480602002602001604051908101604052809291908181526020015f905b82821015610853578382905f5260205f200180546107c890611345565b80601f01602080910402602001604051908101604052809291908181526020018280546107f490611345565b801561083f5780601f106108165761010080835404028352916020019161083f565b820191905f5260205f20905b81548152906001019060200180831161082257829003601f168201915b5050505050815260200190600101906107ab565b505050508152602001906001019061077a565b505050509050919050565b60048181548110610880575f80fd5b905f5260205f20015f915054906101000a900473ffffffffffffffffffffffffffffffffffffffff1681565b60035f3373ffffffffffffffffffffffffffffffffffffffff1673ffffffffffffffffffffffffffffffffffffffff1681526020019081526020015f2080549050811061092e576040517f08c379a000000000000000000000000000000000000000000000000000000000815260040161092590611265565b60405180910390fd5b60035f3373ffffffffffffffffffffffffffffffffffffffff1673ffffffffffffffffffffffffffffffffffffffff1681526020019081526020015f20818154811061097d5761097c611283565b5b905f5260205f20015f6109909190610ab7565b50565b600581815481106109a2575f80fd5b905f5260205f20015f915054906101000a900473ffffffffffffffffffffffffffffffffffffffff1681565b5f8054906101000a900473ffffffffffffffffffffffffffffffffffffffff1673ffffffffffffffffffffffffffffffffffffffff16639b269b8f6040518163ffffffff1660e01b81526004015f60405180830381865afa158015610a35573d5f803e3d5ffd5b505050506040513d5f823e3d601f19601f82011682018060405250810190610a5d91906117ad565b50565b828054828255905f5260205f20908101928215610aa6579160200282015b82811115610aa5578251829081610a959190611512565b5091602001919060010190610a7e565b5b509050610ab39190610ad5565b5090565b5080545f8255905f5260205f2090810190610ad29190610ad5565b50565b5b80821115610af4575f8181610aeb9190610af8565b50600101610ad6565b5090565b508054610b0490611345565b5f825580601f10610b155750610b32565b601f0160209004905f5260205f2090810190610b319190610b35565b5b50565b5b80821115610b4c575f815f905550600101610b36565b5090565b5f604051905090565b5f80fd5b5f80fd5b5f819050919050565b610b7381610b61565b8114610b7d575f80fd5b50565b5f81359050610b8e81610b6a565b92915050565b5f80fd5b5f80fd5b5f601f19601f8301169050919050565b7f4e487b71000000000000000000000000000000000000000000000000000000005f52604160045260245ffd5b610be282610b9c565b810181811067ffffffffffffffff82111715610c0157610c00610bac565b5b80604052505050565b5f610c13610b50565b9050610c1f8282610bd9565b919050565b5f67ffffffffffffffff821115610c3e57610c3d610bac565b5b610c4782610b9c565b9050602081019050919050565b828183375f83830152505050565b5f610c74610c6f84610c24565b610c0a565b905082815260208101848484011115610c9057610c8f610b98565b5b610c9b848285610c54565b509392505050565b5f82601f830112610cb757610cb6610b94565b5b8135610cc7848260208601610c62565b91505092915050565b5f805f60608486031215610ce757610ce6610b59565b5b5f610cf486828701610b80565b9350506020610d0586828701610b80565b925050604084013567ffffffffffffffff811115610d2657610d25610b5d565b5b610d3286828701610ca3565b9150509250925092565b610d4581610b61565b82525050565b5f602082019050610d5e5f830184610d3c565b92915050565b5f67ffffffffffffffff821115610d7e57610d7d610bac565b5b602082029050602081019050919050565b5f80fd5b5f610da5610da084610d64565b610c0a565b90508083825260208201905060208402830185811115610dc857610dc7610d8f565b5b835b81811015610e0f57803567ffffffffffffffff811115610ded57610dec610b94565b5b808601610dfa8982610ca3565b85526020850194505050602081019050610dca565b5050509392505050565b5f82601f830112610e2d57610e2c610b94565b5b8135610e3d848260208601610d93565b91505092915050565b5f60208284031215610e5b57610e5a610b59565b5b5f82013567ffffffffffffffff811115610e7857610e77610b5d565b5b610e8484828501610e19565b91505092915050565b5f8060408385031215610ea357610ea2610b59565b5b5f610eb085828601610b80565b9250506020610ec185828601610b80565b9150509250929050565b5f81519050919050565b5f82825260208201905092915050565b5f5b83811015610f02578082015181840152602081019050610ee7565b5f8484015250505050565b5f610f1782610ecb565b610f218185610ed5565b9350610f31818560208601610ee5565b610f3a81610b9c565b840191505092915050565b5f6020820190508181035f830152610f5d8184610f0d565b905092915050565b5f73ffffffffffffffffffffffffffffffffffffffff82169050919050565b5f610f8e82610f65565b9050919050565b610f9e81610f84565b8114610fa8575f80fd5b50565b5f81359050610fb981610f95565b92915050565b5f60208284031215610fd457610fd3610b59565b5b5f610fe184828501610fab565b91505092915050565b5f81519050919050565b5f82825260208201905092915050565b5f819050602082019050919050565b5f81519050919050565b5f82825260208201905092915050565b5f819050602082019050919050565b5f82825260208201905092915050565b5f61105682610ecb565b611060818561103c565b9350611070818560208601610ee5565b61107981610b9c565b840191505092915050565b5f61108f838361104c565b905092915050565b5f602082019050919050565b5f6110ad82611013565b6110b7818561101d565b9350836020820285016110c98561102d565b805f5b8581101561110457848403895281516110e58582611084565b94506110f083611097565b925060208a019950506001810190506110cc565b50829750879550505050505092915050565b5f61112183836110a3565b905092915050565b5f602082019050919050565b5f61113f82610fea565b6111498185610ff4565b93508360208202850161115b85611004565b805f5b8581101561119657848403895281516111778582611116565b945061118283611129565b925060208a0199505060018101905061115e565b50829750879550505050505092915050565b5f6020820190508181035f8301526111c08184611135565b905092915050565b5f602082840312156111dd576111dc610b59565b5b5f6111ea84828501610b80565b91505092915050565b6111fc81610f84565b82525050565b5f6020820190506112155f8301846111f3565b92915050565b7f4c69737420696e646578206f7574206f6620626f756e647300000000000000005f82015250565b5f61124f601883610ed5565b915061125a8261121b565b602082019050919050565b5f6020820190508181035f83015261127c81611243565b9050919050565b7f4e487b71000000000000000000000000000000000000000000000000000000005f52603260045260245ffd5b7f496e666f20696e646578206f7574206f6620626f756e647300000000000000005f82015250565b5f6112e4601883610ed5565b91506112ef826112b0565b602082019050919050565b5f6020820190508181035f830152611311816112d8565b9050919050565b7f4e487b71000000000000000000000000000000000000000000000000000000005f52602260045260245ffd5b5f600282049050600182168061135c57607f821691505b60208210810361136f5761136e611318565b5b50919050565b5f819050815f5260205f209050919050565b5f6020601f8301049050919050565b5f82821b905092915050565b5f600883026113d17fffffffffffffffffffffffffffffffffffffffffffffffffffffffffffffffff82611396565b6113db8683611396565b95508019841693508086168417925050509392505050565b5f819050919050565b5f61141661141161140c84610b61565b6113f3565b610b61565b9050919050565b5f819050919050565b61142f836113fc565b61144361143b8261141d565b8484546113a2565b825550505050565b5f90565b61145761144b565b611462818484611426565b505050565b5b818110156114855761147a5f8261144f565b600181019050611468565b5050565b601f8211156114ca5761149b81611375565b6114a484611387565b810160208510156114b3578190505b6114c76114bf85611387565b830182611467565b50505b505050565b5f82821c905092915050565b5f6114ea5f19846008026114cf565b1980831691505092915050565b5f61150283836114db565b9150826002028217905092915050565b61151b82610ecb565b67ffffffffffffffff81111561153457611533610bac565b5b61153e8254611345565b611549828285611489565b5f60209050601f83116001811461157a575f8415611568578287015190505b61157285826114f7565b8655506115d9565b601f19841661158886611375565b5f5b828110156115af5784890151825560018201915060208501945060208101905061158a565b868310156115cc57848901516115c8601f8916826114db565b8355505b6001600288020188555050505b505050505050565b5f815190506115ef81610b6a565b92915050565b5f6020828403121561160a57611609610b59565b5b5f611617848285016115e1565b91505092915050565b5f8151905061162e81610f95565b92915050565b5f6020828403121561164957611648610b59565b5b5f61165684828501611620565b91505092915050565b7f4f6e6c792073656c6c65722063616e2063616c6c20746869732066756e6374695f8201527f6f6e000000000000000000000000000000000000000000000000000000000000602082015250565b5f6116b9602283610ed5565b91506116c48261165f565b604082019050919050565b5f6020820190508181035f8301526116e6816116ad565b9050919050565b5f67ffffffffffffffff82111561170757611706610bac565b5b602082029050602081019050919050565b5f61172a611725846116ed565b610c0a565b9050808382526020820190506020840283018581111561174d5761174c610d8f565b5b835b8181101561177657806117628882611620565b84526020840193505060208101905061174f565b5050509392505050565b5f82601f83011261179457611793610b94565b5b81516117a4848260208601611718565b91505092915050565b5f602082840312156117c2576117c1610b59565b5b5f82015167ffffffffffffffff8111156117df576117de610b5d565b5b6117eb84828501611780565b9150509291505056fea26469706673582212209477cd0017716bb6f961433386ceac6ef5e33d52b845f81a602a990e2aa73f1464736f6c63430008160033608060405234801561000f575f80fd5b505f735b38da6a701c568545dcfcb03fcb875f56beddc4908060018154018082558091505060019003905f5260205f20015f9091909190916101000a81548173ffffffffffffffffffffffffffffffffffffffff021916908373ffffffffffffffffffffffffffffffffffffffff1602179055505f73ab8483f64d9c6d1ecf9b849ae677dd3315835cb2908060018154018082558091505060019003905f5260205f20015f9091909190916101000a81548173ffffffffffffffffffffffffffffffffffffffff021916908373ffffffffffffffffffffffffffffffffffffffff1602179055506105b4806101035f395ff3fe608060405234801561000f575f80fd5b5060043610610055575f3560e01c80637cac07af146100595780639b269b8f146100775780639d0ec38014610095578063cee26ed5146100c5578063d93fabfa146100f5575b5f80fd5b610061610111565b60405161006e91906102e3565b60405180910390f35b61007f61011c565b60405161008c91906103e3565b60405180910390f35b6100af60048036038101906100aa9190610431565b6101a6565b6040516100bc919061046b565b60405180910390f35b6100df60048036038101906100da9190610431565b61022f565b6040516100ec919061046b565b60405180910390f35b61010f600480360381019061010a91906104ae565b610269565b005b5f8080549050905090565b60605f80548060200260200160405190810160405280929190818152602001828054801561019c57602002820191905f5260205f20905b815f9054906101000a900473ffffffffffffffffffffffffffffffffffffffff1673ffffffffffffffffffffffffffffffffffffffff1681526020019060010190808311610153575b5050505050905090565b5f808054905082106101ed576040517f08c379a00000000000000000000000000000000000000000000000000000000081526004016101e490610533565b60405180910390fd5b5f8281548110610200576101ff610551565b5b905f5260205f20015f9054906101000a900473ffffffffffffffffffffffffffffffffffffffff169050919050565b5f818154811061023d575f80fd5b905f5260205f20015f915054906101000a900473ffffffffffffffffffffffffffffffffffffffff1681565b5f81908060018154018082558091505060019003905f5260205f20015f9091909190916101000a81548173ffffffffffffffffffffffffffffffffffffffff021916908373ffffffffffffffffffffffffffffffffffffffff16021790555050565b5f819050919050565b6102dd816102cb565b82525050565b5f6020820190506102f65f8301846102d4565b92915050565b5f81519050919050565b5f82825260208201905092915050565b5f819050602082019050919050565b5f73ffffffffffffffffffffffffffffffffffffffff82169050919050565b5f61034e82610325565b9050919050565b61035e81610344565b82525050565b5f61036f8383610355565b60208301905092915050565b5f602082019050919050565b5f610391826102fc565b61039b8185610306565b93506103a683610316565b805f5b838110156103d65781516103bd8882610364565b97506103c88361037b565b9250506001810190506103a9565b5085935050505092915050565b5f6020820190508181035f8301526103fb8184610387565b905092915050565b5f80fd5b610410816102cb565b811461041a575f80fd5b50565b5f8135905061042b81610407565b92915050565b5f6020828403121561044657610445610403565b5b5f6104538482850161041d565b91505092915050565b61046581610344565b82525050565b5f60208201905061047e5f83018461045c565b92915050565b61048d81610344565b8114610497575f80fd5b50565b5f813590506104a881610484565b92915050565b5f602082840312156104c3576104c2610403565b5b5f6104d08482850161049a565b91505092915050565b5f82825260208201905092915050565b7f496e646578206f7574206f6620626f756e6473000000000000000000000000005f82015250565b5f61051d6013836104d9565b9150610528826104e9565b602082019050919050565b5f6020820190508181035f83015261054a81610511565b9050919050565b7f4e487b71000000000000000000000000000000000000000000000000000000005f52603260045260245ffdfea2646970667358221220ea7bbdaf9d6de8a0f48ffac9e9bbea25a6122ffbf24896c7f8a61f1968fbb86b64736f6c63430008160033608060405234801561000f575f80fd5b505f735b38da6a701c568545dcfcb03fcb875f56beddc4908060018154018082558091505060019003905f5260205f20015f9091909190916101000a81548173ffffffffffffffffffffffffffffffffffffffff021916908373ffffffffffffffffffffffffffffffffffffffff1602179055505f73ab8483f64d9c6d1ecf9b849ae677dd3315835cb2908060018154018082558091505060019003905f5260205f20015f9091909190916101000a81548173ffffffffffffffffffffffffffffffffffffffff021916908373ffffffffffffffffffffffffffffffffffffffff1602179055506105b4806101035f395ff3fe608060405234801561000f575f80fd5b5060043610610055575f3560e01c806348e5ff6d146100595780636cd84f701461008957806386cba22b146100a7578063e8266a78146100c5578063f2aa8218146100e1575b5f80fd5b610073600480360381019061006e9190610302565b610111565b604051610080919061036c565b60405180910390f35b61009161019a565b60405161009e9190610394565b60405180910390f35b6100af6101a5565b6040516100bc9190610464565b60405180910390f35b6100df60048036038101906100da91906104ae565b61022f565b005b6100fb60048036038101906100f69190610302565b610291565b604051610108919061036c565b60405180910390f35b5f80805490508210610158576040517f08c379a000000000000000000000000000000000000000000000000000000000815260040161014f90610533565b60405180910390fd5b5f828154811061016b5761016a610551565b5b905f5260205f20015f9054906101000a900473ffffffffffffffffffffffffffffffffffffffff169050919050565b5f8080549050905090565b60605f80548060200260200160405190810160405280929190818152602001828054801561022557602002820191905f5260205f20905b815f9054906101000a900473ffffffffffffffffffffffffffffffffffffffff1673ffffffffffffffffffffffffffffffffffffffff16815260200190600101908083116101dc575b5050505050905090565b5f81908060018154018082558091505060019003905f5260205f20015f9091909190916101000a81548173ffffffffffffffffffffffffffffffffffffffff021916908373ffffffffffffffffffffffffffffffffffffffff16021790555050565b5f818154811061029f575f80fd5b905f5260205f20015f915054906101000a900473ffffffffffffffffffffffffffffffffffffffff1681565b5f80fd5b5f819050919050565b6102e1816102cf565b81146102eb575f80fd5b50565b5f813590506102fc816102d8565b92915050565b5f60208284031215610317576103166102cb565b5b5f610324848285016102ee565b91505092915050565b5f73ffffffffffffffffffffffffffffffffffffffff82169050919050565b5f6103568261032d565b9050919050565b6103668161034c565b82525050565b5f60208201905061037f5f83018461035d565b92915050565b61038e816102cf565b82525050565b5f6020820190506103a75f830184610385565b92915050565b5f81519050919050565b5f82825260208201905092915050565b5f819050602082019050919050565b6103df8161034c565b82525050565b5f6103f083836103d6565b60208301905092915050565b5f602082019050919050565b5f610412826103ad565b61041c81856103b7565b9350610427836103c7565b805f5b8381101561045757815161043e88826103e5565b9750610449836103fc565b92505060018101905061042a565b5085935050505092915050565b5f6020820190508181035f83015261047c8184610408565b905092915050565b61048d8161034c565b8114610497575f80fd5b50565b5f813590506104a881610484565b92915050565b5f602082840312156104c3576104c26102cb565b5b5f6104d08482850161049a565b91505092915050565b5f82825260208201905092915050565b7f496e646578206f7574206f6620626f756e6473000000000000000000000000005f82015250565b5f61051d6013836104d9565b9150610528826104e9565b602082019050919050565b5f6020820190508181035f83015261054a81610511565b9050919050565b7f4e487b71000000000000000000000000000000000000000000000000000000005f52603260045260245ffdfea26469706673582212204f5cbd55e0292bd52d2bf5a1e301ed273337e6bf3bd672b2cf3997081cbfe02864736f6c63430008160033",
			"opcodes": "PUSH1 0x80 PUSH1 0x40 MSTORE PUSH1 0x40 MLOAD PUSH3 0x12 SWAP1 PUSH3 0xE6 JUMP JUMPDEST PUSH1 0x40 MLOAD DUP1 SWAP2 SUB SWAP1 PUSH0 CREATE DUP1 ISZERO DUP1 ISZERO PUSH3 0x2C JUMPI RETURNDATASIZE PUSH0 DUP1 RETURNDATACOPY RETURNDATASIZE PUSH0 REVERT JUMPDEST POP PUSH0 DUP1 PUSH2 0x100 EXP DUP2 SLOAD DUP2 PUSH20 0xFFFFFFFFFFFFFFFFFFFFFFFFFFFFFFFFFFFFFFFF MUL NOT AND SWAP1 DUP4 PUSH20 0xFFFFFFFFFFFFFFFFFFFFFFFFFFFFFFFFFFFFFFFF AND MUL OR SWAP1 SSTORE POP PUSH1 0x40 MLOAD PUSH3 0x79 SWAP1 PUSH3 0xF4 JUMP JUMPDEST PUSH1 0x40 MLOAD DUP1 SWAP2 SUB SWAP1 PUSH0 CREATE DUP1 ISZERO DUP1 ISZERO PUSH3 0x93 JUMPI RETURNDATASIZE PUSH0 DUP1 RETURNDATACOPY RETURNDATASIZE PUSH0 REVERT JUMPDEST POP PUSH1 0x1 PUSH0 PUSH2 0x100 EXP DUP2 SLOAD DUP2 PUSH20 0xFFFFFFFFFFFFFFFFFFFFFFFFFFFFFFFFFFFFFFFF MUL NOT AND SWAP1 DUP4 PUSH20 0xFFFFFFFFFFFFFFFFFFFFFFFFFFFFFFFFFFFFFFFF AND MUL OR SWAP1 SSTORE POP CALLVALUE DUP1 ISZERO PUSH3 0xDF JUMPI PUSH0 DUP1 REVERT JUMPDEST POP PUSH3 0x102 JUMP JUMPDEST PUSH2 0x6B7 DUP1 PUSH3 0x193A DUP4 CODECOPY ADD SWAP1 JUMP JUMPDEST PUSH2 0x6B7 DUP1 PUSH3 0x1FF1 DUP4 CODECOPY ADD SWAP1 JUMP JUMPDEST PUSH2 0x182A DUP1 PUSH3 0x110 PUSH0 CODECOPY PUSH0 RETURN INVALID PUSH1 0x80 PUSH1 0x40 MSTORE CALLVALUE DUP1 ISZERO PUSH2 0xF JUMPI PUSH0 DUP1 REVERT JUMPDEST POP PUSH1 0x4 CALLDATASIZE LT PUSH2 0x91 JUMPI PUSH0 CALLDATALOAD PUSH1 0xE0 SHR DUP1 PUSH4 0x9862D5F0 GT PUSH2 0x64 JUMPI DUP1 PUSH4 0x9862D5F0 EQ PUSH2 0x12F JUMPI DUP1 PUSH4 0xCEE26ED5 EQ PUSH2 0x15F JUMPI DUP1 PUSH4 0xDB3FB9D8 EQ PUSH2 0x18F JUMPI DUP1 PUSH4 0xF2AA8218 EQ PUSH2 0x1AB JUMPI DUP1 PUSH4 0xF8A8FD6D EQ PUSH2 0x1DB JUMPI PUSH2 0x91 JUMP JUMPDEST DUP1 PUSH4 0x2AB23FC9 EQ PUSH2 0x95 JUMPI DUP1 PUSH4 0x2CE37B10 EQ PUSH2 0xC5 JUMPI DUP1 PUSH4 0x42B6D145 EQ PUSH2 0xE3 JUMPI DUP1 PUSH4 0x8C7C2399 EQ PUSH2 0xFF JUMPI JUMPDEST PUSH0 DUP1 REVERT JUMPDEST PUSH2 0xAF PUSH1 0x4 DUP1 CALLDATASIZE SUB DUP2 ADD SWAP1 PUSH2 0xAA SWAP2 SWAP1 PUSH2 0xCD0 JUMP JUMPDEST PUSH2 0x1E5 JUMP JUMPDEST PUSH1 0x40 MLOAD PUSH2 0xBC SWAP2 SWAP1 PUSH2 0xD4B JUMP JUMPDEST PUSH1 0x40 MLOAD DUP1 SWAP2 SUB SWAP1 RETURN JUMPDEST PUSH2 0xCD PUSH2 0x3E7 JUMP JUMPDEST PUSH1 0x40 MLOAD PUSH2 0xDA SWAP2 SWAP1 PUSH2 0xD4B JUMP JUMPDEST PUSH1 0x40 MLOAD DUP1 SWAP2 SUB SWAP1 RETURN JUMPDEST PUSH2 0xFD PUSH1 0x4 DUP1 CALLDATASIZE SUB DUP2 ADD SWAP1 PUSH2 0xF8 SWAP2 SWAP1 PUSH2 0xE46 JUMP JUMPDEST PUSH2 0x3F3 JUMP JUMPDEST STOP JUMPDEST PUSH2 0x119 PUSH1 0x4 DUP1 CALLDATASIZE SUB DUP2 ADD SWAP1 PUSH2 0x114 SWAP2 SWAP1 PUSH2 0xE8D JUMP JUMPDEST PUSH2 0x660 JUMP JUMPDEST PUSH1 0x40 MLOAD PUSH2 0x126 SWAP2 SWAP1 PUSH2 0xF45 JUMP JUMPDEST PUSH1 0x40 MLOAD DUP1 SWAP2 SUB SWAP1 RETURN JUMPDEST PUSH2 0x149 PUSH1 0x4 DUP1 CALLDATASIZE SUB DUP2 ADD SWAP1 PUSH2 0x144 SWAP2 SWAP1 PUSH2 0xFBF JUMP JUMPDEST PUSH2 0x71C JUMP JUMPDEST PUSH1 0x40 MLOAD PUSH2 0x156 SWAP2 SWAP1 PUSH2 0x11A8 JUMP JUMPDEST PUSH1 0x40 MLOAD DUP1 SWAP2 SUB SWAP1 RETURN JUMPDEST PUSH2 0x179 PUSH1 0x4 DUP1 CALLDATASIZE SUB DUP2 ADD SWAP1 PUSH2 0x174 SWAP2 SWAP1 PUSH2 0x11C8 JUMP JUMPDEST PUSH2 0x871 JUMP JUMPDEST PUSH1 0x40 MLOAD PUSH2 0x186 SWAP2 SWAP1 PUSH2 0x1202 JUMP JUMPDEST PUSH1 0x40 MLOAD DUP1 SWAP2 SUB SWAP1 RETURN JUMPDEST PUSH2 0x1A9 PUSH1 0x4 DUP1 CALLDATASIZE SUB DUP2 ADD SWAP1 PUSH2 0x1A4 SWAP2 SWAP1 PUSH2 0x11C8 JUMP JUMPDEST PUSH2 0x8AC JUMP JUMPDEST STOP JUMPDEST PUSH2 0x1C5 PUSH1 0x4 DUP1 CALLDATASIZE SUB DUP2 ADD SWAP1 PUSH2 0x1C0 SWAP2 SWAP1 PUSH2 0x11C8 JUMP JUMPDEST PUSH2 0x993 JUMP JUMPDEST PUSH1 0x40 MLOAD PUSH2 0x1D2 SWAP2 SWAP1 PUSH2 0x1202 JUMP JUMPDEST PUSH1 0x40 MLOAD DUP1 SWAP2 SUB SWAP1 RETURN JUMPDEST PUSH2 0x1E3 PUSH2 0x9CE JUMP JUMPDEST STOP JUMPDEST PUSH0 PUSH1 0x3 PUSH0 CALLER PUSH20 0xFFFFFFFFFFFFFFFFFFFFFFFFFFFFFFFFFFFFFFFF AND PUSH20 0xFFFFFFFFFFFFFFFFFFFFFFFFFFFFFFFFFFFFFFFF AND DUP2 MSTORE PUSH1 0x20 ADD SWAP1 DUP2 MSTORE PUSH1 0x20 ADD PUSH0 KECCAK256 DUP1 SLOAD SWAP1 POP DUP5 LT PUSH2 0x268 JUMPI PUSH1 0x40 MLOAD PUSH32 0x8C379A000000000000000000000000000000000000000000000000000000000 DUP2 MSTORE PUSH1 0x4 ADD PUSH2 0x25F SWAP1 PUSH2 0x1265 JUMP JUMPDEST PUSH1 0x40 MLOAD DUP1 SWAP2 SUB SWAP1 REVERT JUMPDEST PUSH1 0x3 PUSH0 CALLER PUSH20 0xFFFFFFFFFFFFFFFFFFFFFFFFFFFFFFFFFFFFFFFF AND PUSH20 0xFFFFFFFFFFFFFFFFFFFFFFFFFFFFFFFFFFFFFFFF AND DUP2 MSTORE PUSH1 0x20 ADD SWAP1 DUP2 MSTORE PUSH1 0x20 ADD PUSH0 KECCAK256 DUP5 DUP2 SLOAD DUP2 LT PUSH2 0x2B7 JUMPI PUSH2 0x2B6 PUSH2 0x1283 JUMP JUMPDEST JUMPDEST SWAP1 PUSH0 MSTORE PUSH1 0x20 PUSH0 KECCAK256 ADD DUP1 SLOAD SWAP1 POP DUP4 LT PUSH2 0x304 JUMPI PUSH1 0x40 MLOAD PUSH32 0x8C379A000000000000000000000000000000000000000000000000000000000 DUP2 MSTORE PUSH1 0x4 ADD PUSH2 0x2FB SWAP1 PUSH2 0x12FA JUMP JUMPDEST PUSH1 0x40 MLOAD DUP1 SWAP2 SUB SWAP1 REVERT JUMPDEST DUP2 PUSH1 0x3 PUSH0 CALLER PUSH20 0xFFFFFFFFFFFFFFFFFFFFFFFFFFFFFFFFFFFFFFFF AND PUSH20 0xFFFFFFFFFFFFFFFFFFFFFFFFFFFFFFFFFFFFFFFF AND DUP2 MSTORE PUSH1 0x20 ADD SWAP1 DUP2 MSTORE PUSH1 0x20 ADD PUSH0 KECCAK256 DUP6 DUP2 SLOAD DUP2 LT PUSH2 0x354 JUMPI PUSH2 0x353 PUSH2 0x1283 JUMP JUMPDEST JUMPDEST SWAP1 PUSH0 MSTORE PUSH1 0x20 PUSH0 KECCAK256 ADD DUP5 DUP2 SLOAD DUP2 LT PUSH2 0x36E JUMPI PUSH2 0x36D PUSH2 0x1283 JUMP JUMPDEST JUMPDEST SWAP1 PUSH0 MSTORE PUSH1 0x20 PUSH0 KECCAK256 ADD SWAP1 DUP2 PUSH2 0x382 SWAP2 SWAP1 PUSH2 0x1512 JUMP JUMPDEST POP PUSH1 0x3 PUSH0 CALLER PUSH20 0xFFFFFFFFFFFFFFFFFFFFFFFFFFFFFFFFFFFFFFFF AND PUSH20 0xFFFFFFFFFFFFFFFFFFFFFFFFFFFFFFFFFFFFFFFF AND DUP2 MSTORE PUSH1 0x20 ADD SWAP1 DUP2 MSTORE PUSH1 0x20 ADD PUSH0 KECCAK256 DUP5 DUP2 SLOAD DUP2 LT PUSH2 0x3D2 JUMPI PUSH2 0x3D1 PUSH2 0x1283 JUMP JUMPDEST JUMPDEST SWAP1 PUSH0 MSTORE PUSH1 0x20 PUSH0 KECCAK256 ADD DUP1 SLOAD SWAP1 POP SWAP1 POP SWAP4 SWAP3 POP POP POP JUMP JUMPDEST PUSH0 PUSH1 0x2 DUP1 SLOAD SWAP1 POP SWAP1 POP SWAP1 JUMP JUMPDEST PUSH0 DUP1 DUP1 PUSH0 SWAP1 SLOAD SWAP1 PUSH2 0x100 EXP SWAP1 DIV PUSH20 0xFFFFFFFFFFFFFFFFFFFFFFFFFFFFFFFFFFFFFFFF AND PUSH20 0xFFFFFFFFFFFFFFFFFFFFFFFFFFFFFFFFFFFFFFFF AND PUSH4 0x7CAC07AF PUSH1 0x40 MLOAD DUP2 PUSH4 0xFFFFFFFF AND PUSH1 0xE0 SHL DUP2 MSTORE PUSH1 0x4 ADD PUSH1 0x20 PUSH1 0x40 MLOAD DUP1 DUP4 SUB DUP2 DUP7 GAS STATICCALL ISZERO DUP1 ISZERO PUSH2 0x45E JUMPI RETURNDATASIZE PUSH0 DUP1 RETURNDATACOPY RETURNDATASIZE PUSH0 REVERT JUMPDEST POP POP POP POP PUSH1 0x40 MLOAD RETURNDATASIZE PUSH1 0x1F NOT PUSH1 0x1F DUP3 ADD AND DUP3 ADD DUP1 PUSH1 0x40 MSTORE POP DUP2 ADD SWAP1 PUSH2 0x482 SWAP2 SWAP1 PUSH2 0x15F5 JUMP JUMPDEST SWAP1 POP PUSH0 JUMPDEST DUP2 DUP2 LT ISZERO PUSH2 0x56D JUMPI PUSH0 DUP1 SLOAD SWAP1 PUSH2 0x100 EXP SWAP1 DIV PUSH20 0xFFFFFFFFFFFFFFFFFFFFFFFFFFFFFFFFFFFFFFFF AND PUSH20 0xFFFFFFFFFFFFFFFFFFFFFFFFFFFFFFFFFFFFFFFF AND PUSH4 0x9D0EC380 DUP3 PUSH1 0x40 MLOAD DUP3 PUSH4 0xFFFFFFFF AND PUSH1 0xE0 SHL DUP2 MSTORE PUSH1 0x4 ADD PUSH2 0x4E6 SWAP2 SWAP1 PUSH2 0xD4B JUMP JUMPDEST PUSH1 0x20 PUSH1 0x40 MLOAD DUP1 DUP4 SUB DUP2 DUP7 GAS STATICCALL ISZERO DUP1 ISZERO PUSH2 0x501 JUMPI RETURNDATASIZE PUSH0 DUP1 RETURNDATACOPY RETURNDATASIZE PUSH0 REVERT JUMPDEST POP POP POP POP PUSH1 0x40 MLOAD RETURNDATASIZE PUSH1 0x1F NOT PUSH1 0x1F DUP3 ADD AND DUP3 ADD DUP1 PUSH1 0x40 MSTORE POP DUP2 ADD SWAP1 PUSH2 0x525 SWAP2 SWAP1 PUSH2 0x1634 JUMP JUMPDEST PUSH20 0xFFFFFFFFFFFFFFFFFFFFFFFFFFFFFFFFFFFFFFFF AND CALLER PUSH20 0xFFFFFFFFFFFFFFFFFFFFFFFFFFFFFFFFFFFFFFFF AND SUB PUSH2 0x560 JUMPI PUSH1 0x1 SWAP3 POP PUSH2 0x56D JUMP JUMPDEST DUP1 DUP1 PUSH1 0x1 ADD SWAP2 POP POP PUSH2 0x486 JUMP JUMPDEST POP DUP2 PUSH2 0x5AE JUMPI PUSH1 0x40 MLOAD PUSH32 0x8C379A000000000000000000000000000000000000000000000000000000000 DUP2 MSTORE PUSH1 0x4 ADD PUSH2 0x5A5 SWAP1 PUSH2 0x16CF JUMP JUMPDEST PUSH1 0x40 MLOAD DUP1 SWAP2 SUB SWAP1 REVERT JUMPDEST PUSH1 0x2 DUP4 SWAP1 DUP1 PUSH1 0x1 DUP2 SLOAD ADD DUP1 DUP3 SSTORE DUP1 SWAP2 POP POP PUSH1 0x1 SWAP1 SUB SWAP1 PUSH0 MSTORE PUSH1 0x20 PUSH0 KECCAK256 ADD PUSH0 SWAP1 SWAP2 SWAP1 SWAP2 SWAP1 SWAP2 POP SWAP1 DUP1 MLOAD SWAP1 PUSH1 0x20 ADD SWAP1 PUSH2 0x5E6 SWAP3 SWAP2 SWAP1 PUSH2 0xA60 JUMP JUMPDEST POP PUSH1 0x3 PUSH0 CALLER PUSH20 0xFFFFFFFFFFFFFFFFFFFFFFFFFFFFFFFFFFFFFFFF AND PUSH20 0xFFFFFFFFFFFFFFFFFFFFFFFFFFFFFFFFFFFFFFFF AND DUP2 MSTORE PUSH1 0x20 ADD SWAP1 DUP2 MSTORE PUSH1 0x20 ADD PUSH0 KECCAK256 DUP4 SWAP1 DUP1 PUSH1 0x1 DUP2 SLOAD ADD DUP1 DUP3 SSTORE DUP1 SWAP2 POP POP PUSH1 0x1 SWAP1 SUB SWAP1 PUSH0 MSTORE PUSH1 0x20 PUSH0 KECCAK256 ADD PUSH0 SWAP1 SWAP2 SWAP1 SWAP2 SWAP1 SWAP2 POP SWAP1 DUP1 MLOAD SWAP1 PUSH1 0x20 ADD SWAP1 PUSH2 0x65A SWAP3 SWAP2 SWAP1 PUSH2 0xA60 JUMP JUMPDEST POP POP POP POP JUMP JUMPDEST PUSH1 0x2 DUP3 DUP2 SLOAD DUP2 LT PUSH2 0x66F JUMPI PUSH0 DUP1 REVERT JUMPDEST SWAP1 PUSH0 MSTORE PUSH1 0x20 PUSH0 KECCAK256 ADD DUP2 DUP2 SLOAD DUP2 LT PUSH2 0x684 JUMPI PUSH0 DUP1 REVERT JUMPDEST SWAP1 PUSH0 MSTORE PUSH1 0x20 PUSH0 KECCAK256 ADD PUSH0 SWAP2 POP SWAP2 POP POP DUP1 SLOAD PUSH2 0x69D SWAP1 PUSH2 0x1345 JUMP JUMPDEST DUP1 PUSH1 0x1F ADD PUSH1 0x20 DUP1 SWAP2 DIV MUL PUSH1 0x20 ADD PUSH1 0x40 MLOAD SWAP1 DUP2 ADD PUSH1 0x40 MSTORE DUP1 SWAP3 SWAP2 SWAP1 DUP2 DUP2 MSTORE PUSH1 0x20 ADD DUP3 DUP1 SLOAD PUSH2 0x6C9 SWAP1 PUSH2 0x1345 JUMP JUMPDEST DUP1 ISZERO PUSH2 0x714 JUMPI DUP1 PUSH1 0x1F LT PUSH2 0x6EB JUMPI PUSH2 0x100 DUP1 DUP4 SLOAD DIV MUL DUP4 MSTORE SWAP2 PUSH1 0x20 ADD SWAP2 PUSH2 0x714 JUMP JUMPDEST DUP3 ADD SWAP2 SWAP1 PUSH0 MSTORE PUSH1 0x20 PUSH0 KECCAK256 SWAP1 JUMPDEST DUP2 SLOAD DUP2 MSTORE SWAP1 PUSH1 0x1 ADD SWAP1 PUSH1 0x20 ADD DUP1 DUP4 GT PUSH2 0x6F7 JUMPI DUP3 SWAP1 SUB PUSH1 0x1F AND DUP3 ADD SWAP2 JUMPDEST POP POP POP POP POP DUP2 JUMP JUMPDEST PUSH1 0x60 PUSH1 0x3 PUSH0 DUP4 PUSH20 0xFFFFFFFFFFFFFFFFFFFFFFFFFFFFFFFFFFFFFFFF AND PUSH20 0xFFFFFFFFFFFFFFFFFFFFFFFFFFFFFFFFFFFFFFFF AND DUP2 MSTORE PUSH1 0x20 ADD SWAP1 DUP2 MSTORE PUSH1 0x20 ADD PUSH0 KECCAK256 DUP1 SLOAD DUP1 PUSH1 0x20 MUL PUSH1 0x20 ADD PUSH1 0x40 MLOAD SWAP1 DUP2 ADD PUSH1 0x40 MSTORE DUP1 SWAP3 SWAP2 SWAP1 DUP2 DUP2 MSTORE PUSH1 0x20 ADD PUSH0 SWAP1 JUMPDEST DUP3 DUP3 LT ISZERO PUSH2 0x866 JUMPI DUP4 DUP3 SWAP1 PUSH0 MSTORE PUSH1 0x20 PUSH0 KECCAK256 ADD DUP1 SLOAD DUP1 PUSH1 0x20 MUL PUSH1 0x20 ADD PUSH1 0x40 MLOAD SWAP1 DUP2 ADD PUSH1 0x40 MSTORE DUP1 SWAP3 SWAP2 SWAP1 DUP2 DUP2 MSTORE PUSH1 0x20 ADD PUSH0 SWAP1 JUMPDEST DUP3 DUP3 LT ISZERO PUSH2 0x853 JUMPI DUP4 DUP3 SWAP1 PUSH0 MSTORE PUSH1 0x20 PUSH0 KECCAK256 ADD DUP1 SLOAD PUSH2 0x7C8 SWAP1 PUSH2 0x1345 JUMP JUMPDEST DUP1 PUSH1 0x1F ADD PUSH1 0x20 DUP1 SWAP2 DIV MUL PUSH1 0x20 ADD PUSH1 0x40 MLOAD SWAP1 DUP2 ADD PUSH1 0x40 MSTORE DUP1 SWAP3 SWAP2 SWAP1 DUP2 DUP2 MSTORE PUSH1 0x20 ADD DUP3 DUP1 SLOAD PUSH2 0x7F4 SWAP1 PUSH2 0x1345 JUMP JUMPDEST DUP1 ISZERO PUSH2 0x83F JUMPI DUP1 PUSH1 0x1F LT PUSH2 0x816 JUMPI PUSH2 0x100 DUP1 DUP4 SLOAD DIV MUL DUP4 MSTORE SWAP2 PUSH1 0x20 ADD SWAP2 PUSH2 0x83F JUMP JUMPDEST DUP3 ADD SWAP2 SWAP1 PUSH0 MSTORE PUSH1 0x20 PUSH0 KECCAK256 SWAP1 JUMPDEST DUP2 SLOAD DUP2 MSTORE SWAP1 PUSH1 0x1 ADD SWAP1 PUSH1 0x20 ADD DUP1 DUP4 GT PUSH2 0x822 JUMPI DUP3 SWAP1 SUB PUSH1 0x1F AND DUP3 ADD SWAP2 JUMPDEST POP POP POP POP POP DUP2 MSTORE PUSH1 0x20 ADD SWAP1 PUSH1 0x1 ADD SWAP1 PUSH2 0x7AB JUMP JUMPDEST POP POP POP POP DUP2 MSTORE PUSH1 0x20 ADD SWAP1 PUSH1 0x1 ADD SWAP1 PUSH2 0x77A JUMP JUMPDEST POP POP POP POP SWAP1 POP SWAP2 SWAP1 POP JUMP JUMPDEST PUSH1 0x4 DUP2 DUP2 SLOAD DUP2 LT PUSH2 0x880 JUMPI PUSH0 DUP1 REVERT JUMPDEST SWAP1 PUSH0 MSTORE PUSH1 0x20 PUSH0 KECCAK256 ADD PUSH0 SWAP2 POP SLOAD SWAP1 PUSH2 0x100 EXP SWAP1 DIV PUSH20 0xFFFFFFFFFFFFFFFFFFFFFFFFFFFFFFFFFFFFFFFF AND DUP2 JUMP JUMPDEST PUSH1 0x3 PUSH0 CALLER PUSH20 0xFFFFFFFFFFFFFFFFFFFFFFFFFFFFFFFFFFFFFFFF AND PUSH20 0xFFFFFFFFFFFFFFFFFFFFFFFFFFFFFFFFFFFFFFFF AND DUP2 MSTORE PUSH1 0x20 ADD SWAP1 DUP2 MSTORE PUSH1 0x20 ADD PUSH0 KECCAK256 DUP1 SLOAD SWAP1 POP DUP2 LT PUSH2 0x92E JUMPI PUSH1 0x40 MLOAD PUSH32 0x8C379A000000000000000000000000000000000000000000000000000000000 DUP2 MSTORE PUSH1 0x4 ADD PUSH2 0x925 SWAP1 PUSH2 0x1265 JUMP JUMPDEST PUSH1 0x40 MLOAD DUP1 SWAP2 SUB SWAP1 REVERT JUMPDEST PUSH1 0x3 PUSH0 CALLER PUSH20 0xFFFFFFFFFFFFFFFFFFFFFFFFFFFFFFFFFFFFFFFF AND PUSH20 0xFFFFFFFFFFFFFFFFFFFFFFFFFFFFFFFFFFFFFFFF AND DUP2 MSTORE PUSH1 0x20 ADD SWAP1 DUP2 MSTORE PUSH1 0x20 ADD PUSH0 KECCAK256 DUP2 DUP2 SLOAD DUP2 LT PUSH2 0x97D JUMPI PUSH2 0x97C PUSH2 0x1283 JUMP JUMPDEST JUMPDEST SWAP1 PUSH0 MSTORE PUSH1 0x20 PUSH0 KECCAK256 ADD PUSH0 PUSH2 0x990 SWAP2 SWAP1 PUSH2 0xAB7 JUMP JUMPDEST POP JUMP JUMPDEST PUSH1 0x5 DUP2 DUP2 SLOAD DUP2 LT PUSH2 0x9A2 JUMPI PUSH0 DUP1 REVERT JUMPDEST SWAP1 PUSH0 MSTORE PUSH1 0x20 PUSH0 KECCAK256 ADD PUSH0 SWAP2 POP SLOAD SWAP1 PUSH2 0x100 EXP SWAP1 DIV PUSH20 0xFFFFFFFFFFFFFFFFFFFFFFFFFFFFFFFFFFFFFFFF AND DUP2 JUMP JUMPDEST PUSH0 DUP1 SLOAD SWAP1 PUSH2 0x100 EXP SWAP1 DIV PUSH20 0xFFFFFFFFFFFFFFFFFFFFFFFFFFFFFFFFFFFFFFFF AND PUSH20 0xFFFFFFFFFFFFFFFFFFFFFFFFFFFFFFFFFFFFFFFF AND PUSH4 0x9B269B8F PUSH1 0x40 MLOAD DUP2 PUSH4 0xFFFFFFFF AND PUSH1 0xE0 SHL DUP2 MSTORE PUSH1 0x4 ADD PUSH0 PUSH1 0x40 MLOAD DUP1 DUP4 SUB DUP2 DUP7 GAS STATICCALL ISZERO DUP1 ISZERO PUSH2 0xA35 JUMPI RETURNDATASIZE PUSH0 DUP1 RETURNDATACOPY RETURNDATASIZE PUSH0 REVERT JUMPDEST POP POP POP POP PUSH1 0x40 MLOAD RETURNDATASIZE PUSH0 DUP3 RETURNDATACOPY RETURNDATASIZE PUSH1 0x1F NOT PUSH1 0x1F DUP3 ADD AND DUP3 ADD DUP1 PUSH1 0x40 MSTORE POP DUP2 ADD SWAP1 PUSH2 0xA5D SWAP2 SWAP1 PUSH2 0x17AD JUMP JUMPDEST POP JUMP JUMPDEST DUP3 DUP1 SLOAD DUP3 DUP3 SSTORE SWAP1 PUSH0 MSTORE PUSH1 0x20 PUSH0 KECCAK256 SWAP1 DUP2 ADD SWAP3 DUP3 ISZERO PUSH2 0xAA6 JUMPI SWAP2 PUSH1 0x20 MUL DUP3 ADD JUMPDEST DUP3 DUP2 GT ISZERO PUSH2 0xAA5 JUMPI DUP3 MLOAD DUP3 SWAP1 DUP2 PUSH2 0xA95 SWAP2 SWAP1 PUSH2 0x1512 JUMP JUMPDEST POP SWAP2 PUSH1 0x20 ADD SWAP2 SWAP1 PUSH1 0x1 ADD SWAP1 PUSH2 0xA7E JUMP JUMPDEST JUMPDEST POP SWAP1 POP PUSH2 0xAB3 SWAP2 SWAP1 PUSH2 0xAD5 JUMP JUMPDEST POP SWAP1 JUMP JUMPDEST POP DUP1 SLOAD PUSH0 DUP3 SSTORE SWAP1 PUSH0 MSTORE PUSH1 0x20 PUSH0 KECCAK256 SWAP1 DUP2 ADD SWAP1 PUSH2 0xAD2 SWAP2 SWAP1 PUSH2 0xAD5 JUMP JUMPDEST POP JUMP JUMPDEST JUMPDEST DUP1 DUP3 GT ISZERO PUSH2 0xAF4 JUMPI PUSH0 DUP2 DUP2 PUSH2 0xAEB SWAP2 SWAP1 PUSH2 0xAF8 JUMP JUMPDEST POP PUSH1 0x1 ADD PUSH2 0xAD6 JUMP JUMPDEST POP SWAP1 JUMP JUMPDEST POP DUP1 SLOAD PUSH2 0xB04 SWAP1 PUSH2 0x1345 JUMP JUMPDEST PUSH0 DUP3 SSTORE DUP1 PUSH1 0x1F LT PUSH2 0xB15 JUMPI POP PUSH2 0xB32 JUMP JUMPDEST PUSH1 0x1F ADD PUSH1 0x20 SWAP1 DIV SWAP1 PUSH0 MSTORE PUSH1 0x20 PUSH0 KECCAK256 SWAP1 DUP2 ADD SWAP1 PUSH2 0xB31 SWAP2 SWAP1 PUSH2 0xB35 JUMP JUMPDEST JUMPDEST POP JUMP JUMPDEST JUMPDEST DUP1 DUP3 GT ISZERO PUSH2 0xB4C JUMPI PUSH0 DUP2 PUSH0 SWAP1 SSTORE POP PUSH1 0x1 ADD PUSH2 0xB36 JUMP JUMPDEST POP SWAP1 JUMP JUMPDEST PUSH0 PUSH1 0x40 MLOAD SWAP1 POP SWAP1 JUMP JUMPDEST PUSH0 DUP1 REVERT JUMPDEST PUSH0 DUP1 REVERT JUMPDEST PUSH0 DUP2 SWAP1 POP SWAP2 SWAP1 POP JUMP JUMPDEST PUSH2 0xB73 DUP2 PUSH2 0xB61 JUMP JUMPDEST DUP2 EQ PUSH2 0xB7D JUMPI PUSH0 DUP1 REVERT JUMPDEST POP JUMP JUMPDEST PUSH0 DUP2 CALLDATALOAD SWAP1 POP PUSH2 0xB8E DUP2 PUSH2 0xB6A JUMP JUMPDEST SWAP3 SWAP2 POP POP JUMP JUMPDEST PUSH0 DUP1 REVERT JUMPDEST PUSH0 DUP1 REVERT JUMPDEST PUSH0 PUSH1 0x1F NOT PUSH1 0x1F DUP4 ADD AND SWAP1 POP SWAP2 SWAP1 POP JUMP JUMPDEST PUSH32 0x4E487B7100000000000000000000000000000000000000000000000000000000 PUSH0 MSTORE PUSH1 0x41 PUSH1 0x4 MSTORE PUSH1 0x24 PUSH0 REVERT JUMPDEST PUSH2 0xBE2 DUP3 PUSH2 0xB9C JUMP JUMPDEST DUP2 ADD DUP2 DUP2 LT PUSH8 0xFFFFFFFFFFFFFFFF DUP3 GT OR ISZERO PUSH2 0xC01 JUMPI PUSH2 0xC00 PUSH2 0xBAC JUMP JUMPDEST JUMPDEST DUP1 PUSH1 0x40 MSTORE POP POP POP JUMP JUMPDEST PUSH0 PUSH2 0xC13 PUSH2 0xB50 JUMP JUMPDEST SWAP1 POP PUSH2 0xC1F DUP3 DUP3 PUSH2 0xBD9 JUMP JUMPDEST SWAP2 SWAP1 POP JUMP JUMPDEST PUSH0 PUSH8 0xFFFFFFFFFFFFFFFF DUP3 GT ISZERO PUSH2 0xC3E JUMPI PUSH2 0xC3D PUSH2 0xBAC JUMP JUMPDEST JUMPDEST PUSH2 0xC47 DUP3 PUSH2 0xB9C JUMP JUMPDEST SWAP1 POP PUSH1 0x20 DUP2 ADD SWAP1 POP SWAP2 SWAP1 POP JUMP JUMPDEST DUP3 DUP2 DUP4 CALLDATACOPY PUSH0 DUP4 DUP4 ADD MSTORE POP POP POP JUMP JUMPDEST PUSH0 PUSH2 0xC74 PUSH2 0xC6F DUP5 PUSH2 0xC24 JUMP JUMPDEST PUSH2 0xC0A JUMP JUMPDEST SWAP1 POP DUP3 DUP2 MSTORE PUSH1 0x20 DUP2 ADD DUP5 DUP5 DUP5 ADD GT ISZERO PUSH2 0xC90 JUMPI PUSH2 0xC8F PUSH2 0xB98 JUMP JUMPDEST JUMPDEST PUSH2 0xC9B DUP5 DUP3 DUP6 PUSH2 0xC54 JUMP JUMPDEST POP SWAP4 SWAP3 POP POP POP JUMP JUMPDEST PUSH0 DUP3 PUSH1 0x1F DUP4 ADD SLT PUSH2 0xCB7 JUMPI PUSH2 0xCB6 PUSH2 0xB94 JUMP JUMPDEST JUMPDEST DUP2 CALLDATALOAD PUSH2 0xCC7 DUP5 DUP3 PUSH1 0x20 DUP7 ADD PUSH2 0xC62 JUMP JUMPDEST SWAP2 POP POP SWAP3 SWAP2 POP POP JUMP JUMPDEST PUSH0 DUP1 PUSH0 PUSH1 0x60 DUP5 DUP7 SUB SLT ISZERO PUSH2 0xCE7 JUMPI PUSH2 0xCE6 PUSH2 0xB59 JUMP JUMPDEST JUMPDEST PUSH0 PUSH2 0xCF4 DUP7 DUP3 DUP8 ADD PUSH2 0xB80 JUMP JUMPDEST SWAP4 POP POP PUSH1 0x20 PUSH2 0xD05 DUP7 DUP3 DUP8 ADD PUSH2 0xB80 JUMP JUMPDEST SWAP3 POP POP PUSH1 0x40 DUP5 ADD CALLDATALOAD PUSH8 0xFFFFFFFFFFFFFFFF DUP2 GT ISZERO PUSH2 0xD26 JUMPI PUSH2 0xD25 PUSH2 0xB5D JUMP JUMPDEST JUMPDEST PUSH2 0xD32 DUP7 DUP3 DUP8 ADD PUSH2 0xCA3 JUMP JUMPDEST SWAP2 POP POP SWAP3 POP SWAP3 POP SWAP3 JUMP JUMPDEST PUSH2 0xD45 DUP2 PUSH2 0xB61 JUMP JUMPDEST DUP3 MSTORE POP POP JUMP JUMPDEST PUSH0 PUSH1 0x20 DUP3 ADD SWAP1 POP PUSH2 0xD5E PUSH0 DUP4 ADD DUP5 PUSH2 0xD3C JUMP JUMPDEST SWAP3 SWAP2 POP POP JUMP JUMPDEST PUSH0 PUSH8 0xFFFFFFFFFFFFFFFF DUP3 GT ISZERO PUSH2 0xD7E JUMPI PUSH2 0xD7D PUSH2 0xBAC JUMP JUMPDEST JUMPDEST PUSH1 0x20 DUP3 MUL SWAP1 POP PUSH1 0x20 DUP2 ADD SWAP1 POP SWAP2 SWAP1 POP JUMP JUMPDEST PUSH0 DUP1 REVERT JUMPDEST PUSH0 PUSH2 0xDA5 PUSH2 0xDA0 DUP5 PUSH2 0xD64 JUMP JUMPDEST PUSH2 0xC0A JUMP JUMPDEST SWAP1 POP DUP1 DUP4 DUP3 MSTORE PUSH1 0x20 DUP3 ADD SWAP1 POP PUSH1 0x20 DUP5 MUL DUP4 ADD DUP6 DUP2 GT ISZERO PUSH2 0xDC8 JUMPI PUSH2 0xDC7 PUSH2 0xD8F JUMP JUMPDEST JUMPDEST DUP4 JUMPDEST DUP2 DUP2 LT ISZERO PUSH2 0xE0F JUMPI DUP1 CALLDATALOAD PUSH8 0xFFFFFFFFFFFFFFFF DUP2 GT ISZERO PUSH2 0xDED JUMPI PUSH2 0xDEC PUSH2 0xB94 JUMP JUMPDEST JUMPDEST DUP1 DUP7 ADD PUSH2 0xDFA DUP10 DUP3 PUSH2 0xCA3 JUMP JUMPDEST DUP6 MSTORE PUSH1 0x20 DUP6 ADD SWAP5 POP POP POP PUSH1 0x20 DUP2 ADD SWAP1 POP PUSH2 0xDCA JUMP JUMPDEST POP POP POP SWAP4 SWAP3 POP POP POP JUMP JUMPDEST PUSH0 DUP3 PUSH1 0x1F DUP4 ADD SLT PUSH2 0xE2D JUMPI PUSH2 0xE2C PUSH2 0xB94 JUMP JUMPDEST JUMPDEST DUP2 CALLDATALOAD PUSH2 0xE3D DUP5 DUP3 PUSH1 0x20 DUP7 ADD PUSH2 0xD93 JUMP JUMPDEST SWAP2 POP POP SWAP3 SWAP2 POP POP JUMP JUMPDEST PUSH0 PUSH1 0x20 DUP3 DUP5 SUB SLT ISZERO PUSH2 0xE5B JUMPI PUSH2 0xE5A PUSH2 0xB59 JUMP JUMPDEST JUMPDEST PUSH0 DUP3 ADD CALLDATALOAD PUSH8 0xFFFFFFFFFFFFFFFF DUP2 GT ISZERO PUSH2 0xE78 JUMPI PUSH2 0xE77 PUSH2 0xB5D JUMP JUMPDEST JUMPDEST PUSH2 0xE84 DUP5 DUP3 DUP6 ADD PUSH2 0xE19 JUMP JUMPDEST SWAP2 POP POP SWAP3 SWAP2 POP POP JUMP JUMPDEST PUSH0 DUP1 PUSH1 0x40 DUP4 DUP6 SUB SLT ISZERO PUSH2 0xEA3 JUMPI PUSH2 0xEA2 PUSH2 0xB59 JUMP JUMPDEST JUMPDEST PUSH0 PUSH2 0xEB0 DUP6 DUP3 DUP7 ADD PUSH2 0xB80 JUMP JUMPDEST SWAP3 POP POP PUSH1 0x20 PUSH2 0xEC1 DUP6 DUP3 DUP7 ADD PUSH2 0xB80 JUMP JUMPDEST SWAP2 POP POP SWAP3 POP SWAP3 SWAP1 POP JUMP JUMPDEST PUSH0 DUP2 MLOAD SWAP1 POP SWAP2 SWAP1 POP JUMP JUMPDEST PUSH0 DUP3 DUP3 MSTORE PUSH1 0x20 DUP3 ADD SWAP1 POP SWAP3 SWAP2 POP POP JUMP JUMPDEST PUSH0 JUMPDEST DUP4 DUP2 LT ISZERO PUSH2 0xF02 JUMPI DUP1 DUP3 ADD MLOAD DUP2 DUP5 ADD MSTORE PUSH1 0x20 DUP2 ADD SWAP1 POP PUSH2 0xEE7 JUMP JUMPDEST PUSH0 DUP5 DUP5 ADD MSTORE POP POP POP POP JUMP JUMPDEST PUSH0 PUSH2 0xF17 DUP3 PUSH2 0xECB JUMP JUMPDEST PUSH2 0xF21 DUP2 DUP6 PUSH2 0xED5 JUMP JUMPDEST SWAP4 POP PUSH2 0xF31 DUP2 DUP6 PUSH1 0x20 DUP7 ADD PUSH2 0xEE5 JUMP JUMPDEST PUSH2 0xF3A DUP2 PUSH2 0xB9C JUMP JUMPDEST DUP5 ADD SWAP2 POP POP SWAP3 SWAP2 POP POP JUMP JUMPDEST PUSH0 PUSH1 0x20 DUP3 ADD SWAP1 POP DUP2 DUP2 SUB PUSH0 DUP4 ADD MSTORE PUSH2 0xF5D DUP2 DUP5 PUSH2 0xF0D JUMP JUMPDEST SWAP1 POP SWAP3 SWAP2 POP POP JUMP JUMPDEST PUSH0 PUSH20 0xFFFFFFFFFFFFFFFFFFFFFFFFFFFFFFFFFFFFFFFF DUP3 AND SWAP1 POP SWAP2 SWAP1 POP JUMP JUMPDEST PUSH0 PUSH2 0xF8E DUP3 PUSH2 0xF65 JUMP JUMPDEST SWAP1 POP SWAP2 SWAP1 POP JUMP JUMPDEST PUSH2 0xF9E DUP2 PUSH2 0xF84 JUMP JUMPDEST DUP2 EQ PUSH2 0xFA8 JUMPI PUSH0 DUP1 REVERT JUMPDEST POP JUMP JUMPDEST PUSH0 DUP2 CALLDATALOAD SWAP1 POP PUSH2 0xFB9 DUP2 PUSH2 0xF95 JUMP JUMPDEST SWAP3 SWAP2 POP POP JUMP JUMPDEST PUSH0 PUSH1 0x20 DUP3 DUP5 SUB SLT ISZERO PUSH2 0xFD4 JUMPI PUSH2 0xFD3 PUSH2 0xB59 JUMP JUMPDEST JUMPDEST PUSH0 PUSH2 0xFE1 DUP5 DUP3 DUP6 ADD PUSH2 0xFAB JUMP JUMPDEST SWAP2 POP POP SWAP3 SWAP2 POP POP JUMP JUMPDEST PUSH0 DUP2 MLOAD SWAP1 POP SWAP2 SWAP1 POP JUMP JUMPDEST PUSH0 DUP3 DUP3 MSTORE PUSH1 0x20 DUP3 ADD SWAP1 POP SWAP3 SWAP2 POP POP JUMP JUMPDEST PUSH0 DUP2 SWAP1 POP PUSH1 0x20 DUP3 ADD SWAP1 POP SWAP2 SWAP1 POP JUMP JUMPDEST PUSH0 DUP2 MLOAD SWAP1 POP SWAP2 SWAP1 POP JUMP JUMPDEST PUSH0 DUP3 DUP3 MSTORE PUSH1 0x20 DUP3 ADD SWAP1 POP SWAP3 SWAP2 POP POP JUMP JUMPDEST PUSH0 DUP2 SWAP1 POP PUSH1 0x20 DUP3 ADD SWAP1 POP SWAP2 SWAP1 POP JUMP JUMPDEST PUSH0 DUP3 DUP3 MSTORE PUSH1 0x20 DUP3 ADD SWAP1 POP SWAP3 SWAP2 POP POP JUMP JUMPDEST PUSH0 PUSH2 0x1056 DUP3 PUSH2 0xECB JUMP JUMPDEST PUSH2 0x1060 DUP2 DUP6 PUSH2 0x103C JUMP JUMPDEST SWAP4 POP PUSH2 0x1070 DUP2 DUP6 PUSH1 0x20 DUP7 ADD PUSH2 0xEE5 JUMP JUMPDEST PUSH2 0x1079 DUP2 PUSH2 0xB9C JUMP JUMPDEST DUP5 ADD SWAP2 POP POP SWAP3 SWAP2 POP POP JUMP JUMPDEST PUSH0 PUSH2 0x108F DUP4 DUP4 PUSH2 0x104C JUMP JUMPDEST SWAP1 POP SWAP3 SWAP2 POP POP JUMP JUMPDEST PUSH0 PUSH1 0x20 DUP3 ADD SWAP1 POP SWAP2 SWAP1 POP JUMP JUMPDEST PUSH0 PUSH2 0x10AD DUP3 PUSH2 0x1013 JUMP JUMPDEST PUSH2 0x10B7 DUP2 DUP6 PUSH2 0x101D JUMP JUMPDEST SWAP4 POP DUP4 PUSH1 0x20 DUP3 MUL DUP6 ADD PUSH2 0x10C9 DUP6 PUSH2 0x102D JUMP JUMPDEST DUP1 PUSH0 JUMPDEST DUP6 DUP2 LT ISZERO PUSH2 0x1104 JUMPI DUP5 DUP5 SUB DUP10 MSTORE DUP2 MLOAD PUSH2 0x10E5 DUP6 DUP3 PUSH2 0x1084 JUMP JUMPDEST SWAP5 POP PUSH2 0x10F0 DUP4 PUSH2 0x1097 JUMP JUMPDEST SWAP3 POP PUSH1 0x20 DUP11 ADD SWAP10 POP POP PUSH1 0x1 DUP2 ADD SWAP1 POP PUSH2 0x10CC JUMP JUMPDEST POP DUP3 SWAP8 POP DUP8 SWAP6 POP POP POP POP POP POP SWAP3 SWAP2 POP POP JUMP JUMPDEST PUSH0 PUSH2 0x1121 DUP4 DUP4 PUSH2 0x10A3 JUMP JUMPDEST SWAP1 POP SWAP3 SWAP2 POP POP JUMP JUMPDEST PUSH0 PUSH1 0x20 DUP3 ADD SWAP1 POP SWAP2 SWAP1 POP JUMP JUMPDEST PUSH0 PUSH2 0x113F DUP3 PUSH2 0xFEA JUMP JUMPDEST PUSH2 0x1149 DUP2 DUP6 PUSH2 0xFF4 JUMP JUMPDEST SWAP4 POP DUP4 PUSH1 0x20 DUP3 MUL DUP6 ADD PUSH2 0x115B DUP6 PUSH2 0x1004 JUMP JUMPDEST DUP1 PUSH0 JUMPDEST DUP6 DUP2 LT ISZERO PUSH2 0x1196 JUMPI DUP5 DUP5 SUB DUP10 MSTORE DUP2 MLOAD PUSH2 0x1177 DUP6 DUP3 PUSH2 0x1116 JUMP JUMPDEST SWAP5 POP PUSH2 0x1182 DUP4 PUSH2 0x1129 JUMP JUMPDEST SWAP3 POP PUSH1 0x20 DUP11 ADD SWAP10 POP POP PUSH1 0x1 DUP2 ADD SWAP1 POP PUSH2 0x115E JUMP JUMPDEST POP DUP3 SWAP8 POP DUP8 SWAP6 POP POP POP POP POP POP SWAP3 SWAP2 POP POP JUMP JUMPDEST PUSH0 PUSH1 0x20 DUP3 ADD SWAP1 POP DUP2 DUP2 SUB PUSH0 DUP4 ADD MSTORE PUSH2 0x11C0 DUP2 DUP5 PUSH2 0x1135 JUMP JUMPDEST SWAP1 POP SWAP3 SWAP2 POP POP JUMP JUMPDEST PUSH0 PUSH1 0x20 DUP3 DUP5 SUB SLT ISZERO PUSH2 0x11DD JUMPI PUSH2 0x11DC PUSH2 0xB59 JUMP JUMPDEST JUMPDEST PUSH0 PUSH2 0x11EA DUP5 DUP3 DUP6 ADD PUSH2 0xB80 JUMP JUMPDEST SWAP2 POP POP SWAP3 SWAP2 POP POP JUMP JUMPDEST PUSH2 0x11FC DUP2 PUSH2 0xF84 JUMP JUMPDEST DUP3 MSTORE POP POP JUMP JUMPDEST PUSH0 PUSH1 0x20 DUP3 ADD SWAP1 POP PUSH2 0x1215 PUSH0 DUP4 ADD DUP5 PUSH2 0x11F3 JUMP JUMPDEST SWAP3 SWAP2 POP POP JUMP JUMPDEST PUSH32 0x4C69737420696E646578206F7574206F6620626F756E64730000000000000000 PUSH0 DUP3 ADD MSTORE POP JUMP JUMPDEST PUSH0 PUSH2 0x124F PUSH1 0x18 DUP4 PUSH2 0xED5 JUMP JUMPDEST SWAP2 POP PUSH2 0x125A DUP3 PUSH2 0x121B JUMP JUMPDEST PUSH1 0x20 DUP3 ADD SWAP1 POP SWAP2 SWAP1 POP JUMP JUMPDEST PUSH0 PUSH1 0x20 DUP3 ADD SWAP1 POP DUP2 DUP2 SUB PUSH0 DUP4 ADD MSTORE PUSH2 0x127C DUP2 PUSH2 0x1243 JUMP JUMPDEST SWAP1 POP SWAP2 SWAP1 POP JUMP JUMPDEST PUSH32 0x4E487B7100000000000000000000000000000000000000000000000000000000 PUSH0 MSTORE PUSH1 0x32 PUSH1 0x4 MSTORE PUSH1 0x24 PUSH0 REVERT JUMPDEST PUSH32 0x496E666F20696E646578206F7574206F6620626F756E64730000000000000000 PUSH0 DUP3 ADD MSTORE POP JUMP JUMPDEST PUSH0 PUSH2 0x12E4 PUSH1 0x18 DUP4 PUSH2 0xED5 JUMP JUMPDEST SWAP2 POP PUSH2 0x12EF DUP3 PUSH2 0x12B0 JUMP JUMPDEST PUSH1 0x20 DUP3 ADD SWAP1 POP SWAP2 SWAP1 POP JUMP JUMPDEST PUSH0 PUSH1 0x20 DUP3 ADD SWAP1 POP DUP2 DUP2 SUB PUSH0 DUP4 ADD MSTORE PUSH2 0x1311 DUP2 PUSH2 0x12D8 JUMP JUMPDEST SWAP1 POP SWAP2 SWAP1 POP JUMP JUMPDEST PUSH32 0x4E487B7100000000000000000000000000000000000000000000000000000000 PUSH0 MSTORE PUSH1 0x22 PUSH1 0x4 MSTORE PUSH1 0x24 PUSH0 REVERT JUMPDEST PUSH0 PUSH1 0x2 DUP3 DIV SWAP1 POP PUSH1 0x1 DUP3 AND DUP1 PUSH2 0x135C JUMPI PUSH1 0x7F DUP3 AND SWAP2 POP JUMPDEST PUSH1 0x20 DUP3 LT DUP2 SUB PUSH2 0x136F JUMPI PUSH2 0x136E PUSH2 0x1318 JUMP JUMPDEST JUMPDEST POP SWAP2 SWAP1 POP JUMP JUMPDEST PUSH0 DUP2 SWAP1 POP DUP2 PUSH0 MSTORE PUSH1 0x20 PUSH0 KECCAK256 SWAP1 POP SWAP2 SWAP1 POP JUMP JUMPDEST PUSH0 PUSH1 0x20 PUSH1 0x1F DUP4 ADD DIV SWAP1 POP SWAP2 SWAP1 POP JUMP JUMPDEST PUSH0 DUP3 DUP3 SHL SWAP1 POP SWAP3 SWAP2 POP POP JUMP JUMPDEST PUSH0 PUSH1 0x8 DUP4 MUL PUSH2 0x13D1 PUSH32 0xFFFFFFFFFFFFFFFFFFFFFFFFFFFFFFFFFFFFFFFFFFFFFFFFFFFFFFFFFFFFFFFF DUP3 PUSH2 0x1396 JUMP JUMPDEST PUSH2 0x13DB DUP7 DUP4 PUSH2 0x1396 JUMP JUMPDEST SWAP6 POP DUP1 NOT DUP5 AND SWAP4 POP DUP1 DUP7 AND DUP5 OR SWAP3 POP POP POP SWAP4 SWAP3 POP POP POP JUMP JUMPDEST PUSH0 DUP2 SWAP1 POP SWAP2 SWAP1 POP JUMP JUMPDEST PUSH0 PUSH2 0x1416 PUSH2 0x1411 PUSH2 0x140C DUP5 PUSH2 0xB61 JUMP JUMPDEST PUSH2 0x13F3 JUMP JUMPDEST PUSH2 0xB61 JUMP JUMPDEST SWAP1 POP SWAP2 SWAP1 POP JUMP JUMPDEST PUSH0 DUP2 SWAP1 POP SWAP2 SWAP1 POP JUMP JUMPDEST PUSH2 0x142F DUP4 PUSH2 0x13FC JUMP JUMPDEST PUSH2 0x1443 PUSH2 0x143B DUP3 PUSH2 0x141D JUMP JUMPDEST DUP5 DUP5 SLOAD PUSH2 0x13A2 JUMP JUMPDEST DUP3 SSTORE POP POP POP POP JUMP JUMPDEST PUSH0 SWAP1 JUMP JUMPDEST PUSH2 0x1457 PUSH2 0x144B JUMP JUMPDEST PUSH2 0x1462 DUP2 DUP5 DUP5 PUSH2 0x1426 JUMP JUMPDEST POP POP POP JUMP JUMPDEST JUMPDEST DUP2 DUP2 LT ISZERO PUSH2 0x1485 JUMPI PUSH2 0x147A PUSH0 DUP3 PUSH2 0x144F JUMP JUMPDEST PUSH1 0x1 DUP2 ADD SWAP1 POP PUSH2 0x1468 JUMP JUMPDEST POP POP JUMP JUMPDEST PUSH1 0x1F DUP3 GT ISZERO PUSH2 0x14CA JUMPI PUSH2 0x149B DUP2 PUSH2 0x1375 JUMP JUMPDEST PUSH2 0x14A4 DUP5 PUSH2 0x1387 JUMP JUMPDEST DUP2 ADD PUSH1 0x20 DUP6 LT ISZERO PUSH2 0x14B3 JUMPI DUP2 SWAP1 POP JUMPDEST PUSH2 0x14C7 PUSH2 0x14BF DUP6 PUSH2 0x1387 JUMP JUMPDEST DUP4 ADD DUP3 PUSH2 0x1467 JUMP JUMPDEST POP POP JUMPDEST POP POP POP JUMP JUMPDEST PUSH0 DUP3 DUP3 SHR SWAP1 POP SWAP3 SWAP2 POP POP JUMP JUMPDEST PUSH0 PUSH2 0x14EA PUSH0 NOT DUP5 PUSH1 0x8 MUL PUSH2 0x14CF JUMP JUMPDEST NOT DUP1 DUP4 AND SWAP2 POP POP SWAP3 SWAP2 POP POP JUMP JUMPDEST PUSH0 PUSH2 0x1502 DUP4 DUP4 PUSH2 0x14DB JUMP JUMPDEST SWAP2 POP DUP3 PUSH1 0x2 MUL DUP3 OR SWAP1 POP SWAP3 SWAP2 POP POP JUMP JUMPDEST PUSH2 0x151B DUP3 PUSH2 0xECB JUMP JUMPDEST PUSH8 0xFFFFFFFFFFFFFFFF DUP2 GT ISZERO PUSH2 0x1534 JUMPI PUSH2 0x1533 PUSH2 0xBAC JUMP JUMPDEST JUMPDEST PUSH2 0x153E DUP3 SLOAD PUSH2 0x1345 JUMP JUMPDEST PUSH2 0x1549 DUP3 DUP3 DUP6 PUSH2 0x1489 JUMP JUMPDEST PUSH0 PUSH1 0x20 SWAP1 POP PUSH1 0x1F DUP4 GT PUSH1 0x1 DUP2 EQ PUSH2 0x157A JUMPI PUSH0 DUP5 ISZERO PUSH2 0x1568 JUMPI DUP3 DUP8 ADD MLOAD SWAP1 POP JUMPDEST PUSH2 0x1572 DUP6 DUP3 PUSH2 0x14F7 JUMP JUMPDEST DUP7 SSTORE POP PUSH2 0x15D9 JUMP JUMPDEST PUSH1 0x1F NOT DUP5 AND PUSH2 0x1588 DUP7 PUSH2 0x1375 JUMP JUMPDEST PUSH0 JUMPDEST DUP3 DUP2 LT ISZERO PUSH2 0x15AF JUMPI DUP5 DUP10 ADD MLOAD DUP3 SSTORE PUSH1 0x1 DUP3 ADD SWAP2 POP PUSH1 0x20 DUP6 ADD SWAP5 POP PUSH1 0x20 DUP2 ADD SWAP1 POP PUSH2 0x158A JUMP JUMPDEST DUP7 DUP4 LT ISZERO PUSH2 0x15CC JUMPI DUP5 DUP10 ADD MLOAD PUSH2 0x15C8 PUSH1 0x1F DUP10 AND DUP3 PUSH2 0x14DB JUMP JUMPDEST DUP4 SSTORE POP JUMPDEST PUSH1 0x1 PUSH1 0x2 DUP9 MUL ADD DUP9 SSTORE POP POP POP JUMPDEST POP POP POP POP POP POP JUMP JUMPDEST PUSH0 DUP2 MLOAD SWAP1 POP PUSH2 0x15EF DUP2 PUSH2 0xB6A JUMP JUMPDEST SWAP3 SWAP2 POP POP JUMP JUMPDEST PUSH0 PUSH1 0x20 DUP3 DUP5 SUB SLT ISZERO PUSH2 0x160A JUMPI PUSH2 0x1609 PUSH2 0xB59 JUMP JUMPDEST JUMPDEST PUSH0 PUSH2 0x1617 DUP5 DUP3 DUP6 ADD PUSH2 0x15E1 JUMP JUMPDEST SWAP2 POP POP SWAP3 SWAP2 POP POP JUMP JUMPDEST PUSH0 DUP2 MLOAD SWAP1 POP PUSH2 0x162E DUP2 PUSH2 0xF95 JUMP JUMPDEST SWAP3 SWAP2 POP POP JUMP JUMPDEST PUSH0 PUSH1 0x20 DUP3 DUP5 SUB SLT ISZERO PUSH2 0x1649 JUMPI PUSH2 0x1648 PUSH2 0xB59 JUMP JUMPDEST JUMPDEST PUSH0 PUSH2 0x1656 DUP5 DUP3 DUP6 ADD PUSH2 0x1620 JUMP JUMPDEST SWAP2 POP POP SWAP3 SWAP2 POP POP JUMP JUMPDEST PUSH32 0x4F6E6C792073656C6C65722063616E2063616C6C20746869732066756E637469 PUSH0 DUP3 ADD MSTORE PUSH32 0x6F6E000000000000000000000000000000000000000000000000000000000000 PUSH1 0x20 DUP3 ADD MSTORE POP JUMP JUMPDEST PUSH0 PUSH2 0x16B9 PUSH1 0x22 DUP4 PUSH2 0xED5 JUMP JUMPDEST SWAP2 POP PUSH2 0x16C4 DUP3 PUSH2 0x165F JUMP JUMPDEST PUSH1 0x40 DUP3 ADD SWAP1 POP SWAP2 SWAP1 POP JUMP JUMPDEST PUSH0 PUSH1 0x20 DUP3 ADD SWAP1 POP DUP2 DUP2 SUB PUSH0 DUP4 ADD MSTORE PUSH2 0x16E6 DUP2 PUSH2 0x16AD JUMP JUMPDEST SWAP1 POP SWAP2 SWAP1 POP JUMP JUMPDEST PUSH0 PUSH8 0xFFFFFFFFFFFFFFFF DUP3 GT ISZERO PUSH2 0x1707 JUMPI PUSH2 0x1706 PUSH2 0xBAC JUMP JUMPDEST JUMPDEST PUSH1 0x20 DUP3 MUL SWAP1 POP PUSH1 0x20 DUP2 ADD SWAP1 POP SWAP2 SWAP1 POP JUMP JUMPDEST PUSH0 PUSH2 0x172A PUSH2 0x1725 DUP5 PUSH2 0x16ED JUMP JUMPDEST PUSH2 0xC0A JUMP JUMPDEST SWAP1 POP DUP1 DUP4 DUP3 MSTORE PUSH1 0x20 DUP3 ADD SWAP1 POP PUSH1 0x20 DUP5 MUL DUP4 ADD DUP6 DUP2 GT ISZERO PUSH2 0x174D JUMPI PUSH2 0x174C PUSH2 0xD8F JUMP JUMPDEST JUMPDEST DUP4 JUMPDEST DUP2 DUP2 LT ISZERO PUSH2 0x1776 JUMPI DUP1 PUSH2 0x1762 DUP9 DUP3 PUSH2 0x1620 JUMP JUMPDEST DUP5 MSTORE PUSH1 0x20 DUP5 ADD SWAP4 POP POP PUSH1 0x20 DUP2 ADD SWAP1 POP PUSH2 0x174F JUMP JUMPDEST POP POP POP SWAP4 SWAP3 POP POP POP JUMP JUMPDEST PUSH0 DUP3 PUSH1 0x1F DUP4 ADD SLT PUSH2 0x1794 JUMPI PUSH2 0x1793 PUSH2 0xB94 JUMP JUMPDEST JUMPDEST DUP2 MLOAD PUSH2 0x17A4 DUP5 DUP3 PUSH1 0x20 DUP7 ADD PUSH2 0x1718 JUMP JUMPDEST SWAP2 POP POP SWAP3 SWAP2 POP POP JUMP JUMPDEST PUSH0 PUSH1 0x20 DUP3 DUP5 SUB SLT ISZERO PUSH2 0x17C2 JUMPI PUSH2 0x17C1 PUSH2 0xB59 JUMP JUMPDEST JUMPDEST PUSH0 DUP3 ADD MLOAD PUSH8 0xFFFFFFFFFFFFFFFF DUP2 GT ISZERO PUSH2 0x17DF JUMPI PUSH2 0x17DE PUSH2 0xB5D JUMP JUMPDEST JUMPDEST PUSH2 0x17EB DUP5 DUP3 DUP6 ADD PUSH2 0x1780 JUMP JUMPDEST SWAP2 POP POP SWAP3 SWAP2 POP POP JUMP INVALID LOG2 PUSH5 0x6970667358 0x22 SLT KECCAK256 SWAP5 PUSH24 0xCD0017716BB6F961433386CEAC6EF5E33D52B845F81A602A SWAP10 0xE 0x2A 0xA7 EXTCODEHASH EQ PUSH5 0x736F6C6343 STOP ADDMOD AND STOP CALLER PUSH1 0x80 PUSH1 0x40 MSTORE CALLVALUE DUP1 ISZERO PUSH2 0xF JUMPI PUSH0 DUP1 REVERT JUMPDEST POP PUSH0 PUSH20 0x5B38DA6A701C568545DCFCB03FCB875F56BEDDC4 SWAP1 DUP1 PUSH1 0x1 DUP2 SLOAD ADD DUP1 DUP3 SSTORE DUP1 SWAP2 POP POP PUSH1 0x1 SWAP1 SUB SWAP1 PUSH0 MSTORE PUSH1 0x20 PUSH0 KECCAK256 ADD PUSH0 SWAP1 SWAP2 SWAP1 SWAP2 SWAP1 SWAP2 PUSH2 0x100 EXP DUP2 SLOAD DUP2 PUSH20 0xFFFFFFFFFFFFFFFFFFFFFFFFFFFFFFFFFFFFFFFF MUL NOT AND SWAP1 DUP4 PUSH20 0xFFFFFFFFFFFFFFFFFFFFFFFFFFFFFFFFFFFFFFFF AND MUL OR SWAP1 SSTORE POP PUSH0 PUSH20 0xAB8483F64D9C6D1ECF9B849AE677DD3315835CB2 SWAP1 DUP1 PUSH1 0x1 DUP2 SLOAD ADD DUP1 DUP3 SSTORE DUP1 SWAP2 POP POP PUSH1 0x1 SWAP1 SUB SWAP1 PUSH0 MSTORE PUSH1 0x20 PUSH0 KECCAK256 ADD PUSH0 SWAP1 SWAP2 SWAP1 SWAP2 SWAP1 SWAP2 PUSH2 0x100 EXP DUP2 SLOAD DUP2 PUSH20 0xFFFFFFFFFFFFFFFFFFFFFFFFFFFFFFFFFFFFFFFF MUL NOT AND SWAP1 DUP4 PUSH20 0xFFFFFFFFFFFFFFFFFFFFFFFFFFFFFFFFFFFFFFFF AND MUL OR SWAP1 SSTORE POP PUSH2 0x5B4 DUP1 PUSH2 0x103 PUSH0 CODECOPY PUSH0 RETURN INVALID PUSH1 0x80 PUSH1 0x40 MSTORE CALLVALUE DUP1 ISZERO PUSH2 0xF JUMPI PUSH0 DUP1 REVERT JUMPDEST POP PUSH1 0x4 CALLDATASIZE LT PUSH2 0x55 JUMPI PUSH0 CALLDATALOAD PUSH1 0xE0 SHR DUP1 PUSH4 0x7CAC07AF EQ PUSH2 0x59 JUMPI DUP1 PUSH4 0x9B269B8F EQ PUSH2 0x77 JUMPI DUP1 PUSH4 0x9D0EC380 EQ PUSH2 0x95 JUMPI DUP1 PUSH4 0xCEE26ED5 EQ PUSH2 0xC5 JUMPI DUP1 PUSH4 0xD93FABFA EQ PUSH2 0xF5 JUMPI JUMPDEST PUSH0 DUP1 REVERT JUMPDEST PUSH2 0x61 PUSH2 0x111 JUMP JUMPDEST PUSH1 0x40 MLOAD PUSH2 0x6E SWAP2 SWAP1 PUSH2 0x2E3 JUMP JUMPDEST PUSH1 0x40 MLOAD DUP1 SWAP2 SUB SWAP1 RETURN JUMPDEST PUSH2 0x7F PUSH2 0x11C JUMP JUMPDEST PUSH1 0x40 MLOAD PUSH2 0x8C SWAP2 SWAP1 PUSH2 0x3E3 JUMP JUMPDEST PUSH1 0x40 MLOAD DUP1 SWAP2 SUB SWAP1 RETURN JUMPDEST PUSH2 0xAF PUSH1 0x4 DUP1 CALLDATASIZE SUB DUP2 ADD SWAP1 PUSH2 0xAA SWAP2 SWAP1 PUSH2 0x431 JUMP JUMPDEST PUSH2 0x1A6 JUMP JUMPDEST PUSH1 0x40 MLOAD PUSH2 0xBC SWAP2 SWAP1 PUSH2 0x46B JUMP JUMPDEST PUSH1 0x40 MLOAD DUP1 SWAP2 SUB SWAP1 RETURN JUMPDEST PUSH2 0xDF PUSH1 0x4 DUP1 CALLDATASIZE SUB DUP2 ADD SWAP1 PUSH2 0xDA SWAP2 SWAP1 PUSH2 0x431 JUMP JUMPDEST PUSH2 0x22F JUMP JUMPDEST PUSH1 0x40 MLOAD PUSH2 0xEC SWAP2 SWAP1 PUSH2 0x46B JUMP JUMPDEST PUSH1 0x40 MLOAD DUP1 SWAP2 SUB SWAP1 RETURN JUMPDEST PUSH2 0x10F PUSH1 0x4 DUP1 CALLDATASIZE SUB DUP2 ADD SWAP1 PUSH2 0x10A SWAP2 SWAP1 PUSH2 0x4AE JUMP JUMPDEST PUSH2 0x269 JUMP JUMPDEST STOP JUMPDEST PUSH0 DUP1 DUP1 SLOAD SWAP1 POP SWAP1 POP SWAP1 JUMP JUMPDEST PUSH1 0x60 PUSH0 DUP1 SLOAD DUP1 PUSH1 0x20 MUL PUSH1 0x20 ADD PUSH1 0x40 MLOAD SWAP1 DUP2 ADD PUSH1 0x40 MSTORE DUP1 SWAP3 SWAP2 SWAP1 DUP2 DUP2 MSTORE PUSH1 0x20 ADD DUP3 DUP1 SLOAD DUP1 ISZERO PUSH2 0x19C JUMPI PUSH1 0x20 MUL DUP3 ADD SWAP2 SWAP1 PUSH0 MSTORE PUSH1 0x20 PUSH0 KECCAK256 SWAP1 JUMPDEST DUP2 PUSH0 SWAP1 SLOAD SWAP1 PUSH2 0x100 EXP SWAP1 DIV PUSH20 0xFFFFFFFFFFFFFFFFFFFFFFFFFFFFFFFFFFFFFFFF AND PUSH20 0xFFFFFFFFFFFFFFFFFFFFFFFFFFFFFFFFFFFFFFFF AND DUP2 MSTORE PUSH1 0x20 ADD SWAP1 PUSH1 0x1 ADD SWAP1 DUP1 DUP4 GT PUSH2 0x153 JUMPI JUMPDEST POP POP POP POP POP SWAP1 POP SWAP1 JUMP JUMPDEST PUSH0 DUP1 DUP1 SLOAD SWAP1 POP DUP3 LT PUSH2 0x1ED JUMPI PUSH1 0x40 MLOAD PUSH32 0x8C379A000000000000000000000000000000000000000000000000000000000 DUP2 MSTORE PUSH1 0x4 ADD PUSH2 0x1E4 SWAP1 PUSH2 0x533 JUMP JUMPDEST PUSH1 0x40 MLOAD DUP1 SWAP2 SUB SWAP1 REVERT JUMPDEST PUSH0 DUP3 DUP2 SLOAD DUP2 LT PUSH2 0x200 JUMPI PUSH2 0x1FF PUSH2 0x551 JUMP JUMPDEST JUMPDEST SWAP1 PUSH0 MSTORE PUSH1 0x20 PUSH0 KECCAK256 ADD PUSH0 SWAP1 SLOAD SWAP1 PUSH2 0x100 EXP SWAP1 DIV PUSH20 0xFFFFFFFFFFFFFFFFFFFFFFFFFFFFFFFFFFFFFFFF AND SWAP1 POP SWAP2 SWAP1 POP JUMP JUMPDEST PUSH0 DUP2 DUP2 SLOAD DUP2 LT PUSH2 0x23D JUMPI PUSH0 DUP1 REVERT JUMPDEST SWAP1 PUSH0 MSTORE PUSH1 0x20 PUSH0 KECCAK256 ADD PUSH0 SWAP2 POP SLOAD SWAP1 PUSH2 0x100 EXP SWAP1 DIV PUSH20 0xFFFFFFFFFFFFFFFFFFFFFFFFFFFFFFFFFFFFFFFF AND DUP2 JUMP JUMPDEST PUSH0 DUP2 SWAP1 DUP1 PUSH1 0x1 DUP2 SLOAD ADD DUP1 DUP3 SSTORE DUP1 SWAP2 POP POP PUSH1 0x1 SWAP1 SUB SWAP1 PUSH0 MSTORE PUSH1 0x20 PUSH0 KECCAK256 ADD PUSH0 SWAP1 SWAP2 SWAP1 SWAP2 SWAP1 SWAP2 PUSH2 0x100 EXP DUP2 SLOAD DUP2 PUSH20 0xFFFFFFFFFFFFFFFFFFFFFFFFFFFFFFFFFFFFFFFF MUL NOT AND SWAP1 DUP4 PUSH20 0xFFFFFFFFFFFFFFFFFFFFFFFFFFFFFFFFFFFFFFFF AND MUL OR SWAP1 SSTORE POP POP JUMP JUMPDEST PUSH0 DUP2 SWAP1 POP SWAP2 SWAP1 POP JUMP JUMPDEST PUSH2 0x2DD DUP2 PUSH2 0x2CB JUMP JUMPDEST DUP3 MSTORE POP POP JUMP JUMPDEST PUSH0 PUSH1 0x20 DUP3 ADD SWAP1 POP PUSH2 0x2F6 PUSH0 DUP4 ADD DUP5 PUSH2 0x2D4 JUMP JUMPDEST SWAP3 SWAP2 POP POP JUMP JUMPDEST PUSH0 DUP2 MLOAD SWAP1 POP SWAP2 SWAP1 POP JUMP JUMPDEST PUSH0 DUP3 DUP3 MSTORE PUSH1 0x20 DUP3 ADD SWAP1 POP SWAP3 SWAP2 POP POP JUMP JUMPDEST PUSH0 DUP2 SWAP1 POP PUSH1 0x20 DUP3 ADD SWAP1 POP SWAP2 SWAP1 POP JUMP JUMPDEST PUSH0 PUSH20 0xFFFFFFFFFFFFFFFFFFFFFFFFFFFFFFFFFFFFFFFF DUP3 AND SWAP1 POP SWAP2 SWAP1 POP JUMP JUMPDEST PUSH0 PUSH2 0x34E DUP3 PUSH2 0x325 JUMP JUMPDEST SWAP1 POP SWAP2 SWAP1 POP JUMP JUMPDEST PUSH2 0x35E DUP2 PUSH2 0x344 JUMP JUMPDEST DUP3 MSTORE POP POP JUMP JUMPDEST PUSH0 PUSH2 0x36F DUP4 DUP4 PUSH2 0x355 JUMP JUMPDEST PUSH1 0x20 DUP4 ADD SWAP1 POP SWAP3 SWAP2 POP POP JUMP JUMPDEST PUSH0 PUSH1 0x20 DUP3 ADD SWAP1 POP SWAP2 SWAP1 POP JUMP JUMPDEST PUSH0 PUSH2 0x391 DUP3 PUSH2 0x2FC JUMP JUMPDEST PUSH2 0x39B DUP2 DUP6 PUSH2 0x306 JUMP JUMPDEST SWAP4 POP PUSH2 0x3A6 DUP4 PUSH2 0x316 JUMP JUMPDEST DUP1 PUSH0 JUMPDEST DUP4 DUP2 LT ISZERO PUSH2 0x3D6 JUMPI DUP2 MLOAD PUSH2 0x3BD DUP9 DUP3 PUSH2 0x364 JUMP JUMPDEST SWAP8 POP PUSH2 0x3C8 DUP4 PUSH2 0x37B JUMP JUMPDEST SWAP3 POP POP PUSH1 0x1 DUP2 ADD SWAP1 POP PUSH2 0x3A9 JUMP JUMPDEST POP DUP6 SWAP4 POP POP POP POP SWAP3 SWAP2 POP POP JUMP JUMPDEST PUSH0 PUSH1 0x20 DUP3 ADD SWAP1 POP DUP2 DUP2 SUB PUSH0 DUP4 ADD MSTORE PUSH2 0x3FB DUP2 DUP5 PUSH2 0x387 JUMP JUMPDEST SWAP1 POP SWAP3 SWAP2 POP POP JUMP JUMPDEST PUSH0 DUP1 REVERT JUMPDEST PUSH2 0x410 DUP2 PUSH2 0x2CB JUMP JUMPDEST DUP2 EQ PUSH2 0x41A JUMPI PUSH0 DUP1 REVERT JUMPDEST POP JUMP JUMPDEST PUSH0 DUP2 CALLDATALOAD SWAP1 POP PUSH2 0x42B DUP2 PUSH2 0x407 JUMP JUMPDEST SWAP3 SWAP2 POP POP JUMP JUMPDEST PUSH0 PUSH1 0x20 DUP3 DUP5 SUB SLT ISZERO PUSH2 0x446 JUMPI PUSH2 0x445 PUSH2 0x403 JUMP JUMPDEST JUMPDEST PUSH0 PUSH2 0x453 DUP5 DUP3 DUP6 ADD PUSH2 0x41D JUMP JUMPDEST SWAP2 POP POP SWAP3 SWAP2 POP POP JUMP JUMPDEST PUSH2 0x465 DUP2 PUSH2 0x344 JUMP JUMPDEST DUP3 MSTORE POP POP JUMP JUMPDEST PUSH0 PUSH1 0x20 DUP3 ADD SWAP1 POP PUSH2 0x47E PUSH0 DUP4 ADD DUP5 PUSH2 0x45C JUMP JUMPDEST SWAP3 SWAP2 POP POP JUMP JUMPDEST PUSH2 0x48D DUP2 PUSH2 0x344 JUMP JUMPDEST DUP2 EQ PUSH2 0x497 JUMPI PUSH0 DUP1 REVERT JUMPDEST POP JUMP JUMPDEST PUSH0 DUP2 CALLDATALOAD SWAP1 POP PUSH2 0x4A8 DUP2 PUSH2 0x484 JUMP JUMPDEST SWAP3 SWAP2 POP POP JUMP JUMPDEST PUSH0 PUSH1 0x20 DUP3 DUP5 SUB SLT ISZERO PUSH2 0x4C3 JUMPI PUSH2 0x4C2 PUSH2 0x403 JUMP JUMPDEST JUMPDEST PUSH0 PUSH2 0x4D0 DUP5 DUP3 DUP6 ADD PUSH2 0x49A JUMP JUMPDEST SWAP2 POP POP SWAP3 SWAP2 POP POP JUMP JUMPDEST PUSH0 DUP3 DUP3 MSTORE PUSH1 0x20 DUP3 ADD SWAP1 POP SWAP3 SWAP2 POP POP JUMP JUMPDEST PUSH32 0x496E646578206F7574206F6620626F756E647300000000000000000000000000 PUSH0 DUP3 ADD MSTORE POP JUMP JUMPDEST PUSH0 PUSH2 0x51D PUSH1 0x13 DUP4 PUSH2 0x4D9 JUMP JUMPDEST SWAP2 POP PUSH2 0x528 DUP3 PUSH2 0x4E9 JUMP JUMPDEST PUSH1 0x20 DUP3 ADD SWAP1 POP SWAP2 SWAP1 POP JUMP JUMPDEST PUSH0 PUSH1 0x20 DUP3 ADD SWAP1 POP DUP2 DUP2 SUB PUSH0 DUP4 ADD MSTORE PUSH2 0x54A DUP2 PUSH2 0x511 JUMP JUMPDEST SWAP1 POP SWAP2 SWAP1 POP JUMP JUMPDEST PUSH32 0x4E487B7100000000000000000000000000000000000000000000000000000000 PUSH0 MSTORE PUSH1 0x32 PUSH1 0x4 MSTORE PUSH1 0x24 PUSH0 REVERT INVALID LOG2 PUSH5 0x6970667358 0x22 SLT KECCAK256 0xEA PUSH28 0xBDAF9D6DE8A0F48FFAC9E9BBEA25A6122FFBF24896C7F8A61F1968FB 0xB8 PUSH12 0x64736F6C6343000816003360 DUP1 PUSH1 0x40 MSTORE CALLVALUE DUP1 ISZERO PUSH2 0xF JUMPI PUSH0 DUP1 REVERT JUMPDEST POP PUSH0 PUSH20 0x5B38DA6A701C568545DCFCB03FCB875F56BEDDC4 SWAP1 DUP1 PUSH1 0x1 DUP2 SLOAD ADD DUP1 DUP3 SSTORE DUP1 SWAP2 POP POP PUSH1 0x1 SWAP1 SUB SWAP1 PUSH0 MSTORE PUSH1 0x20 PUSH0 KECCAK256 ADD PUSH0 SWAP1 SWAP2 SWAP1 SWAP2 SWAP1 SWAP2 PUSH2 0x100 EXP DUP2 SLOAD DUP2 PUSH20 0xFFFFFFFFFFFFFFFFFFFFFFFFFFFFFFFFFFFFFFFF MUL NOT AND SWAP1 DUP4 PUSH20 0xFFFFFFFFFFFFFFFFFFFFFFFFFFFFFFFFFFFFFFFF AND MUL OR SWAP1 SSTORE POP PUSH0 PUSH20 0xAB8483F64D9C6D1ECF9B849AE677DD3315835CB2 SWAP1 DUP1 PUSH1 0x1 DUP2 SLOAD ADD DUP1 DUP3 SSTORE DUP1 SWAP2 POP POP PUSH1 0x1 SWAP1 SUB SWAP1 PUSH0 MSTORE PUSH1 0x20 PUSH0 KECCAK256 ADD PUSH0 SWAP1 SWAP2 SWAP1 SWAP2 SWAP1 SWAP2 PUSH2 0x100 EXP DUP2 SLOAD DUP2 PUSH20 0xFFFFFFFFFFFFFFFFFFFFFFFFFFFFFFFFFFFFFFFF MUL NOT AND SWAP1 DUP4 PUSH20 0xFFFFFFFFFFFFFFFFFFFFFFFFFFFFFFFFFFFFFFFF AND MUL OR SWAP1 SSTORE POP PUSH2 0x5B4 DUP1 PUSH2 0x103 PUSH0 CODECOPY PUSH0 RETURN INVALID PUSH1 0x80 PUSH1 0x40 MSTORE CALLVALUE DUP1 ISZERO PUSH2 0xF JUMPI PUSH0 DUP1 REVERT JUMPDEST POP PUSH1 0x4 CALLDATASIZE LT PUSH2 0x55 JUMPI PUSH0 CALLDATALOAD PUSH1 0xE0 SHR DUP1 PUSH4 0x48E5FF6D EQ PUSH2 0x59 JUMPI DUP1 PUSH4 0x6CD84F70 EQ PUSH2 0x89 JUMPI DUP1 PUSH4 0x86CBA22B EQ PUSH2 0xA7 JUMPI DUP1 PUSH4 0xE8266A78 EQ PUSH2 0xC5 JUMPI DUP1 PUSH4 0xF2AA8218 EQ PUSH2 0xE1 JUMPI JUMPDEST PUSH0 DUP1 REVERT JUMPDEST PUSH2 0x73 PUSH1 0x4 DUP1 CALLDATASIZE SUB DUP2 ADD SWAP1 PUSH2 0x6E SWAP2 SWAP1 PUSH2 0x302 JUMP JUMPDEST PUSH2 0x111 JUMP JUMPDEST PUSH1 0x40 MLOAD PUSH2 0x80 SWAP2 SWAP1 PUSH2 0x36C JUMP JUMPDEST PUSH1 0x40 MLOAD DUP1 SWAP2 SUB SWAP1 RETURN JUMPDEST PUSH2 0x91 PUSH2 0x19A JUMP JUMPDEST PUSH1 0x40 MLOAD PUSH2 0x9E SWAP2 SWAP1 PUSH2 0x394 JUMP JUMPDEST PUSH1 0x40 MLOAD DUP1 SWAP2 SUB SWAP1 RETURN JUMPDEST PUSH2 0xAF PUSH2 0x1A5 JUMP JUMPDEST PUSH1 0x40 MLOAD PUSH2 0xBC SWAP2 SWAP1 PUSH2 0x464 JUMP JUMPDEST PUSH1 0x40 MLOAD DUP1 SWAP2 SUB SWAP1 RETURN JUMPDEST PUSH2 0xDF PUSH1 0x4 DUP1 CALLDATASIZE SUB DUP2 ADD SWAP1 PUSH2 0xDA SWAP2 SWAP1 PUSH2 0x4AE JUMP JUMPDEST PUSH2 0x22F JUMP JUMPDEST STOP JUMPDEST PUSH2 0xFB PUSH1 0x4 DUP1 CALLDATASIZE SUB DUP2 ADD SWAP1 PUSH2 0xF6 SWAP2 SWAP1 PUSH2 0x302 JUMP JUMPDEST PUSH2 0x291 JUMP JUMPDEST PUSH1 0x40 MLOAD PUSH2 0x108 SWAP2 SWAP1 PUSH2 0x36C JUMP JUMPDEST PUSH1 0x40 MLOAD DUP1 SWAP2 SUB SWAP1 RETURN JUMPDEST PUSH0 DUP1 DUP1 SLOAD SWAP1 POP DUP3 LT PUSH2 0x158 JUMPI PUSH1 0x40 MLOAD PUSH32 0x8C379A000000000000000000000000000000000000000000000000000000000 DUP2 MSTORE PUSH1 0x4 ADD PUSH2 0x14F SWAP1 PUSH2 0x533 JUMP JUMPDEST PUSH1 0x40 MLOAD DUP1 SWAP2 SUB SWAP1 REVERT JUMPDEST PUSH0 DUP3 DUP2 SLOAD DUP2 LT PUSH2 0x16B JUMPI PUSH2 0x16A PUSH2 0x551 JUMP JUMPDEST JUMPDEST SWAP1 PUSH0 MSTORE PUSH1 0x20 PUSH0 KECCAK256 ADD PUSH0 SWAP1 SLOAD SWAP1 PUSH2 0x100 EXP SWAP1 DIV PUSH20 0xFFFFFFFFFFFFFFFFFFFFFFFFFFFFFFFFFFFFFFFF AND SWAP1 POP SWAP2 SWAP1 POP JUMP JUMPDEST PUSH0 DUP1 DUP1 SLOAD SWAP1 POP SWAP1 POP SWAP1 JUMP JUMPDEST PUSH1 0x60 PUSH0 DUP1 SLOAD DUP1 PUSH1 0x20 MUL PUSH1 0x20 ADD PUSH1 0x40 MLOAD SWAP1 DUP2 ADD PUSH1 0x40 MSTORE DUP1 SWAP3 SWAP2 SWAP1 DUP2 DUP2 MSTORE PUSH1 0x20 ADD DUP3 DUP1 SLOAD DUP1 ISZERO PUSH2 0x225 JUMPI PUSH1 0x20 MUL DUP3 ADD SWAP2 SWAP1 PUSH0 MSTORE PUSH1 0x20 PUSH0 KECCAK256 SWAP1 JUMPDEST DUP2 PUSH0 SWAP1 SLOAD SWAP1 PUSH2 0x100 EXP SWAP1 DIV PUSH20 0xFFFFFFFFFFFFFFFFFFFFFFFFFFFFFFFFFFFFFFFF AND PUSH20 0xFFFFFFFFFFFFFFFFFFFFFFFFFFFFFFFFFFFFFFFF AND DUP2 MSTORE PUSH1 0x20 ADD SWAP1 PUSH1 0x1 ADD SWAP1 DUP1 DUP4 GT PUSH2 0x1DC JUMPI JUMPDEST POP POP POP POP POP SWAP1 POP SWAP1 JUMP JUMPDEST PUSH0 DUP2 SWAP1 DUP1 PUSH1 0x1 DUP2 SLOAD ADD DUP1 DUP3 SSTORE DUP1 SWAP2 POP POP PUSH1 0x1 SWAP1 SUB SWAP1 PUSH0 MSTORE PUSH1 0x20 PUSH0 KECCAK256 ADD PUSH0 SWAP1 SWAP2 SWAP1 SWAP2 SWAP1 SWAP2 PUSH2 0x100 EXP DUP2 SLOAD DUP2 PUSH20 0xFFFFFFFFFFFFFFFFFFFFFFFFFFFFFFFFFFFFFFFF MUL NOT AND SWAP1 DUP4 PUSH20 0xFFFFFFFFFFFFFFFFFFFFFFFFFFFFFFFFFFFFFFFF AND MUL OR SWAP1 SSTORE POP POP JUMP JUMPDEST PUSH0 DUP2 DUP2 SLOAD DUP2 LT PUSH2 0x29F JUMPI PUSH0 DUP1 REVERT JUMPDEST SWAP1 PUSH0 MSTORE PUSH1 0x20 PUSH0 KECCAK256 ADD PUSH0 SWAP2 POP SLOAD SWAP1 PUSH2 0x100 EXP SWAP1 DIV PUSH20 0xFFFFFFFFFFFFFFFFFFFFFFFFFFFFFFFFFFFFFFFF AND DUP2 JUMP JUMPDEST PUSH0 DUP1 REVERT JUMPDEST PUSH0 DUP2 SWAP1 POP SWAP2 SWAP1 POP JUMP JUMPDEST PUSH2 0x2E1 DUP2 PUSH2 0x2CF JUMP JUMPDEST DUP2 EQ PUSH2 0x2EB JUMPI PUSH0 DUP1 REVERT JUMPDEST POP JUMP JUMPDEST PUSH0 DUP2 CALLDATALOAD SWAP1 POP PUSH2 0x2FC DUP2 PUSH2 0x2D8 JUMP JUMPDEST SWAP3 SWAP2 POP POP JUMP JUMPDEST PUSH0 PUSH1 0x20 DUP3 DUP5 SUB SLT ISZERO PUSH2 0x317 JUMPI PUSH2 0x316 PUSH2 0x2CB JUMP JUMPDEST JUMPDEST PUSH0 PUSH2 0x324 DUP5 DUP3 DUP6 ADD PUSH2 0x2EE JUMP JUMPDEST SWAP2 POP POP SWAP3 SWAP2 POP POP JUMP JUMPDEST PUSH0 PUSH20 0xFFFFFFFFFFFFFFFFFFFFFFFFFFFFFFFFFFFFFFFF DUP3 AND SWAP1 POP SWAP2 SWAP1 POP JUMP JUMPDEST PUSH0 PUSH2 0x356 DUP3 PUSH2 0x32D JUMP JUMPDEST SWAP1 POP SWAP2 SWAP1 POP JUMP JUMPDEST PUSH2 0x366 DUP2 PUSH2 0x34C JUMP JUMPDEST DUP3 MSTORE POP POP JUMP JUMPDEST PUSH0 PUSH1 0x20 DUP3 ADD SWAP1 POP PUSH2 0x37F PUSH0 DUP4 ADD DUP5 PUSH2 0x35D JUMP JUMPDEST SWAP3 SWAP2 POP POP JUMP JUMPDEST PUSH2 0x38E DUP2 PUSH2 0x2CF JUMP JUMPDEST DUP3 MSTORE POP POP JUMP JUMPDEST PUSH0 PUSH1 0x20 DUP3 ADD SWAP1 POP PUSH2 0x3A7 PUSH0 DUP4 ADD DUP5 PUSH2 0x385 JUMP JUMPDEST SWAP3 SWAP2 POP POP JUMP JUMPDEST PUSH0 DUP2 MLOAD SWAP1 POP SWAP2 SWAP1 POP JUMP JUMPDEST PUSH0 DUP3 DUP3 MSTORE PUSH1 0x20 DUP3 ADD SWAP1 POP SWAP3 SWAP2 POP POP JUMP JUMPDEST PUSH0 DUP2 SWAP1 POP PUSH1 0x20 DUP3 ADD SWAP1 POP SWAP2 SWAP1 POP JUMP JUMPDEST PUSH2 0x3DF DUP2 PUSH2 0x34C JUMP JUMPDEST DUP3 MSTORE POP POP JUMP JUMPDEST PUSH0 PUSH2 0x3F0 DUP4 DUP4 PUSH2 0x3D6 JUMP JUMPDEST PUSH1 0x20 DUP4 ADD SWAP1 POP SWAP3 SWAP2 POP POP JUMP JUMPDEST PUSH0 PUSH1 0x20 DUP3 ADD SWAP1 POP SWAP2 SWAP1 POP JUMP JUMPDEST PUSH0 PUSH2 0x412 DUP3 PUSH2 0x3AD JUMP JUMPDEST PUSH2 0x41C DUP2 DUP6 PUSH2 0x3B7 JUMP JUMPDEST SWAP4 POP PUSH2 0x427 DUP4 PUSH2 0x3C7 JUMP JUMPDEST DUP1 PUSH0 JUMPDEST DUP4 DUP2 LT ISZERO PUSH2 0x457 JUMPI DUP2 MLOAD PUSH2 0x43E DUP9 DUP3 PUSH2 0x3E5 JUMP JUMPDEST SWAP8 POP PUSH2 0x449 DUP4 PUSH2 0x3FC JUMP JUMPDEST SWAP3 POP POP PUSH1 0x1 DUP2 ADD SWAP1 POP PUSH2 0x42A JUMP JUMPDEST POP DUP6 SWAP4 POP POP POP POP SWAP3 SWAP2 POP POP JUMP JUMPDEST PUSH0 PUSH1 0x20 DUP3 ADD SWAP1 POP DUP2 DUP2 SUB PUSH0 DUP4 ADD MSTORE PUSH2 0x47C DUP2 DUP5 PUSH2 0x408 JUMP JUMPDEST SWAP1 POP SWAP3 SWAP2 POP POP JUMP JUMPDEST PUSH2 0x48D DUP2 PUSH2 0x34C JUMP JUMPDEST DUP2 EQ PUSH2 0x497 JUMPI PUSH0 DUP1 REVERT JUMPDEST POP JUMP JUMPDEST PUSH0 DUP2 CALLDATALOAD SWAP1 POP PUSH2 0x4A8 DUP2 PUSH2 0x484 JUMP JUMPDEST SWAP3 SWAP2 POP POP JUMP JUMPDEST PUSH0 PUSH1 0x20 DUP3 DUP5 SUB SLT ISZERO PUSH2 0x4C3 JUMPI PUSH2 0x4C2 PUSH2 0x2CB JUMP JUMPDEST JUMPDEST PUSH0 PUSH2 0x4D0 DUP5 DUP3 DUP6 ADD PUSH2 0x49A JUMP JUMPDEST SWAP2 POP POP SWAP3 SWAP2 POP POP JUMP JUMPDEST PUSH0 DUP3 DUP3 MSTORE PUSH1 0x20 DUP3 ADD SWAP1 POP SWAP3 SWAP2 POP POP JUMP JUMPDEST PUSH32 0x496E646578206F7574206F6620626F756E647300000000000000000000000000 PUSH0 DUP3 ADD MSTORE POP JUMP JUMPDEST PUSH0 PUSH2 0x51D PUSH1 0x13 DUP4 PUSH2 0x4D9 JUMP JUMPDEST SWAP2 POP PUSH2 0x528 DUP3 PUSH2 0x4E9 JUMP JUMPDEST PUSH1 0x20 DUP3 ADD SWAP1 POP SWAP2 SWAP1 POP JUMP JUMPDEST PUSH0 PUSH1 0x20 DUP3 ADD SWAP1 POP DUP2 DUP2 SUB PUSH0 DUP4 ADD MSTORE PUSH2 0x54A DUP2 PUSH2 0x511 JUMP JUMPDEST SWAP1 POP SWAP2 SWAP1 POP JUMP JUMPDEST PUSH32 0x4E487B7100000000000000000000000000000000000000000000000000000000 PUSH0 MSTORE PUSH1 0x32 PUSH1 0x4 MSTORE PUSH1 0x24 PUSH0 REVERT INVALID LOG2 PUSH5 0x6970667358 0x22 SLT KECCAK256 0x4F 0x5C 0xBD SSTORE 0xE0 0x29 0x2B 0xD5 0x2D 0x2B CREATE2 LOG1 0xE3 ADD 0xED 0x27 CALLER CALLDATACOPY 0xE6 0xBF EXTCODESIZE 0xD6 PUSH19 0xB2CF3997081CBFE02864736F6C634300081600 CALLER "
		},
		"gasEstimates": {
			"creation": {
				"codeDepositCost": "1237200",
				"executionCost": "infinite",
				"totalCost": "infinite"
			},
			"external": {
				"addInformationList(string[])": "infinite",
				"buyers(uint256)": "5010",
				"deleteInformationList(uint256)": "infinite",
				"getListCount()": "2463",
				"getUserInformation(address)": "infinite",
				"informationList(uint256,uint256)": "infinite",
				"sellers(uint256)": "4966",
				"test()": "infinite",
				"updateInformation(uint256,uint256,string)": "infinite"
			}
		},
		"methodIdentifiers": {
			"addInformationList(string[])": "42b6d145",
			"buyers(uint256)": "f2aa8218",
			"deleteInformationList(uint256)": "db3fb9d8",
			"getListCount()": "2ce37b10",
			"getUserInformation(address)": "9862d5f0",
			"informationList(uint256,uint256)": "8c7c2399",
			"sellers(uint256)": "cee26ed5",
			"test()": "f8a8fd6d",
			"updateInformation(uint256,uint256,string)": "2ab23fc9"
		}
	},
	"abi": [
		{
			"inputs": [
				{
					"internalType": "string[]",
					"name": "infoList",
					"type": "string[]"
				}
			],
			"name": "addInformationList",
			"outputs": [],
			"stateMutability": "nonpayable",
			"type": "function"
		},
		{
			"inputs": [
				{
					"internalType": "uint256",
					"name": "",
					"type": "uint256"
				}
			],
			"name": "buyers",
			"outputs": [
				{
					"internalType": "address",
					"name": "",
					"type": "address"
				}
			],
			"stateMutability": "view",
			"type": "function"
		},
		{
			"inputs": [
				{
					"internalType": "uint256",
					"name": "listIndex",
					"type": "uint256"
				}
			],
			"name": "deleteInformationList",
			"outputs": [],
			"stateMutability": "nonpayable",
			"type": "function"
		},
		{
			"inputs": [],
			"name": "getListCount",
			"outputs": [
				{
					"internalType": "uint256",
					"name": "",
					"type": "uint256"
				}
			],
			"stateMutability": "view",
			"type": "function"
		},
		{
			"inputs": [
				{
					"internalType": "address",
					"name": "user",
					"type": "address"
				}
			],
			"name": "getUserInformation",
			"outputs": [
				{
					"internalType": "string[][]",
					"name": "",
					"type": "string[][]"
				}
			],
			"stateMutability": "view",
			"type": "function"
		},
		{
			"inputs": [
				{
					"internalType": "uint256",
					"name": "",
					"type": "uint256"
				},
				{
					"internalType": "uint256",
					"name": "",
					"type": "uint256"
				}
			],
			"name": "informationList",
			"outputs": [
				{
					"internalType": "string",
					"name": "",
					"type": "string"
				}
			],
			"stateMutability": "view",
			"type": "function"
		},
		{
			"inputs": [
				{
					"internalType": "uint256",
					"name": "",
					"type": "uint256"
				}
			],
			"name": "sellers",
			"outputs": [
				{
					"internalType": "address",
					"name": "",
					"type": "address"
				}
			],
			"stateMutability": "view",
			"type": "function"
		},
		{
			"inputs": [],
			"name": "test",
			"outputs": [],
			"stateMutability": "view",
			"type": "function"
		},
		{
			"inputs": [
				{
					"internalType": "uint256",
					"name": "listIndex",
					"type": "uint256"
				},
				{
					"internalType": "uint256",
					"name": "infoIndex",
					"type": "uint256"
				},
				{
					"internalType": "string",
					"name": "newInfo",
					"type": "string"
				}
			],
			"name": "updateInformation",
			"outputs": [
				{
					"internalType": "uint256",
					"name": "",
					"type": "uint256"
				}
			],
			"stateMutability": "nonpayable",
			"type": "function"
		}
	]
}