{
	"DataTradingTest/Buyer.sol": {
		"Buyer": {
			"abi": [
				{
					"inputs": [],
					"stateMutability": "nonpayable",
					"type": "constructor"
				},
				{
					"inputs": [
						{
							"internalType": "address",
							"name": "buyer",
							"type": "address"
						}
					],
					"name": "addbuyer",
					"outputs": [],
					"stateMutability": "nonpayable",
					"type": "function"
				},
				{
					"inputs": [
						{
							"internalType": "uint256",
							"name": "",
							"type": "uint256"
						}
					],
					"name": "buyers",
					"outputs": [
						{
							"internalType": "address",
							"name": "",
							"type": "address"
						}
					],
					"stateMutability": "view",
					"type": "function"
				},
				{
					"inputs": [],
					"name": "getAllBuyers",
					"outputs": [
						{
							"internalType": "address[]",
							"name": "",
							"type": "address[]"
						}
					],
					"stateMutability": "view",
					"type": "function"
				},
				{
					"inputs": [
						{
							"internalType": "uint256",
							"name": "index",
							"type": "uint256"
						}
					],
					"name": "getBuyerById",
					"outputs": [
						{
							"internalType": "address",
							"name": "",
							"type": "address"
						}
					],
					"stateMutability": "view",
					"type": "function"
				},
				{
					"inputs": [],
					"name": "getbuyerCount",
					"outputs": [
						{
							"internalType": "uint256",
							"name": "",
							"type": "uint256"
						}
					],
					"stateMutability": "view",
					"type": "function"
				}
			],
			"devdoc": {
				"kind": "dev",
				"methods": {},
				"version": 1
			},
			"evm": {
				"assembly": "    /* \"DataTradingTest/Buyer.sol\":61:962  contract Buyer {... */\n  mstore(0x40, 0x80)\n    /* \"DataTradingTest/Buyer.sol\":115:343  constructor() {... */\n  callvalue\n  dup1\n  iszero\n  tag_1\n  jumpi\n  0x00\n  dup1\n  revert\ntag_1:\n  pop\n    /* \"DataTradingTest/Buyer.sol\":177:183  buyers */\n  0x00\n    /* \"DataTradingTest/Buyer.sol\":189:231  0x5B38Da6a701c568545dCfcB03FcB875f56beddC4 */\n  0x5b38da6a701c568545dcfcb03fcb875f56beddc4\n    /* \"DataTradingTest/Buyer.sol\":177:232  buyers.push(0x5B38Da6a701c568545dCfcB03FcB875f56beddC4) */\n  swap1\n  dup1\n  0x01\n  dup2\n  sload\n  add\n  dup1\n  dup3\n  sstore\n  dup1\n  swap2\n  pop\n  pop\n  0x01\n  swap1\n  sub\n  swap1\n  0x00\n  mstore\n  keccak256(0x00, 0x20)\n  add\n  0x00\n  swap1\n  swap2\n  swap1\n  swap2\n  swap1\n  swap2\n  0x0100\n  exp\n  dup2\n  sload\n  dup2\n  0xffffffffffffffffffffffffffffffffffffffff\n  mul\n  not\n  and\n  swap1\n  dup4\n  0xffffffffffffffffffffffffffffffffffffffff\n  and\n  mul\n  or\n  swap1\n  sstore\n  pop\n    /* \"DataTradingTest/Buyer.sol\":243:249  buyers */\n  0x00\n    /* \"DataTradingTest/Buyer.sol\":255:297  0xAb8483F64d9C6d1EcF9b849Ae677dD3315835cb2 */\n  0xab8483f64d9c6d1ecf9b849ae677dd3315835cb2\n    /* \"DataTradingTest/Buyer.sol\":243:298  buyers.push(0xAb8483F64d9C6d1EcF9b849Ae677dD3315835cb2) */\n  swap1\n  dup1\n  0x01\n  dup2\n  sload\n  add\n  dup1\n  dup3\n  sstore\n  dup1\n  swap2\n  pop\n  pop\n  0x01\n  swap1\n  sub\n  swap1\n  0x00\n  mstore\n  keccak256(0x00, 0x20)\n  add\n  0x00\n  swap1\n  swap2\n  swap1\n  swap2\n  swap1\n  swap2\n  0x0100\n  exp\n  dup2\n  sload\n  dup2\n  0xffffffffffffffffffffffffffffffffffffffff\n  mul\n  not\n  and\n  swap1\n  dup4\n  0xffffffffffffffffffffffffffffffffffffffff\n  and\n  mul\n  or\n  swap1\n  sstore\n  pop\n    /* \"DataTradingTest/Buyer.sol\":61:962  contract Buyer {... */\n  dataSize(sub_0)\n  dup1\n  dataOffset(sub_0)\n  0x00\n  codecopy\n  0x00\n  return\nstop\n\nsub_0: assembly {\n        /* \"DataTradingTest/Buyer.sol\":61:962  contract Buyer {... */\n      mstore(0x40, 0x80)\n      callvalue\n      dup1\n      iszero\n      tag_1\n      jumpi\n      0x00\n      dup1\n      revert\n    tag_1:\n      pop\n      jumpi(tag_2, lt(calldatasize, 0x04))\n      shr(0xe0, calldataload(0x00))\n      dup1\n      0x48e5ff6d\n      eq\n      tag_3\n      jumpi\n      dup1\n      0x6cd84f70\n      eq\n      tag_4\n      jumpi\n      dup1\n      0x86cba22b\n      eq\n      tag_5\n      jumpi\n      dup1\n      0xe8266a78\n      eq\n      tag_6\n      jumpi\n      dup1\n      0xf2aa8218\n      eq\n      tag_7\n      jumpi\n    tag_2:\n      0x00\n      dup1\n      revert\n        /* \"DataTradingTest/Buyer.sol\":649:816  function getBuyerById(uint index) public view returns (address) {... */\n    tag_3:\n      tag_8\n      0x04\n      dup1\n      calldatasize\n      sub\n      dup2\n      add\n      swap1\n      tag_9\n      swap2\n      swap1\n      tag_10\n      jump\t// in\n    tag_9:\n      tag_11\n      jump\t// in\n    tag_8:\n      mload(0x40)\n      tag_12\n      swap2\n      swap1\n      tag_13\n      jump\t// in\n    tag_12:\n      mload(0x40)\n      dup1\n      swap2\n      sub\n      swap1\n      return\n        /* \"DataTradingTest/Buyer.sol\":505:596  function getbuyerCount() public view returns (uint) {... */\n    tag_4:\n      tag_14\n      tag_15\n      jump\t// in\n    tag_14:\n      mload(0x40)\n      tag_16\n      swap2\n      swap1\n      tag_17\n      jump\t// in\n    tag_16:\n      mload(0x40)\n      dup1\n      swap2\n      sub\n      swap1\n      return\n        /* \"DataTradingTest/Buyer.sol\":864:959  function getAllBuyers() public view returns (address[] memory) {... */\n    tag_5:\n      tag_18\n      tag_19\n      jump\t// in\n    tag_18:\n      mload(0x40)\n      tag_20\n      swap2\n      swap1\n      tag_21\n      jump\t// in\n    tag_20:\n      mload(0x40)\n      dup1\n      swap2\n      sub\n      swap1\n      return\n        /* \"DataTradingTest/Buyer.sol\":384:461  function addbuyer(address buyer) public {... */\n    tag_6:\n      tag_22\n      0x04\n      dup1\n      calldatasize\n      sub\n      dup2\n      add\n      swap1\n      tag_23\n      swap2\n      swap1\n      tag_24\n      jump\t// in\n    tag_23:\n      tag_25\n      jump\t// in\n    tag_22:\n      stop\n        /* \"DataTradingTest/Buyer.sol\":83:106  address[] public buyers */\n    tag_7:\n      tag_26\n      0x04\n      dup1\n      calldatasize\n      sub\n      dup2\n      add\n      swap1\n      tag_27\n      swap2\n      swap1\n      tag_10\n      jump\t// in\n    tag_27:\n      tag_28\n      jump\t// in\n    tag_26:\n      mload(0x40)\n      tag_29\n      swap2\n      swap1\n      tag_13\n      jump\t// in\n    tag_29:\n      mload(0x40)\n      dup1\n      swap2\n      sub\n      swap1\n      return\n        /* \"DataTradingTest/Buyer.sol\":649:816  function getBuyerById(uint index) public view returns (address) {... */\n    tag_11:\n        /* \"DataTradingTest/Buyer.sol\":704:711  address */\n      0x00\n        /* \"DataTradingTest/Buyer.sol\":740:746  buyers */\n      dup1\n        /* \"DataTradingTest/Buyer.sol\":740:753  buyers.length */\n      dup1\n      sload\n      swap1\n      pop\n        /* \"DataTradingTest/Buyer.sol\":732:737  index */\n      dup3\n        /* \"DataTradingTest/Buyer.sol\":732:753  index < buyers.length */\n      lt\n        /* \"DataTradingTest/Buyer.sol\":724:777  require(index < buyers.length, \"Index out of bounds\") */\n      tag_31\n      jumpi\n      mload(0x40)\n      0x08c379a000000000000000000000000000000000000000000000000000000000\n      dup2\n      mstore\n      0x04\n      add\n      tag_32\n      swap1\n      tag_33\n      jump\t// in\n    tag_32:\n      mload(0x40)\n      dup1\n      swap2\n      sub\n      swap1\n      revert\n    tag_31:\n        /* \"DataTradingTest/Buyer.sol\":795:801  buyers */\n      0x00\n        /* \"DataTradingTest/Buyer.sol\":802:807  index */\n      dup3\n        /* \"DataTradingTest/Buyer.sol\":795:808  buyers[index] */\n      dup2\n      sload\n      dup2\n      lt\n      tag_34\n      jumpi\n      tag_35\n      tag_36\n      jump\t// in\n    tag_35:\n    tag_34:\n      swap1\n      0x00\n      mstore\n      keccak256(0x00, 0x20)\n      add\n      0x00\n      swap1\n      sload\n      swap1\n      0x0100\n      exp\n      swap1\n      div\n      0xffffffffffffffffffffffffffffffffffffffff\n      and\n        /* \"DataTradingTest/Buyer.sol\":788:808  return buyers[index] */\n      swap1\n      pop\n        /* \"DataTradingTest/Buyer.sol\":649:816  function getBuyerById(uint index) public view returns (address) {... */\n      swap2\n      swap1\n      pop\n      jump\t// out\n        /* \"DataTradingTest/Buyer.sol\":505:596  function getbuyerCount() public view returns (uint) {... */\n    tag_15:\n        /* \"DataTradingTest/Buyer.sol\":551:555  uint */\n      0x00\n        /* \"DataTradingTest/Buyer.sol\":575:581  buyers */\n      dup1\n        /* \"DataTradingTest/Buyer.sol\":575:588  buyers.length */\n      dup1\n      sload\n      swap1\n      pop\n        /* \"DataTradingTest/Buyer.sol\":568:588  return buyers.length */\n      swap1\n      pop\n        /* \"DataTradingTest/Buyer.sol\":505:596  function getbuyerCount() public view returns (uint) {... */\n      swap1\n      jump\t// out\n        /* \"DataTradingTest/Buyer.sol\":864:959  function getAllBuyers() public view returns (address[] memory) {... */\n    tag_19:\n        /* \"DataTradingTest/Buyer.sol\":909:925  address[] memory */\n      0x60\n        /* \"DataTradingTest/Buyer.sol\":945:951  buyers */\n      0x00\n        /* \"DataTradingTest/Buyer.sol\":938:951  return buyers */\n      dup1\n      sload\n      dup1\n      0x20\n      mul\n      0x20\n      add\n      mload(0x40)\n      swap1\n      dup2\n      add\n      0x40\n      mstore\n      dup1\n      swap3\n      swap2\n      swap1\n      dup2\n      dup2\n      mstore\n      0x20\n      add\n      dup3\n      dup1\n      sload\n      dup1\n      iszero\n      tag_40\n      jumpi\n      0x20\n      mul\n      dup3\n      add\n      swap2\n      swap1\n      0x00\n      mstore\n      keccak256(0x00, 0x20)\n      swap1\n    tag_41:\n      dup2\n      0x00\n      swap1\n      sload\n      swap1\n      0x0100\n      exp\n      swap1\n      div\n      0xffffffffffffffffffffffffffffffffffffffff\n      and\n      0xffffffffffffffffffffffffffffffffffffffff\n      and\n      dup2\n      mstore\n      0x20\n      add\n      swap1\n      0x01\n      add\n      swap1\n      dup1\n      dup4\n      gt\n      tag_41\n      jumpi\n    tag_40:\n      pop\n      pop\n      pop\n      pop\n      pop\n      swap1\n      pop\n        /* \"DataTradingTest/Buyer.sol\":864:959  function getAllBuyers() public view returns (address[] memory) {... */\n      swap1\n      jump\t// out\n        /* \"DataTradingTest/Buyer.sol\":384:461  function addbuyer(address buyer) public {... */\n    tag_25:\n        /* \"DataTradingTest/Buyer.sol\":435:441  buyers */\n      0x00\n        /* \"DataTradingTest/Buyer.sol\":447:452  buyer */\n      dup2\n        /* \"DataTradingTest/Buyer.sol\":435:453  buyers.push(buyer) */\n      swap1\n      dup1\n      0x01\n      dup2\n      sload\n      add\n      dup1\n      dup3\n      sstore\n      dup1\n      swap2\n      pop\n      pop\n      0x01\n      swap1\n      sub\n      swap1\n      0x00\n      mstore\n      keccak256(0x00, 0x20)\n      add\n      0x00\n      swap1\n      swap2\n      swap1\n      swap2\n      swap1\n      swap2\n      0x0100\n      exp\n      dup2\n      sload\n      dup2\n      0xffffffffffffffffffffffffffffffffffffffff\n      mul\n      not\n      and\n      swap1\n      dup4\n      0xffffffffffffffffffffffffffffffffffffffff\n      and\n      mul\n      or\n      swap1\n      sstore\n      pop\n        /* \"DataTradingTest/Buyer.sol\":384:461  function addbuyer(address buyer) public {... */\n      pop\n      jump\t// out\n        /* \"DataTradingTest/Buyer.sol\":83:106  address[] public buyers */\n    tag_28:\n      0x00\n      dup2\n      dup2\n      sload\n      dup2\n      lt\n      tag_44\n      jumpi\n      0x00\n      dup1\n      revert\n    tag_44:\n      swap1\n      0x00\n      mstore\n      keccak256(0x00, 0x20)\n      add\n      0x00\n      swap2\n      pop\n      sload\n      swap1\n      0x0100\n      exp\n      swap1\n      div\n      0xffffffffffffffffffffffffffffffffffffffff\n      and\n      dup2\n      jump\t// out\n        /* \"#utility.yul\":88:205   */\n    tag_47:\n        /* \"#utility.yul\":197:198   */\n      0x00\n        /* \"#utility.yul\":194:195   */\n      dup1\n        /* \"#utility.yul\":187:199   */\n      revert\n        /* \"#utility.yul\":334:411   */\n    tag_49:\n        /* \"#utility.yul\":371:378   */\n      0x00\n        /* \"#utility.yul\":400:405   */\n      dup2\n        /* \"#utility.yul\":389:405   */\n      swap1\n      pop\n        /* \"#utility.yul\":334:411   */\n      swap2\n      swap1\n      pop\n      jump\t// out\n        /* \"#utility.yul\":417:539   */\n    tag_50:\n        /* \"#utility.yul\":490:514   */\n      tag_74\n        /* \"#utility.yul\":508:513   */\n      dup2\n        /* \"#utility.yul\":490:514   */\n      tag_49\n      jump\t// in\n    tag_74:\n        /* \"#utility.yul\":483:488   */\n      dup2\n        /* \"#utility.yul\":480:515   */\n      eq\n        /* \"#utility.yul\":470:533   */\n      tag_75\n      jumpi\n        /* \"#utility.yul\":529:530   */\n      0x00\n        /* \"#utility.yul\":526:527   */\n      dup1\n        /* \"#utility.yul\":519:531   */\n      revert\n        /* \"#utility.yul\":470:533   */\n    tag_75:\n        /* \"#utility.yul\":417:539   */\n      pop\n      jump\t// out\n        /* \"#utility.yul\":545:684   */\n    tag_51:\n        /* \"#utility.yul\":591:596   */\n      0x00\n        /* \"#utility.yul\":629:635   */\n      dup2\n        /* \"#utility.yul\":616:636   */\n      calldataload\n        /* \"#utility.yul\":607:636   */\n      swap1\n      pop\n        /* \"#utility.yul\":645:678   */\n      tag_77\n        /* \"#utility.yul\":672:677   */\n      dup2\n        /* \"#utility.yul\":645:678   */\n      tag_50\n      jump\t// in\n    tag_77:\n        /* \"#utility.yul\":545:684   */\n      swap3\n      swap2\n      pop\n      pop\n      jump\t// out\n        /* \"#utility.yul\":690:1019   */\n    tag_10:\n        /* \"#utility.yul\":749:755   */\n      0x00\n        /* \"#utility.yul\":798:800   */\n      0x20\n        /* \"#utility.yul\":786:795   */\n      dup3\n        /* \"#utility.yul\":777:784   */\n      dup5\n        /* \"#utility.yul\":773:796   */\n      sub\n        /* \"#utility.yul\":769:801   */\n      slt\n        /* \"#utility.yul\":766:885   */\n      iszero\n      tag_79\n      jumpi\n        /* \"#utility.yul\":804:883   */\n      tag_80\n      tag_47\n      jump\t// in\n    tag_80:\n        /* \"#utility.yul\":766:885   */\n    tag_79:\n        /* \"#utility.yul\":924:925   */\n      0x00\n        /* \"#utility.yul\":949:1002   */\n      tag_81\n        /* \"#utility.yul\":994:1001   */\n      dup5\n        /* \"#utility.yul\":985:991   */\n      dup3\n        /* \"#utility.yul\":974:983   */\n      dup6\n        /* \"#utility.yul\":970:992   */\n      add\n        /* \"#utility.yul\":949:1002   */\n      tag_51\n      jump\t// in\n    tag_81:\n        /* \"#utility.yul\":939:1002   */\n      swap2\n      pop\n        /* \"#utility.yul\":895:1012   */\n      pop\n        /* \"#utility.yul\":690:1019   */\n      swap3\n      swap2\n      pop\n      pop\n      jump\t// out\n        /* \"#utility.yul\":1025:1151   */\n    tag_52:\n        /* \"#utility.yul\":1062:1069   */\n      0x00\n        /* \"#utility.yul\":1102:1144   */\n      0xffffffffffffffffffffffffffffffffffffffff\n        /* \"#utility.yul\":1095:1100   */\n      dup3\n        /* \"#utility.yul\":1091:1145   */\n      and\n        /* \"#utility.yul\":1080:1145   */\n      swap1\n      pop\n        /* \"#utility.yul\":1025:1151   */\n      swap2\n      swap1\n      pop\n      jump\t// out\n        /* \"#utility.yul\":1157:1253   */\n    tag_53:\n        /* \"#utility.yul\":1194:1201   */\n      0x00\n        /* \"#utility.yul\":1223:1247   */\n      tag_84\n        /* \"#utility.yul\":1241:1246   */\n      dup3\n        /* \"#utility.yul\":1223:1247   */\n      tag_52\n      jump\t// in\n    tag_84:\n        /* \"#utility.yul\":1212:1247   */\n      swap1\n      pop\n        /* \"#utility.yul\":1157:1253   */\n      swap2\n      swap1\n      pop\n      jump\t// out\n        /* \"#utility.yul\":1259:1377   */\n    tag_54:\n        /* \"#utility.yul\":1346:1370   */\n      tag_86\n        /* \"#utility.yul\":1364:1369   */\n      dup2\n        /* \"#utility.yul\":1346:1370   */\n      tag_53\n      jump\t// in\n    tag_86:\n        /* \"#utility.yul\":1341:1344   */\n      dup3\n        /* \"#utility.yul\":1334:1371   */\n      mstore\n        /* \"#utility.yul\":1259:1377   */\n      pop\n      pop\n      jump\t// out\n        /* \"#utility.yul\":1383:1605   */\n    tag_13:\n        /* \"#utility.yul\":1476:1480   */\n      0x00\n        /* \"#utility.yul\":1514:1516   */\n      0x20\n        /* \"#utility.yul\":1503:1512   */\n      dup3\n        /* \"#utility.yul\":1499:1517   */\n      add\n        /* \"#utility.yul\":1491:1517   */\n      swap1\n      pop\n        /* \"#utility.yul\":1527:1598   */\n      tag_88\n        /* \"#utility.yul\":1595:1596   */\n      0x00\n        /* \"#utility.yul\":1584:1593   */\n      dup4\n        /* \"#utility.yul\":1580:1597   */\n      add\n        /* \"#utility.yul\":1571:1577   */\n      dup5\n        /* \"#utility.yul\":1527:1598   */\n      tag_54\n      jump\t// in\n    tag_88:\n        /* \"#utility.yul\":1383:1605   */\n      swap3\n      swap2\n      pop\n      pop\n      jump\t// out\n        /* \"#utility.yul\":1611:1729   */\n    tag_55:\n        /* \"#utility.yul\":1698:1722   */\n      tag_90\n        /* \"#utility.yul\":1716:1721   */\n      dup2\n        /* \"#utility.yul\":1698:1722   */\n      tag_49\n      jump\t// in\n    tag_90:\n        /* \"#utility.yul\":1693:1696   */\n      dup3\n        /* \"#utility.yul\":1686:1723   */\n      mstore\n        /* \"#utility.yul\":1611:1729   */\n      pop\n      pop\n      jump\t// out\n        /* \"#utility.yul\":1735:1957   */\n    tag_17:\n        /* \"#utility.yul\":1828:1832   */\n      0x00\n        /* \"#utility.yul\":1866:1868   */\n      0x20\n        /* \"#utility.yul\":1855:1864   */\n      dup3\n        /* \"#utility.yul\":1851:1869   */\n      add\n        /* \"#utility.yul\":1843:1869   */\n      swap1\n      pop\n        /* \"#utility.yul\":1879:1950   */\n      tag_92\n        /* \"#utility.yul\":1947:1948   */\n      0x00\n        /* \"#utility.yul\":1936:1945   */\n      dup4\n        /* \"#utility.yul\":1932:1949   */\n      add\n        /* \"#utility.yul\":1923:1929   */\n      dup5\n        /* \"#utility.yul\":1879:1950   */\n      tag_55\n      jump\t// in\n    tag_92:\n        /* \"#utility.yul\":1735:1957   */\n      swap3\n      swap2\n      pop\n      pop\n      jump\t// out\n        /* \"#utility.yul\":1963:2077   */\n    tag_56:\n        /* \"#utility.yul\":2030:2036   */\n      0x00\n        /* \"#utility.yul\":2064:2069   */\n      dup2\n        /* \"#utility.yul\":2058:2070   */\n      mload\n        /* \"#utility.yul\":2048:2070   */\n      swap1\n      pop\n        /* \"#utility.yul\":1963:2077   */\n      swap2\n      swap1\n      pop\n      jump\t// out\n        /* \"#utility.yul\":2083:2267   */\n    tag_57:\n        /* \"#utility.yul\":2182:2193   */\n      0x00\n        /* \"#utility.yul\":2216:2222   */\n      dup3\n        /* \"#utility.yul\":2211:2214   */\n      dup3\n        /* \"#utility.yul\":2204:2223   */\n      mstore\n        /* \"#utility.yul\":2256:2260   */\n      0x20\n        /* \"#utility.yul\":2251:2254   */\n      dup3\n        /* \"#utility.yul\":2247:2261   */\n      add\n        /* \"#utility.yul\":2232:2261   */\n      swap1\n      pop\n        /* \"#utility.yul\":2083:2267   */\n      swap3\n      swap2\n      pop\n      pop\n      jump\t// out\n        /* \"#utility.yul\":2273:2405   */\n    tag_58:\n        /* \"#utility.yul\":2340:2344   */\n      0x00\n        /* \"#utility.yul\":2363:2366   */\n      dup2\n        /* \"#utility.yul\":2355:2366   */\n      swap1\n      pop\n        /* \"#utility.yul\":2393:2397   */\n      0x20\n        /* \"#utility.yul\":2388:2391   */\n      dup3\n        /* \"#utility.yul\":2384:2398   */\n      add\n        /* \"#utility.yul\":2376:2398   */\n      swap1\n      pop\n        /* \"#utility.yul\":2273:2405   */\n      swap2\n      swap1\n      pop\n      jump\t// out\n        /* \"#utility.yul\":2411:2519   */\n    tag_59:\n        /* \"#utility.yul\":2488:2512   */\n      tag_97\n        /* \"#utility.yul\":2506:2511   */\n      dup2\n        /* \"#utility.yul\":2488:2512   */\n      tag_53\n      jump\t// in\n    tag_97:\n        /* \"#utility.yul\":2483:2486   */\n      dup3\n        /* \"#utility.yul\":2476:2513   */\n      mstore\n        /* \"#utility.yul\":2411:2519   */\n      pop\n      pop\n      jump\t// out\n        /* \"#utility.yul\":2525:2704   */\n    tag_60:\n        /* \"#utility.yul\":2594:2604   */\n      0x00\n        /* \"#utility.yul\":2615:2661   */\n      tag_99\n        /* \"#utility.yul\":2657:2660   */\n      dup4\n        /* \"#utility.yul\":2649:2655   */\n      dup4\n        /* \"#utility.yul\":2615:2661   */\n      tag_59\n      jump\t// in\n    tag_99:\n        /* \"#utility.yul\":2693:2697   */\n      0x20\n        /* \"#utility.yul\":2688:2691   */\n      dup4\n        /* \"#utility.yul\":2684:2698   */\n      add\n        /* \"#utility.yul\":2670:2698   */\n      swap1\n      pop\n        /* \"#utility.yul\":2525:2704   */\n      swap3\n      swap2\n      pop\n      pop\n      jump\t// out\n        /* \"#utility.yul\":2710:2823   */\n    tag_61:\n        /* \"#utility.yul\":2780:2784   */\n      0x00\n        /* \"#utility.yul\":2812:2816   */\n      0x20\n        /* \"#utility.yul\":2807:2810   */\n      dup3\n        /* \"#utility.yul\":2803:2817   */\n      add\n        /* \"#utility.yul\":2795:2817   */\n      swap1\n      pop\n        /* \"#utility.yul\":2710:2823   */\n      swap2\n      swap1\n      pop\n      jump\t// out\n        /* \"#utility.yul\":2859:3591   */\n    tag_62:\n        /* \"#utility.yul\":2978:2981   */\n      0x00\n        /* \"#utility.yul\":3007:3061   */\n      tag_102\n        /* \"#utility.yul\":3055:3060   */\n      dup3\n        /* \"#utility.yul\":3007:3061   */\n      tag_56\n      jump\t// in\n    tag_102:\n        /* \"#utility.yul\":3077:3163   */\n      tag_103\n        /* \"#utility.yul\":3156:3162   */\n      dup2\n        /* \"#utility.yul\":3151:3154   */\n      dup6\n        /* \"#utility.yul\":3077:3163   */\n      tag_57\n      jump\t// in\n    tag_103:\n        /* \"#utility.yul\":3070:3163   */\n      swap4\n      pop\n        /* \"#utility.yul\":3187:3243   */\n      tag_104\n        /* \"#utility.yul\":3237:3242   */\n      dup4\n        /* \"#utility.yul\":3187:3243   */\n      tag_58\n      jump\t// in\n    tag_104:\n        /* \"#utility.yul\":3266:3273   */\n      dup1\n        /* \"#utility.yul\":3297:3298   */\n      0x00\n        /* \"#utility.yul\":3282:3566   */\n    tag_105:\n        /* \"#utility.yul\":3307:3313   */\n      dup4\n        /* \"#utility.yul\":3304:3305   */\n      dup2\n        /* \"#utility.yul\":3301:3314   */\n      lt\n        /* \"#utility.yul\":3282:3566   */\n      iszero\n      tag_107\n      jumpi\n        /* \"#utility.yul\":3383:3389   */\n      dup2\n        /* \"#utility.yul\":3377:3390   */\n      mload\n        /* \"#utility.yul\":3410:3473   */\n      tag_108\n        /* \"#utility.yul\":3469:3472   */\n      dup9\n        /* \"#utility.yul\":3454:3467   */\n      dup3\n        /* \"#utility.yul\":3410:3473   */\n      tag_60\n      jump\t// in\n    tag_108:\n        /* \"#utility.yul\":3403:3473   */\n      swap8\n      pop\n        /* \"#utility.yul\":3496:3556   */\n      tag_109\n        /* \"#utility.yul\":3549:3555   */\n      dup4\n        /* \"#utility.yul\":3496:3556   */\n      tag_61\n      jump\t// in\n    tag_109:\n        /* \"#utility.yul\":3486:3556   */\n      swap3\n      pop\n        /* \"#utility.yul\":3342:3566   */\n      pop\n        /* \"#utility.yul\":3329:3330   */\n      0x01\n        /* \"#utility.yul\":3326:3327   */\n      dup2\n        /* \"#utility.yul\":3322:3331   */\n      add\n        /* \"#utility.yul\":3317:3331   */\n      swap1\n      pop\n        /* \"#utility.yul\":3282:3566   */\n      jump(tag_105)\n    tag_107:\n        /* \"#utility.yul\":3286:3300   */\n      pop\n        /* \"#utility.yul\":3582:3585   */\n      dup6\n        /* \"#utility.yul\":3575:3585   */\n      swap4\n      pop\n        /* \"#utility.yul\":2983:3591   */\n      pop\n      pop\n      pop\n        /* \"#utility.yul\":2859:3591   */\n      swap3\n      swap2\n      pop\n      pop\n      jump\t// out\n        /* \"#utility.yul\":3597:3970   */\n    tag_21:\n        /* \"#utility.yul\":3740:3744   */\n      0x00\n        /* \"#utility.yul\":3778:3780   */\n      0x20\n        /* \"#utility.yul\":3767:3776   */\n      dup3\n        /* \"#utility.yul\":3763:3781   */\n      add\n        /* \"#utility.yul\":3755:3781   */\n      swap1\n      pop\n        /* \"#utility.yul\":3827:3836   */\n      dup2\n        /* \"#utility.yul\":3821:3825   */\n      dup2\n        /* \"#utility.yul\":3817:3837   */\n      sub\n        /* \"#utility.yul\":3813:3814   */\n      0x00\n        /* \"#utility.yul\":3802:3811   */\n      dup4\n        /* \"#utility.yul\":3798:3815   */\n      add\n        /* \"#utility.yul\":3791:3838   */\n      mstore\n        /* \"#utility.yul\":3855:3963   */\n      tag_111\n        /* \"#utility.yul\":3958:3962   */\n      dup2\n        /* \"#utility.yul\":3949:3955   */\n      dup5\n        /* \"#utility.yul\":3855:3963   */\n      tag_62\n      jump\t// in\n    tag_111:\n        /* \"#utility.yul\":3847:3963   */\n      swap1\n      pop\n        /* \"#utility.yul\":3597:3970   */\n      swap3\n      swap2\n      pop\n      pop\n      jump\t// out\n        /* \"#utility.yul\":3976:4098   */\n    tag_63:\n        /* \"#utility.yul\":4049:4073   */\n      tag_113\n        /* \"#utility.yul\":4067:4072   */\n      dup2\n        /* \"#utility.yul\":4049:4073   */\n      tag_53\n      jump\t// in\n    tag_113:\n        /* \"#utility.yul\":4042:4047   */\n      dup2\n        /* \"#utility.yul\":4039:4074   */\n      eq\n        /* \"#utility.yul\":4029:4092   */\n      tag_114\n      jumpi\n        /* \"#utility.yul\":4088:4089   */\n      0x00\n        /* \"#utility.yul\":4085:4086   */\n      dup1\n        /* \"#utility.yul\":4078:4090   */\n      revert\n        /* \"#utility.yul\":4029:4092   */\n    tag_114:\n        /* \"#utility.yul\":3976:4098   */\n      pop\n      jump\t// out\n        /* \"#utility.yul\":4104:4243   */\n    tag_64:\n        /* \"#utility.yul\":4150:4155   */\n      0x00\n        /* \"#utility.yul\":4188:4194   */\n      dup2\n        /* \"#utility.yul\":4175:4195   */\n      calldataload\n        /* \"#utility.yul\":4166:4195   */\n      swap1\n      pop\n        /* \"#utility.yul\":4204:4237   */\n      tag_116\n        /* \"#utility.yul\":4231:4236   */\n      dup2\n        /* \"#utility.yul\":4204:4237   */\n      tag_63\n      jump\t// in\n    tag_116:\n        /* \"#utility.yul\":4104:4243   */\n      swap3\n      swap2\n      pop\n      pop\n      jump\t// out\n        /* \"#utility.yul\":4249:4578   */\n    tag_24:\n        /* \"#utility.yul\":4308:4314   */\n      0x00\n        /* \"#utility.yul\":4357:4359   */\n      0x20\n        /* \"#utility.yul\":4345:4354   */\n      dup3\n        /* \"#utility.yul\":4336:4343   */\n      dup5\n        /* \"#utility.yul\":4332:4355   */\n      sub\n        /* \"#utility.yul\":4328:4360   */\n      slt\n        /* \"#utility.yul\":4325:4444   */\n      iszero\n      tag_118\n      jumpi\n        /* \"#utility.yul\":4363:4442   */\n      tag_119\n      tag_47\n      jump\t// in\n    tag_119:\n        /* \"#utility.yul\":4325:4444   */\n    tag_118:\n        /* \"#utility.yul\":4483:4484   */\n      0x00\n        /* \"#utility.yul\":4508:4561   */\n      tag_120\n        /* \"#utility.yul\":4553:4560   */\n      dup5\n        /* \"#utility.yul\":4544:4550   */\n      dup3\n        /* \"#utility.yul\":4533:4542   */\n      dup6\n        /* \"#utility.yul\":4529:4551   */\n      add\n        /* \"#utility.yul\":4508:4561   */\n      tag_64\n      jump\t// in\n    tag_120:\n        /* \"#utility.yul\":4498:4561   */\n      swap2\n      pop\n        /* \"#utility.yul\":4454:4571   */\n      pop\n        /* \"#utility.yul\":4249:4578   */\n      swap3\n      swap2\n      pop\n      pop\n      jump\t// out\n        /* \"#utility.yul\":4584:4753   */\n    tag_65:\n        /* \"#utility.yul\":4668:4679   */\n      0x00\n        /* \"#utility.yul\":4702:4708   */\n      dup3\n        /* \"#utility.yul\":4697:4700   */\n      dup3\n        /* \"#utility.yul\":4690:4709   */\n      mstore\n        /* \"#utility.yul\":4742:4746   */\n      0x20\n        /* \"#utility.yul\":4737:4740   */\n      dup3\n        /* \"#utility.yul\":4733:4747   */\n      add\n        /* \"#utility.yul\":4718:4747   */\n      swap1\n      pop\n        /* \"#utility.yul\":4584:4753   */\n      swap3\n      swap2\n      pop\n      pop\n      jump\t// out\n        /* \"#utility.yul\":4759:4928   */\n    tag_66:\n        /* \"#utility.yul\":4899:4920   */\n      0x496e646578206f7574206f6620626f756e647300000000000000000000000000\n        /* \"#utility.yul\":4895:4896   */\n      0x00\n        /* \"#utility.yul\":4887:4893   */\n      dup3\n        /* \"#utility.yul\":4883:4897   */\n      add\n        /* \"#utility.yul\":4876:4921   */\n      mstore\n        /* \"#utility.yul\":4759:4928   */\n      pop\n      jump\t// out\n        /* \"#utility.yul\":4934:5300   */\n    tag_67:\n        /* \"#utility.yul\":5076:5079   */\n      0x00\n        /* \"#utility.yul\":5097:5164   */\n      tag_124\n        /* \"#utility.yul\":5161:5163   */\n      0x13\n        /* \"#utility.yul\":5156:5159   */\n      dup4\n        /* \"#utility.yul\":5097:5164   */\n      tag_65\n      jump\t// in\n    tag_124:\n        /* \"#utility.yul\":5090:5164   */\n      swap2\n      pop\n        /* \"#utility.yul\":5173:5266   */\n      tag_125\n        /* \"#utility.yul\":5262:5265   */\n      dup3\n        /* \"#utility.yul\":5173:5266   */\n      tag_66\n      jump\t// in\n    tag_125:\n        /* \"#utility.yul\":5291:5293   */\n      0x20\n        /* \"#utility.yul\":5286:5289   */\n      dup3\n        /* \"#utility.yul\":5282:5294   */\n      add\n        /* \"#utility.yul\":5275:5294   */\n      swap1\n      pop\n        /* \"#utility.yul\":4934:5300   */\n      swap2\n      swap1\n      pop\n      jump\t// out\n        /* \"#utility.yul\":5306:5725   */\n    tag_33:\n        /* \"#utility.yul\":5472:5476   */\n      0x00\n        /* \"#utility.yul\":5510:5512   */\n      0x20\n        /* \"#utility.yul\":5499:5508   */\n      dup3\n        /* \"#utility.yul\":5495:5513   */\n      add\n        /* \"#utility.yul\":5487:5513   */\n      swap1\n      pop\n        /* \"#utility.yul\":5559:5568   */\n      dup2\n        /* \"#utility.yul\":5553:5557   */\n      dup2\n        /* \"#utility.yul\":5549:5569   */\n      sub\n        /* \"#utility.yul\":5545:5546   */\n      0x00\n        /* \"#utility.yul\":5534:5543   */\n      dup4\n        /* \"#utility.yul\":5530:5547   */\n      add\n        /* \"#utility.yul\":5523:5570   */\n      mstore\n        /* \"#utility.yul\":5587:5718   */\n      tag_127\n        /* \"#utility.yul\":5713:5717   */\n      dup2\n        /* \"#utility.yul\":5587:5718   */\n      tag_67\n      jump\t// in\n    tag_127:\n        /* \"#utility.yul\":5579:5718   */\n      swap1\n      pop\n        /* \"#utility.yul\":5306:5725   */\n      swap2\n      swap1\n      pop\n      jump\t// out\n        /* \"#utility.yul\":5731:5911   */\n    tag_36:\n        /* \"#utility.yul\":5779:5856   */\n      0x4e487b7100000000000000000000000000000000000000000000000000000000\n        /* \"#utility.yul\":5776:5777   */\n      0x00\n        /* \"#utility.yul\":5769:5857   */\n      mstore\n        /* \"#utility.yul\":5876:5880   */\n      0x32\n        /* \"#utility.yul\":5873:5874   */\n      0x04\n        /* \"#utility.yul\":5866:5881   */\n      mstore\n        /* \"#utility.yul\":5900:5904   */\n      0x24\n        /* \"#utility.yul\":5897:5898   */\n      0x00\n        /* \"#utility.yul\":5890:5905   */\n      revert\n\n    auxdata: 0xa26469706673582212204f5cbd55e0292bd52d2bf5a1e301ed273337e6bf3bd672b2cf3997081cbfe02864736f6c63430008160033\n}\n",
				"bytecode": {
					"linkReferences": {},
					"object": "608060405234801561000f575f80fd5b505f735b38da6a701c568545dcfcb03fcb875f56beddc4908060018154018082558091505060019003905f5260205f20015f9091909190916101000a81548173ffffffffffffffffffffffffffffffffffffffff021916908373ffffffffffffffffffffffffffffffffffffffff1602179055505f73ab8483f64d9c6d1ecf9b849ae677dd3315835cb2908060018154018082558091505060019003905f5260205f20015f9091909190916101000a81548173ffffffffffffffffffffffffffffffffffffffff021916908373ffffffffffffffffffffffffffffffffffffffff1602179055506105b4806101035f395ff3fe608060405234801561000f575f80fd5b5060043610610055575f3560e01c806348e5ff6d146100595780636cd84f701461008957806386cba22b146100a7578063e8266a78146100c5578063f2aa8218146100e1575b5f80fd5b610073600480360381019061006e9190610302565b610111565b604051610080919061036c565b60405180910390f35b61009161019a565b60405161009e9190610394565b60405180910390f35b6100af6101a5565b6040516100bc9190610464565b60405180910390f35b6100df60048036038101906100da91906104ae565b61022f565b005b6100fb60048036038101906100f69190610302565b610291565b604051610108919061036c565b60405180910390f35b5f80805490508210610158576040517f08c379a000000000000000000000000000000000000000000000000000000000815260040161014f90610533565b60405180910390fd5b5f828154811061016b5761016a610551565b5b905f5260205f20015f9054906101000a900473ffffffffffffffffffffffffffffffffffffffff169050919050565b5f8080549050905090565b60605f80548060200260200160405190810160405280929190818152602001828054801561022557602002820191905f5260205f20905b815f9054906101000a900473ffffffffffffffffffffffffffffffffffffffff1673ffffffffffffffffffffffffffffffffffffffff16815260200190600101908083116101dc575b5050505050905090565b5f81908060018154018082558091505060019003905f5260205f20015f9091909190916101000a81548173ffffffffffffffffffffffffffffffffffffffff021916908373ffffffffffffffffffffffffffffffffffffffff16021790555050565b5f818154811061029f575f80fd5b905f5260205f20015f915054906101000a900473ffffffffffffffffffffffffffffffffffffffff1681565b5f80fd5b5f819050919050565b6102e1816102cf565b81146102eb575f80fd5b50565b5f813590506102fc816102d8565b92915050565b5f60208284031215610317576103166102cb565b5b5f610324848285016102ee565b91505092915050565b5f73ffffffffffffffffffffffffffffffffffffffff82169050919050565b5f6103568261032d565b9050919050565b6103668161034c565b82525050565b5f60208201905061037f5f83018461035d565b92915050565b61038e816102cf565b82525050565b5f6020820190506103a75f830184610385565b92915050565b5f81519050919050565b5f82825260208201905092915050565b5f819050602082019050919050565b6103df8161034c565b82525050565b5f6103f083836103d6565b60208301905092915050565b5f602082019050919050565b5f610412826103ad565b61041c81856103b7565b9350610427836103c7565b805f5b8381101561045757815161043e88826103e5565b9750610449836103fc565b92505060018101905061042a565b5085935050505092915050565b5f6020820190508181035f83015261047c8184610408565b905092915050565b61048d8161034c565b8114610497575f80fd5b50565b5f813590506104a881610484565b92915050565b5f602082840312156104c3576104c26102cb565b5b5f6104d08482850161049a565b91505092915050565b5f82825260208201905092915050565b7f496e646578206f7574206f6620626f756e6473000000000000000000000000005f82015250565b5f61051d6013836104d9565b9150610528826104e9565b602082019050919050565b5f6020820190508181035f83015261054a81610511565b9050919050565b7f4e487b71000000000000000000000000000000000000000000000000000000005f52603260045260245ffdfea26469706673582212204f5cbd55e0292bd52d2bf5a1e301ed273337e6bf3bd672b2cf3997081cbfe02864736f6c63430008160033",
					"opcodes": "PUSH1 0x80 PUSH1 0x40 MSTORE CALLVALUE DUP1 ISZERO PUSH2 0xF JUMPI PUSH0 DUP1 REVERT JUMPDEST POP PUSH0 PUSH20 0x5B38DA6A701C568545DCFCB03FCB875F56BEDDC4 SWAP1 DUP1 PUSH1 0x1 DUP2 SLOAD ADD DUP1 DUP3 SSTORE DUP1 SWAP2 POP POP PUSH1 0x1 SWAP1 SUB SWAP1 PUSH0 MSTORE PUSH1 0x20 PUSH0 KECCAK256 ADD PUSH0 SWAP1 SWAP2 SWAP1 SWAP2 SWAP1 SWAP2 PUSH2 0x100 EXP DUP2 SLOAD DUP2 PUSH20 0xFFFFFFFFFFFFFFFFFFFFFFFFFFFFFFFFFFFFFFFF MUL NOT AND SWAP1 DUP4 PUSH20 0xFFFFFFFFFFFFFFFFFFFFFFFFFFFFFFFFFFFFFFFF AND MUL OR SWAP1 SSTORE POP PUSH0 PUSH20 0xAB8483F64D9C6D1ECF9B849AE677DD3315835CB2 SWAP1 DUP1 PUSH1 0x1 DUP2 SLOAD ADD DUP1 DUP3 SSTORE DUP1 SWAP2 POP POP PUSH1 0x1 SWAP1 SUB SWAP1 PUSH0 MSTORE PUSH1 0x20 PUSH0 KECCAK256 ADD PUSH0 SWAP1 SWAP2 SWAP1 SWAP2 SWAP1 SWAP2 PUSH2 0x100 EXP DUP2 SLOAD DUP2 PUSH20 0xFFFFFFFFFFFFFFFFFFFFFFFFFFFFFFFFFFFFFFFF MUL NOT AND SWAP1 DUP4 PUSH20 0xFFFFFFFFFFFFFFFFFFFFFFFFFFFFFFFFFFFFFFFF AND MUL OR SWAP1 SSTORE POP PUSH2 0x5B4 DUP1 PUSH2 0x103 PUSH0 CODECOPY PUSH0 RETURN INVALID PUSH1 0x80 PUSH1 0x40 MSTORE CALLVALUE DUP1 ISZERO PUSH2 0xF JUMPI PUSH0 DUP1 REVERT JUMPDEST POP PUSH1 0x4 CALLDATASIZE LT PUSH2 0x55 JUMPI PUSH0 CALLDATALOAD PUSH1 0xE0 SHR DUP1 PUSH4 0x48E5FF6D EQ PUSH2 0x59 JUMPI DUP1 PUSH4 0x6CD84F70 EQ PUSH2 0x89 JUMPI DUP1 PUSH4 0x86CBA22B EQ PUSH2 0xA7 JUMPI DUP1 PUSH4 0xE8266A78 EQ PUSH2 0xC5 JUMPI DUP1 PUSH4 0xF2AA8218 EQ PUSH2 0xE1 JUMPI JUMPDEST PUSH0 DUP1 REVERT JUMPDEST PUSH2 0x73 PUSH1 0x4 DUP1 CALLDATASIZE SUB DUP2 ADD SWAP1 PUSH2 0x6E SWAP2 SWAP1 PUSH2 0x302 JUMP JUMPDEST PUSH2 0x111 JUMP JUMPDEST PUSH1 0x40 MLOAD PUSH2 0x80 SWAP2 SWAP1 PUSH2 0x36C JUMP JUMPDEST PUSH1 0x40 MLOAD DUP1 SWAP2 SUB SWAP1 RETURN JUMPDEST PUSH2 0x91 PUSH2 0x19A JUMP JUMPDEST PUSH1 0x40 MLOAD PUSH2 0x9E SWAP2 SWAP1 PUSH2 0x394 JUMP JUMPDEST PUSH1 0x40 MLOAD DUP1 SWAP2 SUB SWAP1 RETURN JUMPDEST PUSH2 0xAF PUSH2 0x1A5 JUMP JUMPDEST PUSH1 0x40 MLOAD PUSH2 0xBC SWAP2 SWAP1 PUSH2 0x464 JUMP JUMPDEST PUSH1 0x40 MLOAD DUP1 SWAP2 SUB SWAP1 RETURN JUMPDEST PUSH2 0xDF PUSH1 0x4 DUP1 CALLDATASIZE SUB DUP2 ADD SWAP1 PUSH2 0xDA SWAP2 SWAP1 PUSH2 0x4AE JUMP JUMPDEST PUSH2 0x22F JUMP JUMPDEST STOP JUMPDEST PUSH2 0xFB PUSH1 0x4 DUP1 CALLDATASIZE SUB DUP2 ADD SWAP1 PUSH2 0xF6 SWAP2 SWAP1 PUSH2 0x302 JUMP JUMPDEST PUSH2 0x291 JUMP JUMPDEST PUSH1 0x40 MLOAD PUSH2 0x108 SWAP2 SWAP1 PUSH2 0x36C JUMP JUMPDEST PUSH1 0x40 MLOAD DUP1 SWAP2 SUB SWAP1 RETURN JUMPDEST PUSH0 DUP1 DUP1 SLOAD SWAP1 POP DUP3 LT PUSH2 0x158 JUMPI PUSH1 0x40 MLOAD PUSH32 0x8C379A000000000000000000000000000000000000000000000000000000000 DUP2 MSTORE PUSH1 0x4 ADD PUSH2 0x14F SWAP1 PUSH2 0x533 JUMP JUMPDEST PUSH1 0x40 MLOAD DUP1 SWAP2 SUB SWAP1 REVERT JUMPDEST PUSH0 DUP3 DUP2 SLOAD DUP2 LT PUSH2 0x16B JUMPI PUSH2 0x16A PUSH2 0x551 JUMP JUMPDEST JUMPDEST SWAP1 PUSH0 MSTORE PUSH1 0x20 PUSH0 KECCAK256 ADD PUSH0 SWAP1 SLOAD SWAP1 PUSH2 0x100 EXP SWAP1 DIV PUSH20 0xFFFFFFFFFFFFFFFFFFFFFFFFFFFFFFFFFFFFFFFF AND SWAP1 POP SWAP2 SWAP1 POP JUMP JUMPDEST PUSH0 DUP1 DUP1 SLOAD SWAP1 POP SWAP1 POP SWAP1 JUMP JUMPDEST PUSH1 0x60 PUSH0 DUP1 SLOAD DUP1 PUSH1 0x20 MUL PUSH1 0x20 ADD PUSH1 0x40 MLOAD SWAP1 DUP2 ADD PUSH1 0x40 MSTORE DUP1 SWAP3 SWAP2 SWAP1 DUP2 DUP2 MSTORE PUSH1 0x20 ADD DUP3 DUP1 SLOAD DUP1 ISZERO PUSH2 0x225 JUMPI PUSH1 0x20 MUL DUP3 ADD SWAP2 SWAP1 PUSH0 MSTORE PUSH1 0x20 PUSH0 KECCAK256 SWAP1 JUMPDEST DUP2 PUSH0 SWAP1 SLOAD SWAP1 PUSH2 0x100 EXP SWAP1 DIV PUSH20 0xFFFFFFFFFFFFFFFFFFFFFFFFFFFFFFFFFFFFFFFF AND PUSH20 0xFFFFFFFFFFFFFFFFFFFFFFFFFFFFFFFFFFFFFFFF AND DUP2 MSTORE PUSH1 0x20 ADD SWAP1 PUSH1 0x1 ADD SWAP1 DUP1 DUP4 GT PUSH2 0x1DC JUMPI JUMPDEST POP POP POP POP POP SWAP1 POP SWAP1 JUMP JUMPDEST PUSH0 DUP2 SWAP1 DUP1 PUSH1 0x1 DUP2 SLOAD ADD DUP1 DUP3 SSTORE DUP1 SWAP2 POP POP PUSH1 0x1 SWAP1 SUB SWAP1 PUSH0 MSTORE PUSH1 0x20 PUSH0 KECCAK256 ADD PUSH0 SWAP1 SWAP2 SWAP1 SWAP2 SWAP1 SWAP2 PUSH2 0x100 EXP DUP2 SLOAD DUP2 PUSH20 0xFFFFFFFFFFFFFFFFFFFFFFFFFFFFFFFFFFFFFFFF MUL NOT AND SWAP1 DUP4 PUSH20 0xFFFFFFFFFFFFFFFFFFFFFFFFFFFFFFFFFFFFFFFF AND MUL OR SWAP1 SSTORE POP POP JUMP JUMPDEST PUSH0 DUP2 DUP2 SLOAD DUP2 LT PUSH2 0x29F JUMPI PUSH0 DUP1 REVERT JUMPDEST SWAP1 PUSH0 MSTORE PUSH1 0x20 PUSH0 KECCAK256 ADD PUSH0 SWAP2 POP SLOAD SWAP1 PUSH2 0x100 EXP SWAP1 DIV PUSH20 0xFFFFFFFFFFFFFFFFFFFFFFFFFFFFFFFFFFFFFFFF AND DUP2 JUMP JUMPDEST PUSH0 DUP1 REVERT JUMPDEST PUSH0 DUP2 SWAP1 POP SWAP2 SWAP1 POP JUMP JUMPDEST PUSH2 0x2E1 DUP2 PUSH2 0x2CF JUMP JUMPDEST DUP2 EQ PUSH2 0x2EB JUMPI PUSH0 DUP1 REVERT JUMPDEST POP JUMP JUMPDEST PUSH0 DUP2 CALLDATALOAD SWAP1 POP PUSH2 0x2FC DUP2 PUSH2 0x2D8 JUMP JUMPDEST SWAP3 SWAP2 POP POP JUMP JUMPDEST PUSH0 PUSH1 0x20 DUP3 DUP5 SUB SLT ISZERO PUSH2 0x317 JUMPI PUSH2 0x316 PUSH2 0x2CB JUMP JUMPDEST JUMPDEST PUSH0 PUSH2 0x324 DUP5 DUP3 DUP6 ADD PUSH2 0x2EE JUMP JUMPDEST SWAP2 POP POP SWAP3 SWAP2 POP POP JUMP JUMPDEST PUSH0 PUSH20 0xFFFFFFFFFFFFFFFFFFFFFFFFFFFFFFFFFFFFFFFF DUP3 AND SWAP1 POP SWAP2 SWAP1 POP JUMP JUMPDEST PUSH0 PUSH2 0x356 DUP3 PUSH2 0x32D JUMP JUMPDEST SWAP1 POP SWAP2 SWAP1 POP JUMP JUMPDEST PUSH2 0x366 DUP2 PUSH2 0x34C JUMP JUMPDEST DUP3 MSTORE POP POP JUMP JUMPDEST PUSH0 PUSH1 0x20 DUP3 ADD SWAP1 POP PUSH2 0x37F PUSH0 DUP4 ADD DUP5 PUSH2 0x35D JUMP JUMPDEST SWAP3 SWAP2 POP POP JUMP JUMPDEST PUSH2 0x38E DUP2 PUSH2 0x2CF JUMP JUMPDEST DUP3 MSTORE POP POP JUMP JUMPDEST PUSH0 PUSH1 0x20 DUP3 ADD SWAP1 POP PUSH2 0x3A7 PUSH0 DUP4 ADD DUP5 PUSH2 0x385 JUMP JUMPDEST SWAP3 SWAP2 POP POP JUMP JUMPDEST PUSH0 DUP2 MLOAD SWAP1 POP SWAP2 SWAP1 POP JUMP JUMPDEST PUSH0 DUP3 DUP3 MSTORE PUSH1 0x20 DUP3 ADD SWAP1 POP SWAP3 SWAP2 POP POP JUMP JUMPDEST PUSH0 DUP2 SWAP1 POP PUSH1 0x20 DUP3 ADD SWAP1 POP SWAP2 SWAP1 POP JUMP JUMPDEST PUSH2 0x3DF DUP2 PUSH2 0x34C JUMP JUMPDEST DUP3 MSTORE POP POP JUMP JUMPDEST PUSH0 PUSH2 0x3F0 DUP4 DUP4 PUSH2 0x3D6 JUMP JUMPDEST PUSH1 0x20 DUP4 ADD SWAP1 POP SWAP3 SWAP2 POP POP JUMP JUMPDEST PUSH0 PUSH1 0x20 DUP3 ADD SWAP1 POP SWAP2 SWAP1 POP JUMP JUMPDEST PUSH0 PUSH2 0x412 DUP3 PUSH2 0x3AD JUMP JUMPDEST PUSH2 0x41C DUP2 DUP6 PUSH2 0x3B7 JUMP JUMPDEST SWAP4 POP PUSH2 0x427 DUP4 PUSH2 0x3C7 JUMP JUMPDEST DUP1 PUSH0 JUMPDEST DUP4 DUP2 LT ISZERO PUSH2 0x457 JUMPI DUP2 MLOAD PUSH2 0x43E DUP9 DUP3 PUSH2 0x3E5 JUMP JUMPDEST SWAP8 POP PUSH2 0x449 DUP4 PUSH2 0x3FC JUMP JUMPDEST SWAP3 POP POP PUSH1 0x1 DUP2 ADD SWAP1 POP PUSH2 0x42A JUMP JUMPDEST POP DUP6 SWAP4 POP POP POP POP SWAP3 SWAP2 POP POP JUMP JUMPDEST PUSH0 PUSH1 0x20 DUP3 ADD SWAP1 POP DUP2 DUP2 SUB PUSH0 DUP4 ADD MSTORE PUSH2 0x47C DUP2 DUP5 PUSH2 0x408 JUMP JUMPDEST SWAP1 POP SWAP3 SWAP2 POP POP JUMP JUMPDEST PUSH2 0x48D DUP2 PUSH2 0x34C JUMP JUMPDEST DUP2 EQ PUSH2 0x497 JUMPI PUSH0 DUP1 REVERT JUMPDEST POP JUMP JUMPDEST PUSH0 DUP2 CALLDATALOAD SWAP1 POP PUSH2 0x4A8 DUP2 PUSH2 0x484 JUMP JUMPDEST SWAP3 SWAP2 POP POP JUMP JUMPDEST PUSH0 PUSH1 0x20 DUP3 DUP5 SUB SLT ISZERO PUSH2 0x4C3 JUMPI PUSH2 0x4C2 PUSH2 0x2CB JUMP JUMPDEST JUMPDEST PUSH0 PUSH2 0x4D0 DUP5 DUP3 DUP6 ADD PUSH2 0x49A JUMP JUMPDEST SWAP2 POP POP SWAP3 SWAP2 POP POP JUMP JUMPDEST PUSH0 DUP3 DUP3 MSTORE PUSH1 0x20 DUP3 ADD SWAP1 POP SWAP3 SWAP2 POP POP JUMP JUMPDEST PUSH32 0x496E646578206F7574206F6620626F756E647300000000000000000000000000 PUSH0 DUP3 ADD MSTORE POP JUMP JUMPDEST PUSH0 PUSH2 0x51D PUSH1 0x13 DUP4 PUSH2 0x4D9 JUMP JUMPDEST SWAP2 POP PUSH2 0x528 DUP3 PUSH2 0x4E9 JUMP JUMPDEST PUSH1 0x20 DUP3 ADD SWAP1 POP SWAP2 SWAP1 POP JUMP JUMPDEST PUSH0 PUSH1 0x20 DUP3 ADD SWAP1 POP DUP2 DUP2 SUB PUSH0 DUP4 ADD MSTORE PUSH2 0x54A DUP2 PUSH2 0x511 JUMP JUMPDEST SWAP1 POP SWAP2 SWAP1 POP JUMP JUMPDEST PUSH32 0x4E487B7100000000000000000000000000000000000000000000000000000000 PUSH0 MSTORE PUSH1 0x32 PUSH1 0x4 MSTORE PUSH1 0x24 PUSH0 REVERT INVALID LOG2 PUSH5 0x6970667358 0x22 SLT KECCAK256 0x4F 0x5C 0xBD SSTORE 0xE0 0x29 0x2B 0xD5 0x2D 0x2B CREATE2 LOG1 0xE3 ADD 0xED 0x27 CALLER CALLDATACOPY 0xE6 0xBF EXTCODESIZE 0xD6 PUSH19 0xB2CF3997081CBFE02864736F6C634300081600 CALLER "
				},
				"gasEstimates": {
					"creation": {
						"codeDepositCost": "292000",
						"executionCost": "97479",
						"totalCost": "389479"
					},
					"external": {
						"addbuyer(address)": "49068",
						"buyers(uint256)": "5009",
						"getAllBuyers()": "infinite",
						"getBuyerById(uint256)": "7062",
						"getbuyerCount()": "2440"
					}
				},
				"methodIdentifiers": {
					"addbuyer(address)": "e8266a78",
					"buyers(uint256)": "f2aa8218",
					"getAllBuyers()": "86cba22b",
					"getBuyerById(uint256)": "48e5ff6d",
					"getbuyerCount()": "6cd84f70"
				}
			},
			"storageLayout": {
				"storage": [
					{
						"astId": 4,
						"contract": "DataTradingTest/Buyer.sol:Buyer",
						"label": "buyers",
						"offset": 0,
						"slot": "0",
						"type": "t_array(t_address)dyn_storage"
					}
				],
				"types": {
					"t_address": {
						"encoding": "inplace",
						"label": "address",
						"numberOfBytes": "20"
					},
					"t_array(t_address)dyn_storage": {
						"base": "t_address",
						"encoding": "dynamic_array",
						"label": "address[]",
						"numberOfBytes": "32"
					}
				}
			},
			"userdoc": {
				"kind": "user",
				"methods": {},
				"version": 1
			}
		}
	}
}